:100000000C9486010C94B7010C94D10D0C94D10D75
:100010000C94130E0C94B7010C94D10D0C94B701F1
:100020000C94B7010C941D0E0C94B7010C94B701FD
:100030000C94B7010C94B7010C94B7010C94B70160
:100040000C94B7010C94B7010C94B7010C94B70150
:100050000C94B7010C94B7010C94B7010C94B70140
:100060000C94B7010C94CF070C94B7010C94B70112
:100070000C94B7010C94B7010C94B7010C94B70120
:100080000C94B7010C94B7010C94B7010C94B70110
:100090000C94B7010C94B7010C94B7010C94B70100
:1000A0000C94B7010C94B7010C94B7010C94B701F0
:1000B0000C94B7010C94B7010C94B7010C94B701E0
:1000C0000C94B7010C94B7010C94B7010C94B701D0
:1000D0000C94B7010C94B7010C94B7010C94B701C0
:1000E0000C94B701302B452B532B612B6F2B7D2BA1
:1000F000922BA72BBC2BD12B222B0C2B0763423628
:10010000B79BD8A71A39685618AEBAAB558C1D3CA8
:10011000B7CC5763BD6DEDFD753EF6177231BF006C
:100120000000803F08000000BE922449123EABAAA6
:10013000AA2ABECDCCCC4C3E00000080BEABAAAA01
:10014000AA3E00000000BF000000803F0000000049
:1001500000084178D3BB4387D1133D190E3CC3BD82
:100160004282AD2B3E68EC8276BED98FE1A93E4C2F
:1001700080EFFFBE01C4FF7F3F00000000000C9431
:1001800087070C94A72B0C94D12B0C94612B0C9407
:10019000222B0C940C2B0C946F2B0C94452B0C9451
:1001A000BC2B0C94BB360C94532B0C94302B0C941E
:1001B00097070C94922B0C947D2B6E616E00696EE8
:1001C00066006364696E6F70737578585B65666707
:1001D00045464700616E006E66696E69747900CDB0
:1001E000CCCC3D0AD7233C17B7D13877CC2B3295EE
:1001F00095E6241FB14F0A000020410000C84200CC
:10020000401C4620BCBE4CCA1B0E5AAEC59D740095
:10021000407A10F35A00A0724E18090010A5D4E8D5
:100220000000E87648170000E40B54020000CA9A68
:100230003B000000E1F505000080969800000040BA
:10024000420F000000A086010000001027000000FF
:1002500000E803000000006400000000000A000045
:100260000000000100000000002C76D888DC674FF9
:100270000823DFC1DFAE59E1B1B796E5E3E453C629
:100280003AE651997696E8E6C28426EB898C9B6221
:10029000ED407C6FFCEFBC9C9F40F2BAA56FA5F4CB
:1002A00090055A2AF75C936B6CF9676DC11BFCE0F3
:1002B000E40D47FEF520E6B500D0ED902E03009446
:1002C0003577050080841E080000204E0A000000DB
:1002D000C80C333333330F986E12831141EF8D21E5
:1002E00014893BE65516CFFEE6DB18D1844B381B4C
:1002F000F77C1D901DA4BBE424203284725E228111
:1003000000C9F124ECA1E53D2700BB3611241FBE36
:10031000CFEFD1E2DEBFCDBF00E00CBF13E0A0E025
:10032000B2E0E0E9F9E700E00BBF02C007900D92F0
:10033000AC3CB107D9F726E0ACECB3E001C01D92AC
:10034000A135B207E1F713E0CCE0D3E000E006C04E
:1003500022970109FE010BBF0E942637CA30D10740
:1003600080E00807A9F70E942E360C94C63C0C9436
:100370000000279A08952F9A08952F9808951F9A9C
:1003800008950097D9F020E030E02F9A4FE75AE126
:1003900066E0415050406040E1F700C000002F98F7
:1003A0004FE75AE166E0415050406040E1F700C03D
:1003B00000002F5F3F4F2817390739F70895813024
:1003C00009F441C0823009F44BC0833009F472C093
:1003D000843009F47DC0853009F498C0863009F076
:1003E00008952FEF81EE94E0215080409040E1F796
:1003F00000C0000080910101846080930101809120
:1004000002018460809302018091010182608093E7
:1004100001018091020182608093020180910101BB
:1004200081608093010180910201816080930201CB
:1004300080910101877F8093010180910201877F74
:10044000809302010895809A889A6F9A779A839A86
:100450008B9A819A899A82988A986E98769808954C
:100460000B9A13982FEF81EE94E02150804090403A
:10047000E1F700C0000080910701806880930701C8
:100480008091080180688093080180910701826053
:100490008093070180910801826080930801809118
:1004A000070188608093070180910801886080932C
:1004B000080108950B9A13982FEF81EE94E02150D4
:1004C00080409040E1F700C00000099A119ADDCF0A
:1004D00080910401806180930401809105018F7EE9
:1004E000809305012FEF81EE94E0215080409040F1
:1004F000E1F700C000008091040180648093040152
:1005000080910501806480930501BFCF0F9A1798F1
:100510002FEF81EE94E0215080409040E1F700C041
:1005200000000D9A159A809107018260809307015F
:1005300080910801826080930801809107018860A2
:100540008093070180910801886080930801809161
:1005500007018F7D80930701809108018F7D809333
:1005600008010895813009F0089577988AE08A9506
:10057000F1F7779A81E08A95F1F70895813009F1D2
:10058000823011F1833059F1843081F0853071F17E
:10059000863009F008958091020182608093020103
:1005A000809102018B7F8093020108958091080160
:1005B0008D7F80930801809105018F7B80930501D9
:1005C00008958B9888980895809108018D7F809375
:1005D0000801809108018F77809308010895809128
:1005E00008018D7F8093080111980895809108017A
:1005F0008D7F8093080115980895813031F1823004
:1006000041F1833061F1843081F0853051F18630E1
:1006100009F0089580910201826080930201809127
:100620000201846080930201089580910501806435
:100630008093050180910801826080930801809178
:1006400008018860809308010895889A8B9A899A96
:10065000089580910801806880930801EBCF119A7A
:10066000E9CF159A8091080182608093080108956E
:10067000962F9078813009F4C1C0823029F0833000
:1006800019F0843009F0089580910801992309F444
:1006900038C188608093080181E08A95F1F78091E4
:1006A000080182608093080181E08A95F1F78091CA
:1006B00008018D7F8093080166FF1DC180910801AC
:1006C00088608093080181E08A95F1F780910801A4
:1006D00082608093080181E08A95F1F7809108019A
:1006E0008D7F8093080165FF00C1809108018860BB
:1006F0008093080181E08A95F1F78091080182607A
:100700008093080181E08A95F1F7809108018D7F3F
:100710008093080164FFE3C08091080188608093A2
:10072000080181E08A95F1F7809108018260809349
:10073000080181E08A95F1F7809108018D7F80930F
:10074000080163FFC6C0809108018860809308019A
:1007500081E08A95F1F78091080182608093080119
:1007600081E08A95F1F7809108018D7F80930801DF
:1007700062FFA9C08091080188608093080181E030
:100780008A95F1F78091080182608093080181E0E9
:100790008A95F1F7809108018D7F8093080161FFB0
:1007A0008CC08091080188608093080181E08A955F
:1007B000F1F78091080182608093080181E08A95B9
:1007C000F1F7809108018D7F8093080160FF6FC071
:1007D0008091080188608093080181E08A95F1F793
:1007E0008091080182608093080181E08A95F1F789
:1007F000809108018D7F809308010895911185C033
:10080000899881E08A95F1F78B9A81E08A95F1F7D2
:100810008B9866FF88C0899A81E08A95F1F78B9A58
:1008200081E08A95F1F78B9865FF7BC0899A81E01A
:100830008A95F1F78B9A81E08A95F1F78B9864FF9E
:100840006EC0899A81E08A95F1F78B9A81E08A954A
:10085000F1F78B9863FF61C0899A81E08A95F1F77F
:100860008B9A81E08A95F1F78B9862FF54C0899A40
:1008700081E08A95F1F78B9A81E08A95F1F78B9860
:1008800061FF47C0899A81E08A95F1F78B9A81E0F0
:100890008A95F1F78B9860FF3AC0899A81E08A9532
:1008A000F1F78B9A81E08A95F1F78B980895809102
:1008B0000801877F8093080190CF80910801877F8E
:1008C0008093080173CF80910801877F809308018E
:1008D00056CF80910801877F8093080139CF80919E
:1008E0000801877F809308011CCF80910801877FD2
:1008F00080930801FFCE80910801877F80930801D3
:10090000E2CE877F80930801C7CE899A7ACF8998F3
:10091000C5CF8998B8CF8998ABCF89989ECF899851
:1009200091CF899884CF899877CF813009F4BBC063
:10093000853011F080E0089581E08A95F1F780918B
:1009400008018260809308018091060191E09A95E8
:10095000F1F7909108019D7F9093080185FB88270E
:1009600080F9880F91E09A95F1F7909108019260D3
:10097000909308012091060191E09A95F1F79091EA
:1009800008019D7F9093080125FB992790F9892BF9
:10099000880F91E09A95F1F79091080192609093F9
:1009A00008012091060191E09A95F1F790910801D4
:1009B0009D7F9093080125FB992790F9892B880F3B
:1009C00091E09A95F1F79091080192609093080157
:1009D0002091060191E09A95F1F7909108019D7F91
:1009E0009093080125FB992790F9892B880F91E0B6
:1009F0009A95F1F7909108019260909308012091E7
:100A0000060191E09A95F1F7909108019D7F9093EE
:100A1000080125FB992790F9892B880F91E09A9579
:100A2000F1F79091080192609093080120910601DE
:100A300091E09A95F1F7909108019D7F90930801BC
:100A400025FB992790F9892B880F91E09A95F1F76A
:100A5000909108019260909308012091060191E025
:100A60009A95F1F7909108019D7F9093080125FBDD
:100A7000992790F9892B91E09A95F1F790910801C7
:100A80009260909308012091060191E09A95F1F708
:100A9000909108019D7F90930801880F25FB99276D
:100AA00090F9892B08958A95F1F78B9A8FB191E08F
:100AB0009A95F1F78B9882FB882780F9880F91E04F
:100AC0009A95F1F78B9A2FB191E09A95F1F78B985F
:100AD00022FB992790F9892B880F91E09A95F1F7DD
:100AE0008B9A2FB191E09A95F1F78B9822FB992779
:100AF00090F9892B880F91E09A95F1F78B9A2FB195
:100B000091E09A95F1F78B9822FB992790F9892B20
:100B1000880F91E09A95F1F78B9A2FB191E09A9511
:100B2000F1F78B9822FB992790F9892B880F91E098
:100B30009A95F1F78B9A2FB191E09A95F1F78B98EE
:100B400022FB992790F9892B880F91E09A95F1F76C
:100B50008B9A2FB191E09A95F1F78B9822FB992708
:100B600090F9892B91E09A95F1F78B9A2FB191E04A
:100B70009A95F1F78B98880F22FB992790F9892B8A
:100B80000895962F9078813009F4F3C0863011F0E3
:100B900080E0089580910201911174C18E7F80934D
:100BA000020181E08A95F1F79091000180910201A4
:100BB0008D7F8093020181E08A95F1F78091020197
:100BC00082608093020193FB992790F9990F66FF49
:100BD0008FC18091020181608093020181E08A953A
:100BE000F1F780910001209102012D7F20930201F5
:100BF00021E02A95F1F72091020122602093020161
:100C000083FB882780F9892B880F65FF6BC1909142
:100C1000020191609093020191E09A95F1F7909111
:100C20000001209102012D7F2093020121E02A95ED
:100C3000F1F72091020122602093020193FB992792
:100C400090F9982B990F64FF47C180910201816050
:100C50008093020181E08A95F1F780910001209153
:100C600002012D7F2093020121E02A95F1F72091C6
:100C7000020122602093020183FB882780F9892BDF
:100C8000880F63FF23C1909102019160909302014C
:100C900091E09A95F1F790910001209102012D7F4A
:100CA0002093020121E02A95F1F7209102012260B0
:100CB0002093020193FB992790F9982B990F62FFDB
:100CC000FFC08091020181608093020181E08A95DA
:100CD000F1F780910001209102012D7F2093020104
:100CE00021E02A95F1F72091020122602093020170
:100CF00083FB882780F9892B880F61FFDBC09091E7
:100D0000020191609093020191E09A95F1F7909120
:100D10000001209102012D7F2093020121E02A95FC
:100D2000F1F72091020122602093020193FB9927A1
:100D300090F9982B990F60FFB7C0809102018160F4
:100D40008093020181E08A95F1F780910001209162
:100D500002012D7F2093020121E02A95F1F72091D5
:100D6000020122602093020183FB882780F9892BEE
:100D70000895911185C0899881E08A95F1F78B9A41
:100D80009FB181E08A95F1F78B9892FB992790F9B2
:100D9000990F66FF7DC0899A81E08A95F1F78B9A59
:100DA0008FB121E02A95F1F78B9882FB882780F993
:100DB000892B880F65FF6AC0899A91E09A95F1F7AF
:100DC0008B9A9FB121E02A95F1F78B9892FB992796
:100DD00090F9982B990F64FF63C0899A81E08A95F6
:100DE000F1F78B9A8FB121E02A95F1F78B9882FB6E
:100DF000882780F9892B880F63FF50C0899A91E07A
:100E00009A95F1F78B9A9FB121E02A95F1F78B988B
:100E100092FB992790F9982B990F62FF3DC0899A10
:100E200081E08A95F1F78B9A8FB121E02A95F1F74D
:100E30008B9882FB882780F9892B880F61FF2AC055
:100E4000899A91E09A95F1F78B9A9FB121E02A95C2
:100E5000F1F78B9892FB992790F9982B990F60FFE7
:100E600021C0899A81E08A95F1F78B9A8FB121E0B0
:100E70002A95F1F78B9882FB882780F9892B0895B2
:100E8000899A7ACF8160809302018BCE899895CF21
:100E9000899882CF8998D5CF8998C2CF8998AFCFCA
:100EA00089989CCF8998DECF809102018E7F8093B4
:100EB000020148CF909102019E7F9093020124CFBE
:100EC000809102018E7F8093020100CF90910201F8
:100ED0009E7F90930201DCCE809102018E7F8093F1
:100EE0000201B8CE909102019E7F9093020194CEB0
:100EF000809102018E7F8093020170CE813011F0CB
:100F000080E008958CB186FB882780F90895CF93FF
:100F1000C82F8A3041F09091C00095FFFCCFC0935C
:100F2000C600CF9108958DE00E948707F4CF80918D
:100F3000CC038823E1F3E091CD03F091CE03EF528F
:100F4000FC4F80819091CC0391509093CC032091E1
:100F5000CD033091CE032F5F3F4F3093CE032093CC
:100F6000CD032091CD033091CE032F3F310509F001
:100F700008951092CE031092CD0308951092C500EB
:100F800089E18093C400E0ECF0E080818D7F808374
:100F900086E08093C20088E18093C10008951F928B
:100FA0000F920FB60F9211240BB60F922F938F93BF
:100FB0009F93EF93FF932091C6008091CC038F3FC6
:100FC000A1F1E091CF03F091D003EF52FC4F2083C9
:100FD0008091CC038F5F8093CC038091CF0390915D
:100FE000D00301969093D0038093CF038091CF03D9
:100FF0009091D0038F3F910501F180910E02909165
:101000000F02892B31F08091C00085FFFCCF209327
:10101000C600FF91EF919F918F912F910F900BBE82
:101020000F900FBE0F901F9018958091C00085FF04
:10103000FCCF80E48093C600ECCF1092D0031092D6
:10104000CF03DBCF8091CC038823F1F0E091CD0377
:10105000F091CE03EF52FC4F80819091CC039150E0
:101060009093CC032091CD033091CE032F5F3F4F5F
:101070003093CE032093CD032091CD033091CE0346
:101080002F3F310519F0089580E008951092CE03A6
:101090001092CD030895E1ECF0E080818F7780839A
:1010A0001092C50089E18093C400A0ECB0E08C915F
:1010B0008D7F8C9386E08093C20088E1808381E0FD
:1010C00090E090930F0280930E0280E092E0909364
:1010D0004C0680934B0690934E0680934D061092DB
:1010E000D0031092CF031092CE031092CD03109232
:1010F000CC03808180688083089590930F02809351
:101100000E02089581E090E090930F0280930E020A
:101110000895FC0160830895CF92DF92EF92FF92D1
:10112000CF93DF93EC016A017B0188810E94BE02AC
:101130006C2D88810E943803B70188279927888100
:101140000E94380399278F2D7E2D6D2D88810E9456
:1011500038038881DF91CF91FF90EF90DF90CF909F
:101160000C94FD02FC0180810C94DF01FC01608382
:1011700008950F931F93CF93DF93EC018B01888128
:101180000E94BE02B8010024660F771F001C660F84
:10119000771F001C672F702D6F7388810E943803A2
:1011A000602F660F660F88810E9438038881DF9167
:1011B000CF911F910F910C94FD02FC0180810C9442
:1011C000DF010F931F93CF93DF938C01EB010E94FC
:1011D0005C3BFE0101900020E9F7EC1BFD0BC80110
:1011E0008E0F9F1FDF91CF911F910F910895FC01EA
:1011F000608308950F931F93CF93DF93EC01888151
:101200000E94BE0288810E94950488810E949504F4
:10121000182F88810E949504082F88810E94FD0262
:10122000802F90E0912BDF91CF911F910F91089526
:10123000FC0180810C94DF01FC0160830895EF9232
:10124000FF921F93CF93DF931F92CDB7DEB77C0140
:10125000162FFC01808179830E94BE026981F7010B
:1012600080810E943803612FF70180810E9438033A
:10127000F70180810F90DF91CF911F91FF90EF9048
:101280000C94FD02FC0180810C94DF01CF92DF926F
:10129000EF92FF920F931F93CF93DF931F92CDB7DF
:1012A000DEB7D82E7B0181E099830E94BE026E2DAD
:1012B00081E00E9438036F2D81E00E9438039981FC
:1012C000E114F10409F10D2D192FC12CD12C0CC002
:1012D000F80161918F0181E00E943803FFEFCF1A7E
:1012E000DF0ACE14DF0481F0C6018F739927892BA2
:1012F00079F781E00E947E078111EACF81E00E94A8
:101300007E078823B1F3E4CF81E00F90DF91CF9186
:101310001F910F91FF90EF90DF90CF900C94FD0202
:1013200060E070E881E196E00C941F0960932F0261
:101330007093300280933102909332020E945D38A4
:1013400025E93FEB46E55CE30E94ED390E94313828
:101350006115710521E08207910520F06FEF7FEFA5
:1013600080E090E081E196E00C941F09CF92DF923B
:10137000EF92FF9223E333E948E853E40E942B37CE
:101380009B01AC0160E070E080E89FE30E9493372E
:101390002FE03FEC4BE55BE30E942A372AE93DE56D
:1013A0004EE655E40E94ED390E9400382AE93FEDEF
:1013B0004DE156E40E94ED3920E030E44CE956E47A
:1013C0000E94933720E030E040E85FE30E942B3733
:1013D0006B017C0120E030E040E85FE30E948F3742
:1013E00087FF06C0C12CD12C30E8E32E3FE3F32E5B
:1013F000609133027091340280E090E00E945D3889
:10140000A70196010E9493370E94313881E196E04E
:10141000FF90EF90DF90CF900C941F0960E070E098
:101420008CE096E00C94B9089093220280932102FC
:10143000BC0180E090E00E945D3823E439E341E99B
:101440005DE30E94ED390E943138611580E1780733
:1014500010F06FEF7FE08CE096E00C94B9084F92AB
:101460005F926F927F928F929F92AF92BF92CF9234
:10147000DF92EF92FF92C0900006D0900106E090BC
:101480000206F090030660912502709126026E5FBD
:101490007F4F882777FD8095982F0E945F38A7019E
:1014A00096010E948F3787FD14C0609123027091CE
:1014B000240262507109882777FD8095982F0E9439
:1014C0005F389B01AC01C701B6010E948F3787FFCF
:1014D00016C081E080931406809313068091150650
:1014E000811151C0FF90EF90DF90CF90BF90AF90EF
:1014F0009F908F907F906F905F904F900895809015
:10150000F3059090F405A090F505B090F605C5019F
:10151000B4010E945D382B013C0120E030E040E83E
:101520005FE360911D0270911E0280911F029091F5
:1015300020020E942B3720E030E04AE754E40E946A
:10154000ED399B01AC01C301B2010E943439181678
:101550000CF180911506882309F459C08091F70594
:101560009091F805A091F905B091FA05892B8A2B85
:101570008B2B91F489288A288B2871F484E080933E
:1015800014068093130680E090E00E94140A1092E3
:101590001606A8CF82E09ECF80911206882309F418
:1015A000A1CF8090FC059090FD05A090FE05B09025
:1015B000FF05A50194016091270270912802809196
:1015C000290290912A020E943439181654F5A70175
:1015D0009601C501B4010E942A372DEC3CEC4CE485
:1015E0005EE30E94343918167CF1A5019401C7010D
:1015F000B6010E942A372DEC3CEC4CE45EE30E94DD
:10160000343918160CF06ECF109212066BCF109270
:10161000140680911306813009F064CF10921306EE
:1016200061CFA5019401C701B6010E942A372DECB4
:101630003CEC4CE45EE30E94343918162CF0A70110
:101640009601C501B401D5CF83E080931406809341
:10165000130680E090E00E94140A10921606109281
:10166000120640CF40E050E0BA0188E096E00C94CA
:101670008C08942F80931A026093190240931802E9
:10168000462F50E060E070E0582B762F652F542FE6
:101690004427492B88E096E00C948C08CF92DF9287
:1016A000EF92FF9280911A0290910B0660911902BD
:1016B00040911802891709F46EC00E94390B80917D
:1016C0001A0280930B068091190280930A0680917A
:1016D000180280930906C0902B02D0902C02E09053
:1016E0002D02F0902E022091270230912802409185
:1016F000290250912A02C701B6010E948F37811139
:1017000053C0C0901D02D0901E02E0901F02F090C6
:10171000200220910D0630910E0640910F06509147
:101720001006B601C7010E948F3781111DC020919C
:10173000160680911506821791F0222329F08091D8
:101740001406882309F445C01092120680E090E048
:101750000E94140A1092160680E080931506FF90EE
:10176000EF90DF90CF9008958091160681110CC004
:1017700020E0C601D70180930D0690930E06A0933A
:101780000F06B0931006D5CF80911406882309F474
:1017900049C021E0EECF90910A0669138ECF909157
:1017A000090649138ACF97CFC701B6010E94B6092F
:1017B00080912B0290912C02A0912D02B0912E02CB
:1017C0008093270290932802A0932902B0932A02C3
:1017D00098CF81E0809312068091000690910106D7
:1017E000A0910206B09103068093FC059093FD053D
:1017F000A093FE05B093FF0520E030E04AE754E4F3
:1018000060911D0270911E0280911F029091200232
:101810000E94ED390E943138CB010E94140A809158
:1018200016069BCF20E030E04AE754E4B601C7013A
:101830000E94ED390E943138CB010E94140AC090F9
:101840001D02D0901E02E0901F02F0902002209115
:1018500016068FCF08958BEF95E00E94FA08BC0121
:1018600080E090E00E945D3821E836E948E952E4E2
:101870000E94ED390E94313860930406709305068A
:10188000809306069093070608958F929F92AF92D9
:10189000BF92CF92DF92EF92FF928BEF95E00E9482
:1018A000FA085C01609116027091170280E090E0E6
:1018B0000E945D386B017C01B50180E090E00E94E0
:1018C0005D389B01AC01C701B6010E94933720E04F
:1018D00030E040E85FE30E942A3720E030E44CE942
:1018E00056E40E94ED390E947A396B017C0127EEA3
:1018F00034E644E759E30E94ED3928EA35ED44E93E
:101900005AE30E942B374B015C0120E23AE645EC9A
:1019100053E3C701B6010E94ED39A70196010E9469
:10192000ED39A70196010E94ED399B01AC01C5017B
:10193000B4010E942B379B01AC0160E070E080E8AD
:101940009FE30E94933723E333E948E853E40E947E
:101950002A376093000670930106809302069093E5
:101960000306FF90EF90DF90CF90BF90AF909F90D5
:101970008F90089508954F925F926F927F928F9209
:101980009F92AF92BF92CF92DF92EF92FF920F930E
:101990001F93CF93DF938DEE95E00E94F22B6B01A6
:1019A0007C0110914706153008F0B9C0C12FD0E076
:1019B0001F5FCC0FDD1FCC0FDD1FCE018D5C994F5B
:1019C0005C01C701B6017F70882799270E945D38A6
:1019D0002DEA39EA40E252E40E94ED390E943138A2
:1019E000F5016083718382839383C15ED94FB70110
:1019F000882799277F70882799270E945D3825EFCF
:101A000032E84EE550E40E94ED390E943138688397
:101A100079838A839B8310934706E3E3F6E0AFE183
:101A2000B6E0812C912C540100E010E09801619106
:101A3000719181919191600F711F821F931FCD90C1
:101A4000DD90ED90FD90C80CD91CEA1CFB1C26E033
:101A5000E734F20729F08B019C0146015701E7CFDB
:101A6000F5E04F2E512C612C712CA30192010E94A4
:101A7000E43649015A012093F3053093F40540936D
:101A8000F5055093F605C701B601A30192010E9426
:101A9000E436293883E138074105510508F443C08D
:101AA00088E893E1A0E0B0E08093F7059093F80513
:101AB000A093F905B093FA0568E893E180E050E05F
:101AC000262F392F482FC501B4010E94D43628EEA5
:101AD00033E040E050E00E94E4362093EF0530937D
:101AE000F0054093F1055093F2058091000185FBCC
:101AF000882780F98093EE05CA01B901DF91CF9163
:101B00001F910F91FF90EF90DF90CF90BF90AF901B
:101B10009F908F907F906F905F904F90089511E00D
:101B2000C0E0D0E046CF2093F7053093F80540930E
:101B3000F9055093FA05622F932F842FC1CF529845
:101B40005A9AE9E6F0E080818F7D80838081806110
:101B50008083EA9A5198599A8081877F8083808117
:101B600084608083E99A53985B9A8081806880833F
:101B700080818F7B8083EB9A26982E9AA8E6B0E02E
:101B80008C9181608C93EBE6F0E0808180648083AF
:101B900025982D9A8C9181608C93808180628083BE
:101BA00008951F920F920FB60F9211240BB60F9249
:101BB0002F933F934F935F936F938F939F93EF93E5
:101BC000FF9340911E06440F440F40931E0659B1E7
:101BD00069B161FB882780F990E0842B52FB2227B2
:101BE00020F930E0220F331F822B932B80931E06A7
:101BF0008F70E82FF0E0E15CFD4F80914A06908104
:101C0000890F80934A06FF91EF919F918F916F9179
:101C10005F914F913F912F910F900BBE0F900FBE90
:101C20000F901F9018951F920F920FB60F921124CC
:101C30000F900FBE0F901F9018951F920F920FB626
:101C40000F9211248F939F9383B186FB882780F98D
:101C500090911102992311F08823C1F08093110211
:101C600083B185FB882780F990911002992329F090
:101C7000811103C091E090934806809310029F91D8
:101C80008F910F900FBE0F901F90189591E0909339
:101C90004906E4CF9F92AF92BF92CF92DF92EF922C
:101CA000FF920F931F93CF93DF9393B113B1EBED9B
:101CB000F5E0C0E0D0E08191811104C02196CD30E3
:101CC000D105C9F780914906882331F0092F0074A6
:101CD00096FFEEC01092490680914806882339F09D
:101CE000812F8072B82E15FF93C010924806209164
:101CF0001D0610914A06211739F080911B0690911C
:101D00001C06C817D907A1F010921D0610924A06AA
:101D1000D0931C06C0931B06DF91CF911F910F91AA
:101D2000FF90EF90DF90CF90BF90AF909F9008957D
:101D3000121BC730D10509F4D8C10CF016C1C1304F
:101D4000D10509F401C2C630D10509F059C087E6B2
:101D50001802812D11248595859517FD8395182FDF
:101D600081119AC2612F772767FD7095872F972F72
:101D70000E945F382DEC3CEC4CEC5DE30E94ED39A9
:101D800020911D0230911E0240911F0250912002AD
:101D90000E942B37962EA72EB82EC92E60911B02BB
:101DA00070911C02882777FD8095982F0E945F38DC
:101DB000D62EE72EF82E092F262F372F482F592FF2
:101DC000692D7A2D8B2D9C2D0E94343918160CF01C
:101DD00022C220E030E0A9016D2D7E2D8F2D902FA5
:101DE0000E948F3787FD68C28D2D9E2DAF2DB02F9D
:101DF00080931D0290931E02A0931F02B0932002B5
:101E0000112321F010921D0610924A065F9A80CF8E
:101E1000C730D10509F483C20CF00BC1C130D10524
:101E200009F40DC3C630D10509F040C05F988FE1B9
:101E30009EE40197F1F700C0000020E030E040E8A8
:101E40005FE360911D0270911E0280911F029091CC
:101E500020020E942B375B016C0160911B02709184
:101E60001C02882777FD8095982F0E945F387B01A0
:101E70008C019B01AC01B501C6010E9434391816D2
:101E800014F07501860120E030E0A901B701C80116
:101E90000E948F3787FD8FC3A701B80140931D02B1
:101EA00050931E0260931F02709320025F9A1DCF11
:101EB000C730D10509F407C20CF088C0C130D10584
:101EC00009F458C2C630D10509F04DC05F988FE1C2
:101ED0009EE40197F1F700C0000020E030E040E808
:101EE0005FE360911D0270911E0280911F0290912C
:101EF00020020E942A37962EA72EB82EC92E609156
:101F00001B0270911C02882777FD8095982F0E94F4
:101F10005F38D62EE72EF82E092F262F372F482F81
:101F2000592F692D7A2D8B2D9C2D0E94343918162E
:101F30001CF0D92C75010C2D20E030E0A9016D2D8D
:101F40007E2D8F2D902F0E948F3787FD39C38D2DC9
:101F50009E2DAF2DB02F80931D0290931E02A09353
:101F60001F02B09320025F9AB5CEC830D10509F4A4
:101F700093C0C930D10509F043CF87E61802812DFF
:101F800011248595859517FD8395182F81117CC1A6
:101F900080911802A12EBB24A7FCB094A80EB11CFE
:101FA000B501882777FD8095982F0E945F386B01D7
:101FB0007C0120E030E04FE753E40E9434391816EA
:101FC0000CF047C18FEF809318021ACFC830D105AB
:101FD00009F4B3C2C930D10531F65F988FE19EE4B0
:101FE0000197F1F700C00000A0901802B12C9AE010
:101FF000A91AB108B501882777FD8095982F0E940E
:102000005F386B017C0120E030E04FE753E40E9431
:10201000343918160CF4C4C220E030E0A901C7011D
:10202000B6010E948F3787FF0A2D009318025F9A2E
:1020300051CEC830D10509F455C2C930D10509F0D7
:1020400035CF5F988FE19EE40197F1F700C0000063
:102050000091180210E0065F1F4FB801882777FD36
:102060008095982F0E945F386B017C0120E030E062
:102070004FE753E40E94343918160CF493C220E061
:1020800030E0A901C701B6010E948F3787FFB02E4B
:10209000B09218025F9A29CE87E61802812D11248A
:1020A0008595859517FD8395182F8111E5C0809141
:1020B0001902A12EBB24A7FCB094A80EB11CB50137
:1020C000882777FD8095982F0E945F386B017C01EF
:1020D00020E030E04FE753E40E94343918160CF04A
:1020E000A2C08FEF809319028BCE8FE99FE00197FA
:1020F000F1F700C0000087E61802812D11248595B4
:10210000859517FD8395182F8111AEC080911A0215
:10211000A12EBB24A7FCB094A80EB11CB501882742
:1021200077FD8095982F0E945F386B017C0120E03D
:1021300030E04FE753E40E94343918160CF07EC0AB
:102140008FEF80931A025CCE17FDBBC015951595D5
:1021500009F0AAC0612F772767FD7095872F972F09
:102160000E945F382AE037ED43EA5BE30E94ED39D5
:1021700020912B0230912C0240912D0250912E0281
:102180000E942B37962EA72EB82EC92E60912502BD
:1021900070912602882777FD8095982F0E945F38DE
:1021A000D62EE72EF82E092F262F372F482F592FFE
:1021B000692D7A2D8B2D9C2D0E94343918167CF5B3
:1021C0006091230270912402882777FD8095982FD3
:1021D0000E945F38962EA72EB82EC92E262F372F95
:1021E000482F592F6D2D7E2D8F2D902F0E948F37C8
:1021F00087FF0DC0892D9A2DAB2DBC2D80932B020E
:1022000090932C02A0932D02B0932E02F9CD9D2C19
:102210005701C02EEFCFD92C75010C2DDACDD92C5A
:1022200075010C2DCDCF20E030E0A901C701B6012A
:102230000E948F3787FFC9C180E054CF20E030E093
:10224000A901C701B6010E948F3787FFB0C180E0A6
:1022500078CF20E030E0A901C701B6010E948F3796
:1022600087FFA7C180E0AFCE5F988FE99FE001971D
:10227000F1F700C000004ACF5F988FE99FE0019717
:10228000F1F700C0000013CF5F988FE99FE001973E
:10229000F1F700C000007CCE5F988FE99FE00197C6
:1022A000F1F700C000005ECD5F988FE99FE00197D5
:1022B000F1F700C000004ECFD12CE12CF12C00E052
:1022C00093CD1D5F43CF5F988FE19EE40197F1F7B7
:1022D00000C00000A0901A02B12C9AE0A91AB1081F
:1022E000B501882777FD8095982F0E945F386B0194
:1022F0007C0120E030E04FE753E40E9434391816A7
:102300000CF453C120E030E0A901C701B6010E94DE
:102310008F3787FF0A2D00931A025F9ADBCC5F98F4
:102320008FE19EE40197F1F700C0000000911A02CE
:1023300010E0065F1F4FB801882777FD8095982F22
:102340000E945F386B017C0120E030E04FE753E4EE
:102350000E94343918160CF41DC120E030E0A901A8
:10236000C701B6010E948F3787FFB02EB0921A02C4
:102370005F9ABBCC5F988FE19EE40197F1F700C0B4
:10238000000060912B0270912C0280912D0290919F
:102390002E020E942C3861507109882777FD8095A4
:1023A000982F0E945F38962EA72EB82EC92E6091C6
:1023B000250270912602882777FD8095982F0E942C
:1023C0005F38D62EE72EF82E092F262F372F482FCD
:1023D000592F692D7A2D8B2D9C2D0E94343918167A
:1023E0001CF0D92C75010C2D6091230270912402F0
:1023F000882777FD8095982F0E945F38962EA72E0C
:10240000B82EC92E262F372F482F592F6D2D7E2DF0
:102410008F2D902F0E948F3787FD03C09D2C570171
:10242000C02E892D9A2DAB2DBC2D80932B0290931D
:102430002C02A0932D02B0932E025F9A4BCC5F9892
:102440008FE19EE40197F1F700C0000060912B023C
:1024500070912C0280912D0290912E020E942C38B6
:102460006F5F7F4F882777FD8095982F0E945F3898
:102470005B016C016091250270912602882777FD2F
:102480008095982F0E945F387B018C019B01AC01E5
:10249000B501C6010E943439181614F07501860181
:1024A0006091230270912402882777FD8095982FF0
:1024B0000E945F385B016C019B01AC01B701C80150
:1024C0000E948F3787FD02C057016801A501B60140
:1024D00040932B0250932C0260932D0270932E0296
:1024E0005F9A03CC5F988FE19EE40197F1F700C0FB
:1024F00000000091190210E0065F1F4FB801882705
:1025000077FD8095982F0E945F386B017C0120E059
:1025100030E04FE753E40E94343918160CF43DC004
:1025200020E030E0A901C701B6010E948F3787FF84
:10253000B02EB09219025F9AD8CB5F988FE19EE4DB
:102540000197F1F700C00000A0901902B12C9AE0A9
:10255000A91AB108B501882777FD8095982F0E94A8
:102560005F386B017C0120E030E04FE753E40E94CC
:10257000343918166CF020E030E0A901C701B6012B
:102580000E948F3787FF0A2D009319025F9AA2CB12
:102590000FEFFACFBB24BA94E9CEBB24BA94C9CFCB
:1025A0000FEF43CDBB24BA9473CD0FEFB4CE8A2D79
:1025B000C8CD8A2D08CDE12CF12C00E010E06CCCC8
:1025C000D12CE12CF12C00E0C2CC8A2D8BCD81E006
:1025D0000E94BE0262E081E00E94380360E081E078
:1025E0000E94380381E00E947E078823D9F362E0CD
:1025F00081E00E94380360E081E00E94380381E0BE
:102600000E94FD0281E00E94BE0281E00E947E07DE
:102610008823D9F36FEF81E00E94C1058093D00435
:102620006FEF81E00E94C1058093D10481E00E9498
:10263000FD0281E00E947E078130D9F38091D104B0
:102640008F938091D0048F938FE492E09F938F9328
:102650000E94DE3B81E00E94BE0262E081E00E94B7
:10266000380360E081E00E9438030F900F900F90D4
:102670000F9081E00E947E078823D9F363E081E018
:102680000E94380360E081E00E94380381E00E94EC
:10269000FD0281E00E94BE0281E00E947E07882345
:1026A000D9F36FEF81E00E94C1058093D0046FEFF2
:1026B00081E00E94C1058093D10481E00E94FD0267
:1026C00081E00E947E078130D9F38091D1048F93FD
:1026D0008091D0048F9382E692E09F938F930E9423
:1026E000DE3B81E00E94BE0262E081E00E9438038E
:1026F00060E081E00E9438030F900F900F900F90E0
:1027000081E00E947E078823D9F360E081E00E9487
:10271000380360E081E00E94380381E00E94FD02FE
:1027200081E00E94BE0281E00E947E078823D9F3E7
:102730006FEF81E00E94C1058093D0046FEF81E0CC
:102740000E94C1058093D10481E00E94FD0281E0D6
:102750000E947E078130D9F381E00E94BE0262E0D0
:1027600081E00E94380360E081E00E94380381E04C
:102770000E947E078823D9F361E081E00E9438033C
:1027800060E081E00E94380381E00E94FD0281E068
:102790000E94BE0281E00E947E078823D9F36FEF7A
:1027A00081E00E94C1058093D0046FEF81E00E9418
:1027B000C1058093D10481E00E94FD0281E00E9466
:1027C0007E078130D9F38091D1048F938091D0041A
:1027D0008F9380E792E09F938F930E94DE3B0F9050
:1027E0000F900F900F9008956F927F928F929F920B
:1027F000AF92BF92CF92DF92EF92FF920F931F930F
:10280000CF93DF93CDB7DEB76A970FB6F894DEBFEC
:102810000FBECDBF989AA09A2FEF83ED90E3215081
:1028200080409040E1F700C00000A098EFEFF3ED8A
:1028300020E3E150F0402040E1F700C0000081E0DB
:102840000E94DF0181E00E94BE0281E00E947E07BB
:102850008823D9F36FEF81E00E94C1058093D004F3
:102860006FEF81E00E94C1058093D10481E00E9456
:10287000FD0281E00E947E078130D9F38091D0046F
:102880009091D1048231944309F07DC081E00E948F
:10289000BE0262E081E00E94380360E081E00E94B5
:1028A000380381E00E947E078823D9F360E081E04D
:1028B0000E94380360E081E00E94380381E00E94BA
:1028C000FD0281E00E94BE0281E00E947E07882313
:1028D000D9F36FEF81E00E94C1058093D0046FEFC0
:1028E00081E00E94C1058093D10481E00E94FD0235
:1028F00081E00E947E078130D9F30091D0041091CD
:10290000D10481E00E94BE0262E081E00E943803AF
:1029100060E081E00E94380381E00E947E07882306
:10292000D9F361E081E00E94380360E081E00E9419
:10293000380381E00E94FD0281E00E94BE0281E036
:102940000E947E078823D9F36FEF81E00E94C105C2
:102950008093D0046FEF81E00E94C1058093D10481
:1029600081E00E94FD0281E00E947E078130D9F360
:102970008091D0049091D104012B09F087CF8F373B
:102980009D4109F083CF80E094E09A83898384E6B7
:1029900090E09C838B8381E00E94BE0264E081E032
:1029A0000E94380360E081E00E943803CE01019666
:1029B0003C017C0101E010E00DC0F701608181E085
:1029C0000E9438030430110599F00F5F1F4FFFEF8D
:1029D000EF1AFF0A0130110581F781E00E947E079E
:1029E0008823D9F3F701608181E00E943803EDCF9D
:1029F00081E00E94FD0281E00E94BE0281E00E940F
:102A00007E078823D9F36FEF81E00E94C105809390
:102A1000D0046FEF81E00E94C1058093D10481E072
:102A20000E94FD0281E00E947E078130D9F381E09F
:102A30000E94BE0262E081E00E94380360E081E013
:102A40000E94380381E00E947E078823D9F360E862
:102A500081E00E94380361E081E00E94380381E058
:102A60000E94FD0281E00E94BE0281E00E947E077A
:102A70008823D9F36FEF81E00E94C1058093D004D1
:102A80006FEF81E00E94C1058093D10481E00E9434
:102A9000FD0281E00E947E078130D9F385E591E057
:102AA0009A83898384E090E09C838B8381E00E94F9
:102AB000BE0264E081E00E94380360E081E00E9491
:102AC0003803730101E010E00DC0F701608181E07F
:102AD0000E9438030430110599F00F5F1F4FFFEF7C
:102AE000EF1AFF0A0130110581F781E00E947E078D
:102AF0008823D9F3F701608181E00E943803EDCF8C
:102B000081E00E94FD0281E00E94BE0281E00E94FD
:102B10007E078823D9F36FEF81E00E94C10580937F
:102B2000D0046FEF81E00E94C1058093D10481E061
:102B30000E94FD0281E00E947E078130D9F380E788
:102B400091E09A8389838BEE93ED9C838B8389EE4E
:102B500090E09E838D8381E00E94BE0266E081E06A
:102B60000E94380360E081E00E943803730101E0B5
:102B700010E00DC0F701608181E00E94380306304B
:102B8000110599F00F5F1F4FFFEFEF1AFF0A013099
:102B9000110581F781E00E947E078823D9F3F701B0
:102BA000608181E00E943803EDCF81E00E94FD0248
:102BB00081E00E94BE0281E00E947E078823D9F353
:102BC0006FEF81E00E94C1058093D0046FEF81E038
:102BD0000E94C1058093D10481E00E94FD0281E042
:102BE0000E947E078130D9F38BE1E7E8F2E0D30160
:102BF00001900D928A95E1F7E090E905F090EA05E1
:102C00000091EB051091EC057F926F92812C912C35
:102C1000A12CB12C54E0C52ED12C2EE130E040EF98
:102C200050E06EE070E080ED94E00E94863481E137
:102C3000E2EAF2E0D30101900D928A95E1F7E0908B
:102C4000E905F090EA050091EB051091EC057F9203
:102C50006F9263E0C62ED12C24E630E04AE050E0CB
:102C600067E070E080ED94E00E94863484E1EEEE4F
:102C7000F2E0D30101900D928A95E1F7E090E90529
:102C8000F090EA050091EB051091EC057F926F92B0
:102C900028E730E04AE050E067E070E080ED94E043
:102CA0000E94863484E1E2E0F3E0D30101900D92CA
:102CB0008A95E1F7E090E905F090EA050091EB05CF
:102CC0001091EC057F926F922CE830E04AE050E0E2
:102CD00067E070E080ED94E00E948634E090E905C2
:102CE000F090EA050091EB051091EC057F926F9250
:102CF00024EB30E04AE050E067E070E080ED94E0E3
:102D00000E94863481E1E3EBF2E0D30101900D9261
:102D10008A95E1F7E090E905F090EA050091EB056E
:102D20001091EC057F926F922CED30E04AE050E07C
:102D300068E070E080ED94E00E94863481E00E94BB
:102D4000BE0262E081E00E94380360E081E00E9400
:102D500038030FB6F894DEBF0FBECDBF81E00E94EE
:102D60007E078823D9F361E881E00E94380361E09F
:102D700081E00E94380381E00E94FD0281E00E9410
:102D8000BE0281E00E947E078823D9F36FEF81E0C5
:102D90000E94C1058093D0046FEF81E00E94C105BD
:102DA0008093D10481E00E94FD0281E00E947E07B1
:102DB0008130D9F381E094E09E8B8D8B82E090E0AE
:102DC000988F8F8B1A8E198E81E00E94BE0266E06A
:102DD00081E00E94380360E081E00E9438037E01B8
:102DE00095E1E90EF11C01E010E00DC0F7016081F2
:102DF00081E00E9438030630110599F00F5F1F4FE4
:102E0000EFEFEE1AFE0A0130110581F781E00E9412
:102E10007E078823D9F3F701608181E00E9438039F
:102E2000EDCF81E00E94FD0281E00E94BE0281E0C0
:102E30000E947E078823D9F36FEF81E00E94C105CD
:102E40008093D0046FEF81E00E94C1058093D1048C
:102E500081E00E94FD0281E00E947E078130D9F36B
:102E600064EC72E080ED94E00E94AB356A960FB698
:102E7000F894DEBF0FBECDBFDF91CF911F910F91B0
:102E8000FF90EF90DF90CF90BF90AF909F908F908A
:102E90007F906F9008950F931F93CF93DF93989A2D
:102EA000A09A07E011E0F80180818E7F8083C8E05E
:102EB000D1E088818E7F888381E196E00E9442097B
:102EC0008CE096E00E94DD0888E096E00E94B2085F
:102ED0008BEF95E00E9418098DEE95E00E94452C3D
:102EE000F80180818460808388818B7F88838081E2
:102EF000806180838881806188830E9A16980C9AFD
:102F000014980A9A1298A4E0B1E08C9180628C9394
:102F1000E5E0F1E080818F7D80838C9180688C93E7
:102F200080818F778083F8018081806480838881AD
:102F30008F7B8883089A1098A1E0B1E08C9180641F
:102F40008C93E2E0F1E080818F7B80838C918068BC
:102F50008C9380818F7780838C918F7E8C938081FE
:102F60008F7E80838C918F7D8C9380818F7D8083F9
:102F7000999AA1989B9AA398579A5F9A60E070E8F3
:102F800081E196E00E941F0960E070E08CE096E02D
:102F90000E94B90840E050E0BA0188E096E00E9443
:102FA0008C080E94F413DF91CF911F910F910C9424
:102FB0009F0D6F927F928F929F92AF92BF92CF920E
:102FC000DF92EF92FF920F931F93CF93DF93CDB7D2
:102FD000DEB7C654D1090FB6F894DEBF0FBECDBF21
:102FE00081E00E94BE0262E081E00E94380360E05E
:102FF00081E00E94380381E00E947E078823D9F394
:1030000060E881E00E94380361E081E00E943803BB
:1030100081E00E94FD0281E00E94BE0281E00E94E8
:103020007E078823D9F36FEF81E00E94C10580936A
:10303000D0046FEF81E00E94C1058093D10481E04C
:103040000E94FD0281E00E947E078130D9F385E273
:1030500091E09A83898388E090E09C838B8381E070
:103060000E94BE0264E081E00E94380360E081E0DB
:103070000E943803CE0101963C017C0101E010E082
:103080000DC0F701608181E00E9438030430110512
:1030900099F00F5F1F4F9FEFE91AF90A01301105F0
:1030A00081F781E00E947E078823D9F3F7016081D0
:1030B00081E00E943803EDCF81E00E94FD0281E0B3
:1030C0000E94BE0281E00E947E078823D9F36FEF41
:1030D00081E00E94C1058093D0046FEF81E00E94DF
:1030E000C1058093D10481E00E94FD0281E00E942D
:1030F0007E078130D9F385E591E09A83898384E066
:1031000090E09C838B8381E00E94BE0264E081E0BA
:103110000E94380360E081E00E943803730101E0FF
:1031200010E00DC0F701608181E00E943803043097
:10313000110599F00F5F1F4FFFEFEF1AFF0A0130E3
:10314000110581F781E00E947E078823D9F3F701FA
:10315000608181E00E943803EDCF81E00E94FD0292
:1031600081E00E94BE0281E00E947E078823D9F39D
:103170006FEF81E00E94C1058093D0046FEF81E082
:103180000E94C1058093D10481E00E94FD0281E08C
:103190000E947E078130D9F3809112029091130230
:1031A000A0911402B091150224E231E03A83298300
:1031B0009C838B83BE83AD8381E00E94BE0266E068
:1031C00081E00E94380360E081E00E9438037301CF
:1031D00001E010E00DC0F701608181E00E9438033A
:1031E0000630110599F00F5F1F4FFFEFEF1AFF0A2E
:1031F0000130110581F781E00E947E078823D9F311
:10320000F701608181E00E943803EDCF81E00E94E8
:10321000FD0281E00E94BE0281E00E947E078823B9
:10322000D9F36FEF81E00E94C1058093D0046FEF66
:1032300081E00E94C1058093D10481E00E94FD02DB
:1032400081E00E947E078130D9F380E093E09A8389
:10325000898381E090E09C838B830E94BE0264E0BE
:1032600081E00E94380360E081E00E94380373012E
:1032700001E010E00DC0F701608181E00E94380399
:103280000430110599F00F5F1F4FFFEFEF1AFF0A8F
:103290000130110581F781E00E947E078823D9F370
:1032A000F701608181E00E943803EDCF81E00E9448
:1032B000FD0281E00E94BE0281E00E947E07882319
:1032C000D9F36FEF81E00E94C1058093D0046FEFC6
:1032D00081E00E94C1058093D10481E00E94FD023B
:1032E00081E00E947E078130D9F38091DC0588233C
:1032F00011F40C94022A46EE58ED6DEA70E080ED70
:1033000094E00E94393580E591E09A83898380EBCF
:1033100094E09C838B8388E691E09E838D8380E696
:1033200099E098878F8380ED92E09A87898781E082
:103330000E94BE026AE081E00E94380360E081E002
:103340000E943803730101E010E00DC0F7016081B5
:1033500081E00E9438030A30110599F00F5F1F4F7A
:10336000FFEFEF1AFF0A0130110581F781E00E949B
:103370007E078823D9F3F701608181E00E9438033A
:10338000EDCF81E00E94FD0281E00E94BE0281E05B
:103390000E947E078823D9F36FEF81E00E94C10568
:1033A0008093D0046FEF81E00E94C1058093D10427
:1033B00081E00E94FD0281E00E947E078130D9F306
:1033C00080912E028F9380912D028F9380912C02F9
:1033D0008F9380912B028F9386E193E09F938F933D
:1033E0007F926F920E941D3CE090E905F090EA0503
:1033F0000091EB051091EC057F926F92812C912C3E
:10340000A12CB12C74E0C72ED12C2DE230E046E97E
:1034100050E060E170E080ED94E00E94863480E24C
:1034200091E09CAB8BAB80E699E09EAB8DAB18AE88
:103430001FAA9AAF89AF80ED92E09CAF8BAF81E07D
:103440000E94BE026AE081E00E94380360E081E0F1
:103450000E943803CE01C3967C010FB6F894DEBFFC
:103460000FBECDBF01E010E00DC0F701608181E02B
:103470000E9438030A30110599F00F5F1F4FFFEFCC
:10348000EF1AFF0A0130110581F781E00E947E07E3
:103490008823D9F3F701608181E00E943803EDCFE2
:1034A00081E00E94FD0281E00E94BE0281E00E9454
:1034B0007E078823D9F36FEF81E00E94C1058093D6
:1034C000D0046FEF81E00E94C1058093D10481E0B8
:1034D0000E94FD0281E00E947E078130D9F380E0E6
:1034E00093E09CAB8BAB82E090E09EAB8DAB81E038
:1034F0000E94BE0264E081E00E94380360E081E047
:103500000E943803CE01C3967C0101E010E00DC09B
:10351000F701608181E00E9438030430110599F0C1
:103520000F5F1F4F9FEFE91AF90A0130110581F76C
:1035300081E00E947E078823D9F3F701608181E052
:103540000E943803EDCF81E00E94FD0281E00E94DD
:10355000BE0281E00E947E078823D9F36FEF81E0ED
:103560000E94C1058093D0046FEF81E00E94C105E5
:103570008093D10481E00E94FD0281E00E947E07D9
:103580008130D9F34FEF5FEF6FEF70E080ED94E0A3
:103590000E94393580E591E09CAB8BAB88EC9AE0DA
:1035A0009EAB8DAB88E691E098AF8FAB80ED92E05B
:1035B0009AAF89AF9CAF8BAF81E00E94BE026AE0F8
:1035C00081E00E94380360E081E00E943803CE0170
:1035D000C3967C0101E010E00DC0F701608181E03D
:1035E0000E9438030A30110599F00F5F1F4F9FEFBB
:1035F000E91AF90A0130110581F781E00E947E077E
:103600008823D9F3F701608181E00E943803EDCF70
:1036100081E00E94FD0281E00E94BE0281E00E94E2
:103620007E078823D9F36FEF81E00E94C105809364
:10363000D0046FEF81E00E94C1058093D10481E046
:103640000E94FD0281E00E947E078130D9F3E09064
:10365000E905F090EA050091EB051091EC058FE18A
:1036600093E09F938F93812C912CA12CB12C64E03B
:10367000C62ED12C29E130E049E551E06EE070E042
:1036800080ED94E00E948634809124028F93809193
:1036900023028F9383E293E09F938F937F926F92A5
:1036A0000E941D3CE090E905F090EA050091EB05D1
:1036B0001091EC057F926F9221E430E049E551E0F2
:1036C0006EE070E080ED94E00E94863480E291E04C
:1036D0009CAB8BAB80E39CE09EAB8DAB18AE1FAA7E
:1036E0009AAF89AF80ED92E09CAF8BAF81E00E94F2
:1036F000BE026AE081E00E94380360E081E00E943F
:103700003803CE01C3967C010FB6F894DEBF0FBE1E
:10371000CDBF01E010E00DC0F701608181E00E94A3
:1037200038030A30110599F00F5F1F4FFFEFEF1AB2
:10373000FF0A0130110581F781E00E947E0788238E
:10374000D9F3F701608181E00E943803EDCF81E079
:103750000E94FD0281E00E94BE0281E00E947E077D
:103760008823D9F36FEF81E00E94C1058093D004D4
:103770006FEF81E00E94C1058093D10481E00E9437
:10378000FD0281E00E947E078130D9F380E093E062
:103790009CAB8BAB83E090E09EAB8DAB81E00E9455
:1037A000BE0264E081E00E94380360E081E00E9494
:1037B0003803CE01C3967C0101E010E00DC0F70193
:1037C000608181E00E9438030430110599F00F5F99
:1037D0001F4F9FEFE91AF90A0130110581F781E0C7
:1037E0000E947E078823D9F3F701608181E00E945F
:1037F0003803EDCF81E00E94FD0281E00E94BE020D
:1038000081E00E947E078823D9F36FEF81E00E9458
:10381000C1058093D0046FEF81E00E94C1058093C1
:10382000D10481E00E94FD0281E00E947E07813088
:10383000D9F34FEF5FEF6FEF70E080ED94E00E94FF
:10384000393580E591E09CAB8BAB88E99DE09EAB80
:103850008DAB88E691E098AF8FAB80ED92E09AAFA8
:1038600089AF9CAF8BAF6AE070E0CE01C3960E9437
:10387000460981E00E94BE0281E00E947E07882303
:10388000D9F36FEF81E00E94C1058093D0046FEF00
:1038900081E00E94C1058093D10481E00E94FD0275
:1038A00081E00E947E078130D9F3E090E905F09035
:1038B000EA050091EB051091EC0588E293E09F93F7
:1038C0008F93812C912CA12CB12C54E0C52ED12C9E
:1038D00029E130E043EB51E06EE070E080ED94E0F0
:1038E0000E948634809126028F93809125028F93C7
:1038F00083E293E09F938F937F926F920E941D3C8F
:10390000E090E905F090EA050091EB051091EC05D7
:103910007F926F9221E430E043EB51E06EE070E083
:1039200080ED94E00E94863480E291E09CAB8BAB0A
:103930001EAA1DAA80ED92E098AF8FAB20E03FE079
:103940003AAF29AF9CAF8BAF81E00E94BE026AE024
:1039500081E00E94380360E081E00E943803CE01DC
:10396000C3967C010FB6F894DEBF0FBECDBF01E059
:1039700010E00DC0F701608181E00E9438030A3039
:10398000110599F00F5F1F4FFFEFEF1AFF0A01308B
:10399000110581F781E00E947E078823D9F3F701A2
:1039A000608181E00E943803EDCF81E00E94FD023A
:1039B00081E00E94BE0281E00E947E078823D9F345
:1039C0006FEF81E00E94C1058093D0046FEF81E02A
:1039D0000E94C1058093D10481E00E94FD0281E034
:1039E0000E947E078130D9F380E093E09CAB8BABE3
:1039F00087E090E09EAB8DAB64E070E0CE01C396B3
:103A00000E94460981E00E94BE0281E00E947E077A
:103A10008823D9F36FEF81E00E94C1058093D00421
:103A20006FEF81E00E94C1058093D10481E00E9484
:103A3000FD0281E00E947E078130D9F38091E2058A
:103A4000882311F40C94FC2946EE58ED6DEA70E0E1
:103A500080ED94E00E94393580E591E09CAB8BAB22
:103A600080E991E09EAB8DAB88EE93E098AF8FAB91
:103A700080E293E09AAF89AF80E392E09CAF8BAF96
:103A800081E00E94BE026AE081E00E94380360E0AB
:103A900081E00E943803CE01C3967C0101E010E072
:103AA0000DC0F701608181E00E9438030A301105E2
:103AB00099F00F5F1F4F9FEFE91AF90A01301105C6
:103AC00081F781E00E947E078823D9F3F7016081A6
:103AD00081E00E943803EDCF81E00E94FD0281E089
:103AE0000E94BE0281E00E947E078823D9F36FEF17
:103AF00081E00E94C1058093D0046FEF81E00E94B5
:103B0000C1058093D10481E00E94FD0281E00E9402
:103B10007E078130D9F3E090E905F090EA05009145
:103B2000EB051091EC058CE293E09F938F93812C31
:103B3000912CA12CB12CC12CD12C2FE530E045E0EB
:103B400050E06DE070E080ED94E00E94863480915A
:103B50001A021F928F938EE293E09F938F937F922E
:103B60006F920E941D3CE090E905F090EA050091FB
:103B7000EB051091EC057F926F9244E0C42ED12C9E
:103B800023E830E046E350E06FE070E080ED94E041
:103B90000E94863480E291E09CAB8BAB80E293E0A4
:103BA0009EAB8DAB20ED32E038AF2FAB9AAF89AF33
:103BB00080E095E09CAF8BAF81E00E94BE026AE09E
:103BC00081E00E94380360E081E00E943803CE016A
:103BD000C3967C010FB6F894DEBF0FBECDBF01E0E7
:103BE00010E00DC0F701608181E00E9438030A30C7
:103BF000110599F00F5F1F4FFFEFEF1AFF0A013019
:103C0000110581F781E00E947E078823D9F3F7012F
:103C1000608181E00E943803EDCF81E00E94FD02C7
:103C200081E00E94BE0281E00E947E078823D9F3D2
:103C30006FEF81E00E94C1058093D0046FEF81E0B7
:103C40000E94C1058093D10481E00E94FD0281E0C1
:103C50000E947E078130D9F380E093E09CAB8BAB70
:103C600088E090E09EAB8DAB81E00E94BE0264E0F4
:103C700081E00E94380360E081E00E943803CE01B9
:103C8000C3967C0101E010E00DC0F701608181E086
:103C90000E9438030430110599F00F5F1F4F9FEF0A
:103CA000E91AF90A0130110581F781E00E947E07C7
:103CB0008823D9F3F701608181E00E943803EDCFBA
:103CC00081E00E94FD0281E00E94BE0281E00E942C
:103CD0007E078823D9F36FEF81E00E94C1058093AE
:103CE000D0046FEF81E00E94C1058093D10481E090
:103CF0000E94FD0281E00E947E078130D9F380910D
:103D0000E305882311F40C94F62946EE58ED6DEA8C
:103D100070E080ED94E00E94393580E591E09CAB45
:103D20008BAB80EB94E09EAB8DAB88EE93E098AFCD
:103D30008FAB80E293E09AAF89AF80E392E09CAFD3
:103D40008BAF81E00E94BE026AE081E00E943803EE
:103D500060E081E00E943803CE01C3967C0101E05F
:103D600010E00DC0F701608181E00E9438030A3045
:103D7000110599F00F5F1F4F9FEFE91AF90A013003
:103D8000110581F781E00E947E078823D9F3F701AE
:103D9000608181E00E943803EDCF81E00E94FD0246
:103DA00081E00E94BE0281E00E947E078823D9F351
:103DB0006FEF81E00E94C1058093D0046FEF81E036
:103DC0000E94C1058093D10481E00E94FD0281E040
:103DD0000E947E078130D9F3E090E905F090EA0572
:103DE0000091EB051091EC0581E393E09F938F9395
:103DF000812C912CA12CB12CC12CD12C20E630E0AF
:103E000049E650E06DE070E080ED94E00E94863479
:103E1000809119021F928F938EE293E09F938F936C
:103E20007F926F920E941D3CE090E905F090EA05B8
:103E30000091EB051091EC057F926F9234E0C32E58
:103E4000D12C22E830E04AE950E06FE070E080EDEC
:103E500094E00E94863480E291E09CAB8BAB80E4DE
:103E600096E09EAB8DAB20ED32E038AF2FAB9AAF32
:103E700089AF80E095E09CAF8BAF81E00E94BE02ED
:103E80006AE081E00E94380360E081E00E9438032C
:103E9000CE01C3967C010FB6F894DEBF0FBECDBF36
:103EA00001E010E00DC0F701608181E00E9438035D
:103EB0000A30110599F00F5F1F4FFFEFEF1AFF0A4D
:103EC0000130110581F781E00E947E078823D9F334
:103ED000F701608181E00E943803EDCF81E00E940C
:103EE000FD0281E00E94BE0281E00E947E078823DD
:103EF000D9F36FEF81E00E94C1058093D0046FEF8A
:103F000081E00E94C1058093D10481E00E94FD02FE
:103F100081E00E947E078130D9F380E093E09CAB82
:103F20008BAB89E090E09EAB8DAB81E00E94BE023E
:103F300064E081E00E94380360E081E00E94380381
:103F4000CE01C3967C0101E010E00DC0F701608155
:103F500081E00E9438030430110599F00F5F1F4F74
:103F60009FEFE91AF90A0130110581F781E00E94FB
:103F70007E078823D9F3F701608181E00E9438032E
:103F8000EDCF81E00E94FD0281E00E94BE0281E04F
:103F90000E947E078823D9F36FEF81E00E94C1055C
:103FA0008093D0046FEF81E00E94C1058093D1041B
:103FB00081E00E94FD0281E00E947E078130D9F3FA
:103FC0008091E405882311F40C94F02946EE58ED15
:103FD0006DEA70E080ED94E00E94393580E591E073
:103FE0009CAB8BAB80ED97E09EAB8DAB88EE93E006
:103FF00098AF8FAB80E293E09AAF89AF80E392E015
:104000009CAF8BAF81E00E94BE026AE081E00E941B
:10401000380360E081E00E943803CE01C3967C0142
:1040200001E010E00DC0F701608181E00E943803DB
:104030000A30110599F00F5F1F4F9FEFE91AF90A37
:104040000130110581F781E00E947E078823D9F3B2
:10405000F701608181E00E943803EDCF81E00E948A
:10406000FD0281E00E94BE0281E00E947E0788235B
:10407000D9F36FEF81E00E94C1058093D0046FEF08
:1040800081E00E94C1058093D10481E00E94FD027D
:1040900081E00E947E078130D9F3E090E905F0903D
:1040A000EA050091EB051091EC0583E393E09F9303
:1040B0008F93812C912CA12CB12CC12CD12C20E6DA
:1040C00030E04DEC50E06DE070E080ED94E00E9457
:1040D0008634809118021F928F938EE293E09F9313
:1040E0008F937F926F920E941D3CE090E905F090C3
:1040F000EA050091EB051091EC057F926F9224E0A8
:10410000C22ED12C22E830E04EEF50E06FE070E09C
:1041100080ED94E00E94863480E291E09CAB8BAB12
:1041200080E699E09EAB8DAB20ED32E038AF2FAB4F
:104130009AAF89AF80E095E09CAF8BAF81E00E94A1
:10414000BE026AE081E00E94380360E081E00E94E4
:104150003803CE01C3967C010FB6F894DEBF0FBEC4
:10416000CDBF01E010E00DC0F701608181E00E9449
:1041700038030A30110599F00F5F1F4FFFEFEF1A58
:10418000FF0A0130110581F781E00E947E07882334
:10419000D9F3F701608181E00E943803EDCF81E01F
:1041A0000E94FD0281E00E94BE0281E00E947E0723
:1041B0008823D9F36FEF81E00E94C1058093D0047A
:1041C0006FEF81E00E94C1058093D10481E00E94DD
:1041D000FD0281E00E947E078130D9F380E093E008
:1041E0009CAB8BAB86E090E09EAB8DAB81E00E94F8
:1041F000BE0264E081E00E94380360E081E00E943A
:104200003803CE01C3967C0101E010E00DC0F70138
:10421000608181E00E9438030430110599F00F5F3E
:104220001F4F9FEFE91AF90A0130110581F781E06C
:104230000E947E078823D9F3F701608181E00E9404
:104240003803EDCF81E00E94FD0281E00E94BE02B2
:1042500081E00E947E078823D9F36FEF81E00E94FE
:10426000C1058093D0046FEF81E00E94C105809367
:10427000D10481E00E94FD0281E00E947E0781302E
:10428000D9F38091E105882311F40C94EA2946EED4
:1042900058ED6DEA70E080ED94E00E94393580E5DC
:1042A00091E09CAB8BAB80E39CE09EAB8DAB88EE4A
:1042B00093E098AF8FAB80EA95E09AAF89AF80E347
:1042C00092E09CAF8BAF6AE070E0CE01C3960E9493
:1042D000460981E00E94BE0281E00E947E07882399
:1042E000D9F36FEF81E00E94C1058093D0046FEF96
:1042F00081E00E94C1058093D10481E00E94FD020B
:1043000081E00E947E078130D9F3809120028F9353
:1043100080911F028F9380911E028F9380911D02C6
:104320008F9385E393E09F938F937F926F920E9488
:104330001D3CE090E905F090EA050091EB05109135
:10434000EC057F926F92812C912CA12CB12C94E0E2
:10435000C92ED12C2DE730E046E851E06FE070E047
:1043600080ED94E00E94863480E291E09CAB8BABC0
:104370001EAA1DAA80E095E098AF8FAB20E03FE039
:104380003AAF29AF9CAF8BAF81E00E94BE026AE0DA
:1043900081E00E94380360E081E00E943803CE0192
:1043A000C3967C010FB6F894DEBF0FBECDBF01E00F
:1043B00010E00DC0F701608181E00E9438030A30EF
:1043C000110599F00F5F1F4FFFEFEF1AFF0A013041
:1043D000110581F781E00E947E078823D9F3F70158
:1043E000608181E00E943803EDCF81E00E94FD02F0
:1043F00081E00E94BE0281E00E947E078823D9F3FB
:104400006FEF81E00E94C1058093D0046FEF81E0DF
:104410000E94C1058093D10481E00E94FD0281E0E9
:104420000E947E078130D9F380E093E09CAB8BAB98
:1044300084E090E09EAB8DAB81E00E94BE0264E020
:1044400081E00E94380360E081E00E943803CE01E1
:10445000C3967C0101E010E00DC0F701608181E0AE
:104460000E9438030430110599F00F5F1F4F9FEF32
:10447000E91AF90A0130110581F781E00E947E07EF
:104480008823D9F3F701608181E00E943803EDCFE2
:1044900081E00E94FD0281E00E94BE0281E00E9454
:1044A0007E078823D9F36FEF81E00E94C1058093D6
:1044B000D0046FEF81E00E94C1058093D10481E0B8
:1044C0000E94FD0281E00E947E078130D9F382E5DF
:1044D00091E09CAB8BAB8FEF9FEF9EAB8DAB8FEFE3
:1044E00090E098AF8FAB81E00E94BE0266E081E071
:1044F0000E94380360E081E00E943803CE01C39639
:104500007C0101E010E00DC0F701608181E00E94B4
:1045100038030630110599F00F5F1F4F9FEFE91A1E
:10452000F90A0130110581F781E00E947E07882396
:10453000D9F3F701608181E00E943803EDCF81E07B
:104540000E94FD0281E00E94BE0281E00E947E077F
:104550008823D9F36FEF81E00E94C1058093D004D6
:104560006FEF81E00E94C1058093D10481E00E9439
:10457000FD0281E00E947E078130D9F380E591E061
:104580009CAB8BAB80E991E09EAB8DAB88E196E074
:1045900098AF8FAB80E293E09AAF89AF80E392E06F
:1045A0009CAF8BAF81E00E94BE026AE081E00E9476
:1045B000380360E081E00E943803CE01C3967C019D
:1045C00001E010E00DC0F701608181E00E94380336
:1045D0000A30110599F00F5F1F4F9FEFE91AF90A92
:1045E0000130110581F781E00E947E078823D9F30D
:1045F000F701608181E00E943803EDCF81E00E94E5
:10460000FD0281E00E94BE0281E00E947E078823B5
:10461000D9F36FEF81E00E94C1058093D0046FEF62
:1046200081E00E94C1058093D10481E00E94FD02D7
:1046300081E00E947E078130D9F3E090E905F09097
:10464000EA050091EB051091EC058DE393E09F9353
:104650008F93812C912CA12CB12C84E0C82ED12CCD
:1046600023EC30E042E350E06CE070E080ED94E059
:104670000E94863480E291E09CAB8BAB80E293E0B9
:104680009EAB8DAB20E035E038AF2FAB9AAF89AF52
:1046900080E397E09CAF8BAF81E00E94BE026AE0AE
:1046A00081E00E94380360E081E00E943803CE017F
:1046B000C3967C010F900F9001E010E00DC0F70150
:1046C000608181E00E9438030A30110599F00F5F84
:1046D0001F4F9FEFE91AF90A0130110581F781E0B8
:1046E0000E947E078823D9F3F701608181E00E9450
:1046F0003803EDCF81E00E94FD0281E00E94BE02FE
:1047000081E00E947E078823D9F36FEF81E00E9449
:10471000C1058093D0046FEF81E00E94C1058093B2
:10472000D10481E00E94FD0281E00E947E07813079
:10473000D9F380E093E09CAB8BAB85E090E09EAB3F
:104740008DAB81E00E94BE0264E081E00E943803EC
:1047500060E081E00E943803CE01C3967C0101E055
:1047600010E00DC0F701608181E00E943803043041
:10477000110599F00F5F1F4F9FEFE91AF90A0130F9
:10478000110581F781E00E947E078823D9F3F701A4
:10479000608181E00E943803EDCF81E00E94FD023C
:1047A00081E00E94BE0281E00E947E078823D9F347
:1047B0006FEF81E00E94C1058093D0046FEF81E02C
:1047C0000E94C1058093D10481E00E94FD0281E036
:1047D0000E947E078130D9F382E591E09CAB8BABE0
:1047E0008DEC9AEF9EAB8DAB8FEF90E098AF8FABD7
:1047F00081E00E94BE0266E081E00E94380360E032
:1048000081E00E943803CE01C3967C0101E010E0F4
:104810000DC0F701608181E00E9438030630110568
:1048200099F00F5F1F4F9FEFE91AF90A0130110548
:1048300081F781E00E947E078823D9F3F701608128
:1048400081E00E943803EDCF81E00E94FD0281E00B
:104850000E94BE0281E00E947E078823D9F36FEF99
:1048600081E00E94C1058093D0046FEF81E00E9437
:10487000C1058093D10481E00E94FD0281E00E9485
:104880007E078130D9F380E591E09CAB8BAB80E46F
:1048900096E09EAB8DAB28E136E038AF2FAB9AAFF8
:1048A00089AF80E392E09CAF8BAF81E00E94BE02B3
:1048B0006AE081E00E94380360E081E00E943803F2
:1048C000CE01C3967C0101E010E00DC0F7016081CC
:1048D00081E00E9438030A30110599F00F5F1F4FE5
:1048E0009FEFE91AF90A0130110581F781E00E9472
:1048F0007E078823D9F3F701608181E00E943803A5
:10490000EDCF81E00E94FD0281E00E94BE0281E0C5
:104910000E947E078823D9F36FEF81E00E94C105D2
:104920008093D0046FEF81E00E94C1058093D10491
:1049300081E00E94FD0281E00E947E078130D9F370
:10494000809103068F93809102068F9380910106D8
:104950008F93809100068F9384E493E09F938F93CD
:104960007F926F920E941D3CE090E905F090EA056D
:104970000091EB051091EC057F926F92812C912CA8
:10498000A12CB12CB5E0CB2ED12C23EC30E048E1AA
:1049900051E06EE070E080ED94E00E9486348091FA
:1049A000E9059091EA05A091EB05B091EC0521E4B1
:1049B00031E03CAB2BAB28E038E03EAB2DAB20EA3E
:1049C00035E038AF2FAB28E130E03AAF29AF20E235
:1049D00030E03CAF2BAF9EAF8DAF2196BFAFAEAFF7
:1049E000219784E090E023969FAF8EAF2397259682
:1049F0001FAE1EAE259727961FAE1EAE279781E0ED
:104A00000E94BE0264E181E00E94380360E081E020
:104A10000E943803CE01C3967C010FB6F894DEBF26
:104A20000FBECDBF01E010E00DC0F701608181E055
:104A30000E9438030431110599F00F5F1F4FFFEFFB
:104A4000EF1AFF0A0130110581F781E00E947E070D
:104A50008823D9F3F701608181E00E943803EDCF0C
:104A600081E00E94FD0281E00E94BE0281E00E947E
:104A70007E078823D9F36FEF81E00E94C105809300
:104A8000D0046FEF81E00E94C1058093D10481E0E2
:104A90000E94FD0281E00E947E078130D9F380E20E
:104AA00091E09CAB8BAB80E699E09EAB8DAB20E0B8
:104AB00035E038AF2FAB9AAF89AF80E397E09CAF7A
:104AC0008BAF81E00E94BE026AE081E00E94380361
:104AD00060E081E00E943803CE01C3967C0101E0D2
:104AE00010E00DC0F701608181E00E9438030A30B8
:104AF000110599F00F5F1F4F9FEFE91AF90A013076
:104B0000110581F781E00E947E078823D9F3F70120
:104B1000608181E00E943803EDCF81E00E94FD02B8
:104B200081E00E94BE0281E00E947E078823D9F3C3
:104B30006FEF81E00E94C1058093D0046FEF81E0A8
:104B40000E94C1058093D10481E00E94FD0281E0B2
:104B50000E947E078130D9F380E093E09CAB8BAB61
:104B60008AE090E09EAB8DAB81E00E94BE0264E0E3
:104B700081E00E94380360E081E00E943803CE01AA
:104B8000C3967C0101E010E00DC0F701608181E077
:104B90000E9438030430110599F00F5F1F4F9FEFFB
:104BA000E91AF90A0130110581F781E00E947E07B8
:104BB0008823D9F3F701608181E00E943803EDCFAB
:104BC00081E00E94FD0281E00E94BE0281E00E941D
:104BD0007E078823D9F36FEF81E00E94C10580939F
:104BE000D0046FEF81E00E94C1058093D10481E081
:104BF0000E94FD0281E00E947E078130D9F382E5A8
:104C000091E09CAB8BAB8FEF9FEF9EAB8DAB8FEFAB
:104C100090E098AF8FAB81E00E94BE0266E081E039
:104C20000E94380360E081E00E943803CE01C39601
:104C30007C0101E010E00DC0F701608181E00E947D
:104C400038030630110599F00F5F1F4F9FEFE91AE7
:104C5000F90A0130110581F781E00E947E0788235F
:104C6000D9F3F701608181E00E943803EDCF81E044
:104C70000E94FD0281E00E94BE0281E00E947E0748
:104C80008823D9F36FEF81E00E94C1058093D0049F
:104C90006FEF81E00E94C1058093D10481E00E9402
:104CA000FD0281E00E947E078130D9F380E591E02A
:104CB0009CAB8BAB88EC9AE09EAB8DAB88E196E029
:104CC00098AF8FAB80ED92E09AAF89AF80E392E02E
:104CD0009CAF8BAF81E00E94BE026AE081E00E943F
:104CE000380360E081E00E943803CE01C3967C0166
:104CF00001E010E00DC0F701608181E00E943803FF
:104D00000A30110599F00F5F1F4F9FEFE91AF90A5A
:104D10000130110581F781E00E947E078823D9F3D5
:104D2000F701608181E00E943803EDCF81E00E94AD
:104D3000FD0281E00E94BE0281E00E947E0788237E
:104D4000D9F36FEF81E00E94C1058093D0046FEF2B
:104D500081E00E94C1058093D10481E00E94FD02A0
:104D600081E00E947E078130D9F380E291E09CAB24
:104D70008BAB80E39CE09EAB8DAB20E035E038AFA1
:104D80002FAB9AAF89AF80E397E09CAF8BAF81E008
:104D90000E94BE026AE081E00E94380360E081E088
:104DA0000E943803CE01C3967C0101E010E00DC0E3
:104DB000F701608181E00E9438030A30110599F003
:104DC0000F5F1F4F9FEFE91AF90A0130110581F7B4
:104DD00081E00E947E078823D9F3F701608181E09A
:104DE0000E943803EDCF81E00E94FD0281E00E9425
:104DF000BE0281E00E947E078823D9F36FEF81E035
:104E00000E94C1058093D0046FEF81E00E94C1052C
:104E10008093D10481E00E94FD0281E00E947E0720
:104E20008130D9F380E093E09CAB8BAB8BE090E0DA
:104E30009EAB8DAB81E00E94BE0264E081E00E94E7
:104E4000380360E081E00E943803CE01C3967C0104
:104E500001E010E00DC0F701608181E00E9438039D
:104E60000430110599F00F5F1F4F9FEFE91AF90AFF
:104E70000130110581F781E00E947E078823D9F374
:104E8000F701608181E00E943803EDCF81E00E944C
:104E9000FD0281E00E94BE0281E00E947E0788231D
:104EA000D9F36FEF81E00E94C1058093D0046FEFCA
:104EB00081E00E94C1058093D10481E00E94FD023F
:104EC00081E00E947E078130D9F382E591E09CABBE
:104ED0008BAB8FEF9FEF9EAB8DAB8FEF90E098AFDA
:104EE0008FAB81E00E94BE0266E081E00E94380341
:104EF00060E081E00E943803CE01C3967C0101E0AE
:104F000010E00DC0F701608181E00E943803063097
:104F1000110599F00F5F1F4F9FEFE91AF90A013051
:104F2000110581F781E00E947E078823D9F3F701FC
:104F3000608181E00E943803EDCF81E00E94FD0294
:104F400081E00E94BE0281E00E947E078823D9F39F
:104F50006FEF81E00E94C1058093D0046FEF81E084
:104F60000E94C1058093D10481E00E94FD0281E08E
:104F70000E947E078130D9F380E591E09CAB8BAB3A
:104F800088E99DE09EAB8DAB88E196E098AF8FAB52
:104F900080ED92E09AAF89AF80E392E09CAF8BAF57
:104FA00081E00E94BE026AE081E00E94380360E076
:104FB00081E00E943803CE01C3967C0101E010E03D
:104FC0000DC0F701608181E00E9438030A301105AD
:104FD00099F00F5F1F4F9FEFE91AF90A0130110591
:104FE00081F781E00E947E078823D9F3F701608171
:104FF00081E00E943803EDCF81E00E94FD0281E054
:105000000E94BE0281E00E947E078823D9F36FEFE1
:1050100081E00E94C1058093D0046FEF81E00E947F
:10502000C1058093D10481E00E94FD0281E00E94CD
:105030007E078130D9F380E291E09CAB8BAB1EAA56
:105040001DAA80E397E098AF8FAB20E03FE03AAF36
:1050500029AF9CAF8BAF81E00E94BE026AE081E085
:105060000E94380360E081E00E943803CE01C396BD
:105070007C0101E010E00DC0F701608181E00E9439
:1050800038030A30110599F00F5F1F4F9FEFE91A9F
:10509000F90A0130110581F781E00E947E0788231B
:1050A000D9F3F701608181E00E943803EDCF81E000
:1050B0000E94FD0281E00E94BE0281E00E947E0704
:1050C0008823D9F36FEF81E00E94C1058093D0045B
:1050D0006FEF81E00E94C1058093D10481E00E94BE
:1050E000FD0281E00E947E078130D9F380E093E0E9
:1050F0009CAB8BAB8CE090E09EAB8DAB81E00E94D3
:10510000BE0264E081E00E94380360E081E00E941A
:105110003803CE01C3967C0101E010E00DC0F70119
:10512000608181E00E9438030430110599F00F5F1F
:105130001F4F9FEFE91AF90A0130110581F781E04D
:105140000E947E078823D9F3F701608181E00E94E5
:105150003803EDCF81E00E94FD0281E00E94BE0293
:1051600081E00E947E078823D9F36FEF81E00E94DF
:10517000C1058093D0046FEF81E00E94C105809348
:10518000D10481E00E94FD0281E00E947E0781300F
:10519000D9F380911606882309F417C148E95BEF1B
:1051A00068E970E080ED94E00E94393580E591E097
:1051B0009CAB8BAB80E897E09EAB8DAB88E998E029
:1051C00098AF8FAB80E09FE09AAF89AF80ED92E01F
:1051D0009CAF8BAF81E00E94BE026AE081E00E943A
:1051E000380360E081E00E943803CE01C3967C0161
:1051F00001E010E00DC0F701608181E00E943803FA
:105200000A30110599F00F5F1F4F9FEFE91AF90A55
:105210000130110581F781E00E947E078823D9F3D0
:10522000F701608181E00E943803EDCF81E00E94A8
:10523000FD0281E00E94BE0281E00E947E07882379
:10524000D9F36FEF81E00E94C1058093D0046FEF26
:1052500081E00E94C1058093D10481E00E94FD029B
:1052600081E00E947E078130D9F380911606882361
:1052700009F40CC18091EE058111CAC068E873E1A0
:1052800080E090E00091F7051091F8052091F90574
:105290003091FA05601B710B820B930B0E945D38F5
:1052A00020E030E04AE754E40E9493379F938F93C5
:1052B0007F936F936091F3057091F4058091F505EC
:1052C0009091F6050E945D3820E030E04AE754E412
:1052D0000E9493379F938F937F936F938DE493E016
:1052E0009F938F937F926F920E941D3C0FB6F8940C
:1052F000DEBF0FBECDBFE090E905F090EA0500915A
:10530000EB051091EC057F926F92812C912CA12CD2
:10531000B12C74E0C72ED12C23E131E040EF50E0F6
:105320006FE070E080ED94E00E94863481E00E949E
:10533000BE0262E081E00E94380360E081E00E94EA
:1053400038030F900F9081E00E947E078823D9F3E5
:1053500061E881E00E94380361E081E00E94380347
:1053600081E00E94FD0281E00E94BE0281E00E9475
:105370007E078823D9F36FEF81E00E94C1058093F7
:10538000D0046FEF81E00E94C1058093D10481E0D9
:105390000E94FD0281E00E947E078130D9F3CA5B42
:1053A000DF4F0FB6F894DEBF0FBECDBFDF91CF91B8
:1053B0001F910F91FF90EF90DF90CF90BF90AF9033
:1053C0009F908F907F906F90089546E552E76FEF22
:1053D00070E0E8CE4FEF5FEF6FEF70E00C944B2181
:1053E0004FEF5FEF6FEF70E00C94EA1F4FEF5FEF4E
:1053F0006FEF70E00C94891E4FEF5FEF6FEF70E07E
:105400000C94281D4FEF5FEF6FEF70E00C947F1945
:1054100068E873E180E090E00091F7051091F805ED
:105420002091F9053091FA05601B710B820B930BEB
:105430000E945D3820E030E04AE754EC0E94933748
:105440009F938F937F936F936091F3057091F40511
:105450008091F5059091F6050E945D3820E030E0DE
:105460004AE754E40E9493379F938F937F936F93FF
:105470008DE493E09F938F937F926F920E941D3CE7
:105480000FB6F894DEBF0FBECDBF35CFE091130647
:10549000F0E0EE0FFF1FEB5CFD4F60817181C301F7
:1054A0000E945C3B28CF0F931F93CF93DF9381E043
:1054B0000E94BE0262E081E00E94380360E081E069
:1054C0000E94380381E00E947E078823D9F362E0BE
:1054D00081E00E94380363E081E00E94380381E0AC
:1054E0000E94FD0281E00E94BE0200ED14E0C1E0D6
:1054F000D0E00CC06FEF81E00E94C105F80180830D
:10550000CA30D10591F021960F5F1F4FC130D105F0
:1055100089F781E00E947E078823D9F36FEF81E04D
:105520000E94C105F8018083EECF81E00E94FD0258
:1055300081E00E947E078130D9F38091D30490E00E
:10554000982F88272091D204822B9093DA0580939C
:10555000D9058091D50490E0982F88272091D40414
:10556000822B9093D8058093D7058091D70490E043
:10557000982F88272091D604822B9093D60580936C
:10558000D5052091D90430E0322F22274091D8044C
:10559000242B3093D2052093D1058130910559F009
:1055A0001092D0059093D4058093D305DF91CF91CD
:1055B0001F910F9108952091D3053091D405232B8D
:1055C00079F72091D0052111EBCF21E02093D00570
:1055D000E9CF2091D5053091D6052130310519F05C
:1055E000FC01108208952091D3053091D405232B1E
:1055F000B9F7FC0120812111F3CF21E02083089528
:10560000E091D105F091D2053197EC30F105C0F46D
:10561000EE58FF4F0C9406375F988FE19EE4019798
:10562000F1F700C00000809115068111C8C080917B
:105630001406811105C081E08093160610921306AE
:105640005F9A08958091E60591E08927EBEDF5E0FA
:10565000119295E0E83EF907D9F78093E605F0CF7F
:105660005F988FE39FE10197F1F700C00000809100
:10567000DC0591E08927EBEDF5E0119295E0E83E3D
:10568000F907D9F78093DC05DBCF8091DD0591E048
:105690008927EBEDF5E0119295E0E83EF907D9F79F
:1056A0008093DD05CDCF8091DE0591E08927EBED7C
:1056B000F5E0119295E0E83EF907D9F78093DE0511
:1056C000BFCF8091DF0591E08927EBEDF5E01192E6
:1056D00095E0E83EF907D9F78093DF05B1CF8091D7
:1056E000E00591E08927EBEDF5E0119295E0E83EC9
:1056F000F907D9F78093E005A3CF5F988FE39FE187
:105700000197F1F700C000008091E10591E0892741
:10571000EBEDF5E0119295E0E83EF907D9F78093BB
:10572000E1058ECF5F988FE39FE10197F1F700C00D
:1057300000008091E20591E08927EBEDF5E0119200
:1057400095E0E83EF907D9F78093E20579CF5F98B5
:105750008FE39FE10197F1F700C000008091E3051E
:1057600091E08927EBEDF5E0119295E0E83EF9072D
:10577000D9F78093E30564CF5F988FE39FE10197AA
:10578000F1F700C000008091E40591E08927EBED7E
:10579000F5E0119295E0E83EF907D9F78093E4052A
:1057A0004FCF8091E50591E08927EBEDF5E011926F
:1057B00095E0E83EF907D9F78093E50541CF1092CF
:1057C00016063ECF0E94532A8091D005811101C058
:1057D00008950C94002B0E94D9170C94E22BFC0125
:1057E00060830895EF92FF920F931F93CF93DF93FF
:1057F000EC0188810E94BE0260E088810E94C105A0
:1058000060E088810E94C10588810E94FD02888134
:105810000E94BE0260E288810E94C105182F60E0EC
:1058200088810E94C105082F88810E94FD0288811D
:105830000E94BE0260E288810E94C10560E088810A
:105840000E94C10588810E94FD0288810E94BE02DB
:1058500060E088810E94C105F82E60E088810E9486
:10586000C105E82E88810E94FD028E2D90E0A0E007
:10587000B0E0772766279F29602B712BDF91CF91AE
:105880001F910F91FF90EF900895FC0180810C947F
:10589000DF012F923F924F925F926F927F928F9291
:1058A0009F92AF92BF92CF92DF92EF92FF920F93AF
:1058B0001F93CF93DF93CDB7DEB763970FB6F894FE
:1058C000DEBF0FBECDBF7C011B016A01FC01178248
:1058D0001682838181FF66C3BE016F5F7F4F4B01DC
:1058E000F7019381F10193FD859193FF81911F0150
:1058F000882309F453C3853239F493FD859193FFCE
:1059000081911F01853239F4B70190E00E94AC3BD0
:1059100056016501E5CF10E0512C20E02032A0F4C3
:105920008B3269F030F4803259F0833269F42061AF
:105930002CC08D3239F0803339F4216026C02260CA
:10594000246023C0286021C027FD27C030ED380F18
:105950003A3078F426FF06C0FAE01F9F300D11247C
:10596000132F13C06AE0569E300D1124532E20626F
:105970000CC08E3221F426FD11C3206406C08C3683
:1059800011F4206802C0883641F4F10193FD85913D
:1059900093FF81911F018111C1CF9BEB980F933031
:1059A00018F42061805E06C09BE9980F933008F0E0
:1059B000AAC12F7E26FF16E02F73722E853621F4A2
:1059C000F22FF0647F2E08C0863621F4622F6068C3
:1059D000762E02C01111115077FE07C01C3348F417
:1059E00044244394410E27E00BC0183030F4212F9B
:1059F00006C027E04CE3442E03C027E017E0412C0B
:105A0000560174E0A70EB11CF6016081718182819C
:105A10009381042DA4010E945E3A6C01098100FF6C
:105A200002C003FF06C071FC07C072FC08C0612CF5
:105A300008C03DE2632E05C02BE2622E02C090E258
:105A4000692E802F8C7099F1662011F084E001C0DE
:105A500083E0851510F0512C0BC0581A73FC08C058
:105A6000B70180E290E00E94AC3B5A94C9F7F3CFB3
:105A7000662029F0B701862D90E00E94AC3B03FD23
:105A800003C00EEB11E002C00AEB11E0F72DF0713C
:105A90007F2EF8018491882309F476C27110805218
:105AA000B70190E00E94AC3B0F5F1F4FF2CF77FE33
:105AB0000FC04C0C04FF04C08A81813309F44A945E
:105AC000141474F5F8E0F41578F588E0482E2CC02D
:105AD00076FC2AC0812F90E08C159D059CF06CEF20
