:100000000C9445010C9476010C9476010C947601C5
:100010000C9476010C9476010C9476010C94760184
:100020000C9476010C9476010C9476010C94760174
:100030000C9476010C9476010C9476010C94760164
:100040000C9476010C9476010C9476010C94760154
:100050000C9476010C9476010C9476010C94760144
:100060000C9476010C9409050C9476010C9476019D
:100070000C9476010C9476010C9476010C94760124
:100080000C9476010C9476010C9476010C94760114
:100090000C9476010C9476010C9476010C94760104
:1000A0000C9476010C9476010C9476010C947601F4
:1000B0000C9476010C9476010C9476010C947601E4
:1000C0000C9476010C9476010C9476010C947601D4
:1000D0000C9476010C9476010C9476010C947601C4
:1000E0000C947601FB17FF17031807180B180F184D
:1000F000131817181B181F18F317F7170C94071865
:100100000C94C1040C9413180C94A9240C94FF179C
:100110000C9403180C9417180C94F7170C941B18D4
:100120000C941F180C940F180C94D1040C94F31712
:100130000C94FB170C940B186E616E00696E6600D0
:100140006364696E6F70737578585B656667454662
:100150004700616E006E66696E69747900CDCCCC23
:100160003D0AD7233C17B7D13877CC2B329595E68B
:10017000241FB14F0A000020410000C84200401C6B
:100180004620BCBE4CCA1B0E5AAEC59D7400407AB8
:1001900010F35A00A0724E18090010A5D4E8000010
:1001A000E87648170000E40B54020000CA9A3B00AE
:1001B0000000E1F505000080969800000040420F25
:1001C000000000A08601000000102700000000E8E9
:1001D00003000000006400000000000A00000000AE
:1001E000000100000000002C76D888DC674F08234F
:1001F000DFC1DFAE59E1B1B796E5E3E453C63AE6B5
:1002000051997696E8E6C28426EB898C9B62ED4094
:100210007C6FFCEFBC9C9F40F2BAA56FA5F49005E3
:100220005A2AF75C936B6CF9676DC11BFCE0E40D17
:1002300047FEF520E6B500D0ED902E03009435770B
:10024000050080841E080000204E0A000000C80C33
:10025000333333330F986E12831141EF8D2114899C
:100260003BE65516CFFEE6DB18D1844B381BF77CF6
:100270001D901DA4BBE424203284725E228100C93B
:10028000F124ECA1E53D2700A92411241FBECFEFE6
:10029000D1E2DEBFCDBF00E00CBF13E0A0E0B2E0D2
:1002A000EAE1F3E500E00BBF02C007900D92A4392C
:1002B000B107D9F725E0A4E9B3E001C01D92A23E41
:1002C000B207E1F712E0CAE8D2E000E006C02297E8
:1002D0000109FE010BBF0E940D25C838D10780E03F
:1002E0000807A9F70E944D240C948B290C94000058
:1002F000279A08952F9A08952F9808951F9A089580
:100300000097D9F020E030E02F9A4FE75AE166E0FD
:10031000415050406040E1F700C000002F984FE787
:100320005AE166E0415050406040E1F700C00000F3
:100330002F5F3F4F2817390739F70895813081F132
:10034000823009F44FC0833009F008950D9A159852
:100350002FEF81EE94E0215080409040E1F700C003
:10036000000080910701806180930701809108015E
:100370008061809308018091070184608093070168
:100380008091080184608093080180910701826058
:10039000809307018091080182608093080108958D
:1003A000989AA09A2FEF83ED90E3215080409040DF
:1003B000E1F700C00000A0982FEF83ED90E32150FB
:1003C00080409040E1F700C00000809A889A6F9AC0
:1003D000779A839A8B9A819A899A82988A986E984A
:1003E00076980895099A11982FEF81EE94E02150A4
:1003F00080409040E1F700C00000809107018160DB
:1004000080930701809108018160B3CF813009F0AA
:10041000089577988AE08A95F1F7779A81E08A952E
:10042000F1F70895813081F0823089F0833009F04E
:100430000895809108018B7F8093080180910801C5
:100440008F7E8093080108958B98889808958091F5
:1004500008018B7F80930801809108018E7F809333
:10046000080108958130A9F08230B9F0833009F095
:1004700008958091080180618093080180910801AE
:100480008460809308018091080182608093080154
:100490000895889A8B9A899A0895809108018160BD
:1004A000EBCF962F9078813009F4BEC0823019F0DE
:1004B000833009F008958091080191110EC18D7F5C
:1004C0008093080181E08A95F1F7809108018460AA
:1004D0008093080181E08A95F1F7809108018B7F74
:1004E0008093080166FF05C18091080182608093B6
:1004F000080181E08A95F1F780910801846080937A
:10050000080181E08A95F1F7809108018B7F809343
:10051000080165FFE8C080910801826080930801AE
:1005200081E08A95F1F78091080184608093080149
:1005300081E08A95F1F7809108018B7F8093080113
:1005400064FFEFC08091080182608093080181E020
:100550008A95F1F78091080184608093080181E019
:100560008A95F1F7809108018B7F8093080163FFE2
:10057000D2C08091080182608093080181E08A9551
:10058000F1F78091080184608093080181E08A95E9
:10059000F1F7809108018B7F8093080162FFB5C05D
:1005A0008091080182608093080181E08A95F1F7CB
:1005B0008091080184608093080181E08A95F1F7B9
:1005C000809108018B7F8093080161FF98C0809122
:1005D000080182608093080181E08A95F1F780919B
:1005E000080184608093080181E08A95F1F7809189
:1005F00008018B7F8093080160FF99C080910801FA
:1006000082608093080181E08A95F1F7809108016A
:1006100084608093080181E08A95F1F78091080158
:100620008B7F80930801089591115BC0899881E0C8
:100630008A95F1F78B9A81E08A95F1F78B9866FF9E
:1006400088C0899A81E08A95F1F78B9A81E08A9532
:10065000F1F78B9865FF7BC0899A81E08A95F1F765
:100660008B9A81E08A95F1F78B9864FF6EC0899A26
:1006700081E08A95F1F78B9A81E08A95F1F78B9862
:1006800063FF61C0899A81E08A95F1F78B9A81E0D6
:100690008A95F1F78B9862FF54C0899A81E08A9518
:1006A000F1F78B9A81E08A95F1F78B9861FF47C04B
:1006B000899A81E08A95F1F78B9A81E08A95F1F722
:1006C0008B9860FF3AC0899A81E08A95F1F78B9AFE
:1006D00081E08A95F1F78B980895826080930801F4
:1006E000F1CE899AA4CF809108018D7F8093080173
:1006F00017CF809108018D7F80930801FACE8091F9
:1007000008018D7F8093080167CF809108018D7F5C
:10071000809308014ACF809108018D7F8093080162
:100720002DCF809108018D7F8093080110CF80919B
:1007300008018D7F8093080166CF8998C5CF89987D
:10074000B8CF8998ABCF89989ECF899891CF899857
:1007500084CF899877CF813011F080E008958A9511
:10076000F1F78B9A8FB191E09A95F1F78B9882FB14
:10077000882780F9880F91E09A95F1F78B9A2FB12D
:1007800091E09A95F1F78B9822FB992790F9892BA4
:10079000880F91E09A95F1F78B9A2FB191E09A9595
:1007A000F1F78B9822FB992790F9892B880F91E01C
:1007B0009A95F1F78B9A2FB191E09A95F1F78B9872
:1007C00022FB992790F9892B880F91E09A95F1F7F0
:1007D0008B9A2FB191E09A95F1F78B9822FB99278C
:1007E00090F9892B880F91E09A95F1F78B9A2FB1A8
:1007F00091E09A95F1F78B9822FB992790F9892B34
:10080000880F91E09A95F1F78B9A2FB191E09A9524
:10081000F1F78B9822FB992790F9892B91E09A9513
:10082000F1F78B9A2FB191E09A95F1F78B98880F99
:1008300022FB992790F9892B0895813011F080E0EF
:10084000089567FF93C0899A81E08A95F1F78B9AA2
:100850009FB181E08A95F1F78B9892FB992790F9E7
:10086000990F66FF81C0899A81E08A95F1F78B9A8A
:100870008FB121E02A95F1F78B9882FB882780F9C8
:10088000892B880F65FF6EC0899A91E09A95F1F7E0
:100890008B9A9FB121E02A95F1F78B9892FB9927CB
:1008A00090F9982B990F64FF5BC0899A81E08A9533
:1008B000F1F78B9A8FB121E02A95F1F78B9882FBA3
:1008C000882780F9892B880F63FF48C0899A91E0B7
:1008D0009A95F1F78B9A9FB121E02A95F1F78B98C1
:1008E00092FB992790F9982B990F62FF35C0899A4E
:1008F00081E08A95F1F78B9A8FB121E02A95F1F783
:100900008B9882FB882780F9892B880F61FF22C092
:10091000899A91E09A95F1F78B9A9FB121E02A95F7
:10092000F1F78B9892FB992790F9982B990F60FF1C
:100930000FC0899A81E08A95F1F78B9A8FB121E0F7
:100940002A95F1F78B9882FB882780F9892B0895E7
:100950008998F0CF8998DDCF8998CACF8998B7CF89
:100960008998A4CF899891CF89987ECF89986CCFA8
:10097000813011F080E008958CB186FB882780F9E2
:100980000895CF93C82F8A3041F09091C00095FF11
:10099000FCCFC093C600CF9108958DE00E94C104A2
:1009A000F4CF809196038823E1F3E0919703F091CF
:1009B0009803E556FC4F8081909196039150909357
:1009C000960320919703309198032F5F3F4F309308
:1009D00098032093970320919703309198032F3F1A
:1009E000310509F008951092980310929703089525
:1009F0001092C50089E18093C400E0ECF0E08081B2
:100A00008D7F808386E08093C20088E18093C1005F
:100A100008951F920F920FB60F9211240BB60F92EA
:100A20002F938F939F93EF93FF932091C600809114
:100A300096038F3FA1F1E0919903F0919A03E55657
:100A4000FC4F2083809196038F5F80939603809163
:100A5000990390919A03019690939A038093990336
:100A60008091990390919A038F3F910501F18091B4
:100A7000940390919503892B31F08091C00085FFFC
:100A8000FCCF2093C600FF91EF919F918F912F9102
:100A90000F900BBE0F900FBE0F901F901895809176
:100AA000C00085FFFCCF80E48093C600ECCF10929D
:100AB0009A0310929903DBCF809196038823F1F07B
:100AC000E0919703F0919803E556FC4F8081909157
:100AD0009603915090939603209197033091980339
:100AE0002F5F3F4F309398032093970320919703F4
:100AF000309198032F3F310519F0089580E0089553
:100B000010929803109297030895E1ECF0E0808131
:100B10008F7780831092C50089E18093C400A0EC98
:100B2000B0E08C918D7F8C9386E08093C20088E149
:100B30008083109295031092940380E092E090934A
:100B4000DD058093DC059093DF058093DE05109230
:100B50009A0310929903109298031092970310929F
:100B60009603808180688083089590939503809395
:100B700094030895109295031092940308950F938F
:100B80001F93CF93DF938C01EB010E942128FE017C
:100B900001900020E9F7EC1BFD0BC8018E0F9F1F91
:100BA000DF91CF911F910F910895FC01608308950B
:100BB000EF92FF921F93CF93DF931F92CDB7DEB7D3
:100BC0007C01162FFC01808179830E9412026981C9
:100BD000F70180810E945102612FF70180810E94FC
:100BE0005102F70180810F90DF91CF911F91FF900B
:100BF000EF900C943202FC0180810C949E01E7E09E
:100C0000F1E0808188608083E8E0F1E08081877F87
:100C100080838BED95E00C94FB05811106C08091DB
:100C20000801877F809308010895809108018860FA
:100C30008093080108958F929F92AF92BF92CF92B6
:100C4000DF92EF92FF926B017C0189EFC8168AE276
:100C5000D806E104F104F0F480E7C81687E1D8066D
:100C6000E104F104A0F1C701B6010E940A2623E3C2
:100C700033E34BE850E40E949C264B015C0120E0EA
:100C80003FEF4FE757E40E94982618164CF560E0B6
:100C900070E008C06AEE7AEB98EFC92E9AE2D92E7E
:100CA000E12CF12C8BED95E00E94D805C092C20595
:100CB000D092C305E092C405F092C505FF90EF9075
:100CC000DF90CF90BF90AF909F908F90089564EF8A
:100CD00075E680E7C82E87E1D82EE12CF12CE2CF13
:100CE000C501B4010E94DE25DDCFCF92DF92EF92E5
:100CF000FF920E940A2623E333E34BE850E40E946C
:100D00009C266B017C0120E03FEF4FE757E40E94F7
:100D1000982618163CF480E090E0FF90EF90DF906A
:100D2000CF900895C701B6010E94DE25CB01FF9048
:100D3000EF90DF90CF900895BC018BED95E00C947F
:100D4000D8050F9A17988AED95E00C94FB05811150
:100D500002C017980895179A0895CF92DF92EF92E4
:100D6000FF9261342DE0720723E08207910520F0A5
:100D700060E47DE083E090E00E940A2621E538E807
:100D800040EA5EE30E949C266B017C0120E03FEF7D
:100D90004FE757E40E949826181654F46FEF7FEF40
:100DA0008AED95E0FF90EF90DF90CF900C94D805FE
:100DB000A701960160E07FEF8FE797E40E9411257D
:100DC0000E94DE258AED95E0FF90EF90DF90CF90B6
:100DD0000C94D8058F929F92AF92BF92CF92DF92E0
:100DE000EF92FF92E7EAF5E0812C912C5401C12C9F
:100DF000D12C7601C394A191B191A70196010E94D3
:100E00000525860E971EA81EB91ED701C601880F9C
:100E1000991FAA1FBB1F6C017D01CC0CDD1CEE1CB1
:100E2000FF1CCC0CDD1CEE1CFF1CC80ED91EEA1EDC
:100E3000FB1E25E0E33BF207F1F68091CA0588230B
:100E400049F180919A05882309F444C08091C60530
:100E50009091C705A091C805B091C905881599055D
:100E6000AA05BB0571F05F98C501B4010E94AD06EB
:100E70008092C6059092C705A092C805B092C90598
:100E80005F9AFF90EF90DF90CF90BF90AF909F90D0
:100E90008F90089580919A05882399F35F98179A07
:100EA000C501B4010E94AD068092C6059092C705A7
:100EB000A092C805B092C90581E08093CA058FEF62
:100EC00091EE24E0815090402040E1F700C0000006
:100ED0005F9AD7CF5F9860E070E0CB010E94AD06CB
:100EE0008FEF91EE24E0815090402040E1F700C068
:100EF0000000179868EF7AE280E090E00E941B06FD
:100F00001092CA055F9ABDCFCF92DF92EF92FF9207
:100F10000E940A2621E538E840EA5EE30E949C260A
:100F20006B017C0120E03FEF4FE757E40E949826D9
:100F300018163CF48FEF9FEFFF90EF90DF90CF906B
:100F40000895A701960160E07FEF8FE797E40E9484
:100F500011250E94DE25CB01FF90EF90DF90CF900E
:100F60000895BC018AED95E00C94D805A7E0B1E0A6
:100F70008C918F7B8C93E8E0F1E080818F7B808384
:100F80008C918F778C9380818F778083ECE7F0E072
:100F90008081806C80838AE097EDA3E2B0E4809347
:100FA000D3059093D405A093D505B093D605808141
:100FB00080628083EAE7F0E08081876080838081BF
:100FC00080688083089580917B00877F80937B0079
:100FD00080917C00807E80937C0080917B00886083
:100FE00080937B0080917C00866080937C0098E0F9
:100FF00080917A00806480937A0080917A0086FDE7
:10100000FCCF6091780070917900915089F76F63FF
:1010100080E090E00E940A26209143023091440231
:1010200040914502509146020E949C260E94DE2576
:101030006093CB057093CC058093CD059093CE053E
:10104000089580917B00877F80937B0080917C0056
:10105000807E80937C0080917B00886080937B0001
:1010600080917C00876080937C0098E080917A007A
:10107000806480937A0080917A0086FDFCCF609135
:10108000780070917900915089F76F6380E090E06B
:101090000E940A262091470230914802409149025D
:1010A00050914A020E949C260E94DE256093CF0543
:1010B0007093D0058093D1059093D20508954F92F7
:1010C0005F926F927F928F929F92AF92BF92CF92D8
:1010D000DF92EF92FF92CF93DF9300D01F92CDB7B4
:1010E000DEB70E94E3070E9421088091C20590911B
:1010F000C305A091C405B091C50589839A83AB83CC
:10110000BC83C090CB05D090CC05E090CD05F0908D
:10111000CE058090CF059090D005A090D105B090DD
:10112000D20595E1C916D104E104F10408F48BC09D
:1011300069817A818B819C810E940A262B013C0166
:10114000C701B6010E940A2620E030E040EA51E4DF
:101150000E949C269B01AC01C301B2010E94112593
:101160002B013C01C501B4010E940A269B01AC0180
:10117000C301B2010E9411250E94DE254B015C01D2
:101180009B01AC01C701B6010E94B32428EE33E0F5
:1011900040E050E00E94C3248091D8052530A1E0B2
:1011A0003A074105510508F45EC0823008F469C071
:1011B000A8EEB3E00E94FA2460547D408340910978
:1011C000A70196010E94C32469817A818B819C8149
:1011D000621B730B840B950B16161706180619065F
:1011E00014F40E941B061092D8058091D705B8EE22
:1011F0008B16B3E09B06A104B10458F5823008F4C5
:1012000044C08091C2059091C305A091C405B091DE
:10121000C505883F9A42A105B10560F11092D70536
:101220000F900F900F900F90DF91CF91FF90EF9064
:10123000DF90CF90BF90AF909F908F907F906F90F6
:101240005F904F9008958091D805811108C08091DA
:10125000D705882329F381508093D705E1CF8150AA
:101260008093D805F4CF882309F4BFCF81508093B1
:10127000D805BBCF68EF7AE280E090E00E941B06C1
:10128000CDCF8F5F8093D805B0CF8F5F8093D70588
:10129000C7CF81E00E94120262E081E00E94510209
:1012A00060E081E00E94510281E00E94B80488233E
:1012B000D9F362E081E00E94510260E081E00E9487
:1012C000510281E00E94320281E00E94120281E01C
:1012D0000E94B8048823D9F36FEF81E00E941D04B7
:1012E00080939A046FEF81E00E941D0480939B0419
:1012F00081E00E94320281E00E94B8048130D9F37B
:1013000080919B048F9380919A048F938BE492E059
:101310009F938F930E94A32881E00E94120262E0B3
:1013200081E00E94510260E081E00E9451020F9032
:101330000F900F900F9081E00E94B8048823D9F39A
:1013400063E081E00E94510260E081E00E9451026E
:1013500081E00E94320281E00E94120281E00E943C
:10136000B8048823D9F36FEF81E00E941D048093B5
:101370009A046FEF81E00E941D0480939B0481E03A
:101380000E94320281E00E94B8048130D9F380913A
:101390009B048F9380919A048F938EE592E09F93A4
:1013A0008F930E94A32881E00E94120262E081E0F4
:1013B0000E94510260E081E00E9451020F900F9064
:1013C0000F900F9081E00E94B8048823D9F360E069
:1013D00081E00E94510260E081E00E94510281E0C0
:1013E0000E94320281E00E94120281E00E94B80451
:1013F0008823D9F36FEF81E00E941D0480939A0443
:101400006FEF81E00E941D0480939B0481E00E94A5
:10141000320281E00E94B8048130D9F381E00E9459
:10142000120262E081E00E94510260E081E00E94CD
:10143000510281E00E94B8048823D9F361E081E081
:101440000E94510260E081E00E94510281E00E940E
:10145000320281E00E94120281E00E94B8048823D7
:10146000D9F36FEF81E00E941D0480939A046FEF1F
:1014700081E00E941D0480939B0481E00E9432025F
:1014800081E00E94B8048130D9F380919B048F934E
:1014900080919A048F938CE692E09F938F930E94A1
:1014A000A3280F900F900F900F9008956F927F9246
:1014B0008F929F92AF92BF92CF92DF92EF92FF9264
:1014C0000F931F93CF93DF93CDB7DEB76A970FB615
:1014D000F894DEBF0FBECDBF81E00E949E0181E087
:1014E0000E94120281E00E94B8048823D9F36FEFB2
:1014F00081E00E941D0480939A046FEF81E00E94B6
:101500001D0480939B0481E00E94320281E00E94CE
:10151000B8048130D9F380919A0490919B04823170
:10152000944309F09AC073E8C72E72E0D72EE1E920
:101530006E2EE2E07E2E81E00E94120262E081E0E7
:101540000E94510260E081E00E94510281E00E940D
:10155000B8048823D9F360E081E00E94510260E082
:1015600081E00E94510281E00E94320281E00E94EB
:10157000120281E00E94B8048823D9F36FEF81E062
:101580000E941D0480939A046FEF81E00E941D0465
:1015900080939B0481E00E94320281E00E94B804A3
:1015A0008130D9F3E0909A04F0909B0481E00E948E
:1015B000120262E081E00E94510260E081E00E943C
:1015C000510281E00E94B8048823D9F361E081E0F0
:1015D0000E94510260E081E00E94510281E00E947D
:1015E000320281E00E94120281E00E94B804882346
:1015F000D9F36FEF81E00E941D0480939A046FEF8E
:1016000081E00E941D0480939B0481E00E943202CD
:1016100081E00E94B8048130D9F300919A041091BE
:101620009B04FF92EF92DF92CF920E94A3281F9318
:101630000F937F926F920E94A3280FB6F894DEBF9B
:101640000FBECDBFEF2809F076CF0F371D4109F04F
:1016500072CF8FE992E00E94B52880E094E09A83EF
:10166000898384E690E09C838B8381E00E94120250
:1016700064E081E00E94510260E081E00E9451023A
:10168000FE0131963F017F0101E010E00DC0F7013E
:10169000608181E00E9451020430110599F00F5FD2
:1016A0001F4FFFEFEF1AFF0A0130110581F781E0AC
:1016B0000E94B8048823D9F3F701608181E00E9479
:1016C0005102EDCF81E00E94320281E00E941202BD
:1016D00081E00E94B8048823D9F36FEF81E00E9473
:1016E0001D0480939A046FEF81E00E941D04809393
:1016F0009B0481E00E94320281E00E94B8048130A4
:10170000D9F381E00E94120262E081E00E9451025E
:1017100060E081E00E94510281E00E94B8048823C9
:10172000D9F360E881E00E94510261E081E00E940B
:10173000510281E00E94320281E00E94120281E0A7
:101740000E94B8048823D9F36FEF81E00E941D0442
:1017500080939A046FEF81E00E941D0480939B04A4
:1017600081E00E94320281E00E94B8048130D9F306
:1017700085E591E09A83898384E090E09C838B8364
:1017800081E00E94120264E081E00E94510260E068
:1017900081E00E945102730101E010E00DC0F701E9
:1017A000608181E00E9451020430110599F00F5FC1
:1017B0001F4FFFEFEF1AFF0A0130110581F781E09B
:1017C0000E94B8048823D9F3F701608181E00E9468
:1017D0005102EDCF81E00E94320281E00E941202AC
:1017E00081E00E94B8048823D9F36FEF81E00E9462
:1017F0001D0480939A046FEF81E00E941D04809382
:101800009B0481E00E94320281E00E94B804813092
:10181000D9F380E791E09A8389838BEE93ED9C83E3
:101820008B8389EE90E09E838D8381E00E9412027B
:1018300066E081E00E94510260E081E00E94510276
:10184000730101E010E00DC0F701608181E00E94AA
:1018500051020630110599F00F5F1F4FFFEFEF1A8D
:10186000FF0A0130110581F781E00E94B804882346
:10187000D9F3F701608181E00E945102EDCF81E050
:101880000E94320281E00E94120281E00E94B804AC
:101890008823D9F36FEF81E00E941D0480939A049E
:1018A0006FEF81E00E941D0480939B0481E00E9401
:1018B000320281E00E94B8048130D9F38FE1EBEA73
:1018C000F2E0D30101900D928A95E1F7E090BE0518
:1018D000F090BF050091C0051091C1057F926F92F5
:1018E000812C912CA12CB12C54E0C52ED12C2EE1B1
:1018F00030E040EF50E06EE070E08AE994E00E9452
:10190000772281E1EAECF2E0D30101900D928A9511
:10191000E1F7E090BE05F090BF050091C005109181
:10192000C1057F926F9263E0C62ED12C24E630E091
:101930004AE050E067E070E08AE994E00E94772294
:1019400084E1EAE2F3E0D30101900D928A95E1F798
:10195000E090BE05F090BF050091C0051091C10553
:101960007F926F9228E730E04AE050E067E070E055
:101970008AE994E00E94772284E1EEE3F3E0D30168
:1019800001900D928A95E1F7E090BE05F090BF05B9
:101990000091C0051091C1057F926F922CE830E054
:1019A0004AE050E067E070E08AE994E00E94772224
:1019B0001F921F921F9288EC8F939EE39F9390EA51
:1019C0009F9328E82F9321E52F9321E42F939F9352
:1019D0001F921F921F921F921F928F938BED92E086
:1019E0009F938F937F926F920E94E228E090BE05B2
:1019F000F090BF050091C0051091C1057F926F92D4
:101A000024EB30E04AE050E067E070E08AE994E0DF
:101A10000E94772281E1EFEEF2E0D30101900D9276
:101A20008A95E1F7E090BE05F090BF050091C005F2
:101A30001091C1057F926F922CED30E04AE050E0AA
:101A400068E070E08AE994E00E9477220FB6F8948B
:101A5000DEBF0FBECDBF81E00E94120262E081E0D6
:101A60000E94510260E081E00E94510281E00E94E8
:101A7000B8048823D9F361E881E00E94510261E053
:101A800081E00E94510281E00E94320281E00E94C6
:101A9000120281E00E94B8048823D9F36FEF81E03D
:101AA0000E941D0480939A046FEF81E00E941D0440
:101AB00080939B0481E00E94320281E00E94B8047E
:101AC0008130D9F381E094E09E8B8D8B82E090E0B1
:101AD000988F8F8B1A8E198E81E00E94120266E019
:101AE00081E00E94510260E081E00E9451027E018B
:101AF00095E1E90EF11C01E010E00DC0F7016081F5
:101B000081E00E9451020630110599F00F5F1F4FCE
:101B1000EFEFEE1AFE0A0130110581F781E00E9415
:101B2000B8048823D9F3F701608181E00E94510253
:101B3000EDCF81E00E94320281E00E94120281E03A
:101B40000E94B8048823D9F36FEF81E00E941D043E
:101B500080939A046FEF81E00E941D0480939B04A0
:101B600081E00E94320281E00E94B8048130D9F302
:101B700060E073E08AE994E00E94CA236A960FB697
:101B8000F894DEBF0FBECDBFDF91CF911F910F91B3
:101B9000FF90EF90DF90CF90BF90AF909F908F908D
:101BA0007F906F900895989AA09A999AA198579AC1
:101BB0005F9A0E94A1060E94FF050E94B6070E943C
:101BC000560A68E873E180E090E00E941B06E8E0B6
:101BD000F1E080818860808360E070E0CB010E944A
:101BE000AD062FEF83E294EF215080409040E1F763
:101BF00000C0000068EF7AE280E090E00E941B06DF
:101C000060E070E0CB010E94AD060E9A1698089A2B
:101C1000109A0C9A149A08952F923F924F925F92C5
:101C20006F927F928F929F92AF92BF92CF92DF92EC
:101C3000EF92FF920F931F93CF93DF93CDB7DEB751
:101C4000AC970FB6F894DEBF0FBECDBF85E291E032
:101C50009A83898388E090E09C838B8381E00E9453
:101C6000120264E081E00E94510260E081E00E9483
:101C700051029E012F5F3F4F790101E010E00DC03E
:101C8000D7016C9181E00E9451020430110599F056
:101C90000F5F1F4F3FEFE31AF30A0130110581F781
:101CA00081E00E94B8048823D9F3D7016C9181E0C8
:101CB0000E945102EDCF81E00E94320281E00E9439
:101CC000120281E00E94B8048823D9F36FEF81E00B
:101CD0000E941D0480939A046FEF81E00E941D040E
:101CE00080939B0481E00E94320281E00E94B8044C
:101CF0008130D9F38FE496E4A6E4B0E0898B9A8B27
:101D0000AB8BBC8BFE0175968BE0DF011D928A9533
:101D1000E9F782E591E09A8389838FEF9FEF9C83B7
:101D20008B838FEF90E09E838D8381E00E9412026F
:101D300066E081E00E94510260E081E00E94510271
:101D4000FE0131967F0101E010E00DC0D7016C91DA
:101D500081E00E9451020630110599F00F5F1F4F7C
:101D6000FFEFEF1AFF0A0130110581F781E00E94B1
:101D7000B8048823D9F3F701608181E00E94510201
:101D8000EDCF81E00E94320281E00E94120281E0E8
:101D90000E94B8048823D9F36FEF81E00E941D04EC
:101DA00080939A046FEF81E00E941D0480939B044E
:101DB00081E00E94320281E00E94B8048130D9F3B0
:101DC00080E591E09A83898380E897E09C838B8308
:101DD00080E491E09E838D8380E09FE098878F83ED
:101DE00080E892E09A87898781E00E9412026AE087
:101DF00081E00E94510260E081E00E945102FE01F8
:101E000031967F0101E010E00DC0D7016C9181E0B7
:101E10000E9451020A30110599F00F5F1F4FFFEF2A
:101E2000EF1AFF0A0130110581F781E00E94B80422
:101E30008823D9F3D7016C9181E00E945102EDCF44
:101E400081E00E94320281E00E94120281E00E9441
:101E5000B8048823D9F36FEF81E00E941D048093BA
:101E60009A046FEF81E00E941D0480939B0481E03F
:101E70000E94320281E00E94B8048130D9F373EBF2
:101E8000672E75E0772EE3E14E2EE2E05E2EFE0136
:101E9000B0961F01F2E06F1A7108D30111968C9170
:101EA00011978F938C918F93A2E5B3E0BF93AF937B
:101EB0003F922F920E94E228E090BE05F090BF056D
:101EC0000091C0051091C105D2014D915C914A5D10
:101ED0005F4F3F922F92812C912CA12CB12C64E06A
:101EE000C62ED12C28E230E061E170E08AE994E06E
:101EF0000E947722B4E04B0E511C0FB6F894DEBF5F
:101F00000FBECDBFF7EA6F16F5E07F0619F6E09039
:101F1000BE05F090BF050091C0051091C10540912C
:101F20001D0250911E02485D5F4F85E593E09F932F
:101F30008F932DE230E06FE070E08AE994E00E9438
:101F4000772280E093E09A8389838DE090E09C8300
:101F50008B8381E00E94120264E081E00E945102C2
:101F600060E081E00E9451029E012F5F3F4F7901A6
:101F70000F900F9001E010E00DC0D7016C9181E04F
:101F80000E9451020430110599F00F5F1F4F3FEF7F
:101F9000E31AF30A0130110581F781E00E94B804C9
:101FA0008823D9F3F701608181E00E945102EDCFCF
:101FB00081E00E94320281E00E94120281E00E94D0
:101FC000B8048823D9F36FEF81E00E941D04809349
:101FD0009A046FEF81E00E941D0480939B0481E0CE
:101FE0000E94320281E00E94B8048130D9F38091CE
:101FF0009A05882309F439C589E890E027E83FED80
:1020000042E551E05A8349833C832B839E838D8331
:1020100081E00E94120266E081E00E94510260E0CD
:1020200081E00E945102FE0131967F0101E010E043
:102030000DC0D7016C9181E00E945102063011055C
:1020400099F00F5F1F4FFFEFEF1AFF0A01301105E4
:1020500081F781E00E94B8048823D9F3D7016C91FD
:1020600081E00E945102EDCF81E00E94320281E0C6
:102070000E94120281E00E94B8048823D9F36FEF16
:1020800081E00E941D0480939A046FEF81E00E941A
:102090001D0480939B0481E00E94320281E00E9433
:1020A000B8048130D9F380E591E09A83898380E890
:1020B00097E09C838B8380EC98E09E838D8380E007
:1020C0009FE098878F8380E892E09A87898781E0F4
:1020D0000E9412026AE081E00E94510260E081E009
:1020E0000E945102FE0131967F0101E010E00DC017
:1020F000D7016C9181E00E9451020A30110599F0DC
:102100000F5F1F4FFFEFEF1AFF0A0130110581F734
:1021100081E00E94B8048823D9F3F701608181E04F
:102120000E945102EDCF81E00E94320281E00E94C4
:10213000120281E00E94B8048823D9F36FEF81E096
:102140000E941D0480939A046FEF81E00E941D0499
:1021500080939B0481E00E94320281E00E94B804D7
:102160008130D9F380919A05811184C48091D90579
:10217000813009F47FC5823009F46FC59E012F5E5E
:102180003F4F6901E090BE05F090BF050091C0058A
:102190001091C105DF92CF92812C912CA12CB12CF2
:1021A00034E0C32ED12C28E131E040EF50E06EE066
:1021B00070E08AE994E00E94772285E691E09A83B4
:1021C000898388E790E09C838B8381E00E941202E0
:1021D00064E081E00E94510260E081E00E945102CF
:1021E000AE014F5F5F4F7A010F900F9001E010E05A
:1021F0000DC0D7016C9181E00E945102043011059D
:1022000099F00F5F1F4F5FEFE51AF50A01301105D6
:1022100081F781E00E94B8048823D9F3D7016C913B
:1022200081E00E945102EDCF81E00E94320281E004
:102230000E94120281E00E94B8048823D9F36FEF54
:1022400081E00E941D0480939A046FEF81E00E9458
:102250001D0480939B0481E00E94320281E00E9471
:10226000B8048130D9F3E7E3F2E0FAA3E9A380E010
:1022700090E023E030E03EA32DA3212C312CE5E1BA
:102280004E2EE2E05E2EDC01A556BA4FBCA3ABA3F6
:10229000E1E0F0E0FAA7E9A721E030E038A72FA3BA
:1022A000612C712CAC014A5F5F4F5CA74BA7E0E04B
:1022B000F3E0FA83E9838BA59CA5861997099C8393
:1022C0008B8381E00E94120264E081E00E9451024F
:1022D00060E081E00E9451029E012F5F3F4F790133
:1022E00001E010E00DC0D7016C9181E00E94510225
:1022F0000430110599F00F5F1F4F3FEFE31AF30A07
:102300000130110581F781E00E94B8048823D9F3D8
:10231000F701608181E00E945102EDCF81E00E94CF
:10232000320281E00E94120281E00E94B8048823F8
:10233000D9F36FEF81E00E941D0480939A046FEF40
:1023400081E00E941D0480939B0481E00E94320280
:1023500081E00E94B8048130D9F3C30181709927CC
:10236000EBA1FCA18215930509F462C18081811162
:102370005AC18DEA90E026EE38ED42E551E05A83ED
:1023800049833C832B839E838D8381E00E941202CC
:1023900066E081E00E94510260E081E00E9451020B
:1023A000CE0101967C0101E010E00DC0D7016C91D7
:1023B00081E00E9451020630110599F00F5F1F4F16
:1023C0009FEFE91AF90A0130110581F781E00E94B7
:1023D000B8048823D9F3D7016C9181E00E9451029F
:1023E000EDCF81E00E94320281E00E94120281E082
:1023F0000E94B8048823D9F36FEF81E00E941D0486
:1024000080939A046FEF81E00E941D0480939B04E7
:1024100081E00E94320281E00E94B8048130D9F349
:10242000E9A1FAA180819181D2012D913C91E0E551
:10243000F1E0FA83E983220F331F220F331F220FAB
:10244000331F3C832B83880F991F880F991F880F98
:10245000991F9E838D8320E832E038872F833A8747
:10246000298781E00E9412026AE081E00E94510205
:1024700060E081E00E945102AE014F5F5F4F7A0140
:1024800001E010E00DC0D7016C9181E00E94510283
:102490000A30110599F00F5F1F4F5FEFE51AF50A3B
:1024A0000130110581F781E00E94B8048823D9F337
:1024B000D7016C9181E00E945102EDCF81E00E9432
:1024C000320281E00E94120281E00E94B804882357
:1024D000D9F36FEF81E00E941D0480939A046FEF9F
:1024E00081E00E941D0480939B0481E00E943202DF
:1024F00081E00E94B8048130D9F32114310409F439
:10250000EBC2E9A1FAA1808191814997D2012D9175
:102510003C91E2E6F1E0FA83E983220F331F220FB8
:10252000331F220F331F3C832B83880F991F880F83
:10253000991F880F991F9E838D8380EF90E0988765
:102540008F831A8619861C861B861E861D8688E741
:1025500090E0988B8F8781E00E94120260E181E019
:102560000E94510260E081E00E9451029E012F5FB3
:102570003F4F790101E010E00DC0D7016C9181E07F
:102580000E9451020031110599F00F5F1F4F3FEF7C
:10259000E31AF30A0130110581F781E00E94B804C3
:1025A0008823D9F3D7016C9181E00E945102EDCFCD
:1025B00081E00E94320281E00E94120281E00E94CA
:1025C000B8048823D9F36FEF81E00E941D04809343
:1025D0009A046FEF81E00E941D0480939B0481E0C8
:1025E0000E94320281E00E94B8048130D9F3EFA149
:1025F000F8A5369709F4C5C03FEF631A730A4FA1D7
:1026000058A54F5F5F4F58A74FA354E0450E511C8C
:102610008BA19CA101969CA38BA3A9A5BAA51296F8
:10262000BAA7A9A744CE8AEF90E026E236E7A5CE66
:102630008081811158C08FEF90E02DEC3AEF42E598
:1026400051E05A8349833C832B839E838D8381E0B1
:102650000E94120266E081E00E94510260E081E087
:102660000E945102CE0101967C0101E010E00DC0F4
:10267000D7016C9181E00E9451020630110599F05A
:102680000F5F1F4F9FEFE91AF90A0130110581F71B
:1026900081E00E94B8048823D9F3F701608181E0CA
:1026A0000E945102EDCF81E00E94320281E00E943F
:1026B000120281E00E94B8048823D9F36FEF81E011
:1026C0000E941D0480939A046FEF81E00E941D0414
:1026D00080939B0481E00E94320281E00E94B80452
:1026E0008130D9F39DCE8AEF90E026E236E7A7CF7E
:1026F000E090BE05F090BF050091C0051091C105A6
:102700006DA07EA0660C771CF301EF5CFD4F3F01CE
:10271000208131812651310949A45AA4440C551C09
:10272000A2014D5E5D4F2A01DA014D915C918BE86B
:1027300093E09F938F93812C912CA12CB12C64E07A
:10274000C62ED12C6CE070E08AE994E00E947722DA
:10275000F301408151814D5D5F4FD2016D917C91BC
:10276000EFE0AE2EB12CF4EBCF2ED12CE12CF12CDE
:1027700087012EE130E08AE994E00E942A230F903D
:102780000F90FFEF2F1A3F0A2DA13EA12E5F3F4F62
:102790003EA32DA349A15AA14C5F5F4F5AA349A361
:1027A00052E02516310409F05DC150E8C52E52E013
:1027B000D52E60E2462E55245394612C7FE0772E6F
:1027C0005A8249821C821B82DE82CD8278866F8289
:1027D000DA86C98681E00E9412026AE081E00E94E6
:1027E000510260E081E00E945102CE0101967C011D
:1027F00001E010E00DC0D7016C9181E00E94510210
:102800000A30110599F00F5F1F4F9FEFE91AF90A7F
:102810000130110581F781E00E94B8048823D9F3C3
:10282000F701608181E00E945102EDCF81E00E94BA
:10283000320281E00E94120281E00E94B8048823E3
:10284000D9F36FEF81E00E941D0480939A046FEF2B
:1028500081E00E941D0480939B0481E00E9432026B
:1028600081E00E94B8048130D9F3BBEFDB1AE0E8C5
:10287000CE16ECE0DE0609F0A3CF80912B029091FA
:102880002C0220E231E03A8329831C821B8220E063
:1028900035E03E832D83880F991F880F991F880F7D
:1028A000991F98878F833A87298781E00E941202B7
:1028B0006AE081E00E94510260E081E00E945102E2
:1028C0009E012F5F3F4F790101E010E00DC0D7015D
:1028D0006C9181E00E9451020A30110599F00F5F5E
:1028E0001F4F3FEFE31AF30A0130110581F781E032
:1028F0000E94B8048823D9F3D7016C9181E00E942B
:102900005102EDCF81E00E94320281E00E9412026A
:1029100081E00E94B8048823D9F36FEF81E00E9420
:102920001D0480939A046FEF81E00E941D04809340
:102930009B0481E00E94320281E00E94B804813051
:10294000D9F3A7E1EA2EA2E0FA2EB0E22B2E33242F
:10295000339410E8412E12E0512E00E8602E07E07B
:10296000702EF701808191813A822982880F991F08
:10297000880F991F880F991F9C838B835E824D82DD
:1029800098878F837A86698681E00E9412026AE0C6
:1029900081E00E94510260E081E00E9451029E01AC
:1029A0002F5F3F4F690101E010E00DC0D6016C912F
:1029B00081E00E9451020A30110599F00F5F1F4F0C
:1029C0003FEFC31AD30A0130110581F781E00E945D
:1029D000B8048823D9F3F601608181E00E94510296
:1029E000EDCF81E00E94320281E00E94120281E07C
:1029F0000E94B8048823D9F36FEF81E00E941D0480
:102A000080939A046FEF81E00E941D0480939B04E1
:102A100081E00E94320281E00E94B8048130D9F343
:102A2000B4E0EB0EF11CEFE2EE16E2E0FE0609F078
:102A300098CFAC960FB6F894DEBF0FBECDBFDF9136
:102A4000CF911F910F91FF90EF90DF90CF90BF90AB
:102A5000AF909F908F907F906F905F904F903F903E
:102A60002F9008958BA59CA50ACC8FEF90E026E6C9
:102A700036E6C6CA8091CE058F938091CD058F939F
:102A80008091CC058F938091CB058F936091CF057A
:102A90007091D0058091D1059091D2050E940A26AF
:102AA00020E030E04AE754E40E9476259F938F931C
:102AB0007F936F9387E593E09F938F936E01B1E1CE
:102AC000CB0ED11CDF92CF920E94E2280FB6F89471
:102AD000DEBF0FBECDBF56CBB2E06B16710409F45A
:102AE0005FC0B5E06B16710409F402CEE9A1FAA14A
:102AF000808191814996D2012D913C91E2E6F1E0ED
:102B0000FA83E983220F331F220F331F220F331F53
:102B10003C832B83880F991F880F991F880F991F5B
:102B20009E838D8380EF90E098878F831A86198625
:102B30001C861B8684EB90E09E878D8788E790E05B
:102B4000988B8F8781E00E94120260E181E00E94F1
:102B5000510260E081E00E9451029E012F5F3F4FD1
:102B6000790101E010E00130110579F0D7016C9195
:102B700081E00E9451020031110509F44EC00F5F3F
:102B80001F4F3FEFE31AF30AEECF81E00E94B80433
:102B90008823D9F3F701608181E00E945102EFCFD1
:102BA000E090BE05F090BF050091C0051091C105F1
:102BB000E9A1FAA12081318126513109D2014D913B
:102BC0005C9182E693E09F938F93812C912CA12CB2
:102BD000B12CA4E0CA2ED12C6CE070E08AE994E01C
:102BE0000E947722E9A1FAA1408151814D5D5F4F9A
:102BF000D2016D917C91BFE0AB2EB12C14EBC12EB4
:102C0000D12CE12CF12C87012EE130E08AE994E00F
:102C10000E942A230F900F90EFCC81E00E94320295
:102C200081E00E94120281E00E94B8048823D9F357
:102C30006FEF81E00E941D0480939A046FEF81E0A2
:102C40000E941D0480939B0481E00E94320281E077
:102C50000E94B8048130D9F3CACC6E0131E1C30EB1
:102C6000D11C84E1E7E7F3E0D60101900D928A954B
:102C7000E1F788CA6E01F1E1CF0ED11C82E1E5E6F1
:102C8000F3E0D60101900D928A95E1F77BCA0F938C
:102C90001F93CF93DF9381E00E94120262E081E0F4
:102CA0000E94510260E081E00E94510281E00E9496
:102CB000B8048823D9F362E081E00E94510263E006
:102CC00081E00E94510281E00E94320281E00E9474
:102CD00012020AE914E0C1E0D0E00CC06FEF81E01D
:102CE0000E941D04F8018083CA30D10591F021961D
:102CF0000F5F1F4FC130D10589F781E00E94B804F2
:102D00008823D9F36FEF81E00E941D04F8018083CE
:102D1000EECF81E00E94320281E00E94B80481304F
:102D2000D9F380919D0490E0982F882720919C04EE
:102D3000822B9093BD058093BC0580919F0490E009
:102D4000982F882720919E04822B9093BB05809317
:102D5000BA058091A10490E0982F88272091A004C3
:102D6000822B9093B9058093B8052091A30430E09D
:102D7000322F22274091A204242B3093B5052093B3
:102D8000B4058130910521F11092B3059093B705F8
:102D90008093B60580910E022D30310551F08111DE
:102DA00003C081E080930E02DF91CF911F910F91BC
:102DB00008958823C9F380919A0591E0892780932B
:102DC0009A0510920E02DF91CF911F910F910895F5
:102DD0004091B6055091B705452BB1F64091B3052A
:102DE0004111D2CF41E04093B305D0CF2091B80537
:102DF0003091B9052130310519F0FC011082089598
:102E00002091B6053091B705232BB9F7FC0120813D
:102E10002111F3CF21E0208308958F929F92AF92EA
:102E2000BF92CF92DF92EF92FF9297FD60C0FC01BC
:102E3000EE0FFF1F863091050CF062C0E955FA4F86
:102E4000208131812F5F3F4F2A3031050CF05FC068
:102E500031832083E7EAF5E0812C912C5401C12CC9
:102E6000D12C7601C394A191B191A70196010E9442
:102E70000525860E971EA81EB91ED701C601880F0C
:102E8000991FAA1FBB1F6C017D01CC0CDD1CEE1C21
:102E9000FF1CCC0CDD1CEE1CFF1CC80ED91EEA1E4C
:102EA000FB1E85E0E33BF807F1F681E488168DE030
:102EB000980683E0A806B104D0F01092A8051092FD
:102EC000A7051092AA051092A9051092AC051092C0
:102ED000AB051092AE051092AD051092B0051092A0
:102EE000AF0582E090E09093B2058093B105FF902A
:102EF000EF90DF90CF90BF90AF909F908F9008950C
:102F0000EB55FA4F89E090E091838083F0CF1182F6
:102F1000108201960E940D179DCFCF93DF938630CC
:102F20009105E0F5AC01440F551FFA01E955FA4F40
:102F300020813181215031093183208337FF2EC018
:102F400085309105C9F19C012F5F3F4FF901EE0FCC
:102F5000FF1FE955FA4F60817181161617060CF5AF
:102F6000A9E0B0E00FC02530310531F1B9016F5F44
:102F70007F4F8081918118161906A4F4A9019B0145
:102F8000440F551FEA01C955DA4FB983A8838081E0
:102F9000918101978193919397FDE5CFDF91CF9137
:102FA00008959C01F901EE0FFF1FE955FA4F1182B8
:102FB0001082DF91CF91089525E030E0F901EE0F06
:102FC000FF1FE955FA4F11821082F3CFE091B4054B
:102FD000F091B5053197EC30F10508F00895EE5801
:102FE000FF4F0C94E52484E090E00C948D1785E06D
:102FF00090E00C948D1780E090E00C940D1781E028
:1030000090E00C940D1782E090E00C940D1783E093
:1030100090E00C940D1784E090E00C940D1785E07F
:1030200090E00C940D1780E090E00C948D1781E0F7
:1030300090E00C948D1782E090E00C948D1783E063
:1030400090E00C948D17EF92FF920F931F93CF9304
:10305000DF9300D000D0CDB7DEB781E00E9412022E
:1030600062E081E00E94510260E081E00E94510232
:1030700081E00E94B8048823D9F360E881E00E94CF
:10308000510261E081E00E94510281E00E9432021F
:1030900081E00E94120281E00E94B8048823D9F3E3
:1030A0006FEF81E00E941D0480939A046FEF81E02E
:1030B0000E941D0480939B0481E00E94320281E003
:1030C0000E94B8048130D9F385E591E09A83898321
:1030D00084E090E09C838B8381E00E94120264E094
:1030E00081E00E94510260E081E00E945102CE0125
:1030F00001967C0101E010E00DC0F701608181E0E4
:103100000E9451020430110599F00F5F1F4F9FEF8D
:10311000E91AF90A0130110581F781E00E94B8042B
:103120008823D9F3F701608181E00E945102EDCF3D
:1031300081E00E94320281E00E94120281E00E943E
:10314000B8048823D9F36FEF81E00E941D048093B7
:103150009A046FEF81E00E941D0480939B0481E03C
:103160000E94320281E00E94B8048130D9F380913C
:103170000F0290911002A0911102B091120224E26C
:1031800031E03A8329839C838B83BE83AD8381E0C6
:103190000E94120266E081E00E94510260E081E03C
:1031A0000E945102CE0101967C0101E010E00DC0A9
:1031B000F701608181E00E9451020630110599F00B
:1031C0000F5F1F4F9FEFE91AF90A0130110581F7D0
:1031D00081E00E94B8048823D9F3F701608181E07F
:1031E0000E945102EDCF81E00E94320281E00E94F4
:1031F000120281E00E94B8048823D9F36FEF81E0C6
:103200000E941D0480939A046FEF81E00E941D04C8
:1032100080939B0481E00E94320281E00E94B80406
:103220008130D9F30E940C0E8091D905882309F4CE
:1032300044C081E00E94120262E081E00E945102DB
:1032400060E081E00E94510281E00E94B80488237E
:10325000D9F361E881E00E94510261E081E00E94BF
:10326000510281E00E94320281E00E94120281E05C
:103270000E94B8048823D9F36FEF81E00E941D04F7
:1032800080939A046FEF81E00E941D0480939B0459
:1032900081E00E94320281E00E94B8048130D9F3BB
:1032A00026960FB6F894DEBF0FBECDBFDF91CF914B
:1032B0001F910F91FF90EF9008950E944716809103
:1032C000B305882309F4B5CF0E94E617B2CFCF9299
:1032D000DF92EF92FF92C090CB05D090CC05E090AA
:1032E000CD05F090CE05A8EEB3E0A70196010E94AF
:1032F000FA2461367B4583409105B8F181E08093E3
:10330000D90560E070E0CB010E94AD063FEF41EED1
:1033100084E0315040408040E1F700C00000179841
:1033200068EF7AE280E090E00E941B061092CA05E6
:1033300010929A050E94231884E190E02BB1205846
:103340002BB92FEF39E648E1215030404040E1F7FA
:1033500000C000000197009789F75F9A1092D90585
:10336000FF90EF90DF90CF9008958091CF059091DE
:10337000D005A091D105B091D2058F349B41A10514
:10338000B10560F33AE0C316D104E104F10430F76B
:1033900082E08093D90560E070E0CB010E94AD0629
:1033A0004FEF81EE94E0415080409040E1F700C043
:1033B0000000179868EF7AE280E090E00E941B0618
:1033C0001092CA0510929A050E9423188AE090E094
:1033D0002BB120582BB92FEF39E648E1215030406E
:1033E0004040E1F700C000000197009789F75F9A1D
:1033F000B5CF80919A0508958F929F92AF92BF9218
:10340000CF92DF92EF92FF92E7EAF5E0C12CD12C48
:103410007601C394812C912C5401A191B191A70103
:1034200096010E940525860E971EA81EB91ED7017B
:10343000C601880F991FAA1FBB1F6C017D01CC0C10
:10344000DD1CEE1CFF1CCC0CDD1CEE1CFF1CC80E92
:10345000D91EEA1EFB1E85E0E33BF807F1F6C50125
:10346000B401FF90EF90DF90CF90BF90AF909F900E
:103470008F9008952F923F924F925F926F927F921A
:103480008F929F92AF92BF92CF92DF92EF92FF9274
:103490000F931F93CF93DF93CDB7DEB763970FB62C
:1034A000F894DEBF0FBECDBF7C011B016A01FC0199
:1034B00017821682838181FF66C3BE016F5F7F4FD3
:1034C0004B01F7019381F10193FD859193FF819168
:1034D0001F01882309F453C3853239F493FD859184
:1034E00093FF81911F01853239F4B70190E00E946A
:1034F000712856016501E5CF10E0512C20E0203203
:10350000A0F48B3269F030F4803259F0833269F4E0
:1035100020612CC08D3239F0803339F4216026C00F
:103520002260246023C0286021C027FD27C030ED21
:10353000380F3A3078F426FF06C0FAE01F9F300DAE
:103540001124132F13C06AE0569E300D1124532E00
:1035500020620CC08E3221F426FD11C3206406C007
:103560008C3611F4206802C0883641F4F10193FDD5
:10357000859193FF81911F018111C1CF9BEB980F22
:10358000933018F42061805E06C09BE9980F933059
:1035900008F0AAC12F7E26FF16E02F73722E853603
:1035A00021F4F22FF0647F2E08C0863621F4622FBA
:1035B0006068762E02C01111115077FE07C01C33CF
:1035C00048F444244394410E27E00BC0183030F4F3
:1035D000212F06C027E04CE3442E03C027E017E06C
:1035E000412C560174E0A70EB11CF6016081718177
:1035F00082819381042DA4010E9423276C010981FB
:1036000000FF02C003FF06C071FC07C072FC08C0C7
:10361000612C08C03DE2632E05C02BE2622E02C081
:1036200090E2692E802F8C7099F1662011F084E071
:1036300001C083E0851510F0512C0BC0581A73FCA3
:1036400008C0B70180E290E00E9471285A94C9F73F
:10365000F3CF662029F0B701862D90E00E947128F3
:1036600003FD03C00CE311E002C008E311E0F72DF5
:10367000F0717F2EF8018491882309F476C27110CD
:103680008052B70190E00E9471280F5F1F4FF2CF68
:1036900077FE0FC04C0C04FF04C08A81813309F40B
:1036A0004A94141474F5F8E0F41578F588E0482E7F
:1036B0002CC076FC2AC0812F90E08C159D059CF0D3
:1036C0006CEFC6166FEFD60674F0772D7068772E04
:1036D0000AC0E2E0F0E0EC0FFD1FE10FF11D808178
:1036E000803319F411501111F4CF77FE0EC0442429
:1036F0004394410E812F90E0C816D9062CF41C1972
:1037000004C04424439401C010E077FE07C01C1499
:103710001D043CF496012F5F3F4F05C025E030E0CB
:1037200002C021E030E0662011F02F5F3F4F1123EF
:1037300031F0412F50E04F5F5F4F240F351F452D73
:1037400050E02417350714F4521A01C0512C872D6C
:10375000897049F4552039F0B70180E290E00E9469
:1037600071285A94F7CF662029F0B701862D90E092
:103770000E94712873FC09C0552039F0B70180E31D
:1037800090E00E9471285A94F7CF77FE5FC09C2D7D
:103790008D2DD7FE02C090E080E0692E782E40E0AB
:1037A00050E0C601841991099D878C8796012619DE
:1037B0003709280D391D812F90E0EE27FF27E81BE0
:1037C000F90BFF87EE87FFEF6F167F0669F4B701ED
:1037D0008EE290E02B8B3A8B488B598B0E9471289C
:1037E000598948893A892B89C614D70454F06C85C5
:1037F0007D85661577052CF4F901E40FF51F8181AD
:1038000001C080E371E0671A71084F5F5F4FEE857A
:10381000FF856E167F066CF0B70190E02B8B3A8B1C
:10382000488B598B0E9471282B893A89488959897C
:10383000CACF6C147D0439F49A81963318F4953309
:1038400011F404FF81E3B70190E04BC08A8181331A
:1038500009F00F7EB70190E00E947128111105C098
:1038600074FE18C085E490E017C0B7018EE290E0C6
:103870000E94712882E066246394680EF401E80FC8
:10388000F11D8081B70190E00E947128115041F331
:10389000862DF1CF85E690E0B7010E947128D7FC14
:1038A00005C0C114D10439F404FF05C0D194C194FA
:1038B000D1088DE201C08BE2B70190E00E9471282F
:1038C00080E36AE0C616D1042CF08F5FFAE0CF1ACD
:1038D000D108F7CFB70190E00E947128B701C60167
:1038E000C0960E94712841C1833631F0833779F048
:1038F000833509F058C021C0560172E0A70EB11CF3
:10390000F6018081898301E010E0640114C0560152
:10391000F2E0AF0EB11CF601C080D18026FF03C0DB
:10392000612F70E002C06FEF7FEFC6012B8B0E940A
:1039300028288C012B892F7715C05601F2E0AF0E95
:10394000B11CF601C080D18026FF03C0612F70E05A
:1039500002C06FEF7FEFC6012B8B0E9416288C01EF
:103960002B892068722E23FD1AC0852D90E0081740
:103970001907A8F4B70180E290E00E9471285A94D8
:10398000F4CFF60177FC859177FE81916F01B70145
:1039900090E00E94712851105A94015011090115AC
:1039A000110579F7E2C0843611F0893651F55601D8
:1039B00027FF09C0F4E0AF0EB11CF60160817181F0
:1039C000828193810AC0F2E0AF0EB11CF6016081E2
:1039D0007181882777FD8095982F022F0F7697FFAA
:1039E00008C090958095709561957F4F8F4F9F4F40
:1039F00000682AE030E0A4010E942A29C82EC818D5
:103A00003EC0022F853721F40F7E2AE030E01DC032
:103A1000097F8F3691F018F4883559F0B0C080379F
:103A200019F0883711F0ABC0006104FF09C00460D1
:103A300007C024FF08C0066006C028E030E005C0CB
:103A400020E130E002C020E132E0560107FF09C06A
:103A5000F4E0AF0EB11CF601608171818281938127
:103A600008C0F2E0AF0EB11CF6016081718180E008
:103A700090E0A4010E942A29C82EC8180F7706FFDB
:103A80000BC0202F2E7FC11650F404FF0AC002FD88
:103A900008C0202F2E7E05C0DC2C202F03C0DC2C7C
:103AA00001C0D12E24FF0DC0FE01EC0DF11D80815F
:103AB000803311F4297E09C022FF06C0D394D39429
:103AC00004C0822F867809F0D39423FD13C020FF11
:103AD00006C01C2DD51418F4150D1D19D52CD514A0
:103AE00068F4B70180E290E02B8B0E947128D39498
:103AF0002B89F5CFD51410F45D1801C0512C24FF8B
:103B000012C0B70180E390E02B8B0E9471282B89B3
:103B100022FF17C021FF03C088E590E002C088E7BC
:103B200090E0B7010CC0822F867859F021FD02C0C9
:103B300080E201C08BE227FD8DE2B70190E00E9498
:103B40007128C11638F4B70180E390E00E94712813
:103B50001150F7CFCA94F401EC0DF11D8081B7012B
:103B600090E00E947128C110F5CF552009F4C2CC15
:103B7000B70180E290E00E9471285A94F6CFF701D5
:103B80008681978102C08FEF9FEF63960FB6F894FE
:103B9000DEBF0FBECDBFDF91CF911F910F91FF9080
:103BA000EF90DF90CF90BF90AF909F908F907F90DD
:103BB0006F905F904F903F902F90089520FD09C027
:103BC000FC0123FD05C022FF02C073836283518381
:103BD0004083089544FD10C046FD10C0DB01FC0188
:103BE000AA0FBB1FEE1FFF1F1094D1F76A0F7B1F98
:103BF0008E1F9F1F31E003C033E001C034E0660F29
:103C0000771F881F991F3150D1F7620F711D811DD9
:103C1000911D08950F931F93CF93DF938C01C801DB
:103C20000E943328EC0197FD08C00E94FB27892BD6
:103C3000B1F7B801CE010E941129CE01DF91CF91D9
:103C40001F910F9108956F927F929F92AF92BF92B2
:103C5000CF92DF92EF92FF920F931F93CF93DF9358
:103C60001F92CDB7DEB78C013B015A0129830E9418
:103C70003328AC01552729814B32510521F04D32B3
:103C8000510581F4206831E0631A710861147104F0
:103C900011F480E07FC0C80129830E943328298164
:103CA00097FDF7CFE22FED7F9E2E322F307379F5FF
:103CB000803369F57301F1E0EF1AF108E114F104C2
:103CC00009F454C0C80129830E943328298197FD33
:103CD0004DC0382F3F7D383581F4292D2264922E36
:103CE00032E0631A71086114710409F43FC0C8011D
:103CF0000E94332897FF0BC039C026FF04C0E92D6E
:103D0000E2609E2E03C0F92DF2619F2E3701C12C77
:103D1000D12C760120ED280F283080F094FE04C0CD
:103D2000B8010E9411291FC02A3040F096FEF8CF3A
:103D30002F7D3FEE320F363098F72750492DC701BF
:103D4000B6010E94EA1D6B017C01292D2260922E92
:103D500031E0631A71086114710459F0C8010E94BE
:103D6000332897FFD7CF91FC04C093CFC12CD12C1F
:103D7000760197FE08C0F094E094D094C094C11CE2
:103D8000D11CE11CF11C292DB701A601C5010E941F
:103D9000DE1D81E00F90DF91CF911F910F91FF9079
:103DA000EF90DF90CF90BF90AF909F907F906F90FB
:103DB00008954F925F926F927F928F929F92AF92EF
:103DC000BF92CF92DF92EF92FF920F931F93CF9308
:103DD000DF93CDB7DEB7A0970FB6F894DEBF0FBE66
:103DE000CDBF5C014B017A018E010F5F1F4F68014F
:103DF00080E2F80111928A95E9F7F501638080E08D
:103E000090E0712C412CB0E041E050E0F90163FCFE
:103E1000559063FE51908F01A52D9F01511003C055
:103E200080E090E07FC0FEE55F1202C0009761F184
:103E30006B2F70E0681779074CF46DE5561661F149
:103E4000EDE25E1203C0442009F103C0411001C03D
:103E5000752C6A2F669566956695F601E60FF11D3D
:103E60006A2F67708A0102C0000F111F6A95E2F77E
:103E7000B8017081762B7083A71559F0A71510F43F
:103E8000AF5FE7CFA150E5CFB1E004C04424439435
:103E900001C0412C0196BACF442019F08E81806276
:103EA0008E83B11103C07724739419C0F601CE013B
:103EB0008196208120952193E817F907D1F7F3CF58
:103EC000E114F10429F0F7018083C70101967C0118
:103ED00091E0891A910881149104F1F0712CC501C7
:103EE0000E94332897FD16C0282F269526952695E3
:103EF000F601E20FF11D208130E0AC01477055273B
:103F000002C0359527954A95E2F720FDD9CFB50136
:103F10000E941129711084CFE114F10411F0F7010E
:103F20001082C801A0960FB6F894DEBF0FBECDBFB9
:103F3000DF91CF911F910F91FF90EF90DF90CF9085
:103F4000BF90AF909F908F907F906F905F904F90B9
:103F500008952F923F924F925F926F927F929F921D
:103F6000AF92BF92CF92DF92EF92FF920F931F9387
:103F7000CF93DF9300D000D0CDB7DEB76C018B01BB
:103F80001A010E9433289E838D8399278B329105D5
:103F900029F08D9799F480E8982E01C0912C01505A
:103FA00011090115110511F480E036C1C6010E9406
:103FB00033289E838D8397FF02C0F6CF912C8D818D
:103FC0009E810E9403288936910541F08E36910525
:103FD000D9F5B2E56B2EB1E07B2E04C0A5E56A2EC3
:103FE000A1E07A2E8FEF681A780AF3013197B49026
:103FF000BB20F1F0015011090115110571F0C60146
:104000000E9433287C0197FD08C00E940328B8163F
:1040100049F3B601C7010E94112928E5621621E083
:10402000720609F0C1CF80E090E0A0E8BFE709C0C8
:1040300095E5691691E07906B1F780E090E0A0EC93
:10404000BFE7BC01CD01D8C0412C512C3201E12C7D
:10405000F12C2D8120532A3028F5E92DE260BE2E67
:10406000892D887092FE06C0811123C0FFEFEF1AE0
:10407000FF0A1FC0882319F081E0E81AF10840E226
:10408000C301B2010E94EA1D2B013C0198E94916C7
:1040900099E95906690699E1790658F0E92DE66033
:1040A000BE2E07C02E3FA1F493FC12C0F92DF8607C
:1040B000BF2E015011090115110549F0C6010E94DA
:1040C00033289E838D839B2C97FD02C0C2CF9B2CEF
:1040D00091FE6ACF8D818F7D853409F056C05801DD
:1040E00021E0A21AB108A114B10409F45DCFC60100
:1040F0000E9433289E838D8397FD56CF99278B325C
:10410000910529F08D9781F4892D8061982E5801B1
:1041100092E0A91AB108A114B10409F445CFC6016F
:104120000E9433289E838D838D819E81C0970A973C
:1041300008F03ACF8501A12CB12CB501882777FD75
:104140008095982F2D81205340E20E94EA1DAB01FB
:10415000BC015A01015011090115110571F0C60188
:1041600049835A836B837C830E9433289E838D838B
:10417000C09749815A810A9700F394FE04C0AA248B
:10418000BB24A41AB50AEA0CFB1C012B41F0ED81FB
:10419000FE81F7FD04C0B601CF010E941129C301C1
:1041A000B2010E940A26F7FE08C0F194E194F108DA
:1041B000F1E7AF2EF1E0BF2E04C0E9E8AE2EE1E05A
:1041C000BE2E6501F8E1CF1AD10800E210E0E0163A
:1041D000F10650F0F50125913591459154910E94D9
:1041E0009C26E01AF10AF3CF24E0A21AB108169532
:1041F0000795AC14BD0459F797FE05C0DC01CB014F
:10420000B058BC01CD012114310429F0F1016083C3
:1042100071838283938381E026960FB6F894DEBF84
:104220000FBECDBFDF91CF911F910F91FF90EF9007
:10423000DF90CF90BF90AF909F907F906F905F90F6
:104240004F903F902F9008954F925F926F927F9280
:104250008F929F92AF92BF92CF92DF92EF92FF9296
:104260000F931F93CF93DF931F92CDB7DEB78C01CF
:104270002B017A01FC0117821682A12CF801D38050
:10428000F201D3FC8591D3FE8191382F2F01882331
:1042900009F416C190E039830E94FB273981892BEC
:1042A00021F0C8010E940A1EE9CF353241F4F20123
:1042B000D3FC3591D3FE31912F01353269F4C80119
:1042C00039830E943328398197FDF8C03817B1F23D
:1042D000B8010E941129F4C03A3241F4D3FC35915F
:1042E000D3FE31912F01BB24B39401C0B12C812C9A
:1042F000912C20ED230F2A3088F4FB2DF260BF2E85
:10430000B40180E090E040E20E94EA1D4B01F2011E
:10431000D3FC3591D3FE31912F01EBCFB1FE04C018
:104320008114910421F4CCC088248A94982C3836C6
:1043300019F03C3661F014C0F201D3FC3591D3FE84
:1043400031912F01383661F4FB2DF860BF2E8B2D93
:104350008460B82EF201D3FC3591D3FE31912F0148
:10436000332309F4ADC0632F70E080E491E039831A
:104370000E940B283981892B09F4A2C0B0FC07C028
:10438000F701C080D180C70102967C0102C0C12C18
:10439000D12C3E3651F4F8014681578160E070E03F
:1043A0002B2DC6010E94DE1D69CF3336C9F4B1FC46
:1043B00003C088248394912CC8010E94332897FD60
:1043C0007DC0C114D10429F0F6018083C601019695
:1043D0006C0191E0891A91088114910469F76AC00F
:1043E0003B3559F49201A601B401C8010E94D91EBF
:1043F0002C01009709F05EC058C0C80139830E94A3
:104400000A1E398197FD5AC03F36F1F140F4343627
:10441000B9F13936E1F1383509F040C02DC03337F4
:10442000B9F018F4303741F139C0353749F1383730
:1044300019F134C0C114D10429F0F6016082C6011B
:1044400001966C0191E0891A91088114910471F030
:10445000C8010E9433283C0197FD08C00E94FB2739
:10446000892B41F3B801C3010E941129C114D10461
:1044700009F1F60110821EC0FB2DF064BF2E07C0AB
:104480008B2D8062B82E03C09B2D9061B92E2B2DF1
:10449000A601B401C8010E94231E05C0A601B401F3
:1044A000C8010E94A91F811105C0F8018381807392
:1044B00029F406C0B0FCE2CEA394E0CEAA2019F005
:1044C0008A2D90E002C08FEF9FEF0F90DF91CF9188
:1044D0001F910F91FF90EF90DF90CF90BF90AF9022
:1044E0009F908F907F906F905F904F9008956F9204
:1044F0007F928F929F92AF92BF92CF92DF92EF9274
:10450000FF920F931F93CF93DF93CDB7DEB7C251C6
:10451000D1400FB6F894DEBF0FBECDBF3C0181E0A5
:1045200091E09A8389837C836B83440F551F440FEA
:10453000551F440F551F5E834D83220F331F220FDB
:10454000331F220F331F38872F83FA86E9861C8793
:104550000B87DE86CD86B88AAF86880C991C880CBE
:10456000991C880C991C9A8A898ACC5DDE4F6881D7
:104570007981C452D140CE0143960E94BF058E017D
:104580000F5F1F4F6C01C01AD10A81E00E94120216
:104590006C2D81E00E9451026D2D81E00E9451023C
:1045A000C114D104F9F0780100E010E00BC0F7016C
:1045B00061917F0181E00E9451020F5F1F4FC01681
:1045C000D10681F098012F733327232B81F781E0E7
:1045D0000E94B8048111EBCF81E00E94B8048823C7
:1045E000B1F3E5CF81E00E94320281E00E94120225
:1045F00081E00E94B8048823D9F36FEF81E00E9424
:104600001D04F30180836FEF81E00E941D04F3011C
:10461000818381E00E94320281E00E94B8048130EF
:10462000D9F3F30180819181CE5EDE4F0FB6F8940D
:10463000DEBF0FBECDBFDF91CF911F910F91FF90D5
:10464000EF90DF90CF90BF90AF909F908F907F9032
:104650006F9008958F929F92AF92BF92CF92DF9208
:10466000EF92FF920F931F93CF93DF93CDB7DEB7F7
:1046700060970FB6F894DEBF0FBECDBF4C01A2E627
:10468000B1E0BA83A983660F771F660F771F660FA5
:10469000771F7C836B83440F551F440F551F440FB6
:1046A000551F5E834D83220F331F220F331F220FAE
:1046B000331F38872F83FA86E9861C870B87DE86AF
:1046C000CD86AA0CBB1CAA0CBB1CAA0CBB1CB88AAE
:1046D000AF8681E00E94120260E181E00E945102F7
:1046E00060E081E00E945102CE0101967C0101E070
:1046F00010E00DC0F701608181E00E94510200319D
:10470000110599F00F5F1F4F9FEFE91AF90A013069
:10471000110581F781E00E94B8048823D9F3F701DD
:10472000608181E00E945102EDCF81E00E9432025F
:1047300081E00E94120281E00E94B8048823D9F32C
:104740006FEF81E00E941D04F40180836FEF81E030
:104750000E941D04F401818381E00E94320281E005
:104760000E94B8048130D9F3F40180819181609670
:104770000FB6F894DEBF0FBECDBFDF91CF911F9172
:104780000F91FF90EF90DF90CF90BF90AF909F90F0
:104790008F900895AF92BF92CF92DF92EF92FF92E7
:1047A0000F931F93CF93DF93CDB7DEB7C250D140A5
:1047B0000FB6F894DEBF0FBECDBF5C0185E593E078
:1047C0009A838983CE0103960E94BF058E010F5FF5
:1047D0001F4F6C01C01AD10A81E00E9412026C2D99
:1047E00081E00E9451026D2D81E00E945102C114AE
:1047F000D104F9F0780100E010E00BC0F7016191FD
:104800007F0181E00E9451020F5F1F4FC016D10649
:1048100081F098012F733327232B81F781E00E94C9
:10482000B8048111EBCF81E00E94B8048823B1F372
:10483000E5CF81E00E94320281E00E94120281E015
:104840000E94B8048823D9F36FEF81E00E941D0411
:10485000F50180836FEF81E00E941D04F5018183E3
:1048600081E00E94320281E00E94B8048130D9F3D5
:10487000F50180819181CE5FDE4F0FB6F894DEBFE7
:104880000FBECDBFDF91CF911F910F91FF90EF90A1
:10489000DF90CF90BF90AF9008950E9478010E9462
:1048A00085050E94D30D83E090E00E9480010E9464
:1048B0007A0178948EE893E00E94B528C0E0D0E0B9
:1048C00014E602E39E013695279536952795ABE7CA
:1048D000B4E10E94EB2496958795189F9001199F4B
:1048E000300D1124C217D307C9F09E0136952795C4
:1048F000ABE7B4E10E94EB2496958795089F900161
:10490000099F300D1124C217D307F9F08FE99FE0FA
:104910000197F1F700C000002196D4CF0E945F08F4
:104920000E9467190E94EA069E0136952795ABE71B
:10493000B4E10E94EB2496958795089F9001099F0A
:10494000300D1124C217D30739F70E94231821967E
:10495000B9CF62E08BED95E00E94D50563E08AED6A
:1049600095E00C94D505DB018F939F930E94FA2468
:10497000BF91AF91A29F800D911DA39F900DB29FFB
:10498000900D11240895A1E21A2EAA1BBB1BFD0154
:104990000DC0AA1FBB1FEE1FFF1FA217B307E4071E
:1049A000F50720F0A21BB30BE40BF50B661F771F76
:1049B000881F991F1A9469F7609570958095909556
:1049C0009B01AC01BD01CF010895EE0FFF1F0590C3
:1049D000F491E02D1994A29FB001B39FC001A39F51
:1049E000700D811D1124911DB29F700D811D112428
:1049F000911D08950E94EB24A59F900DB49F900DEA
:104A0000A49F800D911D11240895B7FF0C94FA24E2
:104A10000E94FA24821B930B08950790F691E02DD3
:104A200019945058BB27AA270ED048C139D130F06D
:104A30003ED120F031F49F3F11F41EF42EC10EF44C
:104A4000E095E7FB24C1E92F4AD180F3BA1762074A
:104A500073078407950718F071F49EF562C10EF490
:104A6000E0950B2EBA2FA02D0B01B90190010C017E
:104A7000CA01A0011124FF27591B99F0593F50F496
:104A8000503E68F11A16F040A22F232F342F4427EE
:104A9000585FF3CF469537952795A795F0405395E6
:104AA000C9F77EF41F16BA0B620B730B840BBAF0B6
:104AB0009150A1F0FF0FBB1F661F771F881FC2F721
:104AC0000EC0BA0F621F731F841F48F48795779535
:104AD0006795B795F7959E3F08F0B3CF9395880FEC
:104AE00008F09927EE0F9795879508950CD0E6C0AA
:104AF000DED040F0D5D030F021F45F3F19F0C7C0D0
:104B0000511110C1CAC0EBD098F39923C9F35523B2
:104B1000B1F3951B550BBB27AA27621773078407B0
:104B200038F09F5F5F4F220F331F441FAA1FA9F366
:104B300033D00E2E3AF0E0E830D091505040E69558
:104B4000001CCAF729D0FE2F27D0660F771F881FB9
:104B5000BB1F261737074807AB07B0E809F0BB0BA8
:104B6000802DBF01FF2793585F4F2AF09E3F5105CC
:104B700068F08DC0D7C05F3FECF3983EDCF38695BC
:104B800077956795B795F7959F5FC9F7880F911D42
:104B90009695879597F90895E1E0660F771F881F2E
:104BA000BB1F621773078407BA0720F0621B730BE1
:104BB000840BBA0BEE1F88F7E095089598D088F023
:104BC0009F5790F0B92F9927B751A0F0D1F0660FF9
:104BD000771F881F991F1AF0BA95C9F712C0B13014
:104BE00081F09FD0B1E008959CC0672F782F88276F
:104BF000B85F39F0B93FCCF3869577956795B39553
:104C0000D9F73EF490958095709561957F4F8F4FC1
:104C10009F4F0895E89409C097FB3EF490958095C6
:104C2000709561957F4F8F4F9F4F9923A9F0F92F72
:104C300096E9BB279395F695879577956795B795F0
:104C4000F111F8CFFAF4BB0F11F460FF1BC06F5FD6
:104C50007F4F8F4F9F4F16C0882311F096E911C0E8
:104C6000772321F09EE8872F762F05C0662371F009
:104C700096E8862F70E060E02AF09A95660F771F1D
:104C8000881FDAF7880F9695879597F9089597F911
:104C90009F6780E870E060E008959FEF80EC0895E2
:104CA00000240A941616170618060906089500240B
:104CB0000A9412161306140605060895092E039485
:104CC000000C11F4882352F0BB0F40F4BF2B11F4F9
:104CD00060FF04C06F5F7F4F8F4F9F4F089557FD58
:104CE0009058440F551F59F05F3F71F04795880F5A
:104CF00097FB991F61F09F3F79F0879508951216F1
:104D000013061406551FF2CF4695F1DF08C016169C
:104D100017061806991FF1CF86957105610508944D
:104D20000895E894BB2766277727CB0197F9089564
:104D300066D008F48FEF08950BD0C0CFB1DF28F014
:104D4000B6DF18F0952309F0A2CFA7CF1124EACF40
:104D5000C6DFA0F3959FD1F3950F50E0551F629FDA
:104D6000F001729FBB27F00DB11D639FAA27F00DC4
:104D7000B11DAA1F649F6627B00DA11D661F829FEB
:104D80002227B00DA11D621F739FB00DA11D621FD0
:104D9000839FA00D611D221F749F3327A00D611DED
:104DA000231F849F600D211D822F762F6A2F1124CF
:104DB0009F5750408AF0E1F088234AF0EE0FFF1F22
:104DC000BB1F661F771F881F91505040A9F79E3F59
:104DD000510570F05CCFA6CF5F3FECF3983EDCF35B
:104DE000869577956795B795F795E7959F5FC1F796
:104DF000FE2B880F911D9695879597F90895990F29
:104E00000008550FAA0BE0E8FEEF16161706E80794
:104E1000F907C0F012161306E407F50798F0621BB5
:104E2000730B840B950B39F40A2661F0232B242B8A
:104E3000252B21F408950A2609F4A140A6958FEFA9
:104E4000811D811D0895283008F027E03327DA01FD
:104E5000990F311D87FD916000966105710539F448
:104E600032602E5F3D9330E32A95E1F708959F3F2E
:104E700030F080387105610509F03C5F3C5F3D937F
:104E8000913008F08068911DDF93CF931F930F93AB
:104E9000FF92EF92192F987F9695E92F9695969508
:104EA000E90FFF27E951FE4F99273327EE24FF240E
:104EB000A701E70105900894079428F4360FE71E30
:104EC000F81E491F511D660F771F881F991F0694F2
:104ED000A1F70590079428F4E70EF81E491F561F06
:104EE000C11D770F881F991F661F0694A1F70590B3
:104EF000079428F4F80E491F561FC71FD11D880FAD
:104F0000991F661F771F0694A1F70590079420F458
:104F1000490F561FC71FD81F990F661F771F881F7D
:104F20000694A9F784911095177041F0D695C7950E
:104F300057954795F794E7941A95C1F7EDE8F1E096
:104F400068941590159135916591959105907FE242
:104F50007395E118F10A430B560BC90BD009C0F742
:104F6000E10CF11E431F561FC91FD01D7EF4703384
:104F700011F48A95E6CFE894015030F0080F0AF456
:104F80000027021708F4202F2395022F7A3328F0E8
:104F900079E37D932A95E9F710C07D932A9589F6E8
:104FA000069497956795379517951794E118F10A28
:104FB000430B560BC90BD00998F023957E9173953E
:104FC0007A3308F070E37C932013B8F77E91706118
:104FD0007D9330F0839571E37D9370E32A95E1F73B
:104FE0001124EF90FF900F911F91CF91DF9199279E
:104FF00087FD9095089591118BC1803219F08950E9
:105000008550D0F708959111089581548A5108F47C
:10501000805E855A0895FC010590061621F0002057
:10502000D9F7C00108953197CF010895FC0105908B
:10503000615070400110D8F7809590958E0F9F1F9A
:105040000895FB01DC0101900D920020E1F7089525
:10505000FC016150704001900110D8F78095909547
:105060008E0F9F1F0895CF93DF93EC012B8120FFBC
:1050700033C026FF0AC02F7B2B838E819F81019630
:105080009F838E838A8190E029C022FF0FC0E88130
:10509000F9818081992787FD9095009719F4206206
:1050A0002B831AC03196F983E8830EC0EA85FB850D
:1050B000199597FF09C02B81019611F480E101C079
:1050C00080E2822B8B8308C02E813F812F5F3F4F70
:1050D0003F832E83992702C08FEF9FEFDF91CF91FF
:1050E00008950F931F93CF93DF93182F092FEB0190
:1050F0008B8181FD03C08FEF9FEF20C082FF10C026
:105100004E815F812C813D81421753077CF4E881F9
:10511000F9819F012F5F3F4F39832883108306C099
:10512000E885F985812F1995892B29F72E813F81F3
:105130002F5F3F4F3F832E83812F902FDF91CF91A1
:105140001F910F910895CF93DF93CDB7DEB7FE0186
:10515000369661917191AF018091DE059091DF05E6
:105160000E943A1ADF91CF9108950F931F93CF9326
:10517000DF93E091DE05F091DF05238121FF1BC065
:10518000EC0100E010E089916091DE057091DF058F
:10519000DB011896ED91FC911997882331F0199550
:1051A000892B89F30FEF1FEFEECF8AE01995892B3A
:1051B00011F4C80102C08FEF9FEFDF91CF911F91D3
:1051C0000F9108950F931F93CF93DF93CDB7DEB761
:1051D0002E970FB6F894DEBF0FBECDBF0E891F8984
:1051E00086E08C831A8309838FEF9FE79E838D83EC
:1051F000AE01465E5F4F688D798DCE0101960E94AB
:105200003A1AEF81F885E00FF11F10822E960FB643
:10521000F894DEBF0FBECDBFDF91CF911F910F91EC
:105220000895FB01238120FF12C026FD10C08F3F8F
:105230003FEF930761F082832F7D206423832681D3
:1052400037812150310937832683992708958FEFBD
:105250009FEF0895FA01AA27283051F1203181F1FA
:10526000E8946F936E7F6E5F7F4F8F4F9F4FAF4F6E
:10527000B1E03ED0B4E03CD0670F781F891F9A1F81
:10528000A11D680F791F8A1F911DA11D6A0F711D35
:10529000811D911DA11D20D009F468943F912AE041
:1052A000269F11243019305D3193DEF6CF01089529
:1052B000462F4770405D4193B3E00FD0C9F7F6CF5A
:1052C000462F4F70405D4A3318F0495D31FD405222
:1052D000419302D0A9F7EACFB4E0A69597958795B8
:1052E00077956795BA95C9F7009761057105089597
:1052F0009B01AC010A2E0694579547953795279543
:10530000BA95C9F7620F731F841F951FA01D0895DA
:0A531000992788270895F894FFCF2D
:10531A000000000300000000C104D104000001667F
:10532A004100000000280050007800A000C800F0EA
:10533A00001801400168019001B801E001E001E0B4
:10534A00010000280050007800A000C800F00018F2
:10535A000140018E03AF3BC6C0DA3D436C654F2066
:10536A0056657273696F6E203D2025640A00436C8E
:10537A00654F204944203D2025640A00436C654F4F
:10538A00204E6F6F702829204563686F203D2025C5
:10539A00640A00436C654F2072303D307825780AE4
:1053AA0000436C654F2072313D307825780A0043FE
:1053BA006C654F2053796E6365640044696F646558
:1053CA00204C617365722043757272656E74204356
:1053DA006F6E74726F6C6C65720044657669636592
:1053EA00204944203A20414D4F3100256C752C2527
:1053FA00322E32662C25302E35662C256C750053DC
:10540A0074617274696E67205570202E2E2E2000EA
:10541A0040466F6E74732F4453454737436C61732C
:10542A007369634D696E692D426F6C644974616C6E
:10543A0069632E6674666F6E740048617264776180
:10544A007265204944203A20302E312E32004669B6
:10545A00726D77617265204944203A20302E302ED1
:10546A0032002564002C0025302E3266562C202569
:10547A006C756D41004D61782043757272656E746A
:10548A00204661756C740044696F6465204E6F74C0
:10549A0020436F6E6E6563746564007541005265E2
:0454AA0061647900C0
:00000001FF
