:100000000C9497010C94B8010C9401090C9401090B
:100010000C9443090C94B8010C9401090C94B80198
:100020000C94B8010C944D090C94B8010C94B801CF
:100030000C94B8010C94B8010C94B8010C94B8015C
:100040000C94B8010C94B8010C94B8010C94B8014C
:100050000C94B8010C94B8010C94B8010C94B8013C
:100060000C94B8010C941D050C94B8010C94B801C3
:100070000C94B8010C94B8010C94B8010C94B8011C
:100080000C94B8010C94B8010C94B8010C94B8010C
:100090000C94B8010C94B8010C94B8010C94B801FC
:1000A0000C94B8010C94B8010C94B8010C94B801EC
:1000B0000C94B8010C94B8010C94B8010C94B801DC
:1000C0000C94B8010C94B8010C94B8010C94B801CC
:1000D0000C94B8010C94B8010C94B8010C94B801BC
:1000E0000C94B8017D2493245124A924C824042508
:1000F00065242325672407634236B79BD8A71A399E
:10010000685618AEBAAB558C1D3CB7CC5763BD6D65
:10011000EDFD753EF6177231BF000000803F08000C
:100120000000BE922449123EABAAAA2ABECDCCCC76
:100130004C3E00000080BEABAAAAAA3E0000000010
:10014000BF000000803F0000000000084178D3BBE2
:100150004387D1133D190E3CC3BD4282AD2B3E688F
:10016000EC8276BED98FE1A93E4C80EFFFBE01C480
:10017000FF7F3F00000000000C94A9240C9404258C
:100180000C9493240C94D5040C94E5040C94C8248A
:100190000C9467240C9451240C947D240C942325F6
:1001A0000C9465246E616E00696E660000407A10E2
:1001B000F35A00A0724E18090010A5D4E80000E818
:1001C0007648170000E40B54020000CA9A3B000076
:1001D00000E1F505000080969800000040420F0005
:1001E0000000A08601000000102700000000E803C6
:1001F000000000006400000000000A000000000091
:100200000100000000002C76D888DC674F0823DF4F
:10021000C1DFAE59E1B1B796E5E3E453C63AE65122
:10022000997696E8E6C28426EB898C9B62ED407C49
:100230006FFCEFBC9C9F40F2BAA56FA5F490055AE5
:100240002AF75C936B6CF9676DC11BFCE0E40D470A
:10025000FEF520E6B500D0ED902E0300943577052D
:100260000080841E080000204E0A000000C80C33E5
:100270003333330F986E12831141EF8D2114893B74
:10028000E65516CFFEE6DB18D1844B381BF77C1DF4
:10029000901DA4BBE424203284725E228100C9F147
:1002A00024ECA1E53D274E414E494E495459494E53
:1002B00046CDCCCC3D0AD7233C17B7D13877CC2BD1
:1002C000329595E6241FB14F0A000020410000C876
:1002D0004200401C4620BCBE4CCA1B0E5AAEC59DF7
:1002E000746364696E6F70737578585B6566674593
:1002F000464700616E006E66696E69747900CDCC08
:10030000CC3D0AD7233C17B7D13877CC2B32959503
:10031000E6241FB14F0A000020410000C8420040FF
:100320001C4620BCBE4CCA1B0E5AAEC59D7411247F
:100330001FBECFEFD1E2DEBFCDBF00E00CBF14E0A7
:10034000A0E0B2E0E0EFF0E800E00BBF02C00790F1
:100350000D92A83EB107D9F728E0A8EEB4E001C09D
:100360001D92AB3CB207E1F70E9454370C947640E3
:100370000C940000279A08952F9A08952F980895B5
:100380001F9A08950097D9F020E030E02F9A4FE7A8
:100390005AE166E0415050406040E1F700C0000083
:1003A0002F984FE75AE166E0415050406040E1F736
:1003B00000C000002F5F3F4F2817390739F7089515
:1003C000813009F43FC0823009F008958091010125
:1003D000806880930101809102018F7780930201F0
:1003E0002FEF81EE94E0215080409040E1F700C073
:1003F00000008091010188608093010180910201D9
:1004000088608093020180910101806180930101E5
:1004100080910201806180930201809101018062DC
:10042000809301018091020180628093020180919A
:100430000101806480930101809102018F7B809390
:1004400002010895809A889A6F9A779A839A8B9A74
:10045000819A899A82988A986E98769808958130C0
:1004600009F0089577989AE09A95F1F7779A8A9526
:10047000F1F70895813071F0823009F0089580918C
:1004800002018F7E8093020180910201877F809319
:10049000020108958B9888980895813099F08230F0
:1004A00009F0089580910201886080930201809193
:1004B0000201806180930201809102018062809339
:1004C00002010895889A8B9A899A0895962F9078B8
:1004D000813009F4BCC0823009F008958091020196
:1004E000911110C18F7D8093020181E0982F9A9520
:1004F000F1F7909102019061909302018A95F1F7D2
:10050000809102018F7E8093020166FF31C180914C
:10051000020180628093020181E0982F9A95F1F7A1
:10052000909102019061909302018A95F1F7809178
:1005300002018F7E8093020165FF14C18091020148
:1005400080628093020181E0982F9A95F1F7909153
:1005500002019061909302018A95F1F78091020166
:100560008F7E8093020164FFF7C080910201806258
:100570008093020181E0982F9A95F1F79091020102
:100580009061909302018A95F1F7809102018F7E2C
:100590008093020163FFDAC0809102018062809340
:1005A000020181E0982F9A95F1F7909102019061F4
:1005B000909302018A95F1F7809102018F7E8093DA
:1005C000020162FFBDC0809102018062809302013E
:1005D00081E0982F9A95F1F79091020190619093A4
:1005E00002018A95F1F7809102018F7E80930201CA
:1005F00061FFA0C08091020180628093020181E0CE
:10060000982F9A95F1F790910201906190930201D1
:100610008A95F1F7809102018F7E8093020160FF3D
:1006200083C08091020180628093020181E0982F53
:100630009A95F1F7909102019061909302018A9549
:10064000F1F7809102018F7E80930201089591114C
:1006500057C0899881E0982F9A95F1F78B9A8A95DF
:10066000F1F78B9866FF54C0899A81E0982F9A958C
:10067000F1F78B9A8A95F1F78B9865FF47C0899AB5
:1006800081E0982F9A95F1F78B9A8A95F1F78B98DC
:1006900064FF46C0899A81E0982F9A95F1F78B9A6A
:1006A0008A95F1F78B9863FF39C0899A81E0982F7A
:1006B0009A95F1F78B9A8A95F1F78B9862FF2CC087
:1006C000899A81E0982F9A95F1F78B9A8A95F1F79C
:1006D0008B9861FF1FC0899A81E0982F9A95F1F756
:1006E0008B9A8A95F1F78B9860FF1CC0899A81E0FC
:1006F000982F9A95F1F78B9A8A95F1F78B98089530
:10070000899AA8CF806280930201EFCE8998B8CFF2
:100710008998ABCF8998E0CF8998D3CF8998C6CFF5
:100720008998B9CF8998E3CF809102018F7D80931A
:1007300002017CCF809102018F7D809302015FCF07
:10074000809102018F7D8093020142CF809102014E
:100750008F7D8093020125CF809102018F7D809350
:10076000020108CF809102018F7D80930201EBCEC0
:10077000809102018F7D80930201CECE813011F0F5
:1007800080E00895982F9A95F1F78B9A2FB1982FC2
:100790009A95F1F78B9822FB222720F9220F982FA8
:1007A0009A95F1F78B9A9FB1382F3A95F1F78B987C
:1007B00092FB992790F9292B220F982F9A95F1F700
:1007C0008B9A9FB1382F3A95F1F78B9892FB992726
:1007D00090F9292B220F982F9A95F1F78B9A9FB1B8
:1007E000382F3A95F1F78B9892FB992790F9292B9E
:1007F000220F982F9A95F1F78B9A9FB1382F3A953F
:10080000F1F78B9892FB992790F9292B220F982FBB
:100810009A95F1F78B9A9FB1382F3A95F1F78B980B
:1008200092FB992790F9292B220F982F9A95F1F78F
:100830008B9A9FB1382F3A95F1F78B9892FB9927B5
:1008400090F9292B982F9A95F1F78B9A9FB18A9559
:10085000F1F78B98822F880F92FB992790F9892BBB
:100860000895813011F080E0089567FF93C0899A60
:1008700091E0892F8A95F1F78B9A8FB19A95F1F7CC
:100880008B9882FB882780F9880F66FF81C0899A40
:1008900021E0922F9A95F1F78B9A9FB12A95F1F763
:1008A0008B9892FB992790F9892B880F65FF6EC072
:1008B000899A21E0922F9A95F1F78B9A9FB12A9508
:1008C000F1F78B9892FB992790F9892B880F64FF99
:1008D0005BC0899A21E0922F9A95F1F78B9A9FB18C
:1008E0002A95F1F78B9892FB992790F9892B880F1D
:1008F00063FF48C0899A21E0922F9A95F1F78B9A6D
:100900009FB12A95F1F78B9892FB992790F9892B43
:10091000880F62FF35C0899A21E0922F9A95F1F7EE
:100920008B9A9FB12A95F1F78B9892FB992790F9B2
:10093000892B880F61FF22C0899A21E0922F9A9516
:10094000F1F78B9A9FB12A95F1F78B9892FB992733
:1009500090F9892B880F60FF0FC0899A21E0922FB0
:100960009A95F1F78B9A9FB12A95F1F78B9892FBA4
:10097000992790F9892B08958998F0CF8998DDCF30
:100980008998CACF8998B7CF8998A4CF899891CFF1
:1009900089987ECF89986CCF813011F080E00895DE
:1009A0008CB186FB882780F90895CF93C82F8A30B1
:1009B00041F09091C00095FFFCCFC093C600CF914D
:1009C00008958DE00E94D504F4CF8091EA04882335
:1009D000E1F3E091EB04F091EC04E151FB4F8081F5
:1009E0009091EA0491509093EA042091EB043091A5
:1009F000EC042F5F3F4F3093EC042093EB042091E5
:100A0000EB043091EC042F3F310509F0089510926A
:100A1000EC041092EB0408951092C50089E18093D4
:100A2000C400E0ECF0E080818D7F808386E08093DD
:100A3000C20088E18093C10008951F920F920FB603
:100A40000F9211240BB60F922F938F939F93EF93D6
:100A5000FF932091C6008091EA048F3FA1F1E091BD
:100A6000ED04F091EE04E151FB4F20838091EA0404
:100A70008F5F8093EA048091ED049091EE040196DB
:100A80009093EE048093ED048091ED049091EE0438
:100A90008F3F910501F18091E8049091E904892B41
:100AA00031F08091C00085FFFCCF2093C600FF91FC
:100AB000EF919F918F912F910F900BBE0F900FBED2
:100AC0000F901F9018958091C00085FFFCCF80E4A7
:100AD0008093C600ECCF1092EE041092ED04DBCFB1
:100AE0008091EA048823F1F0E091EB04F091EC04AA
:100AF000E151FB4F80819091EA0491509093EA0478
:100B00002091EB043091EC042F5F3F4F3093EC04C5
:100B10002093EB042091EB043091EC042F3F31053E
:100B200019F0089580E008951092EC041092EB04FF
:100B30000895E1ECF0E080818F7780831092C5000A
:100B400089E18093C400A0ECB0E08C918D7F8C9300
:100B500086E08093C20088E180831092E9041092BD
:100B6000E804A3ECB8E080E092E011969C938E93A9
:100B700013969C938E9312971092EE041092ED04AC
:100B80001092EC041092EB041092EA0480818068C9
:100B9000808308959093E9048093E8040895109267
:100BA000E9041092E8040895FC0160830895EF922F
:100BB000FF921F93CF93DF931F92CDB7DEB77C01D7
:100BC000162FFC01808179830E943A026981F70126
:100BD00080810E946602612FF70180810E94660277
:100BE000F70180810F90DF91CF911F91FF90EF90DF
:100BF0000C944D02FC0180810C94E001FC016083A7
:100C00000895CF92DF92EF92FF920F93CF93DF93ED
:100C1000EC016A017B0188810E943A02602F6370B7
:100C200088810E94660299278F2D7E2D6D2D8881E7
:100C30000E9466026C2D88810E9466028881DF9185
:100C4000CF910F91FF90EF90DF90CF900C944D02D9
:100C5000FC0180810C94E001FC0160830895CF9237
:100C6000DF92EF92FF92CF93DF93EC016A017B0159
:100C700088810E943A026C2D88810E946602B70129
:100C80008827992788810E94660299278F2D7E2DBB
:100C90006D2D88810E9466028881DF91CF91FF903F
:100CA000EF90DF90CF900C944D02FC0180810C946A
:100CB000E001FC01608308950F931F93CF93DF93AE
:100CC000EC018B0188810E943A02B8010024660F72
:100CD000771F001C660F771F001C672F702D6F7326
:100CE00088810E946602602F660F660F88810E94CD
:100CF00066028881DF91CF911F910F910C944D0274
:100D0000FC0180810C94E0010F931F93CF93DF933C
:100D10008C01EB010E94113DFE0101900020E9F7DA
:100D2000CF018C1B9D0B800F911FDF91CF911F91E5
:100D30000F910895FC01608308950F931F93CF9343
:100D4000DF93EC0188810E943A0288810E94BE03F1
:100D500088810E94BE03082F88810E94BE03182F3D
:100D600088810E944D02812F90E0902BDF91CF91DE
:100D70001F910F910895FC0180810C94E0010F9365
:100D80001F93CF93DF938EE090E00E943D40EC01F3
:100D900086E090E00E943D40AC01CE01A0E0B0E0D2
:100DA000DC019927882760E070E08C019D01042B0D
:100DB000152B262B372BC901B801613F19E47107A8
:100DC00012E08107910508F0AAC00E943A3920E09C
:100DD00030E04AE754E40E9492386093A30870938D
:100DE000A4088093A5089093A6088CE090E00E9448
:100DF0003D40EC0184E090E00E943D40AC01CE011A
:100E0000A0E0B0E0DC019927882760E070E08C0169
:100E10009D01042B152B262B372BC901B801613FEF
:100E200019E4710712E08107910508F082C00E9461
:100E30003A3920E030E04AE754E40E949238609367
:100E4000A7087093A8088093A9089093AA088AE03D
:100E500090E00E943D40EC0182E090E00E943D4025
:100E6000AC01CE01A0E0B0E0DC019927882760E06A
:100E700070E08C019D01042B152B262B372BC9010B
:100E8000B801613F19E4710712E08107910508F08C
:100E90004BC00E943A3920E030E04AE754E40E9417
:100EA00092386093AB087093AC088093AD08909330
:100EB000AE0888E090E00E943D40EC0180E090E0C8
:100EC0000E943D40AC01CE01A0E0B0E0DC019927DA
:100ED000882760E070E08C019D01042B152B262BE8
:100EE000372BC901B801613F19E4710712E081078E
:100EF000910520F50E943A3920E030E04AE754E4B9
:100F00000E9492386093AF087093B0088093B10844
:100F10009093B208DF91CF911F910F91089560E0F7
:100F200070E086E193E459CF60E070E086E193E4FD
:100F3000B8CF60E070E086E193E481CF60E070E0DC
:100F400086E193E4DFCFCF92DF92EF92FF92CF93CF
:100F5000DF93C3EAD8E020E030E04AE754E4688158
:100F600079818A819B810E94F1390E940B396B0142
:100F70007C01B701882799278EE090E00E944340CA
:100F8000B60186E090E00E94434020E030E04AE76E
:100F900054E46C817D818E819F810E94F1390E9491
:100FA0000B396B017C01B701882799278CE090E011
:100FB0000E944340B60184E090E00E94434020E05C
:100FC00030E04AE754E4688579858A859B850E94EC
:100FD000F1390E940B396B017C01BC0188279927EC
:100FE0008AE090E00E944340B60182E090E00E94D7
:100FF000434020E030E04AE754E46C857D858E85EF
:101000009F850E94F1390E940B396B017C01BC0164
:101010008827992788E090E00E944340B60180E04D
:1010200090E0DF91CF91FF90EF90DF90CF900C9404
:1010300043408091B3088823B9F180919E088130A4
:1010400009F441C081E080939E08809127028823A3
:10105000D1F11092A3081092A4081092A508109242
:10106000A6081092A7081092A8081092A90810923A
:10107000AA081092AB081092AC081092AD0810921A
:10108000AE081092AF081092B0081092B1081092FA
:10109000B20810929F081092A0081092A108109216
:1010A000A20810922702089580919E08882359F083
:1010B00080939D0810929E0880912702811103C0A1
:1010C00081E08093270208958F929F92AF92BF9202
:1010D000CF92DF92EF92FF921F93CF93DF93109105
:1010E00027021123C9F180919E08811135C08FE933
:1010F000C82E88E0D82ECCE8D8E093EAE92E98E014
:10110000F92EF60181916F018823B9F120E030E0DA
:101110004AE754E4F70160817181828193810E94E2
:10112000F1390E940B3988809980AA80BB806815AC
:1011300079058A059B0521F0688379838A839B83DF
:101140002496F4E0EF0EF11C88E0CC39D807C9F6FC
:1011500080919C08811115C080912602181310936C
:101160002602DF91CF911F91FF90EF90DF90CF90FB
:10117000BF90AF909F908F90089560E070E0CB019A
:10118000D2CF815080939C08E7CFEFE9F8E010823E
:1011900011821282138281E080932702089552986F
:1011A0005A9AE9E6F0E080818F7D808380818061BA
:1011B0008083EA9A5198599A8081877F80838081C1
:1011C00084608083E99A53985B9A808180688083E9
:1011D00080818F7B8083EB9A26982E9AA8E6B0E0D8
:1011E0008C9181608C93EBE6F0E080818064808359
:1011F00025982D9A8C9181608C9380818062808368
:1012000008951F920F920FB60F9211240BB60F92F2
:101210002F933F934F935F936F938F939F93EF938E
:10122000FF934091BB08440F440F4093BB0859B152
:1012300069B161FB882780F990E0842B52FB22275B
:1012400020F930E0220F331F822B932B8093BB08B1
:101250008F70E82FF0E0E85DFD4F9091C00880812D
:10126000890F8093C008FF91EF919F918F916F91AB
:101270005F914F913F912F910F900BBE0F900FBE3A
:101280000F901F9018951F920F920FB60F92112476
:101290000F900FBE0F901F9018951F920F920FB6D0
:1012A0000F9211248F939F9383B186FB882780F937
:1012B00090910F02992311F08823C1F080930F02BF
:1012C00083B185FB882780F990910E02992329F03C
:1012D000811103C091E09093BE0880930E029F910C
:1012E0008F910F900FBE0F901F90189591E09093E3
:1012F000BF08E4CF8F929F92AF92BF92CF92DF92BE
:10130000EF92FF920F931F93CF93DF93CDB7DEB78A
:1013100062970FB6F894DEBF0FBECDBF80E290E0BB
:101320009A8B898BBE016F5E7F4F80EC97E00E94A5
:10133000043D9A8389837E0183E0E80EF11C01E07D
:1013400010E0BE016F5E7F4F80E090E00E94043DA0
:10135000F701819391937F01892B09F45CC00F5FA2
:101360001F4F0830110569F7E980FA8062E672E0E4
:10137000C7010E94083D892BA1F45F9A62960FB6BF
:10138000F894DEBF0FBECDBFDF91CF911F910F91BB
:10139000FF90EF90DF90CF90BF90AF909F908F9095
:1013A00008956BE872E0C7010E94083D892B29F37C
:1013B00063E672E0C7010E94083D892BF1F26CE8F8
:1013C00072E0C7010E94083D892BB9F260E473E026
:1013D000C7010E94083D892B09F416C16DEF72E028
:1013E000C7010E94083D892B09F461C164E473E0E0
:1013F000C7010E94083D892B09F45EC167E573E0CF
:10140000C7010E94083D892B09F43BC18CE793E09A
:101410000E94DC3DB2CFE980FA8062E672E0C7014B
:101420000E94083D892B89F16BE872E0C7010E9498
:10143000083D892B09F086C00230110509F09DCFC7
:101440008B819C810E94E73B01978430910508F0D5
:1014500094CF880F991F880F991FFC01ED55F74F06
:1014600083818F9382818F9381818F9380818F93EA
:1014700084E892E09F938F930E94C83D0F900F9055
:101480000F900F900F900F9078CF0330110509F057
:1014900074CF5F988FE19EE40197F1F700C00000E0
:1014A0008B819C810E94E73B8C018D819E810E94F3
:1014B000E33BF62EE72ED82EC92E80901E02909088
:1014C0001F02A0902002B09021029401A5010E9469
:1014D000EC39181624F4F82CE92CDA2CCB2C20E06B
:1014E00030E0A9016F2D7E2D8D2D9C2D0E948D3811
:1014F00087FDC2C09801215031092430310508F020
:10150000AFC0220F331F220F331FF901ED55F74FE4
:101510008F2D9E2DAD2DBC2D80839183A283B3830F
:10152000CF92DF92EF92FF921F930F9389E692E0A2
:101530009F938F930E94C83D0FB6F894DEBF0FBEF5
:10154000CDBF1BCF63E672E0C7010E94083D892B27
:1015500041F16CE872E0C7010E94083D892B09F057
:1015600035CF0230110509F008CF8B819C810E9494
:10157000E73B9C01215031092430310508F0FDCEB4
:10158000FC01E256F74F80811F928F9383E593E031
:101590009F938F930E94C83D0F900F900F900F90D4
:1015A000ECCE0330110509F0E8CE5F988FE19EE4A0
:1015B0000197F1F700C000008B819C810E94E73BFE
:1015C0008C018D819E810E94E73B98012150310959
:1015D0002430310508F0D1CE009709F47AC0019784
:1015E00009F0CBCEF801E256F74F81E080831F93DC
:1015F0000F938EEA92E09F938F930E94C83D0F90C5
:101600000F900F900F90B9CE0130110509F0B5CEB3
:1016100089E492E00E94DC3D84E492E09F938F9302
:1016200089EC92E09F938F930E94C83D8EE392E0F5
:101630009F938F9389ED92E09F938F930E94C83D73
:1016400088E392E09F938F938BEE92E09F938F932A
:101650000E94C83D0FB6F894DEBF0FBECDBF8DCE41
:10166000220F331F220F331FF901ED55F74FF08082
:10167000E180D280C38054CFF12CE12CD12CC12C3D
:1016800039CF9091B30881E098279093B308909157
:10169000270289271F928F9387E693E09F938F936A
:1016A0000E94C83D0F900F900F900F9066CE82E081
:1016B00093E00E94DC3D61CE1F921F928AE493E08A
:1016C0009F938F930E94C83D0F900F900F900F90A3
:1016D00054CEF801E256F74F10821F930F9382E920
:1016E00092E09F938F930E94C83D0F900F900F90B0
:1016F0000F9043CE0E947005882309F44FC08D30AF
:10170000F1F08A30E1F0E091B608F091B708E436E4
:10171000F1055CF0EA5DF74F129298E0E632F907C6
:10172000D9F710922508E0E0F0E0DF01AB5DB74F9C
:101730008C933196F093B708E093B608DBCF4091D5
:10174000B6085091B70814161506A4F6A0ECB7E039
:10175000E5E2F8E09A012B5D374F80818D9311927D
:10176000E217F307D1F78091B4089091B5084817B4
:1017700059074CF4FA01E054F84F8054984F1192F5
:10178000E817F907E1F75093B5084093B4081092B1
:10179000B7081092B6080E947A09ACCF089581E08C
:1017A0000E943A0262E081E00E94660260E081E00D
:1017B0000E94660281E00E94CC048823D9F362E093
:1017C00081E00E94660260E081E00E94660281E0A2
:1017D0000E944D0281E00E943A0281E00E94CC0406
:1017E0008823D9F36FEF81E00E9431048093EE05E6
:1017F0006FEF81E00E9431048093EF0581E00E9449
:101800004D0281E00E94CC048130D9F38091EF0534
:101810008F938091EE058F9386EB93E09F938F9348
:101820000E94C83D81E00E943A0262E081E00E948D
:10183000660260E081E00E9466020F900F900F90B8
:101840000F9081E00E94CC048823D9F363E081E00B
:101850000E94660260E081E00E94660281E00E94D0
:101860004D0281E00E943A0281E00E94CC0488236C
:10187000D9F36FEF81E00E9431048093EE056FEFA2
:1018800081E00E9431048093EF0581E00E944D02C7
:1018900081E00E94CC048130D9F38091EF058F93D1
:1018A0008091EE058F9389EC93E09F938F930E9434
:1018B000C83D81E00E943A0262E081E00E94660237
:1018C00060E081E00E9466020F900F900F900F90F1
:1018D00081E00E94CC048823D9F360E081E00E947B
:1018E000660260E081E00E94660281E00E944D0293
:1018F00081E00E943A0281E00E94CC048823D9F35F
:101900006FEF81E00E9431048093EE056FEF81E07C
:101910000E9431048093EF0581E00E944D0281E036
:101920000E94CC048130D9F381E00E943A0262E047
:1019300081E00E94660260E081E00E94660281E030
:101940000E94CC048823D9F361E081E00E94660202
:1019500060E081E00E94660281E00E944D0281E029
:101960000E943A0281E00E94CC048823D9F36FEFF1
:1019700081E00E9431048093EE056FEF81E00E94C8
:1019800031048093EF0581E00E944D0281E00E94C6
:10199000CC048130D9F38091EF058F938091EE05CF
:1019A0008F9387ED93E09F938F930E94C83D0F9094
:1019B0000F900F900F9008956F927F928F929F9249
:1019C000AF92BF92CF92DF92EF92FF920F931F934D
:1019D000CF93DF93CDB7DEB76A970FB6F894DEBF2B
:1019E0000FBECDBF989AA09A2FEF83ED90E32150C0
:1019F00080409040E1F700C00000A098EFEFF3EDC9
:101A000020E3E150F0402040E1F700C0000081E019
:101A10000E94E00181E00E943A0281E00E94CC0431
:101A20008823D9F36FEF81E00E9431048093EE05A3
:101A30006FEF81E00E9431048093EF0581E00E9406
:101A40004D0281E00E94CC048130D9F38091EE05F3
:101A50009091EF058231944309F07DC081E00E94AE
:101A60003A0262E081E00E94660260E081E00E944A
:101A7000660281E00E94CC048823D9F360E081E013
:101A80000E94660260E081E00E94660281E00E949E
:101A90004D0281E00E943A0281E00E94CC0488233A
:101AA000D9F36FEF81E00E9431048093EE056FEF70
:101AB00081E00E9431048093EF0581E00E944D0295
:101AC00081E00E94CC048130D9F30091EE051091A1
:101AD000EF0581E00E943A0262E081E00E94660226
:101AE00060E081E00E94660281E00E94CC048823CD
:101AF000D9F361E081E00E94660260E081E00E942B
:101B0000660281E00E944D0281E00E943A0281E07B
:101B10000E94CC048823D9F36FEF81E00E94310446
:101B20008093EE056FEF81E00E9431048093EF0512
:101B300081E00E944D0281E00E94CC048130D9F303
:101B40008091EE059091EF05012B09F087CF8F373B
:101B50009D4109F083CF80E094E09A83898384E6F5
:101B600090E09C838B8381E00E943A0264E081E0F4
:101B70000E94660260E081E00E946602CE0101964A
:101B80003C017C0101E010E00DC0F701608181E0C3
:101B90000E9466020430110599F00F5F1F4FFFEF9E
:101BA000EF1AFF0A0130110581F781E00E94CC0491
:101BB0008823D9F3F701608181E00E946602EDCFAE
:101BC00081E00E944D0281E00E943A0281E00E9481
:101BD000CC048823D9F36FEF81E00E943104809315
:101BE000EE056FEF81E00E9431048093EF0581E004
:101BF0000E944D0281E00E94CC048130D9F381E043
:101C00000E943A0262E081E00E94660260E081E0A8
:101C10000E94660281E00E94CC048823D9F360E828
:101C200081E00E94660261E081E00E94660281E03C
:101C30000E944D0281E00E943A0281E00E94CC04A1
:101C40008823D9F36FEF81E00E9431048093EE0581
:101C50006FEF81E00E9431048093EF0581E00E94E4
:101C60004D0281E00E94CC048130D9F385E591E0FA
:101C70009A83898384E090E09C838B8381E00E9437
:101C80003A0264E081E00E94660260E081E00E9426
:101C90006602730101E010E00DC0F701608181E090
:101CA0000E9466020430110599F00F5F1F4FFFEF8D
:101CB000EF1AFF0A0130110581F781E00E94CC0480
:101CC0008823D9F3F701608181E00E946602EDCF9D
:101CD00081E00E944D0281E00E943A0281E00E9470
:101CE000CC048823D9F36FEF81E00E943104809304
:101CF000EE056FEF81E00E9431048093EF0581E0F3
:101D00000E944D0281E00E94CC048130D9F380E72B
:101D100091E09A8389838BEE93ED9C838B8389EE8C
:101D200090E09E838D8381E00E943A0266E081E02C
:101D30000E94660260E081E00E946602730101E099
:101D400010E00DC0F701608181E00E94660206305C
:101D5000110599F00F5F1F4FFFEFEF1AFF0A0130D7
:101D6000110581F781E00E94CC048823D9F3F701A3
:101D7000608181E00E946602EDCF81E00E944D0209
:101D800081E00E943A0281E00E94CC048823D9F3CA
:101D90006FEF81E00E9431048093EE056FEF81E0E8
:101DA0000E9431048093EF0581E00E944D0281E0A2
:101DB0000E94CC048130D9F389E1E5E6F4E0D30157
:101DC00001900D928A95E1F7E090BC07F090BD0775
:101DD0000091BE071091BF077F926F92812C912CCA
:101DE000A12CB12C94E0C92ED12C2EE130E040EF93
:101DF00050E06EE070E08EEE95E00E941D3684E4C7
:101E000092E09F938F938EEE93E09F938F937F92B8
:101E10006F920E940C3EE090BC07F090BD070091CD
:101E2000BE071091BF077F926F9223E0C22ED12C84
:101E300024E630E04AE050E067E070E08EEE95E0A6
:101E40000E941D368EE392E09F938F9382E094E090
:101E50009F938F937F926F920E940C3EE090BC07FD
:101E6000F090BD070091BE071091BF077F926F925F
:101E700028E730E04AE050E067E070E08EEE95E061
:101E80000E941D3688E392E09F938F9386E194E051
:101E90009F938F937F926F920E940C3EE090BC07BD
:101EA000F090BD070091BE071091BF077F926F921F
:101EB0002CE830E04AE050E067E070E08EEE95E01C
:101EC0000E941D3681E1EAE2F4E0D30101900D9217
:101ED0008A95E1F7E090BC07F090BD070091BE073E
:101EE0001091BF077F926F922CED30E04AE050E0F6
:101EF00068E070E08EEE95E00E941D3681E00E9461
:101F00003A0262E081E00E94660260E081E00E94A5
:101F100066020FB6F894DEBF0FBECDBF81E00E940F
:101F2000CC048823D9F361E881E00E94660261E075
:101F300081E00E94660281E00E944D0281E00E94E1
:101F40003A0281E00E94CC048823D9F36FEF81E04C
:101F50000E9431048093EE056FEF81E00E9431040E
:101F60008093EF0581E00E944D0281E00E94CC0445
:101F70008130D9F381E094E09E8B8D8B82E090E0FC
:101F8000988F8F8B1A8E198E81E00E943A0266E03C
:101F900081E00E94660260E081E00E9466028E019C
:101FA0000B5E1F4F66246394712C0EC0F801608194
:101FB00081E00E946602F6E06F167104A1F09FEFC7
:101FC000691A790A0F5F1F4FE1E06E16710471F70D
:101FD00081E00E94CC048823D9F3F801608181E07C
:101FE0000E946602ECCF81E00E944D0281E00E94D7
:101FF0003A0281E00E94CC048823D9F36FEF81E09C
:102000000E9431048093EE056FEF81E00E9431045D
:102010008093EF0581E00E944D0281E00E94CC0494
:102020008130D9F36BE374E08EEE95E00E94D136F7
:102030006A960FB6F894DEBF0FBECDBFDF91CF9189
:102040001F910F91FF90EF90DF90CF90BF90AF90D6
:102050009F908F907F906F9008952F923F924F9214
:102060005F926F927F928F929F92AF92BF92CF9228
:10207000DF92EF92FF920F931F93CF93DF93CDB731
:10208000DEB7CE54D1400FB6F894DEBF0FBECDBF41
:1020900081E00E943A0262E081E00E94660260E014
:1020A00081E00E94660281E00E94CC048823D9F37B
:1020B00060E881E00E94660261E081E00E946602C1
:1020C00081E00E944D0281E00E943A0281E00E947C
:1020D000CC048823D9F36FEF81E00E943104809310
:1020E000EE056FEF81E00E9431048093EF0581E0FF
:1020F0000E944D0281E00E94CC048130D9F385E535
:1021000091E09A83898384E090E09C838B8381E0D3
:102110000E943A0264E081E00E94660260E081E091
:102120000E9466028E010F5F1F4F6801EE24E39448
:10213000F12C0FC0F601608181E00E946602F4E09C
:10214000EF16F104A9F02FEFE21AF20A3FEFC31ADB
:10215000D30A81E0E816F10469F781E00E94CC041B
:102160008823D9F3F601608181E00E946602EBCFFB
:1021700081E00E944D0281E00E943A0281E00E94CB
:10218000CC048823D9F36FEF81E00E94310480935F
:10219000EE056FEF81E00E9431048093EF0581E04E
:1021A0000E944D0281E00E94CC048130D9F380E787
:1021B00091E09A8389831C821B821E821D8281E0AA
:1021C0000E943A0266E081E00E94660260E081E0DF
:1021D0000E9466026801EE24E394F12C0FC0F60120
:1021E000608181E00E946602F6E0EF16F104A9F03A
:1021F0002FEFE21AF20A3FEFC31AD30A81E0E81682
:10220000F10469F781E00E94CC048823D9F3F60138
:10221000608181E00E946602EBCF81E00E944D0266
:1022200081E00E943A0281E00E94CC048823D9F325
:102230006FEF81E00E9431048093EE056FEF81E043
:102240000E9431048093EF0581E00E944D0281E0FD
:102250000E94CC048130D9F380E093E09A83898393
:1022600081E090E09C838B830E943A0264E081E0ED
:102270000E94660260E081E00E9466026801EE242E
:10228000E394F12C0FC0F601608181E00E946602A8
:10229000F4E0EF16F104A9F02FEFE21AF20A3FEF93
:1022A000C31AD30A81E0E816F10469F781E00E94BD
:1022B000CC048823D9F3F601608181E00E94660294
:1022C000EBCF81E00E944D0281E00E943A0281E062
:1022D0000E94CC048823D9F36FEF81E00E9431047F
:1022E0008093EE056FEF81E00E9431048093EF054B
:1022F00081E00E944D0281E00E94CC048130D9F33C
:102300008091B20781110C94B2208FEF90E02FEFF3
:102310003FEF42E551E05A8349833C832B839E8300
:102320008D8381E00E943A0266E081E00E946602AD
:1023300060E081E00E9466026801EE24E394F12CE3
:102340000FC0F601608181E00E946602F6E0EF16A0
:10235000F104A9F02FEFE21AF20A3FEFC31AD30AF1
:1023600081E0E816F10469F781E00E94CC0488233B
:10237000D9F3F601608181E00E946602EBCF81E033
:102380000E944D0281E00E943A0281E00E94CC044A
:102390008823D9F36FEF81E00E9431048093EE052A
:1023A0006FEF81E00E9431048093EF0581E00E948D
:1023B0004D0281E00E94CC048130D9F380E591E0A8
:1023C0009A83898380E797E09C838B8388E797E0F3
:1023D0009E838D8388EF94E098878F839A8789877F
:1023E00081E00E943A026AE081E00E94660260E0B9
:1023F00081E00E9466026801EE24E394F12C0FC094
:10240000F601608181E00E946602FAE0EF16F104B5
:10241000A9F02FEFE21AF20A3FEFC31AD30A81E0C4
:10242000E816F10469F781E00E94CC048823D9F30F
:10243000F601608181E00E946602EBCF81E00E949C
:102440004D0281E00E943A0281E00E94CC04882380
:10245000D9F36FEF81E00E9431048093EE056FEFB6
:1024600081E00E9431048093EF0581E00E944D02DB
:1024700081E00E94CC048130D9F3E091A407F0916F
:10248000A507EE0FFF1FE650F94F60817181072EFF
:10249000000C880B990B0E943C392FE632E143E88F
:1024A00050E40E94F13920E030E040E85BE30E9414
:1024B000F1399F938F937F936F9385E894E09F9377
:1024C0008F937E012DEEE21A2EEFF20AFF92EF9229
:1024D0000E940C3E8091BC079091BD07A091BE0761
:1024E000B091BF0721E031E03A8329832FE030E04B
:1024F0003C832B8320EC38E03E832D8320E837E0BB
:1025000038872F839A878987BC87AB8785E090E0DF
:102510009E878D87188A1F861A8A198AB701CE016D
:1025200043960E9484064C01801A910A81E00E9421
:102530003A02682D81E00E946602692D81E00E94C6
:1025400066020FB6F894DEBF0FBECDBF81149104B2
:1025500001F15801C12CD12C0CC0F50161915F0132
:1025600081E00E946602FFEFCF1ADF0A8C149D04FF
:1025700081F0C6018F739927892B79F781E00E943A
:10258000CC048111EACF81E00E94CC048823B1F30E
:10259000E4CF81E00E944D0281E00E943A0281E096
:1025A0000E94CC048823D9F36FEF81E00E943104AC
:1025B0008093EE056FEF81E00E9431048093EF0578
:1025C00081E00E944D0281E00E94CC048130D9F369
:1025D0008091BC079091BD07A091BE07B091BF0745
:1025E00021E031E03A8329832EE030E03C832B83E5
:1025F00020E139E03E832D8320EA37E038872F83BE
:102600009A878987BC87AB8784E090E09E878D8717
:10261000188A1F861A8A198A6BE874E0CE014396DD
:102620000E9484064C01801A910A81E00E943A02BD
:10263000682D81E00E946602692D81E00E94660299
:102640008114910401F15801C12CD12C0CC0F50169
:1026500061915F0181E00E946602FFEFCF1ADF0AFD
:102660008C149D0481F0C6018F739927892B79F70B
:1026700081E00E94CC048111EACF81E00E94CC0469
:102680008823B1F3E4CF81E00E944D0281E00E94F3
:102690003A0281E00E94CC048823D9F36FEF81E0F5
:1026A0000E9431048093EE056FEF81E00E943104B7
:1026B0008093EF0581E00E944D0281E00E94CC04EE
:1026C0008130D9F380E093E09A83898386E090E0BB
:1026D0009C838B8381E00E943A0264E081E00E9447
:1026E000660260E081E00E9466025801CC24C39437
:1026F000D12C0FC0F501608181E00E946602F4E0F8
:10270000CF16D104A9F02FEFC21AD20A3FEFA31AB5
:10271000B30A81E0C816D10469F781E00E94CC04B5
:102720008823D9F3F501608181E00E946602EBCF36
:1027300081E00E944D0281E00E943A0281E00E9405
:10274000CC048823D9F36FEF81E00E943104809399
:10275000EE056FEF81E00E9431048093EF0581E088
:102760000E944D0281E00E94CC048130D9F382E5C1
:1027700091E09A83898387E89FED9C838B8389E826
:1027800090E09E838D8381E00E943A0266E081E0C2
:102790000E94660260E081E00E9466025801CC243B
:1027A000C394D12C0FC0F501608181E00E946602C4
:1027B000F6E0CF16D104A9F02FEFC21AD20A3FEFEC
:1027C000A31AB30A81E0C816D10469F781E00E9418
:1027D000CC048823D9F3F501608181E00E94660270
:1027E000EBCF81E00E944D0281E00E943A0281E03D
:1027F0000E94CC048823D9F36FEF81E00E9431045A
:102800008093EE056FEF81E00E9431048093EF0525
:1028100081E00E944D0281E00E94CC048130D9F316
:1028200080E591E09A83898380E79CE09C838B8399
:1028300088E797E09E838D8388EF94E098878F8365
:102840009A87898781E00E943A026AE081E00E94CB
:10285000660260E081E00E9466025801CC24C394C5
:10286000D12C0FC0F501608181E00E946602FAE080
:10287000CF16D104A9F02FEFC21AD20A3FEFA31A44
:10288000B30A81E0C816D10469F781E00E94CC0444
:102890008823D9F3F501608181E00E946602EBCFC5
:1028A00081E00E944D0281E00E943A0281E00E9494
:1028B000CC048823D9F36FEF81E00E943104809328
:1028C000EE056FEF81E00E9431048093EF0581E017
:1028D0000E944D0281E00E94CC048130D9F38091A6
:1028E000A4079091A507FC01EE0FFF1FE80FF91F49
:1028F0008091A2079091A307E80FF91FEE0FFF1F29
:10290000EE5EF84F81818F9380818F9387EB94E007
:102910009F938F93FF92EF920E940C3E8091BC0791
:102920009091BD07A091BE07B091BF0721E031E0B3
:102930003A8329832FE030E03C832B8320E83CE07E
:102940003E832D8320E837E038872F839A87898755
:10295000BC87AB8784E090E09E878D87188A1F86AE
:102960001A8A198A6DE874E0CE0143960E948406A3
:102970004C01801A910A81E00E943A02682D81E0A0
:102980000E946602692D81E00E9466020F900F90FE
:102990000F900F900F900F908114910401F1580146
:1029A000C12CD12C0CC0F50161915F0181E00E9426
:1029B0006602FFEFCF1ADF0A8C149D0481F0C60176
:1029C0008F739927892B79F781E00E94CC048111BC
:1029D000EACF81E00E94CC048823B1F3E4CF81E008
:1029E0000E944D0281E00E943A0281E00E94CC04E4
:1029F0008823D9F36FEF81E00E9431048093EE05C4
:102A00006FEF81E00E9431048093EF0581E00E9426
:102A10004D0281E00E94CC048130D9F380E093E044
:102A20009A83898382E090E09C838B8381E00E947B
:102A30003A0264E081E00E94660260E081E00E9468
:102A400066025801CC24C394D12C0FC0F5016081DB
:102A500081E00E946602F4E0CF16D104A9F02FEFC6
:102A6000C21AD20A3FEFA31AB30A81E0C816D104F2
:102A700069F781E00E94CC048823D9F3F5016081D5
:102A800081E00E946602EBCF81E00E944D0281E06E
:102A90000E943A0281E00E94CC048823D9F36FEFB0
:102AA00081E00E9431048093EE056FEF81E00E9487
:102AB00031048093EF0581E00E944D0281E00E9485
:102AC000CC048130D9F38091B30781110C94AC20F0
:102AD0008FEF90E02FEF3FEF42E551E05A834983BB
:102AE0003C832B839E838D8381E00E943A0266E0C3
:102AF00081E00E94660260E081E00E946602580167
:102B0000CC24C394D12C0FC0F501608181E00E94D8
:102B10006602F6E0CF16D104A9F02FEFC21AD20A4E
:102B20003FEFA31AB30A81E0C816D10469F781E028
:102B30000E94CC048823D9F3F501608181E00E94D2
:102B40006602EBCF81E00E944D0281E00E943A02D2
:102B500081E00E94CC048823D9F36FEF81E00E94CA
:102B600031048093EE056FEF81E00E943104809381
:102B7000EF0581E00E944D0281E00E94CC0481308B
:102B8000D9F380E591E09A83898380E79CE09C8378
:102B90008B8388E391E09E838D8388EF94E0988710
:102BA0008F8388E792E09A87898781E00E943A02C2
:102BB0006AE081E00E94660260E081E00E946602B5
:102BC0005801CC24C394D12C0FC0F501608181E061
:102BD0000E946602FAE0CF16D104A9F02FEFC21AC4
:102BE000D20A3FEFA31AB30A81E0C816D10469F7ED
:102BF00081E00E94CC048823D9F3F501608181E053
:102C00000E946602EBCF81E00E944D0281E00E94AB
:102C10003A0281E00E94CC048823D9F36FEF81E06F
:102C20000E9431048093EE056FEF81E00E94310431
:102C30008093EF0581E00E944D0281E00E94CC0468
:102C40008130D9F3209016023090170237FCC6C0AD
:102C50004090100250901102609012027090130286
:102C60008091A4079091A5079C01220F331F820F2A
:102C7000931F880F991F9C01265A384FC75BDE4F60
:102C800039832883C954D14020E030E040E85FE335
:102C9000C12CD12CCB5BDE4F1882C554D140CA5B0E
:102CA000DE4F1882C654D140C95BDE4F1882C7542C
:102CB000D140C85BDE4F1882C854D140C75BDE4F9D
:102CC000E881F981C954D14061917191C75BDE4FB0
:102CD000F983E883C954D140072E000C880B990B67
:102CE000C55BDE4F2883CB54D140C45BDE4F3883B5
:102CF000CC54D140C35BDE4F4883CD54D140C25B3E
:102D0000DE4F5883CE54D1400E943C394B015C01C8
:102D1000C55BDE4F2881CB54D140C45BDE4F388188
:102D2000CC54D140C35BDE4F4881CD54D140C25B0F
:102D3000DE4F5881CE54D140C301B2010E94923877
:102D40009B01AC01C501B4010E94F1399B01AC01AA
:102D5000CB5BDE4FE881C554D140CA5BDE4FB88102
:102D6000C654D140C95BDE4FA881C754D140C85B6F
:102D7000DE4FF881C854D1406E2F7B2F8A2F9F2FB2
:102D80000E942138CB5BDE4F6883C554D140CA5BBB
:102D9000DE4F7883C654D140C95BDE4F8883C75469
:102DA000D140C85BDE4F9883C854D140FFEFCF1AA3
:102DB000DF0A2C143D0434F1B6010D2C000C880BF5
:102DC000990B0E943C399B01AC0160E070E080E00F
:102DD00090E40E945E3A9B01AC0170CFCB5BDE4F6A
:102DE0001882C554D140CA5BDE4F1882C654D14008
:102DF000C95BDE4F1882C754D140C85BDE4F1882D2
:102E0000C854D140C85BDE4F2881C854D1402F93AD
:102E1000C95BDE4F3881C754D1403F93CA5BDE4F58
:102E20008881C654D1408F93CB5BDE4F9881C554C7
:102E3000D1409F9382E994E09F938F93FF92EF920A
:102E40000E940C3E8091BC079091BD07A091BE07E7
:102E5000B091BF0721E031E03A8329832FE030E0D1
:102E60003C832B8328E53EE03E832D8320E431E044
:102E700038872F839A878987BC87AB8785E090E066
:102E80009E878D87188A1F861A8A198AB701CE01F4
:102E900043960E9484064C01801A910A81E00E94A8
:102EA0003A02682D81E00E946602692D81E00E944D
:102EB00066020FB6F894DEBF0FBECDBF8114910439
:102EC00001F15801C12CD12C0CC0F50161915F01B9
:102ED00081E00E946602FFEFCF1ADF0A8C149D0486
:102EE00081F0C6018F739927892B79F781E00E94C1
:102EF000CC048111EACF81E00E94CC048823B1F395
:102F0000E4CF81E00E944D0281E00E943A0281E01C
:102F10000E94CC048823D9F36FEF81E00E94310432
:102F20008093EE056FEF81E00E9431048093EF05FE
:102F300081E00E944D0281E00E94CC048130D9F3EF
:102F40008091BC079091BD07A091BE07B091BF07CB
:102F500021E031E03A8329832CE030E03C832B836D
:102F600028E83EE03E832D8320EA30E038872F8337
:102F70009A878987BC87AB8784E090E09E878D879E
:102F8000188A1F861A8A198A64EB74E0CE01439668
:102F90000E9484064C01801A910A81E00E943A0244
:102FA000682D81E00E946602692D81E00E94660220
:102FB0008114910401F15801C12CD12C0CC0F501F0
:102FC00061915F0181E00E946602FFEFCF1ADF0A84
:102FD0008C149D0481F0C6018F739927892B79F792
:102FE00081E00E94CC048111EACF81E00E94CC04F0
:102FF0008823B1F3E4CF81E00E944D0281E00E947A
:103000003A0281E00E94CC048823D9F36FEF81E07B
:103010000E9431048093EE056FEF81E00E9431043D
:103020008093EF0581E00E944D0281E00E94CC0474
:103030008130D9F380E093E09A83898385E090E042
:103040009C838B8381E00E943A0264E081E00E94CD
:10305000660260E081E00E9466025801CC24C394BD
:10306000D12C0FC0F501608181E00E946602F4E07E
:10307000CF16D104A9F02FEFC21AD20A3FEFA31A3C
:10308000B30A81E0C816D10469F781E00E94CC043C
:103090008823D9F3F501608181E00E946602EBCFBD
:1030A00081E00E944D0281E00E943A0281E00E948C
:1030B000CC048823D9F36FEF81E00E943104809320
:1030C000EE056FEF81E00E9431048093EF0581E00F
:1030D0000E944D0281E00E94CC048130D9F380919E
:1030E000B60781110C94A62089E890E027E83FED0F
:1030F00042E551E05A8349833C832B839E838D8331
:1031000081E00E943A0266E081E00E94660260E08F
:1031100081E00E9466025801CC24C394D12C0FC0D8
:10312000F501608181E00E946602F6E0CF16D104CD
:10313000A9F02FEFC21AD20A3FEFA31AB30A81E017
:10314000C816D10469F781E00E94CC048823D9F322
:10315000F501608181E00E946602EBCF81E00E9470
:103160004D0281E00E943A0281E00E94CC04882353
:10317000D9F36FEF81E00E9431048093EE056FEF89
:1031800081E00E9431048093EF0581E00E944D02AE
:1031900081E00E94CC048130D9F380E591E09A83EC
:1031A000898380E79CE09C838B8388EB93E09E83FC
:1031B0008D8388EF94E098878F8388E792E09A87E1
:1031C000898781E00E943A026AE081E00E946602FB
:1031D00060E081E00E9466025801CC24C394D12CA7
:1031E0000FC0F501608181E00E946602FAE0CF160F
:1031F000D104A9F02FEFC21AD20A3FEFA31AB30AE3
:1032000081E0C816D10469F781E00E94CC048823CC
:10321000D9F3F501608181E00E946602EBCF81E085
:103220000E944D0281E00E943A0281E00E94CC049B
:103230008823D9F36FEF81E00E9431048093EE057B
:103240006FEF81E00E9431048093EF0581E00E94DE
:103250004D0281E00E94CC048130D9F38091BC07FB
:103260009091BD07A091BE07B091BF0721E031E06A
:103270003A8329832DE030E03C832B8320E83CE037
:103280003E832D8320EC33E038872F839A8789870C
:10329000BC87AB8784E090E09E878D87188A1F8665
:1032A0001A8A198A67E974E0CE0143960E9484065F
:1032B0004C01801A910A81E00E943A02682D81E057
:1032C0000E946602692D81E00E94660281149104C9
:1032D00001F15801C12CD12C0CC0F50161915F01A5
:1032E00081E00E946602FFEFCF1ADF0A8C149D0472
:1032F00081F0C6018F739927892B79F781E00E94AD
:10330000CC048111EACF81E00E94CC048823B1F380
:10331000E4CF81E00E944D0281E00E943A0281E008
:103320000E94CC048823D9F36FEF81E00E9431041E
:103330008093EE056FEF81E00E9431048093EF05EA
:1033400081E00E944D0281E00E94CC048130D9F3DB
:1033500080E093E09A83898383E090E09C838B8371
:1033600081E00E943A0264E081E00E94660260E02F
:1033700081E00E9466025801CC24C394D12C0FC076
:10338000F501608181E00E946602F4E0CF16D1046D
:10339000A9F02FEFC21AD20A3FEFA31AB30A81E0B5
:1033A000C816D10469F781E00E94CC048823D9F3C0
:1033B000F501608181E00E946602EBCF81E00E940E
:1033C0004D0281E00E943A0281E00E94CC048823F1
:1033D000D9F36FEF81E00E9431048093EE056FEF27
:1033E00081E00E9431048093EF0581E00E944D024C
:1033F00081E00E94CC048130D9F38091B40781111F
:10340000A0C68FEF90E02FEF3FEF42E551E05A83E7
:1034100049833C832B839E838D8381E00E943A0203
:1034200066E081E00E94660260E081E00E94660240
:103430005801CC24C394D12C0FC0F501608181E0E8
:103440000E946602F6E0CF16D104A9F02FEFC21A4F
:10345000D20A3FEFA31AB30A81E0C816D10469F774
:1034600081E00E94CC048823D9F3F501608181E0DA
:103470000E946602EBCF81E00E944D0281E00E9433
:103480003A0281E00E94CC048823D9F36FEF81E0F7
:103490000E9431048093EE056FEF81E00E943104B9
:1034A0008093EF0581E00E944D0281E00E94CC04F0
:1034B0008130D9F380E591E09A83898380E797E0B2
:1034C0009C838B8388E391E09E838D8388EF94E0D7
:1034D00098878F8388E792E09A87898781E00E94A6
:1034E0003A026AE081E00E94660260E081E00E94A8
:1034F00066025801CC24C394D12C0FC0F501608121
:1035000081E00E946602FAE0CF16D104A9F02FEF05
:10351000C21AD20A3FEFA31AB30A81E0C816D10437
:1035200069F781E00E94CC048823D9F3F50160811A
:1035300081E00E946602EBCF81E00E944D0281E0B3
:103540000E943A0281E00E94CC048823D9F36FEFF5
:1035500081E00E9431048093EE056FEF81E00E94CC
:1035600031048093EF0581E00E944D0281E00E94CA
:10357000CC048130D9F38091A4079091A507FC0178
:10358000EE0FFF1FE80FF91F8091A2079091A3078C
:10359000E80FF91FEE0FFF1FE65AF84F81818F9356
:1035A00080818F9387EB94E09F938F93FF92EF92AC
:1035B0000E940C3E8091BC079091BD07A091BE0770
:1035C000B091BF0721E031E03A8329832FE030E05A
:1035D0003C832B8320EC37E03E832D8320E431E0D5
:1035E00038872F839A878987BC87AB8785E090E0EF
:1035F0009E878D87188A1F861A8A198AB701CE017D
:1036000043960E9484064C01801A910A81E00E9430
:103610003A02682D81E00E946602692D81E00E94D5
:1036200066020F900F900F900F900F900F908114E3
:10363000910401F15801C12CD12C0CC0F50161910C
:103640005F0181E00E946602FFEFCF1ADF0A8C144F
:103650009D0481F0C6018F739927892B79F781E04A
:103660000E94CC048111EACF81E00E94CC0488231F
:10367000B1F3E4CF81E00E944D0281E00E943A0262
:1036800081E00E94CC048823D9F36FEF81E00E948F
:1036900031048093EE056FEF81E00E943104809346
:1036A000EF0581E00E944D0281E00E94CC04813050
:1036B000D9F38091BC079091BD07A091BE07B0914E
:1036C000BF0721E031E03A8329832CE030E03C83DE
:1036D0002B8320EC38E03E832D8320E831E03887CF
:1036E0002F839A878987BC87AB8784E090E09E8789
:1036F0008D87188A1F861A8A198A61EA74E0CE01BA
:1037000043960E9484064C01801A910A81E00E942F
:103710003A02682D81E00E946602692D81E00E94D4
:1037200066028114910401F15801C12CD12C0CC006
:10373000F50161915F0181E00E946602FFEFCF1AFF
:10374000DF0A8C149D0481F0C6018F739927892BA1
:1037500079F781E00E94CC048111EACF81E00E94D8
:10376000CC048823B1F3E4CF81E00E944D0281E0D4
:103770000E943A0281E00E94CC048823D9F36FEFC3
:1037800081E00E9431048093EE056FEF81E00E949A
:1037900031048093EF0581E00E944D0281E00E9498
:1037A000CC048130D9F380E093E09A83898388E068
:1037B00090E09C838B8381E00E943A0264E081E088
:1037C0000E94660260E081E00E9466025801CC24FB
:1037D000C394D12C0FC0F501608181E00E94660284
:1037E000F4E0CF16D104A9F02FEFC21AD20A3FEFAE
:1037F000A31AB30A81E0C816D10469F781E00E94D8
:10380000CC048823D9F3F501608181E00E9466022F
:10381000EBCF81E00E944D0281E00E943A0281E0FC
:103820000E94CC048823D9F36FEF81E00E94310419
:103830008093EE056FEF81E00E9431048093EF05E5
:1038400081E00E944D0281E00E94CC048130D9F3D6
:103850008091B907811170C48FEF90E02FEF3FEF97
:1038600042E551E05A8349833C832B839E838D83B9
:1038700081E00E943A0266E081E00E94660260E018
:1038800081E00E9466025801CC24C394D12C0FC061
:10389000F501608181E00E946602F6E0CF16D10456
:1038A000A9F02FEFC21AD20A3FEFA31AB30A81E0A0
:1038B000C816D10469F781E00E94CC048823D9F3AB
:1038C000F501608181E00E946602EBCF81E00E94F9
:1038D0004D0281E00E943A0281E00E94CC048823DC
:1038E000D9F36FEF81E00E9431048093EE056FEF12
:1038F00081E00E9431048093EF0581E00E944D0237
:1039000081E00E94CC048130D9F380E591E09A8374
:10391000898380E797E09C838B8388EB93E09E8389
:103920008D8388EF94E098878F8388E792E09A8769
:10393000898781E00E943A026AE081E00E94660283
:1039400060E081E00E9466025801CC24C394D12C2F
:103950000FC0F501608181E00E946602FAE0CF1697
:10396000D104A9F02FEFC21AD20A3FEFA31AB30A6B
:1039700081E0C816D10469F781E00E94CC04882355
:10398000D9F3F501608181E00E946602EBCF81E00E
:103990000E944D0281E00E943A0281E00E94CC0424
:1039A0008823D9F36FEF81E00E9431048093EE0504
:1039B0006FEF81E00E9431048093EF0581E00E9467
:1039C0004D0281E00E94CC048130D9F36091A207BE
:1039D0007091A307072E000C880B990B0E943C39AD
:1039E0009B01AC0160E070E080E090E40E945E3AF0
:1039F0009F938F937F936F9387EA94E09F938F9326
:103A0000FF92EF920E940C3E8091BC079091BD07FF
:103A1000A091BE07B091BF0721E031E03A8329832E
:103A200020E130E03C832B8320E837E03E832D8388
:103A300020EC33E038872F839A878987BC87AB8750
:103A400084E090E09E878D87188A1F861A8A198ADB
:103A5000B701CE0143960E9484064C01801A910A58
:103A600081E00E943A02682D81E00E946602692D81
:103A700081E00E9466020FB6F894DEBF0FBECDBF94
:103A80008114910401F15801C12CD12C0CC0F50115
:103A900061915F0181E00E946602FFEFCF1ADF0AA9
:103AA0008C149D0481F0C6018F739927892B79F7B7
:103AB00081E00E94CC048111EACF81E00E94CC0415
:103AC0008823B1F3E4CF81E00E944D0281E00E949F
:103AD0003A0281E00E94CC048823D9F36FEF81E0A1
:103AE0000E9431048093EE056FEF81E00E94310463
:103AF0008093EF0581E00E944D0281E00E94CC049A
:103B00008130D9F36091A2077091A307072E000CB2
:103B1000880B990B0E943C399B01AC0160E070E07E
:103B200080E090E40E945E3A9B01AC01609110023B
:103B30007091110280911202909113020E949238AA
:103B40009F938F937F936F938EEA94E09F938F93CD
:103B5000FF92EF920E940C3E8091BC079091BD07AE
:103B6000A091BE07B091BF0721E031E03A832983DD
:103B70002BE030E03C832B8328E839E03E832D8323
:103B800020EB34E038872F839A878987BC87AB87FF
:103B900085E090E09E878D87188A1F861A8A198A89
:103BA000B701CE0143960E9484064C01801A910A07
:103BB00081E00E943A02682D81E00E946602692D30
:103BC00081E00E9466020FB6F894DEBF0FBECDBF43
:103BD0008114910401F15801C12CD12C0CC0F501C4
:103BE00061915F0181E00E946602FFEFCF1ADF0A58
:103BF0008C149D0481F0C6018F739927892B79F766
:103C000081E00E94CC048111EACF81E00E94CC04C3
:103C10008823B1F3E4CF81E00E944D0281E00E944D
:103C20003A0281E00E94CC048823D9F36FEF81E04F
:103C30000E9431048093EE056FEF81E00E94310411
:103C40008093EF0581E00E944D0281E00E94CC0448
:103C50008130D9F38091BC079091BD07A091BE0738
:103C6000B091BF0721E031E03A8329832AE030E0B8
:103C70003C832B8328E839E03E832D8320E734E022
:103C800038872F839A878987BC87AB8783E090E04A
:103C90009E878D87188A1F861A8A198A63EB74E0BB
:103CA000CE0143960E9484064C01801A910A81E05D
:103CB0000E943A02682D81E00E946602692D81E02F
:103CC0000E9466028114910401F15801C12CD12C8B
:103CD0000CC0F50161915F0181E00E946602FFEF77
:103CE000CF1ADF0A8C149D0481F0C6018F739927C7
:103CF000892B79F781E00E94CC048111EACF81E021
:103D00000E94CC048823B1F3E4CF81E00E944D02ED
:103D100081E00E943A0281E00E94CC048823D9F31A
:103D20006FEF81E00E9431048093EE056FEF81E038
:103D30000E9431048093EF0581E00E944D0281E0F2
:103D40000E94CC048130D9F380E093E09A83898388
:103D500089E090E09C838B8381E00E943A0264E0DA
:103D600081E00E94660260E081E00E9466025801E4
:103D7000CC24C394D12C0FC0F501608181E00E9456
:103D80006602F4E0CF16D104A9F02FEFC21AD20ACE
:103D90003FEFA31AB30A81E0C816D10469F781E0A6
:103DA0000E94CC048823D9F3F501608181E00E9450
:103DB0006602EBCF81E00E944D0281E00E943A0250
:103DC00081E00E94CC048823D9F36FEF81E00E9448
:103DD00031048093EE056FEF81E00E9431048093FF
:103DE000EF0581E00E944D0281E00E94CC04813009
:103DF000D9F38091BA0781119AC18FEF90E02FEF2C
:103E00003FEF42E551E05A8349833C832B839E83F5
:103E10008D8381E00E943A0266E081E00E946602A2
:103E200060E081E00E9466025801CC24C394D12C4A
:103E30000FC0F501608181E00E946602F6E0CF16B6
:103E4000D104A9F02FEFC21AD20A3FEFA31AB30A86
:103E500081E0C816D10469F781E00E94CC04882370
:103E6000D9F3F501608181E00E946602EBCF81E029
:103E70000E944D0281E00E943A0281E00E94CC043F
:103E80008823D9F36FEF81E00E9431048093EE051F
:103E90006FEF81E00E9431048093EF0581E00E9482
:103EA0004D0281E00E94CC048130D9F380E591E09D
:103EB0009A83898380E792E09C838B8388E792E0F2
:103EC0009E838D8388EF94E098878F839A87898774
:103ED00081E00E943A026AE081E00E94660260E0AE
:103EE00081E00E9466025801CC24C394D12C0FC0FB
:103EF000F501608181E00E946602FAE0CF16D104EC
:103F0000A9F02FEFC21AD20A3FEFA31AB30A81E039
:103F1000C816D10469F781E00E94CC048823D9F344
:103F2000F501608181E00E946602EBCF81E00E9492
:103F30004D0281E00E943A0281E00E94CC04882375
:103F4000D9F36FEF81E00E9431048093EE056FEFAB
:103F500081E00E9431048093EF0581E00E944D02D0
:103F600081E00E94CC048130D9F38091A407909124
:103F7000A50701969F938F9386EB94E09F938F9371
:103F8000FF92EF920E940C3E8091BC079091BD077A
:103F9000A091BE07B091BF0721E031E03A832983A9
:103FA00020E130E03C832B8320E832E03E832D8308
:103FB00038872F839A878987BC87AB8784E090E016
:103FC0009E878D87188A1F861A8A198AB701CE01A3
:103FD00043960E9484064C01801A910A81E00E9457
:103FE0003A02682D81E00E946602692D81E00E94FC
:103FF00066020F900F900F900F900F900F9081140A
:10400000910401F15801C12CD12C0CC0F501619132
:104010005F0181E00E946602FFEFCF1ADF0A8C1475
:104020009D0481F0C6018F739927892B79F781E070
:104030000E94CC048111EACF81E00E94CC04882345
:10404000B1F3E4CF81E00E944D0281E00E943A0288
:1040500081E00E94CC048823D9F36FEF81E00E94B5
:1040600031048093EE056FEF81E00E94310480936C
:10407000EF0581E00E944D0281E00E94CC04813076
:10408000D9F380919E08882309F472C081E00E94D0
:104090003A0262E081E00E94660260E081E00E94F4
:1040A000660281E00E94CC048823D9F361E881E0B4
:1040B0000E94660261E081E00E94660281E00E9447
:1040C0004D0281E00E943A0281E00E94CC048823E4
:1040D000D9F36FEF81E00E9431048093EE056FEF1A
:1040E00081E00E9431048093EF0581E00E944D023F
:1040F00081E00E94CC048130D9F3C25BDE4F0FB661
:10410000F894DEBF0FBECDBFDF91CF911F910F910D
:10411000FF90EF90DF90CF90BF90AF909F908F90E7
:104120007F906F905F904F903F902F9008958DEA11
:1041300090E026EE38ED65CE8DEA90E026EE38ED83
:104140008FCB8DEA90E026EE38ED5FC98DEA90E0E6
:1041500026EE38ED0C9478188DEA90E026EE38EDD6
:104160000C946C158DEA90E026EE38ED0C948911D4
:1041700080E093E09A83898384E090E09C838B8342
:1041800081E00E943A0264E081E00E94660260E001
:1041900081E00E9466025801CC24C394D12C0FC048
:1041A000F501608181E00E946602F4E0CF16D1043F
:1041B000A9F02FEFC21AD20A3FEFA31AB30A81E087
:1041C000C816D10469F781E00E94CC048823D9F392
:1041D000F501608181E00E946602EBCF81E00E94E0
:1041E0004D0281E00E943A0281E00E94CC048823C3
:1041F000D9F36FEF81E00E9431048093EE056FEFF9
:1042000081E00E9431048093EF0581E00E944D021D
:1042100081E00E94CC048130D9F3E091A407F091B1
:10422000A507E251F94F8081811143C18FEF90E0E2
:1042300026E636E642E551E05A8349833C832B83E8
:104240009E838D8381E00E943A0266E081E00E94B5
:10425000660260E081E00E9466025801CC24C394AB
:10426000D12C0FC0F501608181E00E946602F6E06A
:10427000CF16D104A9F02FEFC21AD20A3FEFA31A2A
:10428000B30A81E0C816D10469F781E00E94CC042A
:104290008823D9F3F501608181E00E946602EBCFAB
:1042A00081E00E944D0281E00E943A0281E00E947A
:1042B000CC048823D9F36FEF81E00E94310480930E
:1042C000EE056FEF81E00E9431048093EF0581E0FD
:1042D0000E944D0281E00E94CC048130D9F380E538
:1042E00091E09A83898380E792E09C838B8388E7BF
:1042F00097E09E838D8388EF94E098878F839A87D9
:10430000898781E00E943A026AE081E00E946602A9
:1043100060E081E00E9466025801CC24C394D12C55
:104320000FC0F501608181E00E946602FAE0CF16BD
:10433000D104A9F02FEFC21AD20A3FEFA31AB30A91
:1043400081E0C816D10469F781E00E94CC0488237B
:10435000D9F3F501608181E00E946602EBCF81E034
:104360000E944D0281E00E943A0281E00E94CC044A
:104370008823D9F36FEF81E00E9431048093EE052A
:104380006FEF81E00E9431048093EF0581E00E948D
:104390004D0281E00E94CC048130D9F380919C08C9
:1043A00081118FC0E091A407F091A507E251F94F68
:1043B0008081811183C061E874E0C7010E94113DD2
:1043C0008091BC079091BD07A091BE07B091BF0737
:1043D00021E031E03A8329832FE030E03C832B83D6
:1043E00020E832E03E832D8320E837E038872F83B2
:1043F0009A878987BC87AB8784E090E09E878D870A
:10440000188A1F861A8A198AB701CE0143960E941C
:1044100084066C01C01AD10A81E00E943A026C2D18
:1044200081E00E9466026D2D81E00E946602C11447
:10443000D104F9F0E12CF12C0CC0F80161918F014D
:1044400081E00E946602FFEFEF1AFF0ACE14DF043C
:1044500081F097012F733327232B79F781E00E9496
:10446000CC048111EACF81E00E94CC048823B1F30F
:10447000E4CF81E00E944D0281E00E943A0281E097
:104480000E94CC048823D9F36FEF81E00E943104AD
:104490008093EE056FEF81E00E9431048093EF0579
:1044A00081E00E944D0281E00E94CC048130D9F36A
:1044B000EDCD89E890E027E83FEDBCCE6EE774E0F3
:1044C0007CCF86E0EAEBF4E0D70101900D928A956B
:1044D000E1F776CF0F931F93CF93DF9381E00E9494
:1044E0003A0262E081E00E94660260E081E00E94A0
:1044F000660281E00E94CC048823D9F362E081E067
:104500000E94660263E081E00E94660281E00E94F0
:104510004D0281E00E943A020EEE15E0C1E0D0E0CB
:104520000CC06FEF81E00E943104F8018083CA3033
:10453000D10591F021960F5F1F4FC130D10589F74A
:1045400081E00E94CC048823D9F36FEF81E00E94C0
:104550003104F8018083EECF81E00E944D0281E0BA
:104560000E94CC048130D9F38091F10590E0982F1E
:1045700088272091F005822B9093B0078093AF0796
:104580008091F30590E0982F88272091F205822BE7
:104590009093AE078093AD078091F50590E0982F3A
:1045A00088272091F405822B9093AC078093AB076A
:1045B0002091F70530E0322F22274091F605242B79
:1045C0003093A8072093A7078130910559F01092E6
:1045D000A6079093AA078093A907DF91CF911F9117
:1045E0000F9108952091A9073091AA07232B79F7FD
:1045F0002091A6072111EBCF21E02093A607E9CF58
:104600002091AB073091AC072130310519F0FC0146
:10461000108208952091A9073091AA07232BB9F79A
:10462000FC0120812111F3CF21E020830895CF9355
:10463000DF93582FEB0110988FE99FE00197F1F776
:1046400000C00000109A2091A4073091A50748B13E
:10465000407FABEABAEA0E941138969587959C0193
:10466000220F331F280F391F0E9411389695879506
:1046700021E030E002C0220F331F8A95E2F7209537
:104680003095242B28B9E091A407F091A5079F014C
:104690000E941138969587959C01220F331F820F37
:1046A000931F9F01281B390B2130310509F43DC0B0
:1046B0002230310599F12CE03DE08EE002C0CC0FB4
:1046C000DD1F8A95E2F7852F90E002C0880F991FC1
:1046D0003A95E2F78C2B9D2BAC0143645860E25174
:1046E000F94F9081892F90E08095909502C0880FB6
:1046F000991F2A95E2F7842B952B20E130E008C022
:10470000139A119A129A969587952150310951F072
:104710001198129880FDF4CF1398F3CF23E034E082
:1047200085E0CCCFDF91CF91089527E038E089E094
:10473000C5CFEF92FF920F931F93CF934091A407A1
:104740005091A5079A01ABEABAEA0E9411389695F2
:1047500087959C01220F331F820F931F9A01281BFC
:10476000390B2130310509F48CC02230310509F4B0
:1047700078C084E0609116027091170277FD6BC0DB
:10478000C1E001C0CC0F8A95EAF7E12CF12C9A0127
:10479000220F331FC901840F951F8E0D9F1D880F97
:1047A000991FFC01E65AF84FA081B181FC01EE5E31
:1047B000F84F808191818D01081B190B101611068D
:1047C0000CF051C0B70181E00E941723A80117FD2A
:1047D00054C041155105B9F020E030E08091050149
:1047E0008C23809305018FE19EE40197F1F700C0CF
:1047F0000000809105018C2B809305012F5F3F4FB6
:104800002417350759F74091A4075091A5079A013D
:10481000220F331FF901E40FF51FEE0DFF1DEE0F00
:10482000FF1FE65AF84FA081B18160911602709186
:104830001702F901E40FF51FEE0DFF1DEE0FFF1F2C
:10484000EE5EF84FB183A0839FEFE91AF90A6E1567
:104850007F050CF09FCFCF911F910F91FF90EF90AC
:10486000089586E087CF0115110519F3B70180E09F
:104870000E941723A80117FFACCF5195419551090C
:10488000A8CF85E077CFE091A707F091A8073197EF
:10489000E930F105D0F48827EE58FF4F8F4F0C9484
:1048A00009385F988FE39FE10197F1F700C000009E
:1048B0009091B40781E08927E1EBF7E0119297E04E
:1048C000EC3BF907D9F78093B4075F9A08955F9896
:1048D0008FE39FE10197F1F700C000009091BA07C4
:1048E00081E08927E1EBF7E0119297E0EC3BF907D3
:1048F000D9F78093BA075F9A08955F988FE39FE195
:104900000197F1F700C000009091B20781E089277C
:10491000E1EBF7E0119297E0EC3BF907D9F78093D0
:10492000B2075F9A08955F988FE39FE10197F1F7CF
:1049300000C000009091B30781E08927E1EBF7E028
:10494000119297E0EC3BF907D9F78093B3075F9A90
:1049500008955F988FE39FE10197F1F700C0000091
:10496000E091A407F091A507E251F94F908181E011
:104970008927808360E070E080E00E941723E1EBEC
:10498000F7E0119297E0EC3BF907D9F75F9A0895A9
:104990005F988FE39FE10197F1F700C0000010924C
:1049A000B1071092B2071092B3071092B407109299
:1049B000B5071092B7071092B8071092B907109276
:1049C000BA071092BB07209116023091170237FDEB
:1049D0007CCFE091A407F091A507CF01880F991F24
:1049E000E80FF91FEE0FFF1FDF01AE5EB84FE65A6A
:1049F000F84F80E090E01D921D9211921192019665
:104A000028173907C4F761CF5F988FE39FE10197BB
:104A1000F1F700C000001092B1071092B207109297
:104A2000B3071092B4071092B5071092B607109210
:104A3000B8071092B9071092BA071092BB070E94EC
:104A400099235F9A08955F988FE39FE10197F1F7AB
:104A500000C000009091B90781E08927E1EBF7E001
:104A6000119297E0EC3BF907D9F78093B9075F9A69
:104A700008958091270281110C94432408950E9487
:104A80006A228091A607882321F080912702811154
:104A900001C008950C9443240E942D100C943F25CE
:104AA000E091A407F091A5079F01ABEABAEA0E9442
:104AB0001138AC0156954795CA01880F991F480FC8
:104AC000591FCF01841B950BAC01281B390B0E9489
:104AD00011389695879541305105C9F142305105FD
:104AE00089F120E030E098B141E050E001C0440F8E
:104AF0008A95EAF78FEE841B892388B9E091A40791
:104B0000F091A507EE0FFF1FE650F94F80E090E00F
:104B100090818C60822B932B092E000CAA0BBB0B6F
:104B2000149828E130E009C0169A159AB695A79511
:104B3000979587952150310941F0159880FDF4CF64
:104B40001698F3CF20E230E0CECF149A089520E4F7
:104B500030E0C9CF2F923F924F925F926F927F9237
:104B60008F929F92AF92BF92CF92DF92EF92FF927D
:104B70000F931F93CF93DF9300D01F92CDB7DEB773
:104B800013B103B180912702882309F462C0E1EBDD
:104B9000F7E01C821B828191811109C02B813C812D
:104BA0002F5F3F4F3C832B832A303105A1F716FB43
:104BB000112710F98091BF08811162C08091BE0851
:104BC00005FB002700F98111C4C08091BD0888232E
:104BD00089F080918B08873008F005C18F5F809342
:104BE0008B08873009F4FFC0002321F01092BD0824
:104BF00010928B088091BC08882389F080918A08E4
:104C0000873008F03AC18F5F80938A08873009F4B3
:104C100034C1112321F01092BC0810928A088091AF
:104C2000BA081091C008811751F02091B80830914E
:104C3000B9084B815C814217530709F478C110927F
:104C4000BA081092C0082B813C813093B908209398
:104C5000B8080F900F900F900F90DF91CF911F9198
:104C60000F91FF90EF90DF90CF90BF90AF909F900B
:104C70008F907F906F905F904F903F902F9008950E
:104C80008091BE088823D9F04B815C814130510569
:104C90000CF43CC1443051052CF0CA01089702972E
:104CA00008F034C11092BD0810928B081092BC0815
:104CB00010928A081092BF081092BE08CACF809145
:104CC000BD0881111BC191E09093BC0811111BC15B
:104CD000EB81FC81E330F10509F4D1C20CF48EC5FF
:104CE0002B813C812830310509F411C6293031056A
:104CF00061F55F988FE19EE40197F1F700C0000035
:104D0000E090A407F090A50791E0E91AF108B70137
:104D100080E090E00E943A394B015C0180911802DA
:104D200090911902BC0180E090E00E943A399B0109
:104D3000AC01C501B4010E94EC39181614F4E12C41
:104D4000F12CF092A507E092A4075F9A8091BE082B
:104D5000DAC09091BC08911187C091E09093BD0892
:104D6000011188C02B813C812330310509F41EC21A
:104D70000CF488C54B815C814830510509F403C6A9
:104D80004930510561F55F988FE19EE40197F1F795
:104D900000C00000E090A407F090A5079FEFE91A7B
:104DA000F90AB70180E090E00E943A394B015C01BA
:104DB0008091180290911902BC0180E090E00E945D
:104DC0003A399B01AC01C501B4010E94EC391816B7
:104DD00014F4E12CF12CF092A507E092A4075F9A5D
:104DE0008091BD0847C02B813C812330310509F4F7
:104DF00042C30CF4ADC24B815C814830510509F4CB
:104E000063C14930510561F55F988FE19EE40197D8
:104E1000F1F700C00000E090A407F090A50792E031
:104E2000E90EF11CB70180E090E00E943A394B0195
:104E30005C018091180290911902BC0180E090E021
:104E40000E943A399B01AC01C501B4010E94EC39C2
:104E5000181614F4E12CF12CF092A507E092A407A7
:104E60005F9A10928B08C0CE1092BC0810928A08EC
:104E70008091BD081092BE08AACE2B813C812330C0
:104E8000310509F461C30CF4A8C24B815C81483040
:104E9000510509F452C14930510561F55F988FE120
:104EA0009EE40197F1F700C00000E090A407F090A5
:104EB000A50792E0E91AF108B70180E090E00E94AE
:104EC0003A394B015C018091180290911902BC01A2
:104ED00080E090E00E943A399B01AC01C501B40129
:104EE0000E94EC39181614F4E12CF12CF092A5076D
:104EF000E092A4075F9A10928A088BCE1092BD08A8
:104F000010928B0880E01092BF085ACE84E0809304
:104F10009C085F985FEF8DEE92E05150804090408A
:104F2000E1F700C000005F9A0E94A307BBCE181BE8
:104F30008B819C818330910509F4D1C30CF460C04E
:104F4000EB81FC81E830F10509F475C3399709F06C
:104F50004FC087E61802812D11248595859517FD90
:104F60008395182F81115CC56091A4077091A507E6
:104F700080E090E00E943A396B017C01612F012EA4
:104F8000000C770B880B990B0E943C3920E030E035
:104F900048E453E40E9492389B01AC01C701B6017A
:104FA0000E9421384B015C01E0901802F090190238
:104FB000B70180E090E00E943A399B01AC01C50145
:104FC000B4010E94EC3918160CF41BC520E030E047
:104FD000A901C501B4010E948D3887FD05C0C50136
:104FE000B4010E940B397B01F092A507E092A4075F
:104FF000112321F01092BA081092C0085F9A23CEB4
:105000000197B1F787E61802812D112485958595C2
:1050100017FD8395182F81110BC5E090A407F09020
:10502000A507EE0CFF1CF701E650F94F6081718176
:10503000072E000C880B990B0E943C394B015C0138
:10504000612F012E000C770B880B990B0E943C39C5
:1050500020E030E048E453E40E9492389B01AC0128
:10506000C501B4010E942138B62EC72ED82E092FB3
:1050700070901E0280901F0290902002A09021024A
:10508000272D382D492D5A2D0E94EC3918161CF465
:10509000B72C64010A2D20E030E0A9016B2D7C2D96
:1050A0008D2D902F0E948D3887FDDAC46B2D7C2DBD
:1050B0008D2D902F0E940439F701E650F94F71832E
:1050C00060830E94502594CF5F98EFE1FEE4319712
:1050D000F1F700C00000E090A207F090A307FFEFF7
:1050E000EF1AFF0AB7010F2C000C880B990B0E94D6
:1050F0003C394B015C01C0901602D0901702B601FA
:105100000D2C000C880B990B0E943C399B01AC01C3
:10511000C501B4010E94EC3918160CF46CC420E0EF
:1051200030E0A901C501B4010E948D3887FF6701F5
:10513000D092A307C092A20793CE5F98EFE1FEE45E
:105140003197F1F700C00000E090A207F090A307AC
:10515000F1E0EF1AF108B7010F2C000C880B990B46
:105160000E943C394B015C01C0901602D09017029E
:10517000B6010D2C000C880B990B0E943C399B0149
:10518000AC01C501B4010E94EC3918160CF4F8C347
:1051900020E030E0A901C501B4010E948D3887FFED
:1051A0006701D092A307C092A207A4CE5F98EFE157
:1051B000FEE43197F1F700C00000C090A407D09042
:1051C000A507E090A207F090A3075601AA0CBB1C0C
:1051D000F501EC0DFD1DEE0DFF1DEE0FFF1FE65A54
:1051E000F84F608171816F5F7F4F072E000C880B35
:1051F000990B0E943C392B013C0180901402909045
:105200001502B401092C000C880B990B0E943C3943
:105210001B0189839A839B01AC01B201C3010E94E7
:10522000EC3918161CF4210169807A8066277727EB
:1052300068197909072E000C880B990B0E943C39DC
:105240001B014C019B01AC01B201C3010E948D38CE
:1052500087FF02C021013401CA0CDB1CEC0CFD1CD1
:10526000C701880F991F9C01265A384F7901B20156
:10527000C3010E940439F70171836083B0CD5F9848
:10528000EFE1FEE43197F1F700C00000C090A40701
:10529000D090A507E090A207F090A3075601AA0CB2
:1052A000BB1CF501EC0DFD1DEE0DFF1DEE0FFF1FEC
:1052B000E65AF84F6081718161507109072E000C28
:1052C000880B990B0E943C392B013C018090140201
:1052D00090901502B401092C000C880B990B0E94C8
:1052E0003C391B0189839A839B01AC01B201C30144
:1052F0000E94EC3918161CF4210169807A80662717
:10530000772768197909072E000C880B990B0E94E2
:105310003C391B014C019B01AC01B201C3010E944D
:105320008D3887FF02C021013401CA0CDB1CEC0C54
:10533000FD1CC701880F991F9C01265A384F79011F
:10534000B201C3010E940439F70171836083FDCC6F
:105350002130310509F084CD5F988FE19EE40197FB
:10536000F1F700C00000E090A407F090A507EE0C54
:10537000FF1CF701E650F94F608171816C5E7F4F31
:10538000072E000C880B990B0E943C395B016C01C5
:1053900060901E0270901F02809020029090210267
:1053A0009301A4010E94EC39181614F4530164010E
:1053B00020E030E0A901B501C6010E948D3887FDCB
:1053C00026C3B501C6010E940439F701E650F94F22
:1053D000718360830E94502543CD2130310509F04F
:1053E00089CD5F988FE19EE40197F1F700C000003E
:1053F000E090A407F090A507EE0CFF1CF701E65023
:10540000F94F6081718164517109072E000C880B7E
:10541000990B0E943C39B62EC72ED82E092F7090BA
:105420001E0280901F0290902002A0902102272D42
:10543000382D492D5A2D0E94EC3918161CF4B72C22
:1054400064010A2D20E030E0A9016B2D7C2D8D2D0B
:10545000902F0E948D3887FDE0C26B2D7C2D8D2D05
:10546000902F0E940439F701E650F94F7183608351
:105470000E9450253FCD5F98EFE1FEE43197F1F7B0
:1054800000C00000C090A407D090A507E090A2073C
:10549000F090A3075601AA0CBB1CF501EC0DFD1DF5
:1054A000EE0DFF1DEE0FFF1FE65AF84F6081718170
:1054B000665F7F4F072E000C880B990B0E943C39CA
:1054C0002B013C018090140290901502B401092C2C
:1054D000000C880B990B0E943C391B0189839A832D
:1054E0009B01AC01B201C3010E94EC3918161CF4F7
:1054F000210169807A806627772768197909072E44
:10550000000C880B990B0E943C391B014C019B013C
:10551000AC01B201C3010E948D3887FF02C0210196
:105520003401CA0CDB1CEC0CFD1CC701880F991F51
:105530009C01265A384F7901B201C3010E940439F7
:10554000F701718360838CCC5F98EFE1FEE43197C3
:10555000F1F700C00000A090A407B090A507E0906C
:10556000A207F090A3074501880C991CF401EA0DED
:10557000FB1DEE0DFF1DEE0FFF1FE65AF84F608179
:1055800071816A507109072E000C880B990B0E94DB
:105590003C39562E672E782E092FC0901402D090D9
:1055A0001502B6010D2C000C880B990B0E943C399A
:1055B0001B01482E99839B01482F592F652D762D6D
:1055C000872D902F0E94EC39181624F4522C632C4E
:1055D000742C0981662777276C197D09072E000C2A
:1055E000880B990B0E943C39362E472E6C01262FD2
:1055F000372FAC01652D762D872D902F0E948D3889
:1056000087FF04C0532C642C7C2C0D2DA80CB91CD6
:10561000EA0CFB1CC701880F991F9C01265A384FC2
:105620007901652D762D872D902F0E940439F70181
:10563000718360835FCC87E61802812D11248595E4
:10564000859517FD8395182F8111FAC16091A207E6
:105650007091A307072E000C880B990B0E943C3910
:105660006B017C01612F012E000C770B880B990BCD
:105670000E943C3920E030E048E453E40E94923834
:105680009B01AC01C701B6010E9421384B015C01AE
:10569000E0901602F0901702B7010F2C000C880B57
:1056A000990B0E943C399B01AC01C501B4010E94D9
:1056B000EC3918160CF4A2C120E030E0A901C501B4
:1056C000B4010E948D3887FD05C0C501B4010E9458
:1056D00004397B01F092A307E092A20789CC87E608
:1056E0001802812D11248595859517FD8395182F16
:1056F0008111AEC1A090A407B090A507E090A207C9
:10570000F090A3074501880C991CF401EA0DFB1DDC
:10571000EE0DFF1DEE0FFF1FE65AF84F60817181FD
:10572000072E000C880B990B0E943C392B013C0181
:10573000612F012E000C770B880B990B0E943C39CE
:1057400020E030E048E453E40E9492389B01AC0131
:10575000C301B2010E942138562E672E782E092FE0
:10576000C0901402D0901502B6010D2C000C880BCD
:10577000990B0E943C391B01482E99839B01482FAD
:10578000592F652D762D872D902F0E94EC391816F4
:1057900024F4522C632C742C0981662777276C190A
:1057A0007D09072E000C880B990B0E943C39362E80
:1057B000472E6C01262F372FAC01652D762D872DB6
:1057C000902F0E948D3887FF04C0532C642C7C2CB2
:1057D0000D2DA80CB91CEA0CFB1CC701880F991FE2
:1057E0009C01265A384F7901652D762D872D902FF3
:1057F0000E940439F70171836083FACB319709F075
:10580000A4CA5F988FE19EE40197F1F700C0000001
:10581000E090A407F090A507EE0CFF1CF701E650FE
:10582000F94F6081718161507109072E000C880B5E
:10583000990B0E943C395B016C0160901E027090D4
:105840001F0280902002909021029301A4010E94E7
:10585000EC39181614F45301640120E030E0A9017A
:10586000B501C6010E948D3887FD00C1B501C60192
:105870000E940439F701E650F94F718360830E945A
:10588000502563CA2130310509F0A9CA5F988FE11C
:105890009EE40197F1F700C00000E090A407F090AB
:1058A000A507EE0CFF1CF701E650F94F60817181EE
:1058B0006F5F7F4F072E000C880B990B0E943C39BD
:1058C0005B016C0160901E0270901F0280902002AC
:1058D000909021029301A4010E94EC39181614F44F
:1058E0005301640120E030E0A901B501C6010E9426
:1058F0008D3887FDB8C0B501C6010E940439F70193
:10590000E650F94F718360830E94502568CA5F9802
:10591000EFE1FEE43197F1F700C00000E090A2074C
:10592000F090A307F1E0EF1AF108B7010F2C000C7B
:10593000880B990B0E943C394B015C01C090160208
:10594000D0901702B6010D2C000C880B990B0E9409
:105950003C399B01AC01C501B4010E94EC39181619
:105960000CF452C020E030E0A901C501B4010E944E
:105970008D3887FF6701D092A307C092A207E5C9BF
:10598000C12CD12C0ECC5F98EFE1FEE43197F1F7FA
:1059900000C00000E090A207F090A307FFEFEF1A0D
:1059A000FF0AB7010F2C000C880B990B0E943C39A1
:1059B0004B015C01C0901602D0901702B6010D2C6D
:1059C000000C880B990B0E943C399B01AC01C5016E
:1059D000B4010E94EC391816ECF020E030E0A90187
:1059E000C501B4010E948D3887FF6701D092A307DB
:1059F000C092A207F4C9C12CD12C9ACBE12CF12C76
:105A000069CEE12CF12CF0CAC12CD12CB4CF60E0CE
:105A100070E0DBCCC12CD12CE9CF60E070E023CD6D
:105A20005F988FE99FE00197F1F700C000009CCAE2
:105A30005F988FE99FE00197F1F700C00000EDCA81
:105A40005F98EFE9FFE03197F1F700C00000FECD6D
:105A50005F98EFE9FFE03197F1F700C000004ACE10
:105A600060E070E029CB60E070E049CF60E070E07A
:105A700001CFCF93DF93149828E130E088EF90E0D6
:105A8000A0E0B0E009C0169A159AB695A79597952B
:105A900087952150310929F0159880FDF4CF16988B
:105AA000F3CF149AC0E0D0E0D093A507C093A40729
:105AB0000E9450252196CC30D105B1F71092A50750
:105AC0001092A407DF91CF9108951F93CF93DF9396
:105AD000989AA09AE1E0F1E080818B7F8083E2E0F8
