:100000000C9497010C94B8010C9401090C9401090B
:100010000C9443090C94B8010C9401090C94B80198
:100020000C94B8010C944D090C94B8010C94B801CF
:100030000C94B8010C94B8010C94B8010C94B8015C
:100040000C94B8010C94B8010C94B8010C94B8014C
:100050000C94B8010C94B8010C94B8010C94B8013C
:100060000C94B8010C941D050C94B8010C94B801C3
:100070000C94B8010C94B8010C94B8010C94B8011C
:100080000C94B8010C94B8010C94B8010C94B8010C
:100090000C94B8010C94B8010C94B8010C94B801FC
:1000A0000C94B8010C94B8010C94B8010C94B801EC
:1000B0000C94B8010C94B8010C94B8010C94B801DC
:1000C0000C94B8010C94B8010C94B8010C94B801CC
:1000D0000C94B8010C94B8010C94B8010C94B801BC
:1000E0000C94B801CB2EE12E9F2EF72E182F532FF4
:1000F000B32E722FB52E07634236B79BD8A71A3995
:10010000685618AEBAAB558C1D3CB7CC5763BD6D65
:10011000EDFD753EF6177231BF000000803F08000C
:100120000000BE922449123EABAAAA2ABECDCCCC76
:100130004C3E00000080BEABAAAAAA3E0000000010
:10014000BF000000803F0000000000084178D3BBE2
:100150004387D1133D190E3CC3BD4282AD2B3E688F
:10016000EC8276BED98FE1A93E4C80EFFFBE01C480
:10017000FF7F3F00000000000C949F2E0C94E12EA6
:100180000C94CB2E0C94D5040C94E5040C94B32E53
:100190000C94722F0C94F72E0C94532F0C94182F50
:1001A0000C94B52E6E616E00696E660000407A1088
:1001B000F35A00A0724E18090010A5D4E80000E818
:1001C0007648170000E40B54020000CA9A3B000076
:1001D00000E1F505000080969800000040420F0005
:1001E0000000A08601000000102700000000E803C6
:1001F000000000006400000000000A000000000091
:100200000100000000002C76D888DC674F0823DF4F
:10021000C1DFAE59E1B1B796E5E3E453C63AE65122
:10022000997696E8E6C28426EB898C9B62ED407C49
:100230006FFCEFBC9C9F40F2BAA56FA5F490055AE5
:100240002AF75C936B6CF9676DC11BFCE0E40D470A
:10025000FEF520E6B500D0ED902E0300943577052D
:100260000080841E080000204E0A000000C80C33E5
:100270003333330F986E12831141EF8D2114893B74
:10028000E65516CFFEE6DB18D1844B381BF77C1DF4
:10029000901DA4BBE424203284725E228100C9F147
:1002A00024ECA1E53D274E414E494E495459494E53
:1002B00046CDCCCC3D0AD7233C17B7D13877CC2BD1
:1002C000329595E6241FB14F0A000020410000C876
:1002D0004200401C4620BCBE4CCA1B0E5AAEC59DF7
:1002E000746364696E6F70737578585B6566674593
:1002F000464700616E006E66696E69747900CDCC08
:10030000CC3D0AD7233C17B7D13877CC2B32959503
:10031000E6241FB14F0A000020410000C8420040FF
:100320001C4620BCBE4CCA1B0E5AAEC59D7411247F
:100330001FBECFEFD1E2DEBFCDBF00E00CBF14E0A7
:10034000A0E0B2E0ECEDF5E800E00BBF02C00790E2
:100350000D92AA3EB107D9F729E0AAEEB4E001C098
:100360001D92AE31B207E1F70E948E390C94EC4237
:100370000C940000279A08952F9A08952F980895B5
:100380001F9A08950097D9F020E030E02F9A4FE7A8
:100390005AE166E0415050406040E1F700C0000083
:1003A0002F984FE75AE166E0415050406040E1F736
:1003B00000C000002F5F3F4F2817390739F7089515
:1003C000813009F43FC0823009F008958091010125
:1003D000806880930101809102018F7780930201F0
:1003E0002FEF81EE94E0215080409040E1F700C073
:1003F00000008091010188608093010180910201D9
:1004000088608093020180910101806180930101E5
:1004100080910201806180930201809101018062DC
:10042000809301018091020180628093020180919A
:100430000101806480930101809102018F7B809390
:1004400002010895809A889A6F9A779A839A8B9A74
:10045000819A899A82988A986E98769808958130C0
:1004600009F0089577989AE09A95F1F7779A8A9526
:10047000F1F70895813071F0823009F0089580918C
:1004800002018F7E8093020180910201877F809319
:10049000020108958B9888980895813099F08230F0
:1004A00009F0089580910201886080930201809193
:1004B0000201806180930201809102018062809339
:1004C00002010895889A8B9A899A0895962F9078B8
:1004D000813009F4BCC0823009F008958091020196
:1004E000911110C18F7D8093020181E0982F9A9520
:1004F000F1F7909102019061909302018A95F1F7D2
:10050000809102018F7E8093020166FF31C180914C
:10051000020180628093020181E0982F9A95F1F7A1
:10052000909102019061909302018A95F1F7809178
:1005300002018F7E8093020165FF14C18091020148
:1005400080628093020181E0982F9A95F1F7909153
:1005500002019061909302018A95F1F78091020166
:100560008F7E8093020164FFF7C080910201806258
:100570008093020181E0982F9A95F1F79091020102
:100580009061909302018A95F1F7809102018F7E2C
:100590008093020163FFDAC0809102018062809340
:1005A000020181E0982F9A95F1F7909102019061F4
:1005B000909302018A95F1F7809102018F7E8093DA
:1005C000020162FFBDC0809102018062809302013E
:1005D00081E0982F9A95F1F79091020190619093A4
:1005E00002018A95F1F7809102018F7E80930201CA
:1005F00061FFA0C08091020180628093020181E0CE
:10060000982F9A95F1F790910201906190930201D1
:100610008A95F1F7809102018F7E8093020160FF3D
:1006200083C08091020180628093020181E0982F53
:100630009A95F1F7909102019061909302018A9549
:10064000F1F7809102018F7E80930201089591114C
:1006500057C0899881E0982F9A95F1F78B9A8A95DF
:10066000F1F78B9866FF54C0899A81E0982F9A958C
:10067000F1F78B9A8A95F1F78B9865FF47C0899AB5
:1006800081E0982F9A95F1F78B9A8A95F1F78B98DC
:1006900064FF46C0899A81E0982F9A95F1F78B9A6A
:1006A0008A95F1F78B9863FF39C0899A81E0982F7A
:1006B0009A95F1F78B9A8A95F1F78B9862FF2CC087
:1006C000899A81E0982F9A95F1F78B9A8A95F1F79C
:1006D0008B9861FF1FC0899A81E0982F9A95F1F756
:1006E0008B9A8A95F1F78B9860FF1CC0899A81E0FC
:1006F000982F9A95F1F78B9A8A95F1F78B98089530
:10070000899AA8CF806280930201EFCE8998B8CFF2
:100710008998ABCF8998E0CF8998D3CF8998C6CFF5
:100720008998B9CF8998E3CF809102018F7D80931A
:1007300002017CCF809102018F7D809302015FCF07
:10074000809102018F7D8093020142CF809102014E
:100750008F7D8093020125CF809102018F7D809350
:10076000020108CF809102018F7D80930201EBCEC0
:10077000809102018F7D80930201CECE813011F0F5
:1007800080E00895982F9A95F1F78B9A2FB1982FC2
:100790009A95F1F78B9822FB222720F9220F982FA8
:1007A0009A95F1F78B9A9FB1382F3A95F1F78B987C
:1007B00092FB992790F9292B220F982F9A95F1F700
:1007C0008B9A9FB1382F3A95F1F78B9892FB992726
:1007D00090F9292B220F982F9A95F1F78B9A9FB1B8
:1007E000382F3A95F1F78B9892FB992790F9292B9E
:1007F000220F982F9A95F1F78B9A9FB1382F3A953F
:10080000F1F78B9892FB992790F9292B220F982FBB
:100810009A95F1F78B9A9FB1382F3A95F1F78B980B
:1008200092FB992790F9292B220F982F9A95F1F78F
:100830008B9A9FB1382F3A95F1F78B9892FB9927B5
:1008400090F9292B982F9A95F1F78B9A9FB18A9559
:10085000F1F78B98822F880F92FB992790F9892BBB
:100860000895813011F080E0089567FF93C0899A60
:1008700091E0892F8A95F1F78B9A8FB19A95F1F7CC
:100880008B9882FB882780F9880F66FF81C0899A40
:1008900021E0922F9A95F1F78B9A9FB12A95F1F763
:1008A0008B9892FB992790F9892B880F65FF6EC072
:1008B000899A21E0922F9A95F1F78B9A9FB12A9508
:1008C000F1F78B9892FB992790F9892B880F64FF99
:1008D0005BC0899A21E0922F9A95F1F78B9A9FB18C
:1008E0002A95F1F78B9892FB992790F9892B880F1D
:1008F00063FF48C0899A21E0922F9A95F1F78B9A6D
:100900009FB12A95F1F78B9892FB992790F9892B43
:10091000880F62FF35C0899A21E0922F9A95F1F7EE
:100920008B9A9FB12A95F1F78B9892FB992790F9B2
:10093000892B880F61FF22C0899A21E0922F9A9516
:10094000F1F78B9A9FB12A95F1F78B9892FB992733
:1009500090F9892B880F60FF0FC0899A21E0922FB0
:100960009A95F1F78B9A9FB12A95F1F78B9892FBA4
:10097000992790F9892B08958998F0CF8998DDCF30
:100980008998CACF8998B7CF8998A4CF899891CFF1
:1009900089987ECF89986CCF813011F080E00895DE
:1009A0008CB186FB882780F90895CF93C82F8A30B1
:1009B00041F09091C00095FFFCCFC093C600CF914D
:1009C00008958DE00E94D504F4CF8091EC04882333
:1009D000E1F3E091ED04F091EE04EF50FB4F8081E4
:1009E0009091EC0491509093EC042091ED0430919F
:1009F000EE042F5F3F4F3093EE042093ED042091DF
:100A0000ED043091EE042F3F310509F00895109266
:100A1000EE041092ED0408951092C50089E18093D0
:100A2000C400E0ECF0E080818D7F808386E08093DD
:100A3000C20088E18093C10008951F920F920FB603
:100A40000F9211240BB60F922F938F939F93EF93D6
:100A5000FF932091C6008091EC048F3FA1F1E091BB
:100A6000EF04F091F004EF50FB4F20838091EC04F1
:100A70008F5F8093EC048091EF049091F0040196D5
:100A80009093F0048093EF048091EF049091F00430
:100A90008F3F910501F18091EA049091EB04892B3D
:100AA00031F08091C00085FFFCCF2093C600FF91FC
:100AB000EF919F918F912F910F900BBE0F900FBED2
:100AC0000F901F9018958091C00085FFFCCF80E4A7
:100AD0008093C600ECCF1092F0041092EF04DBCFAD
:100AE0008091EC048823F1F0E091ED04F091EE04A4
:100AF000EF50FB4F80819091EC0491509093EC0467
:100B00002091ED043091EE042F5F3F4F3093EE04BF
:100B10002093ED042091ED043091EE042F3F310538
:100B200019F0089580E008951092EE041092ED04FB
:100B30000895E1ECF0E080818F7780831092C5000A
:100B400089E18093C400A0ECB0E08C918D7F8C9300
:100B500086E08093C20088E180831092EB041092BB
:100B6000EA04A6E1B9E080E092E011969C938E93AE
:100B700013969C938E9312971092F0041092EF04A8
:100B80001092EE041092ED041092EC0480818068C3
:100B9000808308959093EB048093EA040895109263
:100BA000EB041092EA040895FC0160830895EF922B
:100BB000FF921F93CF93DF931F92CDB7DEB77C01D7
:100BC000162FFC01808179830E943A026981F70126
:100BD00080810E946602612FF70180810E94660277
:100BE000F70180810F90DF91CF911F91FF90EF90DF
:100BF0000C944D02FC0180810C94E001FC016083A7
:100C00000895CF92DF92EF92FF920F93CF93DF93ED
:100C1000EC016A017B0188810E943A02602F6370B7
:100C200088810E94660299278F2D7E2D6D2D8881E7
:100C30000E9466026C2D88810E9466028881DF9185
:100C4000CF910F91FF90EF90DF90CF900C944D02D9
:100C5000FC0180810C94E001FC0160830895CF9237
:100C6000DF92EF92FF92CF93DF93EC016A017B0159
:100C700088810E943A026C2D88810E946602B70129
:100C80008827992788810E94660299278F2D7E2DBB
:100C90006D2D88810E9466028881DF91CF91FF903F
:100CA000EF90DF90CF900C944D02FC0180810C946A
:100CB000E001FC01608308950F931F93CF93DF93AE
:100CC000EC018B0188810E943A02B8010024660F72
:100CD000771F001C660F771F001C672F702D6F7326
:100CE00088810E946602602F660F660F88810E94CD
:100CF00066028881DF91CF911F910F910C944D0274
:100D0000FC0180810C94E0010F931F93CF93DF933C
:100D10008C01EB010E94873FFE0101900020E9F762
:100D2000CF018C1B9D0B800F911FDF91CF911F91E5
:100D30000F910895FC01608308950F931F93CF9343
:100D4000DF93EC0188810E943A0288810E94BE03F1
:100D500088810E94BE03082F88810E94BE03182F3D
:100D600088810E944D02812F90E0902BDF91CF91DE
:100D70001F910F910895FC0180810C94E0010F9365
:100D80001F93CF93DF938EE090E00E94B342EC017B
:100D900086E090E00E94B342AC01CE01A0E0B0E05A
:100DA000DC019927882760E070E08C019D01042B0D
:100DB000152B262B372BC901B801613F19E47107A8
:100DC00012E08107910508F0AAC00E94B03B20E024
:100DD00030E04AE754E40E94083B6093F6087093C1
:100DE000F7088093F8089093F9088CE090E00E944F
:100DF000B342EC0184E090E00E94B342AC01CE012A
:100E0000A0E0B0E0DC019927882760E070E08C0169
:100E10009D01042B152B262B372BC901B801613FEF
:100E200019E4710712E08107910508F082C00E9461
:100E3000B03B20E030E04AE754E40E94083B609376
:100E4000FA087093FB088093FC089093FD088AE0F1
:100E500090E00E94B342EC0182E090E00E94B34235
:100E6000AC01CE01A0E0B0E0DC019927882760E06A
:100E700070E08C019D01042B152B262B372BC9010B
:100E8000B801613F19E4710712E08107910508F08C
:100E90004BC00E94B03B20E030E04AE754E40E949F
:100EA000083B6093FE087093FF08809300099093BD
:100EB000010988E090E00E94B342EC0180E090E0FC
:100EC0000E94B342AC01CE01A0E0B0E0DC01992762
:100ED000882760E070E08C019D01042B152B262BE8
:100EE000372BC901B801613F19E4710712E081078E
:100EF000910520F50E94B03B20E030E04AE754E441
:100F00000E94083B609302097093030980930409CF
:100F100090930509DF91CF911F910F91089560E0A3
:100F200070E086E193E459CF60E070E086E193E4FD
:100F3000B8CF60E070E086E193E481CF60E070E0DC
:100F400086E193E4DFCFCF92DF92EF92FF92CF93CF
:100F5000DF93C6EFD8E020E030E04AE754E4688150
:100F600079818A819B810E94673C0E94813B6B0151
:100F70007C01B701882799278EE090E00E94B94252
:100F8000B60186E090E00E94B94220E030E04AE7F6
:100F900054E46C817D818E819F810E94673C0E9418
:100FA000813B6B017C01B701882799278CE090E099
:100FB0000E94B942B60184E090E00E94B94220E06C
:100FC00030E04AE754E4688579858A859B850E94EC
:100FD000673C0E94813B6B017C01BC0188279927FB
:100FE0008AE090E00E94B942B60182E090E00E945F
:100FF000B94220E030E04AE754E46C857D858E8577
:101000009F850E94673C0E94813B6B017C01BC0173
:101010008827992788E090E00E94B942B60180E0D5
:1010200090E0DF91CF91FF90EF90DF90CF900C9404
:10103000B942809106098823B9F18091F108813085
:1010400009F441C081E08093F1088091290288234E
:10105000D1F11092F6081092F7081092F808109249
:10106000F9081092FA081092FB081092FC081092EE
:10107000FD081092FE081092FF08109200091092CD
:1010800001091092020910920309109204091092AA
:1010900005091092F2081092F3081092F4081092C9
:1010A000F5081092290208958091F108882359F0DB
:1010B0008093F0081092F10880912902811103C0F9
:1010C00081E08093290208958F929F92AF92BF9200
:1010D000CF92DF92EF92FF921F93CF93DF93109105
:1010E00029021123C9F18091F108811135C082EFE5
:1010F000C82E88E0D82ECFEDD8E096EFE92E98E004
:10110000F92EF60181916F018823B9F120E030E0DA
:101110004AE754E4F70160817181828193810E94E2
:10112000673C0E94813B88809980AA80BB806815BB
:1011300079058A059B0521F0688379838A839B83DF
:101140002496F4E0EF0EF11C88E0CF3ED807C9F6F4
:101150008091EF08811115C0809128021813109317
:101160002802DF91CF911F91FF90EF90DF90CF90F9
:10117000BF90AF909F908F90089560E070E0CB019A
:10118000D2CF81508093EF08E7CFE2EFF8E01082F2
:1011900011821282138281E080932902089552986D
:1011A0005A9AE9E6F0E080818F7D808380818061BA
:1011B0008083EA9A5198599A8081877F80838081C1
:1011C00084608083E99A53985B9A808180688083E9
:1011D00080818F7B8083EB9A26982E9AA8E6B0E0D8
:1011E0008C9181608C93EBE6F0E080818064808359
:1011F00025982D9A8C9181608C9380818062808368
:1012000008951F920F920FB60F9211240BB60F92F2
:101210002F933F934F935F936F938F939F93EF938E
:10122000FF9340910E09440F440F40930E0959B1AA
:1012300069B161FB882780F990E0842B52FB22275B
:1012400020F930E0220F331F822B932B80930E095D
:101250008F70E82FF0E0E65DFD4F909113098081DB
:10126000890F80931309FF91EF919F918F916F9157
:101270005F914F913F912F910F900BBE0F900FBE3A
:101280000F901F9018951F920F920FB60F92112476
:101290000F900FBE0F901F9018951F920F920FB6D0
:1012A0000F9211248F939F9383B186FB882780F937
:1012B00090910F02992311F08823C1F080930F02BF
:1012C00083B185FB882780F990910E02992329F03C
:1012D000811103C091E09093110980930E029F91B8
:1012E0008F910F900FBE0F901F90189591E09093E3
:1012F0001209E4CF8F929F92AF92BF92CF92DF926A
:10130000EF92FF920F931F93CF93DF93CDB7DEB78A
:1013100062970FB6F894DEBF0FBECDBF80E290E0BB
:101320009A8B898BBE016F5E7F4F83E198E00E94AC
:101330007A3F9A8389837E0183E0E80EF11C01E005
:1013400010E0BE016F5E7F4F80E090E00E947A3F28
:10135000F701819391937F01892B09F45CC00F5FA2
:101360001F4F0830110569F7E980FA8064E672E0E2
:10137000C7010E947E3F892BA1F45F9A62960FB647
:10138000F894DEBF0FBECDBFDF91CF911F910F91BB
:10139000FF90EF90DF90CF90BF90AF909F908F9095
:1013A00008956DE872E0C7010E947E3F892B29F302
:1013B00065E672E0C7010E947E3F892BF1F26EE87C
:1013C00072E0C7010E947E3F892BB9F262E473E0AC
:1013D000C7010E947E3F892B09F416C16FEF72E0AE
:1013E000C7010E947E3F892B09F461C166E473E066
:1013F000C7010E947E3F892B09F45EC169E573E055
:10140000C7010E947E3F892B09F43BC18EE793E020
:101410000E945240B2CFE980FA8064E672E0C701D0
:101420000E947E3F892B89F16DE872E0C7010E941E
:101430007E3F892B09F086C00230110509F09DCF4F
:101440008B819C810E945D3E01978430910508F05C
:1014500094CF880F991F880F991FFC01EA50F74F0E
:1014600083818F9382818F9381818F9380818F93EA
:1014700086E892E09F938F930E943E400F900F90DA
:101480000F900F900F900F9078CF0330110509F057
:1014900074CF5F988FE19EE40197F1F700C00000E0
:1014A0008B819C810E945D3E8C018D819E810E947A
:1014B000593EF62EE72ED82EC92E8090200290900D
:1014C0002102A0902202B09023029401A5010E9463
:1014D000623C181624F4F82CE92CDA2CCB2C20E0F2
:1014E00030E0A9016F2D7E2D8D2D9C2D0E94033B98
:1014F00087FDC2C09801215031092430310508F020
:10150000AFC0220F331F220F331FF901EA50F74FEC
:101510008F2D9E2DAD2DBC2D80839183A283B3830F
:10152000CF92DF92EF92FF921F930F938BE692E0A0
:101530009F938F930E943E400FB6F894DEBF0FBE7C
:10154000CDBF1BCF65E672E0C7010E947E3F892BAD
:1015500041F16EE872E0C7010E947E3F892B09F0DD
:1015600035CF0230110509F008CF8B819C810E9494
:101570005D3E9C01215031092430310508F0FDCE3B
:10158000FC01EF50F74F80811F928F9385E593E028
:101590009F938F930E943E400F900F900F900F905B
:1015A000ECCE0330110509F0E8CE5F988FE19EE4A0
:1015B0000197F1F700C000008B819C810E945D3E85
:1015C0008C018D819E810E945D3E980121503109E0
:1015D0002430310508F0D1CE009709F47AC0019784
:1015E00009F0CBCEF801EF50F74F81E080831F93D5
:1015F0000F9380EB92E09F938F930E943E400F9059
:101600000F900F900F90B9CE0130110509F0B5CEB3
:101610008BE492E00E94524086E492E09F938F9385
:101620008BEC92E09F938F930E943E4080E492E087
:101630009F938F938BED92E09F938F930E943E40F8
:101640008AE392E09F938F938DEE92E09F938F9326
:101650000E943E400FB6F894DEBF0FBECDBF8DCEC8
:10166000220F331F220F331FF901EA50F74FF0808A
:10167000E180D280C38054CFF12CE12CD12CC12C3D
:1016800039CF9091060981E09827909306099091AF
:10169000290289271F928F9389E693E09F938F9366
:1016A0000E943E400F900F900F900F9066CE84E006
:1016B00093E00E94524061CE1F921F928CE493E00F
:1016C0009F938F930E943E400F900F900F900F902A
:1016D00054CEF801EF50F74F10821F930F9384E917
:1016E00092E09F938F930E943E400F900F900F9037
:1016F0000F9043CE0E947005882309F44FC08D30AF
:10170000F1F08A30E1F0E0910909F0910A09E4363C
:10171000F1055CF0E758F74F129298E0E937F907C6
:10172000D9F710927808E0E0F0E0DF01A858B74F51
:101730008C933196F0930A09E0930909DBCF40912D
:10174000090950910A0914161506A4F6A3E1B8E098
:10175000E8E7F8E09A012858374F80818D9311927D
:10176000E217F307D1F7809107099091080948170C
:1017700059074CF4FA01ED5EF74F8D5E974F1192C9
:10178000E817F907E1F75093080940930709109209
:101790000A09109209090E947A09ACCF089581E0E4
:1017A0000E943A0262E081E00E94660260E081E00D
:1017B0000E94660281E00E94CC048823D9F362E093
:1017C00081E00E94660260E081E00E94660281E0A2
:1017D0000E944D0281E00E943A0281E00E94CC0406
:1017E0008823D9F36FEF81E00E9431048093F005E4
:1017F0006FEF81E00E9431048093F10581E00E9447
:101800004D0281E00E94CC048130D9F38091F10532
:101810008F938091F0058F9388EB93E09F938F9344
:101820000E943E4081E00E943A0262E081E00E9414
:10183000660260E081E00E9466020F900F900F90B8
:101840000F9081E00E94CC048823D9F363E081E00B
:101850000E94660260E081E00E94660281E00E94D0
:101860004D0281E00E943A0281E00E94CC0488236C
:10187000D9F36FEF81E00E9431048093F0056FEFA0
:1018800081E00E9431048093F10581E00E944D02C5
:1018900081E00E94CC048130D9F38091F1058F93CF
:1018A0008091F0058F938BEC93E09F938F930E9430
:1018B0003E4081E00E943A0262E081E00E946602BE
:1018C00060E081E00E9466020F900F900F900F90F1
:1018D00081E00E94CC048823D9F360E081E00E947B
:1018E000660260E081E00E94660281E00E944D0293
:1018F00081E00E943A0281E00E94CC048823D9F35F
:101900006FEF81E00E9431048093F0056FEF81E07A
:101910000E9431048093F10581E00E944D0281E034
:101920000E94CC048130D9F381E00E943A0262E047
:1019300081E00E94660260E081E00E94660281E030
:101940000E94CC048823D9F361E081E00E94660202
:1019500060E081E00E94660281E00E944D0281E029
:101960000E943A0281E00E94CC048823D9F36FEFF1
:1019700081E00E9431048093F0056FEF81E00E94C6
:1019800031048093F10581E00E944D0281E00E94C4
:10199000CC048130D9F38091F1058F938091F005CB
:1019A0008F9389ED93E09F938F930E943E400F9019
:1019B0000F900F900F9008956F927F928F929F9249
:1019C000AF92BF92CF92DF92EF92FF920F931F934D
:1019D000CF93DF93CDB7DEB76A970FB6F894DEBF2B
:1019E0000FBECDBF989AA09A2FEF83ED90E32150C0
:1019F00080409040E1F700C00000A098EFEFF3EDC9
:101A000020E3E150F0402040E1F700C0000081E019
:101A10000E94E00181E00E943A0281E00E94CC0431
:101A20008823D9F36FEF81E00E9431048093F005A1
:101A30006FEF81E00E9431048093F10581E00E9404
:101A40004D0281E00E94CC048130D9F38091F005F1
:101A50009091F1058231944309F07DC081E00E94AC
:101A60003A0262E081E00E94660260E081E00E944A
:101A7000660281E00E94CC048823D9F360E081E013
:101A80000E94660260E081E00E94660281E00E949E
:101A90004D0281E00E943A0281E00E94CC0488233A
:101AA000D9F36FEF81E00E9431048093F0056FEF6E
:101AB00081E00E9431048093F10581E00E944D0293
:101AC00081E00E94CC048130D9F30091F00510919F
:101AD000F10581E00E943A0262E081E00E94660224
:101AE00060E081E00E94660281E00E94CC048823CD
:101AF000D9F361E081E00E94660260E081E00E942B
:101B0000660281E00E944D0281E00E943A0281E07B
:101B10000E94CC048823D9F36FEF81E00E94310446
:101B20008093F0056FEF81E00E9431048093F1050E
:101B300081E00E944D0281E00E94CC048130D9F303
:101B40008091F0059091F105012B09F087CF8F3737
:101B50009D4109F083CF80E094E09A83898384E6F5
:101B600090E09C838B8381E00E943A0264E081E0F4
:101B70000E94660260E081E00E946602CE0101964A
:101B80003C017C0101E010E00DC0F701608181E0C3
:101B90000E9466020430110599F00F5F1F4FFFEF9E
:101BA000EF1AFF0A0130110581F781E00E94CC0491
:101BB0008823D9F3F701608181E00E946602EDCFAE
:101BC00081E00E944D0281E00E943A0281E00E9481
:101BD000CC048823D9F36FEF81E00E943104809315
:101BE000F0056FEF81E00E9431048093F10581E000
:101BF0000E944D0281E00E94CC048130D9F381E043
:101C00000E943A0262E081E00E94660260E081E0A8
:101C10000E94660281E00E94CC048823D9F360E828
:101C200081E00E94660261E081E00E94660281E03C
:101C30000E944D0281E00E943A0281E00E94CC04A1
:101C40008823D9F36FEF81E00E9431048093F0057F
:101C50006FEF81E00E9431048093F10581E00E94E2
:101C60004D0281E00E94CC048130D9F385E591E0FA
:101C70009A83898384E090E09C838B8381E00E9437
:101C80003A0264E081E00E94660260E081E00E9426
:101C90006602730101E010E00DC0F701608181E090
:101CA0000E9466020430110599F00F5F1F4FFFEF8D
:101CB000EF1AFF0A0130110581F781E00E94CC0480
:101CC0008823D9F3F701608181E00E946602EDCF9D
:101CD00081E00E944D0281E00E943A0281E00E9470
:101CE000CC048823D9F36FEF81E00E943104809304
:101CF000F0056FEF81E00E9431048093F10581E0EF
:101D00000E944D0281E00E94CC048130D9F380E72B
:101D100091E09A8389838BEE93ED9C838B8389EE8C
:101D200090E09E838D8381E00E943A0266E081E02C
:101D30000E94660260E081E00E946602730101E099
:101D400010E00DC0F701608181E00E94660206305C
:101D5000110599F00F5F1F4FFFEFEF1AFF0A0130D7
:101D6000110581F781E00E94CC048823D9F3F701A3
:101D7000608181E00E946602EDCF81E00E944D0209
:101D800081E00E943A0281E00E94CC048823D9F3CA
:101D90006FEF81E00E9431048093F0056FEF81E0E6
:101DA0000E9431048093F10581E00E944D0281E0A0
:101DB0000E94CC048130D9F389E1E7E6F4E0D30155
:101DC00001900D928A95E1F7E0900F08F0901008CD
:101DD00000911108109112087F926F92812C912C22
:101DE000A12CB12C94E0C92ED12C2EE130E040EF93
:101DF00050E06EE070E080EF95E00E94573886E496
:101E000092E09F938F9380EF93E09F938F937F92C5
:101E10006F920E948240E0900F08F09010080091AD
:101E20001108109112087F926F9223E0C22ED12CDC
:101E300024E630E04AE050E067E070E080EF95E0B3
:101E40000E94573880E492E09F938F9384E094E05F
:101E50009F938F937F926F920E948240E0900F0831
:101E6000F090100800911108109112087F926F9263
:101E700028E730E04AE050E067E070E080EF95E06E
:101E80000E9457388AE392E09F938F9388E194E011
:101E90009F938F937F926F920E948240E0900F08F1
:101EA000F090100800911108109112087F926F9223
:101EB0002CE830E04AE050E067E070E080EF95E029
:101EC0000E94573881E1ECE2F4E0D30101900D92D9
:101ED0008A95E1F7E0900F08F09010080091110842
:101EE000109112087F926F922CED30E04AE050E0A2
:101EF00068E070E080EF95E00E94573881E00E9432
:101F00003A0262E081E00E94660260E081E00E94A5
:101F100066020FB6F894DEBF0FBECDBF81E00E940F
:101F2000CC048823D9F361E881E00E94660261E075
:101F300081E00E94660281E00E944D0281E00E94E1
:101F40003A0281E00E94CC048823D9F36FEF81E04C
:101F50000E9431048093F0056FEF81E00E9431040C
:101F60008093F10581E00E944D0281E00E94CC0443
:101F70008130D9F381E094E09E8B8D8B82E090E0FC
:101F8000988F8F8B1A8E198E81E00E943A0266E03C
:101F900081E00E94660260E081E00E9466028E019C
:101FA0000B5E1F4F66246394712C0EC0F801608194
:101FB00081E00E946602F6E06F167104A1F09FEFC7
:101FC000691A790A0F5F1F4FE1E06E16710471F70D
:101FD00081E00E94CC048823D9F3F801608181E07C
:101FE0000E946602ECCF81E00E944D0281E00E94D7
:101FF0003A0281E00E94CC048823D9F36FEF81E09C
:102000000E9431048093F0056FEF81E00E9431045B
:102010008093F10581E00E944D0281E00E94CC0492
:102020008130D9F36DE374E080EF95E00E940B39C5
:102030006A960FB6F894DEBF0FBECDBFDF91CF9189
:102040001F910F91FF90EF90DF90CF90BF90AF90D6
:102050009F908F907F906F9008952F923F924F9214
:102060005F926F927F928F929F92AF92BF92CF9228
:10207000DF92EF92FF920F931F93CF93DF93CDB731
:10208000DEB7CE54D1400FB6F894DEBF0FBECDBF41
:1020900081E00E943A0262E081E00E94660260E014
:1020A00081E00E94660281E00E94CC048823D9F37B
:1020B00060E881E00E94660261E081E00E946602C1
:1020C00081E00E944D0281E00E943A0281E00E947C
:1020D000CC048823D9F36FEF81E00E943104809310
:1020E000F0056FEF81E00E9431048093F10581E0FB
:1020F0000E944D0281E00E94CC048130D9F385E535
:1021000091E09A83898384E090E09C838B8381E0D3
:102110000E943A0264E081E00E94660260E081E091
:102120000E9466028E010F5F1F4F6801EE24E39448
:10213000F12C0FC0F601608181E00E946602F4E09C
:10214000EF16F104A9F02FEFE21AF20A3FEFC31ADB
:10215000D30A81E0E816F10469F781E00E94CC041B
:102160008823D9F3F601608181E00E946602EBCFFB
:1021700081E00E944D0281E00E943A0281E00E94CB
:10218000CC048823D9F36FEF81E00E94310480935F
:10219000F0056FEF81E00E9431048093F10581E04A
:1021A0000E944D0281E00E94CC048130D9F380E787
:1021B00091E09A8389831C821B821E821D8281E0AA
:1021C0000E943A0266E081E00E94660260E081E0DF
:1021D0000E9466026801EE24E394F12C0FC0F60120
:1021E000608181E00E946602F6E0EF16F104A9F03A
:1021F0002FEFE21AF20A3FEFC31AD30A81E0E81682
:10220000F10469F781E00E94CC048823D9F3F60138
:10221000608181E00E946602EBCF81E00E944D0266
:1022200081E00E943A0281E00E94CC048823D9F325
:102230006FEF81E00E9431048093F0056FEF81E041
:102240000E9431048093F10581E00E944D0281E0FB
:102250000E94CC048130D9F380E093E09A83898393
:1022600081E090E09C838B830E943A0264E081E0ED
:102270000E94660260E081E00E9466026801EE242E
:10228000E394F12C0FC0F601608181E00E946602A8
:10229000F4E0EF16F104A9F02FEFE21AF20A3FEF93
:1022A000C31AD30A81E0E816F10469F781E00E94BD
:1022B000CC048823D9F3F601608181E00E94660294
:1022C000EBCF81E00E944D0281E00E943A0281E062
:1022D0000E94CC048823D9F36FEF81E00E9431047F
:1022E0008093F0056FEF81E00E9431048093F10547
:1022F00081E00E944D0281E00E94CC048130D9F33C
:102300008091050881110C94AF208FEF90E02FEFA2
:102310003FEF42E551E05A8349833C832B839E8300
:102320008D8381E00E943A0266E081E00E946602AD
:1023300060E081E00E9466026801EE24E394F12CE3
:102340000FC0F601608181E00E946602F6E0EF16A0
:10235000F104A9F02FEFE21AF20A3FEFC31AD30AF1
:1023600081E0E816F10469F781E00E94CC0488233B
:10237000D9F3F601608181E00E946602EBCF81E033
:102380000E944D0281E00E943A0281E00E94CC044A
:102390008823D9F36FEF81E00E9431048093F00528
:1023A0006FEF81E00E9431048093F10581E00E948B
:1023B0004D0281E00E94CC048130D9F380E591E0A8
:1023C0009A83898380E797E09C838B8388E797E0F3
:1023D0009E838D8388EF94E098878F839A8789877F
:1023E00081E00E943A026AE081E00E94660260E0B9
:1023F00081E00E9466026801EE24E394F12C0FC094
:10240000F601608181E00E946602FAE0EF16F104B5
:10241000A9F02FEFE21AF20A3FEFC31AD30A81E0C4
:10242000E816F10469F781E00E94CC048823D9F30F
:10243000F601608181E00E946602EBCF81E00E949C
:102440004D0281E00E943A0281E00E94CC04882380
:10245000D9F36FEF81E00E9431048093F0056FEFB4
:1024600081E00E9431048093F10581E00E944D02D9
:1024700081E00E94CC048130D9F3E091F707F0911C
:10248000F807EE0FFF1FE35EF84F60817181072EA2
:10249000000C880B990B0E94B23B2FE632E143E817
:1024A00050E40E94673C20E030E040E85BE30E949B
:1024B000673C9F938F937F936F9387E894E09F93FC
:1024C0008F936E012DEEC21A2EEFD20ADF92CF92B9
:1024D0000E94824080910F0890911008A0911108ED
:1024E000B091120821E031E03A8329832FE030E0F7
:1024F0003C832B8320EC38E03E832D8320E837E0BB
:1025000038872F839A878987BC87AB8785E090E0DF
:102510009E878D87188A1F861A8A198AB601CE016E
:1025200043960E9484064C01801A910A81E00E9421
:102530003A02682D81E00E946602692D81E00E94C6
:1025400066020FB6F894DEBF0FBECDBF81149104B2
:1025500001F15801E12CF12C0CC0F50161915F01F2
:1025600081E00E946602FFEFEF1AFF0A8E149F04BB
:1025700081F0C7018F739927892B79F781E00E9439
:10258000CC048111EACF81E00E94CC048823B1F30E
:10259000E4CF81E00E944D0281E00E943A0281E096
:1025A0000E94CC048823D9F36FEF81E00E943104AC
:1025B0008093F0056FEF81E00E9431048093F10574
:1025C00081E00E944D0281E00E94CC048130D9F369
:1025D00080910F0890911008A0911108B0911208F5
:1025E00021E031E03A8329832EE030E03C832B83E5
:1025F00020E139E03E832D8320EA37E038872F83BE
:102600009A878987BC87AB8784E090E09E878D8717
:10261000188A1F861A8A198A6DE874E0CE014396DB
:102620000E9484064C01801A910A81E00E943A02BD
:10263000682D81E00E946602692D81E00E94660299
:102640008114910401F15801E12CF12C0CC0F50129
:1026500061915F0181E00E946602FFEFEF1AFF0ABD
:102660008E149F0481F0C7018F739927892B79F706
:1026700081E00E94CC048111EACF81E00E94CC0469
:102680008823B1F3E4CF81E00E944D0281E00E94F3
:102690003A0281E00E94CC048823D9F36FEF81E0F5
:1026A0000E9431048093F0056FEF81E00E943104B5
:1026B0008093F10581E00E944D0281E00E94CC04EC
:1026C0008130D9F380E093E09A83898386E090E0BB
:1026D0009C838B8381E00E943A0264E081E00E9447
:1026E000660260E081E00E9466025801EE24E394F5
:1026F000F12C0FC0F501608181E00E946602F4E0D8
:10270000EF16F104A9F02FEFE21AF20A3FEFA31A35
:10271000B30A81E0E816F10469F781E00E94CC0475
:102720008823D9F3F501608181E00E946602EBCF36
:1027300081E00E944D0281E00E943A0281E00E9405
:10274000CC048823D9F36FEF81E00E943104809399
:10275000F0056FEF81E00E9431048093F10581E084
:102760000E944D0281E00E94CC048130D9F382E5C1
:1027700091E09A83898387E89FED9C838B8389E826
:1027800090E09E838D8381E00E943A0266E081E0C2
:102790000E94660260E081E00E9466025801EE2419
:1027A000E394F12C0FC0F501608181E00E94660284
:1027B000F6E0EF16F104A9F02FEFE21AF20A3FEF6C
:1027C000A31AB30A81E0E816F10469F781E00E94D8
:1027D000CC048823D9F3F501608181E00E94660270
:1027E000EBCF81E00E944D0281E00E943A0281E03D
:1027F0000E94CC048823D9F36FEF81E00E9431045A
:102800008093F0056FEF81E00E9431048093F10521
:1028100081E00E944D0281E00E94CC048130D9F316
:1028200080E591E09A83898380E79CE09C838B8399
:1028300088E797E09E838D8388EF94E098878F8365
:102840009A87898781E00E943A026AE081E00E94CB
:10285000660260E081E00E9466025801EE24E39483
:10286000F12C0FC0F501608181E00E946602FAE060
:10287000EF16F104A9F02FEFE21AF20A3FEFA31AC4
:10288000B30A81E0E816F10469F781E00E94CC0404
:102890008823D9F3F501608181E00E946602EBCFC5
:1028A00081E00E944D0281E00E943A0281E00E9494
:1028B000CC048823D9F36FEF81E00E943104809328
:1028C000F0056FEF81E00E9431048093F10581E013
:1028D0000E944D0281E00E94CC048130D9F3E09146
:1028E000F707F091F807EE0FFF1FEE0FFF1F809123
:1028F000F5079091F607E80FF91FEE0FFF1FEB5C4D
:10290000F84F81818F9380818F9389EB94E09F931F
:102910008F93DF92CF920E94824080910F08909116
:102920001008A0911108B091120821E031E03A831B
:1029300029832FE030E03C832B8320E83CE03E837A
:102940002D8320E837E038872F839A878987BC87D3
:10295000AB8784E090E09E878D87188A1F861A8A4D
:10296000198A6FE874E0CE0143960E9484064C01F8
:10297000801A910A81E00E943A02682D81E00E944B
:102980006602692D81E00E9466020F900F900F9001
:102990000F900F900F908114910401F15801E12CD8
:1029A000F12C0CC0F50161915F0181E00E9466028B
:1029B000FFEFEF1AFF0A8E149F0481F0C7018F7397
:1029C0009927892B79F781E00E94CC048111EACF05
:1029D00081E00E94CC048823B1F3E4CF81E00E941F
:1029E0004D0281E00E943A0281E00E94CC048823DB
:1029F000D9F36FEF81E00E9431048093F0056FEF0F
:102A000081E00E9431048093F10581E00E944D0233
:102A100081E00E94CC048130D9F380E093E09A8376
:102A2000898382E090E09C838B8381E00E943A025C
:102A300064E081E00E94660260E081E00E9466023C
:102A40005801EE24E394F12C0FC0F501608181E080
:102A50000E946602F4E0EF16F104A9F02FEFE21AEB
:102A6000F20A3FEFA31AB30A81E0E816F10469F70E
:102A700081E00E94CC048823D9F3F501608181E0D4
:102A80000E946602EBCF81E00E944D0281E00E942D
:102A90003A0281E00E94CC048823D9F36FEF81E0F1
:102AA0000E9431048093F0056FEF81E00E943104B1
:102AB0008093F10581E00E944D0281E00E94CC04E8
:102AC0008130D9F38091060881110C94A9208FEFF1
:102AD00090E02FEF3FEF42E551E05A8349833C837A
:102AE0002B839E838D8381E00E943A0266E081E021
:102AF0000E94660260E081E00E9466025801EE24B6
:102B0000E394F12C0FC0F501608181E00E94660220
:102B1000F6E0EF16F104A9F02FEFE21AF20A3FEF08
:102B2000A31AB30A81E0E816F10469F781E00E9474
:102B3000CC048823D9F3F501608181E00E9466020C
:102B4000EBCF81E00E944D0281E00E943A0281E0D9
:102B50000E94CC048823D9F36FEF81E00E943104F6
:102B60008093F0056FEF81E00E9431048093F105BE
:102B700081E00E944D0281E00E94CC048130D9F3B3
:102B800080E591E09A83898380E79CE09C838B8336
:102B900088E391E09E838D8388EF94E098878F830C
:102BA00088E792E09A87898781E00E943A026AE08A
:102BB00081E00E94660260E081E00E9466025801A6
:102BC000EE24E394F12C0FC0F501608181E00E94B6
:102BD0006602FAE0EF16F104A9F02FEFE21AF20A0A
:102BE0003FEFA31AB30A81E0E816F10469F781E028
:102BF0000E94CC048823D9F3F501608181E00E9412
:102C00006602EBCF81E00E944D0281E00E943A0211
:102C100081E00E94CC048823D9F36FEF81E00E9409
:102C200031048093F0056FEF81E00E9431048093BE
:102C3000F10581E00E944D0281E00E94CC048130C8
:102C4000D9F3209018023090190237FCC5C040908B
:102C50001102509012026090130270901402809141
:102C6000F7079091F807880F991F880F991F880F11
:102C7000991F9C012B56384FC75BDE4F3983288341
:102C8000C954D14020E030E040E85FE3E12CF12C72
:102C9000CB5BDE4F1882C554D140CA5BDE4F188231
:102CA000C654D140C95BDE4F1882C754D140C85BBF
:102CB000DE4F1882C854D140C75BDE4FE881F981EE
:102CC000C954D14061917191C75BDE4FF983E883AC
:102CD000C954D140072E000C880B990BC55BDE4F01
:102CE0002883CB54D140C45BDE4F3883CC54D140D1
:102CF000C35BDE4F4883CD54D140C25BDE4F588367
:102D0000CE54D1400E94B23B4B015C01C55BDE4F0B
:102D10002881CB54D140C45BDE4F3881CC54D140A4
:102D2000C35BDE4F4881CD54D140C25BDE4F58813A
:102D3000CE54D140C301B2010E94083B9B01AC01BB
:102D4000C501B4010E94673C9B01AC01CB5BDE4F27
:102D5000E881C554D140CA5BDE4FB881C654D1402A
:102D6000C95BDE4FA881C754D140C85BDE4FF881F4
:102D7000C854D1406E2F7B2F8A2F9F2F0E94973AE5
:102D8000CB5BDE4F6883C554D140CA5BDE4F78838E
:102D9000C654D140C95BDE4F8883C754D140C85B5D
:102DA000DE4F9883C854D140FFEFEF1AFF0A2E146C
:102DB0003F0434F1B7010F2C000C880B990B0E94D3
:102DC000B23B9B01AC0160E070E080E090E40E94C7
:102DD000D43C9B01AC0170CFCB5BDE4F1882C55455
:102DE000D140CA5BDE4F1882C654D140C95BDE4F6A
:102DF0001882C754D140C85BDE4F1882C854D140F6
:102E0000C85BDE4F2881C854D1402F93C95BDE4F89
:102E10003881C754D1403F93CA5BDE4F8881C65486
:102E2000D1408F93CB5BDE4F9881C554D1409F93A7
:102E300084E994E09F938F93DF92CF920E94824027
:102E400080910F0890911008A0911108B09112087C
:102E500021E031E03A8329832FE030E03C832B836B
:102E600028E53EE03E832D8320E431E038872F8340
:102E70009A878987BC87AB8785E090E09E878D879E
:102E8000188A1F861A8A198AB601CE0143960E94B3
:102E900084064C01801A910A81E00E943A02682D52
:102EA00081E00E946602692D81E00E9466020FB6F1
:102EB000F894DEBF0FBECDBF8114910401F158011B
:102EC000E12CF12C0CC0F50161915F0181E00E94C1
:102ED0006602FFEFEF1AFF0A8E149F0481F0C7010C
:102EE0008F739927892B79F781E00E94CC04811197
:102EF000EACF81E00E94CC048823B1F3E4CF81E0E3
:102F00000E944D0281E00E943A0281E00E94CC04BE
:102F10008823D9F36FEF81E00E9431048093F0059C
:102F20006FEF81E00E9431048093F10581E00E94FF
:102F30004D0281E00E94CC048130D9F380910F08CA
:102F400090911008A0911108B091120821E031E091
:102F50003A8329832CE030E03C832B8328E83EE051
:102F60003E832D8320EA30E038872F839A87898734
:102F7000BC87AB8784E090E09E878D87188A1F8688
:102F80001A8A198A66EB74E0CE0143960E94840681
:102F90004C01801A910A81E00E943A02682D81E07A
:102FA0000E946602692D81E00E94660281149104EC
:102FB00001F15801E12CF12C0CC0F50161915F0188
:102FC00081E00E946602FFEFEF1AFF0A8E149F0451
:102FD00081F0C7018F739927892B79F781E00E94CF
:102FE000CC048111EACF81E00E94CC048823B1F3A4
:102FF000E4CF81E00E944D0281E00E943A0281E02C
:103000000E94CC048823D9F36FEF81E00E94310441
:103010008093F0056FEF81E00E9431048093F10509
:1030200081E00E944D0281E00E94CC048130D9F3FE
:1030300080E093E09A83898385E090E09C838B8392
:1030400081E00E943A0264E081E00E94660260E052
:1030500081E00E9466025801EE24E394F12C0FC037
:10306000F501608181E00E946602F4E0EF16F10450
:10307000A9F02FEFE21AF20A3FEFA31AB30A81E098
:10308000E816F10469F781E00E94CC048823D9F3A3
:10309000F501608181E00E946602EBCF81E00E9431
:1030A0004D0281E00E943A0281E00E94CC04882314
:1030B000D9F36FEF81E00E9431048093F0056FEF48
:1030C00081E00E9431048093F10581E00E944D026D
:1030D00081E00E94CC048130D9F3809109088111EC
:1030E0000C94A32089E890E027E83FED42E551E009
:1030F0005A8349833C832B839E838D8381E00E9486
:103100003A0266E081E00E94660260E081E00E948F
:1031100066025801EE24E394F12C0FC0F5016081A2
:1031200081E00E946602F6E0EF16F104A9F02FEFAD
:10313000E21AF20A3FEFA31AB30A81E0E816F1049B
:1031400069F781E00E94CC048823D9F3F5016081FE
:1031500081E00E946602EBCF81E00E944D0281E097
:103160000E943A0281E00E94CC048823D9F36FEFD9
:1031700081E00E9431048093F0056FEF81E00E94AE
:1031800031048093F10581E00E944D0281E00E94AC
:10319000CC048130D9F380E591E09A83898380E77C
:1031A0009CE09C838B8388EB93E09E838D8388EFE8
:1031B00094E098878F8388E792E09A87898781E0F7
:1031C0000E943A026AE081E00E94660260E081E0CB
:1031D0000E9466025801EE24E394F12C0FC0F50121
:1031E000608181E00E946602FAE0EF16F104A9F026
:1031F0002FEFE21AF20A3FEFA31AB30A81E0E816B2
:10320000F10469F781E00E94CC048823D9F3F50129
:10321000608181E00E946602EBCF81E00E944D0256
:1032200081E00E943A0281E00E94CC048823D9F315
:103230006FEF81E00E9431048093F0056FEF81E031
:103240000E9431048093F10581E00E944D0281E0EB
:103250000E94CC048130D9F380910F08909110081E
:10326000A0911108B091120821E031E03A8329833E
:103270002DE030E03C832B8320E83CE03E832D832F
:1032800020EC33E038872F839A878987BC87AB8708
:1032900084E090E09E878D87188A1F861A8A198A93
:1032A00069E974E0CE0143960E9484064C01801ABD
:1032B000910A81E00E943A02682D81E00E94660234
:1032C000692D81E00E9466028114910401F1580188
:1032D000E12CF12C0CC0F50161915F0181E00E94AD
:1032E0006602FFEFEF1AFF0A8E149F0481F0C701F8
:1032F0008F739927892B79F781E00E94CC04811183
:10330000EACF81E00E94CC048823B1F3E4CF81E0CE
:103310000E944D0281E00E943A0281E00E94CC04AA
:103320008823D9F36FEF81E00E9431048093F00588
:103330006FEF81E00E9431048093F10581E00E94EB
:103340004D0281E00E94CC048130D9F380E093E00B
:103350009A83898383E090E09C838B8381E00E9441
:103360003A0264E081E00E94660260E081E00E942F
:1033700066025801EE24E394F12C0FC0F501608140
:1033800081E00E946602F4E0EF16F104A9F02FEF4D
:10339000E21AF20A3FEFA31AB30A81E0E816F10439
:1033A00069F781E00E94CC048823D9F3F50160819C
:1033B00081E00E946602EBCF81E00E944D0281E035
:1033C0000E943A0281E00E94CC048823D9F36FEF77
:1033D00081E00E9431048093F0056FEF81E00E944C
:1033E00031048093F10581E00E944D0281E00E944A
:1033F000CC048130D9F38091070881119FC68FEFEB
:1034000090E02FEF3FEF42E551E05A8349833C8340
:103410002B839E838D8381E00E943A0266E081E0E7
:103420000E94660260E081E00E9466025801EE247C
:10343000E394F12C0FC0F501608181E00E946602E7
:10344000F6E0EF16F104A9F02FEFE21AF20A3FEFCF
:10345000A31AB30A81E0E816F10469F781E00E943B
:10346000CC048823D9F3F501608181E00E946602D3
:10347000EBCF81E00E944D0281E00E943A0281E0A0
:103480000E94CC048823D9F36FEF81E00E943104BD
:103490008093F0056FEF81E00E9431048093F10585
:1034A00081E00E944D0281E00E94CC048130D9F37A
:1034B00080E591E09A83898380E797E09C838B8302
:1034C00088E391E09E838D8388EF94E098878F83D3
:1034D00088E792E09A87898781E00E943A026AE051
:1034E00081E00E94660260E081E00E94660258016D
:1034F000EE24E394F12C0FC0F501608181E00E947D
:103500006602FAE0EF16F104A9F02FEFE21AF20AD0
:103510003FEFA31AB30A81E0E816F10469F781E0EE
:103520000E94CC048823D9F3F501608181E00E94D8
:103530006602EBCF81E00E944D0281E00E943A02D8
:1035400081E00E94CC048823D9F36FEF81E00E94D0
:1035500031048093F0056FEF81E00E943104809385
:10356000F10581E00E944D0281E00E94CC0481308F
:10357000D9F3E091F707F091F807EE0FFF1FEE0F78
:10358000FF1F8091F5079091F607E80FF91FEE0FE6
:10359000FF1FEB56F84F81818F9380818F9389EBCA
:1035A00094E09F938F93DF92CF920E94824080910C
:1035B0000F0890911008A0911108B091120821E015
:1035C00031E03A8329832FE030E03C832B8320ECE9
:1035D00037E03E832D8320E431E038872F839A87BC
:1035E0008987BC87AB8785E090E09E878D87188AA6
:1035F0001F861A8A198AB601CE0143960E94840654
:103600004C01801A910A81E00E943A02682D81E003
:103610000E946602692D81E00E9466020F900F9061
:103620000F900F900F900F908114910401F15801A9
:10363000E12CF12C0CC0F50161915F0181E00E9449
:103640006602FFEFEF1AFF0A8E149F0481F0C70194
:103650008F739927892B79F781E00E94CC0481111F
:10366000EACF81E00E94CC048823B1F3E4CF81E06B
:103670000E944D0281E00E943A0281E00E94CC0447
:103680008823D9F36FEF81E00E9431048093F00525
:103690006FEF81E00E9431048093F10581E00E9488
:1036A0004D0281E00E94CC048130D9F380910F0853
:1036B00090911008A0911108B091120821E031E01A
:1036C0003A8329832CE030E03C832B8320EC38E0E4
:1036D0003E832D8320E831E038872F839A878987BE
:1036E000BC87AB8784E090E09E878D87188A1F8611
:1036F0001A8A198A63EA74E0CE0143960E9484060E
:103700004C01801A910A81E00E943A02682D81E002
:103710000E946602692D81E00E9466028114910474
:1037200001F15801E12CF12C0CC0F50161915F0110
:1037300081E00E946602FFEFEF1AFF0A8E149F04D9
:1037400081F0C7018F739927892B79F781E00E9457
:10375000CC048111EACF81E00E94CC048823B1F32C
:10376000E4CF81E00E944D0281E00E943A0281E0B4
:103770000E94CC048823D9F36FEF81E00E943104CA
:103780008093F0056FEF81E00E9431048093F10592
:1037900081E00E944D0281E00E94CC048130D9F387
:1037A00080E093E09A83898388E090E09C838B8318
:1037B00081E00E943A0264E081E00E94660260E0DB
:1037C00081E00E9466025801EE24E394F12C0FC0C0
:1037D000F501608181E00E946602F4E0EF16F104D9
:1037E000A9F02FEFE21AF20A3FEFA31AB30A81E021
:1037F000E816F10469F781E00E94CC048823D9F32C
:10380000F501608181E00E946602EBCF81E00E94B9
:103810004D0281E00E943A0281E00E94CC0488239C
:10382000D9F36FEF81E00E9431048093F0056FEFD0
:1038300081E00E9431048093F10581E00E944D02F5
:1038400081E00E94CC048130D9F380910C08811171
:1038500070C48FEF90E02FEF3FEF42E551E05A83C5
:1038600049833C832B839E838D8381E00E943A02AF
:1038700066E081E00E94660260E081E00E946602EC
:103880005801EE24E394F12C0FC0F501608181E032
:103890000E946602F6E0EF16F104A9F02FEFE21A9B
:1038A000F20A3FEFA31AB30A81E0E816F10469F7C0
:1038B00081E00E94CC048823D9F3F501608181E086
:1038C0000E946602EBCF81E00E944D0281E00E94DF
:1038D0003A0281E00E94CC048823D9F36FEF81E0A3
:1038E0000E9431048093F0056FEF81E00E94310463
:1038F0008093F10581E00E944D0281E00E94CC049A
:103900008130D9F380E591E09A83898380E797E05D
:103910009C838B8388EB93E09E838D8388EF94E078
:1039200098878F8388E792E09A87898781E00E9451
:103930003A026AE081E00E94660260E081E00E9453
:1039400066025801EE24E394F12C0FC0F50160816A
:1039500081E00E946602FAE0EF16F104A9F02FEF71
:10396000E21AF20A3FEFA31AB30A81E0E816F10463
:1039700069F781E00E94CC048823D9F3F5016081C6
:1039800081E00E946602EBCF81E00E944D0281E05F
:103990000E943A0281E00E94CC048823D9F36FEFA1
:1039A00081E00E9431048093F0056FEF81E00E9476
:1039B00031048093F10581E00E944D0281E00E9474
:1039C000CC048130D9F36091F5077091F607072E8A
:1039D000000C880B990B0E94B23B9B01AC0160E08C
:1039E00070E080E090E40E94D43C9F938F937F939B
:1039F0006F9389EA94E09F938F93DF92CF920E9416
:103A0000824080910F0890911008A0911108B09108
:103A1000120821E031E03A83298320E130E03C8341
:103A20002B8320E837E03E832D8320EC33E038877A
:103A30002F839A878987BC87AB8784E090E09E8735
:103A40008D87188A1F861A8A198AB601CE01439675
:103A50000E9484064C01801A910A81E00E943A0279
:103A6000682D81E00E946602692D81E00E94660255
:103A70000FB6F894DEBF0FBECDBF8114910401F1E3
:103A80005801E12CF12C0CC0F50161915F0181E03E
:103A90000E946602FFEFEF1AFF0A8E149F0481F066
:103AA000C7018F739927892B79F781E00E94CC0495
:103AB0008111EACF81E00E94CC048823B1F3E4CFE6
:103AC00081E00E944D0281E00E943A0281E00E9462
:103AD000CC048823D9F36FEF81E00E9431048093F6
:103AE000F0056FEF81E00E9431048093F10581E0E1
:103AF0000E944D0281E00E94CC048130D9F3609194
:103B0000F5077091F607072E000C880B990B0E94A1
:103B1000B23B9B01AC0160E070E080E090E40E9469
:103B2000D43C9B01AC016091110270911202809112
:103B30001302909114020E94083B9F938F937F93EE
:103B40006F9380EB94E09F938F93DF92CF920E94CC
:103B5000824080910F0890911008A0911108B091B7
:103B6000120821E031E03A8329832BE030E03C83E6
:103B70002B8328E839E03E832D8320EB34E038871F
:103B80002F839A878987BC87AB8785E090E09E87E3
:103B90008D87188A1F861A8A198AB601CE01439624
:103BA0000E9484064C01801A910A81E00E943A0228
:103BB000682D81E00E946602692D81E00E94660204
:103BC0000FB6F894DEBF0FBECDBF8114910401F192
:103BD0005801E12CF12C0CC0F50161915F0181E0ED
:103BE0000E946602FFEFEF1AFF0A8E149F0481F015
:103BF000C7018F739927892B79F781E00E94CC0444
:103C00008111EACF81E00E94CC048823B1F3E4CF94
:103C100081E00E944D0281E00E943A0281E00E9410
:103C2000CC048823D9F36FEF81E00E9431048093A4
:103C3000F0056FEF81E00E9431048093F10581E08F
:103C40000E944D0281E00E94CC048130D9F3809122
:103C50000F0890911008A0911108B091120821E06E
:103C600031E03A8329832AE030E03C832B8328E843
:103C700039E03E832D8320E734E038872F839A870D
:103C80008987BC87AB8783E090E09E878D87188A01
:103C90001F861A8A198A65EB74E0CE0143960E944A
:103CA00084064C01801A910A81E00E943A02682D34
:103CB00081E00E946602692D81E00E946602811403
:103CC000910401F15801E12CF12C0CC0F501619136
:103CD0005F0181E00E946602FFEFEF1AFF0A8E1477
:103CE0009F0481F0C7018F739927892B79F781E0B1
:103CF0000E94CC048111EACF81E00E94CC04882389
:103D0000B1F3E4CF81E00E944D0281E00E943A02CB
:103D100081E00E94CC048823D9F36FEF81E00E94F8
:103D200031048093F0056FEF81E00E9431048093AD
:103D3000F10581E00E944D0281E00E94CC048130B7
:103D4000D9F380E093E09A83898389E090E09C83B3
:103D50008B8381E00E943A0264E081E00E94660267
:103D600060E081E00E9466025801EE24E394F12CA9
:103D70000FC0F501608181E00E946602F4E0EF1659
:103D8000F104A9F02FEFE21AF20A3FEFA31AB30AE7
:103D900081E0E816F10469F781E00E94CC048823F1
:103DA000D9F3F501608181E00E946602EBCF81E0EA
:103DB0000E944D0281E00E943A0281E00E94CC0400
:103DC0008823D9F36FEF81E00E9431048093F005DE
:103DD0006FEF81E00E9431048093F10581E00E9441
:103DE0004D0281E00E94CC048130D9F380910D080E
:103DF00081119AC18FEF90E02FEF3FEF42E551E044
:103E00005A8349833C832B839E838D8381E00E9468
:103E10003A0266E081E00E94660260E081E00E9472
:103E200066025801EE24E394F12C0FC0F501608185
:103E300081E00E946602F6E0EF16F104A9F02FEF90
:103E4000E21AF20A3FEFA31AB30A81E0E816F1047E
:103E500069F781E00E94CC048823D9F3F5016081E1
:103E600081E00E946602EBCF81E00E944D0281E07A
:103E70000E943A0281E00E94CC048823D9F36FEFBC
:103E800081E00E9431048093F0056FEF81E00E9491
:103E900031048093F10581E00E944D0281E00E948F
:103EA000CC048130D9F380E591E09A83898380E75F
:103EB00092E09C838B8388E792E09E838D8388EFDA
:103EC00094E098878F839A87898781E00E943A02DD
:103ED0006AE081E00E94660260E081E00E94660282
:103EE0005801EE24E394F12C0FC0F501608181E0CC
:103EF0000E946602FAE0EF16F104A9F02FEFE21A31
:103F0000F20A3FEFA31AB30A81E0E816F10469F759
:103F100081E00E94CC048823D9F3F501608181E01F
:103F20000E946602EBCF81E00E944D0281E00E9478
:103F30003A0281E00E94CC048823D9F36FEF81E03C
:103F40000E9431048093F0056FEF81E00E943104FC
:103F50008093F10581E00E944D0281E00E94CC0433
:103F60008130D9F38091F7079091F80701969F93DC
:103F70008F9388EB94E09F938F93DF92CF920E9470
:103F8000824080910F0890911008A0911108B09183
:103F9000120821E031E03A83298320E130E03C83BC
:103FA0002B8320E832E03E832D8338872F839A8746
:103FB0008987BC87AB8784E090E09E878D87188ACD
:103FC0001F861A8A198AB601CE0143960E9484067A
:103FD0004C01801A910A81E00E943A02682D81E02A
:103FE0000E946602692D81E00E9466020F900F9088
:103FF0000F900F900F900F908114910401F15801D0
:10400000E12CF12C0CC0F50161915F0181E00E946F
:104010006602FFEFEF1AFF0A8E149F0481F0C701BA
:104020008F739927892B79F781E00E94CC04811145
:10403000EACF81E00E94CC048823B1F3E4CF81E091
:104040000E944D0281E00E943A0281E00E94CC046D
:104050008823D9F36FEF81E00E9431048093F0054B
:104060006FEF81E00E9431048093F10581E00E94AE
:104070004D0281E00E94CC048130D9F38091F10897
:10408000882309F472C081E00E943A0262E081E074
:104090000E94660260E081E00E94660281E00E9468
:1040A000CC048823D9F361E881E00E94660261E0D4
:1040B00081E00E94660281E00E944D0281E00E9440
:1040C0003A0281E00E94CC048823D9F36FEF81E0AB
:1040D0000E9431048093F0056FEF81E00E9431046B
:1040E0008093F10581E00E944D0281E00E94CC04A2
:1040F0008130D9F3C25BDE4F0FB6F894DEBF0FBE3E
:10410000CDBFDF91CF911F910F91FF90EF90DF9086
:10411000CF90BF90AF909F908F907F906F905F9067
:104120004F903F902F9008958DEA90E026EE38ED65
:1041300065CE8DEA90E026EE38ED8FCB8DEA90E0EB
:1041400026EE38ED60C98DEA90E026EE38ED0C944D
:1041500076188DEA90E026EE38ED0C946B158DEA1A
:1041600090E026EE38ED0C94891180E093E09A837C
:10417000898384E090E09C838B8381E00E943A02F3
:1041800064E081E00E94660260E081E00E946602D5
:104190005801EE24E394F12C0FC0F501608181E019
:1041A0000E946602F4E0EF16F104A9F02FEFE21A84
:1041B000F20A3FEFA31AB30A81E0E816F10469F7A7
:1041C00081E00E94CC048823D9F3F501608181E06D
:1041D0000E946602EBCF81E00E944D0281E00E94C6
:1041E0003A0281E00E94CC048823D9F36FEF81E08A
:1041F0000E9431048093F0056FEF81E00E9431044A
:104200008093F10581E00E944D0281E00E94CC0480
:104210008130D9F3E091F707F091F807EF5EF84F9E
:104220008081811143C18FEF90E026E636E642E5BA
:1042300051E05A8349833C832B839E838D8381E0A5
:104240000E943A0266E081E00E94660260E081E03E
:104250000E9466025801EE24E394F12C0FC0F50190
:10426000608181E00E946602F6E0EF16F104A9F099
:104270002FEFE21AF20A3FEFA31AB30A81E0E81621
:10428000F10469F781E00E94CC048823D9F3F50199
:10429000608181E00E946602EBCF81E00E944D02C6
:1042A00081E00E943A0281E00E94CC048823D9F385
:1042B0006FEF81E00E9431048093F0056FEF81E0A1
:1042C0000E9431048093F10581E00E944D0281E05B
:1042D0000E94CC048130D9F380E591E09A838983F0
:1042E00080E792E09C838B8388E797E09E838D83B1
:1042F00088EF94E098878F839A87898781E00E946E
:104300003A026AE081E00E94660260E081E00E9479
:1043100066025801EE24E394F12C0FC0F501608190
:1043200081E00E946602FAE0EF16F104A9F02FEF97
:10433000E21AF20A3FEFA31AB30A81E0E816F10489
:1043400069F781E00E94CC048823D9F3F5016081EC
:1043500081E00E946602EBCF81E00E944D0281E085
:104360000E943A0281E00E94CC048823D9F36FEFC7
:1043700081E00E9431048093F0056FEF81E00E949C
:1043800031048093F10581E00E944D0281E00E949A
:10439000CC048130D9F38091EF0881118FC0E09176
:1043A000F707F091F807EF5EF84F8081811183C025
:1043B00063E874E0C6010E94873F80910F089091E6
:1043C0001008A0911108B091120821E031E03A8361
:1043D00029832FE030E03C832B8320E832E03E83CA
:1043E0002D8320E837E038872F839A878987BC8719
:1043F000AB8784E090E09E878D87188A1F861A8A93
:10440000198AB601CE0143960E9484066C01C01A37
:10441000D10A81E00E943A026C2D81E00E9466027E
:104420006D2D81E00E946602C114D104F9F0E12CE7
:10443000F12C0CC0F80161918F0181E00E946602AD
:10444000FFEFEF1AFF0ACE14DF0481F097012F73FC
:104450003327232B79F781E00E94CC048111EACF26
:1044600081E00E94CC048823B1F3E4CF81E00E9474
:104470004D0281E00E943A0281E00E94CC04882330
:10448000D9F36FEF81E00E9431048093F0056FEF64
:1044900081E00E9431048093F10581E00E944D0289
:1044A00081E00E94CC048130D9F3EDCD89E890E021
:1044B00027E83FEDBCCE60E874E07CCF86E0ECEB13
:1044C000F4E0D60101900D928A95E1F776CF0F9333
:1044D0001F93CF93DF9381E00E943A0262E081E074
:1044E0000E94660260E081E00E94660281E00E9414
:1044F000CC048823D9F362E081E00E94660263E085
:1045000081E00E94660281E00E944D0281E00E94EB
:104510003A0200EF15E0C1E0D0E00CC06FEF81E09F
:104520000E943104F8018083CA30D10591F02196B0
:104530000F5F1F4FC130D10589F781E00E94CC0485
:104540008823D9F36FEF81E00E943104F801808362
:10455000EECF81E00E944D0281E00E94CC048130C8
:10456000D9F38091F30590E0982F88272091F205E8
:10457000822B90930308809302088091F50590E0C8
:10458000982F88272091F405822B9093010880931F
:1045900000088091F70590E0982F88272091F60574
:1045A000822B9093FF078093FE072091F90530E05E
:1045B000322F22274091F805242B3093FB072093BC
:1045C000FA078130910559F01092F9079093FD0791
:1045D0008093FC07DF91CF911F910F910895209157
:1045E000FC073091FD07232B79F72091F907211162
:1045F000EBCF21E02093F907E9CF2091FE0730911E
:10460000FF072130310519F0FC0110820895209137
:10461000FC073091FD07232BB9F7FC012081211104
:10462000F3CF21E020830895149828E130E088EF4B
:1046300090E0A0E0B0E009C0169A159AB695A7954B
:10464000979587952150310929F0159880FDF4CF71
:104650001698F3CF149A08951F93CF93DF93989AE7
:10466000A09AE1E0F1E080818B7F8083E2E0F1E0DD
:1046700080818B7F8083999AA1989B9AA398579A5F
:104680005F9A8FEF81B980EF809304018FE087B943
:1046900081E982B9C2EFD8E0188219821A821B829E
:1046A00011E0109329020E94DC0C0E94CF080E94A6
:1046B000BF06188219821A821B82109329022FEFDB
:1046C00041EE54E0215040405040E1F700C000006E
:1046D00018B80E941423E091F707F091F80728B169
:1046E000C3E0D0E0CF01BE010E94573AAF01481BA2
:1046F000590BCA01BE010E94573A81E090E001C007
:10470000880F6A95EAF780952F60282328B95FEF14
:1047100083E294EF515080409040E1F700C00000E8
:10472000DF91CF911F9108950F931F93CF93DF9344
:10473000E091F707F091F80703E010E0CF01B8012E
:104740000E94573AEC0128B1CF018C1B9D0BB80198
:104750000E94573A41E050E001C0440F6A95EAF7E1
:1047600040952F60242328B9E091F707F091F807CE
:10477000EE0FFF1FE35EF84F208131813063CC0FD5
:10478000C9019C2B149820E130E007C01698159AB7
:10479000880F991F2150310951F0159897FFF6CFD6
:1047A000169A159A880F991F21503109B1F716985A
:1047B00088E090E01598159A0197E1F7149ADF9137
:1047C000CF911F910F9108952F923F924F925F9238
:1047D0006F927F928F929F92AF92BF92CF92DF9211
:1047E000EF92FF920F931F93CF93DF9393B103B197
:1047F00080912902882309F459C0E4E0F8E0C0E080
:10480000D0E08191811104C02196CA30D105C9F749
:1048100096FB112710F98091120981115AC08091DD
:10482000110905FB002700F98111BFC08091100913
:10483000882389F08091DE08873008F006C18F5FF9
:104840008093DE08873009F400C1002321F0109224
:1048500010091092DE0880910F09882389F0809159
:10486000DD08873008F041C18F5F8093DD08873015
:1048700009F43BC1112321F010920F091092DD08B9
:1048800080910D0990911309891741F020910B092E
:1048900030910C09C217D30709F487C110920D0992
:1048A00010921309D0930C09C0930B09DF91CF919B
:1048B0001F910F91FF90EF90DF90CF90BF90AF903E
:1048C0009F908F907F906F905F904F903F902F9030
:1048D0000895809111098823C1F0C130D1050CF4ED
:1048E00053C1C430D10524F02897229708F04CC159
:1048F000109210091092DE0810920F091092DD0834
:104900001092120910921109D1CF809110098111D2
:1049100033C191E090930F09111133C1C330D10518
:1049200009F480C20CF4D8C5C830D10509F45BC6BF
:10493000C930D105B1F55F988FE19EE40197F1F799
:1049400000C00000E090F707F090F80791E0E91A46
:10495000F108B7010F2C000C880B990B0E94B23B99
:104960004B015C01C0901A02D0901B02B60180E09E
:1049700090E00E94B03B9B01AC01C501B4010E94D4
:10498000623C18160CF479C620E030E0A901C5019C
:10499000B4010E94033B87FD7601F092F807E09294
:1049A000F7075F9A80911109ECC090910F0991115E
:1049B00093C091E090931009011194C0C330D105C8
:1049C00009F494C20CF443C5C830D10509F4C9C533
:1049D000C930D105B1F55F988FE19EE40197F1F7F9
:1049E00000C00000E090F707F090F8079FEFE91A89
:1049F000F90AB7010F2C000C880B990B0E94B23BEF
:104A00004B015C01C0901A02D0901B02B60180E0FD
:104A100090E00E94B03B9B01AC01C501B4010E9433
:104A2000623C18160CF420C620E030E0A901C50154
:104A3000B4010E94033B87FD7601F092F807E092F3
:104A4000F7075F9A809110094DC0C330D10509F472
:104A500044C30CF4AFC2C830D10509F471C1C930E8
:104A6000D105B1F55F988FE19EE40197F1F700C0A1
:104A70000000E090F707F090F80792E0E90EF11CD3
:104A8000B7010F2C000C880B990B0E94B23B4B0115
:104A90005C01C0901A02D0901B02B60180E090E049
:104AA0000E94B03B9B01AC01C501B4010E94623C75
:104AB00018160CF495C520E030E0A901C501B40139
:104AC0000E94033B87FD7601F092F807E092F7071A
:104AD0005F9A1092DE08B9CE10920F091092DD088D
:104AE0008091100910921109A3CEC330D10509F4A9
:104AF00058C30CF4A4C2C830D10509F45AC1C93056
:104B0000D105B1F55F988FE19EE40197F1F700C000
:104B10000000E090F707F090F80792E0E91AF1083A
:104B2000B7010F2C000C880B990B0E94B23B4B0174
:104B30005C01C0901A02D0901B02B60180E090E0A8
:104B40000E94B03B9B01AC01C501B4010E94623CD4
:104B500018160CF442C520E030E0A901C501B401EB
:104B60000E94033B87FD7601F092F807E092F70779
:104B70005F9A1092DD087ECE109210091092DE0826
:104B800080E0109212094DCE84E08093EF085F9888
:104B90002FEF3DEE82E0215030408040E1F700C031
:104BA00000005F9A0E94A307A3CE192F181BC330E1
:104BB000D10509F46BC30CF45EC0C830D10509F40B
:104BC000F2C3C930D10509F04EC087E61802812D25
:104BD00011248595859517FD8395182F81116EC534
:104BE0006091F7077091F807072E000C880B990B5E
:104BF0000E94B23B6B017C01612F012E000C770BF0
:104C0000880B990B0E94B23B20E030E048E453E46B
:104C10000E94083B9B01AC01C701B6010E94973A74
:104C20006B017C01A0901A02B0901B02B50180E0DC
:104C300090E00E94B03B9B01AC01C701B6010E940D
:104C4000623C18160CF40DC520E030E0A901C70144
:104C5000B6010E94033B87FF3CC52A2D8B2D209374
:104C6000F7078093F807112321F010920D09109295
:104C700013095F9A17CEC130D105A9F787E618024C
:104C8000812D11248595859517FD8395182F811108
:104C9000FDC4E090F707F090F807EE0CFF1CF70159
:104CA000E35EF84F60817181072E000C880B990B31
:104CB0000E94B23B4B015C01612F012E000C770B6F
:104CC000880B990B0E94B23B20E030E048E453E4AB
:104CD0000E94083B9B01AC01C501B4010E94973AB8
:104CE000B62EC72ED82E092F709020028090210258
:104CF00090902202A0902302272D382D492D5A2D65
:104D00000E94623C18161CF4B72C64010A2D20E0A6
:104D100030E0A9016B2D7C2D8D2D902F0E94033B3F
:104D200087FDD4C46B2D7C2D8D2D902F0E947A3B56
:104D3000F701E35EF84F718360830E94942393CF61
:104D40005F98EFE1FEE43197F1F700C00000E090DA
:104D5000F507F090F607FFEFEF1AFF0AB7010F2CE7
:104D6000000C880B990B0E94B23B4B015C01C09078
:104D70001802D0901902B6010D2C000C880B990B6B
:104D80000E94B23B9B01AC01C501B4010E94623C90
:104D900018160CF460C420E030E0A901C501B4018C
:104DA0000E94033B87FF6701D092F607C092F50788
:104DB0008FCE5F98EFE1FEE43197F1F700C000007D
:104DC000E090F507F090F607F1E0EF1AF108B7016F
:104DD0000F2C000C880B990B0E94B23B4B015C011D
:104DE000C0901802D0901902B6010D2C000C880B4F
:104DF000990B0E94B23B9B01AC01C501B4010E941A
:104E0000623C18160CF4E6C320E030E0A901C501AD
:104E1000B4010E94033B87FF6701D092F607C0925E
:104E2000F507A6CE5F988FE19EE40197F1F700C0E9
:104E300000008090F7079090F807E090F507F09059
:104E4000F607880C991C880C991CF401EE0DFF1DC7
:104E5000EE0FFF1FEB56F84F6081718161507109B1
:104E6000072E000C880B990B0E94B23B3B015C01A2
:104E7000C0901602D0901702B6010D2C000C880BC2
:104E8000990B0E94B23B1B012C019B01AC01B301A9
:104E9000C5010E94623C181614F4310152016627C4
:104EA00077276C197D09072E000C880B990B0E943F
:104EB000B23B2B016C019B01AC01B301C5010E9407
:104EC000033B87FF02C032015601E80CF91CC70101
:104ED000880F991FFC01EB56F84F7F01B301C50104
:104EE0000E947A3BF701718360835BCD5F98EFE1AD
:104EF000FEE43197F1F700C000008090F707909032
:104F0000F807E090F507F090F607880C991C880CDC
:104F1000991CF401EE0DFF1DEE0FFF1FEB56F84F2D
:104F2000608171816F5F7F4F072E000C880B990B9A
:104F30000E94B23B3B015C01C0901602D090170268
:104F4000B6010D2C000C880B990B0E94B23B1B0183
:104F50002C019B01AC01B301C5010E94623C1816F3
:104F600014F431015201662777276C197D09072E49
:104F7000000C880B990B0E94B23B2B016C019B012A
:104F8000AC01B301C5010E94033B87FF02C032019F
:104F90005601E80CF91CC701880F991F9C012B567C
:104FA000384F7901B301C5010E947A3BF701718343
:104FB000608347CDC130D10509F08ACD5F988FE17C
:104FC0009EE40197F1F700C00000E090F707F09031
:104FD000F807EE0CFF1CF701E35EF84F608171816A
:104FE0006C5E7F4F072E000C880B990B0E94B23B22
:104FF0005B016C016090200270902102809022027F
:10500000909023029301A4010E94623C181614F4AC
:105010005301640120E030E0A901B501C6010E94FE
:10502000033B87FD27C3B501C6010E947A3BF70108
:10503000E35EF84F718360830E94942349CDC130B1
:10504000D10509F095CD5F988FE19EE40197F1F7C6
:1050500000C00000E090F707F090F807EE0CFF1C8E
:10506000F701E35EF84F6081718164517109072E89
:10507000000C880B990B0E94B23BB62EC72ED82E7F
:10508000092F709020028090210290902202A0901F
:105090002302272D382D492D5A2D0E94623C1816C7
:1050A0001CF4B72C64010A2D20E030E0A9016B2D1F
:1050B0007C2D8D2D902F0E94033B87FDE4C26B2D2C
:1050C0007C2D8D2D902F0E947A3BF701E35EF84FE7
:1050D000718360830E9494234BCD5F98EFE1FEE4DF
:1050E0003197F1F700C000008090F7079090F80723
:1050F000E090F507F090F607880C991C880C991C35
:10510000F401EE0DFF1DEE0FFF1FEB56F84F60810F
:105110007181665F7F4F072E000C880B990B0E94F0
:10512000B23B3B015C01C0901602D0901702B60161
:105130000D2C000C880B990B0E94B23B1B012C011B
:105140009B01AC01B301C5010E94623C181614F426
:1051500031015201662777276C197D09072E000C53
:10516000880B990B0E94B23B2B016C019B01AC0197
:10517000B301C5010E94033B87FF02C03201560103
:10518000E80CF91CC701880F991F9C012B56384F5A
:105190007901B301C5010E947A3BF70171836083F5
:1051A00097CC5F98EFE1FEE43197F1F700C0000083
:1051B0008090F7079090F807E090F507F090F607D9
:1051C000880C991C880C991CF401EE0DFF1DEE0F44
:1051D000FF1FEB56F84F608171816A507109072EED
:1051E000000C880B990B0E94B23B762EA72EB82E8E
:1051F000092FC0901602D0901702B6010D2C000C9A
:10520000880B990B0E94B23B362E472E582E692EE2
:10521000262F372F482F592F672D7A2D8B2D902F22
:105220000E94623C18161CF4732C5201062D66274E
:1052300077276C197D09072E000C880B990B0E94AB
:10524000B23B562E672E6C01262F372FAC01672DEF
:105250007A2D8B2D902F0E94033B87FF04C0752C65
:10526000A62CBC2C0D2DE80CF91CC701880F991F2A
:105270009C012B56384F7901672D7A2D8B2D902F5D
:105280000E947A3BF7017183608372CC87E6180233
:10529000812D11248595859517FD8395182F8111F2
:1052A000FDC18090F7079090F807E090F507F09027
:1052B000F607880C991C880C991CF401EE0DFF1D53
:1052C000EE0FFF1FEB56F84F60817181072E000C27
:1052D000880B990B0E94B23B2B013C01612F012EE0
:1052E000000C770B880B990B0E94B23B20E030E05A
:1052F00048E453E40E94083B9B01AC01C301B201A6
:105300000E94973A762EA72EB82E092FC09016022B
:10531000D0901702B6010D2C000C880B990B0E943F
:10532000B23B362E472E582E692E262F372F482F68
:10533000592F672D7A2D8B2D902F0E94623C1816C5
:105340001CF4732C5201062D662777276C197D09F2
:10535000072E000C880B990B0E94B23B562E672E2D
:105360006C01262F372FAC01672D7A2D8B2D902FB6
:105370000E94033B87FF04C0752CA62CBC2C0D2D6E
:10538000E80CF91CC701880F991F9C012B56384F58
:105390007901672D7A2D8B2D902F0E947A3BF70192
:1053A0007183608360CC87E61802812D1124859576
:1053B000859517FD8395182F811178C16091F507A8
:1053C0007091F607072E000C880B990B0E94B23BD8
:1053D0006B017C01612F012E000C770B880B990B60
:1053E0000E94B23B20E030E048E453E40E94083BD6
:1053F0009B01AC01C701B6010E94973A4B015C01C9
:10540000E0901802F0901902B7010F2C000C880BE5
:10541000990B0E94B23B9B01AC01C501B4010E94F3
:10542000623C18160CF41AC120E030E0A901C50155
:10543000B4010E94033B87FD05C0C501B4010E9471
:105440007A3B7B01F092F607E092F5070CCCC13075
:10545000D10509F0F6CA5F988FE19EE40197F1F754
:1054600000C00000E090F707F090F807EE0CFF1C7A
:10547000F701E35EF84F608171816F5F7F4F072E08
:10548000000C880B990B0E94B23B5B016C01609091
:1054900020027090210280902202909023029301BA
:1054A000A4010E94623C181614F45301640120E028
:1054B00030E0A901B501C6010E94033B87FD13C17D
:1054C000B501C6010E947A3BF701E35EF84F718394
:1054D00060830E949423B5CAC130D10509F061CA26
:1054E0005F98EFE1FEE43197F1F700C00000E09033
:1054F000F707F090F807EE0CFF1CF701E35EF84F9A
:105500006081718161507109072E000C880B990B25
:105510000E94B23B5B016C016090200270902102FE
:1055200080902202909023029301A4010E94623C89
:10553000181614F45301640120E030E0A901B5010C
:10554000C6010E94033B87FDCBC0B501C6010E9486
:105550007A3BF701E35EF84F718360830E949423E6
:1055600020CA5F98EFE1FEE43197F1F700C0000038
:10557000E090F507F090F607FFEFEF1AFF0AB7018A
:105580000F2C000C880B990B0E94B23B4B015C0165
:10559000C0901802D0901902B6010D2C000C880B97
:1055A000990B0E94B23B9B01AC01C501B4010E9462
:1055B000623C18160CF464C020E030E0A901C5017B
:1055C000B4010E94033B87FF6701D092F607C092A7
:1055D000F50737CAC12CD12C20CCE12CF12CC4CA40
:1055E000E12CF12C71CA5F98EFE1FEE43197F1F7FD
:1055F00000C00000E090F507F090F607F1E0EF1A28
:10560000F108B7010F2C000C880B990B0E94B23BDC
:105610004B015C01C0901802D0901902B6010D2C0C
:10562000000C880B990B0E94B23B9B01AC01C50199
:10563000B4010E94623C1816D4F020E030E0A901C9
:10564000C501B4010E94033B87FF6701D092F607B2
:10565000C092F507A6C9C12CD12CA6CBE12CF12C08
:10566000F1CE20E080E0FBCAE12CF12CE6C9C12C90
:10567000D12CECCF60E070E0DACCE12CF12C8DC9BC
:10568000C12CD12CA2CF60E070E01FCD5F988FE9D4
:105690009FE00197F1F700C00000FBCA5F98EFE9B7
:1056A000FFE03197F1F700C00000FBCD5F98EFE914
:1056B000FFE03197F1F700C0000080CE5F988FE9DE
:1056C0009FE00197F1F700C000008ACA60E070E037
:1056D0002FCBC701B6010E947A3B262F872FBFCA66
:1056E00060E070E036CF60E070E0EECECF93DF9305
:1056F000FC0128B1C3E0D0E0BE010E94573AAF01DF
:10570000481B590BCA01BE010E94573A81E090E044
:1057100001C0880F6A95EAF780952F60282328B981
:10572000DF91CF910895EF92FF920F931F93CF9344
:10573000DF93FC01262F8A011098109A33E0E32EA4
:10574000F12CB7010E94573AEC0138B1CF018C1B04
:105750009D0BB7010E94573AA1E0B0E0CD0102C015
:10576000880F991F6A95E2F7BC0160953F60362368
:1057700038B9C130D10509F457C0C230D10509F498
:105780004EC0CD2B09F446C080E090E0BC016150D2
:105790007109A801082E02C0440F551F0A94E2F7B0
:1057A00030E002C0220F331F6A95E2F7422B532BE1
:1057B000476C5861EF5EF84F2081222371F0029709
:1057C00021E030E0B90102C0660F771F8A95E2F749
:1057D000CB01809590954823592380E190E006C045
:1057E000139A119A56954795019749F0119840FDE3
:1057F000F7CF1398119A569547950197B9F7129AD2
:1058000082B1817F82B9DF91CF911F910F91FF907B
:10581000EF9008956DE070E08EE090E0BACF63E025
:1058200070E084E090E0B5CF68E070E089E090E05F
:10583000B0CF8091F4069091F506009709F45FC00F
:10584000209110022111A1C02091F0063091F106A3
:10585000FC01EE0FFF1FEE0FFF1FE20FF31FEE0F15
:10586000FF1FEB5CF84F40815181452B09F448C084
:105870002091050163E070E00E94573AAC014C5F53
:105880005F4F81E090E001C0880F4A95EAF7282B2E
:1058900020930501EFE9FFE03197F1F700C0000028
:1058A000909105018095892380930501E091F4068C
:1058B000F091F5068091F0069091F106EE0FFF1F32
:1058C000EE0FFF1FDF01A80FB91FAA0FBB1FAB5CB4
:1058D000B84F4D915C91DC01A45FB84F2C91211120
:1058E0006FC02FEF3FEFE80FF91FEE0FFF1FEB5CCC
:1058F000F84FCA01820F931F918380830895089502
:10590000233031050CF452C01092F1061092F006CB
:10591000409118025091190214161506B4F4880F1C
:10592000991F880F991F880F991FDC01AB56B84F3C
:10593000FC01EB5CF84F80E090E02D913D912193CC
:105940003193019684179507C1F71092F5061092CE
:10595000F4064091F2065091F3061416150674F4FD
:10596000E4EFF6E09A01220F331F2C50394F828169
:10597000938181939193E217F307C9F7415051093D
:105980005093F3064093F20608954091F00650912B
:10599000F106FA01E45FF84F60810E94932B1092A8
:1059A00010028091F4069091F5064ECF2F5F3F4F85
:1059B0003093F1062093F00681E080931002089561
:1059C00021E030E090CF2F923F924F925F926F9202
:1059D0007F928F929F92AF92BF92CF92DF92EF927F
:1059E000FF920F931F93CF93DF93CDB7DEB7299725
:1059F0000FB6F894DEBF0FBECDBF8091F206909136
:105A0000F3062090F7073090F807FC01EE0FFF1F18
:105A1000EC50F94F3182208201969093F3068093E7
:105A2000F206609018027090190277FC86C0C101DE
:105A3000880F991F880F991F880F991F9B838A834E
:105A40008B56984F2C01AA81BB81AB5CB84F7D016E
:105A500020E030E040E85FE300E010E01982A12C94
:105A6000B12CF201819191912F0199878887D701FB
:105A70008D919C91C884D984C81AD90AF701C19222
:105A8000D1927F01B501BB0C880B990B2C833D8310
:105A90004E835F830E94B23B4B015C016885798530
:105AA000660F771F660F771F660F771F072E000C94
:105AB000880B990B0E94B23B2C813D814E815F8106
:105AC0000E94083B9B01AC01C501B4010E94973ABA
:105AD0000E947A3B5B01CD2811F0F1E0F9830F5F62
