:100000000C9442010C9463010C9463010C94630101
:100010000C9463010C9463010C9463010C946301D0
:100020000C9463010C9463010C9463010C946301C0
:100030000C9463010C9463010C9463010C946301B0
:100040000C9463010C9463010C9463010C946301A0
:100050000C9463010C9463010C9463010C94630190
:100060000C9463010C94EA040C9463010C946301F6
:100070000C9463010C9463010C9463010C94630170
:100080000C9463010C9463010C9463010C94630160
:100090000C9463010C9463010C9463010C94630150
:1000A0000C9463010C9463010C9463010C94630140
:1000B0000C9463010C9463010C9463010C94630130
:1000C0000C9463010C9463010C9463010C94630120
:1000D0000C9463010C9463010C9463010C94630110
:1000E0000C946301441464140614DB13EB13FA1329
:1000F0002C143014341438143C1440140C94A204FE
:100100000C94FA130C9406140C942C140C94EB130A
:100110000C9444140C94DB130C9434140C943C1481
:100120000C9438140C9464140C9430140C94B20491
:100130000C9440146E616E00696E66006364696EB3
:100140006F70737578585B65666745464700616EEA
:10015000006E66696E69747900CDCCCC3D0AD723F8
:100160003C17B7D13877CC2B329595E6241FB14F89
:100170000A000020410000C84200401C4620BCBECE
:100180004CCA1B0E5AAEC59D7400407A10F35A003B
:10019000A0724E18090010A5D4E80000E8764817B0
:1001A0000000E40B54020000CA9A3B000000E1F595
:1001B00005000080969800000040420F000000A05B
:1001C0008601000000102700000000E80300000086
:1001D000006400000000000A0000000000010000B0
:1001E0000000002C76D888DC674F0823DFC1DFAE23
:1001F00059E1B1B796E5E3E453C63AE651997696EC
:10020000E8E6C28426EB898C9B62ED407C6FFCEFB4
:10021000BC9C9F40F2BAA56FA5F490055A2AF75CE2
:10022000936B6CF9676DC11BFCE0E40D47FEF52094
:10023000E6B500D0ED902E0300943577050080845C
:100240001E080000204E0A000000C80C3333333370
:100250000F986E12831141EF8D2114893BE65516DC
:10026000CFFEE6DB18D1844B381BF77C1D901DA414
:10027000BBE424203284725E228100C9F124ECA107
:10028000E53D270011241FBECFEFD1E2DEBFCDBF79
:1002900000E00CBF13E0A0E0B2E0E8EDF7E400E01E
:1002A0000BBF02C007900D92AA36B107D9F725E01F
:1002B000AAE6B3E001C01D92AF39B207E1F70E9490
:1002C00020200C94EA230C940000279A08952F9A7A
:1002D00008952F9808951F9A08950097D9F020E067
:1002E00030E02F9A4FE75AE166E0415050406040BD
:1002F000E1F700C000002F984FE75AE166E0415057
:1003000050406040E1F700C000002F5F3F4F2817CA
:10031000390739F70895813041F1823009F447C037
:10032000833009F008950B9A13982FEF81EE94E033
:10033000215080409040E1F700C00000099A119AD6
:10034000809107018260809307018091080182609B
:100350008093080180910701886080930701809154
:1003600008018860809308010895989AA09A2FEF59
:1003700083ED90E3215080409040E1F700C0000001
:10038000A0982FEF83ED90E3215080409040E1F75B
:1003900000C00000809A889A6F9A779A839A8B9A05
:1003A000819A899A82988A986E98769808950B9A7D
:1003B00013982FEF81EE94E0215080409040E1F7B8
:1003C00000C0000080910701806880930701809140
:1003D0000801806880930801B3CF813009F0089547
:1003E00077988AE08A95F1F7779A81E08A95F1F714
:1003F0000895813061F0823069F0833009F008950A
:10040000809108018D7F80930801119808958B9841
:1004100088980895809108018D7F809308018091CC
:1004200008018F77809308010895813089F0823028
:1004300099F0833009F00895119A80910801826043
:1004400080930801809108018860809308010895D5
:10045000889A8B9A899A0895809108018068809380
:100460000801EBCF962F9078813009F4BEC082301E
:1004700019F0833009F008958091080191110EC19F
:10048000877F8093080181E08A95F1F780910801C8
:1004900082608093080181E08A95F1F780910801DC
:1004A0008D7F8093080166FF05C1809108018860F7
:1004B0008093080181E08A95F1F7809108018260BC
:1004C0008093080181E08A95F1F7809108018D7F82
:1004D0008093080165FFE8C08091080188608093DF
:1004E000080181E08A95F1F780910801826080938C
:1004F000080181E08A95F1F7809108018D7F809352
:10050000080164FFEFC080910801886080930801B2
:1005100081E08A95F1F7809108018260809308015B
:1005200081E08A95F1F7809108018D7F8093080121
:1005300063FFD2C08091080188608093080181E048
:100540008A95F1F78091080182608093080181E02B
:100550008A95F1F7809108018D7F8093080162FFF1
:10056000B5C08091080188608093080181E08A9578
:10057000F1F78091080182608093080181E08A95FB
:10058000F1F7809108018D7F8093080161FF98C089
:100590008091080188608093080181E08A95F1F7D5
:1005A0008091080182608093080181E08A95F1F7CB
:1005B000809108018D7F8093080160FF99C0809130
:1005C000080188608093080181E08A95F1F78091A5
:1005D000080182608093080181E08A95F1F780919B
:1005E00008018D7F80930801089591115BC089985F
:1005F00081E08A95F1F78B9A81E08A95F1F78B98E3
:1006000066FF88C0899A81E08A95F1F78B9A81E02C
:100610008A95F1F78B9865FF7BC0899A81E08A956E
:10062000F1F78B9A81E08A95F1F78B9864FF6EC0A1
:10063000899A81E08A95F1F78B9A81E08A95F1F7A2
:100640008B9863FF61C0899A81E08A95F1F78B9A54
:1006500081E08A95F1F78B9862FF54C0899A81E016
:100660008A95F1F78B9A81E08A95F1F78B9861FF73
:1006700047C0899A81E08A95F1F78B9A81E08A9543
:10068000F1F78B9860FF3AC0899A81E08A95F1F77B
:100690008B9A81E08A95F1F78B9808958860809312
:1006A0000801F1CE899AA4CF80910801877F8093B9
:1006B000080117CF80910801877F80930801FACE47
:1006C00080910801877F8093080167CF809108019E
:1006D000877F809308014ACF80910801877F8093AC
:1006E00008012DCF80910801877F8093080110CFEA
:1006F00080910801877F8093080166CF8998C5CFD4
:100700008998B8CF8998ABCF89989ECF899891CF97
:10071000899884CF899877CF813011F080E008954F
:100720008A95F1F78B9A8FB191E09A95F1F78B98B2
:1007300082FB882780F9880F91E09A95F1F78B9AD0
:100740002FB191E09A95F1F78B9822FB992790F9B8
:10075000892B880F91E09A95F1F78B9A2FB191E050
:100760009A95F1F78B9822FB992790F9892B880F9E
:1007700091E09A95F1F78B9A2FB191E09A95F1F764
:100780008B9822FB992790F9892B880F91E09A95F5
:10079000F1F78B9A2FB191E09A95F1F78B9822FBA4
:1007A000992790F9892B880F91E09A95F1F78B9A08
:1007B0002FB191E09A95F1F78B9822FB992790F948
:1007C000892B880F91E09A95F1F78B9A2FB191E0E0
:1007D0009A95F1F78B9822FB992790F9892B91E054
:1007E0009A95F1F78B9A2FB191E09A95F1F78B9842
:1007F000880F22FB992790F9892B0895813011F0F9
:1008000080E0089567FF93C0899A81E08A95F1F7A7
:100810008B9A9FB181E08A95F1F78B9892FB99278B
:1008200090F9990F66FF81C0899A81E08A95F1F766
:100830008B9A8FB121E02A95F1F78B9882FB88275C
:1008400080F9892B880F65FF6EC0899A91E09A958F
:10085000F1F78B9A9FB121E02A95F1F78B9892FBE3
:10086000992790F9982B990F64FF5BC0899A81E0D2
:100870008A95F1F78B9A8FB121E02A95F1F78B9841
:1008800082FB882780F9892B880F63FF48C0899AEB
:1008900091E09A95F1F78B9A9FB121E02A95F1F7B3
:1008A0008B9892FB992790F9982B990F62FF35C08E
:1008B000899A81E08A95F1F78B9A8FB121E02A9588
:1008C000F1F78B9882FB882780F9892B880F61FFCD
:1008D00022C0899A91E09A95F1F78B9A9FB121E015
:1008E0002A95F1F78B9892FB992790F9982B990FFD
:1008F00060FF0FC0899A81E08A95F1F78B9A8FB1DA
:1009000021E02A95F1F78B9882FB882780F9892BC3
:1009100008958998F0CF8998DDCF8998CACF8998B2
:10092000B7CF8998A4CF899891CF89987ECF89989D
:100930006CCF813011F080E008958CB186FB882760
:1009400080F90895CF93C82F8A3041F09091C0006C
:1009500095FFFCCFC093C600CF9108958DE00E9413
:10096000A204F4CF80916C038823E1F3E0916D033E
:10097000F0916E03EF58FC4F808190916C03915081
:1009800090936C0320916D0330916E032F5F3F4F66
:1009900030936E0320936D0320916D0330916E03AD
:1009A0002F3F310509F0089510926E0310926D03E8
:1009B00008951092C50089E18093C400E0ECF0E056
:1009C00080818D7F808386E08093C20088E1809360
:1009D000C10008951F920F920FB60F9211240BB60B
:1009E0000F922F938F939F93EF93FF932091C600C5
:1009F00080916C038F3FA1F1E0916F03F091700340
:100A0000EF58FC4F208380916C038F5F80936C03C1
:100A100080916F039091700301969093700380937F
:100A20006F0380916F03909170038F3F910501F1E7
:100A300080916A0390916B03892B31F08091C00003
:100A400085FFFCCF2093C600FF91EF919F918F917E
:100A50002F910F900BBE0F900FBE0F901F90189507
:100A60008091C00085FFFCCF80E48093C600ECCF6E
:100A70001092700310926F03DBCF80916C03882378
:100A8000F1F0E0916D03F0916E03EF58FC4F80811F
:100A900090916C03915090936C0320916D03309171
:100AA0006E032F5F3F4F30936E0320936D032091B1
:100AB0006D0330916E032F3F310519F0089580E0EA
:100AC000089510926E0310926D030895E1ECF0E02A
:100AD00080818F7780831092C50089E18093C40064
:100AE000A0ECB0E08C918D7F8C9386E08093C20067
:100AF00088E1808310926B0310926A0380E092E099
:100B000090939A058093990590939C0580939B05FB
:100B10001092700310926F0310926E0310926D0387
:100B200010926C03808180688083089590936B039A
:100B300080936A03089510926B0310926A030895DC
:100B4000FC0160830895EF92FF921F93CF93DF9390
:100B50001F92CDB7DEB77C01162FFC01808179830F
:100B60000E94F9016981F70180810E943202612FA0
:100B7000F70180810E943202F70180810F90DF919E
:100B8000CF911F91FF90EF900C941502FC01808192
:100B90000C948B010F931F93CF93DF938C01EB0188
:100BA0000E948022FE0101900020E9F7EC1BFD0B62
:100BB000C8018E0F9F1FDF91CF911F910F91089554
:100BC000FC0160830895EF92FF921F93CF93DF9310
:100BD0001F92CDB7DEB77C01162FFC01808179838F
:100BE0000E94F9016981F70180810E943202612F20
:100BF000F70180810E943202F70180810F90DF911E
:100C0000CF911F91FF90EF900C941502FC01808111
:100C10000C948B0181E00E94F90162E081E00E9466
:100C2000320260E081E00E94320281E00E94990479
:100C30008823D9F362E081E00E94320260E081E023
:100C40000E94320281E00E94150281E00E94F901B7
:100C500081E00E9499048823D9F36FEF81E00E941C
:100C6000FE03809370046FEF81E00E94FE03809387
:100C7000710481E00E94150281E00E949904813094
:100C8000D9F3809171048F93809170048F9383E4E2
:100C900092E09F938F930E94022381E00E94F901CA
:100CA00062E081E00E94320260E081E00E94320254
:100CB0000F900F900F900F9081E00E94990488236D
:100CC000D9F363E081E00E94320260E081E00E949B
:100CD000320281E00E94150281E00E94F90181E068
:100CE0000E9499048823D9F36FEF81E00E94FE03EC
:100CF000809370046FEF81E00E94FE038093710483
:100D000081E00E94150281E00E9499048130D9F3AC
:100D1000809171048F93809170048F9386E592E0A7
:100D20009F938F930E94022381E00E94F90162E069
:100D300081E00E94320260E081E00E9432020F9066
:100D40000F900F900F9081E00E9499048823D9F3AF
:100D500060E081E00E94320260E081E00E943202A5
:100D600081E00E94150281E00E94F90181E00E9469
:100D700099048823D9F36FEF81E00E94FE038093EA
:100D800070046FEF81E00E94FE038093710481E0A4
:100D90000E94150281E00E9499048130D9F381E01C
:100DA0000E94F90162E081E00E94320260E081E08D
:100DB0000E94320281E00E9499048823D9F361E005
:100DC00081E00E94320260E081E00E94320281E014
:100DD0000E94150281E00E94F90181E00E949904BD
:100DE0008823D9F36FEF81E00E94FE0380937004A3
:100DF0006FEF81E00E94FE038093710481E00E9406
:100E0000150281E00E9499048130D9F38091710428
:100E10008F93809170048F9384E692E09F938F93D9
:100E20000E9402230F900F900F900F9008956F92E1
:100E30007F928F929F92AF92BF92CF92DF92EF926A
:100E4000FF920F931F93CF93DF93CDB7DEB76A97CF
:100E50000FB6F894DEBF0FBECDBF81E00E948B01BC
:100E600081E00E94F90181E00E9499048823D9F36E
:100E70006FEF81E00E94FE03809370046FEF81E0CA
:100E80000E94FE038093710481E00E94150281E0BC
:100E90000E9499048130D9F380917004909171047B
:100EA0008231944309F09AC02BE7C22E22E0D22E61
:100EB00039E8632E32E0732E81E00E94F90162E08E
:100EC00081E00E94320260E081E00E94320281E013
:100ED0000E9499048823D9F360E081E00E943202E5
:100EE00060E081E00E94320281E00E94150281E010
:100EF0000E94F90181E00E9499048823D9F36FEFE1
:100F000081E00E94FE03809370046FEF81E00E94F5
:100F1000FE038093710481E00E94150281E00E942B
:100F200099048130D9F3E0907004F090710481E06D
:100F30000E94F90162E081E00E94320260E081E0FB
:100F40000E94320281E00E9499048823D9F361E073
:100F500081E00E94320260E081E00E94320281E082
:100F60000E94150281E00E94F90181E00E9499042B
:100F70008823D9F36FEF81E00E94FE038093700411
:100F80006FEF81E00E94FE038093710481E00E9474
:100F9000150281E00E9499048130D9F30091700418
:100FA00010917104FF92EF92DF92CF920E94022380
:100FB0001F930F937F926F920E9402230FB6F894B3
:100FC000DEBF0FBECDBFEF2809F076CF0F371D4132
:100FD00009F072CF87E992E00E94142380E094E048
:100FE0009A83898384E690E09C838B8381E00E94CE
:100FF000F90164E081E00E94320260E081E00E9439
:101000003202FE0131963F017F0101E010E00DC088
:10101000F701608181E00E9432020430110599F0ED
:101020000F5F1F4FFFEFEF1AFF0A0130110581F725
:1010300081E00E9499048823D9F3F701608181E05F
:101040000E943202EDCF81E00E94150281E00E94F1
:10105000F90181E00E9499048823D9F36FEF81E0C0
:101060000E94FE03809370046FEF81E00E94FE03F4
:101070008093710481E00E94150281E00E9499042E
:101080008130D9F381E00E94F90162E081E00E94A1
:10109000320260E081E00E94320281E00E94990405
:1010A0008823D9F360E881E00E94320261E081E0A8
:1010B0000E94320281E00E94150281E00E94F90143
:1010C00081E00E9499048823D9F36FEF81E00E94A8
:1010D000FE03809370046FEF81E00E94FE03809313
:1010E000710481E00E94150281E00E949904813020
:1010F000D9F385E591E09A83898384E090E09C832D
:101100008B8381E00E94F90164E081E00E94320259
:1011100060E081E00E943202730101E010E00DC046
:10112000F701608181E00E9432020430110599F0DC
:101130000F5F1F4FFFEFEF1AFF0A0130110581F714
:1011400081E00E9499048823D9F3F701608181E04E
:101150000E943202EDCF81E00E94150281E00E94E0
:10116000F90181E00E9499048823D9F36FEF81E0AF
:101170000E94FE03809370046FEF81E00E94FE03E3
:101180008093710481E00E94150281E00E9499041D
:101190008130D9F380E791E09A8389838BEE93EDD8
:1011A0009C838B8389EE90E09E838D8381E00E94F7
:1011B000F90166E081E00E94320260E081E00E9475
:1011C0003202730101E010E00DC0F701608181E09F
:1011D0000E9432020630110599F00F5F1F4FFFEF9A
:1011E000EF1AFF0A0130110581F781E00E9499048E
:1011F0008823D9F3F701608181E00E943202EDCFAC
:1012000081E00E94150281E00E94F90181E00E94C4
:1012100099048823D9F36FEF81E00E94FE03809345
:1012200070046FEF81E00E94FE038093710481E0FF
:101230000E94150281E00E9499048130D9F38BE16C
:10124000E3EAF2E0D30101900D928A95E1F7E09094
:101250009405F090950500919605109197057F9261
:101260006F92812C912CA12CB12C84E0C82ED12C12
:101270002EE130E040EF50E06EE070E080E794E077
:101280000E944A1E81E1EEEBF2E0D30101900D9243
:101290008A95E1F7E0909405F09095050091960508
:1012A000109197057F926F9293E0C92ED12C24E67E
:1012B00030E04AE050E067E070E080E794E00E94B0
:1012C0004A1E84E1EAE0F3E0D30101900D928A9591
:1012D000E1F7E0909405F090950500919605109146
:1012E00097057F926F9228E730E04AE050E067E090
:1012F00070E080E794E00E944A1E84E1EEE1F3E0B2
:10130000D30101900D928A95E1F7E0909405F09059
:10131000950500919605109197057F926F922CE8A4
:1013200030E04AE050E067E070E080E794E00E943F
:101330004A1EE0909405F090950500919605109155
:1013400097057F926F9224EB30E04AE050E067E02F
:1013500070E080E794E00E944A1E81E1EFECF2E049
:10136000D30101900D928A95E1F7E0909405F090F9
:10137000950500919605109197057F926F922CED3F
:1013800030E04AE050E068E070E080E794E00E94DE
:101390004A1E81E00E94F90162E081E00E9432026F
:1013A00060E081E00E9432020FB6F894DEBF0FBE0B
:1013B000CDBF81E00E9499048823D9F361E881E0E0
:1013C0000E94320261E081E00E94320281E00E94CC
:1013D000150281E00E94F90181E00E9499048823AE
:1013E000D9F36FEF81E00E94FE03809370046FEFEA
:1013F00081E00E94FE038093710481E00E94150247
:1014000081E00E9499048130D9F381E094E09E8BC1
:101410008D8B82E090E0988F8F8B1A8E198E81E0F1
:101420000E94F90166E081E00E94320260E081E002
:101430000E9432027E0195E1E90EF11C01E010E00C
:101440000DC0F701608181E00E9432020630110573
:1014500099F00F5F1F4FEFEFEE1AFE0A01301105F2
:1014600081F781E00E9499048823D9F3F701608114
:1014700081E00E943202EDCF81E00E94150281E0FE
:101480000E94F90181E00E9499048823D9F36FEF4B
:1014900081E00E94FE03809370046FEF81E00E9460
:1014A000FE038093710481E00E94150281E00E9496
:1014B00099048130D9F360EE72E080E794E00E94F5
:1014C0009D1F6A960FB6F894DEBF0FBECDBFDF91A9
:1014D000CF911F910F91FF90EF90DF90CF90BF9031
:1014E000AF909F908F907F906F900895989AA09A58
:1014F000999AA1989B9AA398579A5F9A0E94170766
:101500002FEF83E294EF215080409040E1F700C03C
:10151000000008952F923F924F925F926F927F92B8
:101520008F929F92AF92BF92CF92DF92EF92FF92F3
:101530000F931F93CF93DF93CDB7DEB7AC970FB662
:10154000F894DEBF0FBECDBF85E291E09A83898318
:1015500088E090E09C838B8381E00E94F90164E045
:1015600081E00E94320260E081E00E9432029E012E
:101570002F5F3F4F790101E010E00DC0D7016C9162
:1015800081E00E9432020430110599F00F5F1F4F75
:101590003FEFE31AF30A0130110581F781E00E9461
:1015A00099048823D9F3D7016C9181E00E9432021B
:1015B000EDCF81E00E94150281E00E94F90181E0F7
:1015C0000E9499048823D9F36FEF81E00E94FE0303
:1015D000809370046FEF81E00E94FE03809371049A
:1015E00081E00E94150281E00E9499048130D9F3C4
:1015F0008FE496E4A6E4B0E0898B9A8BAB8BBC8B2E
:10160000FE0175968BE0DF011D928A95E9F782E570
:1016100091E09A8389838FEF9FEF9C838B838FEF79
:1016200090E09E838D8381E00E94F90166E081E075
:101630000E94320260E081E00E943202FE01319697
:101640007F0101E010E00DC0D7016C9181E00E94A4
:1016500032020630110599F00F5F1F4FFFEFEF1AAE
:10166000FF0A0130110581F781E00E949904882367
:10167000D9F3F701608181E00E943202EDCF81E071
:101680000E94150281E00E94F90181E00E94990404
:101690008823D9F36FEF81E00E94FE0380937004EA
:1016A0006FEF81E00E94FE038093710481E00E944D
:1016B000150281E00E9499048130D9F380E591E020
:1016C0009A83898380E897E09C838B8380E491E010
:1016D0009E838D8380E09FE098878F8380E892E0EF
:1016E0009A87898781E00E94F9016AE081E00E947F
:1016F000320260E081E00E943202FE0131967F01F9
:1017000001E010E00DC0D7016C9181E00E9432022F
:101710000A30110599F00F5F1F4FFFEFEF1AFF0A14
:101720000130110581F781E00E9499048823D9F3E3
:10173000D7016C9181E00E943202EDCF81E00E94DE
:10174000150281E00E94F90181E00E94990488233A
:10175000D9F36FEF81E00E94FE03809370046FEF76
:1017600081E00E94FE038093710481E00E941502D3
:1017700081E00E9499048130D9F3E9E86E2EE5E01A
:101780007E2EF3E14F2EF2E05F2EFE01B0961F0198
:10179000F2E06F1A7108D30111968C9111978F9313
:1017A0008C918F93A2E3B3E0BF93AF933F922F92BC
:1017B0000E944123E0909405F090950500919605D4
:1017C00010919705D2014D915C914A5D5F4F3F9218
:1017D0002F92812C912CA12CB12C74E0C72ED12CEE
:1017E00028E230E061E170E080E794E00E944A1E68
:1017F000B4E04B0E511C0FB6F894DEBF0FBECDBF48
:10180000FDE76F16F5E07F0619F6E0909405F0907D
:101810009505009196051091970540911D025091F4
:101820001E02485D5F4F85E393E09F938F932DE207
:1018300030E06FE070E080E794E00E944A1E80E0B4
:1018400093E09A8389838DE090E09C838B8381E091
:101850000E94F90164E081E00E94320260E081E0D0
:101860000E9432029E012F5F3F4F79010F900F902F
:1018700001E010E00DC0D7016C9181E00E943202BE
:101880000430110599F00F5F1F4F3FEFE31AF30A81
:101890000130110581F781E00E9499048823D9F372
:1018A000F701608181E00E943202EDCF81E00E9469
:1018B000150281E00E94F90181E00E9499048823C9
:1018C000D9F36FEF81E00E94FE03809370046FEF05
:1018D00081E00E94FE038093710481E00E94150262
:1018E00081E00E9499048130D9F3809170058823AA
:1018F00009F436C589E890E027E83FED42E551E07C
:101900005A8349833C832B839E838D8381E00E948D
:10191000F90166E081E00E94320260E081E00E940D
:101920003202FE0131967F0101E010E00DC0D701C7
:101930006C9181E00E9432020630110599F00F5F30
:101940001F4FFFEFEF1AFF0A0130110581F781E009
:101950000E9499048823D9F3D7016C9181E00E94F9
:101960003202EDCF81E00E94150281E00E94F90170
:1019700081E00E9499048823D9F36FEF81E00E94EF
:10198000FE03809370046FEF81E00E94FE0380935A
:10199000710481E00E94150281E00E949904813067
:1019A000D9F380E591E09A83898380E897E09C836E
:1019B0008B8380EC98E09E838D8380E09FE0988706
:1019C0008F8380E892E09A87898781E00E94F901FD
:1019D0006AE081E00E94320260E081E00E9432020F
:1019E000FE0131967F0101E010E00DC0D7016C913E
:1019F00081E00E9432020A30110599F00F5F1F4FFB
:101A0000FFEFEF1AFF0A0130110581F781E00E9414
:101A100099048823D9F3F701608181E00E943202A2
:101A2000EDCF81E00E94150281E00E94F90181E082
:101A30000E9499048823D9F36FEF81E00E94FE038E
:101A4000809370046FEF81E00E94FE038093710425
:101A500081E00E94150281E00E9499048130D9F34F
:101A600080917005811108C080919805813009F43A
:101A70007CC4823009F4E7C4CE014196E09094051D
:101A8000F090950500919605109197059F938F937F
:101A9000812C912CA12CB12C64E0C62ED12C28E1F4
:101AA00031E040EF50E06EE070E080E794E00E94AB
:101AB0004A1E85E691E09A83898388E790E09C83BB
:101AC0008B8381E00E94F90164E081E00E94320290
:101AD00060E081E00E943202FE0131967F010F90AA
:101AE0000F9001E010E00DC0D7016C9181E00E94E1
:101AF00032020430110599F00F5F1F4FFFEFEF1A0C
:101B0000FF0A0130110581F781E00E9499048823C2
:101B1000D9F3D7016C9181E00E943202EDCF81E0D0
:101B20000E94150281E00E94F90181E00E9499045F
:101B30008823D9F36FEF81E00E94FE038093700445
:101B40006FEF81E00E94FE038093710481E00E94A8
:101B5000150281E00E9499048130D9F3E7E3F2E0B5
:101B6000FAA3E9A380E090E023E030E03EA32DA3B8
:101B7000212C312C05E1402E02E0502EDC01AF5823
:101B8000BA4FBCA3ABA3E1E0F0E0FAA7E9A721E0DC
:101B900030E038A72FA3612C712CAC014A5F5F4F56
:101BA0005CA74BA7E0E0F3E0FA83E9838BA59CA553
:101BB000861997099C838B8381E00E94F90164E078
:101BC00081E00E94320260E081E00E9432029E01C8
:101BD0002F5F3F4F790101E010E00DC0D7016C91FC
:101BE00081E00E9432020430110599F00F5F1F4F0F
:101BF0003FEFE31AF30A0130110581F781E00E94FB
:101C000099048823D9F3F701608181E00E943202B0
:101C1000EDCF81E00E94150281E00E94F90181E090
:101C20000E9499048823D9F36FEF81E00E94FE039C
:101C3000809370046FEF81E00E94FE038093710433
:101C400081E00E94150281E00E9499048130D9F35D
:101C5000C30181709927EBA1FCA18215930509F4BA
:101C600062C1808181115AC18DEA90E026EE38ED83
:101C700042E551E05A8349833C832B839E838D83C5
:101C800081E00E94F90166E081E00E94320260E09A
:101C900081E00E943202CE0101967C0101E010E059
:101CA0000DC0D7016C9181E00E943202063011050F
:101CB00099F00F5F1F4F9FEFE91AF90A01301105E4
:101CC00081F781E00E9499048823D9F3D7016C91B0
:101CD00081E00E943202EDCF81E00E94150281E096
:101CE0000E94F90181E00E9499048823D9F36FEFE3
:101CF00081E00E94FE03809370046FEF81E00E94F8
:101D0000FE038093710481E00E94150281E00E942D
:101D100099048130D9F3E9A1FAA180819181D2019E
:101D20002D913C91E0E5F1E0FA83E983220F331F26
:101D3000220F331F220F331F3C832B83880F991FE1
:101D4000880F991F880F991F9E838D8320E832E0AA
:101D500038872F833A87298781E00E94F9016AE05A
:101D600081E00E94320260E081E00E943202AE0116
:101D70004F5F5F4F7A0101E010E00DC0D7016C9119
:101D800081E00E9432020A30110599F00F5F1F4F67
:101D90005FEFE51AF50A0130110581F781E00E9435
:101DA00099048823D9F3D7016C9181E00E94320213
:101DB000EDCF81E00E94150281E00E94F90181E0EF
:101DC0000E9499048823D9F36FEF81E00E94FE03FB
:101DD000809370046FEF81E00E94FE038093710492
:101DE00081E00E94150281E00E9499048130D9F3BC
:101DF0002114310409F4C4C2E9A1FAA180819181BE
:101E00004997D2012D913C91E2E6F1E0FA83E98312
:101E1000220F331F220F331F220F331F3C832B83CC
:101E2000880F991F880F991F880F991F9E838D8394
:101E300080EF90E098878F831A8619861C861B8610
:101E40001E861D8688E790E0988B8F8781E00E9430
:101E5000F90160E181E00E94320260E081E00E94CD
:101E600032029E012F5F3F4F790101E010E00DC06B
:101E7000D7016C9181E00E9432020031110599F086
:101E80000F5F1F4F3FEFE31AF30A0130110581F78F
:101E900081E00E9499048823D9F3D7016C9181E0F5
:101EA0000E943202EDCF81E00E94150281E00E9483
:101EB000F90181E00E9499048823D9F36FEF81E052
:101EC0000E94FE03809370046FEF81E00E94FE0386
:101ED0008093710481E00E94150281E00E949904C0
:101EE0008130D9F3EFA1F8A5369709F4C5C03FEFCB
:101EF000631A730A4FA158A54F5F5F4F58A74FA3AE
:101F000054E0450E511C8BA19CA101969CA38BA370
:101F1000A9A5BAA51296BAA7A9A744CE8AEF90E0C0
:101F200026E236E7A5CE8081811158C08FEF90E080
:101F30002DEC3AEF42E551E05A8349833C832B83F1
:101F40009E838D8381E00E94F90166E081E00E941A
:101F5000320260E081E00E943202CE0101967C01F3
:101F600001E010E00DC0D7016C9181E00E943202C7
:101F70000630110599F00F5F1F4F9FEFE91AF90A1C
:101F80000130110581F781E00E9499048823D9F37B
:101F9000F701608181E00E943202EDCF81E00E9472
:101FA000150281E00E94F90181E00E9499048823D2
:101FB000D9F36FEF81E00E94FE03809370046FEF0E
:101FC00081E00E94FE038093710481E00E9415026B
:101FD00081E00E9499048130D9F39DCE8AEF90E090
:101FE00026E236E7A7CFE0909405F09095050091A2
:101FF0009605109197056DA07EA0660C771CF301E5
:10200000EF5CFD4F3F01208131812651310949A408
:102010005AA4440C551CA2014D5E5D4F2A01DA0101
:102020004D915C9180E693E09F938F93812C912C4E
:10203000A12CB12CA4E0CA2ED12C6CE070E080E77A
:1020400094E00E944A1EF301408151814D5D5F4F33
:10205000D2016D917C91BFE0AB2EB12C14EBC12E5F
:10206000D12CE12CF12C87012EE130E080E794E0C7
:102070000E94FD1E0F900F90FFEF2F1A3F0A2DA117
:102080003EA12E5F3F4F3EA32DA349A15AA14C5F15
:102090005F4F5AA349A352E02516310409F05DC1F0
:1020A000A0E8CA2EA2E0DA2EB0E24B2E55245394BB
:1020B000612C1FE0712E5A8249821C821B82DE82B3
:1020C000CD8278866F82DA86C98681E00E94F90126
:1020D0006AE081E00E94320260E081E00E94320208
:1020E000CE0101967C0101E010E00DC0D7016C919A
:1020F00081E00E9432020A30110599F00F5F1F4FF4
:102100009FEFE91AF90A0130110581F781E00E9479
:1021100099048823D9F3F701608181E00E9432029B
:10212000EDCF81E00E94150281E00E94F90181E07B
:102130000E9499048823D9F36FEF81E00E94FE0387
:10214000809370046FEF81E00E94FE03809371041E
:1021500081E00E94150281E00E9499048130D9F348
:10216000BBEFDB1AE0E8CE16ECE0DE0609F0A3CF09
:1021700080912B0290912C0220E231E03A83298356
:102180001C821B8220E035E03E832D83880F991F3F
:10219000880F991F880F991F98878F833A872987FF
:1021A00081E00E94F9016AE081E00E94320260E071
:1021B00081E00E9432029E012F5F3F4F790101E0D2
:1021C00010E00DC0D7016C9181E00E9432020A300C
:1021D000110599F00F5F1F4F3FEFE31AF30A01302B
:1021E000110581F781E00E9499048823D9F3D70172
:1021F0006C9181E00E943202EDCF81E00E941502D5
:1022000081E00E94F90181E00E9499048823D9F3BA
:102210006FEF81E00E94FE03809370046FEF81E016
:102220000E94FE038093710481E00E94150281E008
:102230000E9499048130D9F357E1E52E52E0F52E42
:1022400060E2262E3324339470E8472E72E0572E36
:10225000E0E86E2EE7E07E2EF701808191813A82E0
:102260002982880F991F880F991F880F991F9C83B7
:102270008B835E824D8298878F837A86698681E020
:102280000E94F9016AE081E00E94320260E081E090
:102290000E9432029E012F5F3F4F690101E010E072
:1022A0000DC0D6016C9181E00E9432020A30110506
:1022B00099F00F5F1F4F3FEFC31AD30A013011058A
:1022C00081F781E00E9499048823D9F3F6016081A7
:1022D00081E00E943202EDCF81E00E94150281E090
:1022E0000E94F90181E00E9499048823D9F36FEFDD
:1022F00081E00E94FE03809370046FEF81E00E94F2
:10230000FE038093710481E00E94150281E00E9427
:1023100099048130D9F3B4E0EB0EF11CEFE2EE1634
:10232000E2E0FE0609F098CFAC960FB6F894DEBF57
:102330000FBECDBFDF91CF911F910F91FF90EF9016
:10234000DF90CF90BF90AF909F908F907F906F90D5
:102350005F904F903F902F9008958BA59CA50ACC3D
:102360008FEF90E026E636E6C9CACE01419622E11B
:10237000E7E3F3E0DC0101900D922A95E1F77ECBD3
:10238000B2E06B16710409F489C0B5E06B167104F4
:1023900009F429CEE9A1FAA1808191814996D2015F
:1023A0002D913C91E2E6F1E0FA83E983220F331F9D
:1023B000220F331F220F331F3C832B83880F991F5B
:1023C000880F991F880F991F9E838D8380EF90E05F
:1023D00098878F831A8619861C861B8684EB90E06B
:1023E0009E878D8788E790E0988B8F8781E00E9499
:1023F000F90160E181E00E94320260E081E00E9428
:1024000032029E012F5F3F4F790101E010E0013061
:10241000110571F0D7016C9181E00E943202003108
:102420001105E1F00F5F1F4F3FEFE31AF30AEFCF03
:1024300081E00E9499048823D9F3F701608181E04B
:102440000E943202EFCFCE01419624E1E9E4F3E0AD
:10245000DC0101900D922A95E1F710CB81E00E94FA
:10246000150281E00E94F90181E00E94990488230D
:10247000D9F36FEF81E00E94FE03809370046FEF49
:1024800081E00E94FE038093710481E00E941502A6
:1024900081E00E9499048130D9F324CDE090940525
:1024A000F09095050091960510919705E9A1FAA184
:1024B0002081318126513109D2014D915C918DE508
:1024C00093E09F938F93812C912CA12CB12C84E0CD
:1024D000C82ED12C6CE070E080E794E00E944A1E88
:1024E000E9A1FAA1408151814D5D5F4FD2016D910B
:1024F0007C919FE0A92EB12C24EBC22ED12CE12C93
:10250000F12C87012EE130E080E794E00E94FD1E6F
:102510000F900F90ECCC0F931F93CF93DF9381E03C
:102520000E94F90162E081E00E94320260E081E0F5
:102530000E94320281E00E9499048823D9F362E06C
:1025400081E00E94320263E081E00E94320281E079
:102550000E94150281E00E94F90100E714E0C1E049
:10256000D0E00CC06FEF81E00E94FE03F801808391
:10257000CA30D10591F021960F5F1F4FC130D105B0
:1025800089F781E00E9499048823D9F36FEF81E0F5
:102590000E94FE03F8018083EECF81E00E941502C5
:1025A00081E00E9499048130D9F38091730490E016
:1025B000982F882720917204822B90939305809303
:1025C00092058091750490E0982F882720917404DB
:1025D000822B90939105809390058091770490E0F1
:1025E000982F882720917604822B90938F058093D3
:1025F0008E052091790430E0322F22274091780413
:10260000242B30938B0520938A058130910521F18D
:102610001092890590938D0580938C0580910E0210
:102620002D30310551F0811103C081E080930E02FD
:10263000DF91CF911F910F9108958823C9F3809165
:10264000700591E089278093700510920E02DF914A
:10265000CF911F910F91089540918C0550918D0558
:10266000452BB1F6409189054111D2CF41E040930D
:102670008905D0CF20918E0530918F05213031050D
:1026800019F0FC011082089520918C0530918D0580
:10269000232BB9F7FC0120812111F3CF21E0208306
:1026A000089597FD18C086309105B4F4FC01EE0F33
:1026B000FF1FE358FA4F06C011921192019686301F
:1026C000910551F0208131812F5F3F4F318320836D
:1026D0002A3031058CF70895FC01EE0FFF1FE558F5
:1026E000FA4F89E090E0918380830895CF93DF9340
:1026F00086309105E0F5AC01440F551FFA01E3580F
:10270000FA4F20813181215031093183208337FFF5
:102710002EC085309105C9F19C012F5F3F4FF90113
:10272000EE0FFF1FE358FA4F6081718116161706EE
:102730000CF5A9E0B0E00FC02530310531F1B90149
:102740006F5F7F4F8081918118161906A4F4A9014B
:102750009B01440F551FEA01C358DA4FB983A88380
:102760008081918101978193919397FDE5CFDF91CE
:10277000CF9108959C01F901EE0FFF1FE358FA4F26
:1027800011821082DF91CF91089525E030E0F901A8
:10279000EE0FFF1FE358FA4F11821082F3CFE09142
:1027A0008A05F0918B053197EC30F10570F5EE5804
:1027B000FF4F0C94692080918305909184050196C8
:1027C00090938405809383050A970CF49EC0109221
:1027D0008405109283058091850590918605019668
:1027E00090938605809385050A977CF01092860564
:1027F00010928505809187059091880501969093A8
:102800008805809387050A9704F5089580918105CE
:1028100090918205019690938205809381050A9795
:102820000CF474C01092820510928105E3E8F5E083
:10283000808191810196918380830A9734F311926C
:10284000119285E0E938F80799F789E090E09093D4
:10285000880580938705089580E090E00C947613B6
:1028600081E090E00C94761382E090E00C94761373
:1028700083E090E00C94761384E090E00C9476135F
:1028800085E090E00C94761380917D0590917E0513
:10289000019690937E0580937D050A97ACF1109286
:1028A0007E0510927D05EFE7F5E08081918101962C
:1028B000918380830A970CF4A8CF1192119285E03E
:1028C000E938F80791F7C1CF80917F059091800595
:1028D00001969093800580937F050A97C4F010922B
:1028E000800510927F05E1E8F5E0808191810196F5
:1028F000918380830A970CF488CF1192119285E01E
:10290000E938F80791F7A1CF08950895089508953B
:10291000EF92FF920F931F93CF93DF9300D000D0DD
:10292000CDB7DEB781E00E94F90162E081E00E944C
:10293000320260E081E00E94320281E00E9499044C
:102940008823D9F360E881E00E94320261E081E0EF
:102950000E94320281E00E94150281E00E94F9018A
:1029600081E00E9499048823D9F36FEF81E00E94EF
:10297000FE03809370046FEF81E00E94FE0380935A
:10298000710481E00E94150281E00E949904813067
:10299000D9F385E591E09A83898384E090E09C8374
:1029A0008B8381E00E94F90164E081E00E943202A1
:1029B00060E081E00E943202CE0101967C0101E0DC
:1029C00010E00DC0F701608181E00E943202043006
:1029D000110599F00F5F1F4F9FEFE91AF90A0130B7
:1029E000110581F781E00E9499048823D9F3F7014A
:1029F000608181E00E943202EDCF81E00E941502E9
:102A000081E00E94F90181E00E9499048823D9F3B2
:102A10006FEF81E00E94FE03809370046FEF81E00E
:102A20000E94FE038093710481E00E94150281E000
:102A30000E9499048130D9F380910F029091100285
:102A4000A0911102B091120224E231E03A8329836D
:102A50009C838B83BE83AD8381E00E94F90166E095
:102A600081E00E94320260E081E00E943202CE01E9
:102A700001967C0101E010E00DC0F701608181E06A
:102A80000E9432020630110599F00F5F1F4F9FEF31
:102A9000E91AF90A0130110581F781E00E949904D1
:102AA0008823D9F3F701608181E00E943202EDCFE3
:102AB00081E00E94150281E00E94F90181E00E94FC
:102AC00099048823D9F36FEF81E00E94FE0380937D
:102AD00070046FEF81E00E94FE038093710481E037
:102AE0000E94150281E00E9499048130D9F30E946E
:102AF0008A0A80919805882309F444C081E00E94E5
:102B0000F90162E081E00E94320260E081E00E940F
:102B1000320281E00E9499048823D9F361E881E0C0
:102B20000E94320261E081E00E94320281E00E9454
:102B3000150281E00E94F90181E00E949904882336
:102B4000D9F36FEF81E00E94FE03809370046FEF72
:102B500081E00E94FE038093710481E00E941502CF
:102B600081E00E9499048130D9F326960FB6F8943B
:102B7000DEBF0FBECDBFDF91CF911F910F91FF90B0
:102B8000EF9008950E948B1280918905882309F4A3
:102B9000B5CF0E94CF13B2CF8091700508958F9268
:102BA0009F92AF92BF92CF92DF92EF92FF92EDE7AA
:102BB000F5E0C12CD12C7601C394812C912C5401C9
:102BC000A191B191A70196010E947E20860E971EC9
:102BD000A81EB91ED701C601880F991FAA1FBB1FC7
:102BE0006C017D01CC0CDD1CEE1CFF1CCC0CDD1C33
:102BF000EE1CFF1CC80ED91EEA1EFB1E85E0E9383C
:102C0000F807F1F6C501B401FF90EF90DF90CF9087
:102C1000BF90AF909F908F9008952F923F924F92C8
:102C20005F926F927F928F929F92AF92BF92CF925C
:102C3000DF92EF92FF920F931F93CF93DF93CDB765
:102C4000DEB763970FB6F894DEBF0FBECDBF7C0131
:102C50001B016A01FC0117821682838181FF66C312
:102C6000BE016F5F7F4F4B01F7019381F10193FD2F
:102C7000859193FF81911F01882309F453C3853205
:102C800039F493FD859193FF81911F01853239F4C9
:102C9000B70190E00E94D02256016501E5CF10E017
:102CA000512C20E02032A0F48B3269F030F48032D5
:102CB00059F0833269F420612CC08D3239F08033B1
:102CC00039F4216026C02260246023C0286021C01E
:102CD00027FD27C030ED380F3A3078F426FF06C0C4
:102CE000FAE01F9F300D1124132F13C06AE0569E87
:102CF000300D1124532E20620CC08E3221F426FD9B
:102D000011C3206406C08C3611F4206802C08836D6
:102D100041F4F10193FD859193FF81911F01811190
:102D2000C1CF9BEB980F933018F42061805E06C0F2
:102D30009BE9980F933008F0AAC12F7E26FF16E07A
:102D40002F73722E853621F4F22FF0647F2E08C087
:102D5000863621F4622F6068762E02C01111115060
:102D600077FE07C01C3348F444244394410E27E007
:102D70000BC0183030F4212F06C027E04CE3442E5E
:102D800003C027E017E0412C560174E0A70EB11CE8
:102D9000F6016081718182819381042DA4010E94DA
:102DA00082216C01098100FF02C003FF06C071FC93
:102DB00007C072FC08C0612C08C03DE2632E05C04C
:102DC0002BE2622E02C090E2692E802F8C7099F166
:102DD000662011F084E001C083E0851510F0512CCD
:102DE0000BC0581A73FC08C0B70180E290E00E9443
:102DF000D0225A94C9F7F3CF662029F0B701862D67
:102E000090E00E94D02203FD03C008E311E002C05D
:102E100004E311E0F72DF0717F2EF80184918823EF
:102E200009F476C271108052B70190E00E94D0225E
:102E30000F5F1F4FF2CF77FE0FC04C0C04FF04C092
:102E40008A81813309F44A94141474F5F8E0F41576
:102E500078F588E0482E2CC076FC2AC0812F90E0BF
:102E60008C159D059CF06CEFC6166FEFD60674F0BE
:102E7000772D7068772E0AC0E2E0F0E0EC0FFD1FBE
:102E8000E10FF11D8081803319F411501111F4CF3D
:102E900077FE0EC044244394410E812F90E0C81663
:102EA000D9062CF41C1904C04424439401C010E03A
:102EB00077FE07C01C141D043CF496012F5F3F4FA2
:102EC00005C025E030E002C021E030E0662011F0CE
:102ED0002F5F3F4F112331F0412F50E04F5F5F4F85
:102EE000240F351F452D50E02417350714F4521ACE
:102EF00001C0512C872D897049F4552039F0B70154
:102F000080E290E00E94D0225A94F7CF662029F008
:102F1000B701862D90E00E94D02273FC09C0552095
:102F200039F0B70180E390E00E94D0225A94F7CFA5
:102F300077FE5FC09C2D8D2DD7FE02C090E080E013
:102F4000692E782E40E050E0C601841991099D87D2
:102F50008C87960126193709280D391D812F90E09D
:102F6000EE27FF27E81BF90BFF87EE87FFEF6F16B1
:102F70007F0669F4B7018EE290E02B8B3A8B488B89
:102F8000598B0E94D022598948893A892B89C614C5
:102F9000D70454F06C857D85661577052CF4F9010E
:102FA000E40FF51F818101C080E371E0671A7108A9
:102FB0004F5F5F4FEE85FF856E167F066CF0B701A1
:102FC00090E02B8B3A8B488B598B0E94D0222B8917
:102FD0003A8948895989CACF6C147D0439F49A8199
:102FE000963318F4953311F404FF81E3B70190E0B0
:102FF0004BC08A81813309F00F7EB70190E00E94B7
:10300000D022111105C074FE18C085E490E017C0ED
:10301000B7018EE290E00E94D02282E066246394A1
:10302000680EF401E80FF11D8081B70190E00E9465
:10303000D022115041F3862DF1CF85E690E0B70103
:103040000E94D022D7FC05C0C114D10439F404FF7A
:1030500005C0D194C194D1088DE201C08BE2B701C3
:1030600090E00E94D02280E36AE0C616D1042CF0E2
:103070008F5FFAE0CF1AD108F7CFB70190E00E9436
:10308000D022B701C601C0960E94D02241C183362A
:1030900031F0833779F0833509F058C021C05601EB
:1030A00072E0A70EB11CF6018081898301E010E077
:1030B000640114C05601F2E0AF0EB11CF601C080ED
:1030C000D18026FF03C0612F70E002C06FEF7FEF59
:1030D000C6012B8B0E9487228C012B892F7715C06C
:1030E0005601F2E0AF0EB11CF601C080D18026FF80
:1030F00003C0612F70E002C06FEF7FEFC6012B8B22
:103100000E9475228C012B892068722E23FD1AC023
:10311000852D90E008171907A8F4B70180E290E028
:103120000E94D0225A94F4CFF60177FC859177FE65
:1031300081916F01B70190E00E94D02251105A9402
:10314000015011090115110579F7E2C0843611F01B
:10315000893651F5560127FF09C0F4E0AF0EB11CC6
:10316000F60160817181828193810AC0F2E0AF0E25
:10317000B11CF60160817181882777FD8095982FB9
:10318000022F0F7697FF08C09095809570956195F6
:103190007F4F8F4F9F4F00682AE030E0A4010E94CC
:1031A0008923C82EC8183EC0022F853721F40F7E10
:1031B0002AE030E01DC0097F8F3691F018F4883581
:1031C00059F0B0C0803719F0883711F0ABC00061FA
:1031D00004FF09C0046007C024FF08C0066006C0E1
:1031E00028E030E005C020E130E002C020E132E01C
:1031F000560107FF09C0F4E0AF0EB11CF601608173
:1032000071818281938108C0F2E0AF0EB11CF6019A
:103210006081718180E090E0A4010E948923C82E22
:10322000C8180F7706FF0BC0202F2E7FC11650F451
:1032300004FF0AC002FD08C0202F2E7E05C0DC2C32
:10324000202F03C0DC2C01C0D12E24FF0DC0FE01B5
:10325000EC0DF11D8081803311F4297E09C022FF1D
:1032600006C0D394D39404C0822F867809F0D394F7
:1032700023FD13C020FF06C01C2DD51418F4150D16
:103280001D19D52CD51468F4B70180E290E02B8B82
:103290000E94D022D3942B89F5CFD51410F45D1859
:1032A00001C0512C24FF12C0B70180E390E02B8BAA
:1032B0000E94D0222B8922FF17C021FF03C088E57E
:1032C00090E002C088E790E0B7010CC0822F8678BA
:1032D00059F021FD02C080E201C08BE227FD8DE2A2
:1032E000B70190E00E94D022C11638F4B70180E304
:1032F00090E00E94D0221150F7CFCA94F401EC0D57
:10330000F11D8081B70190E00E94D022C110F5CF5D
:10331000552009F4C2CCB70180E290E00E94D0228F
:103320005A94F6CFF7018681978102C08FEF9FEF05
:1033300063960FB6F894DEBF0FBECDBFDF91CF917D
:103340001F910F91FF90EF90DF90CF90BF90AF90C3
:103350009F908F907F906F905F904F903F902F90B5
:10336000089520FD09C0FC0123FD05C022FF02C015
:103370007383628351834083089544FD10C046FDEA
:1033800010C0DB01FC01AA0FBB1FEE1FFF1F109432
:10339000D1F76A0F7B1F8E1F9F1F31E003C033E000
:1033A00001C034E0660F771F881F991F3150D1F795
:1033B000620F711D811D911D08950F931F93CF936F
:1033C000DF938C01C8010E949222EC0197FD08C096
:1033D0000E945A22892BB1F7B801CE010E947023B6
:1033E000CE01DF91CF911F910F9108956F927F923F
:1033F0009F92AF92BF92CF92DF92EF92FF920F9384
:103400001F93CF93DF931F92CDB7DEB78C013B01A3
:103410005A0129830E949222AC01552729814B32FF
:10342000510521F04D32510581F4206831E0631AD5
:1034300071086114710411F480E07FC0C801298310
:103440000E949222298197FDF7CFE22FED7F9E2ED9
:10345000322F307379F5803369F57301F1E0EF1A9B
:10346000F108E114F10409F454C0C80129830E9451
:103470009222298197FD4DC0382F3F7D383581F448
:10348000292D2264922E32E0631A710861147104AE
:1034900009F43FC0C8010E94922297FF0BC039C0B7
:1034A00026FF04C0E92DE2609E2E03C0F92DF261D3
:1034B0009F2E3701C12CD12C760120ED280F28300A
:1034C00080F094FE04C0B8010E9470231FC02A300F
:1034D00040F096FEF8CF2F7D3FEE320F363098F752
:1034E0002750492DC701B6010E94BD196B017C010F
:1034F000292D2260922E31E0631A71086114710443
:1035000059F0C8010E94922297FFD7CF91FC04C0C6
:1035100093CFC12CD12C760197FE08C0F094E09493
:10352000D094C094C11CD11CE11CF11C292DB70101
:10353000A601C5010E94B11981E00F90DF91CF91E2
:103540001F910F91FF90EF90DF90CF90BF90AF90C1
:103550009F907F906F9008954F925F926F927F92AD
:103560008F929F92AF92BF92CF92DF92EF92FF9293
:103570000F931F93CF93DF93CDB7DEB7A0970FB60E
:10358000F894DEBF0FBECDBF5C014B017A018E0106
:103590000F5F1F4F680180E2F80111928A95E9F7E9
:1035A000F501638080E090E0712C412CB0E041E0B7
:1035B00050E0F90163FC559063FE51908F01A52DF9
:1035C0009F01511003C080E090E07FC0FEE55F12D4
:1035D00002C0009761F16B2F70E0681779074CF417
:1035E0006DE5561661F1EDE25E1203C0442009F16B
:1035F00003C0411001C0752C6A2F669566956695CB
:10360000F601E60FF11D6A2F67708A0102C0000FF4
:10361000111F6A95E2F7B8017081762B7083A715A8
:1036200059F0A71510F4AF5FE7CFA150E5CFB1E097
:1036300004C04424439401C0412C0196BACF4420D5
:1036400019F08E8180628E83B11103C07724739448
:1036500019C0F601CE018196208120952193E817AB
:10366000F907D1F7F3CFE114F10429F0F7018083D2
:10367000C70101967C0191E0891A91088114910497
:10368000F1F0712CC5010E94922297FD16C0282FDF
:10369000269526952695F601E20FF11D208130E052
:1036A000AC014770552702C0359527954A95E2F73A
:1036B00020FDD9CFB5010E947023711084CFE11491
:1036C000F10411F0F7011082C801A0960FB6F8942A
:1036D000DEBF0FBECDBFDF91CF911F910F91FF9045
:1036E000EF90DF90CF90BF90AF909F908F907F90A2
:1036F0006F905F904F9008952F923F924F925F92FC
:103700006F927F929F92AF92BF92CF92DF92EF9291
:10371000FF920F931F93CF93DF9300D000D0CDB7CC
:10372000DEB76C018B011A010E9492229E838D8369
:1037300099278B32910529F08D9799F480E8982E7E
:1037400001C0912C015011090115110511F480E0FF
:1037500036C1C6010E9492229E838D8397FF02C0CC
:10376000F6CF912C8D819E810E946222893691052F
:1037700041F08E369105D9F5BEE46B2EB1E07B2E7B
:1037800004C0A1E56A2EA1E07A2E8FEF681A780AAC
:10379000F3013197B490BB20F1F0015011090115EC
:1037A000110571F0C6010E9492227C0197FD08C0AC
:1037B0000E946222B81649F3B601C7010E94702325
:1037C00024E5621621E0720609F0C1CF80E090E0A6
:1037D000A0E8BFE709C091E5691691E07906B1F765
:1037E00080E090E0A0ECBFE7BC01CD01D8C0412C47
:1037F000512C3201E12CF12C2D8120532A3028F557
:10380000E92DE260BE2E892D887092FE06C08111DE
:1038100023C0FFEFEF1AFF0A1FC0882319F081E0D1
:10382000E81AF10840E2C301B2010E94BD192B0160
:103830003C0198E9491699E95906690699E1790622
:1038400058F0E92DE660BE2E07C02E3FA1F493FC90
:1038500012C0F92DF860BF2E015011090115110594
:1038600049F0C6010E9492229E838D839B2C97FD76
:1038700002C0C2CF9B2C91FE6ACF8D818F7D853493
:1038800009F056C0580121E0A21AB108A114B104F0
:1038900009F45DCFC6010E9492229E838D8397FD1D
:1038A00056CF99278B32910529F08D9781F4892D78
:1038B0008061982E580192E0A91AB108A114B104B0
:1038C00009F445CFC6010E9492229E838D838D818B
:1038D0009E81C0970A9708F03ACF8501A12CB12CA0
:1038E000B501882777FD8095982F2D81205340E2E0
:1038F0000E94BD19AB01BC015A010150110901150B
:10390000110571F0C60149835A836B837C830E9441
:1039100092229E838D83C09749815A810A9700F332
:1039200094FE04C0AA24BB24A41AB50AEA0CFB1C0A
:10393000012B41F0ED81FE81F7FD04C0B601CF01FE
:103940000E947023C301B2010E949120F7FE08C0BB
:10395000F194E194F108FDE6AF2EF1E0BF2E04C032
:10396000E5E8AE2EE1E0BE2E6501F8E1CF1AD10800
:1039700000E210E0E016F10650F0F50125913591D6
:10398000459154910E94CE20E01AF10AF3CF24E031
:10399000A21AB10816950795AC14BD0459F797FE05
:1039A00005C0DC01CB01B058BC01CD0121143104AC
:1039B00029F0F101608371838283938381E02696ED
:1039C0000FB6F894DEBF0FBECDBFDF91CF911F9130
:1039D0000F91FF90EF90DF90CF90BF90AF909F90AE
:1039E0007F906F905F904F903F902F9008954F92EF
:1039F0005F926F927F928F929F92AF92BF92CF927F
:103A0000DF92EF92FF920F931F93CF93DF931F925A
:103A1000CDB7DEB78C012B017A01FC01178216822B
:103A2000A12CF801D380F201D3FC8591D3FE8191C2
:103A3000382F2F01882309F416C190E039830E94A2
:103A40005A223981892B21F0C8010E94DD19E9CF62
:103A5000353241F4F201D3FC3591D3FE31912F017F
:103A6000353269F4C80139830E949222398197FD69
:103A7000F8C03817B1F2B8010E947023F4C03A328E
:103A800041F4D3FC3591D3FE31912F01BB24B39483
:103A900001C0B12C812C912C20ED230F2A3088F409
:103AA000FB2DF260BF2EB40180E090E040E20E9466
:103AB000BD194B01F201D3FC3591D3FE31912F0199
:103AC000EBCFB1FE04C08114910421F4CCC0882452
:103AD0008A94982C383619F03C3661F014C0F20103
:103AE000D3FC3591D3FE31912F01383661F4FB2D93
:103AF000F860BF2E8B2D8460B82EF201D3FC359177
:103B0000D3FE31912F01332309F4ADC0632F70E050
:103B10008CE391E039830E946A223981892B09F470
:103B2000A2C0B0FC07C0F701C080D180C7010296D7
:103B30007C0102C0C12CD12C3E3651F4F8014681E3
:103B4000578160E070E02B2DC6010E94B11969CF4A
:103B50003336C9F4B1FC03C088248394912CC80186
:103B60000E94922297FD7DC0C114D10429F0F60174
:103B70008083C60101966C0191E0891A9108811435
:103B8000910469F76AC03B3559F49201A601B4016A
:103B9000C8010E94AC1A2C01009709F05EC058C001
:103BA000C80139830E94DD19398197FD5AC03F361B
:103BB000F1F140F43436B9F13936E1F1383509F034
:103BC00040C02DC03337B9F018F4303741F139C057
:103BD000353749F1383719F134C0C114D10429F00F
:103BE000F6016082C60101966C0191E0891A910884
:103BF0008114910471F0C8010E9492223C0197FD4A
:103C000008C00E945A22892B41F3B801C3010E94C7
:103C10007023C114D10409F1F60110821EC0FB2DDE
:103C2000F064BF2E07C08B2D8062B82E03C09B2D81
:103C30009061B92E2B2DA601B401C8010E94F6197E
:103C400005C0A601B401C8010E947C1B811105C0FA
:103C5000F8018381807329F406C0B0FCE2CEA394FE
:103C6000E0CEAA2019F08A2D90E002C08FEF9FEFDE
:103C70000F90DF91CF911F910F91FF90EF90DF9008
:103C8000CF90BF90AF909F908F907F906F905F90FC
:103C90004F9008956F927F928F929F92AF92BF92B2
:103CA000CF92DF92EF92FF920F931F93CF93DF9308
:103CB000CDB7DEB7C251D1400FB6F894DEBF0FBE0C
:103CC000CDBF3C0181E091E09A8389837C836B8343
:103CD000440F551F440F551F440F551F5E834D83DE
:103CE000220F331F220F331F220F331F38872F83DA
:103CF000FA86E9861C870B87DE86CD86B88AAF8672
:103D0000880C991C880C991C880C991C9A8A898AA1
:103D1000CC5DDE4F68817981C452D140CE0143969B
:103D20000E94CA058E010F5F1F4F6C01C01AD10A95
:103D300081E00E94F9016C2D81E00E9432026D2D1C
:103D400081E00E943202C114D104F9F0780100E050
:103D500010E00BC0F70161917F0181E00E94320207
:103D60000F5F1F4FC016D10681F098012F733327C4
:103D7000232B81F781E00E9499048111EBCF81E030
:103D80000E9499048823B1F3E5CF81E00E941502D7
:103D900081E00E94F90181E00E9499048823D9F30F
:103DA0006FEF81E00E94FE03F30180836FEF81E0FB
:103DB0000E94FE03F301818381E00E94150281E0ED
:103DC0000E9499048130D9F3F30180819181CE5E04
:103DD000DE4F0FB6F894DEBF0FBECDBFDF91CF919F
:103DE0001F910F91FF90EF90DF90CF90BF90AF9019
:103DF0009F908F907F906F9008958F929F92AF9237
:103E0000BF92CF92DF92EF92FF920F931F93CF93C7
:103E1000DF93CDB7DEB760970FB6F894DEBF0FBE65
:103E2000CDBF4C01A2E6B1E0BA83A983660F771F2C
:103E3000660F771F660F771F7C836B83440F551FB8
:103E4000440F551F440F551F5E834D83220F331FB0
:103E5000220F331F220F331F38872F83FA86E986FC
:103E60001C870B87DE86CD86AA0CBB1CAA0CBB1C4C
:103E7000AA0CBB1CB88AAF8681E00E94F90160E100
:103E800081E00E94320260E081E00E943202CE01B5
:103E900001967C0101E010E00DC0F701608181E036
:103EA0000E9432020031110599F00F5F1F4F9FEF02
:103EB000E91AF90A0130110581F781E00E9499049D
:103EC0008823D9F3F701608181E00E943202EDCFAF
:103ED00081E00E94150281E00E94F90181E00E94C8
:103EE00099048823D9F36FEF81E00E94FE03F40167
:103EF00080836FEF81E00E94FE03F401818381E003
:103F00000E94150281E00E9499048130D9F3F401E6
:103F10008081918160960FB6F894DEBF0FBECDBF51
:103F2000DF91CF911F910F91FF90EF90DF90CF9095
:103F3000BF90AF909F908F900895AF92BF92CF9215
:103F4000DF92EF92FF920F931F93CF93DF93CDB742
:103F5000DEB7C250D1400FB6F894DEBF0FBECDBF62
:103F60005C0185E593E09A838983CE0103960E94E4
:103F7000CA058E010F5F1F4F6C01C01AD10A81E084
:103F80000E94F9016C2D81E00E9432026D2D81E0CA
:103F90000E943202C114D104F9F0780100E010E06F
:103FA0000BC0F70161917F0181E00E9432020F5F37
:103FB0001F4FC016D10681F098012F733327232B92
:103FC00081F781E00E9499048111EBCF81E00E948A
:103FD00099048823B1F3E5CF81E00E94150281E0C6
:103FE0000E94F90181E00E9499048823D9F36FEFC0
:103FF00081E00E94FE03F50180836FEF81E00E9463
:10400000FE03F501818381E00E94150281E00E9498
:1040100099048130D9F3F50180819181CE5FDE4F23
:104020000FB6F894DEBF0FBECDBFDF91CF911F91C9
:104030000F91FF90EF90DF90CF90BF90AF900895D9
:104040000E9465010E9466050E94760A83E090E066
:104050000E946D010E946701789483E693E00E94BC
:104060001423C0E0D0E040E002E314E69E01369560
:104070002795ABE7B4E10E946F2096958795089F3E
:104080009001099F300D1124C217D307F9F0442382
:1040900031F08FE99FE00197F1F700C00000219611
:1040A0009E013695279536952795ABE7B4E10E949A
:1040B0006F2096958795189F9001199F300D1124B8
:1040C00041E0C217D30791F640E0D0CF0E94881498
:1040D000E6CFEE0FFF1F0590F491E02D1994A29FFB
:1040E000B001B39FC001A39F700D811D1124911DCC
:1040F000B29F700D811D1124911D0895B7FF0C947E
:1041000086200E948620821B930B08950E946F20B8
:10411000A59F900DB49F900DA49F800D911D11241B
:104120000895E89409C097FB3EF4909580957095AA
:1041300061957F4F8F4F9F4F9923A9F0F92F96E9F3
:10414000BB279395F695879577956795B795F11168
:10415000F8CFFAF4BB0F11F460FF1BC06F5F7F4F05
:104160008F4F9F4F16C0882311F096E911C0772317
:1041700021F09EE8872F762F05C0662371F096E820
:10418000862F70E060E02AF09A95660F771F881FEF
:10419000DAF7880F9695879597F908950BD078C030
:1041A00069D028F06ED018F0952309F05AC05FC08E
:1041B0001124A2C07ED0A0F3959FD1F3950F50E0BB
:1041C000551F629FF001729FBB27F00DB11D639FC9
:1041D000AA27F00DB11DAA1F649F6627B00DA11D6F
:1041E000661F829F2227B00DA11D621F739FB00D15
:1041F000A11D621F839FA00D611D221F749F332785
:10420000A00D611D231F849F600D211D822F762F1D
:104210006A2F11249F5750408AF0E1F088234AF01A
:10422000EE0FFF1FBB1F661F771F881F9150504066
:10423000A9F79E3F510570F014C05EC05F3FECF3DC
:10424000983EDCF3869577956795B795F795E79552
:104250009F5FC1F7FE2B880F911D9695879597F963
:10426000089597F99F6780E870E060E008959FEFF8
:1042700080EC089500240A941616170618060906FD
:10428000089500240A9412161306140605060895CC
:10429000092E0394000C11F4882352F0BB0F40F454
:1042A000BF2B11F460FF04C06F5F7F4F8F4F9F4F94
:1042B000089557FD9058440F551F59F05F3F71F016
:1042C0004795880F97FB991F61F09F3F79F087957D
:1042D0000895121613061406551FF2CF4695F1DF06
:1042E00008C0161617061806991FF1CF8695710596
:1042F000610508940895E894BB2766277727CB01CA
:1043000097F90895283008F027E03327DA01990F4C
:10431000311D87FD916000966105710539F43260A9
:104320002E5F3D9330E32A95E1F708959F3F30F0EB
:1043300080387105610509F03C5F3C5F3D93913029
:1043400008F08068911DDF93CF931F930F93FF9226
:10435000EF92192F987F9695E92F96959695E90FEC
:10436000FF27ED51FE4F99273327EE24FF24A701A5
:10437000E70105900894079428F4360FE71EF81E0D
:10438000491F511D660F771F881F991F0694A1F7BB
:104390000590079428F4E70EF81E491F561FC11D0B
:1043A000770F881F991F661F0694A1F70590079441
:1043B00028F4F80E491F561FC71FD11D880F991FDB
:1043C000661F771F0694A1F70590079420F4490F04
:1043D000561FC71FD81F990F661F771F881F069487
:1043E000A9F784911095177041F0D695C795579508
:1043F0004795F794E7941A95C1F7E9E8F1E06894D6
:104400001590159135916591959105907FE2739581
:10441000E118F10A430B560BC90BD009C0F7E10CA8
:10442000F11E431F561FC91FD01D7EF4703311F4B7
:104430008A95E6CFE894015030F0080F0AF400277F
:10444000021708F4202F2395022F7A3328F079E3FE
:104450007D932A95E9F710C07D932A9589F60694F5
:1044600097956795379517951794E118F10A430BBF
:10447000560BC90BD00998F023957E9173957A332A
:1044800008F070E37C932013B8F77E9170617D9300
:1044900030F0839571E37D9370E32A95E1F7112461
:1044A000EF90FF900F911F91CF91DF91992787FD9A
:1044B0009095089591118BC1803219F089508550E3
:1044C000D0F708959111089581548A5108F4805EBF
:1044D000855A0895FC010590061621F00020D9F7B1
:1044E000C00108953197CF010895FC0105906150F6
:1044F00070400110D8F7809590958E0F9F1F0895FA
:10450000FB01DC0101900D920020E1F70895FC0110
:104510006150704001900110D8F7809590958E0FF2
:104520009F1F0895CF93DF93EC012B8120FF33C0B1
:1045300026FF0AC02F7B2B838E819F8101969F834C
:104540008E838A8190E029C022FF0FC0E881F98123
:104550008081992787FD9095009719F420622B831D
:104560001AC03196F983E8830EC0EA85FB85199558
:1045700097FF09C02B81019611F480E101C080E210
:10458000822B8B8308C02E813F812F5F3F4F3F835B
:104590002E83992702C08FEF9FEFDF91CF9108956F
:1045A0000F931F93CF93DF93182F092FEB018B816C
:1045B00081FD03C08FEF9FEF20C082FF10C04E81AE
:1045C0005F812C813D81421753077CF4E881F9819A
:1045D0009F012F5F3F4F39832883108306C0E885F2
:1045E000F985812F1995892B29F72E813F812F5F1E
:1045F0003F4F3F832E83812F902FDF91CF911F91CB
:104600000F910895CF93DF93CDB7DEB7FE013696B5
:1046100061917191AF0180919B0590919C050E94E1
:104620000D16DF91CF9108950F931F93CF93DF93D2
:10463000E0919B05F0919C05238121FF1BC0EC01BB
:1046400000E010E0899160919B0570919C05DB0171
:104650001896ED91FC911997882331F01995892BC3
:1046600089F30FEF1FEFEECF8AE01995892B11F434
:10467000C80102C08FEF9FEFDF91CF911F910F9183
:1046800008950F931F93CF93DF93CDB7DEB72E9787
:104690000FB6F894DEBF0FBECDBF0E891F8986E02E
:1046A0008C831A8309838FEF9FE79E838D83AE01EE
:1046B000465E5F4F688D798DCE0101960E940D1682
:1046C000EF81F885E00FF11F10822E960FB6F89457
:1046D000DEBF0FBECDBFDF91CF911F910F91089527
:1046E000FB01238120FF12C026FD10C08F3F3FEF4A
:1046F000930761F082832F7D206423832681378195
:104700002150310937832683992708958FEF9FEF32
:104710000895FA01AA27283051F1203181F1E89457
:104720006F936E7F6E5F7F4F8F4F9F4FAF4FB1E0A4
:104730003ED0B4E03CD0670F781F891F9A1FA11D9F
:10474000680F791F8A1F911DA11D6A0F711D811DA0
:10475000911DA11D20D009F468943F912AE0269F65
:1047600011243019305D3193DEF6CF010895462FC4
:104770004770405D4193B3E00FD0C9F7F6CF462FA5
:104780004F70405D4A3318F0495D31FD405241930E
:1047900002D0A9F7EACFB4E0A695979587957795CB
:1047A0006795BA95C9F700976105710508959B0152
:1047B000AC010A2E06945795479537952795BA95DB
:1047C000C9F7620F731F841F951FA01D08959927B5
:0847D00088270895F894FFCF3B
:1047D8000000000300000000A204B204000001660B
:1047E8004100000000280050007800A000C800F038
:1047F800001801400168019001B801E001E001E002
:10480800010000280050007800A000C800F000183F
:10481800014001436C654F2056657273696F6E20C5
:104828003D2025640A00436C654F204944203D2003
:1048380025640A00436C654F204E6F6F702829204D
:104848004563686F203D2025640A00436C654F204E
:1048580072303D307825780A00436C654F207231FC
:104868003D307825780A00436C654F2053796E6394
:104878006564005445432054656D706572617475B4
:10488800726520436F6E74726F6C6C65720044655C
:1048980076696365204944203A20414D4F320053E0
:1048A80074617274696E67205570202E2E2E200058
:1048B80040466F6E74732F4453454737436C61739A
:1048C8007369634D696E692D426F6C644974616CDC
:1048D80069632E6674666F6E7400486172647761EE
:1048E8007265204944203A20302E302E3000466927
:1048F800726D77617265204944203A20302E302E3F
:1049080030002564002C004D617820437572726573
:104918006E74204661756C740044696F6465204E3E
:104928006F7420436F6E6E6563746564006D41003B
:0A49380075410052656164790000CA
:00000001FF
