:100000000C945C010C948D010C94C6060C94C606ED
:100010000C9408070C948D010C94C6060C948D0169
:100020000C948D010C9412070C94C62B0C94C62BC7
:100030000C948D010C948D010C948D010C948D0108
:100040000C948D010C943F070C948D010C948D0140
:100050000C948D010C948D010C948D010C948D01E8
:100060000C948D010C94F2040C948D010C948D0170
:100070000C948D010C948D010C948D010C948D01C8
:100080000C948D010C948D010C948D010C948D01B8
:100090000C948D010C948D010C948D010C948D01A8
:1000A0000C948D010C948D010C948D010C948D0198
:1000B0000C948D010C948D010C948D010C948D0188
:1000C0000C948D010C948D010C948D010C948D0178
:1000D0000C948D010C948D010C948D010C948D0168
:1000E0000C948D01EC360037143728374A37923795
:1000F00097367E37C436D8360C947E370C94D83673
:100100000C9492370C94C4360C94AA040C94973631
:100110000C9479420C94BA040C9428370C94003750
:100120000C944A370C9414370C94EC366E616E00C4
:10013000696E660000407A10F35A00A0724E1809EA
:100140000010A5D4E80000E87648170000E40B543E
:10015000020000CA9A3B000000E1F505000080960D
:100160009800000040420F000000A086010000003F
:10017000102700000000E8030000000064000000F9
:1001800000000A00000000000100000000002C76C2
:10019000D888DC674F0823DFC1DFAE59E1B1B796DD
:1001A000E5E3E453C63AE651997696E8E6C284263A
:1001B000EB898C9B62ED407C6FFCEFBC9C9F40F216
:1001C000BAA56FA5F490055A2AF75C936B6CF96792
:1001D0006DC11BFCE0E40D47FEF520E6B500D0ED57
:1001E000902E0300943577050080841E08000020BF
:1001F0004E0A000000C80C333333330F986E12835D
:100200001141EF8D2114893BE65516CFFEE6DB1830
:10021000D1844B381BF77C1D901DA4BBE4242032F5
:1002200084725E228100C9F124ECA1E53D274E4194
:100230004E494E495459494E46CDCCCC3D0AD72360
:100240003C17B7D13877CC2B329595E6241FB14FA8
:100250000A000020410000C84200401C4620BCBEED
:100260004CCA1B0E5AAEC59D746364696E6F707381
:100270007578585B65666745464700616E006E6637
:10028000696E69747900CDCCCC3D0AD7233C17B791
:10029000D13877CC2B329595E6241FB14F0A000058
:1002A00020410000C84200401C4620BCBE4CCA1B76
:1002B0000E5AAEC59D74794211241FBECFEFD1E214
:1002C000DEBFCDBF00E00CBF19E0A0E0B2E0E0EF80
:1002D000F7E900E00BBF02C007900D92A431B1070F
:1002E000D9F72DE0A4E1B9E001C01D92A63BB20709
:1002F000E1F711E0CCE5D1E000E006C0219701096B
:10030000802FFE010E94E544CB35D10780E008072D
:10031000A9F70E94EE410C94F64B0C940000279A2A
:1003200008952F9A08952F9808951F9A0895009779
:10033000D9F020E030E02F9A4FE75AE166E04150D3
:1003400050406040E1F700C000002F984FE75AE1AD
:1003500066E0415050406040E1F700C000002F5F70
:100360003F4F2817390739F70895813009F43FC006
:10037000823009F008958091010180688093010125
:10038000809102018F77809302012FEF81EE94E03C
:10039000215080409040E1F700C0000080910101B1
:1003A000886080930101809102018860809302013E
:1003B000809101018061809301018091020180613F
:1003C00080930201809101018062809301018091FC
:1003D0000201806280930201809101018064809318
:1003E0000101809102018F7B809302010895809A20
:1003F000889A6F9A779A839A8B9A819A899A829827
:100400008A986E9876980895813009F008957798C3
:100410009AE09A95F1F7779A8A95F1F708958130E5
:1004200071F0823009F00895809102018F7E8093EF
:10043000020180910201877F8093020108958B98C9
:1004400088980895813099F0823009F0089580915C
:100450000201886080930201809102018061809393
:100460000201809102018062809302010895889ABE
:100470008B9A899A0895962F9078813009F4BCC0A0
:10048000823009F0089580910201911110C18F7D91
:100490008093020181E0982F9A95F1F790910201E3
:1004A0009061909302018A95F1F7809102018F7E0D
:1004B0008093020166FF31C18091020180628093C6
:1004C000020181E0982F9A95F1F7909102019061D5
:1004D000909302018A95F1F7809102018F7E8093BB
:1004E000020165FF14C180910201806280930201C4
:1004F00081E0982F9A95F1F7909102019061909385
:1005000002018A95F1F7809102018F7E80930201AA
:1005100064FFF7C08091020180628093020181E054
:10052000982F9A95F1F790910201906190930201B2
:100530008A95F1F7809102018F7E8093020163FF1B
:10054000DAC08091020180628093020181E0982FDD
:100550009A95F1F7909102019061909302018A952A
:10056000F1F7809102018F7E8093020162FFBDC08E
:100570008091020180628093020181E0982F9A9518
:10058000F1F7909102019061909302018A95F1F741
:10059000809102018F7E8093020161FFA0C0809153
:1005A000020180628093020181E0982F9A95F1F711
:1005B000909102019061909302018A95F1F78091E8
:1005C00002018F7E8093020160FF83C0809102014F
:1005D00080628093020181E0982F9A95F1F79091C3
:1005E00002019061909302018A95F1F780910201D6
:1005F0008F7E809302010895911157C0899881E000
:10060000982F9A95F1F78B9A8A95F1F78B9866FF58
:1006100054C0899A81E0982F9A95F1F78B9A8A9520
:10062000F1F78B9865FF47C0899A81E0982F9A95DA
:10063000F1F78B9A8A95F1F78B9864FF46C0899AF7
:1006400081E0982F9A95F1F78B9A8A95F1F78B981C
:1006500063FF39C0899A81E0982F9A95F1F78B9AB8
:100660008A95F1F78B9862FF2CC0899A81E0982FC8
:100670009A95F1F78B9A8A95F1F78B9861FF1FC0D5
:10068000899A81E0982F9A95F1F78B9A8A95F1F7DC
:100690008B9860FF1CC0899A81E0982F9A95F1F79A
:1006A0008B9A8A95F1F78B980895899AA8CF8062E2
:1006B00080930201EFCE8998B8CF8998ABCF899803
:1006C000E0CF8998D3CF8998C6CF8998B9CF899838
:1006D000E3CF809102018F7D809302017CCF8091D6
:1006E00002018F7D809302015FCF809102018F7D97
:1006F0008093020142CF809102018F7D809302019D
:1007000025CF809102018F7D8093020108CF8091D7
:1007100002018F7D80930201EBCE809102018F7DDB
:1007200080930201CECE813011F080E00895982FA1
:100730009A95F1F78B9A2FB1982F9A95F1F78B989C
:1007400022FB222720F9220F982F9A95F1F78B9AF6
:100750009FB1382F3A95F1F78B9892FB992790F932
:10076000292B220F982F9A95F1F78B9A9FB1382F4A
:100770003A95F1F78B9892FB992790F9292B220F44
:10078000982F9A95F1F78B9A9FB1382F3A95F1F7F8
:100790008B9892FB992790F9292B220F982F9A95E5
:1007A000F1F78B9A9FB1382F3A95F1F78B9892FB1E
:1007B000992790F9292B220F982F9A95F1F78B9A68
:1007C0009FB1382F3A95F1F78B9892FB992790F9C2
:1007D000292B220F982F9A95F1F78B9A9FB1382FDA
:1007E0003A95F1F78B9892FB992790F9292B982F3E
:1007F0009A95F1F78B9A9FB18A95F1F78B98822F92
:10080000880F92FB992790F9892B0895813011F078
:1008100080E0089567FF93C0899A91E0892F8A95B7
:10082000F1F78B9A8FB19A95F1F78B9882FB882715
:1008300080F9880F66FF81C0899A21E0922F9A95EE
:10084000F1F78B9A9FB12A95F1F78B9892FB992734
:1008500090F9892B880F65FF6EC0899A21E0922F4D
:100860009A95F1F78B9A9FB12A95F1F78B9892FBA5
:10087000992790F9892B880F64FF5BC0899A21E042
:10088000922F9A95F1F78B9A9FB12A95F1F78B9851
:1008900092FB992790F9892B880F63FF48C0899AAA
:1008A00021E0922F9A95F1F78B9A9FB12A95F1F753
:1008B0008B9892FB992790F9892B880F62FF35C09E
:1008C000899A21E0922F9A95F1F78B9A9FB12A95F8
:1008D000F1F78B9892FB992790F9892B880F61FF8C
:1008E00022C0899A21E0922F9A95F1F78B9A9FB1B5
:1008F0002A95F1F78B9892FB992790F9892B880F0D
:1009000060FF0FC0899A21E0922F9A95F1F78B9A98
:100910009FB12A95F1F78B9892FB992790F9892B33
:1009200008958998F0CF8998DDCF8998CACF8998A2
:10093000B7CF8998A4CF899891CF89987ECF89988D
:100940006CCF813011F080E008958CB186FB882750
:1009500080F90895CF93C82F8A3041F09091C0005C
:1009600095FFFCCFC093C600CF9108958DE00E9403
:10097000AA04F4CF809116098823E1F3E0911709C6
:10098000F0911809E55EF64F80819091160991501B
:100990009093160920911709309118092F5F3F4F46
:1009A00030931809209317092091170930911809DD
:1009B0002F3F310509F00895109218091092170978
:1009C00008951092C50089E18093C400E0ECF0E046
:1009D00080818D7F808386E08093C20088E1809350
:1009E000C10008951F920F920FB60F9211240BB6FB
:1009F0000F922F938F939F93EF93FF932091C600B5
:100A0000809116098F3FA1F1E0911909F0911A091F
:100A1000E55EF64F2083809116098F5F809316095B
:100A20008091190990911A09019690931A0980935F
:100A300019098091190990911A098F3F910501F1C7
:100A40008091140990911509892B31F08091C00093
:100A500085FFFCCF2093C600FF91EF919F918F916E
:100A60002F910F900BBE0F900FBE0F901F901895F7
:100A70008091C00085FFFCCF80E48093C600ECCF5E
:100A800010921A0910921909DBCF80911609882358
:100A9000F1F0E0911709F0911809E55EF64F8081B9
:100AA0009091160991509093160920911709309151
:100AB00018092F5F3F4F3093180920931709209191
:100AC0001709309118092F3F310519F0089580E07A
:100AD000089510921809109217090895E1ECF0E0BA
:100AE00080818F7780831092C50089E18093C40054
:100AF000A0ECB0E08C918D7F8C9386E08093C20057
:100B000088E180831092150910921409AEEABDE0C5
:100B100080E092E011969C938E9313969C938E9313
:100B2000129710921A09109219091092180910922E
:100B30001709109216098081806880830895909328
:100B4000150980931409089510921509109214093B
:100B50000895FC0160830895EF92FF921F93CF9355
:100B6000DF931F92CDB7DEB77C01162FFC01808189
:100B700079830E940F026981F70180810E943B0204
:100B8000612FF70180810E943B02F70180810F9065
:100B9000DF91CF911F91FF90EF900C942202FC0106
:100BA00080810C94B501FC0160830895CF92DF929F
:100BB000EF92FF920F93CF93DF93EC016A017B01D9
:100BC00088810E940F02602F637088810E943B021F
:100BD00099278F2D7E2D6D2D88810E943B026C2DD3
:100BE00088810E943B028881DF91CF910F91FF9015
:100BF000EF90DF90CF900C942202FC0180810C9446
:100C0000B501FC0160830895CF92DF92EF92FF92CD
:100C1000CF93DF93EC016A017B0188810E940F0270
:100C20006C2D88810E943B02B70188279927888113
:100C30000E943B0299278F2D7E2D6D2D88810E9469
:100C40003B028881DF91CF91FF90EF90DF90CF90B2
:100C50000C942202FC0180810C94B501FC0160839C
:100C600008950F931F93CF93DF93EC018B0188813D
:100C70000E940F02B8010024660F771F001C660F48
:100C8000771F001C672F702D6F7388810E943B02B5
:100C9000602F660F660F88810E943B028881DF917A
:100CA000CF911F910F910C942202FC0180810C9432
:100CB000B5010F931F93CF93DF938C01EB010E943B
:100CC000B548FE0101900020E9F7CF018C1B9D0B78
:100CD000800F911FDF91CF911F910F910895FC011B
:100CE000608308950F931F93CF93DF93EC01888166
:100CF0000E940F0288810E94930388810E949303BF
:100D0000082F88810E949303182F88810E94220255
:100D1000812F90E0902BDF91CF911F910F9108953B
:100D2000FC0180810C94B50152985A9AE9E6F0E0F2
:100D300080818F7D8083808180618083EA9A519851
:100D4000599A8081877F8083808184608083E99A3B
:100D500053985B9A80818068808380818F7B8083B9
:100D6000EB9A26982E9AA8E6B0E08C9181608C933D
:100D7000EBE6F0E080818064808325982D9A8C9149
:100D800081608C9380818062808308951F920F928E
:100D90000FB60F9211240BB60F922F933F934F93E0
:100DA0005F936F938F939F93EF93FF934091A60D63
:100DB000440F440F4093A60D59B169B161FB8827D8
:100DC00080F990E0842B52FB222720F930E0220F9B
:100DD000331F822B932B8093A60D8F70E82FF0E0AA
:100DE000E85DFD4F9091AB0D8081890F8093AB0D35
:100DF000FF91EF919F918F916F915F914F913F91F3
:100E00002F910F900BBE0F900FBE0F901F90189553
:100E10001F920F920FB60F9211240F900FBE0F90DA
:100E20001F9018951F920F920FB60F9211248F9357
:100E30009F9383B186FB882780F990910F029923B5
:100E400011F08823C1F080930F0283B185FB8827BE
:100E500080F990910E02992329F0811103C091E04D
:100E60009093A90D80930E029F918F910F900FBECA
:100E70000F901F90189591E09093AA0DE4CF1F92C8
:100E80000F920FB60F9211240BB60F92CF92DF92F2
:100E9000EF92FF920F931F932F933F934F935F9384
:100EA0006F937F938F939F93AF93BF93CF93DF9372
:100EB000EF93FF93809181008D7F8093810020913B
:100EC0002C0B30912D0B8091280B9091290B69E10F
:100ED000629FF001639FF00D1124E057F44F43E04F
:100EE00050E09A01281B390B81859285A385B48532
:100EF00004C0B595A795979587952A95D2F7009741
:100F0000A105B10541F120910501E091250BF0917A
:100F1000260B30E002C035952795EA95E2F720FFD1
:100F20004DC04091250B5091260B2091050181E089
:100F300090E002C0880F991F4A95E2F7809590953E
:100F400030E08223932380930501809181008260A9
:100F50008093810018C04091250B5091260B209161
:100F6000050181E090E002C0880F991F4A95E2F7E1
:100F70008095909530E08223932380930501109211
:100F80001B0B1092270BFF91EF91DF91CF91BF9137
:100F9000AF919F918F917F916F915F914F913F9111
:100FA0002F911F910F91FF90EF90DF90CF900F90B6
:100FB0000BBE0F900FBE0F901F901895E091250B60
:100FC000F091260B7091050121E030E0690102C02B
:100FD000CC0CDD1CEA95E2F7F601E72BE093050166
:100FE0000091280B1091290BC0912C0BD0912D0B47
:100FF0006C9FF0016D9FF00D1124E057F44F401BE2
:10100000510B790102C0EE0CFF1C4A95E2F7A701D3
:10101000052E000C660B770B018512852385348520
:1010200068017901C41AD50AE60AF70AC186D28690
:10103000E386F48620911B0B222309F486CF40918E
:101040001D0B50911E0B60911F0B7091200B1416FD
:10105000150616061706ECF4809188009091890019
:101060000597909389008093880080911D0B909143
:101070001E0BA0911F0BB091200B0197A109B10984
:1010800080931D0B90931E0BA0931F0BB093200B0E
:101090005CCF4091210B5091220B6091230B7091FA
:1010A000240B84179507A607B7070CF04ECF809145
:1010B000880090918900059690938900809388001C
:1010C00044CF81E00E940F0262E081E00E943B0277
:1010D00060E081E00E943B0281E00E94A10488233D
:1010E000D9F362E081E00E943B0260E081E00E946F
:1010F0003B0281E00E94220281E00E940F0281E017
:101100000E94A1048823D9F36FEF81E00E940604B6
:1011100080931A0A6FEF81E00E94060480931B0AF5
:1011200081E00E94220281E00E94A1048130D9F373
:1011300080911B0A8F9380911A0A8F9382E692E026
:101140009F938F930E94814981E00E940F0262E089
:1011500081E00E943B0260E081E00E943B020F9030
:101160000F900F900F9081E00E94A1048823D9F383
:1011700063E081E00E943B0260E081E00E943B026C
:1011800081E00E94220281E00E940F0281E00E9421
:10119000A1048823D9F36FEF81E00E9406048093B5
:1011A0001A0A6FEF81E00E94060480931B0A81E017
:1011B0000E94220281E00E94A1048130D9F3809133
:1011C0001B0A8F9380911A0A8F9385E792E09F9371
:1011D0008F930E94814981E00E940F0262E081E0CA
:1011E0000E943B0260E081E00E943B020F900F9062
:1011F0000F900F9081E00E94A1048823D9F360E052
:1012000081E00E943B0260E081E00E943B0281E0BD
:101210000E94220281E00E940F0281E00E94A1044C
:101220008823D9F36FEF81E00E94060480931A0AA5
:101230006FEF81E00E94060480931B0A81E00E9408
:10124000220281E00E94A1048130D9F381E00E9452
:101250000F0262E081E00E943B0260E081E00E94B8
:101260003B0281E00E94A1048823D9F361E081E080
:101270000E943B0260E081E00E943B0281E00E940C
:10128000220281E00E940F0281E00E94A1048823D3
:10129000D9F36FEF81E00E94060480931A0A6FEF82
:1012A00081E00E94060480931B0A81E00E942202D2
:1012B00081E00E94A1048130D9F380911B0A8F93B1
:1012C00080911A0A8F9383E892E09F938F930E94F4
:1012D00081490F900F900F900F9008956F927F9219
:1012E0008F929F92AF92BF92CF92DF92EF92FF9236
:1012F0000F931F93CF93DF93CDB7DEB76A970FB6E7
:10130000F894DEBF0FBECDBF989AA09A2FEF83ED61
:1013100090E3215080409040E1F700C00000A09889
:10132000EFEFF3ED20E3E150F0402040E1F700C0A3
:10133000000081E00E94B50181E00E940F0281E07F
:101340000E94A1048823D9F36FEF81E00E94060474
:1013500080931A0A6FEF81E00E94060480931B0AB3
:1013600081E00E94220281E00E94A1048130D9F331
:1013700080911A0A90911B0A8231944309F07DC032
:1013800081E00E940F0262E081E00E943B0260E087
:1013900081E00E943B0281E00E94A1048823D9F3EE
:1013A00060E081E00E943B0260E081E00E943B023D
:1013B00081E00E94220281E00E940F0281E00E94EF
:1013C000A1048823D9F36FEF81E00E940604809383
:1013D0001A0A6FEF81E00E94060480931B0A81E0E5
:1013E0000E94220281E00E94A1048130D9F3009181
:1013F0001A0A10911B0A81E00E940F0262E081E04C
:101400000E943B0260E081E00E943B0281E00E947A
:10141000A1048823D9F361E081E00E943B0260E0EF
:1014200081E00E943B0281E00E94220281E00E9452
:101430000F0281E00E94A1048823D9F36FEF81E0BD
:101440000E94060480931A0A6FEF81E00E9406044E
:1014500080931B0A81E00E94220281E00E94A10485
:101460008130D9F380911A0A90911B0A012B09F05F
:1014700087CF8F379D4109F083CF80E094E09A8336
:10148000898384E690E09C838B8381E00E940F0235
:1014900064E081E00E943B0260E081E00E943B0248
:1014A000CE0101963C017C0101E010E00DC0F70186
:1014B000608181E00E943B020430110599F00F5FCA
:1014C0001F4FFFEFEF1AFF0A0130110581F781E08E
:1014D0000E94A1048823D9F3F701608181E00E9472
:1014E0003B02EDCF81E00E94220281E00E940F02C8
:1014F00081E00E94A1048823D9F36FEF81E00E946C
:10150000060480931A0A6FEF81E00E94060480931C
:101510001B0A81E00E94220281E00E94A104813026
:10152000D9F381E00E940F0262E081E00E943B0259
:1015300060E081E00E943B0281E00E94A1048823D8
:10154000D9F360E881E00E943B0261E081E00E9403
:101550003B0281E00E94220281E00E940F0281E0B2
:101560000E94A1048823D9F36FEF81E00E94060452
:1015700080931A0A6FEF81E00E94060480931B0A91
:1015800081E00E94220281E00E94A1048130D9F30F
:1015900085E591E09A83898384E090E09C838B8346
:1015A00081E00E940F0264E081E00E943B0260E063
:1015B00081E00E943B02730101E010E00DC0F701E1
:1015C000608181E00E943B020430110599F00F5FB9
:1015D0001F4FFFEFEF1AFF0A0130110581F781E07D
:1015E0000E94A1048823D9F3F701608181E00E9461
:1015F0003B02EDCF81E00E94220281E00E940F02B7
:1016000081E00E94A1048823D9F36FEF81E00E945A
:10161000060480931A0A6FEF81E00E94060480930B
:101620001B0A81E00E94220281E00E94A104813015
:10163000D9F380E791E09A8389838BEE93ED9C83C5
:101640008B8389EE90E09E838D8381E00E940F0260
:1016500066E081E00E943B0260E081E00E943B0284
:10166000730101E010E00DC0F701608181E00E948C
:101670003B020630110599F00F5F1F4FFFEFEF1A85
:10168000FF0A0130110581F781E00E94A10488233F
:10169000D9F3F701608181E00E943B02EDCF81E048
:1016A0000E94220281E00E940F0281E00E94A104B8
:1016B0008823D9F36FEF81E00E94060480931A0A11
:1016C0006FEF81E00E94060480931B0A81E00E9474
:1016D000220281E00E94A1048130D9F389E1E1E195
:1016E000F3E0D30101900D928A95E1F77F926F921A
:1016F000812C912CA12CB12C94E0C92ED12CE12C61
:10170000F12C87012EE130E040EF50E06EE070E018
:101710008AE19AE00E94454084E492E09F938F938F
:101720008AE992E09F938F937F926F920E94C549BE
:101730007F926F9223E0C22ED12C24E630E04AE063
:1017400050E067E070E08AE19AE00E9445408EE355
:1017500092E09F938F938EEA92E09F938F937F9274
:101760006F920E94C5497F926F9228E730E04AE06D
:1017700050E067E070E08AE19AE00E94454088E32B
:1017800092E09F938F9382EC92E09F938F937F924E
:101790006F920E94C5497F926F922CE830E04AE038
:1017A00050E067E070E08AE19AE00E94454081E104
:1017B000E6EDF2E0D30101900D928A95E1F77F9278
:1017C0006F922CED30E04AE050E068E070E08AE192
:1017D0009AE00E94454081E00E940F0262E081E0B1
:1017E0000E943B0260E081E00E943B020FB6F89449
:1017F000DEBF0FBECDBF81E00E94A1048823D9F3D4
:1018000061E881E00E943B0261E081E00E943B02CE
:1018100081E00E94220281E00E940F0281E00E948A
:10182000A1048823D9F36FEF81E00E94060480931E
:101830001A0A6FEF81E00E94060480931B0A81E080
:101840000E94220281E00E94A1048130D9F381E04C
:1018500094E09E8B8D8B82E090E0988F8F8B1A8E18
:10186000198E81E00E940F0266E081E00E943B0237
:1018700060E081E00E943B028E010B5E1F4F6624F8
:101880006394712C0EC0F801608181E00E943B02DC
:10189000F6E06F167104A1F09FEF691A790A0F5FE5
:1018A0001F4FE1E06E16710471F781E00E94A10400
:1018B0008823D9F3F801608181E00E943B02ECCFDC
:1018C00081E00E94220281E00E940F0281E00E94DA
:1018D000A1048823D9F36FEF81E00E94060480936E
:1018E0001A0A6FEF81E00E94060480931B0A81E0D0
:1018F0000E94220281E00E94A1048130D9F367EEA8
:1019000072E08AE19AE00E946B416A960FB6F89401
:10191000DEBF0FBECDBFDF91CF911F910F91FF9022
:10192000EF90DF90CF90BF90AF909F908F907F907F
:101930006F9008952F923F924F925F926F927F9295
:101940008F929F92AF92BF92CF92DF92EF92FF92CF
:101950000F931F93CF93DF93CDB7DEB7CC54D14015
:101960000FB6F894DEBF0FBECDBF81E00E940F021C
:1019700062E081E00E943B0260E081E00E943B0265
:1019800081E00E94A1048823D9F360E881E00E94ED
:101990003B0261E081E00E943B0281E00E94220262
:1019A00081E00E940F0281E00E94A1048823D9F304
:1019B0006FEF81E00E94060480931A0A6FEF81E0C6
:1019C0000E94060480931B0A81E00E94220281E0AB
:1019D0000E94A1048130D9F385E591E09A8389833F
:1019E00084E090E09C838B8381E00E940F0264E09E
:1019F00081E00E943B0260E081E00E943B029E0188
:101A00002F5F3F4F3901890144244394512C0EC06C
:101A1000D8016C9181E00E943B02B4E04B16510466
:101A2000A1F03FEF431A530A0F5F1F4F81E04816A2
:101A3000510471F781E00E94A1048823D9F3D801F1
:101A40006C9181E00E943B02ECCF81E00E94220277
:101A500081E00E940F0281E00E94A1048823D9F353
:101A60006FEF81E00E94060480931A0A6FEF81E015
:101A70000E94060480931B0A81E00E94220281E0FA
:101A80000E94A1048130D9F380E791E09A83898391
:101A90001C821B821E821D8281E00E940F0266E072
:101AA00081E00E943B0260E081E00E943B028301F2
:101AB00044244394512C0EC0D8016C9181E00E94C3
:101AC0003B02B6E04B165104A1F0EFEF4E1A5E0A4E
:101AD0000F5F1F4FF1E04F16510471F781E00E9434
:101AE000A1048823D9F3F801608181E00E943B02C0
:101AF000ECCF81E00E94220281E00E940F0281E08F
:101B00000E94A1048823D9F36FEF81E00E940604AC
:101B100080931A0A6FEF81E00E94060480931B0AEB
:101B200081E00E94220281E00E94A1048130D9F369
:101B300080E093E09A83898381E090E09C838B83AB
:101B40000E940F0264E081E00E943B0260E081E0BD
:101B50000E943B02830144244394512C0EC0D801BF
:101B60006C9181E00E943B02B4E04B165104A1F05D
:101B7000EFEF4E1A5E0A0F5F1F4FF1E04F16510450
:101B800071F781E00E94A1048823D9F3D8016C91F8
:101B900081E00E943B02ECCF81E00E94220281E0C2
:101BA0000E940F0281E00E94A1048823D9F36FEF05
:101BB00081E00E94060480931A0A6FEF81E00E9480
:101BC000060480931B0A81E00E94220281E00E94A9
:101BD000A1048130D9F38091C80C81110C94611D4E
:101BE0008FEF90E02FEF3FEF42E551E05A834983BA
:101BF0003C832B839E838D8381E00E940F0266E0ED
:101C000081E00E943B0260E081E00E943B02830190
:101C100044244394512C0EC0D8016C9181E00E9461
:101C20003B02B6E04B165104A1F0EFEF4E1A5E0AEC
:101C30000F5F1F4FF1E04F16510471F781E00E94D2
:101C4000A1048823D9F3F801608181E00E943B025E
:101C5000ECCF81E00E94220281E00E940F0281E02D
:101C60000E94A1048823D9F36FEF81E00E9406044B
:101C700080931A0A6FEF81E00E94060480931B0A8A
:101C800081E00E94220281E00E94A1048130D9F308
:101C900080E591E09A83898380E797E09C838B833A
:101CA00088E396E09E838D8388EF94E098878F8306
:101CB00088E792E09A87898781E00E940F026AE0B4
:101CC00081E00E943B0260E081E00E943B028301D0
:101CD00044244394512C0EC0D8016C9181E00E94A1
:101CE0003B02BAE04B165104A1F0EFEF4E1A5E0A28
:101CF0000F5F1F4FF1E04F16510471F781E00E9412
:101D0000A1048823D9F3D8016C9181E00E943B02A1
:101D1000ECCF81E00E94220281E00E940F0281E06C
:101D20000E94A1048823D9F36FEF81E00E9406048A
:101D300080931A0A6FEF81E00E94060480931B0AC9
:101D400081E00E94220281E00E94A1048130D9F347
:101D500080918C0B90918D0B29E1289FF001299F98
:101D6000F00D1124E057F44F65857685072E000CA1
:101D7000880B990B0E94EC452FE632E143E850E4D2
:101D80000E94A14620E030E040E85BE30E94A146CB
:101D90009F938F937F936F9381E393E09F938F93B0
:101DA0002E01EDEE4E1AEEEF5E0A5F924F920E9408
:101DB000C54987E393E09F938F93812C912CA12CAD
:101DC000B12CC12CD12CE12CF12C870122EA30E07E
:101DD00043EA50E06AE070E08AE19AE00E94454000
:101DE0005F924F92B5E0CB2ED12C28EC30E048E149
:101DF00051E06EE070E08AE19AE00E94454081E0A7
:101E000091E09A8389838DE090E09C838B8380E1CD
:101E100099E09E838D8380E596E098878F831A866C
:101E200019861C861B8684E090E09E878D87188A21
:101E30001F861A8A198A6EE373E0CE0143960E94C8
:101E400059067C01E618F70881E00E940F026E2D0A
:101E500081E00E943B026F2D81E00E943B020FB6A1
:101E6000F894DEBF0FBECDBFE114F10401F1830190
:101E7000212C312C0CC0D8016D918D0181E00E9484
:101E80003B02BFEF2B1A3B0AE214F30481F0C101BD
:101E90008F739927892B79F781E00E94A104811122
:101EA000EACF81E00E94A1048823B1F3E4CF81E06E
:101EB0000E94220281E00E940F0281E00E94A104A0
:101EC0008823D9F36FEF81E00E94060480931A0AF9
:101ED0006FEF81E00E94060480931B0A81E00E945C
:101EE000220281E00E94A1048130D9F380E093E0D6
:101EF0009A83898388E090E09C838B8381E00E94B1
:101F00000F0264E081E00E943B0260E081E00E94F9
:101F10003B02830122242394312C0EC0D8016C9102
:101F200081E00E943B02B4E02B163104A1F0EFEFF8
:101F30002E1A3E0A0F5F1F4FF1E02F16310471F782
:101F400081E00E94A1048823D9F3F801608181E037
:101F50000E943B02ECCF81E00E94220281E00E94BD
:101F60000F0281E00E94A1048823D9F36FEF81E082
:101F70000E94060480931A0A6FEF81E00E94060413
:101F800080931B0A81E00E94220281E00E94A1044A
:101F90008130D9F38091CF0C81110C945B1D8FEFB0
:101FA00090E02FEF3FEF42E551E05A8349833C83B5
:101FB0002B839E838D8381E00E940F0266E081E087
:101FC0000E943B0260E081E00E943B0283012224E8
:101FD0002394312C0EC0D8016C9181E00E943B0209
:101FE000B6E02B163104A1F0EFEF2E1A3E0A0F5F78
:101FF0001F4FF1E02F16310471F781E00E94A10418
:102000008823D9F3D8016C9181E00E943B02ECCF88
:1020100081E00E94220281E00E940F0281E00E9482
:10202000A1048823D9F36FEF81E00E940604809316
:102030001A0A6FEF81E00E94060480931B0A81E078
:102040000E94220281E00E94A1048130D9F380E540
:1020500091E09A83898380E797E09C838B8388EB68
:1020600098E09E838D8388EF94E098878F8388E73C
:1020700092E09A87898781E00E940F026AE081E0FE
:102080000E943B0260E081E00E943B028301222427
:102090002394312C0EC0D8016C9181E00E943B0248
:1020A000BAE02B163104A1F0EFEF2E1A3E0A0F5FB3
:1020B0001F4FF1E02F16310471F781E00E94A10457
:1020C0008823D9F3F801608181E00E943B02ECCFC4
:1020D00081E00E94220281E00E940F0281E00E94C2
:1020E000A1048823D9F36FEF81E00E940604809356
:1020F0001A0A6FEF81E00E94060480931B0A81E0B8
:102100000E94220281E00E94A1048130D9F38091D3
:102110008C0B90918D0B29E1289FF001299FF00DE8
:102120001124E057F44F67857089072E000C880B47
:10213000990B0E94EC452FE632E143E850E40E94FF
:10214000A14620E030E040E85BE30E94A1469F9377
:102150008F937F936F9381E393E09F938F935F922D
:102160004F920E94C54980E493E09F938F93812C06
:10217000912CA12CB12CC12CD12CE12CF12C87015C
:1021800022EF30E043EA50E06AE070E08AE19AE052
:102190000E9445405F924F9275E0C72ED12C28E1F6
:1021A00031E048E151E06EE070E08AE19AE00E949F
:1021B000454081E091E09A8389838DE090E09C83A3
:1021C0008B8380E199E09E838D8380ED98E09887F2
:1021D0008F831A8619861C861B8684E090E09E8772
:1021E0008D87188A1F861A8A198A6EE373E0CE01DA
:1021F00043960E9459067C01E618F70881E00E9488
:102200000F026E2D81E00E943B026F2D81E00E9443
:102210003B020FB6F894DEBF0FBECDBFE114F10450
:1022200001F18301212C312C0CC0D8016D918D015D
:1022300081E00E943B02BFEF2B1A3B0AE214F30439
:1022400081F0C1018F739927892B79F781E00E9472
:10225000A1048111EACF81E00E94A1048823B1F397
:10226000E4CF81E00E94220281E00E940F0281E01F
:102270000E94A1048823D9F36FEF81E00E94060435
:1022800080931A0A6FEF81E00E94060480931B0A74
:1022900081E00E94220281E00E94A1048130D9F3F2
:1022A00080E093E09A83898387E090E09C838B832E
:1022B00081E00E940F0264E081E00E943B0260E046
:1022C00081E00E943B02830122242394312C0EC022
:1022D000D8016C9181E00E943B02B4E02B163104DE
:1022E000A1F0EFEF2E1A3E0A0F5F1F4FF1E02F16FD
:1022F000310471F781E00E94A1048823D9F3D80149
:102300006C9181E00E943B02ECCF81E00E942202AE
:1023100081E00E940F0281E00E94A1048823D9F38A
:102320006FEF81E00E94060480931A0A6FEF81E04C
:102330000E94060480931B0A81E00E94220281E031
:102340000E94A1048130D9F380918C0B90918D0B68
:1023500029E1289FF001299FF00D1124E057F44F47
:10236000848981110C94551D84E990E024E934E9B5
:1023700042E551E05A8349833C832B839E838D83BE
:1023800081E00E940F0266E081E00E943B0260E073
:1023900081E00E943B02830122242394312C0EC051
:1023A000D8016C9181E00E943B02B6E02B1631040B
:1023B000A1F0EFEF2E1A3E0A0F5F1F4FF1E02F162C
:1023C000310471F781E00E94A1048823D9F3F80158
:1023D000608181E00E943B02ECCF81E00E942202FA
:1023E00081E00E940F0281E00E94A1048823D9F3BA
:1023F0006FEF81E00E94060480931A0A6FEF81E07C
:102400000E94060480931B0A81E00E94220281E060
:102410000E94A1048130D9F380E591E09A838983F9
:1024200080E79CE09C838B8388EB93E09E838D8385
:1024300088EF94E098878F8388E792E09A8789876E
:1024400081E00E940F026AE081E00E943B0260E0AE
:1024500081E00E943B02830122242394312C0EC090
:10246000D8016C9181E00E943B02BAE02B16310446
:10247000A1F0EFEF2E1A3E0A0F5F1F4FF1E02F166B
:10248000310471F781E00E94A1048823D9F3D801B7
:102490006C9181E00E943B02ECCF81E00E9422021D
:1024A00081E00E940F0281E00E94A1048823D9F3F9
:1024B0006FEF81E00E94060480931A0A6FEF81E0BB
:1024C0000E94060480931B0A81E00E94220281E0A0
:1024D0000E94A1048130D9F380918C0B90918D0BD7
:1024E00029E1289FF001299FF00D1124E057F44FB6
:1024F000248921110C94871E20912C0B30912D0BD7
:102500008217930711F40C94901F84E593E09F9336
:102510008F93812C912CA12CB12C34E0C32ED12C83
:10252000E12CF12C870128E730E040E951E06EE032
:1025300070E08AE19AE00E9445400F900F908091F0
:102540001C0B81110C94FE1E80E093E09A8389831A
:1025500082E090E09C838B8381E00E940F0264E024
:1025600081E00E943B0260E081E00E943B02830127
:1025700022242394312C0EC0D8016C9181E00E945A
:102580003B02B4E02B163104A1F0FFEF2F1A3F0AF3
:102590000F5F1F4F21E02216310471F781E00E9486
:1025A000A1048823D9F3D8016C9181E00E943B02F9
:1025B000ECCF81E00E94220281E00E940F0281E0C4
:1025C0000E94A1048823D9F36FEF81E00E940604E2
:1025D00080931A0A6FEF81E00E94060480931B0A21
:1025E00081E00E94220281E00E94A1048130D9F39F
:1025F0008091C90C81110C944F1D8FEF90E02FEF4B
:102600003FEF42E551E05A8349833C832B839E830D
:102610008D8381E00E940F0266E081E00E943B0210
:1026200060E081E00E943B02830122242394312C4C
:102630000EC0D8016C9181E00E943B02B6E02B16DF
:102640003104A1F0EFEF2E1A3E0A0F5F1F4FF1E0A9
:102650002F16310471F781E00E94A1048823D9F379
:10266000F801608181E00E943B02ECCF81E00E9492
:10267000220281E00E940F0281E00E94A1048823CF
:10268000D9F36FEF81E00E94060480931A0A6FEF7E
:1026900081E00E94060480931B0A81E00E942202CE
:1026A00081E00E94A1048130D9F380E591E09A8312
:1026B000898380E79CE09C838B8388E391E09E8301
:1026C0008D8388EF94E098878F8388E792E09A87DC
:1026D000898781E00E940F026AE081E00E943B024C
:1026E00060E081E00E943B02830122242394312C8C
:1026F0000EC0D8016C9181E00E943B02BAE02B161B
:102700003104A1F0EFEF2E1A3E0A0F5F1F4FF1E0E8
:102710002F16310471F781E00E94A1048823D9F3B8
:10272000D8016C9181E00E943B02ECCF81E00E94D5
:10273000220281E00E940F0281E00E94A10488230E
:10274000D9F36FEF81E00E94060480931A0A6FEFBD
:1027500081E00E94060480931B0A81E00E9422020D
:1027600081E00E94A1048130D9F382E693E09F9337
:102770008F93812C912CA12CB12CC12CD12CE12C2C
:10278000F12C870122E030E043E451E06AE070E0A0
:102790008AE19AE00E94454080918C0B90918D0BCC
:1027A00029E1289F8001299F100D11240057144F03
:1027B000F80165817681878190850E94EC45D8017A
:1027C0002D913D914D915C910E94A14620E030E019
:1027D00040E05EE30E94A1467B018C011F938F9332
:1027E000FF926F9381E793E09F938F935F924F9255
:1027F0000E94C5496E2D7F2D802F912F0E94B445D8
:1028000097FF02C00C947F1F0FB6F894DEBF0FBE77
:10281000CDBF683E73408105910574F420E030E03F
:1028200048EC52EC6E2D7F2D802F912F0E943D455C
:10283000181614F40C94EB1F5F924F92812C912C7C
:10284000A12CB12CA5E0CA2ED12CE12CF12C8701B2
:1028500028E230E04BEC51E06EE070E08AE19AE073
:102860000E9445400F900F9083EB93E09F938F93CE
:10287000812C912CA12CB12C74E0C72ED12CE12CF1
:10288000F12C870124E130E041ED51E06CE070E093
:102890008AE19AE00E94454080E093E09A83898330
:1028A00085E090E09C838B8381E00E940F0264E0CE
:1028B00081E00E943B0260E081E00E943B028301D4
:1028C0000F900F9022242394312C0EC0D8016C91CC
:1028D00081E00E943B02B4E02B163104A1F02FEFFF
:1028E000221A320A0F5F1F4F31E02316310471F7AD
:1028F00081E00E94A1048823D9F3F801608181E07E
:102900000E943B02ECCF81E00E94220281E00E9403
:102910000F0281E00E94A1048823D9F36FEF81E0C8
:102920000E94060480931A0A6FEF81E00E94060459
:1029300080931B0A81E00E94220281E00E94A10490
:102940008130D9F380918C0B90918D0B29E1289FD8
:10295000F001299FF00D1124E057F44F8489811173
:102960000C94491D84E990E024E934E942E551E002
:102970005A8349833C832B839E838D8381E00E940D
:102980000F0266E081E00E943B0260E081E00E946D
:102990003B02830122242394312C0EC0D8016C9178
:1029A00081E00E943B02B6E02B163104A1F0EFEF6C
:1029B0002E1A3E0A0F5F1F4FF1E02F16310471F7F8
:1029C00081E00E94A1048823D9F3D8016C9181E0B1
:1029D0000E943B02ECCF81E00E94220281E00E9433
:1029E0000F0281E00E94A1048823D9F36FEF81E0F8
:1029F0000E94060480931A0A6FEF81E00E94060489
:102A000080931B0A81E00E94220281E00E94A104BF
:102A10008130D9F380E591E09A83898380E79CE057
:102A20009C838B8388E396E09E838D8388EF94E07C
:102A300098878F8388E792E09A87898781E00E9450
:102A40000F026AE081E00E943B0260E081E00E94A8
:102A50003B02830122242394312C0EC0D8016C91B7
:102A600081E00E943B02BAE02B163104A1F0EFEFA7
:102A70002E1A3E0A0F5F1F4FF1E02F16310471F737
:102A800081E00E94A1048823D9F3F801608181E0EC
:102A90000E943B02ECCF81E00E94220281E00E9472
:102AA0000F0281E00E94A1048823D9F36FEF81E037
:102AB0000E94060480931A0A6FEF81E00E940604C8
:102AC00080931B0A81E00E94220281E00E94A104FF
:102AD0008130D9F386E793E09F938F93812C912CDB
:102AE000A12CB12C34E0C32ED12CE12CF12C870188
:102AF00028EC30E040E951E06DE070E08AE19AE0D6
:102B00000E94454080E093E09A83898386E090E0CC
:102B10009C838B8381E00E940F0264E081E00E942D
:102B20003B0260E081E00E943B0283010F900F9026
:102B300022242394312C0EC0D8016C9181E00E9494
:102B40003B02B4E02B163104A1F0EFEF2E1A3E0A3F
:102B50000F5F1F4FF1E02F16310471F781E00E94E3
:102B6000A1048823D9F3D8016C9181E00E943B0233
:102B7000ECCF81E00E94220281E00E940F0281E0FE
:102B80000E94A1048823D9F36FEF81E00E9406041C
:102B900080931A0A6FEF81E00E94060480931B0A5B
:102BA00081E00E94220281E00E94A1048130D9F3D9
:102BB00080918C0B90918D0B29E1289FF001299F2A
:102BC000F00D1124E057F44F848981115DC784E929
:102BD00090E024E934E942E551E05A8349833C839B
:102BE0002B839E838D8381E00E940F0266E081E04B
:102BF0000E943B0260E081E00E943B0283012224AC
:102C00002394312C0EC0D8016C9181E00E943B02CC
:102C1000B6E02B163104A1F0EFEF2E1A3E0A0F5F3B
:102C20001F4FF1E02F16310471F781E00E94A104DB
:102C30008823D9F3F801608181E00E943B02ECCF48
:102C400081E00E94220281E00E940F0281E00E9446
:102C5000A1048823D9F36FEF81E00E9406048093DA
:102C60001A0A6FEF81E00E94060480931B0A81E03C
:102C70000E94220281E00E94A1048130D9F380E504
:102C800091E09A83898380E79CE09C838B8388EB27
:102C900098E09E838D8388EF94E098878F8388E700
:102CA00092E09A87898781E00E940F026AE081E0C2
:102CB0000E943B0260E081E00E943B0283012224EB
:102CC0002394312C0EC0D8016C9181E00E943B020C
:102CD000BAE02B163104A1F0EFEF2E1A3E0A0F5F77
:102CE0001F4FF1E02F16310471F781E00E94A1041B
:102CF0008823D9F3D8016C9181E00E943B02ECCF8C
:102D000081E00E94220281E00E940F0281E00E9485
:102D1000A1048823D9F36FEF81E00E940604809319
:102D20001A0A6FEF81E00E94060480931B0A81E07B
:102D30000E94220281E00E94A1048130D9F380E840
:102D400093E09F938F93812C912CA12CB12CB4E014
:102D5000CB2ED12CE12CF12C870128E131E040E988
:102D600051E06EE070E08AE19AE00E94454080E028
:102D700093E09A83898383E090E09C838B8381E056
:102D80000E940F0264E081E00E943B0260E081E06B
:102D90000E943B0283010F900F9022242394312C38
:102DA0000EC0D8016C9181E00E943B02B4E02B166A
:102DB0003104A1F0EFEF2E1A3E0A0F5F1F4FF1E032
:102DC0002F16310471F781E00E94A1048823D9F302
:102DD000F801608181E00E943B02ECCF81E00E941B
:102DE000220281E00E940F0281E00E94A104882358
:102DF000D9F36FEF81E00E94060480931A0A6FEF07
:102E000081E00E94060480931B0A81E00E94220256
:102E100081E00E94A1048130D9F38091CA0C811114
:102E20002EC68FEF90E02FEF3FEF42E551E05A833F
:102E300049833C832B839E838D8381E00E940F0214
:102E400066E081E00E943B0260E081E00E943B027C
:102E5000830122242394312C0EC0D8016C9181E08F
:102E60000E943B02B6E02B163104A1F0EFEF2E1AC0
:102E70003E0A0F5F1F4FF1E02F16310471F781E01A
:102E80000E94A1048823D9F3D8016C9181E00E94AB
:102E90003B02ECCF81E00E94220281E00E940F02FF
:102EA00081E00E94A1048823D9F36FEF81E00E94A2
:102EB000060480931A0A6FEF81E00E940604809353
:102EC0001B0A81E00E94220281E00E94A10481305D
:102ED000D9F380E591E09A83898380E797E09C832A
:102EE0008B8388E391E09E838D8388EF94E09887BD
:102EF0008F8388E792E09A87898781E00E940F029A
:102F00006AE081E00E943B0260E081E00E943B02B7
:102F1000830122242394312C0EC0D8016C9181E0CE
:102F20000E943B02BAE02B163104A1F0EFEF2E1AFB
:102F30003E0A0F5F1F4FF1E02F16310471F781E059
:102F40000E94A1048823D9F3F801608181E00E94E6
:102F50003B02ECCF81E00E94220281E00E940F023E
:102F600081E00E94A1048823D9F36FEF81E00E94E1
:102F7000060480931A0A6FEF81E00E940604809392
:102F80001B0A81E00E94220281E00E94A10481309C
:102F9000D9F381E091E09A8389838AE090E09C8371
:102FA0008B8388E195E09E838D8380E190E0988714
:102FB0008F831A8619861C861B861E861D86188A94
:102FC0001F861A8A198A65E873E0CE0143960E942B
:102FD00059067C01E618F70881E00E940F026E2D69
:102FE00081E00E943B026F2D81E00E943B02E114D0
:102FF000F10401F18301212C312C0CC0F801619105
:103000008F0181E00E943B02FFEF2F1A3F0AE2147A
:10301000F30481F0C1018F739927892B79F781E03F
:103020000E94A1048111EACF81E00E94A1048823BB
:10303000B1F3E4CF81E00E94220281E00E940F02FE
:1030400081E00E94A1048823D9F36FEF81E00E9400
:10305000060480931A0A6FEF81E00E9406048093B1
:103060001B0A81E00E94220281E00E94A1048130BB
:10307000D9F380918C0B90918D0B29E1289FF00161
:10308000299FF00D1124E057F44F658176818781E7
:1030900090854B015C0197FD96C7A5019401E3E083
:1030A0005595479537952795EA95D1F7C75BDE4F3C
:1030B0002883C954D140C65BDE4F3883CA54D140FF
:1030C000C55BDE4F4883CB54D140C45BDE4F588391
:1030D000CC54D1400E94EC450E943247C75BDE4F82
:1030E0002881C954D140C65BDE4F3881CA54D140D3
:1030F000C55BDE4F4881CB54D140C45BDE4F588165
:10310000CC54D140892B09F0B6C461E070E080E076
:1031100090E00E94A2446B017C01D501C40187703C
:103120009927AA27BB27CB5BDE4F88839983AA8385
:10313000BB83C554D140FF92EF92DF92CF9282E9D8
:1031400093E09F938F935F924F920E94C549D7015E
:10315000C601F7FCDDC60FB6F894DEBF0FBECDBFCB
:10316000883EF3E09F07A105B1050CF057C45F92BC
:103170004F92812C912CA12CB12C95E0C92ED12CF1
:10318000E12CF12C870127E230E048EF50E06FE0BE
:1031900070E08AE19AE00E9445400F900F90C85B72
:1031A000DE4FF881C854D140FF93C95BDE4F2881C0
:1031B000C754D1402F93CA5BDE4F3881C654D140EB
:1031C0003F93CB5BDE4F8881C554D1408F9386E916
:1031D00093E09F938F935F924F920E94C54981E045
:1031E00091E09A8389838DE090E09C838B8380E1DA
:1031F00099E09E838D8388E691E098878F831A8675
:1032000019861C861B8685E090E09E878D87188A2C
:103210001F861A8A198AB201CE0143960E94590666
:103220007C01E618F70881E00E940F026E2D81E014
:103230000E943B026F2D81E00E943B020FB6F89482
:10324000DEBF0FBECDBFE114F10401F18301212CDB
:10325000312C0CC0F80161918F0181E00E943B028A
:10326000FFEF2F1A3F0AE214F30481F0C1018F73BC
:103270009927892B79F781E00E94A1048111EACF77
:1032800081E00E94A1048823B1F3E4CF81E00E9491
:10329000220281E00E940F0281E00E94A1048823A3
:1032A000D9F36FEF81E00E94060480931A0A6FEF52
:1032B00081E00E94060480931B0A81E00E942202A2
:1032C00081E00E94A1048130D9F38CEA92E09F93BF
:1032D0008F93812C912CA12CB12CB5E0CB2ED12C2D
:1032E000E12CF12C87012EE230E041E351E06CE06B
:1032F00070E08AE19AE00E94454080E093E09A8382
:10330000898389E090E09C838B8381E00E940F0297
:1033100064E081E00E943B0260E081E00E943B02A9
:1033200083010F900F9022242394312C0EC0D801DA
:103330006C9181E00E943B02B4E02B163104A1F0B5
:103340002FEF221A320A0F5F1F4F31E0231631048C
:1033500071F781E00E94A1048823D9F3D8016C9110
:1033600081E00E943B02ECCF81E00E94220281E0DA
:103370000E940F0281E00E94A1048823D9F36FEF1D
:1033800081E00E94060480931A0A6FEF81E00E9498
:10339000060480931B0A81E00E94220281E00E94C1
:1033A000A1048130D9F38091D00C811132C38FEF09
:1033B00090E02FEF3FEF42E551E05A8349833C8391
:1033C0002B839E838D8381E00E940F0266E081E063
:1033D0000E943B0260E081E00E943B0283012224C4
:1033E0002394312C0EC0D8016C9181E00E943B02E5
:1033F000B6E02B163104A1F0EFEF2E1A3E0A0F5F54
:103400001F4FF1E02F16310471F781E00E94A104F3
:103410008823D9F3F801608181E00E943B02ECCF60
:1034200081E00E94220281E00E940F0281E00E945E
:10343000A1048823D9F36FEF81E00E9406048093F2
:103440001A0A6FEF81E00E94060480931B0A81E054
:103450000E94220281E00E94A1048130D9F380E51C
:1034600091E09A83898380E797E09C838B8388EB44
:1034700093E09E838D8388EF94E098878F8388E71D
:1034800092E09A87898781E00E940F026AE081E0DA
:103490000E943B0260E081E00E943B028301222403
:1034A0002394312C0EC0D8016C9181E00E943B0224
:1034B000BAE02B163104A1F0EFEF2E1A3E0A0F5F8F
:1034C0001F4FF1E02F16310471F781E00E94A10433
:1034D0008823D9F3D8016C9181E00E943B02ECCFA4
:1034E00081E00E94220281E00E940F0281E00E949E
:1034F000A1048823D9F36FEF81E00E940604809332
:103500001A0A6FEF81E00E94060480931B0A81E093
:103510000E94220281E00E94A1048130D9F38CE94B
:1035200093E09F938F93812C912CA12CB12CC12CD3
:10353000D12CE12CF12C870122E530E043EA50E068
:103540006AE070E08AE19AE00E94454022242394D8
:10355000312CC10100908E0B02C0880F991F0A9474
:10356000E2F79F938F9387EA93E09F938F935F9205
:103570004F920E94C5495F924F9264E0C62ED12CB3
:1035800028E730E040EF50E060E170E08AE19AE047
:103590000E94454080918C0B90918D0B29E1289FD2
:1035A0008001299F100D11240057144FB101009084
:1035B0008E0B02C0660F771F0A94E2F7072E000CED
:1035C000880B990B0E94EC459B01AC01F8016081CE
:1035D0007181828193810E9442459F938F937F9353
:1035E0006F938DEA93E09F938F935F924F920E9427
:1035F000C5495F924F9275E0C72ED12CE12CF12C7A
:10360000870126E930E041E351E06BE070E08AE1B8
:103610009AE00E94454082EB93E09F938F93E3E012
:10362000CE2ED12C2EE830E041E351E06AE070E08C
:103630008AE19AE00E94454080E093E09A83898382
:103640008AE090E09C838B8381E00E940F0264E01B
:1036500081E00E943B0260E081E00E943B02830126
:103660000FB6F894DEBF0FBECDBF0EC0D8016C916F
:1036700081E00E943B02B4E02B163104A1F03FEF41
:10368000231A330A0F5F1F4F81E02816310471F7A8
:1036900081E00E94A1048823D9F3F801608181E0D0
:1036A0000E943B02ECCF81E00E94220281E00E9456
:1036B0000F0281E00E94A1048823D9F36FEF81E01B
:1036C0000E94060480931A0A6FEF81E00E940604AC
:1036D00080931B0A81E00E94220281E00E94A104E3
:1036E0008130D9F38091D10C81118EC18FEF90E0A0
:1036F0002FEF3FEF42E551E05A8349833C832B8310
:103700009E838D8381E00E940F0266E081E00E942B
:103710003B0260E081E00E943B028301222423946B
:10372000312C0EC0D8016C9181E00E943B02B6E0C2
:103730002B163104A1F0EFEF2E1A3E0A0F5F1F4F38
:10374000F1E02F16310471F781E00E94A104882373
:10375000D9F3D8016C9181E00E943B02ECCF81E06B
:103760000E94220281E00E940F0281E00E94A104D7
:103770008823D9F36FEF81E00E94060480931A0A30
:103780006FEF81E00E94060480931B0A81E00E9493
:10379000220281E00E94A1048130D9F380E591E00A
:1037A0009A83898380E792E09C838B8388E792E009
:1037B0009E838D8388EF94E098878F839A8789878B
:1037C00081E00E940F026AE081E00E943B0260E01B
:1037D00081E00E943B02830122242394312C0EC0FD
:1037E000D8016C9181E00E943B02BAE02B163104B3
:1037F000A1F0EFEF2E1A3E0A0F5F1F4FF1E02F16D8
:10380000310471F781E00E94A1048823D9F3F80103
:10381000608181E00E943B02ECCF81E00E942202A5
:1038200081E00E940F0281E00E94A1048823D9F365
:103830006FEF81E00E94060480931A0A6FEF81E027
:103840000E94060480931B0A81E00E94220281E00C
:103850000E94A1048130D9F385EB93E09F938F936D
:10386000812C912CA12CB12CC12CD12CE12CF12C30
:10387000870122E030E043E050E06AE070E08AE156
:103880009AE00E94454080918C0B90918D0B01969F
:103890009F938F9382EC93E09F938F935F924F92CD
:1038A0000E94C5495F924F9294E0C92ED12C20E529
:1038B00030E040E550E060E170E08AE19AE00E948B
:1038C000454080E093E09A83898384E090E09C8384
:1038D0008B8381E00E940F0264E081E00E943B0242
:1038E00060E081E00E943B0283010FB6F894DEBFE6
:1038F0000FBECDBF22242394312C0EC0D8016C9171
:1039000081E00E943B02B4E02B163104A1F0FFEFEE
:103910002F1A3F0A0F5F1F4F21E02216310471F763
:1039200081E00E94A1048823D9F3D8016C9181E041
:103930000E943B02ECCF81E00E94220281E00E94C3
:103940000F0281E00E94A1048823D9F36FEF81E088
:103950000E94060480931A0A6FEF81E00E94060419
:1039600080931B0A81E00E94220281E00E94A10450
:103970008130D9F380918C0B90918D0B29E1289F98
:10398000F001299FF00D1124E057F44F848988231A
:1039900009F4B4C1838981119AC08FEF90E026E6C3
:1039A00036E642E551E05A8349833C832B839E836C
:1039B0008D8381E00E940F0266E081E00E943B025D
:1039C00060E081E00E943B02130101E010E00EC0C4
:1039D000D1016C9181E00E943B020630110509F48F
:1039E00094C00F5F1F4FEFEF2E1A3E0A01301105F2
:1039F00079F781E00E94A1048823D9F3F101608165
:103A000081E00E943B02EDCF8DEA90E026EE38ED9A
:103A100071CE8DEA90E026EE38EDCDCC2FE0C20ECF
:103A200027E2D21EE11CF11C3FE1C3163EE4D3069F
:103A3000E104F10408F450C080319742A105B105BA
:103A40000CF495CB5F924F92812C912CA12CB12C30
:103A500025E0C22ED12CE12CF12C87012DE230E0A3
:103A600048EF50E06DE070E08AE19AE00E94454046
:103A70000F900F9094CB6FEF7FEFCB014ACB8DEA85
:103A800090E026EE38EDD1C989E890E027E83FEDD7
:103A9000A2C889E890E027E83FED0C94B6148DEABF
:103AA00090E026EE38ED0C94011389E890E027E8C9
:103AB0003FED0C94B8118DEA90E026EE38ED0C94B1
:103AC000D30F8DEA90E026EE38ED0C94F40D89E8E2
:103AD00090E027E83FED65CF5F924F92812C912CCB
:103AE000A12CB12C35E0C32ED12CE12CF12C870177
:103AF0002BE230E048EF50E06EE070E08AE19AE0BF
:103B00000E9445400F900F904ACB81E00E94220214
:103B100081E00E940F0281E00E94A1048823D9F372
:103B20006FEF81E00E94060480931A0A6FEF81E034
:103B30000E94060480931B0A81E00E94220281E019
:103B40000E94A1048130D9F380E591E09A838983B2
:103B500080E792E09C838B8388E797E09E838D8348
:103B600088EF94E098878F839A87898781E00E9405
:103B70000F026AE081E00E943B0260E081E00E9467
:103B80003B0201E010E00DC0F301608181E00E9482
:103B90003B020A30110599F00F5F1F4FBFEF6B1A00
:103BA0007B0A0130110581F781E00E94A10488237E
:103BB000D9F3D3016C9181E00E943B02EDCF81E00B
:103BC0000E94220281E00E940F0281E00E94A10473
:103BD0008823D9F36FEF81E00E94060480931A0ACC
:103BE0006FEF81E00E94060480931B0A81E00E942F
:103BF000220281E00E94A1048130D9F380918C0BD4
:103C000090918D0B29E1289FF001299FF00D11243F
:103C1000E057F44F838981116EC06DE273E0C201F9
:103C20000E94B5485F924F92812C912CA12CB12C0F
:103C300084E0C82ED12CE12CF12C870120EF30E05C
:103C400040E550E06FE070E08AE19AE00E94454074
:103C500081E00E940F0262E081E00E943B0260E08E
:103C600081E00E943B020F900F9081E00E94A1042E
:103C70008823D9F361E881E00E943B0261E081E0A2
:103C80000E943B0281E00E94220281E00E940F021A
:103C900081E00E94A1048823D9F36FEF81E00E94A4
:103CA000060480931A0A6FEF81E00E940604809355
:103CB0001B0A81E00E94220281E00E94A10481305F
:103CC000D9F3C45BDE4F0FB6F894DEBF0FBECDBF95
:103CD000DF91CF911F910F91FF90EF90DF90CF90E8
:103CE000BF90AF909F908F907F906F905F904F901C
:103CF0003F902F9008956AE273E091CF44E954E930
:103D000064E970E08AE19AE00E94F9401DCF81E009
:103D100091E09A8389838EE090E09C838B8380E896
:103D20009CE09E838D8380EC93E098878F831A8636
:103D300019861C861B8684E090E09E878D87188AF2
:103D40001F861A8A198A68E473E0CE0143960E949E
:103D500059066C01C618D70881E00E940F026C2D2D
:103D600081E00E943B026D2D81E00E943B02C11464
:103D7000D104F9F0730100E010E00BC0F70161918C
:103D80007F0181E00E943B020F5F1F4FC016D106EA
:103D900081F0C8018F739927892B81F781E00E94F8
:103DA000A1048111EBCF81E00E94A1048823B1F32B
:103DB000E5CF81E00E94220281E00E940F0281E0B3
:103DC0000E94A1048823D9F36FEF81E00E940604CA
:103DD00080931A0A6FEF81E00E94060480931B0A09
:103DE00081E00E94220281E00E94A1048130D9F387
:103DF00080911C0B882311F40C94A41244E954E91B
:103E000064E970E08AE19AE00E94F94080E591E07F
:103E10009A83898380E79CE09C838B8388EB93E083
:103E20009E838D8388EF94E098878F8388E792E064
:103E30009A87898781E00E940F026AE081E00E94F0
:103E40003B0260E081E00E943B02730101E010E070
:103E50000DC0F701608181E00E943B020A3011052C
:103E600099F00F5F1F4FBFEFEB1AFB0A01301105EE
:103E700081F781E00E94A1048823D9F3F7016081D2
:103E800081E00E943B02EDCF81E00E94220281E0AE
:103E90000E940F0281E00E94A1048823D9F36FEFF2
:103EA00081E00E94060480931A0A6FEF81E00E946D
:103EB000060480931B0A81E00E94220281E00E9496
:103EC000A1048130D9F38BE593E09F938F93812CEC
:103ED000912CA12CB12C24E0C22ED12CE12CF12C60
:103EE000870128E730E040E951E06EE070E08AE1C8
:103EF0009AE00E9445400F900F900C94A412909568
:103F00008095709561957F4F8F4F9F4F0C9404144F
:103F100088279927DC018C199D09AE09BF091BC9A7
:103F200081E091E09A8389838EE090E09C838B838B
:103F300080E89CE09E838D8380EC93E098878F835C
:103F40001A8619861C861B8684E090E09E878D87E2
:103F5000188A1F861A8A198A6DE473E0CE01439687
:103F60000E9459066C01C618D70881E00E940F0212
:103F70006C2D81E00E943B026D2D81E00E943B028E
:103F8000C114D10409F441C0730100E010E00BC07A
:103F9000D7016D917D0181E00E943B020F5F1F4FB1
:103FA000C016D10691F1C8018F739927892B81F72B
:103FB00081E00E94A1048111EBCF81E00E94A10465
:103FC0008823B1F3E5CF882499245401861A970AEF
:103FD000A80AB90A62C85F924F92812C912CA12C39
:103FE000B12CF5E0CF2ED12CE12CF12C870128E269
:103FF00030E04BEC51E06FE070E08AE19AE00E9423
:1040000045400F900F900C94341481E00E942202DE
:1040100081E00E940F0281E00E94A1048823D9F36D
:104020006FEF81E00E94060480931A0A6FEF81E02F
:104030000E94060480931B0A81E00E94220281E014
:104040000E94A1048130D9F30C949F120F931F9307
:10405000CF93DF9381E00E940F0262E081E00E9433
:104060003B0260E081E00E943B0281E00E94A104EB
:104070008823D9F362E081E00E943B0263E081E0A3
:104080000E943B0281E00E94220281E00E940F0216
:104090000AE11AE0C1E0D0E00CC06FEF81E00E94BD
:1040A0000604F8018083CA30D10591F021960F5F94
:1040B0001F4FC130D10589F781E00E94A1048823F8
:1040C000D9F36FEF81E00E940604F8018083EECF00
:1040D00081E00E94220281E00E94A1048130D9F394
:1040E00080911D0A90E0982F882720911C0A822B2E
:1040F0009093C60C8093C50C80911F0A90E0982F76
:10410000882720911E0A822B9093C40C8093C30CA5
:104110008091210A90E0982F88272091200A822BF5
:104120009093C20C8093C10C2091230A30E0322F6F
:1041300022274091220A242B3093BE0C2093BD0CE1
:104140008130910559F01092BC0C9093C00C809373
:10415000BF0CDF91CF911F910F9108952091BF0C5B
:104160003091C00C232B79F72091BC0C2111EBCF9F
:1041700021E02093BC0CE9CF2091C10C3091C20CFE
:104180002130310519F0FC01108208952091BF0CF7
:104190003091C00C232BB9F7FC0120812111F3CF02
:1041A00021E020830895149828E130E088EF90E022
:1041B000A0E0B0E009C0169A159AB695A795979514
:1041C00087952150310929F0159880FDF4CF169874
:1041D000F3CF149A0895CF939C01C62F48B1E3E022
:1041E000F0E0BF010E94B244B901681B790BCB011A
:1041F000BF010E94B244CB01019783309105A0F426
:10420000FC01EB5DFD4F208130E0C11111C02C5F3E
:104210003F4F81E090E001C0880F2A95EAF74F7088
:10422000842B88B9CF91089520E030E0CC2379F336
:1042300081E090E001C0880F2A95EAF7982F9095C9
:10424000842F8F60892388B9CF910895989AA09A76
:10425000999AA1989B9AA398579A5F9A8FEF81B9E0
:1042600090EF9093040187B910920701E1E8F0E024
:10427000808188608083EFE6F0E0808182608083C7
:1042800081E982B918B8E8E6F0E080818660808331
:10429000ECE6F0E0808182608083EDE6F0E08081F2
:1042A000886880830E946E090E9494060E94D32031
:1042B00061E080E090E00C94EB20EF92FF920F938E
:1042C0001F93CF93DF938C017B0163E070E00E942A
:1042D000B244C82FCC0FD8B161E0C8010E94EB20D6
:1042E00081E0E816F10409F447C082E0E816F10421
:1042F000B1F1EF2841F180E090E39C2B149820E18C
:1043000030E007C01698159A880F991F215031097F
:1043100051F0159897FFF6CF169A159A880F991FA6
:1043200021503109B1F7169888E090E01598159A58
:104330000197E1F7149AD8B9DF91CF911F910F91AE
:10434000FF90EF90089589E1809FF001819FF00D2B
:104350001124E057F44F878590899063CECFCF5FCB
:1043600089E1809FF001819FF00D1124E057F44F07
:10437000818992899063C1CF89E1809FF001819FFB
:10438000F00D1124E057F44F858596859063B5CFE5
:10439000AF92BF92CF92DF92EF92FF920F931F9353
:1043A000CF93DF939C01C62F5A0163E070E00E9417
:1043B000B2447C014BEFBC0146036001479FD00C27
:1043C00011248901081B190B61E0C9010E94EB202F
:1043D000C6010E9602C0AA0CBB1C8A95E2F72C2FD0
:1043E00030E07DE0C70ED11C02C0220F331FCA94FB
:1043F000E2F72A293B29276C386181E0E816F104AD
:1044000009F46AC042E0E416F10409F45EC0EF2842
:1044100009F454C089E1809FF001819FF00D1124BF
:10442000ED55F44FE801239653E0C52ED12C6BEFE8
:10443000B62EEE24E394F12C80818823C1F0C801CC
:10444000B6010E94B2444B2DBC014603D001479FE8
:10445000B00D1124CD010C96B70102C0660F771F75
:104460008A95E2F7CB0180959095282339230F5F39
:104470001F4F79960C171D07F9F680E190E006C0F2
:10448000139A119A36952795019749F0119820FDB6
:10449000F7CF1398119A369527950197B9F7129A85
:1044A00082B1817F82B9DF91CF911F910F91FF90EF
:1044B000EF90DF90CF90BF90AF90089584E090E0B0
:1044C0009093260B8093250BA5CF86E090E09093E8
:1044D000260B8093250B9ECF85E090E09093260BD2
:1044E0008093250B97CFDF92EF92FF920F931F934C
:1044F000CF93DF93FC017B01EA0163E070E00E944F
:10450000B2448330910508F050C0880F991FDC0138
:10451000A15EBD4FDC9089E18E9FA0018F9F500D61
:1045200011244057544FDA0119960D911D912D9188
:104530003C911C97CE010D2E000CAA0BBB0B080F53
:10454000191F2A1F3B1FDA0119960D931D932D93F6
:104550003C931C971C161D0654F5A70161E0CF0182
:104560000E94C82181E090E001C0880FDA94EAF748
:10457000282F982F909580910501822B809305011B
:10458000EFE9FFE03197F1F700C0000080910501ED
:10459000892380930501219771F7DF91CF911F91B6
:1045A0000F91FF90EF90DF900895D12CB4CF20971A
:1045B000A1F3A70160E0CF010E94C821D195C19568
:1045C000D109D0CF4F925F926F927F928F929F923C
:1045D000AF92BF92CF92DF92EF92FF920F931F9311
:1045E000CF93DF9383B186FB112710F903B1E7EC7A
:1045F000FCE0C0E0D0E08191811104C02196CB3075
:10460000D105C9F78091AA0D811158C08091A90DDB
:1046100005FB002700F981117EC08091A80D882339
:1046200089F080919E0D873008F0E1C18F5F809303
:104630009E0D873009F4DBC1002321F01092A80DF4
:1046400010929E0D8091A70D882389F080919D0D79
:10465000873008F04EC18F5F80939D0D873009F43D
:1046600048C1112321F01092A70D10929D0D809149
:10467000A50D9091AB0D891741F02091A30D3091BC
:10468000A40DC217D30709F420C21092A50D1092F1
:10469000AB0DD093A40DC093A30DDF91CF911F91CB
:1046A0000F91FF90EF90DF90CF90BF90AF909F90D1
:1046B0008F907F906F905F904F9008958091A90D9B
:1046C000882309F49FC0C130D10534F0C430D1052E
:1046D000ACF02897239790F080912A0B90912B0BA8
:1046E000892B09F4E2C45F982FEF31EE84E021506A
:1046F00030408040E1F700C000005F9A1092A80DA2
:1047000010929E0D1092A70D10929D0D1092AA0D61
:104710001092A90DC2CF9091A70D91115FC191E0A8
:104720009093A80D011160C1C830D10509F4D6C617
:104730000CF025C3C130D10509F450C6C330D105F2
:1047400009F05CC05F988FE19EE40197F1F700C02B
:104750000000E0908C0BF0908D0BC0908E0BD090F1
:104760008F0B89E18E9DF0018F9DF00D1124E05794
:10477000F44F9E012C193D0981E090E002C0880FA2
:10478000991F2A95E2F7092E000CAA0BBB0B458155
:104790005681678170852C013D01440E551E661EB1
:1047A000771EC301B2010E94EC454B015C0120E081
:1047B00030E04FEA58E40E949C4618160CF43DC7BE
:1047C00020E030E04FEA58ECC501B4010E943D45BD
:1047D00087FFAEC760E078E88AEF9FEF29E12E9D62
:1047E000F0012F9DF00D1124E057F44F658376837F
:1047F0008783908780911C0B81115DC75F9A8091A0
:10480000A80DF2C09091A80D9111E1C091E0909394
:10481000A70D1111E0C0C830D10509F469C50CF02D
:1048200075C2C130D10509F419C6C330D10509F0EC
:104830005CC05F98EFE1FEE43197F1F700C0000043
:10484000E0908C0BF0908D0BC0908E0BD0908F0B66
:1048500089E18E9DF0018F9DF00D1124E057F44FFA
:104860009E012C193D0981E090E002C0880F991F3C
:104870002A95E2F7092E000CAA0BBB0B4581568145
:10488000678170852A013B01481A590A6A0A7B0A26
:10489000C301B2010E94EC454B015C0120E030E015
:1048A0004FEA58E40E949C4618160CF4BEC620E05D
:1048B00030E04FEA58ECC501B4010E943D4587FF46
:1048C00032C760E078E88AEF9FEF29E12E9DF00182
:1048D0002F9DF00D1124E057F44F65837683878375
:1048E000908780911C0B8111EDC65F9A8091A90D74
:1048F00072C0C830D10509F401C40CF057C1C130F1
:10490000D10509F475C2C330D10509F05CC05F98C8
:104910008FE19EE40197F1F700C00000E0908C0B5E
:10492000F0908D0BC0908E0BD0908F0B89E18E9DF7
:10493000F0018F9DF00D1124E057F44F9E012C19CA
:104940003D0984E690E002C0880F991F2A95E2F79E
:10495000092E000CAA0BBB0B45815681678170851F
:104960002A013B01481A590A6A0A7B0AC301B201AB
:104970000E94EC454B015C0120E030E04FEA58E436
:104980000E949C4618160CF4AEC420E030E04FEABA
:1049900058ECC501B4010E943D4587FF9FC660E009
:1049A00078E88AEF9FEF29E12E9DF0012F9DF00D11
:1049B0001124E057F44F6583768387839087809135
:1049C0001C0B81111AC65F9A10929D0D4ACE10924F
:1049D000A80D10929E0D1092AA0D1ACE1092A70D3E
:1049E00010929D0D8091A80D1092A90D18CEC8307F
:1049F000D10509F4C8C30CF012C1C130D10509F4C6
:104A000099C2C330D10509F05CC05F988FE19EE484
:104A10000197F1F700C00000E0908C0BF0908D0B37
:104A2000C0908E0BD0908F0B89E18E9DF0018F9DF1
:104A3000F00D1124E057F44F9E012C193D0984E636
:104A400090E002C0880F991F2A95E2F7092E000C0A
:104A5000AA0BBB0B45815681678170852C013D01F6
:104A6000440E551E661E771EC301B2010E94EC451E
:104A70004B015C0120E030E04FEA58E40E949C4684
:104A800018160CF427C420E030E04FEA58ECC501BA
:104A9000B4010E943D4587FF1CC660E078E88AEFBC
:104AA0009FEF29E12E9DF0012F9DF00D1124E0577D
:104AB000F44F658376838783908780911C0B8111E7
:104AC000A3C55F9A10929E0DB7CD192F181BC83041
:104AD000D10509F49DC30CF0DBC0C130D10509F448
:104AE00069C2C330D10509F059C0912F17FDE1C546
:104AF000192F159509F0D5C5C0908C0BD0908D0B52
:104B0000812E012E000C9908A0908E0BB0908F0B77
:104B100029E12C9DC0012D9D900D1124FC01E05731
:104B2000F44F7F0183E090E08A199B09B40102C031
:104B3000660F771F8A95E2F7AB01770F660B770B4D
:104B400085819681A781B0852A013B01480E591EB7
:104B50006A1E7B1EC301B2010E94EC452B013C0181
:104B600020E030E04FEA58E40E949C4618160CF40E
:104B700038C520E030E04FEA58ECC301B2010E9492
:104B80003D4587FFB0C580E098E8AAEFBFEFF70189
:104B900085839683A783B08780911C0B112321F016
:104BA0001092A50D1092AB0D5F9A73CDC930D1054F
:104BB00009F45EC1CA30D10509F005CF5F988FE1D5
:104BC0009EE40197F1F700C00000E0908C0BF0909C
:104BD0008D0B92E0E91AF108B7010F2C000C880B3D
:104BE000990B0E94EC454B015C0120E030E040E372
:104BF00051E40E949C4618160CF45FC320E030E09C
:104C0000A901C501B4010E943D4587FF03C05BE0D7
:104C1000E52EF12CF0928D0BE0928C0BD4CEC930A6
:104C2000D10509F456C1CA30D10509F04ACF5F98C1
:104C30008FE19EE40197F1F700C00000E0908C0B3B
:104C4000F0908D0B92E0E90EF11CB7010F2C000CD7
:104C5000880B990B0E94EC454B015C0120E030E091
:104C600040E351E40E949C4618160CF430C320E047
:104C700030E0A901C501B4010E943D4587FF03C092
:104C8000FBE0EF2EF12CF0928D0BE0928C0B19CF04
:104C9000C930D10509F4D3C1CA30D10509F07ECF9E
:104CA00087E61802812D11248595859517FD83953A
:104CB000182F8111D6C4E0908C0BF0908D0BE10E73
:104CC000F11C17FDFA94B7010F2C000C880B990BFF
:104CD0000E94EC454B015C0120E030E040E351E4F0
:104CE0000E949C4618160CF46EC420E030E0A90126
:104CF000C501B4010E943D4587FF03C09BE0E92E3A
:104D0000F12CF0928D0BE0928C0B48CFC930D1057D
:104D100009F433C3CA30D10509F0E7CD5F988FE1BC
:104D20009EE40197F1F700C00000E0908C0BF0903A
:104D30008D0B91E0E91AF108B7010F2C000C880BDC
:104D4000990B0E94EC454B015C0120E030E040E310
:104D500051E40E949C4618160CF478C420E030E020
:104D6000A901C501B4010E943D4587FF03C05BE076
:104D7000E52EF12CF0928D0BE0928C0BB6CDC93064
:104D8000D10509F4F0C3CA30D10509F037CD5F98D9
:104D90008FE19EE40197F1F700C00000E0908C0BDA
:104DA000F0908D0B9FEFE91AF90AB7010F2C000C58
:104DB000880B990B0E94EC454B015C0120E030E030
:104DC00040E351E40E949C4618160CF427C420E0EE
:104DD00030E0A901C501B4010E943D4587FF03C031
:104DE0009BE0E92EF12CF0928D0BE0928C0B06CD1E
:104DF0005F988FE19EE40197F1F700C00000C0903A
:104E00008C0BD0908D0B89E18C9DF0018D9DF00D68
:104E10001124E057F44FE584F68494E1E91AF1088F
:104E2000B7010F2C000C880B990B0E94EC454B012D
:104E30005C0120E030E04FE753E40E949C461816E6
:104E40000CF434C220E030E0A901C501B4010E9495
:104E50003D4587FF02C0E12CF12C89E18C9DF001DA
:104E60008D9DF00D1124E057F44FF686E586ABCD0D
:104E70005F98EFE1FEE43197F1F700C00000E090A9
:104E80008E0BF0908F0BF1E0EF1AF108B7010F2CA9
:104E9000000C880B990B0E94EC454B015C0120E053
:104EA00030E040E450E40E949C4618160CF402C224
:104EB00020E030E0A901C501B4010E943D4587FF13
:104EC00003C043E0E42EF12CF0928F0BE0928E0BA6
:104ED0007ACD5F98EFE1FEE43197F1F700C0000072
:104EE000E0908E0BF0908F0BFFEFEF1AFF0AB701E7
:104EF0000F2C000C880B990B0E94EC454B015C01B8
:104F000020E030E040E450E40E949C4618160CF487
:104F1000DBC120E030E0A901C501B4010E943D459C
:104F200087FF03C0E3E0EE2EF12CF0928F0BE092AE
:104F30008E0BC7CD5F988FE19EE40197F1F700C01B
:104F40000000C0908C0BD0908D0B89E18C9DF001FE
:104F50008D9DF00D1124E057F44FE584F68494E123
:104F6000E90EF11CB7010F2C000C880B990B0E9465
:104F7000EC454B015C0120E030E04FE753E40E9438
:104F80009C4618160CF4ABC120E030E0A901C50125
:104F9000B4010E943D4587FF02C0E12CF12C89E15C
:104FA0008C9DF0018D9DF00D1124E057F44FF68695
:104FB000E58687CD87E61802812D11248595859594
:104FC00017FD8395182F811164C3C0908C0BD0906E
:104FD0008D0B89E18C9DF0018D9DF00D1124E05722
:104FE000F44FE584F684E10EF11C17FDFA94B70145
:104FF0000F2C000C880B990B0E94EC454B015C01B7
:1050000020E030E04FE753E40E949C4618160CF471
:10501000E4C220E030E0A901C501B4010E943D4591
:1050200087FF02C0E12CF12C89E18C9DF0018D9D60
:10503000F00D1124E057F44FF686E586AFCD87E6F4
:105040001802812D11248595859517FD8395182FBC
:10505000811117C3E0908E0BF0908F0BE10EF11CC5
:1050600017FDFA94B7010F2C000C880B990B0E94C6
:10507000EC454B015C0120E030E040E450E40E944C
:105080009C4618160CF4A6C220E030E0A901C50128
:10509000B4010E943D4587FF03C083E0E82EF12C58
:1050A000F0928F0BE0928E0B79CD90911C0B81E0EA
:1050B000892780931C0B80911C0B1F928F9386EC89
:1050C00093E09F938F930E94814980911C0B0F90D6
:1050D0000F900F900F90882309F405CBE5E9FBE0D2
:1050E00084819581A681B78180839183A283B383D4
:1050F00079969CE0E13CF90799F7F5CA5F98EFE1F2
:10510000FEE43197F1F700C00000C0908C0BD09006
:105110008D0B89E18C9DF0018D9DF00D1124E057E0
:10512000F44FE784F088F4E1EF1AF108B7010F2C8F
:10513000000C880B990B0E94EC454B015C0120E0B0
:1051400030E04FE753E40E949C4618160CF4B8C0B8
:1051500020E030E0A901C501B4010E943D4587FF70
:1051600002C0E12CF12C89E18C9DF0018D9DF00DA8
:105170001124E057F44FF08AE78660E070E0C60142
:105180000E945D2120CC5F98EFE1FEE43197F1F7BA
:1051900000C00000C0908C0BD0908D0B89E18C9DDD
:1051A000F0018D9DF00D1124E057F44FE784F08855
:1051B000F4E1EF0EF11CB7010F2C000C880B990BDA
:1051C0000E94EC454B015C0120E030E04FE753E4E6
:1051D0000E949C4618160CF465C020E030E0A9013E
:1051E000C501B4010E943D4587FF02C0E12CF12CAE
:1051F00089E18C9DF0018D9DF00D1124E057F44F55
:10520000F08AE78660E070E0C6010E945D2159CC1B
:1052100087E61802812D11248595859517FD8395C4
:10522000182F811126C2C0908C0BD0908D0B89E174
:105230008C9DF0018D9DF00D1124E057F44FE78413
:10524000F088E10EF11C17FDFA94B7010F2C000C49
:10525000880B990B0E94EC454B015C0120E030E08B
:105260004FE753E40E949C4618160CF4AFC120E0AF
:1052700030E0A901C501B4010E943D4587FF02C08D
:10528000E12CF12C89E18C9DF0018D9DF00D112414
:10529000E057F44FF08AE78660E070E0C6010E94B4
:1052A0005D217CCCEE24EA94F12CA2CFEE24EA948A
:1052B000F12CD3CDE12CF12C07CEE12CF12CAACC92
:1052C000EE24EA94F12C4FCFE12CF12C2ECEE12CE0
:1052D000F12CD9CC60E078E785E090E0E2CBEE24D9
:1052E000EA94F12C5CCE60E078E785E090E05BCB5F
:1052F0005F988FE19EE40197F1F700C00000C09035
:105300008C0BD0908D0B89E18C9DF0018D9DF00D63
:105310001124E057F44FE784F08891E0E91AF1088E
:10532000B7010F2C000C880B990B0E94EC454B0128
:105330005C0120E030E04FE753E40E949C461816E1
:105340000CF46FC120E030E0A901C501B4010E9456
:105350003D4587FF02C0E12CF12C89E18C9DF001D5
:105360008D9DF00D1124E057F44FF08AE78660E040
:1053700070E0C6010E945D21B8CA5F98EFE1FEE4CB
:105380003197F1F700C00000E0908E0BF0908F0B8A
:10539000F1E0EF1AF108B7010F2C000C880B990B04
:1053A0000E94EC454B015C0120E030E040E450E419
:1053B0000E949C4618160CF43DC120E030E0A90183
:1053C000C501B4010E943D4587FF03C043E0E42EC0
:1053D000F12CF0928F0BE0928E0B87CA5F988FE1D1
:1053E0009EE40197F1F700C00000C0908C0BD090B4
:1053F0008D0B89E18C9DF0018D9DF00D1124E057FE
:10540000F44FE584F6849FEFE91AF90AB7010F2CEF
:10541000000C880B990B0E94EC454B015C0120E0CD
:1054200030E04FE753E40E949C4618160CF415C177
:1054300020E030E0A901C501B4010E943D4587FF8D
:1054400002C0E12CF12C89E18C9DF0018D9DF00DC5
:105450001124E057F44FF686E586D0C95F98EFE156
:10546000FEE43197F1F700C00000C0908C0BD090A3
:105470008D0B89E18C9DF0018D9DF00D1124E0577D
:10548000F44FE584F684F1E0EF1AF108B7010F2C30
:10549000000C880B990B0E94EC454B015C0120E04D
:1054A00030E04FE753E40E949C4618160CF4D1C03C
:1054B00020E030E0A901C501B4010E943D4587FF0D
:1054C00002C0E12CF12C89E18C9DF0018D9DF00D45
:1054D0001124E057F44FF686E58607CA5F98EFE19E
:1054E000FEE43197F1F700C00000C0908C0BD09023
:1054F0008D0B89E18C9DF0018D9DF00D1124E057FD
:10550000F44FE784F088FFEFEF1AFF0AB7010F2C82
:10551000000C880B990B0E94EC454B015C0120E0CC
:1055200030E04FE753E40E949C4618160CF48AC002
:1055300020E030E0A901C501B4010E943D4587FF8C
:1055400002C0E12CF12C89E18C9DF0018D9DF00DC4
:105550001124E057F44FF08AE78660E070E0C6015E
:105560000E945D214BC95F98EFE1FEE43197F1F7AE
:1055700000C00000E0908E0BF0908F0BFFEFEF1A51
:10558000FF0AB7010F2C000C880B990B0E94EC4509
:105590004B015C0120E030E040E450E40E949C4676
:1055A0001816CCF120E030E0A901C501B4010E9439
:1055B0003D4587FF03C083E0E82EF12CF0928F0B6E
:1055C000E0928E0B1BC9E12CF12C9BCBEE24EA94CC
:1055D000F12C58CEE12CF12C63CDEE24EA94F12C81
:1055E00023CD80E098E7A5E0B0E0F70185839683BE
:1055F000A783B08780911C0BD1CA46EF5FEFB6013D
:10560000C7010E947322DFC94AE050E0B601C7011A
:105610000E94732256CAE12CF12CD0CFE12CF12C40
:10562000E2CBEE24EA94F12C98CE60E078E785E0B6
:1056300090E04BC9E12CF12CCCCE60E078E785E01E
:1056400090E0CCC8EE24EA94F12C7DCFE12CF12C33
:1056500091CBEE24EA94F12C36CFEE24EA94F12C8F
:10566000F2CE5F988FE99FE00197F1F700C000004C
:1056700022CB5F98EFE9FFE03197F1F700C000001F
:10568000D2CD5F98EFE9FFE03197F1F700C000005D
:10569000E1CC5F988FE99FE00197F1F700C000002F
:1056A00094CC5F988FE99FE00197F1F700C000006C
:1056B00023CA9F5F1DCA41E050E0B601C7010E94A6
:1056C00073229CC84FEF5FEFB601C7010E9473229F
:1056D0000CC9C501B4010E94B445E3C9C501B401B8
:1056E0000E94B44560C9C301B2010E94B445F701EC
:1056F000658376838783908720911C0B222309F48E
:105700004DCADC01CB0181509848AA4FBF4F8F3F53
:105710009F4EAA40B10508F041CAA401B501C601D7
:105720000E9473223BCAC501B4010E94B445CDC892
:10573000C501B4010E94B44551C8CF93DF93EC0179
:1057400060E00E94EB20CE0163E070E00E94B24472
:1057500083309105B8F4880F991FFC01E75EFD4F77
:105760000190F081E02DDC01AD5EBD4F2C91808178
:1057700090E002C0959587952A95E2F78170DF91B8
:10578000CF91089520E0E0E0F0E0F1CF1F920F927A
:105790000FB60F9211240BB60F922F933F934F9396
:1057A0005F936F937F938F939F93AF93BF93CF93A9
:1057B000EF93FF9380912C0B90912D0B0E949D2BCA
:1057C000811136C08091270B882391F18091320B93
:1057D0009091330B019709F43FC080911C0B81110C
:1057E00027C081EF93E00E9495494091300B509182
:1057F000310B80912C0B90912D0B21E0422760E022
:105800000E94C82180912C0B90912D0B29E1289F9B
:10581000F001299FF00D1124E057F44F88EE93E03A
:10582000A0E0B0E081879287A387B4871092270B0E
:10583000FF91EF91CF91BF91AF919F918F917F9108
:105840006F915F914F913F912F910F900BBE0F90F1
:105850000FBE0F901F90189580912C0B90912D0BDF
:10586000C9E1C89FF001C99FF00D1124E057F44F22
:10587000158216821782108680912C0B90912D0B29
:1058800040E050E060E00E94C82180912C0B909194
:105890002D0BC89FF001C99FF00D1124E057F44F64
:1058A00088EE93E0A0E0B0E081879287A387B48779
:1058B0001092270B80912C0B90912D0B01969F93AA
:1058C0008F938BED93E09F938F930E9481490F906C
:1058D0000F900F900F90ACCFCF92DF92EF92FF928C
:1058E0000F931F93CF93DF9300D01F92CDB7DEB7F6
:1058F00080912A0B90912B0B892B09F4E9C08091A0
:10590000270B8111E5C0809112028111AEC18091F7
:105910002C0B90912D0B2091280B3091290B69E1D4
:10592000689FF001699FF00D1124E057F44F83E068
:1059300090E0821B930B0185128523853485A90194
:10594000980104C055954795379527958A95D2F7C4
:1059500080912C0B90912D0B689FF001699FF00DA9
:105960001124E057F44F61857285838594852983DE
:105970003A834B835C830E94EC450E943247298125
:105980003A814B815C81892B09F0AFC061E070E006
:1059900080E090E00E94A2446B017C01FF92EF92B4
:1059A000DF926F9386E394E09F938F930E948149E7
:1059B0000F900F900F900F900F900F90C114D10483
:1059C000E104F10409F495C080912C0B90912D0B0A
:1059D00019E1189FF001199FF00D1124E057F44FC1
:1059E000658976898789908D0E94EC450E940E47D3
:1059F0000E94BB4580911102882309F45DC080910B
:105A0000280B9091290B892B09F056C080912C0B03
:105A100090912D0B189FF001199FF00D1124E05764
:105A2000F44F058916892789308D88EE93E0A0E030
:105A3000B0E0BC01CD01601B710B820B930B25E024
:105A400030E040E050E00E94C644CA01B9010E9423
:105A5000EC450E940E470E94B4456093210B709361
:105A6000220B8093230B9093240B8091210B909118
:105A7000220BA091230BB091240B880F991FAA1F12
:105A8000BB1F8C159D05AE05BF050CF018C180919C
:105A9000210B9091220BA091230BB091240B8093AA
:105AA0001D0B90931E0BA0931F0BB093200B81E056
:105AB00080931B0B68EE73E07093890060938800FD
:105AC00081E08093270B8091810082608093810028
:105AD0000F900F900F900F90DF91CF911F910F912A
