:100000000C9497010C94B8010C9401090C9401090B
:100010000C9443090C94B8010C9401090C94B80198
:100020000C94B8010C944D090C94B8010C94B801CF
:100030000C94B8010C94B8010C94B8010C94B8015C
:100040000C94B8010C94B8010C94B8010C94B8014C
:100050000C94B8010C94B8010C94B8010C94B8013C
:100060000C94B8010C941D050C94B8010C94B801C3
:100070000C94B8010C94B8010C94B8010C94B8011C
:100080000C94B8010C94B8010C94B8010C94B8010C
:100090000C94B8010C94B8010C94B8010C94B801FC
:1000A0000C94B8010C94B8010C94B8010C94B801EC
:1000B0000C94B8010C94B8010C94B8010C94B801DC
:1000C0000C94B8010C94B8010C94B8010C94B801CC
:1000D0000C94B8010C94B8010C94B8010C94B801BC
:1000E0000C94B801B92ECF2E8D2EE52E062F412F60
:1000F000A12E602FA32E07634236B79BD8A71A39CB
:10010000685618AEBAAB558C1D3CB7CC5763BD6D65
:10011000EDFD753EF6177231BF000000803F08000C
:100120000000BE922449123EABAAAA2ABECDCCCC76
:100130004C3E00000080BEABAAAAAA3E0000000010
:10014000BF000000803F0000000000084178D3BBE2
:100150004387D1133D190E3CC3BD4282AD2B3E688F
:10016000EC8276BED98FE1A93E4C80EFFFBE01C480
:10017000FF7F3F00000000000C94A12E0C94602F24
:100180000C94CF2E0C94062F0C94B92E0C94D504FD
:100190000C94E5040C94A32E0C94412F0C948D2EFA
:1001A0000C94E52E6E616E00696E660000407A1058
:1001B000F35A00A0724E18090010A5D4E80000E818
:1001C0007648170000E40B54020000CA9A3B000076
:1001D00000E1F505000080969800000040420F0005
:1001E0000000A08601000000102700000000E803C6
:1001F000000000006400000000000A000000000091
:100200000100000000002C76D888DC674F0823DF4F
:10021000C1DFAE59E1B1B796E5E3E453C63AE65122
:10022000997696E8E6C28426EB898C9B62ED407C49
:100230006FFCEFBC9C9F40F2BAA56FA5F490055AE5
:100240002AF75C936B6CF9676DC11BFCE0E40D470A
:10025000FEF520E6B500D0ED902E0300943577052D
:100260000080841E080000204E0A000000C80C33E5
:100270003333330F986E12831141EF8D2114893B74
:10028000E65516CFFEE6DB18D1844B381BF77C1DF4
:10029000901DA4BBE424203284725E228100C9F147
:1002A00024ECA1E53D274E414E494E495459494E53
:1002B00046CDCCCC3D0AD7233C17B7D13877CC2BD1
:1002C000329595E6241FB14F0A000020410000C876
:1002D0004200401C4620BCBE4CCA1B0E5AAEC59DF7
:1002E000746364696E6F70737578585B6566674593
:1002F000464700616E006E66696E69747900CDCC08
:10030000CC3D0AD7233C17B7D13877CC2B32959503
:10031000E6241FB14F0A000020410000C8420040FF
:100320001C4620BCBE4CCA1B0E5AAEC59D7411247F
:100330001FBECFEFD1E2DEBFCDBF00E00CBF14E0A7
:10034000A0E0B2E0E0E5F5E800E00BBF02C00790F6
:100350000D92A83EB107D9F728E0A8EEB4E001C09D
:100360001D92AC3FB207E1F70E945C390C94A642A3
:100370000C940000279A08952F9A08952F980895B5
:100380001F9A08950097D9F020E030E02F9A4FE7A8
:100390005AE166E0415050406040E1F700C0000083
:1003A0002F984FE75AE166E0415050406040E1F736
:1003B00000C000002F5F3F4F2817390739F7089515
:1003C000813009F43FC0823009F008958091010125
:1003D000806880930101809102018F7780930201F0
:1003E0002FEF81EE94E0215080409040E1F700C073
:1003F00000008091010188608093010180910201D9
:1004000088608093020180910101806180930101E5
:1004100080910201806180930201809101018062DC
:10042000809301018091020180628093020180919A
:100430000101806480930101809102018F7B809390
:1004400002010895809A889A6F9A779A839A8B9A74
:10045000819A899A82988A986E98769808958130C0
:1004600009F0089577989AE09A95F1F7779A8A9526
:10047000F1F70895813071F0823009F0089580918C
:1004800002018F7E8093020180910201877F809319
:10049000020108958B9888980895813099F08230F0
:1004A00009F0089580910201886080930201809193
:1004B0000201806180930201809102018062809339
:1004C00002010895889A8B9A899A0895962F9078B8
:1004D000813009F4BCC0823009F008958091020196
:1004E000911110C18F7D8093020181E0982F9A9520
:1004F000F1F7909102019061909302018A95F1F7D2
:10050000809102018F7E8093020166FF31C180914C
:10051000020180628093020181E0982F9A95F1F7A1
:10052000909102019061909302018A95F1F7809178
:1005300002018F7E8093020165FF14C18091020148
:1005400080628093020181E0982F9A95F1F7909153
:1005500002019061909302018A95F1F78091020166
:100560008F7E8093020164FFF7C080910201806258
:100570008093020181E0982F9A95F1F79091020102
:100580009061909302018A95F1F7809102018F7E2C
:100590008093020163FFDAC0809102018062809340
:1005A000020181E0982F9A95F1F7909102019061F4
:1005B000909302018A95F1F7809102018F7E8093DA
:1005C000020162FFBDC0809102018062809302013E
:1005D00081E0982F9A95F1F79091020190619093A4
:1005E00002018A95F1F7809102018F7E80930201CA
:1005F00061FFA0C08091020180628093020181E0CE
:10060000982F9A95F1F790910201906190930201D1
:100610008A95F1F7809102018F7E8093020160FF3D
:1006200083C08091020180628093020181E0982F53
:100630009A95F1F7909102019061909302018A9549
:10064000F1F7809102018F7E80930201089591114C
:1006500057C0899881E0982F9A95F1F78B9A8A95DF
:10066000F1F78B9866FF54C0899A81E0982F9A958C
:10067000F1F78B9A8A95F1F78B9865FF47C0899AB5
:1006800081E0982F9A95F1F78B9A8A95F1F78B98DC
:1006900064FF46C0899A81E0982F9A95F1F78B9A6A
:1006A0008A95F1F78B9863FF39C0899A81E0982F7A
:1006B0009A95F1F78B9A8A95F1F78B9862FF2CC087
:1006C000899A81E0982F9A95F1F78B9A8A95F1F79C
:1006D0008B9861FF1FC0899A81E0982F9A95F1F756
:1006E0008B9A8A95F1F78B9860FF1CC0899A81E0FC
:1006F000982F9A95F1F78B9A8A95F1F78B98089530
:10070000899AA8CF806280930201EFCE8998B8CFF2
:100710008998ABCF8998E0CF8998D3CF8998C6CFF5
:100720008998B9CF8998E3CF809102018F7D80931A
:1007300002017CCF809102018F7D809302015FCF07
:10074000809102018F7D8093020142CF809102014E
:100750008F7D8093020125CF809102018F7D809350
:10076000020108CF809102018F7D80930201EBCEC0
:10077000809102018F7D80930201CECE813011F0F5
:1007800080E00895982F9A95F1F78B9A2FB1982FC2
:100790009A95F1F78B9822FB222720F9220F982FA8
:1007A0009A95F1F78B9A9FB1382F3A95F1F78B987C
:1007B00092FB992790F9292B220F982F9A95F1F700
:1007C0008B9A9FB1382F3A95F1F78B9892FB992726
:1007D00090F9292B220F982F9A95F1F78B9A9FB1B8
:1007E000382F3A95F1F78B9892FB992790F9292B9E
:1007F000220F982F9A95F1F78B9A9FB1382F3A953F
:10080000F1F78B9892FB992790F9292B220F982FBB
:100810009A95F1F78B9A9FB1382F3A95F1F78B980B
:1008200092FB992790F9292B220F982F9A95F1F78F
:100830008B9A9FB1382F3A95F1F78B9892FB9927B5
:1008400090F9292B982F9A95F1F78B9A9FB18A9559
:10085000F1F78B98822F880F92FB992790F9892BBB
:100860000895813011F080E0089567FF93C0899A60
:1008700091E0892F8A95F1F78B9A8FB19A95F1F7CC
:100880008B9882FB882780F9880F66FF81C0899A40
:1008900021E0922F9A95F1F78B9A9FB12A95F1F763
:1008A0008B9892FB992790F9892B880F65FF6EC072
:1008B000899A21E0922F9A95F1F78B9A9FB12A9508
:1008C000F1F78B9892FB992790F9892B880F64FF99
:1008D0005BC0899A21E0922F9A95F1F78B9A9FB18C
:1008E0002A95F1F78B9892FB992790F9892B880F1D
:1008F00063FF48C0899A21E0922F9A95F1F78B9A6D
:100900009FB12A95F1F78B9892FB992790F9892B43
:10091000880F62FF35C0899A21E0922F9A95F1F7EE
:100920008B9A9FB12A95F1F78B9892FB992790F9B2
:10093000892B880F61FF22C0899A21E0922F9A9516
:10094000F1F78B9A9FB12A95F1F78B9892FB992733
:1009500090F9892B880F60FF0FC0899A21E0922FB0
:100960009A95F1F78B9A9FB12A95F1F78B9892FBA4
:10097000992790F9892B08958998F0CF8998DDCF30
:100980008998CACF8998B7CF8998A4CF899891CFF1
:1009900089987ECF89986CCF813011F080E00895DE
:1009A0008CB186FB882780F90895CF93C82F8A30B1
:1009B00041F09091C00095FFFCCFC093C600CF914D
:1009C00008958DE00E94D504F4CF8091EA04882335
:1009D000E1F3E091EB04F091EC04E151FB4F8081F5
:1009E0009091EA0491509093EA042091EB043091A5
:1009F000EC042F5F3F4F3093EC042093EB042091E5
:100A0000EB043091EC042F3F310509F0089510926A
:100A1000EC041092EB0408951092C50089E18093D4
:100A2000C400E0ECF0E080818D7F808386E08093DD
:100A3000C20088E18093C10008951F920F920FB603
:100A40000F9211240BB60F922F938F939F93EF93D6
:100A5000FF932091C6008091EA048F3FA1F1E091BD
:100A6000ED04F091EE04E151FB4F20838091EA0404
:100A70008F5F8093EA048091ED049091EE040196DB
:100A80009093EE048093ED048091ED049091EE0438
:100A90008F3F910501F18091E8049091E904892B41
:100AA00031F08091C00085FFFCCF2093C600FF91FC
:100AB000EF919F918F912F910F900BBE0F900FBED2
:100AC0000F901F9018958091C00085FFFCCF80E4A7
:100AD0008093C600ECCF1092EE041092ED04DBCFB1
:100AE0008091EA048823F1F0E091EB04F091EC04AA
:100AF000E151FB4F80819091EA0491509093EA0478
:100B00002091EB043091EC042F5F3F4F3093EC04C5
:100B10002093EB042091EB043091EC042F3F31053E
:100B200019F0089580E008951092EC041092EB04FF
:100B30000895E1ECF0E080818F7780831092C5000A
:100B400089E18093C400A0ECB0E08C918D7F8C9300
:100B500086E08093C20088E180831092E9041092BD
:100B6000E804A4EFB8E080E092E011969C938E93A5
:100B700013969C938E9312971092EE041092ED04AC
:100B80001092EC041092EB041092EA0480818068C9
:100B9000808308959093E9048093E8040895109267
:100BA000E9041092E8040895FC0160830895EF922F
:100BB000FF921F93CF93DF931F92CDB7DEB77C01D7
:100BC000162FFC01808179830E943A026981F70126
:100BD00080810E946602612FF70180810E94660277
:100BE000F70180810F90DF91CF911F91FF90EF90DF
:100BF0000C944D02FC0180810C94E001FC016083A7
:100C00000895CF92DF92EF92FF920F93CF93DF93ED
:100C1000EC016A017B0188810E943A02602F6370B7
:100C200088810E94660299278F2D7E2D6D2D8881E7
:100C30000E9466026C2D88810E9466028881DF9185
:100C4000CF910F91FF90EF90DF90CF900C944D02D9
:100C5000FC0180810C94E001FC0160830895CF9237
:100C6000DF92EF92FF92CF93DF93EC016A017B0159
:100C700088810E943A026C2D88810E946602B70129
:100C80008827992788810E94660299278F2D7E2DBB
:100C90006D2D88810E9466028881DF91CF91FF903F
:100CA000EF90DF90CF900C944D02FC0180810C946A
:100CB000E001FC01608308950F931F93CF93DF93AE
:100CC000EC018B0188810E943A02B8010024660F72
:100CD000771F001C660F771F001C672F702D6F7326
:100CE00088810E946602602F660F660F88810E94CD
:100CF00066028881DF91CF911F910F910C944D0274
:100D0000FC0180810C94E0010F931F93CF93DF933C
:100D10008C01EB010E94413FFE0101900020E9F7A8
:100D2000CF018C1B9D0B800F911FDF91CF911F91E5
:100D30000F910895FC01608308950F931F93CF9343
:100D4000DF93EC0188810E943A0288810E94BE03F1
:100D500088810E94BE03082F88810E94BE03182F3D
:100D600088810E944D02812F90E0902BDF91CF91DE
:100D70001F910F910895FC0180810C94E0010F9365
:100D80001F93CF93DF938EE090E00E946D42EC01C1
:100D900086E090E00E946D42AC01CE01A0E0B0E0A0
:100DA000DC019927882760E070E08C019D01042B0D
:100DB000152B262B372BC901B801613F19E47107A8
:100DC00012E08107910508F0AAC00E946A3B20E06A
:100DD00030E04AE754E40E94C23A6093D40870932A
:100DE000D5088093D6089093D7088CE090E00E94B5
:100DF0006D42EC0184E090E00E946D42AC01CE01B6
:100E0000A0E0B0E0DC019927882760E070E08C0169
:100E10009D01042B152B262B372BC901B801613FEF
:100E200019E4710712E08107910508F082C00E9461
:100E30006A3B20E030E04AE754E40E94C23A609303
:100E4000D8087093D9088093DA089093DB088AE079
:100E500090E00E946D42EC0182E090E00E946D42C1
:100E6000AC01CE01A0E0B0E0DC019927882760E06A
:100E700070E08C019D01042B152B262B372BC9010B
:100E8000B801613F19E4710712E08107910508F08C
:100E90004BC00E946A3B20E030E04AE754E40E94E5
:100EA000C23A6093DC087093DD088093DE0890936B
:100EB000DF0888E090E00E946D42EC0180E090E065
:100EC0000E946D42AC01CE01A0E0B0E0DC019927A8
:100ED000882760E070E08C019D01042B152B262BE8
:100EE000372BC901B801613F19E4710712E081078E
:100EF000910520F50E946A3B20E030E04AE754E487
:100F00000E94C23A6093E0087093E1088093E2087F
:100F10009093E308DF91CF911F910F91089560E0C6
:100F200070E086E193E459CF60E070E086E193E4FD
:100F3000B8CF60E070E086E193E481CF60E070E0DC
:100F400086E193E4DFCFCF92DF92EF92FF92CF93CF
:100F5000DF93C4EDD8E020E030E04AE754E4688154
:100F600079818A819B810E94213C0E943B3B6B01DD
:100F70007C01B701882799278EE090E00E94734298
:100F8000B60186E090E00E94734220E030E04AE73C
:100F900054E46C817D818E819F810E94213C0E945E
:100FA0003B3B6B017C01B701882799278CE090E0DF
:100FB0000E947342B60184E090E00E94734220E0F8
:100FC00030E04AE754E4688579858A859B850E94EC
:100FD000213C0E943B3B6B017C01BC018827992787
:100FE0008AE090E00E947342B60182E090E00E94A5
:100FF000734220E030E04AE754E46C857D858E85BD
:101000009F850E94213C0E943B3B6B017C01BC01FF
:101010008827992788E090E00E947342B60180E01B
:1010200090E0DF91CF91FF90EF90DF90CF900C9404
:1010300073428091E4088823B9F18091CF08813010
:1010400009F441C081E08093CF0880912802882371
:10105000D1F11092D4081092D5081092D6081092AF
:10106000D7081092D8081092D9081092DA08109276
:10107000DB081092DC081092DD081092DE08109256
:10108000DF081092E0081092E1081092E208109236
:10109000E3081092D0081092D1081092D208109252
:1010A000D3081092280208958091CF08882359F020
:1010B0008093CE081092CF0880912802811103C03E
:1010C00081E08093280208958F929F92AF92BF9201
:1010D000CF92DF92EF92FF921F93CF93DF93109105
:1010E00028021123C9F18091CF08811135C080ED0C
:1010F000C82E88E0D82ECDEBD8E094EDE92E98E00C
:10110000F92EF60181916F018823B9F120E030E0DA
:101110004AE754E4F70160817181828193810E94E2
:10112000213C0E943B3B88809980AA80BB80681547
:1011300079058A059B0521F0688379838A839B83DF
:101140002496F4E0EF0EF11C88E0CD3CD807C9F6F8
:101150008091CD08811115C080912702181310933A
:101160002702DF91CF911F91FF90EF90DF90CF90FA
:10117000BF90AF909F908F90089560E070E0CB019A
:10118000D2CF81508093CD08E7CFE0EDF8E0108218
:1011900011821282138281E080932802089552986E
:1011A0005A9AE9E6F0E080818F7D808380818061BA
:1011B0008083EA9A5198599A8081877F80838081C1
:1011C00084608083E99A53985B9A808180688083E9
:1011D00080818F7B8083EB9A26982E9AA8E6B0E0D8
:1011E0008C9181608C93EBE6F0E080818064808359
:1011F00025982D9A8C9181608C9380818062808368
:1012000008951F920F920FB60F9211240BB60F92F2
:101210002F933F934F935F936F938F939F93EF938E
:10122000FF934091EC08440F440F4093EC0859B1F0
:1012300069B161FB882780F990E0842B52FB22275B
:1012400020F930E0220F331F822B932B8093EC0880
:101250008F70E82FF0E0E75DFD4F9091F1088081FD
:10126000890F8093F108FF91EF919F918F916F917A
:101270005F914F913F912F910F900BBE0F900FBE3A
:101280000F901F9018951F920F920FB60F92112476
:101290000F900FBE0F901F9018951F920F920FB6D0
:1012A0000F9211248F939F9383B186FB882780F937
:1012B00090910F02992311F08823C1F080930F02BF
:1012C00083B185FB882780F990910E02992329F03C
:1012D000811103C091E09093EF0880930E029F91DB
:1012E0008F910F900FBE0F901F90189591E09093E3
:1012F000F008E4CF8F929F92AF92BF92CF92DF928D
:10130000EF92FF920F931F93CF93DF93CDB7DEB78A
:1013100062970FB6F894DEBF0FBECDBF80E290E0BB
:101320009A8B898BBE016F5E7F4F81EF97E00E94A1
:10133000343F9A8389837E0183E0E80EF11C01E04B
:1013400010E0BE016F5E7F4F80E090E00E94343F6E
:10135000F701819391937F01892B09F45CC00F5FA2
:101360001F4F0830110569F7E980FA8063E672E0E3
:10137000C7010E94383F892BA1F45F9A62960FB68D
:10138000F894DEBF0FBECDBFDF91CF911F910F91BB
:10139000FF90EF90DF90CF90BF90AF909F908F9095
:1013A00008956CE872E0C7010E94383F892B29F349
:1013B00064E672E0C7010E94383F892BF1F26DE8C4
:1013C00072E0C7010E94383F892BB9F261E473E0F3
:1013D000C7010E94383F892B09F416C16EEF72E0F5
:1013E000C7010E94383F892B09F461C165E473E0AD
:1013F000C7010E94383F892B09F45EC168E573E09C
:10140000C7010E94383F892B09F43BC18DE793E067
:101410000E940C40B2CFE980FA8063E672E0C70117
:101420000E94383F892B89F16CE872E0C7010E9465
:10143000383F892B09F086C00230110509F09DCF95
:101440008B819C810E94173E01978430910508F0A2
:1014500094CF880F991F880F991FFC01EC52F74F0A
:1014600083818F9382818F9381818F9380818F93EA
:1014700085E892E09F938F930E94F83F0F900F9022
:101480000F900F900F900F9078CF0330110509F057
:1014900074CF5F988FE19EE40197F1F700C00000E0
:1014A0008B819C810E94173E8C018D819E810E94C0
:1014B000133EF62EE72ED82EC92E80901F02909054
:1014C0002002A0902102B09022029401A5010E9466
:1014D0001C3C181624F4F82CE92CDA2CCB2C20E038
:1014E00030E0A9016F2D7E2D8D2D9C2D0E94BD3ADF
:1014F00087FDC2C09801215031092430310508F020
:10150000AFC0220F331F220F331FF901EC52F74FE8
:101510008F2D9E2DAD2DBC2D80839183A283B3830F
:10152000CF92DF92EF92FF921F930F938AE692E0A1
:101530009F938F930E94F83F0FB6F894DEBF0FBEC3
:10154000CDBF1BCF64E672E0C7010E94383F892BF4
:1015500041F16DE872E0C7010E94383F892B09F024
:1015600035CF0230110509F008CF8B819C810E9494
:10157000173E9C01215031092430310508F0FDCE81
:10158000FC01E153F74F80811F928F9384E593E034
:101590009F938F930E94F83F0F900F900F900F90A2
:1015A000ECCE0330110509F0E8CE5F988FE19EE4A0
:1015B0000197F1F700C000008B819C810E94173ECB
:1015C0008C018D819E810E94173E98012150310926
:1015D0002430310508F0D1CE009709F47AC0019784
:1015E00009F0CBCEF801E153F74F81E080831F93E0
:1015F0000F938FEA92E09F938F930E94F83F0F9092
:101600000F900F900F90B9CE0130110509F0B5CEB3
:101610008AE492E00E940C4085E492E09F938F93CD
:101620008AEC92E09F938F930E94F83F8FE392E0C1
:101630009F938F938AED92E09F938F930E94F83F40
:1016400089E392E09F938F938CEE92E09F938F9328
:101650000E94F83F0FB6F894DEBF0FBECDBF8DCE0F
:10166000220F331F220F331FF901EC52F74FF08086
:10167000E180D280C38054CFF12CE12CD12CC12C3D
:1016800039CF9091E40881E098279093E4089091F5
:10169000280289271F928F9388E693E09F938F9368
:1016A0000E94F83F0F900F900F900F9066CE83E04E
:1016B00093E00E940C4061CE1F921F928BE493E056
:1016C0009F938F930E94F83F0F900F900F900F9071
:1016D00054CEF801E153F74F10821F930F9383E923
:1016E00092E09F938F930E94F83F0F900F900F907E
:1016F0000F9043CE0E947005882309F44FC08D30AF
:10170000F1F08A30E1F0E091E708F091E808E43682
:10171000F1055CF0E95AF74F129298E0E735F907C6
:10172000D9F710925608E0E0F0E0DF01AA5AB74F6F
:101730008C933196F093E808E093E708DBCF409173
:10174000E7085091E80814161506A4F6A1EFB7E0D3
:10175000E6E5F8E09A012A5A374F80818D9311927D
:10176000E217F307D1F78091E5089091E608481752
:1017700059074CF4FA01EF50F84F8F50984F1192DF
:10178000E817F907E1F75093E6084093E50810924F
:10179000E8081092E7080E947A09ACCF089581E02A
:1017A0000E943A0262E081E00E94660260E081E00D
:1017B0000E94660281E00E94CC048823D9F362E093
:1017C00081E00E94660260E081E00E94660281E0A2
:1017D0000E944D0281E00E943A0281E00E94CC0406
:1017E0008823D9F36FEF81E00E9431048093EE05E6
:1017F0006FEF81E00E9431048093EF0581E00E9449
:101800004D0281E00E94CC048130D9F38091EF0534
:101810008F938091EE058F9387EB93E09F938F9347
:101820000E94F83F81E00E943A0262E081E00E945B
:10183000660260E081E00E9466020F900F900F90B8
:101840000F9081E00E94CC048823D9F363E081E00B
:101850000E94660260E081E00E94660281E00E94D0
:101860004D0281E00E943A0281E00E94CC0488236C
:10187000D9F36FEF81E00E9431048093EE056FEFA2
:1018800081E00E9431048093EF0581E00E944D02C7
:1018900081E00E94CC048130D9F38091EF058F93D1
:1018A0008091EE058F938AEC93E09F938F930E9433
:1018B000F83F81E00E943A0262E081E00E94660205
:1018C00060E081E00E9466020F900F900F900F90F1
:1018D00081E00E94CC048823D9F360E081E00E947B
:1018E000660260E081E00E94660281E00E944D0293
:1018F00081E00E943A0281E00E94CC048823D9F35F
:101900006FEF81E00E9431048093EE056FEF81E07C
:101910000E9431048093EF0581E00E944D0281E036
:101920000E94CC048130D9F381E00E943A0262E047
:1019300081E00E94660260E081E00E94660281E030
:101940000E94CC048823D9F361E081E00E94660202
:1019500060E081E00E94660281E00E944D0281E029
:101960000E943A0281E00E94CC048823D9F36FEFF1
:1019700081E00E9431048093EE056FEF81E00E94C8
:1019800031048093EF0581E00E944D0281E00E94C6
:10199000CC048130D9F38091EF058F938091EE05CF
:1019A0008F9388ED93E09F938F930E94F83F0F9061
:1019B0000F900F900F9008956F927F928F929F9249
:1019C000AF92BF92CF92DF92EF92FF920F931F934D
:1019D000CF93DF93CDB7DEB76A970FB6F894DEBF2B
:1019E0000FBECDBF989AA09A2FEF83ED90E32150C0
:1019F00080409040E1F700C00000A098EFEFF3EDC9
:101A000020E3E150F0402040E1F700C0000081E019
:101A10000E94E00181E00E943A0281E00E94CC0431
:101A20008823D9F36FEF81E00E9431048093EE05A3
:101A30006FEF81E00E9431048093EF0581E00E9406
:101A40004D0281E00E94CC048130D9F38091EE05F3
:101A50009091EF058231944309F07DC081E00E94AE
:101A60003A0262E081E00E94660260E081E00E944A
:101A7000660281E00E94CC048823D9F360E081E013
:101A80000E94660260E081E00E94660281E00E949E
:101A90004D0281E00E943A0281E00E94CC0488233A
:101AA000D9F36FEF81E00E9431048093EE056FEF70
:101AB00081E00E9431048093EF0581E00E944D0295
:101AC00081E00E94CC048130D9F30091EE051091A1
:101AD000EF0581E00E943A0262E081E00E94660226
:101AE00060E081E00E94660281E00E94CC048823CD
:101AF000D9F361E081E00E94660260E081E00E942B
:101B0000660281E00E944D0281E00E943A0281E07B
:101B10000E94CC048823D9F36FEF81E00E94310446
:101B20008093EE056FEF81E00E9431048093EF0512
:101B300081E00E944D0281E00E94CC048130D9F303
:101B40008091EE059091EF05012B09F087CF8F373B
:101B50009D4109F083CF80E094E09A83898384E6F5
:101B600090E09C838B8381E00E943A0264E081E0F4
:101B70000E94660260E081E00E946602CE0101964A
:101B80003C017C0101E010E00DC0F701608181E0C3
:101B90000E9466020430110599F00F5F1F4FFFEF9E
:101BA000EF1AFF0A0130110581F781E00E94CC0491
:101BB0008823D9F3F701608181E00E946602EDCFAE
:101BC00081E00E944D0281E00E943A0281E00E9481
:101BD000CC048823D9F36FEF81E00E943104809315
:101BE000EE056FEF81E00E9431048093EF0581E004
:101BF0000E944D0281E00E94CC048130D9F381E043
:101C00000E943A0262E081E00E94660260E081E0A8
:101C10000E94660281E00E94CC048823D9F360E828
:101C200081E00E94660261E081E00E94660281E03C
:101C30000E944D0281E00E943A0281E00E94CC04A1
:101C40008823D9F36FEF81E00E9431048093EE0581
:101C50006FEF81E00E9431048093EF0581E00E94E4
:101C60004D0281E00E94CC048130D9F385E591E0FA
:101C70009A83898384E090E09C838B8381E00E9437
:101C80003A0264E081E00E94660260E081E00E9426
:101C90006602730101E010E00DC0F701608181E090
:101CA0000E9466020430110599F00F5F1F4FFFEF8D
:101CB000EF1AFF0A0130110581F781E00E94CC0480
:101CC0008823D9F3F701608181E00E946602EDCF9D
:101CD00081E00E944D0281E00E943A0281E00E9470
:101CE000CC048823D9F36FEF81E00E943104809304
:101CF000EE056FEF81E00E9431048093EF0581E0F3
:101D00000E944D0281E00E94CC048130D9F380E72B
:101D100091E09A8389838BEE93ED9C838B8389EE8C
:101D200090E09E838D8381E00E943A0266E081E02C
:101D30000E94660260E081E00E946602730101E099
:101D400010E00DC0F701608181E00E94660206305C
:101D5000110599F00F5F1F4FFFEFEF1AFF0A0130D7
:101D6000110581F781E00E94CC048823D9F3F701A3
:101D7000608181E00E946602EDCF81E00E944D0209
:101D800081E00E943A0281E00E94CC048823D9F3CA
:101D90006FEF81E00E9431048093EE056FEF81E0E8
:101DA0000E9431048093EF0581E00E944D0281E0A2
:101DB0000E94CC048130D9F389E1E6E6F4E0D30156
:101DC00001900D928A95E1F7E090ED07F090EE0713
:101DD0000091EF071091F0077F926F92812C912C68
:101DE000A12CB12C94E0C92ED12C2EE130E040EF93
:101DF00050E06EE070E08EEE95E00E94253885E4BC
:101E000092E09F938F938FEE93E09F938F937F92B7
:101E10006F920E943C40E090ED07F090EE07009139
:101E2000EF071091F0077F926F9223E0C22ED12C22
:101E300024E630E04AE050E067E070E08EEE95E0A6
:101E40000E9425388FE392E09F938F9383E094E084
:101E50009F938F937F926F920E943C40E090ED079A
:101E6000F090EE070091EF071091F0077F926F92CC
:101E700028E730E04AE050E067E070E08EEE95E061
:101E80000E94253889E392E09F938F9387E194E045
:101E90009F938F937F926F920E943C40E090ED075A
:101EA000F090EE070091EF071091F0077F926F928C
:101EB0002CE830E04AE050E067E070E08EEE95E01C
:101EC0000E94253881E1EBE2F4E0D30101900D920C
:101ED0008A95E1F7E090ED07F090EE070091EF07AB
:101EE0001091F0077F926F922CED30E04AE050E0C5
:101EF00068E070E08EEE95E00E94253881E00E9457
:101F00003A0262E081E00E94660260E081E00E94A5
:101F100066020FB6F894DEBF0FBECDBF81E00E940F
:101F2000CC048823D9F361E881E00E94660261E075
:101F300081E00E94660281E00E944D0281E00E94E1
:101F40003A0281E00E94CC048823D9F36FEF81E04C
:101F50000E9431048093EE056FEF81E00E9431040E
:101F60008093EF0581E00E944D0281E00E94CC0445
:101F70008130D9F381E094E09E8B8D8B82E090E0FC
:101F8000988F8F8B1A8E198E81E00E943A0266E03C
:101F900081E00E94660260E081E00E9466028E019C
:101FA0000B5E1F4F66246394712C0EC0F801608194
:101FB00081E00E946602F6E06F167104A1F09FEFC7
:101FC000691A790A0F5F1F4FE1E06E16710471F70D
:101FD00081E00E94CC048823D9F3F801608181E07C
:101FE0000E946602ECCF81E00E944D0281E00E94D7
:101FF0003A0281E00E94CC048823D9F36FEF81E09C
:102000000E9431048093EE056FEF81E00E9431045D
:102010008093EF0581E00E944D0281E00E94CC0494
:102020008130D9F36CE374E08EEE95E00E94D938EC
:102030006A960FB6F894DEBF0FBECDBFDF91CF9189
:102040001F910F91FF90EF90DF90CF90BF90AF90D6
:102050009F908F907F906F9008952F923F924F9214
:102060005F926F927F928F929F92AF92BF92CF9228
:10207000DF92EF92FF920F931F93CF93DF93CDB731
:10208000DEB7CE54D1400FB6F894DEBF0FBECDBF41
:1020900081E00E943A0262E081E00E94660260E014
:1020A00081E00E94660281E00E94CC048823D9F37B
:1020B00060E881E00E94660261E081E00E946602C1
:1020C00081E00E944D0281E00E943A0281E00E947C
:1020D000CC048823D9F36FEF81E00E943104809310
:1020E000EE056FEF81E00E9431048093EF0581E0FF
:1020F0000E944D0281E00E94CC048130D9F385E535
:1021000091E09A83898384E090E09C838B8381E0D3
:102110000E943A0264E081E00E94660260E081E091
:102120000E9466028E010F5F1F4F6801EE24E39448
:10213000F12C0FC0F601608181E00E946602F4E09C
:10214000EF16F104A9F02FEFE21AF20A3FEFC31ADB
:10215000D30A81E0E816F10469F781E00E94CC041B
:102160008823D9F3F601608181E00E946602EBCFFB
:1021700081E00E944D0281E00E943A0281E00E94CB
:10218000CC048823D9F36FEF81E00E94310480935F
:10219000EE056FEF81E00E9431048093EF0581E04E
:1021A0000E944D0281E00E94CC048130D9F380E787
:1021B00091E09A8389831C821B821E821D8281E0AA
:1021C0000E943A0266E081E00E94660260E081E0DF
:1021D0000E9466026801EE24E394F12C0FC0F60120
:1021E000608181E00E946602F6E0EF16F104A9F03A
:1021F0002FEFE21AF20A3FEFC31AD30A81E0E81682
:10220000F10469F781E00E94CC048823D9F3F60138
:10221000608181E00E946602EBCF81E00E944D0266
:1022200081E00E943A0281E00E94CC048823D9F325
:102230006FEF81E00E9431048093EE056FEF81E043
:102240000E9431048093EF0581E00E944D0281E0FD
:102250000E94CC048130D9F380E093E09A83898393
:1022600081E090E09C838B830E943A0264E081E0ED
:102270000E94660260E081E00E9466026801EE242E
:10228000E394F12C0FC0F601608181E00E946602A8
:10229000F4E0EF16F104A9F02FEFE21AF20A3FEF93
:1022A000C31AD30A81E0E816F10469F781E00E94BD
:1022B000CC048823D9F3F601608181E00E94660294
:1022C000EBCF81E00E944D0281E00E943A0281E062
:1022D0000E94CC048823D9F36FEF81E00E9431047F
:1022E0008093EE056FEF81E00E9431048093EF054B
:1022F00081E00E944D0281E00E94CC048130D9F33C
:102300008091E30781110C94AF208FEF90E02FEFC5
:102310003FEF42E551E05A8349833C832B839E8300
:102320008D8381E00E943A0266E081E00E946602AD
:1023300060E081E00E9466026801EE24E394F12CE3
:102340000FC0F601608181E00E946602F6E0EF16A0
:10235000F104A9F02FEFE21AF20A3FEFC31AD30AF1
:1023600081E0E816F10469F781E00E94CC0488233B
:10237000D9F3F601608181E00E946602EBCF81E033
:102380000E944D0281E00E943A0281E00E94CC044A
:102390008823D9F36FEF81E00E9431048093EE052A
:1023A0006FEF81E00E9431048093EF0581E00E948D
:1023B0004D0281E00E94CC048130D9F380E591E0A8
:1023C0009A83898380E797E09C838B8388E797E0F3
:1023D0009E838D8388EF94E098878F839A8789877F
:1023E00081E00E943A026AE081E00E94660260E0B9
:1023F00081E00E9466026801EE24E394F12C0FC094
:10240000F601608181E00E946602FAE0EF16F104B5
:10241000A9F02FEFE21AF20A3FEFC31AD30A81E0C4
:10242000E816F10469F781E00E94CC048823D9F30F
:10243000F601608181E00E946602EBCF81E00E949C
:102440004D0281E00E943A0281E00E94CC04882380
:10245000D9F36FEF81E00E9431048093EE056FEFB6
:1024600081E00E9431048093EF0581E00E944D02DB
:1024700081E00E94CC048130D9F3E091D507F0913E
:10248000D607EE0FFF1FE550F94F60817181072ECF
:10249000000C880B990B0E946C3B2FE632E143E85D
:1024A00050E40E94213C20E030E040E85BE30E94E1
:1024B000213C9F938F937F936F9386E894E09F9343
:1024C0008F936E012DEEC21A2EEFD20ADF92CF92B9
:1024D0000E943C408091ED079091EE07A091EF079C
:1024E000B091F00721E031E03A8329832FE030E01A
:1024F0003C832B8320EC38E03E832D8320E837E0BB
:1025000038872F839A878987BC87AB8785E090E0DF
:102510009E878D87188A1F861A8A198AB601CE016E
:1025200043960E9484064C01801A910A81E00E9421
:102530003A02682D81E00E946602692D81E00E94C6
:1025400066020FB6F894DEBF0FBECDBF81149104B2
:1025500001F15801E12CF12C0CC0F50161915F01F2
:1025600081E00E946602FFEFEF1AFF0A8E149F04BB
:1025700081F0C7018F739927892B79F781E00E9439
:10258000CC048111EACF81E00E94CC048823B1F30E
:10259000E4CF81E00E944D0281E00E943A0281E096
:1025A0000E94CC048823D9F36FEF81E00E943104AC
:1025B0008093EE056FEF81E00E9431048093EF0578
:1025C00081E00E944D0281E00E94CC048130D9F369
:1025D0008091ED079091EE07A091EF07B091F00781
:1025E00021E031E03A8329832EE030E03C832B83E5
:1025F00020E139E03E832D8320EA37E038872F83BE
:102600009A878987BC87AB8784E090E09E878D8717
:10261000188A1F861A8A198A6CE874E0CE014396DC
:102620000E9484064C01801A910A81E00E943A02BD
:10263000682D81E00E946602692D81E00E94660299
:102640008114910401F15801E12CF12C0CC0F50129
:1026500061915F0181E00E946602FFEFEF1AFF0ABD
:102660008E149F0481F0C7018F739927892B79F706
:1026700081E00E94CC048111EACF81E00E94CC0469
:102680008823B1F3E4CF81E00E944D0281E00E94F3
:102690003A0281E00E94CC048823D9F36FEF81E0F5
:1026A0000E9431048093EE056FEF81E00E943104B7
:1026B0008093EF0581E00E944D0281E00E94CC04EE
:1026C0008130D9F380E093E09A83898386E090E0BB
:1026D0009C838B8381E00E943A0264E081E00E9447
:1026E000660260E081E00E9466025801EE24E394F5
:1026F000F12C0FC0F501608181E00E946602F4E0D8
:10270000EF16F104A9F02FEFE21AF20A3FEFA31A35
:10271000B30A81E0E816F10469F781E00E94CC0475
:102720008823D9F3F501608181E00E946602EBCF36
:1027300081E00E944D0281E00E943A0281E00E9405
:10274000CC048823D9F36FEF81E00E943104809399
:10275000EE056FEF81E00E9431048093EF0581E088
:102760000E944D0281E00E94CC048130D9F382E5C1
:1027700091E09A83898387E89FED9C838B8389E826
:1027800090E09E838D8381E00E943A0266E081E0C2
:102790000E94660260E081E00E9466025801EE2419
:1027A000E394F12C0FC0F501608181E00E94660284
:1027B000F6E0EF16F104A9F02FEFE21AF20A3FEF6C
:1027C000A31AB30A81E0E816F10469F781E00E94D8
:1027D000CC048823D9F3F501608181E00E94660270
:1027E000EBCF81E00E944D0281E00E943A0281E03D
:1027F0000E94CC048823D9F36FEF81E00E9431045A
:102800008093EE056FEF81E00E9431048093EF0525
:1028100081E00E944D0281E00E94CC048130D9F316
:1028200080E591E09A83898380E79CE09C838B8399
:1028300088E797E09E838D8388EF94E098878F8365
:102840009A87898781E00E943A026AE081E00E94CB
:10285000660260E081E00E9466025801EE24E39483
:10286000F12C0FC0F501608181E00E946602FAE060
:10287000EF16F104A9F02FEFE21AF20A3FEFA31AC4
:10288000B30A81E0E816F10469F781E00E94CC0404
:102890008823D9F3F501608181E00E946602EBCFC5
:1028A00081E00E944D0281E00E943A0281E00E9494
:1028B000CC048823D9F36FEF81E00E943104809328
:1028C000EE056FEF81E00E9431048093EF0581E017
:1028D0000E944D0281E00E94CC048130D9F3E09146
:1028E000D507F091D607EE0FFF1FEE0FFF1F809167
:1028F000D3079091D407E80FF91FEE0FFF1FED5E8D
:10290000F84F81818F9380818F9388EB94E09F9320
:102910008F93DF92CF920E943C408091ED0790917F
:10292000EE07A091EF07B091F00721E031E03A8384
:1029300029832FE030E03C832B8320E83CE03E837A
:102940002D8320E837E038872F839A878987BC87D3
:10295000AB8784E090E09E878D87188A1F861A8A4D
:10296000198A6EE874E0CE0143960E9484064C01F9
:10297000801A910A81E00E943A02682D81E00E944B
:102980006602692D81E00E9466020F900F900F9001
:102990000F900F900F908114910401F15801E12CD8
:1029A000F12C0CC0F50161915F0181E00E9466028B
:1029B000FFEFEF1AFF0A8E149F0481F0C7018F7397
:1029C0009927892B79F781E00E94CC048111EACF05
:1029D00081E00E94CC048823B1F3E4CF81E00E941F
:1029E0004D0281E00E943A0281E00E94CC048823DB
:1029F000D9F36FEF81E00E9431048093EE056FEF11
:102A000081E00E9431048093EF0581E00E944D0235
:102A100081E00E94CC048130D9F380E093E09A8376
:102A2000898382E090E09C838B8381E00E943A025C
:102A300064E081E00E94660260E081E00E9466023C
:102A40005801EE24E394F12C0FC0F501608181E080
:102A50000E946602F4E0EF16F104A9F02FEFE21AEB
:102A6000F20A3FEFA31AB30A81E0E816F10469F70E
:102A700081E00E94CC048823D9F3F501608181E0D4
:102A80000E946602EBCF81E00E944D0281E00E942D
:102A90003A0281E00E94CC048823D9F36FEF81E0F1
:102AA0000E9431048093EE056FEF81E00E943104B3
:102AB0008093EF0581E00E944D0281E00E94CC04EA
:102AC0008130D9F38091E40781110C94A9208FEF14
:102AD00090E02FEF3FEF42E551E05A8349833C837A
:102AE0002B839E838D8381E00E943A0266E081E021
:102AF0000E94660260E081E00E9466025801EE24B6
:102B0000E394F12C0FC0F501608181E00E94660220
:102B1000F6E0EF16F104A9F02FEFE21AF20A3FEF08
:102B2000A31AB30A81E0E816F10469F781E00E9474
:102B3000CC048823D9F3F501608181E00E9466020C
:102B4000EBCF81E00E944D0281E00E943A0281E0D9
:102B50000E94CC048823D9F36FEF81E00E943104F6
:102B60008093EE056FEF81E00E9431048093EF05C2
:102B700081E00E944D0281E00E94CC048130D9F3B3
:102B800080E591E09A83898380E79CE09C838B8336
:102B900088E391E09E838D8388EF94E098878F830C
:102BA00088E792E09A87898781E00E943A026AE08A
:102BB00081E00E94660260E081E00E9466025801A6
:102BC000EE24E394F12C0FC0F501608181E00E94B6
:102BD0006602FAE0EF16F104A9F02FEFE21AF20A0A
:102BE0003FEFA31AB30A81E0E816F10469F781E028
:102BF0000E94CC048823D9F3F501608181E00E9412
:102C00006602EBCF81E00E944D0281E00E943A0211
:102C100081E00E94CC048823D9F36FEF81E00E9409
:102C200031048093EE056FEF81E00E9431048093C0
:102C3000EF0581E00E944D0281E00E94CC048130CA
:102C4000D9F3209017023090180237FCC5C040908D
:102C50001002509011026090120270901302809145
:102C6000D5079091D607880F991F880F991F880F55
:102C7000991F9C012D58384FC75BDE4F398328833D
:102C8000C954D14020E030E040E85FE3E12CF12C72
:102C9000CB5BDE4F1882C554D140CA5BDE4F188231
:102CA000C654D140C95BDE4F1882C754D140C85BBF
:102CB000DE4F1882C854D140C75BDE4FE881F981EE
:102CC000C954D14061917191C75BDE4FF983E883AC
:102CD000C954D140072E000C880B990BC55BDE4F01
:102CE0002883CB54D140C45BDE4F3883CC54D140D1
:102CF000C35BDE4F4883CD54D140C25BDE4F588367
:102D0000CE54D1400E946C3B4B015C01C55BDE4F51
:102D10002881CB54D140C45BDE4F3881CC54D140A4
:102D2000C35BDE4F4881CD54D140C25BDE4F58813A
:102D3000CE54D140C301B2010E94C23A9B01AC0102
:102D4000C501B4010E94213C9B01AC01CB5BDE4F6D
:102D5000E881C554D140CA5BDE4FB881C654D1402A
:102D6000C95BDE4FA881C754D140C85BDE4FF881F4
:102D7000C854D1406E2F7B2F8A2F9F2F0E94513A2B
:102D8000CB5BDE4F6883C554D140CA5BDE4F78838E
:102D9000C654D140C95BDE4F8883C754D140C85B5D
:102DA000DE4F9883C854D140FFEFEF1AFF0A2E146C
:102DB0003F0434F1B7010F2C000C880B990B0E94D3
:102DC0006C3B9B01AC0160E070E080E090E40E940D
:102DD0008E3C9B01AC0170CFCB5BDE4F1882C5549B
:102DE000D140CA5BDE4F1882C654D140C95BDE4F6A
:102DF0001882C754D140C85BDE4F1882C854D140F6
:102E0000C85BDE4F2881C854D1402F93C95BDE4F89
:102E10003881C754D1403F93CA5BDE4F8881C65486
:102E2000D1408F93CB5BDE4F9881C554D1409F93A7
:102E300083E994E09F938F93DF92CF920E943C406E
:102E40008091ED079091EE07A091EF07B091F00708
:102E500021E031E03A8329832FE030E03C832B836B
:102E600028E53EE03E832D8320E431E038872F8340
:102E70009A878987BC87AB8785E090E09E878D879E
:102E8000188A1F861A8A198AB601CE0143960E94B3
:102E900084064C01801A910A81E00E943A02682D52
:102EA00081E00E946602692D81E00E9466020FB6F1
:102EB000F894DEBF0FBECDBF8114910401F158011B
:102EC000E12CF12C0CC0F50161915F0181E00E94C1
:102ED0006602FFEFEF1AFF0A8E149F0481F0C7010C
:102EE0008F739927892B79F781E00E94CC04811197
:102EF000EACF81E00E94CC048823B1F3E4CF81E0E3
:102F00000E944D0281E00E943A0281E00E94CC04BE
:102F10008823D9F36FEF81E00E9431048093EE059E
:102F20006FEF81E00E9431048093EF0581E00E9401
:102F30004D0281E00E94CC048130D9F38091ED07ED
:102F40009091EE07A091EF07B091F00721E031E0FA
:102F50003A8329832CE030E03C832B8328E83EE051
:102F60003E832D8320EA30E038872F839A87898734
:102F7000BC87AB8784E090E09E878D87188A1F8688
:102F80001A8A198A65EB74E0CE0143960E94840682
:102F90004C01801A910A81E00E943A02682D81E07A
:102FA0000E946602692D81E00E94660281149104EC
:102FB00001F15801E12CF12C0CC0F50161915F0188
:102FC00081E00E946602FFEFEF1AFF0A8E149F0451
:102FD00081F0C7018F739927892B79F781E00E94CF
:102FE000CC048111EACF81E00E94CC048823B1F3A4
:102FF000E4CF81E00E944D0281E00E943A0281E02C
:103000000E94CC048823D9F36FEF81E00E94310441
:103010008093EE056FEF81E00E9431048093EF050D
:1030200081E00E944D0281E00E94CC048130D9F3FE
:1030300080E093E09A83898385E090E09C838B8392
:1030400081E00E943A0264E081E00E94660260E052
:1030500081E00E9466025801EE24E394F12C0FC037
:10306000F501608181E00E946602F4E0EF16F10450
:10307000A9F02FEFE21AF20A3FEFA31AB30A81E098
:10308000E816F10469F781E00E94CC048823D9F3A3
:10309000F501608181E00E946602EBCF81E00E9431
:1030A0004D0281E00E943A0281E00E94CC04882314
:1030B000D9F36FEF81E00E9431048093EE056FEF4A
:1030C00081E00E9431048093EF0581E00E944D026F
:1030D00081E00E94CC048130D9F38091E70781110F
:1030E0000C94A32089E890E027E83FED42E551E009
:1030F0005A8349833C832B839E838D8381E00E9486
:103100003A0266E081E00E94660260E081E00E948F
:1031100066025801EE24E394F12C0FC0F5016081A2
:1031200081E00E946602F6E0EF16F104A9F02FEFAD
:10313000E21AF20A3FEFA31AB30A81E0E816F1049B
:1031400069F781E00E94CC048823D9F3F5016081FE
:1031500081E00E946602EBCF81E00E944D0281E097
:103160000E943A0281E00E94CC048823D9F36FEFD9
:1031700081E00E9431048093EE056FEF81E00E94B0
:1031800031048093EF0581E00E944D0281E00E94AE
:10319000CC048130D9F380E591E09A83898380E77C
:1031A0009CE09C838B8388EB93E09E838D8388EFE8
:1031B00094E098878F8388E792E09A87898781E0F7
:1031C0000E943A026AE081E00E94660260E081E0CB
:1031D0000E9466025801EE24E394F12C0FC0F50121
:1031E000608181E00E946602FAE0EF16F104A9F026
:1031F0002FEFE21AF20A3FEFA31AB30A81E0E816B2
:10320000F10469F781E00E94CC048823D9F3F50129
:10321000608181E00E946602EBCF81E00E944D0256
:1032200081E00E943A0281E00E94CC048823D9F315
:103230006FEF81E00E9431048093EE056FEF81E033
:103240000E9431048093EF0581E00E944D0281E0ED
:103250000E94CC048130D9F38091ED079091EE0764
:10326000A091EF07B091F00721E031E03A83298384
:103270002DE030E03C832B8320E83CE03E832D832F
:1032800020EC33E038872F839A878987BC87AB8708
:1032900084E090E09E878D87188A1F861A8A198A93
:1032A00068E974E0CE0143960E9484064C01801ABE
:1032B000910A81E00E943A02682D81E00E94660234
:1032C000692D81E00E9466028114910401F1580188
:1032D000E12CF12C0CC0F50161915F0181E00E94AD
:1032E0006602FFEFEF1AFF0A8E149F0481F0C701F8
:1032F0008F739927892B79F781E00E94CC04811183
:10330000EACF81E00E94CC048823B1F3E4CF81E0CE
:103310000E944D0281E00E943A0281E00E94CC04AA
:103320008823D9F36FEF81E00E9431048093EE058A
:103330006FEF81E00E9431048093EF0581E00E94ED
:103340004D0281E00E94CC048130D9F380E093E00B
:103350009A83898383E090E09C838B8381E00E9441
:103360003A0264E081E00E94660260E081E00E942F
:1033700066025801EE24E394F12C0FC0F501608140
:1033800081E00E946602F4E0EF16F104A9F02FEF4D
:10339000E21AF20A3FEFA31AB30A81E0E816F10439
:1033A00069F781E00E94CC048823D9F3F50160819C
:1033B00081E00E946602EBCF81E00E944D0281E035
:1033C0000E943A0281E00E94CC048823D9F36FEF77
:1033D00081E00E9431048093EE056FEF81E00E944E
:1033E00031048093EF0581E00E944D0281E00E944C
:1033F000CC048130D9F38091E50781119FC68FEF0E
:1034000090E02FEF3FEF42E551E05A8349833C8340
:103410002B839E838D8381E00E943A0266E081E0E7
:103420000E94660260E081E00E9466025801EE247C
:10343000E394F12C0FC0F501608181E00E946602E7
:10344000F6E0EF16F104A9F02FEFE21AF20A3FEFCF
:10345000A31AB30A81E0E816F10469F781E00E943B
:10346000CC048823D9F3F501608181E00E946602D3
:10347000EBCF81E00E944D0281E00E943A0281E0A0
:103480000E94CC048823D9F36FEF81E00E943104BD
:103490008093EE056FEF81E00E9431048093EF0589
:1034A00081E00E944D0281E00E94CC048130D9F37A
:1034B00080E591E09A83898380E797E09C838B8302
:1034C00088E391E09E838D8388EF94E098878F83D3
:1034D00088E792E09A87898781E00E943A026AE051
:1034E00081E00E94660260E081E00E94660258016D
:1034F000EE24E394F12C0FC0F501608181E00E947D
:103500006602FAE0EF16F104A9F02FEFE21AF20AD0
:103510003FEFA31AB30A81E0E816F10469F781E0EE
:103520000E94CC048823D9F3F501608181E00E94D8
:103530006602EBCF81E00E944D0281E00E943A02D8
:1035400081E00E94CC048823D9F36FEF81E00E94D0
:1035500031048093EE056FEF81E00E943104809387
:10356000EF0581E00E944D0281E00E94CC04813091
:10357000D9F3E091D507F091D607EE0FFF1FEE0FBC
:10358000FF1F8091D3079091D407E80FF91FEE0F2A
:10359000FF1FED58F84F81818F9380818F9388EBC7
:1035A00094E09F938F93DF92CF920E943C40809152
:1035B000ED079091EE07A091EF07B091F00721E0A1
:1035C00031E03A8329832FE030E03C832B8320ECE9
:1035D00037E03E832D8320E431E038872F839A87BC
:1035E0008987BC87AB8785E090E09E878D87188AA6
:1035F0001F861A8A198AB601CE0143960E94840654
:103600004C01801A910A81E00E943A02682D81E003
:103610000E946602692D81E00E9466020F900F9061
:103620000F900F900F900F908114910401F15801A9
:10363000E12CF12C0CC0F50161915F0181E00E9449
:103640006602FFEFEF1AFF0A8E149F0481F0C70194
:103650008F739927892B79F781E00E94CC0481111F
:10366000EACF81E00E94CC048823B1F3E4CF81E06B
:103670000E944D0281E00E943A0281E00E94CC0447
:103680008823D9F36FEF81E00E9431048093EE0527
:103690006FEF81E00E9431048093EF0581E00E948A
:1036A0004D0281E00E94CC048130D9F38091ED0776
:1036B0009091EE07A091EF07B091F00721E031E083
:1036C0003A8329832CE030E03C832B8320EC38E0E4
:1036D0003E832D8320E831E038872F839A878987BE
:1036E000BC87AB8784E090E09E878D87188A1F8611
:1036F0001A8A198A62EA74E0CE0143960E9484060F
:103700004C01801A910A81E00E943A02682D81E002
:103710000E946602692D81E00E9466028114910474
:1037200001F15801E12CF12C0CC0F50161915F0110
:1037300081E00E946602FFEFEF1AFF0A8E149F04D9
:1037400081F0C7018F739927892B79F781E00E9457
:10375000CC048111EACF81E00E94CC048823B1F32C
:10376000E4CF81E00E944D0281E00E943A0281E0B4
:103770000E94CC048823D9F36FEF81E00E943104CA
:103780008093EE056FEF81E00E9431048093EF0596
:1037900081E00E944D0281E00E94CC048130D9F387
:1037A00080E093E09A83898388E090E09C838B8318
:1037B00081E00E943A0264E081E00E94660260E0DB
:1037C00081E00E9466025801EE24E394F12C0FC0C0
:1037D000F501608181E00E946602F4E0EF16F104D9
:1037E000A9F02FEFE21AF20A3FEFA31AB30A81E021
:1037F000E816F10469F781E00E94CC048823D9F32C
:10380000F501608181E00E946602EBCF81E00E94B9
:103810004D0281E00E943A0281E00E94CC0488239C
:10382000D9F36FEF81E00E9431048093EE056FEFD2
:1038300081E00E9431048093EF0581E00E944D02F7
:1038400081E00E94CC048130D9F38091EA07811194
:1038500070C48FEF90E02FEF3FEF42E551E05A83C5
:1038600049833C832B839E838D8381E00E943A02AF
:1038700066E081E00E94660260E081E00E946602EC
:103880005801EE24E394F12C0FC0F501608181E032
:103890000E946602F6E0EF16F104A9F02FEFE21A9B
:1038A000F20A3FEFA31AB30A81E0E816F10469F7C0
:1038B00081E00E94CC048823D9F3F501608181E086
:1038C0000E946602EBCF81E00E944D0281E00E94DF
:1038D0003A0281E00E94CC048823D9F36FEF81E0A3
:1038E0000E9431048093EE056FEF81E00E94310465
:1038F0008093EF0581E00E944D0281E00E94CC049C
:103900008130D9F380E591E09A83898380E797E05D
:103910009C838B8388EB93E09E838D8388EF94E078
:1039200098878F8388E792E09A87898781E00E9451
:103930003A026AE081E00E94660260E081E00E9453
:1039400066025801EE24E394F12C0FC0F50160816A
:1039500081E00E946602FAE0EF16F104A9F02FEF71
:10396000E21AF20A3FEFA31AB30A81E0E816F10463
:1039700069F781E00E94CC048823D9F3F5016081C6
:1039800081E00E946602EBCF81E00E944D0281E05F
:103990000E943A0281E00E94CC048823D9F36FEFA1
:1039A00081E00E9431048093EE056FEF81E00E9478
:1039B00031048093EF0581E00E944D0281E00E9476
:1039C000CC048130D9F36091D3077091D407072ECE
:1039D000000C880B990B0E946C3B9B01AC0160E0D2
:1039E00070E080E090E40E948E3C9F938F937F93E1
:1039F0006F9388EA94E09F938F93DF92CF920E9417
:103A00003C408091ED079091EE07A091EF07B091B7
:103A1000F00721E031E03A83298320E130E03C8364
:103A20002B8320E837E03E832D8320EC33E038877A
:103A30002F839A878987BC87AB8784E090E09E8735
:103A40008D87188A1F861A8A198AB601CE01439675
:103A50000E9484064C01801A910A81E00E943A0279
:103A6000682D81E00E946602692D81E00E94660255
:103A70000FB6F894DEBF0FBECDBF8114910401F1E3
:103A80005801E12CF12C0CC0F50161915F0181E03E
:103A90000E946602FFEFEF1AFF0A8E149F0481F066
:103AA000C7018F739927892B79F781E00E94CC0495
:103AB0008111EACF81E00E94CC048823B1F3E4CFE6
:103AC00081E00E944D0281E00E943A0281E00E9462
:103AD000CC048823D9F36FEF81E00E9431048093F6
:103AE000EE056FEF81E00E9431048093EF0581E0E5
:103AF0000E944D0281E00E94CC048130D9F3609194
:103B0000D3077091D407072E000C880B990B0E94E5
:103B10006C3B9B01AC0160E070E080E090E40E94AF
:103B20008E3C9B01AC01609110027091110280915A
:103B30001202909113020E94C23A9F938F937F9337
:103B40006F938FEA94E09F938F93DF92CF920E94BE
:103B50003C408091ED079091EE07A091EF07B09166
:103B6000F00721E031E03A8329832BE030E03C8309
:103B70002B8328E839E03E832D8320EB34E038871F
:103B80002F839A878987BC87AB8785E090E09E87E3
:103B90008D87188A1F861A8A198AB601CE01439624
:103BA0000E9484064C01801A910A81E00E943A0228
:103BB000682D81E00E946602692D81E00E94660204
:103BC0000FB6F894DEBF0FBECDBF8114910401F192
:103BD0005801E12CF12C0CC0F50161915F0181E0ED
:103BE0000E946602FFEFEF1AFF0A8E149F0481F015
:103BF000C7018F739927892B79F781E00E94CC0444
:103C00008111EACF81E00E94CC048823B1F3E4CF94
:103C100081E00E944D0281E00E943A0281E00E9410
:103C2000CC048823D9F36FEF81E00E9431048093A4
:103C3000EE056FEF81E00E9431048093EF0581E093
:103C40000E944D0281E00E94CC048130D9F3809122
:103C5000ED079091EE07A091EF07B091F00721E0FA
:103C600031E03A8329832AE030E03C832B8328E843
:103C700039E03E832D8320E734E038872F839A870D
:103C80008987BC87AB8783E090E09E878D87188A01
:103C90001F861A8A198A64EB74E0CE0143960E944B
:103CA00084064C01801A910A81E00E943A02682D34
:103CB00081E00E946602692D81E00E946602811403
:103CC000910401F15801E12CF12C0CC0F501619136
:103CD0005F0181E00E946602FFEFEF1AFF0A8E1477
:103CE0009F0481F0C7018F739927892B79F781E0B1
:103CF0000E94CC048111EACF81E00E94CC04882389
:103D0000B1F3E4CF81E00E944D0281E00E943A02CB
:103D100081E00E94CC048823D9F36FEF81E00E94F8
:103D200031048093EE056FEF81E00E9431048093AF
:103D3000EF0581E00E944D0281E00E94CC048130B9
:103D4000D9F380E093E09A83898389E090E09C83B3
:103D50008B8381E00E943A0264E081E00E94660267
:103D600060E081E00E9466025801EE24E394F12CA9
:103D70000FC0F501608181E00E946602F4E0EF1659
:103D8000F104A9F02FEFE21AF20A3FEFA31AB30AE7
:103D900081E0E816F10469F781E00E94CC048823F1
:103DA000D9F3F501608181E00E946602EBCF81E0EA
:103DB0000E944D0281E00E943A0281E00E94CC0400
:103DC0008823D9F36FEF81E00E9431048093EE05E0
:103DD0006FEF81E00E9431048093EF0581E00E9443
:103DE0004D0281E00E94CC048130D9F38091EB0731
:103DF00081119AC18FEF90E02FEF3FEF42E551E044
:103E00005A8349833C832B839E838D8381E00E9468
:103E10003A0266E081E00E94660260E081E00E9472
:103E200066025801EE24E394F12C0FC0F501608185
:103E300081E00E946602F6E0EF16F104A9F02FEF90
:103E4000E21AF20A3FEFA31AB30A81E0E816F1047E
:103E500069F781E00E94CC048823D9F3F5016081E1
:103E600081E00E946602EBCF81E00E944D0281E07A
:103E70000E943A0281E00E94CC048823D9F36FEFBC
:103E800081E00E9431048093EE056FEF81E00E9493
:103E900031048093EF0581E00E944D0281E00E9491
:103EA000CC048130D9F380E591E09A83898380E75F
:103EB00092E09C838B8388E792E09E838D8388EFDA
:103EC00094E098878F839A87898781E00E943A02DD
:103ED0006AE081E00E94660260E081E00E94660282
:103EE0005801EE24E394F12C0FC0F501608181E0CC
:103EF0000E946602FAE0EF16F104A9F02FEFE21A31
:103F0000F20A3FEFA31AB30A81E0E816F10469F759
:103F100081E00E94CC048823D9F3F501608181E01F
:103F20000E946602EBCF81E00E944D0281E00E9478
:103F30003A0281E00E94CC048823D9F36FEF81E03C
:103F40000E9431048093EE056FEF81E00E943104FE
:103F50008093EF0581E00E944D0281E00E94CC0435
:103F60008130D9F38091D5079091D60701969F9320
:103F70008F9387EB94E09F938F93DF92CF920E9471
:103F80003C408091ED079091EE07A091EF07B09132
:103F9000F00721E031E03A83298320E130E03C83DF
:103FA0002B8320E832E03E832D8338872F839A8746
:103FB0008987BC87AB8784E090E09E878D87188ACD
:103FC0001F861A8A198AB601CE0143960E9484067A
:103FD0004C01801A910A81E00E943A02682D81E02A
:103FE0000E946602692D81E00E9466020F900F9088
:103FF0000F900F900F900F908114910401F15801D0
:10400000E12CF12C0CC0F50161915F0181E00E946F
:104010006602FFEFEF1AFF0A8E149F0481F0C701BA
:104020008F739927892B79F781E00E94CC04811145
:10403000EACF81E00E94CC048823B1F3E4CF81E091
:104040000E944D0281E00E943A0281E00E94CC046D
:104050008823D9F36FEF81E00E9431048093EE054D
:104060006FEF81E00E9431048093EF0581E00E94B0
:104070004D0281E00E94CC048130D9F38091CF08B9
:10408000882309F472C081E00E943A0262E081E074
:104090000E94660260E081E00E94660281E00E9468
:1040A000CC048823D9F361E881E00E94660261E0D4
:1040B00081E00E94660281E00E944D0281E00E9440
:1040C0003A0281E00E94CC048823D9F36FEF81E0AB
:1040D0000E9431048093EE056FEF81E00E9431046D
:1040E0008093EF0581E00E944D0281E00E94CC04A4
:1040F0008130D9F3C25BDE4F0FB6F894DEBF0FBE3E
:10410000CDBFDF91CF911F910F91FF90EF90DF9086
:10411000CF90BF90AF909F908F907F906F905F9067
:104120004F903F902F9008958DEA90E026EE38ED65
:1041300065CE8DEA90E026EE38ED8FCB8DEA90E0EB
:1041400026EE38ED60C98DEA90E026EE38ED0C944D
:1041500076188DEA90E026EE38ED0C946B158DEA1A
:1041600090E026EE38ED0C94891180E093E09A837C
:10417000898384E090E09C838B8381E00E943A02F3
:1041800064E081E00E94660260E081E00E946602D5
:104190005801EE24E394F12C0FC0F501608181E019
:1041A0000E946602F4E0EF16F104A9F02FEFE21A84
:1041B000F20A3FEFA31AB30A81E0E816F10469F7A7
:1041C00081E00E94CC048823D9F3F501608181E06D
:1041D0000E946602EBCF81E00E944D0281E00E94C6
:1041E0003A0281E00E94CC048823D9F36FEF81E08A
:1041F0000E9431048093EE056FEF81E00E9431044C
:104200008093EF0581E00E944D0281E00E94CC0482
:104210008130D9F3E091D507F091D607E151F94FFC
:104220008081811143C18FEF90E026E636E642E5BA
:1042300051E05A8349833C832B839E838D8381E0A5
:104240000E943A0266E081E00E94660260E081E03E
:104250000E9466025801EE24E394F12C0FC0F50190
:10426000608181E00E946602F6E0EF16F104A9F099
:104270002FEFE21AF20A3FEFA31AB30A81E0E81621
:10428000F10469F781E00E94CC048823D9F3F50199
:10429000608181E00E946602EBCF81E00E944D02C6
:1042A00081E00E943A0281E00E94CC048823D9F385
:1042B0006FEF81E00E9431048093EE056FEF81E0A3
:1042C0000E9431048093EF0581E00E944D0281E05D
:1042D0000E94CC048130D9F380E591E09A838983F0
:1042E00080E792E09C838B8388E797E09E838D83B1
:1042F00088EF94E098878F839A87898781E00E946E
:104300003A026AE081E00E94660260E081E00E9479
:1043100066025801EE24E394F12C0FC0F501608190
:1043200081E00E946602FAE0EF16F104A9F02FEF97
:10433000E21AF20A3FEFA31AB30A81E0E816F10489
:1043400069F781E00E94CC048823D9F3F5016081EC
:1043500081E00E946602EBCF81E00E944D0281E085
:104360000E943A0281E00E94CC048823D9F36FEFC7
:1043700081E00E9431048093EE056FEF81E00E949E
:1043800031048093EF0581E00E944D0281E00E949C
:10439000CC048130D9F38091CD0881118FC0E09198
:1043A000D507F091D607E151F94F8081811183C083
:1043B00062E874E0C6010E94413F8091ED07909150
:1043C000EE07A091EF07B091F00721E031E03A83CA
:1043D00029832FE030E03C832B8320E832E03E83CA
:1043E0002D8320E837E038872F839A878987BC8719
:1043F000AB8784E090E09E878D87188A1F861A8A93
:10440000198AB601CE0143960E9484066C01C01A37
:10441000D10A81E00E943A026C2D81E00E9466027E
:104420006D2D81E00E946602C114D104F9F0E12CE7
:10443000F12C0CC0F80161918F0181E00E946602AD
:10444000FFEFEF1AFF0ACE14DF0481F097012F73FC
:104450003327232B79F781E00E94CC048111EACF26
:1044600081E00E94CC048823B1F3E4CF81E00E9474
:104470004D0281E00E943A0281E00E94CC04882330
:10448000D9F36FEF81E00E9431048093EE056FEF66
:1044900081E00E9431048093EF0581E00E944D028B
:1044A00081E00E94CC048130D9F3EDCD89E890E021
:1044B00027E83FEDBCCE6FE774E07CCF86E0EBEB06
:1044C000F4E0D60101900D928A95E1F776CF0F9333
:1044D0001F93CF93DF9381E00E943A0262E081E074
:1044E0000E94660260E081E00E94660281E00E9414
:1044F000CC048823D9F362E081E00E94660263E085
:1045000081E00E94660281E00E944D0281E00E94EB
:104510003A020EEE15E0C1E0D0E00CC06FEF81E092
:104520000E943104F8018083CA30D10591F02196B0
:104530000F5F1F4FC130D10589F781E00E94CC0485
:104540008823D9F36FEF81E00E943104F801808362
:10455000EECF81E00E944D0281E00E94CC048130C8
:10456000D9F38091F10590E0982F88272091F005EC
:10457000822B9093E1078093E0078091F30590E010
:10458000982F88272091F205822B9093DF07809344
:10459000DE078091F50590E0982F88272091F4059B
:1045A000822B9093DD078093DC072091F70530E0A4
:1045B000322F22274091F605242B3093D9072093E0
:1045C000D8078130910559F01092D7079093DB07F7
:1045D0008093DA07DF91CF911F910F910895209179
:1045E000DA073091DB07232B79F72091D7072111C8
:1045F000EBCF21E02093D707E9CF2091DC07309162
:10460000DD072130310519F0FC0110820895209159
:10461000DA073091DB07232BB9F7FC012081211148
:10462000F3CF21E020830895149828E130E088EF4B
:1046300090E0A0E0B0E009C0169A159AB695A7954B
:10464000979587952150310929F0159880FDF4CF71
:104650001698F3CF149A08951F93CF93DF93989AE7
:10466000A09AE1E0F1E080818B7F8083E2E0F1E0DD
:1046700080818B7F8083999AA1989B9AA398579A5F
:104680005F9A8FEF81B980EF809304018FE087B943
:1046900081E982B9C0EDD8E0188219821A821B82A2
:1046A00011E0109328020E94DC0C0E94CF080E94A7
:1046B000BF06188219821A821B82109328022FEFDC
:1046C00041EE54E0215040405040E1F700C000006E
:1046D00018B80E941423E091D507F091D60728B1AD
:1046E000C3E0D0E0CF01BE010E94113AAF01481BE8
:1046F000590BCA01BE010E94113A81E090E001C04D
:10470000880F6A95EAF780952F60282328B95FEF14
:1047100083E294EF515080409040E1F700C00000E8
:10472000DF91CF911F9108950F931F93CF93DF9344
:10473000E091D507F091D60703E010E0CF01B80172
:104740000E94113AEC0128B1CF018C1B9D0BB801DE
:104750000E94113A41E050E001C0440F6A95EAF727
:1047600040952F60242328B9E091D507F091D60712
:10477000EE0FFF1FE550F94F208131813063CC0FE0
:10478000C9019C2B149820E130E007C01698159AB7
:10479000880F991F2150310951F0159897FFF6CFD6
:1047A000169A159A880F991F21503109B1F716985A
:1047B00088E090E01598159A0197E1F7149ADF9137
:1047C000CF911F910F9108952F923F924F925F9238
:1047D0006F927F928F929F92AF92BF92CF92DF9211
:1047E000EF92FF920F931F93CF93DF9393B103B197
:1047F00080912802882309F459C0E2EEF7E0C0E076
:10480000D0E08191811104C02196CA30D105C9F749
:1048100096FB112710F98091F00881115AC0809100
:10482000EF0805FB002700F98111BFC08091EE0859
:10483000882389F08091BC08873008F006C18F5F1B
:104840008093BC08873009F400C1002321F0109246
:10485000EE081092BC088091ED08882389F08091C1
:10486000BB08873008F041C18F5F8093BB08873059
:1048700009F43BC1112321F01092ED081092BB08FE
:104880008091EB089091F108891741F02091E90897
:104890003091EA08C217D30709F487C11092EB08D8
:1048A0001092F108D093EA08C093E908DF91CF9104
:1048B0001F910F91FF90EF90DF90CF90BF90AF903E
:1048C0009F908F907F906F905F904F903F902F9030
:1048D00008958091EF088823C1F0C130D1050CF410
:1048E00053C1C430D10524F02897229708F04CC159
:1048F0001092EE081092BC081092ED081092BB08BE
:104900001092F0081092EF08D1CF8091EE0881113B
:1049100033C191E09093ED08111133C1C330D1053B
:1049200009F480C20CF4D8C5C830D10509F45BC6BF
:10493000C930D105B1F55F988FE19EE40197F1F799
:1049400000C00000E090D507F090D60791E0E91A8A
:10495000F108B7010F2C000C880B990B0E946C3BDF
:104960004B015C01C0901902D0901A02B60180E0A0
:1049700090E00E946A3B9B01AC01C501B4010E941A
:104980001C3C18160CF479C620E030E0A901C501E2
:10499000B4010E94BD3A87FD7601F092D607E092FD
:1049A000D5075F9A8091EF08ECC09091ED089111C6
:1049B00093C091E09093EE08011194C0C330D105EB
:1049C00009F494C20CF443C5C830D10509F4C9C533
:1049D000C930D105B1F55F988FE19EE40197F1F7F9
:1049E00000C00000E090D507F090D6079FEFE91ACD
:1049F000F90AB7010F2C000C880B990B0E946C3B35
:104A00004B015C01C0901902D0901A02B60180E0FF
:104A100090E00E946A3B9B01AC01C501B4010E9479
:104A20001C3C18160CF420C620E030E0A901C5019A
:104A3000B4010E94BD3A87FD7601F092D607E0925C
:104A4000D5075F9A8091EE084DC0C330D10509F4B7
:104A500044C30CF4AFC2C830D10509F471C1C930E8
:104A6000D105B1F55F988FE19EE40197F1F700C0A1
:104A70000000E090D507F090D60792E0E90EF11C17
:104A8000B7010F2C000C880B990B0E946C3B4B015B
:104A90005C01C0901902D0901A02B60180E090E04B
:104AA0000E946A3B9B01AC01C501B4010E941C3C01
:104AB00018160CF495C520E030E0A901C501B40139
:104AC0000E94BD3A87FD7601F092D607E092D507A5
:104AD0005F9A1092BC08B9CE1092ED081092BB08F4
:104AE0008091EE081092EF08A3CEC330D10509F4EF
:104AF00058C30CF4A4C2C830D10509F45AC1C93056
:104B0000D105B1F55F988FE19EE40197F1F700C000
:104B10000000E090D507F090D60792E0E91AF1087E
:104B2000B7010F2C000C880B990B0E946C3B4B01BA
:104B30005C01C0901902D0901A02B60180E090E0AA
:104B40000E946A3B9B01AC01C501B4010E941C3C60
:104B500018160CF442C520E030E0A901C501B401EB
:104B60000E94BD3A87FD7601F092D607E092D50704
:104B70005F9A1092BB087ECE1092EE081092BC088D
:104B800080E01092F0084DCE84E08093CD085F98CD
:104B90002FEF3DEE82E0215030408040E1F700C031
:104BA00000005F9A0E94A307A3CE192F181BC330E1
:104BB000D10509F46BC30CF45EC0C830D10509F40B
:104BC000F2C3C930D10509F04EC087E61802812D25
:104BD00011248595859517FD8395182F81116EC534
:104BE0006091D5077091D607072E000C880B990BA2
:104BF0000E946C3B6B017C01612F012E000C770B36
:104C0000880B990B0E946C3B20E030E048E453E4B1
:104C10000E94C23A9B01AC01C701B6010E94513A01
:104C20006B017C01A0901902B0901A02B50180E0DE
:104C300090E00E946A3B9B01AC01C701B6010E9453
:104C40001C3C18160CF40DC520E030E0A901C7018A
:104C5000B6010E94BD3A87FF3CC52A2D8B2D2093BB
:104C6000D5078093D607112321F01092EB081092FC
:104C7000F1085F9A17CEC130D105A9F787E618026F
:104C8000812D11248595859517FD8395182F811108
:104C9000FDC4E090D507F090D607EE0CFF1CF7019D
:104CA000E550F94F60817181072E000C880B990B3C
:104CB0000E946C3B4B015C01612F012E000C770BB5
:104CC000880B990B0E946C3B20E030E048E453E4F1
:104CD0000E94C23A9B01AC01C501B4010E94513A45
:104CE000B62EC72ED82E092F70901F02809020025A
:104CF00090902102A0902202272D382D492D5A2D67
:104D00000E941C3C18161CF4B72C64010A2D20E0EC
:104D100030E0A9016B2D7C2D8D2D902F0E94BD3A86
:104D200087FDD4C46B2D7C2D8D2D902F0E94343B9C
:104D3000F701E550F94F718360830E94942393CF6C
:104D40005F98EFE1FEE43197F1F700C00000E090DA
:104D5000D307F090D407FFEFEF1AFF0AB7010F2C2B
:104D6000000C880B990B0E946C3B4B015C01C090BE
:104D70001702D0901802B6010D2C000C880B990B6D
:104D80000E946C3B9B01AC01C501B4010E941C3C1C
:104D900018160CF460C420E030E0A901C501B4018C
:104DA0000E94BD3A87FF6701D092D407C092D30713
:104DB0008FCE5F98EFE1FEE43197F1F700C000007D
:104DC000E090D307F090D407F1E0EF1AF108B701B3
:104DD0000F2C000C880B990B0E946C3B4B015C0163
:104DE000C0901702D0901802B6010D2C000C880B51
:104DF000990B0E946C3B9B01AC01C501B4010E9460
:104E00001C3C18160CF4E6C320E030E0A901C501F3
:104E1000B4010E94BD3A87FF6701D092D407C092C7
:104E2000D307A6CE5F988FE19EE40197F1F700C00B
:104E300000008090D5079090D607E090D307F090BF
:104E4000D407880C991C880C991CF401EE0DFF1DE9
:104E5000EE0FFF1FED58F84F6081718161507109AD
:104E6000072E000C880B990B0E946C3B3B015C01E8
:104E7000C0901502D0901602B6010D2C000C880BC4
:104E8000990B0E946C3B1B012C019B01AC01B301EF
:104E9000C5010E941C3C181614F43101520166270A
:104EA00077276C197D09072E000C880B990B0E943F
:104EB0006C3B2B016C019B01AC01B301C5010E944D
:104EC000BD3A87FF02C032015601E80CF91CC70148
:104ED000880F991FFC01ED58F84F7F01B301C50100
:104EE0000E94343BF701718360835BCD5F98EFE1F3
:104EF000FEE43197F1F700C000008090D507909054
:104F0000D607E090D307F090D407880C991C880C42
:104F1000991CF401EE0DFF1DEE0FFF1FED58F84F29
:104F2000608171816F5F7F4F072E000C880B990B9A
:104F30000E946C3B3B015C01C0901502D0901602B0
:104F4000B6010D2C000C880B990B0E946C3B1B01C9
:104F50002C019B01AC01B301C5010E941C3C181639
:104F600014F431015201662777276C197D09072E49
:104F7000000C880B990B0E946C3B2B016C019B0170
:104F8000AC01B301C5010E94BD3A87FF02C03201E6
:104F90005601E80CF91CC701880F991F9C012D5878
:104FA000384F7901B301C5010E94343BF701718389
:104FB000608347CDC130D10509F08ACD5F988FE17C
:104FC0009EE40197F1F700C00000E090D507F09053
:104FD000D607EE0CFF1CF701E550F94F6081718197
:104FE0006C5E7F4F072E000C880B990B0E946C3B68
:104FF0005B016C0160901F02709020028090210282
:10500000909022029301A4010E941C3C181614F4F3
:105010005301640120E030E0A901B501C6010E94FE
:10502000BD3A87FD27C3B501C6010E94343BF70195
:10503000E550F94F718360830E94942349CDC130BC
:10504000D10509F095CD5F988FE19EE40197F1F7C6
:1050500000C00000E090D507F090D607EE0CFF1CD2
:10506000F701E550F94F6081718164517109072E94
:10507000000C880B990B0E946C3BB62EC72ED82EC5
:10508000092F70901F028090200290902102A09022
:105090002202272D382D492D5A2D0E941C3C18160E
:1050A0001CF4B72C64010A2D20E030E0A9016B2D1F
:1050B0007C2D8D2D902F0E94BD3A87FDE4C26B2D73
:1050C0007C2D8D2D902F0E94343BF701E550F94F38
:1050D000718360830E9494234BCD5F98EFE1FEE4DF
:1050E0003197F1F700C000008090D5079090D60767
:1050F000E090D307F090D407880C991C880C991C79
:10510000F401EE0DFF1DEE0FFF1FED58F84F60810B
:105110007181665F7F4F072E000C880B990B0E94F0
:105120006C3B3B015C01C0901502D0901602B601A9
:105130000D2C000C880B990B0E946C3B1B012C0161
:105140009B01AC01B301C5010E941C3C181614F46C
:1051500031015201662777276C197D09072E000C53
:10516000880B990B0E946C3B2B016C019B01AC01DD
:10517000B301C5010E94BD3A87FF02C0320156014A
:10518000E80CF91CC701880F991F9C012D58384F56
:105190007901B301C5010E94343BF701718360833B
:1051A00097CC5F98EFE1FEE43197F1F700C0000083
:1051B0008090D5079090D607E090D307F090D40761
:1051C000880C991C880C991CF401EE0DFF1DEE0F44
:1051D000FF1FED58F84F608171816A507109072EE9
:1051E000000C880B990B0E946C3B762EA72EB82ED4
:1051F000092FC0901502D0901602B6010D2C000C9C
:10520000880B990B0E946C3B362E472E582E692E28
:10521000262F372F482F592F672D7A2D8B2D902F22
:105220000E941C3C18161CF4732C5201062D662794
:1052300077276C197D09072E000C880B990B0E94AB
:105240006C3B562E672E6C01262F372FAC01672D35
:105250007A2D8B2D902F0E94BD3A87FF04C0752CAC
:10526000A62CBC2C0D2DE80CF91CC701880F991F2A
:105270009C012D58384F7901672D7A2D8B2D902F59
:105280000E94343BF7017183608372CC87E6180279
:10529000812D11248595859517FD8395182F8111F2
:1052A000FDC18090D5079090D607E090D307F0908D
:1052B000D407880C991C880C991CF401EE0DFF1D75
:1052C000EE0FFF1FED58F84F60817181072E000C23
:1052D000880B990B0E946C3B2B013C01612F012E26
:1052E000000C770B880B990B0E946C3B20E030E0A0
:1052F00048E453E40E94C23A9B01AC01C301B201ED
:105300000E94513A762EA72EB82E092FC090150272
:10531000D0901602B6010D2C000C880B990B0E9440
:105320006C3B362E472E582E692E262F372F482FAE
:10533000592F672D7A2D8B2D902F0E941C3C18160B
:105340001CF4732C5201062D662777276C197D09F2
:10535000072E000C880B990B0E946C3B562E672E73
:105360006C01262F372FAC01672D7A2D8B2D902FB6
:105370000E94BD3A87FF04C0752CA62CBC2C0D2DB5
:10538000E80CF91CC701880F991F9C012D58384F54
:105390007901672D7A2D8B2D902F0E94343BF701D8
:1053A0007183608360CC87E61802812D1124859576
:1053B000859517FD8395182F811178C16091D307CA
:1053C0007091D407072E000C880B990B0E946C3B40
:1053D0006B017C01612F012E000C770B880B990B60
:1053E0000E946C3B20E030E048E453E40E94C23A63
:1053F0009B01AC01C701B6010E94513A4B015C010F
:10540000E0901702F0901802B7010F2C000C880BE7
:10541000990B0E946C3B9B01AC01C501B4010E9439
:105420001C3C18160CF41AC120E030E0A901C5019B
:10543000B4010E94BD3A87FD05C0C501B4010E94B8
:10544000343B7B01F092D407E092D3070CCCC130FF
:10545000D10509F0F6CA5F988FE19EE40197F1F754
:1054600000C00000E090D507F090D607EE0CFF1CBE
:10547000F701E550F94F608171816F5F7F4F072E13
:10548000000C880B990B0E946C3B5B016C016090D7
:105490001F027090200280902102909022029301BE
:1054A000A4010E941C3C181614F45301640120E06E
:1054B00030E0A901B501C6010E94BD3A87FD13C1C4
:1054C000B501C6010E94343BF701E550F94F7183E5
:1054D00060830E949423B5CAC130D10509F061CA26
:1054E0005F98EFE1FEE43197F1F700C00000E09033
:1054F000D507F090D607EE0CFF1CF701E550F94FE9
:105500006081718161507109072E000C880B990B25
:105510000E946C3B5B016C0160901F027090200246
:1055200080902102909022029301A4010E941C3CD1
:10553000181614F45301640120E030E0A901B5010C
:10554000C6010E94BD3A87FDCBC0B501C6010E94CD
:10555000343BF701E550F94F718360830E94942337
:1055600020CA5F98EFE1FEE43197F1F700C0000038
:10557000E090D307F090D407FFEFEF1AFF0AB701CE
:105580000F2C000C880B990B0E946C3B4B015C01AB
:10559000C0901702D0901802B6010D2C000C880B99
:1055A000990B0E946C3B9B01AC01C501B4010E94A8
:1055B0001C3C18160CF464C020E030E0A901C501C1
:1055C000B4010E94BD3A87FF6701D092D407C09210
:1055D000D30737CAC12CD12C20CCE12CF12CC4CA62
:1055E000E12CF12C71CA5F98EFE1FEE43197F1F7FD
:1055F00000C00000E090D307F090D407F1E0EF1A6C
:10560000F108B7010F2C000C880B990B0E946C3B22
:105610004B015C01C0901702D0901802B6010D2C0E
:10562000000C880B990B0E946C3B9B01AC01C501DF
:10563000B4010E941C3C1816D4F020E030E0A9010F
:10564000C501B4010E94BD3A87FF6701D092D4071B
:10565000C092D307A6C9C12CD12CA6CBE12CF12C2A
:10566000F1CE20E080E0FBCAE12CF12CE6C9C12C90
:10567000D12CECCF60E070E0DACCE12CF12C8DC9BC
:10568000C12CD12CA2CF60E070E01FCD5F988FE9D4
:105690009FE00197F1F700C00000FBCA5F98EFE9B7
:1056A000FFE03197F1F700C00000FBCD5F98EFE914
:1056B000FFE03197F1F700C0000080CE5F988FE9DE
:1056C0009FE00197F1F700C000008ACA60E070E037
:1056D0002FCBC701B6010E94343B262F872FBFCAAC
:1056E00060E070E036CF60E070E0EECECF93DF9305
:1056F000FC0128B1C3E0D0E0BE010E94113AAF0125
:10570000481B590BCA01BE010E94113A81E090E08A
:1057100001C0880F6A95EAF780952F60282328B981
:10572000DF91CF910895EF92FF920F931F93CF9344
:10573000DF93FC01262F8A011098109A33E0E32EA4
:10574000F12CB7010E94113AEC0138B1CF018C1B4A
:105750009D0BB7010E94113AA1E0B0E0CD0102C05B
:10576000880F991F6A95E2F7BC0160953F60362368
:1057700038B9C130D10509F457C0C230D10509F498
:105780004EC0CD2B09F446C080E090E0BC016150D2
:105790007109A801082E02C0440F551F0A94E2F7B0
:1057A00030E002C0220F331F6A95E2F7422B532BE1
:1057B000476C5861E151F94F2081222371F0029723
:1057C00021E030E0B90102C0660F771F8A95E2F749
:1057D000CB01809590954823592380E190E006C045
:1057E000139A119A56954795019749F0119840FDE3
:1057F000F7CF1398119A569547950197B9F7129AD2
:1058000082B1817F82B9DF91CF911F910F91FF907B
:10581000EF9008956DE070E08EE090E0BACF63E025
:1058200070E084E090E0B5CF68E070E089E090E05F
:10583000B0CF3F924F925F926F927F928F929F92E2
:10584000AF92BF92CF92DF92EF92FF920F931F938E
:10585000CF93DF93CDB7DEB728970FB6F894DEBFAE
:105860000FBECDBF409017025090180257FC2AC1BE
:105870002091D5073091D6073A832983C901880F33
:10588000991F880F991F880F991FAC014D58584FC9
:105890003A01DC01AD5EB84F7D0120E030E040E828
:1058A0005FE300E010E0312CA12CB12CF3018191D9
:1058B00091913F0198878F83D7018D919C91CF80E3
:1058C000D884C81AD90AF701C192D1927F01B501D3
:1058D000BB0C880B990B2B833C834D835E830E940A
:1058E0006C3B4B015C016F817885660F771F660FFB
:1058F000771F660F771F072E000C880B990B0E94ED
:105900006C3B2B813C814D815E810E94C23A9B01A0
:10591000AC01C501B4010E94513A0E94343B5B01C5
:10592000CD2811F0332433940F5F1F4F40165106DA
:1059300094F0B801012E000C880B990B0E946C3B6F
:105940009B01AC0160E070E080E090E40E948E3C3E
:105950009B01AC01ABCFF7E0AF22F0E8BF22B7FC70
:1059600097C131103BC18091D3079091D407039721
:1059700001F1A114B104E9F0E981FA81EE0FFF1FF2
:10598000EE0FFF1FEE0FFF1FDF01AD5EB84F169643
:105990008D919C9117978A0D9B1D17969C938E93C2
:1059A0001697ED58F84F868197818A0D9B1D978336
:1059B0008683E981FA81E12CF12C6F01CC0CDD1C8E
:1059C000CC0CDD1C01E010E09924939423E0622EBE
:1059D000712CD601AE0DBF1DAA0FBB1FAD5EB84F17
:1059E0008D919C91181619060CF084C0332009F48F
:1059F00085C09092EE0661E0A701CF010E94932B33
:105A0000E091D507F091D6076F01CC0CDD1CCC0CD2
:105A1000DD1CD601AE0DBF1DAA0FBB1FAD5EB84F7A
:105A20002D913C9137FD9AC0CF01B3010E94113AEC
:105A300004962115310549F1F80102C0EE0FFF1F50
:105A40008A95E2F76E2F9E2F909540E050E080916E
:105A50000501862B80930501AFEDBEE21197F1F7AA
:105A600000C00000809105018923809305014F5FEC
:105A70005F4F4217530759F7E091D507F091D607CA
:105A80006F01CC0CDD1CCC0CDD1CC6018E0D9F1DE6
:105A9000880F991F9C012D5E384F8D58984FDC015F
:105AA0008D919C91D9018D939C93BFEFEB1AFB0ACA
:105AB00080911702909118028E159F050CF089CFE6
:105AC000311050C028960FB6F894DEBF0FBECDBF80
:105AD000DF91CF911F910F91FF90EF90DF90CF90CA
