:100000000C9497010C94B8010C9413070C941307EB
:100010000C9455070C94B8010C9413070C94B80178
:100020000C94B8010C945F070C94B8010C94B801BF
:100030000C94B8010C94B8010C94B8010C94B8015C
:100040000C94B8010C94B8010C94B8010C94B8014C
:100050000C94B8010C94B8010C94B8010C94B8013C
:100060000C94B8010C941D050C94B8010C94B801C3
:100070000C94B8010C94B8010C94B8010C94B8011C
:100080000C94B8010C94B8010C94B8010C94B8010C
:100090000C94B8010C94B8010C94B8010C94B801FC
:1000A0000C94B8010C94B8010C94B8010C94B801EC
:1000B0000C94B8010C94B8010C94B8010C94B801DC
:1000C0000C94B8010C94B8010C94B8010C94B801CC
:1000D0000C94B8010C94B8010C94B8010C94B801BC
:1000E0000C94B801A42BBA2B782BD02BF12B2C2CF1
:1000F0008C2B542C8E2B07634236B79BD8A71A390A
:10010000685618AEBAAB558C1D3CB7CC5763BD6D65
:10011000EDFD753EF6177231BF000000803F08000C
:100120000000BE922449123EABAAAA2ABECDCCCC76
:100130004C3E00000080BEABAAAAAA3E0000000010
:10014000BF000000803F0000000000084178D3BBE2
:100150004387D1133D190E3CC3BD4282AD2B3E688F
:10016000EC8276BED98FE1A93E4C80EFFFBE01C480
:10017000FF7F3F00000000000C942C2C0C94BA2B45
:100180000C94D5040C94782B0C948E2B0C94E504D1
:100190000C94D02B0C94542C0C948C2B0C94A42BDE
:1001A0000C94F12B6E616E00696E660000407A104F
:1001B000F35A00A0724E18090010A5D4E80000E818
:1001C0007648170000E40B54020000CA9A3B000076
:1001D00000E1F505000080969800000040420F0005
:1001E0000000A08601000000102700000000E803C6
:1001F000000000006400000000000A000000000091
:100200000100000000002C76D888DC674F0823DF4F
:10021000C1DFAE59E1B1B796E5E3E453C63AE65122
:10022000997696E8E6C28426EB898C9B62ED407C49
:100230006FFCEFBC9C9F40F2BAA56FA5F490055AE5
:100240002AF75C936B6CF9676DC11BFCE0E40D470A
:10025000FEF520E6B500D0ED902E0300943577052D
:100260000080841E080000204E0A000000C80C33E5
:100270003333330F986E12831141EF8D2114893B74
:10028000E65516CFFEE6DB18D1844B381BF77C1DF4
:10029000901DA4BBE424203284725E228100C9F147
:1002A00024ECA1E53D274E414E494E495459494E53
:1002B00046CDCCCC3D0AD7233C17B7D13877CC2BD1
:1002C000329595E6241FB14F0A000020410000C876
:1002D0004200401C4620BCBE4CCA1B0E5AAEC59DF7
:1002E000746364696E6F70737578585B6566674593
:1002F000464700616E006E66696E69747900CDCC08
:10030000CC3D0AD7233C17B7D13877CC2B32959503
:10031000E6241FB14F0A000020410000C8420040FF
:100320001C4620BCBE4CCA1B0E5AAEC59D7411247F
:100330001FBECFEFD1E2DEBFCDBF00E00CBF14E0A7
:10034000A0E0B2E0E0E8FEE700E00BBF02C00790EB
:100350000D92A837B107D9F728E0A8E7B4E001C0AB
:100360001D92AF39B207E1F70E9469360C943E3F07
:100370000C940000279A08952F9A08952F980895B5
:100380001F9A08950097D9F020E030E02F9A4FE7A8
:100390005AE166E0415050406040E1F700C0000083
:1003A0002F984FE75AE166E0415050406040E1F736
:1003B00000C000002F5F3F4F2817390739F7089515
:1003C000813009F43FC0823009F008958091010125
:1003D000806880930101809102018F7780930201F0
:1003E0002FEF81EE94E0215080409040E1F700C073
:1003F00000008091010188608093010180910201D9
:1004000088608093020180910101806180930101E5
:1004100080910201806180930201809101018062DC
:10042000809301018091020180628093020180919A
:100430000101806480930101809102018F7B809390
:1004400002010895809A889A6F9A779A839A8B9A74
:10045000819A899A82988A986E98769808958130C0
:1004600009F0089577989AE09A95F1F7779A8A9526
:10047000F1F70895813071F0823009F0089580918C
:1004800002018F7E8093020180910201877F809319
:10049000020108958B9888980895813099F08230F0
:1004A00009F0089580910201886080930201809193
:1004B0000201806180930201809102018062809339
:1004C00002010895889A8B9A899A0895962F9078B8
:1004D000813009F4BCC0823009F008958091020196
:1004E000911110C18F7D8093020181E0982F9A9520
:1004F000F1F7909102019061909302018A95F1F7D2
:10050000809102018F7E8093020166FF31C180914C
:10051000020180628093020181E0982F9A95F1F7A1
:10052000909102019061909302018A95F1F7809178
:1005300002018F7E8093020165FF14C18091020148
:1005400080628093020181E0982F9A95F1F7909153
:1005500002019061909302018A95F1F78091020166
:100560008F7E8093020164FFF7C080910201806258
:100570008093020181E0982F9A95F1F79091020102
:100580009061909302018A95F1F7809102018F7E2C
:100590008093020163FFDAC0809102018062809340
:1005A000020181E0982F9A95F1F7909102019061F4
:1005B000909302018A95F1F7809102018F7E8093DA
:1005C000020162FFBDC0809102018062809302013E
:1005D00081E0982F9A95F1F79091020190619093A4
:1005E00002018A95F1F7809102018F7E80930201CA
:1005F00061FFA0C08091020180628093020181E0CE
:10060000982F9A95F1F790910201906190930201D1
:100610008A95F1F7809102018F7E8093020160FF3D
:1006200083C08091020180628093020181E0982F53
:100630009A95F1F7909102019061909302018A9549
:10064000F1F7809102018F7E80930201089591114C
:1006500057C0899881E0982F9A95F1F78B9A8A95DF
:10066000F1F78B9866FF54C0899A81E0982F9A958C
:10067000F1F78B9A8A95F1F78B9865FF47C0899AB5
:1006800081E0982F9A95F1F78B9A8A95F1F78B98DC
:1006900064FF46C0899A81E0982F9A95F1F78B9A6A
:1006A0008A95F1F78B9863FF39C0899A81E0982F7A
:1006B0009A95F1F78B9A8A95F1F78B9862FF2CC087
:1006C000899A81E0982F9A95F1F78B9A8A95F1F79C
:1006D0008B9861FF1FC0899A81E0982F9A95F1F756
:1006E0008B9A8A95F1F78B9860FF1CC0899A81E0FC
:1006F000982F9A95F1F78B9A8A95F1F78B98089530
:10070000899AA8CF806280930201EFCE8998B8CFF2
:100710008998ABCF8998E0CF8998D3CF8998C6CFF5
:100720008998B9CF8998E3CF809102018F7D80931A
:1007300002017CCF809102018F7D809302015FCF07
:10074000809102018F7D8093020142CF809102014E
:100750008F7D8093020125CF809102018F7D809350
:10076000020108CF809102018F7D80930201EBCEC0
:10077000809102018F7D80930201CECE813011F0F5
:1007800080E00895982F9A95F1F78B9A2FB1982FC2
:100790009A95F1F78B9822FB222720F9220F982FA8
:1007A0009A95F1F78B9A9FB1382F3A95F1F78B987C
:1007B00092FB992790F9292B220F982F9A95F1F700
:1007C0008B9A9FB1382F3A95F1F78B9892FB992726
:1007D00090F9292B220F982F9A95F1F78B9A9FB1B8
:1007E000382F3A95F1F78B9892FB992790F9292B9E
:1007F000220F982F9A95F1F78B9A9FB1382F3A953F
:10080000F1F78B9892FB992790F9292B220F982FBB
:100810009A95F1F78B9A9FB1382F3A95F1F78B980B
:1008200092FB992790F9292B220F982F9A95F1F78F
:100830008B9A9FB1382F3A95F1F78B9892FB9927B5
:1008400090F9292B982F9A95F1F78B9A9FB18A9559
:10085000F1F78B98822F880F92FB992790F9892BBB
:100860000895813011F080E0089567FF93C0899A60
:1008700091E0892F8A95F1F78B9A8FB19A95F1F7CC
:100880008B9882FB882780F9880F66FF81C0899A40
:1008900021E0922F9A95F1F78B9A9FB12A95F1F763
:1008A0008B9892FB992790F9892B880F65FF6EC072
:1008B000899A21E0922F9A95F1F78B9A9FB12A9508
:1008C000F1F78B9892FB992790F9892B880F64FF99
:1008D0005BC0899A21E0922F9A95F1F78B9A9FB18C
:1008E0002A95F1F78B9892FB992790F9892B880F1D
:1008F00063FF48C0899A21E0922F9A95F1F78B9A6D
:100900009FB12A95F1F78B9892FB992790F9892B43
:10091000880F62FF35C0899A21E0922F9A95F1F7EE
:100920008B9A9FB12A95F1F78B9892FB992790F9B2
:10093000892B880F61FF22C0899A21E0922F9A9516
:10094000F1F78B9A9FB12A95F1F78B9892FB992733
:1009500090F9892B880F60FF0FC0899A21E0922FB0
:100960009A95F1F78B9A9FB12A95F1F78B9892FBA4
:10097000992790F9892B08958998F0CF8998DDCF30
:100980008998CACF8998B7CF8998A4CF899891CFF1
:1009900089987ECF89986CCF813011F080E00895DE
:1009A0008CB186FB882780F90895CF93C82F8A30B1
:1009B00041F09091C00095FFFCCFC093C600CF914D
:1009C00008958DE00E94D504F4CF80917A048823A5
:1009D000E1F3E0917B04F0917C04E158FB4F8081CE
:1009E00090917A04915090937A0420917B043091F5
:1009F0007C042F5F3F4F30937C0420937B04209135
:100A00007B0430917C042F3F310509F0089510924A
:100A10007C0410927B0408951092C50089E18093B4
:100A2000C400E0ECF0E080818D7F808386E08093DD
:100A3000C20088E18093C10008951F920F920FB603
:100A40000F9211240BB60F922F938F939F93EF93D6
:100A5000FF932091C60080917A048F3FA1F1E0912D
:100A60007D04F0917E04E158FB4F208380917A044D
:100A70008F5F80937A0480917D0490917E0401962B
:100A800090937E0480937D0480917D0490917E04F8
:100A90008F3F910501F18091780490917904892B21
:100AA00031F08091C00085FFFCCF2093C600FF91FC
:100AB000EF919F918F912F910F900BBE0F900FBED2
:100AC0000F901F9018958091C00085FFFCCF80E4A7
:100AD0008093C600ECCF10927E0410927D04DBCF91
:100AE00080917A048823F1F0E0917B04F0917C04FA
:100AF000E158FB4F808190917A04915090937A0451
:100B000020917B0430917C042F5F3F4F30937C0415
:100B100020937B0420917B0430917C042F3F31058E
:100B200019F0089580E0089510927C0410927B04DF
:100B30000895E1ECF0E080818F7780831092C5000A
:100B400089E18093C400A0ECB0E08C918D7F8C9300
:100B500086E08093C20088E180831092790410922D
:100B60007804A7E9B8E080E092E011969C938E9318
:100B700013969C938E93129710927E0410927D048C
:100B800010927C0410927B0410927A048081806819
:100B90008083089590937904809378040895109247
:100BA0007904109278040895FC0160830895EF920F
:100BB000FF921F93CF93DF931F92CDB7DEB77C01D7
:100BC000162FFC01808179830E943A026981F70126
:100BD00080810E946602612FF70180810E94660277
:100BE000F70180810F90DF91CF911F91FF90EF90DF
:100BF0000C944D02FC0180810C94E001FC016083A7
:100C00000895CF92DF92EF92FF920F93CF93DF93ED
:100C1000EC016A017B0188810E943A02602F6370B7
:100C200088810E94660299278F2D7E2D6D2D8881E7
:100C30000E9466026C2D88810E9466028881DF9185
:100C4000CF910F91FF90EF90DF90CF900C944D02D9
:100C5000FC0180810C94E001FC0160830895CF9237
:100C6000DF92EF92FF92CF93DF93EC016A017B0159
:100C700088810E943A026C2D88810E946602B70129
:100C80008827992788810E94660299278F2D7E2DBB
:100C90006D2D88810E9466028881DF91CF91FF903F
:100CA000EF90DF90CF900C944D02FC0180810C946A
:100CB000E001FC01608308950F931F93CF93DF93AE
:100CC000EC018B0188810E943A02B8010024660F72
:100CD000771F001C660F771F001C672F702D6F7326
:100CE00088810E946602602F660F660F88810E94CD
:100CF00066028881DF91CF911F910F910C944D0274
:100D0000FC0180810C94E0010F931F93CF93DF933C
:100D10008C01EB010E940F3CFE0101900020E9F7DD
:100D2000CF018C1B9D0B800F911FDF91CF911F91E5
:100D30000F910895FC01608308950F931F93CF9343
:100D4000DF93EC0188810E943A0288810E94BE03F1
:100D500088810E94BE03082F88810E94BE03182F3D
:100D600088810E944D02812F90E0902BDF91CF91DE
:100D70001F910F910895FC0180810C94E0018091F6
:100D80008708882371F0809186088130C9F081E05E
:100D90008093860880913002882391F0109230026F
:100DA000089580918608882359F0809385081092D1
:100DB000860880913002811103C081E08093300267
:100DC000089552985A9AE9E6F0E080818F7D8083F9
:100DD000808180618083EA9A5198599A8081877FC7
:100DE0008083808184608083E99A53985B9A8081B4
:100DF0008068808380818F7B8083EB9A26982E9AEF
:100E0000A8E6B0E08C9181608C93EBE6F0E0808105
:100E10008064808325982D9A8C9181608C93808149
:100E20008062808308951F920F920FB60F92112453
:100E30000BB60F922F933F934F935F936F938F93C4
:100E40009F93EF93FF9340918F08440F440F40937B
:100E50008F0859B169B161FB882780F990E0842B34
:100E600052FB222720F930E0220F331F822B932BD5
:100E700080938F088F70E82FF0E0EF5CFD4F90912A
:100E800094088081890F80939408FF91EF919F913E
:100E90008F916F915F914F913F912F910F900BBE6A
:100EA0000F900FBE0F901F9018951F920F920FB6C4
:100EB0000F9211240F900FBE0F901F9018951F9244
:100EC0000F920FB60F9211248F939F9383B186FBDD
:100ED000882780F990910F02992311F08823C1F09F
:100EE00080930F0283B185FB882780F990910E02D1
:100EF000992329F0811103C091E090939208809387
:100F00000E029F918F910F900FBE0F901F9018951A
:100F100091E090939308E4CFEF92FF920F931F9389
:100F2000CF93DF93CDB7DEB762970FB6F894DEBFED
:100F30000FBECDBF80E290E09A8B898BBE016F5EC1
:100F40007F4F88EB97E00E94023C9A8389837E0161
:100F500083E0E80EF11C01E010E0BE016F5E7F4F00
:100F600080E090E00E94023CF701819391937F0121
:100F7000892BE1F00F5F1F4F0830110571F7E980F1
:100F8000FA806BE672E0C7010E94063C892BB9F437
:100F90005F9A62960FB6F894DEBF0FBECDBFDF91A9
:100FA000CF911F910F91FF90EF900895E980FA8003
:100FB0006BE672E0C7010E94063C892BC9F162E72B
:100FC00072E0C7010E94063C892B11F36CE672E0C7
:100FD000C7010E94063C892BD9F163E772E0C70183
:100FE0000E94063C892BA1F260EF72E0C7010E94CB
:100FF000063C892BC9F16DEA72E0C7010E94063CEC
:10100000892B09F473C064EF72E0C7010E94063CAB
:10101000892B09F470C067E073E0C7010E94063CA9
:10102000892B09F44DC08CE293E00E94D23CB0CFF2
:101030000330110509F0ACCF5F988FE19EE4019772
:10104000F1F700C000008D819E810E94FF3AA0CF81
:101050000330110509F09CCF5F98EFE1FEE4319772
:10106000F1F700C0000094CF0130110509F090CFD6
:1010700082E592E00E94D23C8DE492E09F938F93B0
:1010800089E792E09F938F930E94BE3C87E492E0B1
:101090009F938F9389E892E09F938F930E94BE3C29
:1010A00081E492E09F938F938BE992E09F938F93DB
:1010B0000E94BE3C0FB6F894DEBF0FBECDBF68CF16
:1010C0009091870881E0982790938708909130024B
:1010D00089271F928F9387E193E09F938F930E94BC
:1010E000BE3C0F900F900F900F9052CF82EB92E08A
:1010F0000E94D23C4DCF1F921F928AEF92E09F93A5
:101100008F930E94BE3C0F900F900F900F9040CF96
:101110000E947005882309F44FC08D30F1F08A30A9
:10112000E1F0E0918A08F0918B08E436F1055CF07B
:10113000E25EF74F129298E0EE31F907D9F710927C
:101140001D08E0E0F0E0DF01A35EB74F8C9331961D
:10115000F0938B08E0938A08DBCF40918A08509186
:101160008B0814161506A4F6A8EBB7E0EDE1F8E03D
:101170009A01235E374F80818D931192E217F30716
:10118000D1F78091880890918908481759074CF445
:10119000FA01E854F84F8854984F1192E817F9076C
:1011A000E1F7509389084093880810928B081092B9
:1011B0008A080E948C07ACCF089581E00E943A0211
:1011C00062E081E00E94660260E081E00E946602C7
:1011D00081E00E94CC048823D9F362E081E00E9480
:1011E000660260E081E00E94660281E00E944D029A
:1011F00081E00E943A0281E00E94CC048823D9F366
:101200006FEF81E00E94310480937E056FEF81E0F3
:101210000E94310480937F0581E00E944D0281E0AD
:101220000E94CC048130D9F380917F058F93809107
:101230007E058F9386E693E09F938F930E94BE3C3A
:1012400081E00E943A0262E081E00E94660260E072
:1012500081E00E9466020F900F900F900F9081E046
:101260000E94CC048823D9F363E081E00E946602E7
:1012700060E081E00E94660281E00E944D0281E010
:101280000E943A0281E00E94CC048823D9F36FEFD8
:1012900081E00E94310480937E056FEF81E00E941F
:1012A000310480937F0581E00E944D0281E00E941D
:1012B000CC048130D9F380917F058F9380917E0596
:1012C0008F9389E793E09F938F930E94BE3C81E0C8
:1012D0000E943A0262E081E00E94660260E081E0E2
:1012E0000E9466020F900F900F900F9081E00E9475
:1012F000CC048823D9F360E081E00E94660260E0BC
:1013000081E00E94660281E00E944D0281E00E941D
:101310003A0281E00E94CC048823D9F36FEF81E088
:101320000E94310480937E056FEF81E00E943104BA
:1013300080937F0581E00E944D0281E00E94CC04F1
:101340008130D9F381E00E943A0262E081E00E949C
:10135000660260E081E00E94660281E00E94CC04A7
:101360008823D9F361E081E00E94660260E081E0B9
:101370000E94660281E00E944D0281E00E943A02D2
:1013800081E00E94CC048823D9F36FEF81E00E94B2
:10139000310480937E056FEF81E00E9431048093D9
:1013A0007F0581E00E944D0281E00E94CC048130E3
:1013B000D9F380917F058F9380917E058F9387E885
:1013C00093E09F938F930E94BE3C0F900F900F90DD
:1013D0000F9008956F927F928F929F92AF92BF92DB
:1013E000CF92DF92EF92FF920F931F93CF93DF93F1
:1013F000CDB7DEB76A970FB6F894DEBF0FBECDBF8C
:10140000989AA09A2FEF83ED90E32150804090406E
:10141000E1F700C00000A098EFEFF3ED20E3E1500A
:10142000F0402040E1F700C0000081E00E94E001B0
:1014300081E00E943A0281E00E94CC048823D9F323
:101440006FEF81E00E94310480937E056FEF81E0B1
:101450000E94310480937F0581E00E944D0281E06B
:101460000E94CC048130D9F380917E0590917F0554
:101470008231944309F07DC081E00E943A0262E02B
:1014800081E00E94660260E081E00E94660281E0E5
:101490000E94CC048823D9F360E081E00E946602B8
:1014A00060E081E00E94660281E00E944D0281E0DE
:1014B0000E943A0281E00E94CC048823D9F36FEFA6
:1014C00081E00E94310480937E056FEF81E00E94ED
:1014D000310480937F0581E00E944D0281E00E94EB
:1014E000CC048130D9F300917E0510917F0581E015
:1014F0000E943A0262E081E00E94660260E081E0C0
:101500000E94660281E00E94CC048823D9F361E046
:1015100081E00E94660260E081E00E94660281E054
:101520000E944D0281E00E943A0281E00E94CC04B8
:101530008823D9F36FEF81E00E94310480937E0508
:101540006FEF81E00E94310480937F0581E00E946B
:101550004D0281E00E94CC048130D9F380917E0558
:1015600090917F05012B09F087CF8F379D4109F0BE
:1015700083CF80E094E09A83898384E690E09C8323
:101580008B8381E00E943A0264E081E00E9466025F
:1015900060E081E00E946602CE0101963C017C0180
:1015A00001E010E00DC0F701608181E00E94660259
:1015B0000430110599F00F5F1F4FFFEFEF1AFF0A7C
:1015C0000130110581F781E00E94CC048823D9F312
:1015D000F701608181E00E946602EDCF81E00E9408
:1015E0004D0281E00E943A0281E00E94CC048823EF
:1015F000D9F36FEF81E00E94310480937E056FEF95
:1016000081E00E94310480937F0581E00E944D02B9
:1016100081E00E94CC048130D9F381E00E943A023B
:1016200062E081E00E94660260E081E00E94660262
:1016300081E00E94CC048823D9F360E881E00E9415
:10164000660261E081E00E94660281E00E944D0234
:1016500081E00E943A0281E00E94CC048823D9F301
:101660006FEF81E00E94310480937E056FEF81E08F
:101670000E94310480937F0581E00E944D0281E049
:101680000E94CC048130D9F385E591E09A83898367
:1016900084E090E09C838B8381E00E943A0264E0C6
:1016A00081E00E94660260E081E00E9466027301B0
:1016B00001E010E00DC0F701608181E00E94660248
:1016C0000430110599F00F5F1F4FFFEFEF1AFF0A6B
:1016D0000130110581F781E00E94CC048823D9F301
:1016E000F701608181E00E946602EDCF81E00E94F7
:1016F0004D0281E00E943A0281E00E94CC048823DE
:10170000D9F36FEF81E00E94310480937E056FEF83
:1017100081E00E94310480937F0581E00E944D02A8
:1017200081E00E94CC048130D9F380E791E09A8374
:1017300089838BEE93ED9C838B8389EE90E09E836F
:101740008D8381E00E943A0266E081E00E94660299
:1017500060E081E00E946602730101E010E00DC0CC
:10176000F701608181E00E9466020630110599F060
:101770000F5F1F4FFFEFEF1AFF0A0130110581F7CE
:1017800081E00E94CC048823D9F3F701608181E0D5
:101790000E946602EDCF81E00E944D0281E00E942E
:1017A0003A0281E00E94CC048823D9F36FEF81E0F4
:1017B0000E94310480937E056FEF81E00E94310426
:1017C00080937F0581E00E944D0281E00E94CC045D
:1017D0008130D9F389E1E5E1F4E0D30101900D9284
:1017E0008A95E1F7E090B407F090B5070091B6074D
:1017F0001091B7077F926F92812C912CA12CB12C64
:1018000094E0C92ED12C2EE130E040EF50E06EE0A4
:1018100070E08EE795E00E9432358DE492E09F9370
:101820008F938EE993E09F938F937F926F920E94A4
:10183000023DE090B407F090B5070091B607109113
:10184000B7077F926F9223E0C22ED12C24E630E0BE
:101850004AE050E067E070E08EE795E00E943235A4
:1018600087E492E09F938F9382EB93E09F938F9313
:101870007F926F920E94023DE090B407F090B5070E
:101880000091B6071091B7077F926F9228E730E07A
:101890004AE050E067E070E08EE795E00E94323564
:1018A00081E492E09F938F9386EC93E09F938F93D4
:1018B0007F926F920E94023DE090B407F090B507CE
:1018C0000091B6071091B7077F926F922CE830E035
:1018D0004AE050E067E070E08EE795E00E94323524
:1018E00081E1EAEDF3E0D30101900D928A95E1F7F1
:1018F000E090B407F090B5070091B6071091B707D4
:101900007F926F922CED30E04AE050E068E070E0AA
:101910008EE795E00E94323581E00E943A0262E053
:1019200081E00E94660260E081E00E9466020FB6DC
:10193000F894DEBF0FBECDBF81E00E94CC048823A7
:10194000D9F361E881E00E94660261E081E00E94D3
:10195000660281E00E944D0281E00E943A0281E02D
:101960000E94CC048823D9F36FEF81E00E943104F8
:1019700080937E056FEF81E00E94310480937F05A4
:1019800081E00E944D0281E00E94CC048130D9F3B5
:1019900081E094E09E8B8D8B82E090E0988F8F8B1E
:1019A0001A8E198E81E00E943A0266E081E00E9460
:1019B000660260E081E00E9466028E010B5E1F4FAE
:1019C00066246394712C0EC0F801608181E00E944E
:1019D0006602F6E06F167104A1F09FEF691A790AAA
:1019E0000F5F1F4FE1E06E16710471F781E00E94F6
:1019F000CC048823D9F3F801608181E00E9466025B
:101A0000ECCF81E00E944D0281E00E943A0281E029
:101A10000E94CC048823D9F36FEF81E00E94310447
:101A200080937E056FEF81E00E94310480937F05F3
:101A300081E00E944D0281E00E94CC048130D9F304
:101A40006BEE73E08EE795E00E94E6356A960FB67E
:101A5000F894DEBF0FBECDBFDF91CF911F910F91E4
:101A6000FF90EF90DF90CF90BF90AF909F908F90BE
:101A70007F906F9008952F923F924F925F926F9256
:101A80007F928F929F92AF92BF92CF92DF92EF920E
:101A9000FF920F931F93CF93DF93CDB7DEB7CE5452
:101AA000D1400FB6F894DEBF0FBECDBF81E00E94DB
:101AB0003A0262E081E00E94660260E081E00E94FA
:101AC000660281E00E94CC048823D9F360E881E0BB
:101AD0000E94660261E081E00E94660281E00E944D
:101AE0004D0281E00E943A0281E00E94CC048823EA
:101AF000D9F36FEF81E00E94310480937E056FEF90
:101B000081E00E94310480937F0581E00E944D02B4
:101B100081E00E94CC048130D9F385E591E09A837D
:101B2000898384E090E09C838B8381E00E943A0269
:101B300064E081E00E94660260E081E00E9466024B
:101B40008E010F5F1F4F6801EE24E394F12C0FC04C
:101B5000F601608181E00E946602F4E0EF16F10474
:101B6000A9F02FEFE21AF20A3FEFC31AD30A81E07D
:101B7000E816F10469F781E00E94CC048823D9F3C8
:101B8000F601608181E00E946602EBCF81E00E9455
:101B90004D0281E00E943A0281E00E94CC04882339
:101BA000D9F36FEF81E00E94310480937E056FEFDF
:101BB00081E00E94310480937F0581E00E944D0204
:101BC00081E00E94CC048130D9F380E791E09A83D0
:101BD00089831C821B821E821D8281E00E943A0240
:101BE00066E081E00E94660260E081E00E94660299
:101BF0006801EE24E394F12C0FC0F601608181E0CE
:101C00000E946602F6E0EF16F104A9F02FEFE21A47
:101C1000F20A3FEFC31AD30A81E0E816F10469F72C
:101C200081E00E94CC048823D9F3F601608181E031
:101C30000E946602EBCF81E00E944D0281E00E948B
:101C40003A0281E00E94CC048823D9F36FEF81E04F
:101C50000E94310480937E056FEF81E00E94310481
:101C600080937F0581E00E944D0281E00E94CC04B8
:101C70008130D9F380E093E09A83898381E090E01A
:101C80009C838B830E943A0264E081E00E9466029A
:101C900060E081E00E9466026801EE24E394F12C8A
:101CA0000FC0F601608181E00E946602F4E0EF1649
:101CB000F104A9F02FEFE21AF20A3FEFC31AD30A98
:101CC00081E0E816F10469F781E00E94CC048823E2
:101CD000D9F3F601608181E00E946602EBCF81E0DA
:101CE0000E944D0281E00E943A0281E00E94CC04F1
:101CF0008823D9F36FEF81E00E94310480937E0541
:101D00006FEF81E00E94310480937F0581E00E94A3
:101D10004D0281E00E94CC048130D9F38091AA0762
:101D200081110C946B1F8FEF90E02FEF3FEF42E596
:101D300051E05A8349833C832B839E838D8381E0CA
:101D40000E943A0266E081E00E94660260E081E063
:101D50000E9466026801EE24E394F12C0FC0F601A4
:101D6000608181E00E946602F6E0EF16F104A9F0BE
:101D70002FEFE21AF20A3FEFC31AD30A81E0E81606
:101D8000F10469F781E00E94CC048823D9F3F601BD
:101D9000608181E00E946602EBCF81E00E944D02EB
:101DA00081E00E943A0281E00E94CC048823D9F3AA
:101DB0006FEF81E00E94310480937E056FEF81E038
:101DC0000E94310480937F0581E00E944D0281E0F2
:101DD0000E94CC048130D9F380E591E09A83898315
:101DE00080E797E09C838B8388E797E09E838D83D1
:101DF00088EF94E098878F839A87898781E00E9493
:101E00003A026AE081E00E94660260E081E00E949E
:101E100066026801EE24E394F12C0FC0F6016081A4
:101E200081E00E946602FAE0EF16F104A9F02FEFBC
:101E3000E21AF20A3FEFC31AD30A81E0E816F1046E
:101E400069F781E00E94CC048823D9F3F601608110
:101E500081E00E946602EBCF81E00E944D0281E0AA
:101E60000E943A0281E00E94CC048823D9F36FEFEC
:101E700081E00E94310480937E056FEF81E00E9433
:101E8000310480937F0581E00E944D0281E00E9431
:101E9000CC048130D9F3E0919A07F0919B07EE0FC3
:101EA000FF1FEE53F94F60817181072E000C880BE4
:101EB000990B0E9458382FE632E143E850E40E9423
:101EC0000D3920E030E040E85BE30E940D399F933C
:101ED0008F937F936F9385E394E09F938F936E012D
:101EE0002DEEC21A2EEFD20ADF92CF920E94023D4F
:101EF0008091B4079091B507A091B607B091B7074C
:101F000021E031E03A8329832FE030E03C832B83CA
:101F100020EC38E03E832D8320E837E038872F839C
:101F20009A878987BC87AB8785E090E09E878D87FD
:101F3000188A1F861A8A198AB601CE0143960E9412
:101F400084064C01801A910A81E00E943A02682DB1
:101F500081E00E946602692D81E00E9466020FB650
:101F6000F894DEBF0FBECDBF8114910401F158017A
:101F7000E12CF12C0CC0F50161915F0181E00E9420
:101F80006602FFEFEF1AFF0A8E149F0481F0C7016B
:101F90008F739927892B79F781E00E94CC048111F6
:101FA000EACF81E00E94CC048823B1F3E4CF81E042
:101FB0000E944D0281E00E943A0281E00E94CC041E
:101FC0008823D9F36FEF81E00E94310480937E056E
:101FD0006FEF81E00E94310480937F0581E00E94D1
:101FE0004D0281E00E94CC048130D9F38091B40786
:101FF0009091B507A091B607B091B70721E031E005
:102000003A8329832EE030E03C832B8320E139E0C2
:102010003E832D8320EA37E038872F839A8789878C
:10202000BC87AB8784E090E09E878D87188A1F86E7
:102030001A8A198A6BE374E0CE0143960E948406E3
:102040004C01801A910A81E00E943A02682D81E0D9
:102050000E946602692D81E00E946602811491044B
:1020600001F15801E12CF12C0CC0F50161915F01E7
:1020700081E00E946602FFEFEF1AFF0A8E149F04B0
:1020800081F0C7018F739927892B79F781E00E942E
:10209000CC048111EACF81E00E94CC048823B1F303
:1020A000E4CF81E00E944D0281E00E943A0281E08B
:1020B0000E94CC048823D9F36FEF81E00E943104A1
:1020C00080937E056FEF81E00E94310480937F054D
:1020D00081E00E944D0281E00E94CC048130D9F35E
:1020E00080E093E09A83898386E090E09C838B83F1
:1020F00081E00E943A0264E081E00E94660260E0B2
:1021000081E00E9466025801EE24E394F12C0FC096
:10211000F501608181E00E946602F4E0EF16F104AF
:10212000A9F02FEFE21AF20A3FEFA31AB30A81E0F7
:10213000E816F10469F781E00E94CC048823D9F302
:10214000F501608181E00E946602EBCF81E00E9490
:102150004D0281E00E943A0281E00E94CC04882373
:10216000D9F36FEF81E00E94310480937E056FEF19
:1021700081E00E94310480937F0581E00E944D023E
:1021800081E00E94CC048130D9F3E0919A07F0916C
:102190009B07E05FFD4F808181110C94651F8FEFDD
:1021A00090E026E636E642E551E05A8349833C83D7
:1021B0002B839E838D8381E00E943A0266E081E05A
:1021C0000E94660260E081E00E9466025801EE24EF
:1021D000E394F12C0FC0F501608181E00E9466025A
:1021E000F6E0EF16F104A9F02FEFE21AF20A3FEF42
:1021F000A31AB30A81E0E816F10469F781E00E94AE
:10220000CC048823D9F3F501608181E00E94660245
:10221000EBCF81E00E944D0281E00E943A0281E012
:102220000E94CC048823D9F36FEF81E00E9431042F
:1022300080937E056FEF81E00E94310480937F05DB
:1022400081E00E944D0281E00E94CC048130D9F3EC
:1022500080E591E09A83898380E79CE09C838B836F
:1022600088E797E09E838D8388EF94E098878F833B
:102270009A87898781E00E943A026AE081E00E94A1
:10228000660260E081E00E9466025801EE24E39459
:10229000F12C0FC0F501608181E00E946602FAE036
:1022A000EF16F104A9F02FEFE21AF20A3FEFA31A9A
:1022B000B30A81E0E816F10469F781E00E94CC04DA
:1022C0008823D9F3F501608181E00E946602EBCF9B
:1022D00081E00E944D0281E00E943A0281E00E946A
:1022E000CC048823D9F36FEF81E00E9431048093FE
:1022F0007E056FEF81E00E94310480937F0581E0CD
:102300000E944D0281E00E94CC048130D9F3E0911B
:102310009A07F0919B07EE0FFF1FEE0FFF1F8091B2
:102320009C0790919D07E80FF91FEE0FFF1FE652E3
:10233000F94F81818F9380818F9387E694E09F93FB
:102340008F93DF92CF920E94023D8091B4079091CB
:10235000B507A091B607B091B70721E031E03A8305
:1023600029832FE030E03C832B8320E83CE03E8350
:102370002D8320E837E038872F839A878987BC87A9
:10238000AB8784E090E09E878D87188A1F861A8A23
:10239000198A6DE374E0CE0143960E9484064C01D5
:1023A000801A910A81E00E943A02682D81E00E9421
:1023B0006602692D81E00E9466020F900F900F90D7
:1023C0000F900F900F908114910401F15801E12CAE
:1023D000F12C0CC0F50161915F0181E00E94660261
:1023E000FFEFEF1AFF0A8E149F0481F0C7018F736D
:1023F0009927892B79F781E00E94CC048111EACFDB
:1024000081E00E94CC048823B1F3E4CF81E00E94F4
:102410004D0281E00E943A0281E00E94CC048823B0
:10242000D9F36FEF81E00E94310480937E056FEF56
:1024300081E00E94310480937F0581E00E944D027B
:1024400081E00E94CC048130D9F380E093E09A834C
:10245000898382E090E09C838B8381E00E943A0232
:1024600064E081E00E94660260E081E00E94660212
:102470005801EE24E394F12C0FC0F501608181E056
:102480000E946602F4E0EF16F104A9F02FEFE21AC1
:10249000F20A3FEFA31AB30A81E0E816F10469F7E4
:1024A00081E00E94CC048823D9F3F501608181E0AA
:1024B0000E946602EBCF81E00E944D0281E00E9403
:1024C0003A0281E00E94CC048823D9F36FEF81E0C7
:1024D0000E94310480937E056FEF81E00E943104F9
:1024E00080937F0581E00E944D0281E00E94CC0430
:1024F0008130D9F38091AB0781110C945F1F8FEF6E
:1025000090E02FEF3FEF42E551E05A8349833C834F
:102510002B839E838D8381E00E943A0266E081E0F6
:102520000E94660260E081E00E9466025801EE248B
:10253000E394F12C0FC0F501608181E00E946602F6
:10254000F6E0EF16F104A9F02FEFE21AF20A3FEFDE
:10255000A31AB30A81E0E816F10469F781E00E944A
:10256000CC048823D9F3F501608181E00E946602E2
:10257000EBCF81E00E944D0281E00E943A0281E0AF
:102580000E94CC048823D9F36FEF81E00E943104CC
:1025900080937E056FEF81E00E94310480937F0578
:1025A00081E00E944D0281E00E94CC048130D9F389
:1025B00080E591E09A83898380E79CE09C838B830C
:1025C00088E391E09E838D8388EF94E098878F83E2
:1025D00088E792E09A87898781E00E943A026AE060
:1025E00081E00E94660260E081E00E94660258017C
:1025F000EE24E394F12C0FC0F501608181E00E948C
:102600006602FAE0EF16F104A9F02FEFE21AF20ADF
:102610003FEFA31AB30A81E0E816F10469F781E0FD
:102620000E94CC048823D9F3F501608181E00E94E7
:102630006602EBCF81E00E944D0281E00E943A02E7
:1026400081E00E94CC048823D9F36FEF81E00E94DF
:10265000310480937E056FEF81E00E943104809306
:102660007F0581E00E944D0281E00E94CC04813010
:10267000D9F3209027023090280237FCC5C0409043
:102680001D0250901E0260901F02709020028091E7
:102690009A0790919B07880F991F880F991F880FA1
:1026A000991F9C01265C384FC75BDE4F3983288316
:1026B000C954D14020E030E040E85FE3E12CF12C48
:1026C000CB5BDE4F1882C554D140CA5BDE4F188207
:1026D000C654D140C95BDE4F1882C754D140C85B95
:1026E000DE4F1882C854D140C75BDE4FE881F981C4
:1026F000C954D14061917191C75BDE4FF983E88382
:10270000C954D140072E000C880B990BC55BDE4FD6
:102710002883CB54D140C45BDE4F3883CC54D140A6
:10272000C35BDE4F4883CD54D140C25BDE4F58833C
:10273000CE54D1400E9458384B015C01C55BDE4F3E
:102740002881CB54D140C45BDE4F3881CC54D1407A
:10275000C35BDE4F4881CD54D140C25BDE4F588110
:10276000CE54D140C301B2010E94AE379B01AC01EF
:10277000C501B4010E940D399B01AC01CB5BDE4F5A
:10278000E881C554D140CA5BDE4FB881C654D14000
:10279000C95BDE4FA881C754D140C85BDE4FF881CA
:1027A000C854D1406E2F7B2F8A2F9F2F0E943D3718
:1027B000CB5BDE4F6883C554D140CA5BDE4F788364
:1027C000C654D140C95BDE4F8883C754D140C85B33
:1027D000DE4F9883C854D140FFEFEF1AFF0A2E1442
:1027E0003F0434F1B7010F2C000C880B990B0E94A9
:1027F00058389B01AC0160E070E080E090E40E94FA
:102800007A399B01AC0170CFCB5BDE4F1882C55487
:10281000D140CA5BDE4F1882C654D140C95BDE4F3F
:102820001882C754D140C85BDE4F1882C854D140CB
:10283000C85BDE4F2881C854D1402F93C95BDE4F5F
:102840003881C754D1403F93CA5BDE4F8881C6545C
:10285000D1408F93CB5BDE4F9881C554D1409F937D
:1028600082E494E09F938F93DF92CF920E94023D87
:102870008091B4079091B507A091B607B091B707C2
:1028800021E031E03A8329832FE030E03C832B8341
:1028900028E53EE03E832D8320E431E038872F8316
:1028A0009A878987BC87AB8785E090E09E878D8774
:1028B000188A1F861A8A198AB601CE0143960E9489
:1028C00084064C01801A910A81E00E943A02682D28
:1028D00081E00E946602692D81E00E9466020FB6C7
:1028E000F894DEBF0FBECDBF8114910401F15801F1
:1028F000E12CF12C0CC0F50161915F0181E00E9497
:102900006602FFEFEF1AFF0A8E149F0481F0C701E1
:102910008F739927892B79F781E00E94CC0481116C
:10292000EACF81E00E94CC048823B1F3E4CF81E0B8
:102930000E944D0281E00E943A0281E00E94CC0494
:102940008823D9F36FEF81E00E94310480937E05E4
:102950006FEF81E00E94310480937F0581E00E9447
:102960004D0281E00E94CC048130D9F38091B407FC
:102970009091B507A091B607B091B70721E031E07B
:102980003A8329832CE030E03C832B8328E83EE027
:102990003E832D8320EA30E038872F839A8789870A
:1029A000BC87AB8784E090E09E878D87188A1F865E
:1029B0001A8A198A64E674E0CE0143960E9484065E
:1029C0004C01801A910A81E00E943A02682D81E050
:1029D0000E946602692D81E00E94660281149104C2
:1029E00001F15801E12CF12C0CC0F50161915F015E
:1029F00081E00E946602FFEFEF1AFF0A8E149F0427
:102A000081F0C7018F739927892B79F781E00E94A4
:102A1000CC048111EACF81E00E94CC048823B1F379
:102A2000E4CF81E00E944D0281E00E943A0281E001
:102A30000E94CC048823D9F36FEF81E00E94310417
:102A400080937E056FEF81E00E94310480937F05C3
:102A500081E00E944D0281E00E94CC048130D9F3D4
:102A600080E093E09A83898385E090E09C838B8368
:102A700081E00E943A0264E081E00E94660260E028
:102A800081E00E9466025801EE24E394F12C0FC00D
:102A9000F501608181E00E946602F4E0EF16F10426
:102AA000A9F02FEFE21AF20A3FEFA31AB30A81E06E
:102AB000E816F10469F781E00E94CC048823D9F379
:102AC000F501608181E00E946602EBCF81E00E9407
:102AD0004D0281E00E943A0281E00E94CC048823EA
:102AE000D9F36FEF81E00E94310480937E056FEF90
:102AF00081E00E94310480937F0581E00E944D02B5
:102B000081E00E94CC048130D9F38091AE0781111D
:102B10000C94591F89E890E027E83FED42E551E029
:102B20005A8349833C832B839E838D8381E00E945B
:102B30003A0266E081E00E94660260E081E00E9465
:102B400066025801EE24E394F12C0FC0F501608178
:102B500081E00E946602F6E0EF16F104A9F02FEF83
:102B6000E21AF20A3FEFA31AB30A81E0E816F10471
:102B700069F781E00E94CC048823D9F3F5016081D4
:102B800081E00E946602EBCF81E00E944D0281E06D
:102B90000E943A0281E00E94CC048823D9F36FEFAF
:102BA00081E00E94310480937E056FEF81E00E94F6
:102BB000310480937F0581E00E944D0281E00E94F4
:102BC000CC048130D9F380E591E09A83898380E752
:102BD0009CE09C838B8388EB93E09E838D8388EFBE
:102BE00094E098878F8388E792E09A87898781E0CD
:102BF0000E943A026AE081E00E94660260E081E0A1
:102C00000E9466025801EE24E394F12C0FC0F501F6
:102C1000608181E00E946602FAE0EF16F104A9F0FB
:102C20002FEFE21AF20A3FEFA31AB30A81E0E81687
:102C3000F10469F781E00E94CC048823D9F3F501FF
:102C4000608181E00E946602EBCF81E00E944D022C
:102C500081E00E943A0281E00E94CC048823D9F3EB
:102C60006FEF81E00E94310480937E056FEF81E079
:102C70000E94310480937F0581E00E944D0281E033
:102C80000E94CC048130D9F38091B4079091B507AC
:102C9000A091B607B091B70721E031E03A832983CC
:102CA0002DE030E03C832B8320E83CE03E832D8305
:102CB00020EC33E038872F839A878987BC87AB87DE
:102CC00084E090E09E878D87188A1F861A8A198A69
:102CD00067E474E0CE0143960E9484064C01801A9A
:102CE000910A81E00E943A02682D81E00E9466020A
:102CF000692D81E00E9466028114910401F158015E
:102D0000E12CF12C0CC0F50161915F0181E00E9482
:102D10006602FFEFEF1AFF0A8E149F0481F0C701CD
:102D20008F739927892B79F781E00E94CC04811158
:102D3000EACF81E00E94CC048823B1F3E4CF81E0A4
:102D40000E944D0281E00E943A0281E00E94CC0480
:102D50008823D9F36FEF81E00E94310480937E05D0
:102D60006FEF81E00E94310480937F0581E00E9433
:102D70004D0281E00E94CC048130D9F380E093E0E1
:102D80009A83898383E090E09C838B8381E00E9417
:102D90003A0264E081E00E94660260E081E00E9405
:102DA00066025801EE24E394F12C0FC0F501608116
:102DB00081E00E946602F4E0EF16F104A9F02FEF23
:102DC000E21AF20A3FEFA31AB30A81E0E816F1040F
:102DD00069F781E00E94CC048823D9F3F501608172
:102DE00081E00E946602EBCF81E00E944D0281E00B
:102DF0000E943A0281E00E94CC048823D9F36FEF4D
:102E000081E00E94310480937E056FEF81E00E9493
:102E1000310480937F0581E00E944D0281E00E9491
:102E2000CC048130D9F38091AC0781110C94531FED
:102E30008FEF90E02FEF3FEF42E551E05A83498357
:102E40003C832B839E838D8381E00E943A0266E05F
:102E500081E00E94660260E081E00E946602580103
:102E6000EE24E394F12C0FC0F501608181E00E9413
:102E70006602F6E0EF16F104A9F02FEFE21AF20A6B
:102E80003FEFA31AB30A81E0E816F10469F781E085
:102E90000E94CC048823D9F3F501608181E00E946F
:102EA0006602EBCF81E00E944D0281E00E943A026F
:102EB00081E00E94CC048823D9F36FEF81E00E9467
:102EC000310480937E056FEF81E00E94310480938E
:102ED0007F0581E00E944D0281E00E94CC04813098
:102EE000D9F380E591E09A83898380E797E09C831A
:102EF0008B8388E391E09E838D8388EF94E09887AD
:102F00008F8388E792E09A87898781E00E943A025E
:102F10006AE081E00E94660260E081E00E94660251
:102F20005801EE24E394F12C0FC0F501608181E09B
:102F30000E946602FAE0EF16F104A9F02FEFE21A00
:102F4000F20A3FEFA31AB30A81E0E816F10469F729
:102F500081E00E94CC048823D9F3F501608181E0EF
:102F60000E946602EBCF81E00E944D0281E00E9448
:102F70003A0281E00E94CC048823D9F36FEF81E00C
:102F80000E94310480937E056FEF81E00E9431043E
:102F900080937F0581E00E944D0281E00E94CC0475
:102FA0008130D9F3E0919A07F0919B07EE0FFF1F54
:102FB000EE0FFF1F80919C0790919D07E80FF91F6E
:102FC000EE0FFF1FE65CF84F81818F9380818F9316
:102FD00087E694E09F938F93DF92CF920E94023D09
:102FE0008091B4079091B507A091B607B091B7074B
:102FF00021E031E03A8329832FE030E03C832B83CA
:1030000020EC37E03E832D8320E431E038872F83A6
:103010009A878987BC87AB8785E090E09E878D87FC
:10302000188A1F861A8A198AB601CE0143960E9411
:1030300084064C01801A910A81E00E943A02682DB0
:1030400081E00E946602692D81E00E9466020F9075
:103050000F900F900F900F900F908114910401F139
:103060005801E12CF12C0CC0F50161915F0181E068
:103070000E946602FFEFEF1AFF0A8E149F0481F090
:10308000C7018F739927892B79F781E00E94CC04BF
:103090008111EACF81E00E94CC048823B1F3E4CF10
:1030A00081E00E944D0281E00E943A0281E00E948C
:1030B000CC048823D9F36FEF81E00E943104809320
:1030C0007E056FEF81E00E94310480937F0581E0EF
:1030D0000E944D0281E00E94CC048130D9F380919E
:1030E000B4079091B507A091B607B091B70721E05A
:1030F00031E03A8329832CE030E03C832B8320ECC1
:1031000038E03E832D8320E831E038872F839A878B
:103110008987BC87AB8784E090E09E878D87188A7B
:103120001F861A8A198A61E574E0CE0143960E94CF
:1031300084064C01801A910A81E00E943A02682DAF
:1031400081E00E946602692D81E00E94660281147E
:10315000910401F15801E12CF12C0CC0F5016191B1
:103160005F0181E00E946602FFEFEF1AFF0A8E14F2
:103170009F0481F0C7018F739927892B79F781E02C
:103180000E94CC048111EACF81E00E94CC04882304
:10319000B1F3E4CF81E00E944D0281E00E943A0247
:1031A00081E00E94CC048823D9F36FEF81E00E9474
:1031B000310480937E056FEF81E00E94310480939B
:1031C0007F0581E00E944D0281E00E94CC048130A5
:1031D000D9F380E093E09A83898388E090E09C8330
:1031E0008B8381E00E943A0264E081E00E946602E3
:1031F00060E081E00E9466025801EE24E394F12C25
:103200000FC0F501608181E00E946602F4E0EF16D4
:10321000F104A9F02FEFE21AF20A3FEFA31AB30A62
:1032200081E0E816F10469F781E00E94CC0488236C
:10323000D9F3F501608181E00E946602EBCF81E065
:103240000E944D0281E00E943A0281E00E94CC047B
:103250008823D9F36FEF81E00E94310480937E05CB
:103260006FEF81E00E94310480937F0581E00E942E
:103270004D0281E00E94CC048130D9F38091B107E6
:1032800081110CC68FEF90E02FEF3FEF42E551E048
:103290005A8349833C832B839E838D8381E00E94E4
:1032A0003A0266E081E00E94660260E081E00E94EE
:1032B00066025801EE24E394F12C0FC0F501608101
:1032C00081E00E946602F6E0EF16F104A9F02FEF0C
:1032D000E21AF20A3FEFA31AB30A81E0E816F104FA
:1032E00069F781E00E94CC048823D9F3F50160815D
:1032F00081E00E946602EBCF81E00E944D0281E0F6
:103300000E943A0281E00E94CC048823D9F36FEF37
:1033100081E00E94310480937E056FEF81E00E947E
:10332000310480937F0581E00E944D0281E00E947C
:10333000CC048130D9F380E591E09A83898380E7DA
:1033400097E09C838B8388EB93E09E838D8388EF4B
:1033500094E098878F8388E792E09A87898781E055
:103360000E943A026AE081E00E94660260E081E029
:103370000E9466025801EE24E394F12C0FC0F5017F
:10338000608181E00E946602FAE0EF16F104A9F084
:103390002FEFE21AF20A3FEFA31AB30A81E0E81610
:1033A000F10469F781E00E94CC048823D9F3F50188
:1033B000608181E00E946602EBCF81E00E944D02B5
:1033C00081E00E943A0281E00E94CC048823D9F374
:1033D0006FEF81E00E94310480937E056FEF81E002
:1033E0000E94310480937F0581E00E944D0281E0BC
:1033F0000E94CC048130D9F360919C0770919D07A5
:10340000072E000C880B990B0E9458389B01AC01C9
:1034100060E070E080E090E40E947A399F938F939F
:103420007F936F9387E594E09F938F93DF92CF9282
:103430000E94023D8091B4079091B507A091B60714
:10344000B091B70721E031E03A83298320E130E0F1
:103450003C832B8320E837E03E832D8320EC33E050
:1034600038872F839A878987BC87AB8784E090E071
:103470009E878D87188A1F861A8A198AB601CE01FF
:1034800043960E9484064C01801A910A81E00E94B2
:103490003A02682D81E00E946602692D81E00E9457
:1034A00066020FB6F894DEBF0FBECDBF8114910443
:1034B00001F15801E12CF12C0CC0F50161915F0183
:1034C00081E00E946602FFEFEF1AFF0A8E149F044C
:1034D00081F0C7018F739927892B79F781E00E94CA
:1034E000CC048111EACF81E00E94CC048823B1F39F
:1034F000E4CF81E00E944D0281E00E943A0281E027
:103500000E94CC048823D9F36FEF81E00E9431043C
:1035100080937E056FEF81E00E94310480937F05E8
:1035200081E00E944D0281E00E94CC048130D9F3F9
:1035300060919C0770919D07072E000C880B990BDA
:103540000E9458389B01AC0160E070E080E090E49C
:103550000E947A399B01AC0160911D0270911E029C
:1035600080911F02909120020E94AE379F938F930B
:103570007F936F938EE594E09F938F93DF92CF922A
:103580000E94023D8091B4079091B507A091B607C3
:10359000B091B70721E031E03A8329832BE030E096
:1035A0003C832B8328E839E03E832D8320EB34E0F5
:1035B00038872F839A878987BC87AB8785E090E01F
:1035C0009E878D87188A1F861A8A198AB601CE01AE
:1035D00043960E9484064C01801A910A81E00E9461
:1035E0003A02682D81E00E946602692D81E00E9406
:1035F00066020FB6F894DEBF0FBECDBF81149104F2
:1036000001F15801E12CF12C0CC0F50161915F0131
:1036100081E00E946602FFEFEF1AFF0A8E149F04FA
:1036200081F0C7018F739927892B79F781E00E9478
:10363000CC048111EACF81E00E94CC048823B1F34D
:10364000E4CF81E00E944D0281E00E943A0281E0D5
:103650000E94CC048823D9F36FEF81E00E943104EB
:1036600080937E056FEF81E00E94310480937F0597
:1036700081E00E944D0281E00E94CC048130D9F3A8
:103680008091B4079091B507A091B607B091B707A4
:1036900021E031E03A8329832AE030E03C832B8328
:1036A00028E839E03E832D8320E734E038872F83F4
:1036B0009A878987BC87AB8783E090E09E878D8758
:1036C000188A1F861A8A198A63E674E0CE01439627
:1036D0000E9484064C01801A910A81E00E943A02FD
:1036E000682D81E00E946602692D81E00E946602D9
:1036F0008114910401F15801E12CF12C0CC0F50169
:1037000061915F0181E00E946602FFEFEF1AFF0AFC
:103710008E149F0481F0C7018F739927892B79F745
:1037200081E00E94CC048111EACF81E00E94CC04A8
:103730008823B1F3E4CF81E00E944D0281E00E9432
:103740003A0281E00E94CC048823D9F36FEF81E034
:103750000E94310480937E056FEF81E00E94310466
:1037600080937F0581E00E944D0281E00E94CC049D
:103770008130D9F380E093E09A83898389E090E0F7
:103780009C838B8381E00E943A0264E081E00E9486
:10379000660260E081E00E9466025801EE24E39434
:1037A000F12C0FC0F501608181E00E946602F4E017
:1037B000EF16F104A9F02FEFE21AF20A3FEFA31A75
:1037C000B30A81E0E816F10469F781E00E94CC04B5
:1037D0008823D9F3F501608181E00E946602EBCF76
:1037E00081E00E944D0281E00E943A0281E00E9445
:1037F000CC048823D9F36FEF81E00E9431048093D9
:103800007E056FEF81E00E94310480937F0581E0A7
:103810000E944D0281E00E94CC048130D9F3809156
:10382000B207811136C38FEF90E02FEF3FEF42E5F3
:1038300051E05A8349833C832B839E838D8381E0AF
:103840000E943A0266E081E00E94660260E081E048
:103850000E9466025801EE24E394F12C0FC0F5019A
:10386000608181E00E946602F6E0EF16F104A9F0A3
:103870002FEFE21AF20A3FEFA31AB30A81E0E8162B
:10388000F10469F781E00E94CC048823D9F3F501A3
:10389000608181E00E946602EBCF81E00E944D02D0
:1038A00081E00E943A0281E00E94CC048823D9F38F
:1038B0006FEF81E00E94310480937E056FEF81E01D
:1038C0000E94310480937F0581E00E944D0281E0D7
:1038D0000E94CC048130D9F380E591E09A838983FA
:1038E00080E792E09C838B8388E792E09E838D83C0
:1038F00088EF94E098878F839A87898781E00E9478
:103900003A026AE081E00E94660260E081E00E9483
:1039100066025801EE24E394F12C0FC0F50160819A
:1039200081E00E946602FAE0EF16F104A9F02FEFA1
:10393000E21AF20A3FEFA31AB30A81E0E816F10493
:1039400069F781E00E94CC048823D9F3F5016081F6
:1039500081E00E946602EBCF81E00E944D0281E08F
:103960000E943A0281E00E94CC048823D9F36FEFD1
:1039700081E00E94310480937E056FEF81E00E9418
:10398000310480937F0581E00E944D0281E00E9416
:10399000CC048130D9F380919A0790919B070196CE
:1039A0009F938F9386E694E09F938F93DF92CF92BD
:1039B0000E94023D8091B4079091B507A091B6078F
:1039C000B091B70721E031E03A83298320E130E06C
:1039D0003C832B8320E832E03E832D8338872F837E
:1039E0009A878987BC87AB8784E090E09E878D8724
:1039F000188A1F861A8A198AB601CE0143960E9438
:103A000084064C01801A910A81E00E943A02682DD6
:103A100081E00E946602692D81E00E9466020F909B
:103A20000F900F900F900F900F908114910401F15F
:103A30005801E12CF12C0CC0F50161915F0181E08E
:103A40000E946602FFEFEF1AFF0A8E149F0481F0B6
:103A5000C7018F739927892B79F781E00E94CC04E5
:103A60008111EACF81E00E94CC048823B1F3E4CF36
:103A700081E00E944D0281E00E943A0281E00E94B2
:103A8000CC048823D9F36FEF81E00E943104809346
:103A90007E056FEF81E00E94310480937F0581E015
:103AA0000E944D0281E00E94CC048130D9F380E075
:103AB00093E09A83898384E090E09C838B8381E008
:103AC0000E943A0264E081E00E94660260E081E0C8
:103AD0000E9466025801EE24E394F12C0FC0F50118
:103AE000608181E00E946602F4E0EF16F104A9F023
:103AF0002FEFE21AF20A3FEFA31AB30A81E0E816A9
:103B0000F10469F781E00E94CC048823D9F3F50120
:103B1000608181E00E946602EBCF81E00E944D024D
:103B200081E00E943A0281E00E94CC048823D9F30C
:103B30006FEF81E00E94310480937E056FEF81E09A
:103B40000E94310480937F0581E00E944D0281E054
:103B50000E94CC048130D9F3E0919A07F0919B0741
:103B6000EA54F94F808181118FC18FEF90E026E6F2
:103B700036E642E551E05A8349833C832B839E839A
:103B80008D8381E00E943A0266E081E00E94660235
:103B900060E081E00E9466025801EE24E394F12C7B
:103BA0000FC0F501608181E00E946602F6E0EF1629
:103BB000F104A9F02FEFE21AF20A3FEFA31AB30AB9
:103BC00081E0E816F10469F781E00E94CC048823C3
:103BD000D9F3F501608181E00E946602EBCF81E0BC
:103BE0000E944D0281E00E943A0281E00E94CC04D2
:103BF0008823D9F36FEF81E00E94310480937E0522
:103C00006FEF81E00E94310480937F0581E00E9484
:103C10004D0281E00E94CC048130D9F380E591E02F
:103C20009A83898380E792E09C838B8388E797E07F
:103C30009E838D8388EF94E098878F839A87898706
:103C400081E00E943A026AE081E00E94660260E040
:103C500081E00E9466025801EE24E394F12C0FC02B
:103C6000F501608181E00E946602FAE0EF16F1043E
:103C7000A9F02FEFE21AF20A3FEFA31AB30A81E08C
:103C8000E816F10469F781E00E94CC048823D9F397
:103C9000F501608181E00E946602EBCF81E00E9425
:103CA0004D0281E00E943A0281E00E94CC04882308
:103CB000D9F36FEF81E00E94310480937E056FEFAE
:103CC00081E00E94310480937F0581E00E944D02D3
:103CD00081E00E94CC048130D9F3E0919A07F09101
:103CE0009B07EA54F94F80818111FBC061E374E0C6
:103CF000C6010E940F3C8091B4079091B507A09136
:103D0000B607B091B70721E031E03A8329832FE06D
:103D100030E03C832B8320E832E03E832D8320E893
:103D200037E038872F839A878987BC87AB8784E001
:103D300090E09E878D87188A1F861A8A198AB60195
:103D4000CE0143960E9484066C01C01AD10A81E01C
:103D50000E943A026C2D81E00E9466026D2D81E086
:103D60000E946602C114D104F9F0E12CF12C0CC0C0
:103D7000F80161918F0181E00E946602FFEFEF1A66
:103D8000FF0ACE14DF0481F097012F733327232B12
:103D900079F781E00E94CC048111EACF81E00E9492
:103DA000CC048823B1F3E4CF81E00E944D0281E08E
:103DB0000E943A0281E00E94CC048823D9F36FEF7D
:103DC00081E00E94310480937E056FEF81E00E94C4
:103DD000310480937F0581E00E944D0281E00E94C2
:103DE000CC048130D9F381E00E943A0262E081E0A4
:103DF0000E94660260E081E00E94660281E00E940B
:103E0000CC048823D9F361E881E00E94660261E076
:103E100081E00E94660281E00E944D0281E00E94E2
:103E20003A0281E00E94CC048823D9F36FEF81E04D
:103E30000E94310480937E056FEF81E00E9431047F
:103E400080937F0581E00E944D0281E00E94CC04B6
:103E50008130D9F3C25BDE4F0FB6F894DEBF0FBEE0
:103E6000CDBFDF91CF911F910F91FF90EF90DF9029
:103E7000CF90BF90AF909F908F907F906F905F900A
:103E80004F903F902F90089589E890E027E83FED0C
:103E900070CE8DEA90E026EE38EDC9CC8DEA90E048
:103EA00026EE38EDF3C98DEA90E026EE38ED0C945D
:103EB0001C178DEA90E026EE38ED0C948E158DEAF5
:103EC00090E026EE38ED0C94831289E890E027E824
:103ED0003FED0C94D3108DEA90E026EE38ED0C9473
:103EE000970E6EE274E004CF0F931F93CF93DF938E
:103EF00081E00E943A0262E081E00E94660260E096
:103F000081E00E94660281E00E94CC048823D9F3FC
:103F100062E081E00E94660263E081E00E94660246
:103F200081E00E944D0281E00E943A020EE715E016
:103F3000C1E0D0E00CC06FEF81E00E943104F801D5
:103F40008083CA30D10591F021960F5F1F4FC13099
:103F5000D10589F781E00E94CC048823D9F36FEF63
:103F600081E00E943104F8018083EECF81E00E945D
:103F70004D0281E00E94CC048130D9F3809181050B
:103F800090E0982F882720918005822B9093A80796
:103F90008093A7078091830590E0982F8827209130
:103FA0008205822B9093A6078093A50780918505B3
:103FB00090E0982F882720918405822B9093A40766
:103FC0008093A3072091870530E0322F222740916C
:103FD0008605242B3093A00720939F0781309105FD
:103FE00059F010929E079093A2078093A107DF914A
:103FF000CF911F910F9108952091A1073091A207B1
:10400000232B79F720919E072111EBCF21E02093FC
:104010009E07E9CF2091A3073091A40721303105F5
:1040200019F0FC01108208952091A1073091A20798
:10403000232BB9F7FC0120812111F3CF21E020834C
:104040000895149828E130E088EF90E0A0E0B0E017
:1040500009C0169A159AB695A795979587952150F8
:10406000310929F0159880FDF4CF1698F3CF149AF2
:104070002FEF81EE94E0215080409040E1F700C0A6
:1040800000000895CF93DF93989AA09AE1E0F1E0C1
:1040900080818B7F8083E2E0F1E080818B7F808371
:1040A000999AA1989B9AA398579A5F9A8FEF81B992
:1040B00080EF809304018FE087B981E982B918B855
:1040C0000E94EA090E94E1062FEF41EE54E02150E0
:1040D00040405040E1F700C000000E942120E091E4
:1040E0009A07F0919B0728B1C3E0D0E0CF01BE0151
:1040F0000E94FD36AF01481B590BCA01BE010E9448
:10410000FD3681E090E001C0880F6A95EAF780955E
:104110002F60282328B95FEF89E698E1515080404D
:104120009040E1F700C00000DF91CF910895CF9358
:10413000DF93FC01C3E0D0E0BE010E94FD369C018C
:1041400048B1CF01821B930BBE010E94FD3681E076
:1041500090E001C0880F6A95EAF780954F60482388
:1041600048B9822F880F8F5F90E0982F8827876645
:104170009063149820E130E007C01698159A880FD4
:10418000991F2150310951F0159897FFF6CF169AD3
:10419000159A880F991F21503109B1F7169888E0B8
:1041A00090E01598159A0197E1F7149ADF91CF9155
:1041B00008950F931F93CF93DF93E0919A07F091A7
:1041C0009B0703E010E0CF01B8010E94FD36EC012F
:1041D00028B1CF018C1B9D0BB8010E94FD3641E038
:1041E00050E001C0440F6A95EAF740952F60242300
:1041F00028B9E0919A07F0919B07EE0FFF1FEE534D
:10420000F94F208131813063CC0FC9019C2B149868
:1042100020E130E007C01698159A880F991F2150A9
:10422000310951F0159897FFF6CF169A159A880F15
:10423000991F21503109B1F7169888E090E0159840
:10424000159A0197E1F7149ADF91CF911F910F9181
:1042500008952F923F924F925F926F927F928F922A
:104260009F92AF92BF92CF92DF92EF92FF920F9305
:104270001F93CF93DF9393B103B1809130028823D2
:1042800009F459C0E9EAF7E0C0E0D0E0819181117A
:1042900004C02196CA30D105C9F796FB112710F941
:1042A0008091930881115AC08091920805FB0027E4
:1042B00000F98111BFC080919108882389F0809115
:1042C0008308873008F006C18F5F809383088730AA
:1042D00009F400C1002321F0109291081092830884
:1042E00080919008882389F080918208873008F0B7
:1042F00041C18F5F80938208873009F43BC111234D
:1043000021F0109290081092820880918E0890916E
:104310009408891741F020918C0830918D08C217BC
:10432000D30709F485C110928E0810929408D09397
:104330008D08C0938C08DF91CF911F910F91FF9052
:10434000EF90DF90CF90BF90AF909F908F907F9035
:104350006F905F904F903F902F90089580919208BA
:104360008823C1F0C130D1050CF453C1C430D1054C
:1043700024F02897229708F04CC1109291081092CF
:10438000830810929008109282081092930810925D
:104390009208D1CF80919108811133C191E090931F
:1043A0009008111133C1C330D10509F488C20CF44F
:1043B000F6C5C830D10509F47FC6C930D105B1F5BD
:1043C0005F988FE19EE40197F1F700C00000E09054
:1043D0009A07F0909B0791E0E91AF108B7010F2CBA
:1043E000000C880B990B0E9458384B015C01C0905F
:1043F0002902D0902A02B60180E090E00E9456384F
:104400009B01AC01C501B4010E94083918160CF4D7
:104410009DC620E030E0A901C501B4010E94A93782
:1044200087FD7601F0929B07E0929A075F9A809150
:104430009208ECC090919008911193C091E09093F4
:104440009108011194C0C330D10509F49CC20CF449
:104450005BC5C830D10509F4EDC5C930D105B1F54A
:104460005F988FE19EE40197F1F700C00000E090B3
:104470009A07F0909B079FEFE91AF90AB7010F2CF2
:10448000000C880B990B0E9458384B015C01C090BE
:104490002902D0902A02B60180E090E00E945638AE
:1044A0009B01AC01C501B4010E94083918160CF437
:1044B00044C620E030E0A901C501B4010E94A9373B
:1044C00087FD7601F0929B07E0929A075F9A8091B0
:1044D00091084DC0C330D10509F45CC30CF4B7C2D8
:1044E000C830D10509F479C1C930D105B1F55F985B
:1044F0008FE19EE40197F1F700C00000E0909A0779
:10450000F0909B0792E0E90EF11CB7010F2C000C14
:10451000880B990B0E9458384B015C01C09029020E
:10452000D0902A02B60180E090E00E9456389B01AC
:10453000AC01C501B4010E94083918160CF4B9C5C4
:1045400020E030E0A901C501B4010E94A93787FD30
:104550007601F0929B07E0929A075F9A1092830887
:10456000B9CE109290081092820880919108109212
:104570009208A3CEC330D10509F470C30CF4B2C2C3
:10458000C830D10509F462C1C930D105B1F55F98D1
:104590008FE19EE40197F1F700C00000E0909A07D8
:1045A000F0909B0792E0E91AF108B7010F2C000C7C
:1045B000880B990B0E9458384B015C01C09029026E
:1045C000D0902A02B60180E090E00E9456389B010C
:1045D000AC01C501B4010E94083918160CF466C577
:1045E00020E030E0A901C501B4010E94A93787FD90
:1045F0007601F0929B07E0929A075F9A10928208E8
:104600007ECE109291081092830880E01092930859
:104610004DCE84E0809384085F982FEF3DEE82E0DA
:10462000215030408040E1F700C000005F9AA5CEE5
:10463000192F181BC330D10509F485C30CF45EC0D3
:10464000C830D10509F40CC4C930D10509F04EC0F9
:1046500087E61802812D11248595859517FD839590
:10466000182F811194C560919A0770919B07072EAE
:10467000000C880B990B0E9458386B017C01612F4C
:10468000012E000C770B880B990B0E94583820E004
:1046900030E048E453E40E94AE379B01AC01C7010F
:1046A000B6010E943D376B017C01A0902902B090B9
:1046B0002A02B50180E090E00E9456389B01AC01CF
:1046C000C701B6010E94083918160CF433C520E062
:1046D00030E0A901C701B6010E94A93787FF62C572
:1046E0002A2D8B2D20939A0780939B07112321F06D
:1046F00010928E08109294085F9A19CEC130D1059D
:10470000A9F787E61802812D11248595859517FD57
:104710008395182F811123C5E0909A07F0909B078D
:10472000EE0CFF1CF701EE53F94F60817181072EEB
:10473000000C880B990B0E9458384B015C01612FCB
:10474000012E000C770B880B990B0E94583820E043
:1047500030E048E453E40E94AE379B01AC01C50150
:10476000B4010E943D37B62EC72ED82E092F609176
:10477000210270912202072E000C880B990B0E94D7
:104780005838762E872E982EA92E262F372F482F71
:10479000592F6B2D7C2D8D2D902F0E9408391816C6
:1047A0001CF4B72C64010A2D20E030E0A9016B2D28
:1047B0007C2D8D2D902F0E94A93787FDF0C46B2D85
:1047C0007C2D8D2D902F0E942038F701EE53F94F4C
:1047D000718360830E94D92089CF5F98EFE1FEE466
:1047E0003197F1F700C00000E0909C07F0909D0722
:1047F000FFEFEF1AFF0AB7010F2C000C880B990B83
:104800000E9458384B015C01C0902702D0902802CA
:10481000B6010D2C000C880B990B0E9458389B0197
:10482000AC01C501B4010E94083918160CF47CC40F
:1048300020E030E0A901C501B4010E94A93787FF3B
:104840006701D0929D07C0929C0787CE5F98EFE1E9
:10485000FEE43197F1F700C00000E0909C07F09073
:104860009D07F1E0EF1AF108B7010F2C000C880B3F
:10487000990B0E9458384B015C01C0902702D090E0
:104880002802B6010D2C000C880B990B0E94583899
:104890009B01AC01C501B4010E94083918160CF443
:1048A00002C420E030E0A901C501B4010E94A9378B
:1048B00087FF6701D0929D07C0929C079ECE5F98AC
:1048C0008FE19EE40197F1F700C0000080909A0705
:1048D00090909B07E0909C07F0909D07880C991C96
:1048E000880C991CF401EE0DFF1DEE0FFF1FE65C16
:1048F000F84F6081718161507109072E000C880B9F
:10490000990B0E9458383B015C01C0902502D09061
:104910002602B6010D2C000C880B990B0E9458380A
:104920001B012C019B01AC01B301C5010E94083998
:10493000181614F431015201662777276C197D0986
:10494000072E000C880B990B0E9458382B016C0124
:104950009B01AC01B301C5010E94A93787FF02C0CA
:1049600032015601E80CF91CC701880F991FFC01A0
:10497000E65CF84F7F01B301C5010E942038F701C2
:104980007183608353CD5F98EFE1FEE43197F1F7D7
:1049900000C0000080909A0790909B07E0909C07D1
:1049A000F0909D07880C991C880C991CF401EE0D61
:1049B000FF1DEE0FFF1FE65CF84F608171816F5F96
:1049C0007F4F072E000C880B990B0E9458383B0133
:1049D0005C01C0902502D0902602B6010D2C000C7F
:1049E000880B990B0E9458381B012C019B01AC01CC
:1049F000B301C5010E940839181614F4310152019F
:104A0000662777276C197D09072E000C880B990BF8
:104A10000E9458382B016C019B01AC01B301C50108
:104A20000E94A93787FF02C032015601E80CF91C29
:104A3000C701880F991F9C01265C384F7901B3018B
:104A4000C5010E942038F701718360833FCDC130DA
:104A5000D10509F082CD5F988FE19EE40197F1F7CF
:104A600000C00000E0909A07F0909B07EE0CFF1C3E
:104A7000F701EE53F94F608171816C5E7F4F072E15
:104A8000000C880B990B0E9458385B016C016091F7
:104A9000210270912202072E000C880B990B0E94B4
:104AA00058383B014C019B01AC01B501C6010E9485
:104AB0000839181614F45301640120E030E0A9010C
:104AC000B501C6010E94A93787FD3DC3B501C601E6
:104AD0000E942038F701EE53F94F718360830E94E2
:104AE000D9203BCDC130D10509F087CD5F988FE14A
:104AF0009EE40197F1F700C00000E0909A07F09063
:104B00009B07EE0CFF1CF701EE53F94F608171819A
:104B100064517109072E000C880B990B0E945838BC
:104B2000B62EC72ED82E092F609121027091220235
:104B3000072E000C880B990B0E945838762E872E72
:104B4000982EA92E262F372F482F592F6B2D7C2DCD
:104B50008D2D902F0E94083918161CF4B72C640173
:104B60000A2D20E030E0A9016B2D7C2D8D2D902F9A
:104B70000E94A93787FDF0C26B2D7C2D8D2D902FC3
:104B80000E942038F701EE53F94F718360830E9431
:104B9000D92033CD5F98EFE1FEE43197F1F700C003
:104BA000000080909A0790909B07E0909C07F090FF
:104BB0009D07880C991C880C991CF401EE0DFF1DB3
:104BC000EE0FFF1FE65CF84F60817181665F7F4FDB
:104BD000072E000C880B990B0E9458383B015C0192
:104BE000C0902502D0902602B6010D2C000C880B37
:104BF000990B0E9458381B012C019B01AC01B30199
:104C0000C5010E940839181614F4310152016627B3
:104C100077276C197D09072E000C880B990B0E94D1
:104C200058382B016C019B01AC01B301C5010E94F6
:104C3000A93787FF02C032015601E80CF91CC701F1
:104C4000880F991F9C01265C384F7901B301C5017B
:104C50000E942038F701718360837FCC5F98EFE179
:104C6000FEE43197F1F700C0000080909A07909021
:104C70009B07E0909C07F0909D07880C991C880C7E
:104C8000991CF401EE0DFF1DEE0FFF1FE65CF84FBF
:104C9000608171816A507109072E000C880B990B95
:104CA0000E945838762EA72EB82E092FC0902502C4
:104CB000D0902602B6010D2C000C880B990B0E9497
:104CC0005838362E472E582E692E262F372F482F2C
:104CD000592F672D7A2D8B2D902F0E940839181689
:104CE0001CF4732C5201062D662777276C197D0959
:104CF000072E000C880B990B0E945838562E672EF1
:104D00006C01262F372FAC01672D7A2D8B2D902F1C
:104D10000E94A93787FF04C0752CA62CBC2C0D2D32
:104D2000E80CF91CC701880F991F9C01265C384FBD
:104D30007901672D7A2D8B2D902F0E942038F70155
:104D4000718360835ACC87E61802812D11248595E2
:104D5000859517FD8395182F811109C280909A07B8
:104D600090909B07E0909C07F0909D07880C991C01
:104D7000880C991CF401EE0DFF1DEE0FFF1FE65C81
:104D8000F84F60817181072E000C880B990B0E94EF
:104D900058382B013C01612F012E000C770B880B3A
:104DA000990B0E94583820E030E048E453E40E9418
:104DB000AE379B01AC01C301B2010E943D37762E94
:104DC000A72EB82E092FC0902502D0902602B6013A
:104DD0000D2C000C880B990B0E945838362E472E4C
:104DE000582E692E262F372F482F592F672D7A2DB1
:104DF0008B2D902F0E94083918161CF4732C520129
:104E0000062D662777276C197D09072E000C880B65
:104E1000990B0E945838562E672E6C01262F372F7B
:104E2000AC01672D7A2D8B2D902F0E94A93787FF1B
:104E300004C0752CA62CBC2C0D2DE80CF91CC70148
:104E4000880F991F9C01265C384F7901672D7A2DB8
:104E50008B2D902F0E942038F7017183608346CC00
:104E600087E61802812D11248595859517FD839578
:104E7000182F811184C160919C0770919D07072EA6
:104E8000000C880B990B0E9458386B017C01612F34
:104E9000012E000C770B880B990B0E94583820E0EC
:104EA00030E048E453E40E94AE379B01AC01C701F7
:104EB000B6010E943D374B015C01E0902702F09063
:104EC0002802B7010F2C000C880B990B0E94583850
:104ED0009B01AC01C501B4010E94083918160CF4FD
:104EE00026C120E030E0A901C501B4010E94A93724
:104EF00087FD05C0C501B4010E9420387B01F092F6
:104F00009D07E0929C07F2CBC130D10509F0DECAC3
:104F10005F988FE19EE40197F1F700C00000E090F8
:104F20009A07F0909B07EE0CFF1CF701EE53F94F28
:104F3000608171816F5F7F4F072E000C880B990B8A
:104F40000E9458385B016C0160912102709122022D
:104F5000072E000C880B990B0E9458383B014C011E
:104F60009B01AC01B501C6010E940839181614F462
:104F70005301640120E030E0A901B501C6010E949F
:104F8000A93787FD19C1B501C6010E942038F70174
:104F9000EE53F94F718360830E94D92097CAC130C4
:104FA000D10509F043CA5F98EFE1FEE43197F1F7CC
:104FB00000C00000E0909A07F0909B07EE0CFF1CE9
:104FC000F701EE53F94F6081718161507109072E2D
:104FD000000C880B990B0E9458385B016C016091A2
:104FE000210270912202072E000C880B990B0E945F
:104FF00058383B014C019B01AC01B501C6010E9430
:105000000839181614F45301640120E030E0A901B6
:10501000B501C6010E94A93787FDCBC0B501C60105
:105020000E942038F701EE53F94F718360830E948C
:10503000D920FCC95F98EFE1FEE43197F1F700C099
:105040000000E0909C07F0909D07FFEFEF1AFF0A29
:10505000B7010F2C000C880B990B0E9458384B019C
:105060005C01C0902702D0902802B6010D2C000CE4
:10507000880B990B0E9458389B01AC01C501B40103
:105080000E94083918160CF464C020E030E0A90131
:10509000C501B4010E94A93787FF6701D0929D071F
:1050A000C0929C0713CAC12CD12C04CCE12CF12C4A
:1050B000A0CAE12CF12C4DCA5F98EFE1FEE43197D4
:1050C000F1F700C00000E0909C07F0909D07F1E030
:1050D000EF1AF108B7010F2C000C880B990B0E94F6
:1050E00058384B015C01C0902702D0902802B601CD
:1050F0000D2C000C880B990B0E9458389B01AC01B9
:10510000C501B4010E9408391816D4F020E030E03F
:10511000A901C501B4010E94A93787FF6701D09298
:105120009D07C0929C0782C9C12CD12C8ACBE12C4F
:10513000F12CE5CE20E080E0D5CAE12CF12CC2C9EB
:10514000C12CD12CECCF60E070E0C4CCE12CF12C70
:1051500069C9C12CD12CA2CF60E070E013CD5F985B
:105160008FE99FE00197F1F700C00000D5CA5F9872
:10517000EFE9FFE03197F1F700C00000EFCD5F9855
:10518000EFE9FFE03197F1F700C0000074CE5F98BF
:105190008FE99FE00197F1F700C0000064CA60E06A
:1051A00070E013CBC701B6010E942038262F872F4D
:1051B00099CA60E070E036CF60E070E0E8CECF934F
:1051C000DF93FC0128B1C3E0D0E0BE010E94FD36B0
:1051D000AF01481B590BCA01BE010E94FD3681E098
:1051E00090E001C0880F6A95EAF780952F60282328
:1051F00028B9DF91CF910895CF92DF92EF92FF927D
:105200000F931F93CF93DF93FC01362F7A011098F1
:10521000109A53E0C52ED12CB6010E94FD362BEF1B
:10522000AC0124038001259F100D1124E81BF90B0C
:10523000C8B1CF01B6010E94FD3681E090E001C007
:10524000880F6A95EAF78095CF60C823C8B9C8016E
:105250000E9602C0EE0CFF1C8A95E2F7232F30E079
:10526000035F1F4F02C0220F331F0A95E2F72E295A
:105270003F29276C3861EF01CA54D94F8F010D5F68
:105280001F4FEE24E394F12C89918823C1F0CF01C4
:10529000B6010E94FD364BEFBC014603D001479F8B
:1052A000B00D1124CD010C96B70102C0660F771F17
:1052B0008A95E2F7CB018095909528233923319682
:1052C000E017F10709F780E190E006C0139A119A00
:1052D00036952795019749F0119820FDF7CF13983F
:1052E000119A369527950197B9F7129A82B1817F65
:1052F00082B9DF91CF911F910F91FF90EF90DF90D6
:10530000CF90089580911C028111A4C080918206E3
:105310009091830620917E0630917F06FC01EE0F6E
:10532000FF1FEE0FFF1FE20FF31FEE0FFF1FE652EE
:10533000F94F40815181452B09F43FC0F901E656F0
:10534000F94F20812111A1C021E030E040910501F9
:1053500063E070E00E94FD36BC016C5F7F4F81E02E
:1053600090E001C0880F6A95EAF7482B4093050149
:10537000EFE1FEE43197F1F700C0000090910501E4
:105380008095892380930501E0918206F091830640
:1053900080917E0690917F06EE0FFF1FEE0FFF1F9C
:1053A000E80FF91FEE0FFF1FE652F94F8081918140
:1053B000280F391F318320830895233031050CF4E1
:1053C0005AC0609127027091280277FD17C0FC0136
:1053D000EE0FFF1FEE0FFF1FEE0FFF1FDF01A65C9A
:1053E000B84FE652F94F20E030E04D915D91419386
:1053F00051932F5F3F4F62177307BCF7FC01E05FCB
:10540000FD4F21E0208310928306109282061092B5
:105410007F0610927E0640918006509181061416F8
:10542000150674F4E2E8F6E09A01220F331F2E57B6
:10543000394F8281938181939193E217F307C9F7E2
:1054400041505109509381064093800681E080933A
:105450001C02089540917E0650917F06FA01E6569F
:10546000F94F608180918206909183060E94FC280A
:1054700010921C024BCF2F5F3F4F30937F0620933B
:105480007E0681E080931C0208952FEF3FEF5ECFF0
:105490008091800690918106892B11F00C948229CD
:1054A00008952F923F924F925F926F927F928F92C8
:1054B0009F92AF92BF92CF92DF92EF92FF920F93A3
:1054C0001F93CF93DF93C0902702D0902802D7FC80
:1054D000CBC040909A0750909B0712013201660C96
:1054E000771C660C771C660C771CC301865C984F92
:1054F0004C0183010652194FE0E0F0E021E030E07A
:1055000040E0A12CB12CD4018D919D914D01D80189
:105510006D917C9111977C01E61AF70AED92FD924C
:105520008D01880F991F880F991F880F991FB90146
:105530000E94FD36EB01CA0DDB1DC770D078D7FD88
:10554000A6C05E01220F331FEF2809F041E031961B
:10555000CE16DF06C4F6442309F4A0C0209709F450
:105560005DC061E01C161D060CF460E043E050E0F5
:10557000C2010E94FC28FE01D7FDA7C080919A07B6
:1055800090919B0763E070E00E94FD369C012C5FC8
:105590003F4F309701F181E090E001C0880F2A95DC
:1055A000EAF7482F982F909520E030E08091050190
:1055B000842B80930501AFE1BEE41197F1F700C0A1
:1055C0000000809105018923809305012F5F3F4FE3
:1055D0002E173F0759F7BFEF20E782E0B150204078
:1055E0008040E1F700C0000020909A0730909B07B0
:1055F0003101660C771C660C771C660C771CF30176
:10560000E652F94F86819781C80FD91FD783C68389
:10561000C0902702D0902802D7FC12C0F301E652B6
:10562000F94FAAE9B6E0A6014556594F21913191AB
:1056300081E01216130684F58D93A417B507B1F710
:10564000F101E05FFD4F108280918006909181060C
:10565000FC01EE0FFF1FEE57F94F318220820196B9
:105660009093810680938006DF91CF911F910F91D7
:10567000FF90EF90DF90CF90BF90AF909F908F9072
:105680007F906F905F904F903F902F90089521975B
:10569000C86FDF6F219655CF80E0CECFF201EE0FBD
:1056A000FF1FEE0FFF1FEE0FFF1FDF01A65CB84FBD
:1056B000E652F94F80E090E02D913D912193319396
:1056C0000196C816D906C4F7CFCFEE27FF27EC1BEB
:1056D000FD0B54CFE0919F07F091A0073197E9307F
:1056E000F105D0F48827EE58FF4F8F4F0C941137F7
:1056F0005F988FE39FE10197F1F700C00000909160
:10570000AC0781E08927E9EAF7E0119297E0E43BF2
:10571000F907D9F78093AC075F9A08955F988FE3F4
:105720009FE10197F1F700C000009091B20781E07E
:105730008927E9EAF7E0119297E0E43BF907D9F706
:105740008093B2075F9A08955F988FE39FE1019776
:10575000F1F700C000009091AA0781E08927E9EAEB
:10576000F7E0119297E0E43BF907D9F78093AA0795
:105770005F9A08955F988FE39FE10197F1F700C06A
:1057800000009091AB0781E08927E9EAF7E01192E8
:1057900097E0E43BF907D9F78093AB075F9A089548
:1057A0005F988FE39FE10197F1F700C0000020911F
:1057B0009A0730919B07F901EA54F94F808191E0F3
:1057C0009827908340E050E060E0C9010E94FC28E7
:1057D000E9EAF7E0119297E0E43BF907D9F75F9A1D
:1057E00008955F988FE39FE10197F1F700C00000F3
:1057F0001092A9071092AA071092AB071092AC075B
:105800001092AD071092AF071092B0071092B10737
:105810001092B2071092B30720912702309128020C
:1058200037FD7ACFE0919A07F0919B07EE0FFF1FAB
:10583000EE0FFF1FEE0FFF1FDF01A652B94FE65C10
:10584000F84F80E090E01D921D9211921192019606
:1058500028173907C4F760CF5F988FE39FE101975E
:10586000F1F700C000001092A9071092AA07109249
:10587000AB071092AC071092AD071092AE071092D2
:10588000B0071092B1071092B2071092B307E091DF
:105890009A07F0919B07E05FFD4F8081882309F410
:1058A0003BCF0E94512A38CF5F988FE39FE1019749
:1058B000F1F700C000009091B10781E08927E9EA83
:1058C000F7E0119297E0E43BF907D9F78093B1072D
:1058D0005F9A08958091300281110C946A2B08958B
:1058E0000E94741F80919E07882321F080913002CE
:1058F000811101C008950C946A2B0E943B0D0C94F9
:10590000702CFB0163E070E00E94FD369C012C5F6F
:105910003F4F1E161F0604F581E090E001C0880F7E
:105920002A95EAF7482F982F909520E030E0809153
:105930000501842B80930501AFE1BEE41197F1F7D7
:1059400000C00000809105018923809305012F5F2D
:105950003F4F2E173F0759F7089525E030E080911B
:1059600005018061809305014FEF81EE94E0415085
:1059700080409040E1F700C00000809105018F7EDB
:10598000809305012150310951F70895FC0160838E
:105990000895EF92FF920F931F93CF93DF93EC0143
:1059A00088810E943A0260E088810E94310460E0B0
:1059B00088810E94310488810E944D0288810E9462
:1059C0003A0260E288810E943104182F60E08881E9
:1059D0000E943104082F88810E944D0288810E9414
:1059E0003A0260E288810E94310460E088810E946E
:1059F000310488810E944D0288810E943A0260E051
:105A000088810E943104F82E60E088810E94310470
:105A1000E82E88810E944D028E2D90E0A0E0B0E03B
:105A2000DC0199278827BF29802BBC01CD01712B70
:105A3000DF91CF911F910F91FF90EF900895FC019E
:105A400080810C94E0012F923F924F925F926F926F
:105A50007F928F929F92AF92BF92CF92DF92EF92FE
:105A6000FF920F931F93CF93DF93CDB7DEB763976A
:105A70000FB6F894DEBF0FBECDBF6C014B012A01FB
:105A8000FC0117821682838181FF43C3AE014F5F01
:105A90005F4F3A01F6019381F40193FD859193FFE5
:105AA00081914F01882309F430C3853239F493FD85
:105AB000859193FF81914F01853239F4B60190E0D1
:105AC0000E94863C52012501E5CF10E0F12C20E038
:105AD0002032A0F48B3269F030F4803259F08332F6
