:100000000C9486010C94B7010C94F70A0C94F70A2F
:100010000C94390B0C94B7010C94F70A0C94B701AB
:100020000C94B7010C94B7010C94B7010C94B70170
:100030000C94B7010C94B7010C94B7010C94B70160
:100040000C94B7010C94B7010C94B7010C94B70150
:100050000C94B7010C94B7010C94B7010C94B70140
:100060000C94B7010C94B7010C94B7010C94B70130
:100070000C94B7010C94B7010C94B7010C94B70120
:100080000C94B7010C94B7010C94B7010C94B70110
:100090000C94B7010C94B7010C94B7010C94B70100
:1000A0000C94B7010C94B7010C94B7010C94B701F0
:1000B0000C94B7010C94B7010C94B7010C94B701E0
:1000C0000C94B7010C94B7010C94B7010C94B701D0
:1000D0000C94B7010C94B7010C94B7010C94B701C0
:1000E0000C94B701B323C123CF23DD23EB23F923E2
:1000F0000724152423243124A5239E230763423695
:10010000B79BD8A71A39685618AEBAAB558C1D3CA8
:10011000B7CC5763BD6DEDFD753EF6177231BF006C
:100120000000803F08000000BE922449123EABAAA6
:10013000AA2ABECDCCCC4C3E00000080BEABAAAA01
:10014000AA3E00000000BF000000803F0000000049
:1001500000084178D3BB4387D1133D190E3CC3BD82
:100160004282AD2B3E68EC8276BED98FE1A93E4C2F
:1001700080EFFFBE01C4FF7F3F00000000000C9431
:10018000CF230C9487070C94DD230C9415240C9436
:1001900045300C949E230C9423240C9431240C940D
:1001A000C1230C94F9230C9407240C94EB230C9496
:1001B000B3230C9497070C94A5236E616E00696EAF
:1001C00066006364696E6F70737578585B65666707
:1001D00045464700616E006E66696E69747900CDB0
:1001E000CCCC3D0AD7233C17B7D13877CC2B3295EE
:1001F00095E6241FB14F0A000020410000C84200CC
:10020000401C4620BCBE4CCA1B0E5AAEC59D740095
:10021000407A10F35A00A0724E18090010A5D4E8D5
:100220000000E87648170000E40B54020000CA9A68
:100230003B000000E1F505000080969800000040BA
:10024000420F000000A086010000001027000000FF
:1002500000E803000000006400000000000A000045
:100260000000000100000000002C76D888DC674FF9
:100270000823DFC1DFAE59E1B1B796E5E3E453C629
:100280003AE651997696E8E6C28426EB898C9B6221
:10029000ED407C6FFCEFBC9C9F40F2BAA56FA5F4CB
:1002A00090055A2AF75C936B6CF9676DC11BFCE0F3
:1002B000E40D47FEF520E6B500D0ED902E03009446
:1002C0003577050080841E080000204E0A000000DB
:1002D000C80C333333330F986E12831141EF8D21E5
:1002E00014893BE65516CFFEE6DB18D1844B381B4C
:1002F000F77C1D901DA4BBE424203284725E228111
:1003000000C9F124ECA1E53D2700453011241FBEB2
:10031000CFEFD1E2DEBFCDBF00E00CBF13E0A0E025
:10032000B2E0EAE9FCE600E00BBF02C007900D92E4
:10033000AE37B107D9F724E0AEE7B3E001C01D92B4
:10034000A33DB207E1F713E0CCE0D3E000E006C044
:1003500022970109FE010BBF0E94B030CA30D107BD
:1003600080E00807A9F70E94BA2F0C944B360C9432
:100370000000279A08952F9A08952F9808951F9A9C
:1003800008950097D9F020E030E02F9A4FE75AE126
:1003900066E0415050406040E1F700C000002F98F7
:1003A0004FE75AE166E0415050406040E1F700C03D
:1003B00000002F5F3F4F2817390739F70895813024
:1003C00009F441C0823009F44BC0833009F472C093
:1003D000843009F47DC0853009F498C0863009F076
:1003E00008952FEF81EE94E0215080409040E1F796
:1003F00000C0000080910101846080930101809120
:1004000002018460809302018091010182608093E7
:1004100001018091020182608093020180910101BB
:1004200081608093010180910201816080930201CB
:1004300080910101877F8093010180910201877F74
:10044000809302010895809A889A6F9A779A839A86
:100450008B9A819A899A82988A986E98769808954C
:100460000B9A13982FEF81EE94E02150804090403A
:10047000E1F700C0000080910701806880930701C8
:100480008091080180688093080180910701826053
:100490008093070180910801826080930801809118
:1004A000070188608093070180910801886080932C
:1004B000080108950B9A13982FEF81EE94E02150D4
:1004C00080409040E1F700C00000099A119ADDCF0A
:1004D00080910401806180930401809105018F7EE9
:1004E000809305012FEF81EE94E0215080409040F1
:1004F000E1F700C000008091040180648093040152
:1005000080910501806480930501BFCF0F9A1798F1
:100510002FEF81EE94E0215080409040E1F700C041
:1005200000000D9A159A809107018260809307015F
:1005300080910801826080930801809107018860A2
:100540008093070180910801886080930801809161
:1005500007018F7D80930701809108018F7D809333
:1005600008010895813009F0089577988AE08A9506
:10057000F1F7779A81E08A95F1F70895813009F1D2
:10058000823011F1833059F1843081F0853071F17E
:10059000863009F008958091020182608093020103
:1005A000809102018B7F8093020108958091080160
:1005B0008D7F80930801809105018F7B80930501D9
:1005C00008958B9888980895809108018D7F809375
:1005D0000801809108018F77809308010895809128
:1005E00008018D7F8093080111980895809108017A
:1005F0008D7F8093080115980895813031F1823004
:1006000041F1833061F1843081F0853051F18630E1
:1006100009F0089580910201826080930201809127
:100620000201846080930201089580910501806435
:100630008093050180910801826080930801809178
:1006400008018860809308010895889A8B9A899A96
:10065000089580910801806880930801EBCF119A7A
:10066000E9CF159A8091080182608093080108956E
:10067000962F9078813009F4C1C0823029F0833000
:1006800019F0843009F0089580910801992309F444
:1006900038C188608093080181E08A95F1F78091E4
:1006A000080182608093080181E08A95F1F78091CA
:1006B00008018D7F8093080166FF1DC180910801AC
:1006C00088608093080181E08A95F1F780910801A4
:1006D00082608093080181E08A95F1F7809108019A
:1006E0008D7F8093080165FF00C1809108018860BB
:1006F0008093080181E08A95F1F78091080182607A
:100700008093080181E08A95F1F7809108018D7F3F
:100710008093080164FFE3C08091080188608093A2
:10072000080181E08A95F1F7809108018260809349
:10073000080181E08A95F1F7809108018D7F80930F
:10074000080163FFC6C0809108018860809308019A
:1007500081E08A95F1F78091080182608093080119
:1007600081E08A95F1F7809108018D7F80930801DF
:1007700062FFA9C08091080188608093080181E030
:100780008A95F1F78091080182608093080181E0E9
:100790008A95F1F7809108018D7F8093080161FFB0
:1007A0008CC08091080188608093080181E08A955F
:1007B000F1F78091080182608093080181E08A95B9
:1007C000F1F7809108018D7F8093080160FF6FC071
:1007D0008091080188608093080181E08A95F1F793
:1007E0008091080182608093080181E08A95F1F789
:1007F000809108018D7F809308010895911185C033
:10080000899881E08A95F1F78B9A81E08A95F1F7D2
:100810008B9866FF88C0899A81E08A95F1F78B9A58
:1008200081E08A95F1F78B9865FF7BC0899A81E01A
:100830008A95F1F78B9A81E08A95F1F78B9864FF9E
:100840006EC0899A81E08A95F1F78B9A81E08A954A
:10085000F1F78B9863FF61C0899A81E08A95F1F77F
:100860008B9A81E08A95F1F78B9862FF54C0899A40
:1008700081E08A95F1F78B9A81E08A95F1F78B9860
:1008800061FF47C0899A81E08A95F1F78B9A81E0F0
:100890008A95F1F78B9860FF3AC0899A81E08A9532
:1008A000F1F78B9A81E08A95F1F78B980895809102
:1008B0000801877F8093080190CF80910801877F8E
:1008C0008093080173CF80910801877F809308018E
:1008D00056CF80910801877F8093080139CF80919E
:1008E0000801877F809308011CCF80910801877FD2
:1008F00080930801FFCE80910801877F80930801D3
:10090000E2CE877F80930801C7CE899A7ACF8998F3
:10091000C5CF8998B8CF8998ABCF89989ECF899851
:1009200091CF899884CF899877CF813009F4BBC063
:10093000853011F080E0089581E08A95F1F780918B
:1009400008018260809308018091060191E09A95E8
:10095000F1F7909108019D7F9093080185FB88270E
:1009600080F9880F91E09A95F1F7909108019260D3
:10097000909308012091060191E09A95F1F79091EA
:1009800008019D7F9093080125FB992790F9892BF9
:10099000880F91E09A95F1F79091080192609093F9
:1009A00008012091060191E09A95F1F790910801D4
:1009B0009D7F9093080125FB992790F9892B880F3B
:1009C00091E09A95F1F79091080192609093080157
:1009D0002091060191E09A95F1F7909108019D7F91
:1009E0009093080125FB992790F9892B880F91E0B6
:1009F0009A95F1F7909108019260909308012091E7
:100A0000060191E09A95F1F7909108019D7F9093EE
:100A1000080125FB992790F9892B880F91E09A9579
:100A2000F1F79091080192609093080120910601DE
:100A300091E09A95F1F7909108019D7F90930801BC
:100A400025FB992790F9892B880F91E09A95F1F76A
:100A5000909108019260909308012091060191E025
:100A60009A95F1F7909108019D7F9093080125FBDD
:100A7000992790F9892B91E09A95F1F790910801C7
:100A80009260909308012091060191E09A95F1F708
:100A9000909108019D7F90930801880F25FB99276D
:100AA00090F9892B08958A95F1F78B9A8FB191E08F
:100AB0009A95F1F78B9882FB882780F9880F91E04F
:100AC0009A95F1F78B9A2FB191E09A95F1F78B985F
:100AD00022FB992790F9892B880F91E09A95F1F7DD
:100AE0008B9A2FB191E09A95F1F78B9822FB992779
:100AF00090F9892B880F91E09A95F1F78B9A2FB195
:100B000091E09A95F1F78B9822FB992790F9892B20
:100B1000880F91E09A95F1F78B9A2FB191E09A9511
:100B2000F1F78B9822FB992790F9892B880F91E098
:100B30009A95F1F78B9A2FB191E09A95F1F78B98EE
:100B400022FB992790F9892B880F91E09A95F1F76C
:100B50008B9A2FB191E09A95F1F78B9822FB992708
:100B600090F9892B91E09A95F1F78B9A2FB191E04A
:100B70009A95F1F78B98880F22FB992790F9892B8A
:100B80000895962F9078813009F4F3C0863011F0E3
:100B900080E0089580910201911174C18E7F80934D
:100BA000020181E08A95F1F79091000180910201A4
:100BB0008D7F8093020181E08A95F1F78091020197
:100BC00082608093020193FB992790F9990F66FF49
:100BD0008FC18091020181608093020181E08A953A
:100BE000F1F780910001209102012D7F20930201F5
:100BF00021E02A95F1F72091020122602093020161
:100C000083FB882780F9892B880F65FF6BC1909142
:100C1000020191609093020191E09A95F1F7909111
:100C20000001209102012D7F2093020121E02A95ED
:100C3000F1F72091020122602093020193FB992792
:100C400090F9982B990F64FF47C180910201816050
:100C50008093020181E08A95F1F780910001209153
:100C600002012D7F2093020121E02A95F1F72091C6
:100C7000020122602093020183FB882780F9892BDF
:100C8000880F63FF23C1909102019160909302014C
:100C900091E09A95F1F790910001209102012D7F4A
:100CA0002093020121E02A95F1F7209102012260B0
:100CB0002093020193FB992790F9982B990F62FFDB
:100CC000FFC08091020181608093020181E08A95DA
:100CD000F1F780910001209102012D7F2093020104
:100CE00021E02A95F1F72091020122602093020170
:100CF00083FB882780F9892B880F61FFDBC09091E7
:100D0000020191609093020191E09A95F1F7909120
:100D10000001209102012D7F2093020121E02A95FC
:100D2000F1F72091020122602093020193FB9927A1
:100D300090F9982B990F60FFB7C0809102018160F4
:100D40008093020181E08A95F1F780910001209162
:100D500002012D7F2093020121E02A95F1F72091D5
:100D6000020122602093020183FB882780F9892BEE
:100D70000895911185C0899881E08A95F1F78B9A41
:100D80009FB181E08A95F1F78B9892FB992790F9B2
:100D9000990F66FF7DC0899A81E08A95F1F78B9A59
:100DA0008FB121E02A95F1F78B9882FB882780F993
:100DB000892B880F65FF6AC0899A91E09A95F1F7AF
:100DC0008B9A9FB121E02A95F1F78B9892FB992796
:100DD00090F9982B990F64FF63C0899A81E08A95F6
:100DE000F1F78B9A8FB121E02A95F1F78B9882FB6E
:100DF000882780F9892B880F63FF50C0899A91E07A
:100E00009A95F1F78B9A9FB121E02A95F1F78B988B
:100E100092FB992790F9982B990F62FF3DC0899A10
:100E200081E08A95F1F78B9A8FB121E02A95F1F74D
:100E30008B9882FB882780F9892B880F61FF2AC055
:100E4000899A91E09A95F1F78B9A9FB121E02A95C2
:100E5000F1F78B9892FB992790F9982B990F60FFE7
:100E600021C0899A81E08A95F1F78B9A8FB121E0B0
:100E70002A95F1F78B9882FB882780F9892B0895B2
:100E8000899A7ACF8160809302018BCE899895CF21
:100E9000899882CF8998D5CF8998C2CF8998AFCFCA
:100EA00089989CCF8998DECF809102018E7F8093B4
:100EB000020148CF909102019E7F9093020124CFBE
:100EC000809102018E7F8093020100CF90910201F8
:100ED0009E7F90930201DCCE809102018E7F8093F1
:100EE0000201B8CE909102019E7F9093020194CEB0
:100EF000809102018E7F8093020170CE813011F0CB
:100F000080E008958CB186FB882780F90895CF93FF
:100F1000C82F8A3041F09091C00095FFFCCFC0935C
:100F2000C600CF9108958DE00E948707F4CFCF933C
:100F30008091C00087FFFCCFC091C60020917E0346
:100F400030917F03232B39F06091CF047091D0044E
:100F50008C2F0E9487078C2FCF9108951092C50087
:100F600089E18093C400E0ECF0E080818D7F808394
:100F700086E08093C20088E18093C10008951092BA
:100F8000C50089E18093C400E0ECF0E080818D7FB2
:100F9000808386E08093C20088E18093C100109234
:100FA0007F0310927E0380E092E09093CE048093C2
:100FB000CD049093D0048093CF04089590937F0341
:100FC00080937E03089510927F0310927E0308950C
:100FD000FC0160830895CF92DF92EF92FF92CF934E
:100FE000DF93EC016A017B0188810E94BE026C2DB7
:100FF00088810E943803B7018827992788810E9439
:10100000380399278F2D7E2D6D2D88810E943803FE
:101010008881DF91CF91FF90EF90DF90CF900C947B
:10102000FD02FC0180810C94DF01FC0160830895C6
:101030000F931F93CF93DF93EC018B0188810E9464
:10104000BE02B8010024660F771F001C660F771FD1
:10105000001C672F702D6F7388810E943803602FEA
:10106000660F660F88810E9438038881DF91CF91D7
:101070001F910F910C94FD02FC0180810C94DF0103
:101080000F931F93CF93DF938C01EB010E94E13408
:10109000FE0101900020E9F7EC1BFD0BC8018E0F4B
:1010A0009F1FDF91CF911F910F910895FC016083E5
:1010B00008950F931F93CF93DF93EC0188810E94D3
:1010C000BE0288810E94950488810E949504182F91
:1010D00088810E949504082F88810E94FD02802F3C
:1010E00090E0912BDF91CF911F910F910895FC011A
:1010F00080810C94DF01FC0160830895EF92FF92E0
:101100001F93CF93DF931F92CDB7DEB77C01162FCD
:10111000FC01808179830E94BE026981F701808190
:101120000E943803612FF70180810E943803F70184
:1011300080810F90DF91CF911F91FF90EF900C94E1
:10114000FD02FC0180810C94DF01089560E070E8ED
:1011500080EC94E00C947E0860931D0270931E0254
:1011600080931F02909320020E94E23125E93FEB19
:1011700046E55CE30E9472330E94B6316115710549
:1011800021E08207910520F06FEF7FEF80E090E093
:1011900080EC94E00C947E08CF92DF92EF92FF9265
:1011A00023E333E948E853E40E94B5309B01AC01E6
:1011B00060E070E080E89FE30E941D312FE03FEC8B
:1011C0004BE55BE30E94B4302AE93DE54EE655E489
:1011D0000E9472330E948A312AE93FED4DE156E4C4
:1011E0000E94723320E030E44CE956E40E941D3145
:1011F00020E030E040E85FE30E94B5306B017C0105
:1012000020E030E040E85FE30E94193187FF06C02C
:10121000C12CD12C30E8E32E3FE3F32E6091210264
:101220007091220280E090E00E94E231A7019601D5
:101230000E941D310E94B63180EC94E0FF90EF9047
:10124000DF90CF900C947E0860E070E087EB94E034
:101250000C9418089093180280931702BC0180E048
:1012600090E00E94E2312CEA35EC47E25FE30E9415
:1012700072330E94B631611580E1780710F06FEF8C
:101280007FE087EB94E00C94180840E050E0BA014E
:1012900083EB94E00C94EB07942F809316026093F9
:1012A000150240931402462F50E060E070E0582B86
:1012B000762F652F542F4427492B83EB94E00C9411
:1012C000EB07CF92DF92EF92FF92809116029091FE
:1012D000B6046091150240911402891709F45CC0AC
:1012E0000E944C09809116028093B60480911502E9
:1012F0008093B504809114028093B404C0901902C5
:10130000D0901A02E0901B02F0901C022091C104C0
:101310003091C2044091C3045091C404C701B60186
:101320000E941931811141C0C090BC04D090BD040D
:10133000E090BE04F090BF042091B8043091B9044D
:101340004091BA045091BB04C701B6010E94193103
:101350008823E9F020E030E04AE754E4C701B60111
:101360000E9472330E94B631CB010E942A098091FB
:10137000BC049091BD04A091BE04B091BF048093C1
:10138000B8049093B904A093BA04B093BB04FF903F
:10139000EF90DF90CF9008959091B5046913A0CF9E
:1013A0009091B40449139CCFA9CFC701B6010E9404
:1013B000CC088091190290911A02A0911B02B09161
:1013C0001C028093C1049093C204A093C304B09301
:1013D000C404AACF08958AEA94E00E945908BC0187
:1013E00080E090E00E94E23121E836E948E952E4E9
:1013F0000E9472330E94B6316093AF047093B004C0
:101400008093B1049093B20408958F929F92AF920B
:10141000BF92CF92DF92EF92FF928AEA94E00E940D
:1014200059085C01609112027091130280E090E013
:101430000E94E2316B017C01B50180E090E00E94E6
:10144000E2319B01AC01C701B6010E941D3120E0D1
:1014500030E040E85FE30E94B43020E030E44CE943
:1014600056E40E9472330E94FF326B017C0127EE2A
:1014700034E644E759E30E94723328EA35ED44E943
:101480005AE30E94B5304B015C0120E23AE645EC9C
:1014900053E3C701B6010E947233A70196010E946F
:1014A0007233A70196010E9472339B01AC01C50102
:1014B000B4010E94B5309B01AC0160E070E080E8AF
:1014C0009FE30E941D3123E333E948E853E40E947F
:1014D000B4306093AB047093AC048093AD049093EC
:1014E000AE04FF90EF90DF90CF90BF90AF909F90B1
:1014F0008F90089508958F929F92AF92BF92CF924E
:10150000DF92EF92FF928CE994E00E947E254B01DE
:101510005C017F70882799270E94E2312CED31E130
:101520004BE850E40E9472330E94B6316B017C019B
:101530006093A2047093A3048093A4049093A504E1
:10154000B501882799277F70882799270E94E23163
:1015500025EF32E84EE550E40E9472330E94B63126
:101560009B01AC016093A6047093A7048093A80428
:101570009093A904C701B6010E945E3028EE33E0C3
:1015800040E050E00E946E3020939E0430939F0410
:101590004093A0045093A1048091000185FB88270B
:1015A00080F980939D04CA01B901FF90EF90DF900C
:1015B000CF90BF90AF909F908F90089552985A9A75
:1015C000E9E6F0E0808180618083EA9A5198599A37
:1015D000808184608083E99A53985B9A80818068D7
:1015E0008083EB9A26982E9A25982D9A08951F921B
:1015F0000F920FB60F9211240BB60F922F933F93B9
:101600004F935F936F938F939F93EF93FF934091CB
:10161000CB04440F440F4093CB0459B169B161FB33
:10162000882780F990E0842B52FB222720F930E0B4
:10163000220F331F822B932B8093CB048F70E82FC4
:10164000F0E0ED5DFD4F8091CC049081890F809397
:10165000CC04FF91EF919F918F916F915F914F918A
:101660003F912F910F900BBE0F900FBE0F901F90C8
:1016700018951F920F920FB60F9211240F900FBE64
:101680000F901F90189581E00E94BE0262E081E0F9
:101690000E94380360E081E00E94380381E00E94EC
:1016A0007E078823D9F362E081E00E94380360E07E
:1016B00081E00E94380381E00E94FD0281E00E94E7
:1016C000BE0281E00E947E078823D9F36FEF81E09C
:1016D0000E94C105809380036FEF81E00E94C105E5
:1016E0008093810381E00E94FD0281E00E947E07D9
:1016F0008130D9F3809181038F93809180038F9300
:1017000083E392E09F938F930E94633581E00E9470
:10171000BE0262E081E00E94380360E081E00E9446
:1017200038030F900F900F900F9081E00E947E077A
:101730008823D9F363E081E00E94380360E081E010
:101740000E94380381E00E94FD0281E00E94BE02F7
:1017500081E00E947E078823D9F36FEF81E00E9429
:10176000C105809380036FEF81E00E94C1058093E3
:10177000810381E00E94FD0281E00E947E078130AA
:10178000D9F3809181038F93809180038F9386E4B6
:1017900092E09F938F930E94633581E00E94BE0286
:1017A00062E081E00E94380360E081E00E9438033B
:1017B0000F900F900F900F9081E00E947E0788237A
:1017C000D9F360E081E00E94380360E081E00E948C
:1017D000380381E00E94FD0281E00E94BE0281E0A8
:1017E0000E947E078823D9F36FEF81E00E94C10534
:1017F000809380036FEF81E00E94C1058093810395
:1018000081E00E94FD0281E00E947E078130D9F3D1
:1018100081E00E94BE0262E081E00E94380360E045
:1018200081E00E94380381E00E947E078823D9F37B
:1018300061E081E00E94380360E081E00E943803AB
:1018400081E00E94FD0281E00E94BE0281E00E94D0
:101850007E078823D9F36FEF81E00E94C105809352
:1018600080036FEF81E00E94C1058093810381E0D6
:101870000E94FD0281E00E947E078130D9F38091B1
:1018800081038F93809180038F9384E592E09F93EF
:101890008F930E9463350F900F900F900F900895D3
:1018A0006F927F928F929F92AF92BF92CF92DF9270
:1018B000EF92FF920F931F93CF93DF93CDB7DEB7D5
:1018C0006A970FB6F894DEBF0FBECDBF989AA09A64
:1018D0002FEF83ED90E3215080409040E1F700C06E
:1018E0000000A098EFEFF3ED20E3E150F04020403E
:1018F000E1F700C0000081E00E94DF0181E00E946A
:10190000BE0281E00E947E078823D9F36FEF81E059
:101910000E94C105809380036FEF81E00E94C105A2
:101920008093810381E00E94FD0281E00E947E0796
:101930008130D9F380918003909181038231944367
:1019400009F09AC07BE6C72E72E0D72EE9E76E2E2B
:10195000E2E07E2E81E00E94BE0262E081E00E9411
:10196000380360E081E00E94380381E00E947E0736
:101970008823D9F360E081E00E94380360E081E0D1
:101980000E94380381E00E94FD0281E00E94BE02B5
:1019900081E00E947E078823D9F36FEF81E00E94E7
:1019A000C105809380036FEF81E00E94C1058093A1
:1019B000810381E00E94FD0281E00E947E07813068
:1019C000D9F3E0908003F090810381E00E94BE0291
:1019D00062E081E00E94380360E081E00E94380309
:1019E00081E00E947E078823D9F361E081E00E94B4
:1019F000380360E081E00E94380381E00E94FD022C
:101A000081E00E94BE0281E00E947E078823D9F314
:101A10006FEF81E00E94C105809380036FEF81E04A
:101A20000E94C1058093810381E00E94FD0281E054
:101A30000E947E078130D9F30091800310918103C9
:101A4000FF92EF92DF92CF920E9463351F930F9324
:101A50007F926F920E9463350FB6F894DEBF0FBE7F
:101A6000CDBFEF2809F076CF0F371D4109F072CFB7
:101A700087E892E00E94753580E094E09A8389833C
:101A800084E690E09C838B8381E00E94BE0264E048
:101A900081E00E94380360E081E00E943803FE018B
:101AA00031963F017F0101E010E00DC0F701608138
:101AB00081E00E9438030430110599F00F5F1F4F39
:101AC000FFEFEF1AFF0A0130110581F781E00E9454
:101AD0007E078823D9F3F701608181E00E943803F3
:101AE000EDCF81E00E94FD0281E00E94BE0281E014
:101AF0000E947E078823D9F36FEF81E00E94C10521
:101B0000809380036FEF81E00E94C1058093810381
:101B100081E00E94FD0281E00E947E078130D9F3BE
:101B200081E00E94BE0262E081E00E94380360E032
:101B300081E00E94380381E00E947E078823D9F368
:101B400060E881E00E94380361E081E00E94380390
:101B500081E00E94FD0281E00E94BE0281E00E94BD
:101B60007E078823D9F36FEF81E00E94C10580933F
:101B700080036FEF81E00E94C1058093810381E0C3
:101B80000E94FD0281E00E947E078130D9F385E545
:101B900091E09A83898384E090E09C838B8381E049
:101BA0000E94BE0264E081E00E94380360E081E0B0
:101BB0000E943803730101E010E00DC0F70160815D
:101BC00081E00E9438030430110599F00F5F1F4F28
:101BD000FFEFEF1AFF0A0130110581F781E00E9443
:101BE0007E078823D9F3F701608181E00E943803E2
:101BF000EDCF81E00E94FD0281E00E94BE0281E003
:101C00000E947E078823D9F36FEF81E00E94C1050F
:101C1000809380036FEF81E00E94C1058093810370
:101C200081E00E94FD0281E00E947E078130D9F3AD
:101C300080E791E09A8389838BEE93ED9C838B837D
:101C400089EE90E09E838D8381E00E94BE0266E073
:101C500081E00E94380360E081E00E943803730154
:101C600001E010E00DC0F701608181E00E943803BF
:101C70000630110599F00F5F1F4FFFEFEF1AFF0AB3
:101C80000130110581F781E00E947E078823D9F396
:101C9000F701608181E00E943803EDCF81E00E946E
:101CA000FD0281E00E94BE0281E00E947E0788233F
:101CB000D9F36FEF81E00E94C105809380036FEF3D
:101CC00081E00E94C1058093810381E00E94FD02B2
:101CD00081E00E947E078130D9F38BE1E3E9F2E0F5
:101CE000D30101900D928A95E1F7E0909804F0906D
:101CF000990400919A0410919B047F926F92812C19
:101D0000912CA12CB12C54E0C52ED12C2EE130E029
:101D100040EF50E06EE070E080E893E00E94122E09
:101D200081E1EEEAF2E0D30101900D928A95E1F7AC
:101D3000E0909804F090990400919A0410919B040B
:101D40007F926F9263E0C62ED12C24E630E04AE009
:101D500050E067E070E080E893E00E94122E84E19A
:101D6000EAEFF2E0D30101900D928A95E1F7E0905D
:101D70009804F090990400919A0410919B047F922A
:101D80006F9228E730E04AE050E067E070E080E8DA
:101D900093E00E94122E84E1EEE0F3E0D301019083
:101DA0000D928A95E1F7E0909804F09099040091E3
:101DB0009A0410919B047F926F922CE830E04AE0E5
:101DC00050E067E070E080E893E00E94122EE0901F
:101DD0009804F090990400919A0410919B047F92CA
:101DE0006F9224EB30E04AE050E067E070E080E87A
:101DF00093E00E94122E81E1EFEBF2E0D30101901B
:101E00000D928A95E1F7E0909804F0909904009182
:101E10009A0410919B047F926F922CED30E04AE07F
:101E200050E068E070E080E893E00E94122E81E0CC
:101E30000E94BE0262E081E00E94380360E081E01F
:101E40000E9438030FB6F894DEBF0FBECDBF81E00D
:101E50000E947E078823D9F361E881E00E9438035D
:101E600061E081E00E94380381E00E94FD0281E090
:101E70000E94BE0281E00E947E078823D9F36FEFA3
:101E800081E00E94C105809380036FEF81E00E9492
:101E9000C1058093810381E00E94FD0281E00E94E0
:101EA0007E078130D9F381E094E09E8B8D8B82E0B8
:101EB00090E0988F8F8B1A8E198E81E00E94BE025F
:101EC00066E081E00E94380360E081E00E94380310
:101ED0007E0195E1E90EF11C01E010E00DC0F70173
:101EE000608181E00E9438030630110599F00F5F90
:101EF0001F4FEFEFEE1AFE0A0130110581F781E066
:101F00000E947E078823D9F3F701608181E00E9457
:101F10003803EDCF81E00E94FD0281E00E94BE0205
:101F200081E00E947E078823D9F36FEF81E00E9451
:101F3000C105809380036FEF81E00E94C10580930B
:101F4000810381E00E94FD0281E00E947E078130D2
:101F5000D9F360ED72E080E893E00E94372F6A9633
:101F60000FB6F894DEBF0FBECDBFDF91CF911F91AA
:101F70000F91FF90EF90DF90CF90BF90AF909F9028
:101F80008F907F906F9008950F931F93CF93DF935F
:101F9000989AA09A07E011E0F80180818E7F8083F3
:101FA000C8E0D1E088818E7F888380EC94E00E9435
:101FB000A10887EB94E00E943C0883EB94E00E9428
:101FC00011088AEA94E00E9477088CE994E00E9464
:101FD000D125F80180818460808388818B7F88830C
:101FE0008081806180838881806188830E9A1698C1
:101FF0000C9A14980A9A1298A4E0B1E08C9180622D
:102000008C93E5E0F1E080818F7D80838C91806806
:102010008C9380818F778083F801808180648083B6
:1020200088818F7B8883089A1098A1E0B1E08C9119
:1020300080648C93E2E0F1E080818F7B80838C91DF
:1020400080688C9380818F7780838C918F7E8C9336
:1020500080818F7E80838C918F7D8C9380818F7D1A
:102060008083999AA1989B9AA398579A5F9A60E067
:1020700070E880EC94E00E947E0860E070E087EBFE
:1020800094E00E94180840E050E0BA0183EB94E02D
:102090000E94EB070E94500CDF91CF911F910F918E
:1020A0000C94DE0A6F927F928F929F92AF92BF92B2
:1020B000CF92DF92EF92FF920F931F93CF93DF9314
:1020C000CDB7DEB7C654D1090FB6F894DEBF0FBE48
:1020D000CDBF81E00E94BE0262E081E00E94380331
:1020E00060E081E00E94380381E00E947E0788233F
:1020F000D9F360E881E00E94380361E081E00E944A
:10210000380381E00E94FD0281E00E94BE0281E06E
:102110000E947E078823D9F36FEF81E00E94C105FA
:10212000809380036FEF81E00E94C105809381035B
:1021300081E00E94FD0281E00E947E078130D9F398
:1021400085E291E09A83898388E090E09C838B8389
:1021500081E00E94BE0264E081E00E94380360E0FA
:1021600081E00E943803CE0101963C017C0101E030
:1021700010E00DC0F701608181E00E943803043057
:10218000110599F00F5F1F4F9FEFE91AF90A01300F
:10219000110581F781E00E947E078823D9F3F701BA
:1021A000608181E00E943803EDCF81E00E94FD0252
:1021B00081E00E94BE0281E00E947E078823D9F35D
:1021C0006FEF81E00E94C105809380036FEF81E093
:1021D0000E94C1058093810381E00E94FD0281E09D
:1021E0000E947E078130D9F385E591E09A83898347
:1021F00084E090E09C838B8381E00E94BE0264E0D7
:1022000081E00E94380360E081E00E94380373019E
:1022100001E010E00DC0F701608181E00E94380309
:102220000430110599F00F5F1F4FFFEFEF1AFF0AFF
:102230000130110581F781E00E947E078823D9F3E0
:10224000F701608181E00E943803EDCF81E00E94B8
:10225000FD0281E00E94BE0281E00E947E07882389
:10226000D9F36FEF81E00E94C105809380036FEF87
:1022700081E00E94C1058093810381E00E94FD02FC
:1022800081E00E947E078130D9F380910E02909107
:102290000F02A0911002B091110224E231E03A83C2
:1022A00029839C838B83BE83AD8381E00E94BE0221
:1022B00066E081E00E94380360E081E00E9438031C
:1022C000730101E010E00DC0F701608181E00E9420
:1022D00038030630110599F00F5F1F4FFFEFEF1A1B
:1022E000FF0A0130110581F781E00E947E078823F3
:1022F000D9F3F701608181E00E943803EDCF81E0DE
:102300000E94FD0281E00E94BE0281E00E947E07E1
:102310008823D9F36FEF81E00E94C1058093800389
:102320006FEF81E00E94C1058093810381E00E94EC
:10233000FD0281E00E947E078130D9F380E093E0C6
:102340009A83898381E090E09C838B830E94BE0204
:1023500064E081E00E94380360E081E00E9438037D
:10236000730101E010E00DC0F701608181E00E947F
:1023700038030430110599F00F5F1F4FFFEFEF1A7C
:10238000FF0A0130110581F781E00E947E07882352
:10239000D9F3F701608181E00E943803EDCF81E03D
:1023A0000E94FD0281E00E94BE0281E00E947E0741
:1023B0008823D9F36FEF81E00E94C10580938003E9
:1023C0006FEF81E00E94C1058093810381E00E944C
:1023D000FD0281E00E947E078130D9F380918C0458
:1023E000882311F40C94DA2247E85FED69E870E085
:1023F00080E893E00E94C52E80E591E09A8389836E
:1024000080EB94E09C838B8388E691E09E838D83B0
:1024100080E699E098878F8380ED92E09A8789879C
:1024200081E00E94BE026AE081E00E94380360E021
:1024300081E00E943803730101E010E00DC0F70154
:10244000608181E00E9438030A30110599F00F5F26
:102450001F4FFFEFEF1AFF0A0130110581F781E0EE
:102460000E947E078823D9F3F701608181E00E94F2
:102470003803EDCF81E00E94FD0281E00E94BE02A0
:1024800081E00E947E078823D9F36FEF81E00E94EC
:10249000C105809380036FEF81E00E94C1058093A6
:1024A000810381E00E94FD0281E00E947E0781306D
:1024B000D9F380911C028F9380911B028F9380919E
:1024C0001A028F93809119028F9382E293E09F9377
:1024D0008F937F926F920E94A235E0909804F090C3
:1024E000990400919A0410919B047F926F92812C21
:1024F000912CA12CB12CE4E0CE2ED12C2DE230E099
:1025000046E950E060E170E080E893E00E94122E1E
:1025100080E291E09CAB8BAB80E699E09EAB8DAB0B
:1025200018AE1FAA9AAF89AF80ED92E09CAF8BAF37
:1025300081E00E94BE026AE081E00E94380360E010
:1025400081E00E943803CE01C3967C010FB6F89457
:10255000DEBF0FBECDBF01E010E00DC0F70160810E
:1025600081E00E9438030A30110599F00F5F1F4F78
:10257000FFEFEF1AFF0A0130110581F781E00E9499
:102580007E078823D9F3F701608181E00E94380338
:10259000EDCF81E00E94FD0281E00E94BE0281E059
:1025A0000E947E078823D9F36FEF81E00E94C10566
:1025B000809380036FEF81E00E94C10580938103C7
:1025C00081E00E94FD0281E00E947E078130D9F304
:1025D00080E093E09CAB8BAB82E090E09EAB8DAB58
:1025E00081E00E94BE0264E081E00E94380360E066
:1025F00081E00E943803CE01C3967C0101E010E027
:102600000DC0F701608181E00E943803043011059C
:1026100099F00F5F1F4F9FEFE91AF90A013011057A
:1026200081F781E00E947E078823D9F3F70160815A
:1026300081E00E943803EDCF81E00E94FD0281E03D
:102640000E94BE0281E00E947E078823D9F36FEFCB
:1026500081E00E94C105809380036FEF81E00E94BA
:10266000C1058093810381E00E94FD0281E00E9408
:102670007E078130D9F380918D04882311F40C9466
:10268000D42247E85FED69E870E080E893E00E94BB
:10269000C52E80E591E09CAB8BAB88EC9AE09EABBD
:1026A0008DAB88E691E098AF8FAB80ED92E09AAF6A
:1026B00089AF9CAF8BAF81E00E94BE026AE081E0EF
:1026C0000E94380360E081E00E943803CE01C39687
:1026D0007C0101E010E00DC0F701608181E00E9403
:1026E00038030A30110599F00F5F1F4F9FEFE91A69
:1026F000F90A0130110581F781E00E947E078823E5
:10270000D9F3F701608181E00E943803EDCF81E0C9
:102710000E94FD0281E00E94BE0281E00E947E07CD
:102720008823D9F36FEF81E00E94C1058093800375
:102730006FEF81E00E94C1058093810381E00E94D8
:10274000FD0281E00E947E078130D9F380918D04E3
:102750001F928F9384E793E09F938F937F926F9262
:102760000E94A235E0909804F090990400919A0498
:1027700010919B047F926F92812C912CA12CB12CF3
:1027800074E0C72ED12C2DE230E049E551E060E144
:1027900070E080E893E00E94122E80E291E09CAB12
:1027A0008BAB80E39CE09EAB8DAB18AE1FAA9AAFBB
:1027B00089AF80ED92E09CAF8BAF81E00E94BE02BA
:1027C0006AE081E00E94380360E081E00E94380303
:1027D000CE01C3967C010FB6F894DEBF0FBECDBF0D
:1027E00001E010E00DC0F701608181E00E94380334
:1027F0000A30110599F00F5F1F4FFFEFEF1AFF0A24
:102800000130110581F781E00E947E078823D9F30A
:10281000F701608181E00E943803EDCF81E00E94E2
:10282000FD0281E00E94BE0281E00E947E078823B3
:10283000D9F36FEF81E00E94C105809380036FEFB1
:1028400081E00E94C1058093810381E00E94FD0226
:1028500081E00E947E078130D9F380E093E09CAB59
:102860008BAB83E090E09EAB8DAB81E00E94BE021B
:1028700064E081E00E94380360E081E00E94380358
:10288000CE01C3967C0101E010E00DC0F70160812C
:1028900081E00E9438030430110599F00F5F1F4F4B
:1028A0009FEFE91AF90A0130110581F781E00E94D2
:1028B0007E078823D9F3F701608181E00E94380305
:1028C000EDCF81E00E94FD0281E00E94BE0281E026
:1028D0000E947E078823D9F36FEF81E00E94C10533
:1028E000809380036FEF81E00E94C1058093810394
:1028F00081E00E94FD0281E00E947E078130D9F3D1
:1029000080918E04882311F40C94CE2247E85FED69
:1029100069E870E080E893E00E94C52E80E591E0D0
:102920009CAB8BAB88E99DE09EAB8DAB88E691E0DC
:1029300098AF8FAB80ED92E09AAF89AF9CAF8BAF31
:1029400081E00E94BE026AE081E00E94380360E0FC
:1029500081E00E943803CE01C3967C0101E010E0C3
:102960000DC0F701608181E00E9438030A30110533
:1029700099F00F5F1F4F9FEFE91AF90A0130110517
:1029800081F781E00E947E078823D9F3F7016081F7
:1029900081E00E943803EDCF81E00E94FD0281E0DA
:1029A0000E94BE0281E00E947E078823D9F36FEF68
:1029B00081E00E94C105809380036FEF81E00E9457
:1029C000C1058093810381E00E94FD0281E00E94A5
:1029D0007E078130D9F380918E041F928F9384E714
:1029E00093E09F938F937F926F920E94A235E09025
:1029F0009804F090990400919A0410919B047F929E
:102A00006F92812C912CA12CB12C64E0C62ED12C7C
:102A10002DE230E043EB51E060E170E080E893E0CC
:102A20000E94122E80E291E09CAB8BAB1EAA1DAAE5
:102A300080ED92E098AF8FAB20E03FE03AAF29AF56
:102A40009CAF8BAF81E00E94BE026AE081E00E94F1
:102A5000380360E081E00E943803CE01C3967C0118
:102A60000FB6F894DEBF0FBECDBF01E010E00DC081
:102A7000F701608181E00E9438030A30110599F066
:102A80000F5F1F4FFFEFEF1AFF0A0130110581F7AB
:102A900081E00E947E078823D9F3F701608181E0FD
:102AA0000E943803EDCF81E00E94FD0281E00E9488
:102AB000BE0281E00E947E078823D9F36FEF81E098
:102AC0000E94C105809380036FEF81E00E94C105E1
:102AD0008093810381E00E94FD0281E00E947E07D5
:102AE0008130D9F380E093E09CAB8BAB84E090E045
:102AF0009EAB8DAB81E00E94BE0264E081E00E944B
:102B0000380360E081E00E943803CE01C3967C0167
:102B100001E010E00DC0F701608181E00E94380300
:102B20000430110599F00F5F1F4F9FEFE91AF90A62
:102B30000130110581F781E00E947E078823D9F3D7
:102B4000F701608181E00E943803EDCF81E00E94AF
:102B5000FD0281E00E94BE0281E00E947E07882380
:102B6000D9F36FEF81E00E94C105809380036FEF7E
:102B700081E00E94C1058093810381E00E94FD02F3
:102B800081E00E947E078130D9F380918F048823F1
:102B900011F40C94C82289E890E027E83FED42E563
:102BA00051E05CAB4BAB3EAB2DAB98AF8FAB81E054
:102BB0000E94BE0266E081E00E94380360E081E08E
:102BC0000E943803CE01C3967C0101E010E00DC0E5
:102BD000F701608181E00E9438030630110599F009
:102BE0000F5F1F4F9FEFE91AF90A0130110581F7B6
:102BF00081E00E947E078823D9F3F701608181E09C
:102C00000E943803EDCF81E00E94FD0281E00E9426
:102C1000BE0281E00E947E078823D9F36FEF81E036
:102C20000E94C105809380036FEF81E00E94C1057F
:102C30008093810381E00E94FD0281E00E947E0773
:102C40008130D9F380E591E09CAB8BAB80E991E0DA
:102C50009EAB8DAB88EE93E098AF8FAB80E293E0B4
:102C60009AAF89AF80E392E09CAF8BAF81E00E9486
:102C7000BE026AE081E00E94380360E081E00E94C9
:102C80003803CE01C3967C0101E010E00DC0F701CE
:102C9000608181E00E9438030A30110599F00F5FCE
:102CA0001F4F9FEFE91AF90A0130110581F781E002
:102CB0000E947E078823D9F3F701608181E00E949A
:102CC0003803EDCF81E00E94FD0281E00E94BE0248
:102CD00081E00E947E078823D9F36FEF81E00E9494
:102CE000C105809380036FEF81E00E94C10580934E
:102CF000810381E00E94FD0281E00E947E07813015
:102D0000D9F3E0909804F090990400919A041091FE
:102D10009B048BE293E09F938F93812C912CA12CA9
:102D2000B12C54E0C52ED12C2DE730E042E350E029
:102D30006CE070E080E893E00E94122E80E291E067
:102D40009CAB8BAB80E293E09EAB8DAB20ED32E091
:102D500038AF2FAB9AAF89AF80E095E09CAF8BAFD7
:102D600081E00E94BE026AE081E00E94380360E0D8
:102D700081E00E943803CE01C3967C010F900F9032
:102D800001E010E00DC0F701608181E00E9438038E
:102D90000A30110599F00F5F1F4F9FEFE91AF90AEA
:102DA0000130110581F781E00E947E078823D9F365
:102DB000F701608181E00E943803EDCF81E00E943D
:102DC000FD0281E00E94BE0281E00E947E0788230E
:102DD000D9F36FEF81E00E94C105809380036FEF0C
:102DE00081E00E94C1058093810381E00E94FD0281
:102DF00081E00E947E078130D9F380E093E09CABB4
:102E00008BAB85E090E09EAB8DAB81E00E94BE0273
:102E100064E081E00E94380360E081E00E943803B2
:102E2000CE01C3967C0101E010E00DC0F701608186
:102E300081E00E9438030430110599F00F5F1F4FA5
:102E40009FEFE91AF90A0130110581F781E00E942C
:102E50007E078823D9F3F701608181E00E9438035F
:102E6000EDCF81E00E94FD0281E00E94BE0281E080
:102E70000E947E078823D9F36FEF81E00E94C1058D
:102E8000809380036FEF81E00E94C10580938103EE
:102E900081E00E94FD0281E00E947E078130D9F32B
:102EA00080919004882311F40C94C22289E890E068
:102EB00027E83FED42E551E05CAB4BAB3EAB2DABC1
:102EC00098AF8FAB81E00E94BE0266E081E00E9475
:102ED000380360E081E00E943803CE01C3967C0194
:102EE00001E010E00DC0F701608181E00E9438032D
:102EF0000630110599F00F5F1F4F9FEFE91AF90A8D
:102F00000130110581F781E00E947E078823D9F303
:102F1000F701608181E00E943803EDCF81E00E94DB
:102F2000FD0281E00E94BE0281E00E947E078823AC
:102F3000D9F36FEF81E00E94C105809380036FEFAA
:102F400081E00E94C1058093810381E00E94FD021F
:102F500081E00E947E078130D9F380E591E09CAB4F
:102F60008BAB80E496E09EAB8DAB28EE33E038AFC0
:102F70002FAB9AAF89AF80E392E09CAF8BAF81E03B
:102F80000E94BE026AE081E00E94380360E081E0B6
:102F90000E943803CE01C3967C0101E010E00DC011
:102FA000F701608181E00E9438030A30110599F031
:102FB0000F5F1F4F9FEFE91AF90A0130110581F7E2
:102FC00081E00E947E078823D9F3F701608181E0C8
:102FD0000E943803EDCF81E00E94FD0281E00E9453
:102FE000BE0281E00E947E078823D9F36FEF81E063
:102FF0000E94C105809380036FEF81E00E94C105AC
:103000008093810381E00E94FD0281E00E947E079F
:103010008130D9F38091AE048F938091AD048F936A
:103020008091AC048F938091AB048F9382E393E003
:103030009F938F937F926F920E94A235E0909804A5
:10304000F090990400919A0410919B047F926F92E2
:10305000812C912CA12CB12C45E0C42ED12C2DE734
:1030600030E048E151E06EE070E080E893E00E94DB
:10307000122E8091980490919904A0919A04B09195
:103080009B0421E431E03CAB2BAB28E038E03EABC5
:103090002DAB20E733E038AF2FAB28E130E03AAF7B
:1030A00029AF20E230E03CAF2BAF9EAF8DAF219631
:1030B000BFAFAEAF219784E090E023969FAF8EAF75
:1030C000239725961FAE1EAE259727961FAE1EAEE0
:1030D000279781E00E94BE0264E181E00E943803EC
:1030E00060E081E00E943803CE01C3967C010FB6F8
:1030F000F894DEBF0FBECDBF01E010E00DC0F701B8
:10310000608181E00E9438030431110599F00F5F5E
:103110001F4FFFEFEF1AFF0A0130110581F781E021
:103120000E947E078823D9F3F701608181E00E9425
:103130003803EDCF81E00E94FD0281E00E94BE02D3
:1031400081E00E947E078823D9F36FEF81E00E941F
:10315000C105809380036FEF81E00E94C1058093D9
:10316000810381E00E94FD0281E00E947E078130A0
:10317000D9F380E291E09CAB8BAB80E699E09EAB0B
:103180008DAB20ED32E038AF2FAB9AAF89AF80E046
:1031900095E09CAF8BAF81E00E94BE026AE081E0C7
:1031A0000E94380360E081E00E943803CE01C3969C
:1031B0007C0101E010E00DC0F701608181E00E9418
:1031C00038030A30110599F00F5F1F4F9FEFE91A7E
:1031D000F90A0130110581F781E00E947E078823FA
:1031E000D9F3F701608181E00E943803EDCF81E0DF
:1031F0000E94FD0281E00E94BE0281E00E947E07E3
:103200008823D9F36FEF81E00E94C105809380038A
:103210006FEF81E00E94C1058093810381E00E94ED
:10322000FD0281E00E947E078130D9F380E093E0C7
:103230009CAB8BAB86E090E09EAB8DAB81E00E94B7
:10324000BE0264E081E00E94380360E081E00E94F9
:103250003803CE01C3967C0101E010E00DC0F701F8
:10326000608181E00E9438030430110599F00F5FFE
:103270001F4F9FEFE91AF90A0130110581F781E02C
:103280000E947E078823D9F3F701608181E00E94C4
:103290003803EDCF81E00E94FD0281E00E94BE0272
:1032A00081E00E947E078823D9F36FEF81E00E94BE
:1032B000C105809380036FEF81E00E94C105809378
:1032C000810381E00E94FD0281E00E947E0781303F
:1032D000D9F380919104882311F40C94BC2247E81F
:1032E0005FED69E870E080E893E00E94C52E80E51C
:1032F00091E09CAB8BAB80E39CE09EAB8DAB88EE0A
:1033000093E098AF8FAB80EA95E09AAF89AF80E306
:1033100092E09CAF8BAF81E00E94BE026AE081E048
:103320000E94380360E081E00E943803CE01C3961A
:103330007C0101E010E00DC0F701608181E00E9496
:1033400038030A30110599F00F5F1F4F9FEFE91AFC
:10335000F90A0130110581F781E00E947E07882378
:10336000D9F3F701608181E00E943803EDCF81E05D
:103370000E94FD0281E00E94BE0281E00E947E0761
:103380008823D9F36FEF81E00E94C1058093800309
:103390006FEF81E00E94C1058093810381E00E946C
:1033A000FD0281E00E947E078130D9F38091BF0445
:1033B0008F938091BE048F938091BD048F938091F1
:1033C000BC048F938BE393E09F938F937F926F92D4
:1033D0000E94A235E0909804F090990400919A041C
:1033E00010919B047F926F92812C912CA12CB12C77
:1033F00034E0C32ED12C2DE730E046E851E06FE0F9
:1034000070E080E893E00E94122E80E291E09CAB95
:103410008BAB1EAA1DAA80E095E098AF8FAB20E091
:103420003FE03AAF29AF9CAF8BAF81E00E94BE0274
:103430006AE081E00E94380360E081E00E94380386
:10344000CE01C3967C010FB6F894DEBF0FBECDBF90
:1034500001E010E00DC0F701608181E00E943803B7
:103460000A30110599F00F5F1F4FFFEFEF1AFF0AA7
:103470000130110581F781E00E947E078823D9F38E
:10348000F701608181E00E943803EDCF81E00E9466
:10349000FD0281E00E94BE0281E00E947E07882337
:1034A000D9F36FEF81E00E94C105809380036FEF35
:1034B00081E00E94C1058093810381E00E94FD02AA
:1034C00081E00E947E078130D9F380E093E09CABDD
:1034D0008BAB87E090E09EAB8DAB81E00E94BE029B
:1034E00064E081E00E94380360E081E00E943803DC
:1034F000CE01C3967C0101E010E00DC0F7016081B0
:1035000081E00E9438030430110599F00F5F1F4FCE
:103510009FEFE91AF90A0130110581F781E00E9455
:103520007E078823D9F3F701608181E00E94380388
:10353000EDCF81E00E94FD0281E00E94BE0281E0A9
:103540000E947E078823D9F36FEF81E00E94C105B6
:10355000809380036FEF81E00E94C1058093810317
:1035600081E00E94FD0281E00E947E078130D9F354
:1035700080919204882309F4FAC747E85FED69E86F
:1035800070E080E893E00E94C52E80E591E09CAB5E
:103590008BAB80E991E09EAB8DAB88E196E098AF74
:1035A0008FAB80E293E09AAF89AF80E392E09CAF6B
:1035B0008BAF81E00E94BE026AE081E00E94380386
:1035C00060E081E00E943803CE01C3967C0101E0F7
:1035D00010E00DC0F701608181E00E9438030A30DD
:1035E000110599F00F5F1F4F9FEFE91AF90A01309B
:1035F000110581F781E00E947E078823D9F3F70146
:10360000608181E00E943803EDCF81E00E94FD02DD
:1036100081E00E94BE0281E00E947E078823D9F3E8
:103620006FEF81E00E94C105809380036FEF81E01E
:103630000E94C1058093810381E00E94FD0281E028
:103640000E947E078130D9F3E0909804F0909904AD
:1036500000919A0410919B0483E493E09F938F93CD
:10366000812C912CA12CB12CC12CD12C25EA30E03D
:1036700045E050E06DE070E080E893E00E94122E9B
:10368000809116021F928F9384E793E09F938F930C
:103690007F926F920E94A235E0909804F090990476
:1036A00000919A0410919B047F926F9224E0C22EA5
:1036B000D12C29EC30E046E350E06FE070E080E888
:1036C00093E00E94122E80E291E09CAB8BAB80E2F3
:1036D00093E09EAB8DAB20E035E038AF2FAB9AAFD7
:1036E00089AF80E397E09CAF8BAF81E00E94BE0280
:1036F0006AE081E00E94380360E081E00E943803C4
:10370000CE01C3967C010FB6F894DEBF0FBECDBFCD
:1037100001E010E00DC0F701608181E00E943803F4
:103720000A30110599F00F5F1F4FFFEFEF1AFF0AE4
:103730000130110581F781E00E947E078823D9F3CB
:10374000F701608181E00E943803EDCF81E00E94A3
:10375000FD0281E00E94BE0281E00E947E07882374
:10376000D9F36FEF81E00E94C105809380036FEF72
:1037700081E00E94C1058093810381E00E94FD02E7
:1037800081E00E947E078130D9F380E093E09CAB1A
:103790008BAB88E090E09EAB8DAB81E00E94BE02D7
:1037A00064E081E00E94380360E081E00E94380319
:1037B000CE01C3967C0101E010E00DC0F7016081ED
:1037C00081E00E9438030430110599F00F5F1F4F0C
:1037D0009FEFE91AF90A0130110581F781E00E9493
:1037E0007E078823D9F3F701608181E00E943803C6
:1037F000EDCF81E00E94FD0281E00E94BE0281E0E7
:103800000E947E078823D9F36FEF81E00E94C105F3
:10381000809380036FEF81E00E94C1058093810354
:1038200081E00E94FD0281E00E947E078130D9F391
:1038300080919304882309F495C647E85FED69E811
:1038400070E080E893E00E94C52E80E591E09CAB9B
:103850008BAB80EB94E09EAB8DAB88E196E098AFAC
:103860008FAB80E293E09AAF89AF80E392E09CAFA8
:103870008BAF81E00E94BE026AE081E00E943803C3
:1038800060E081E00E943803CE01C3967C0101E034
:1038900010E00DC0F701608181E00E9438030A301A
:1038A000110599F00F5F1F4F9FEFE91AF90A0130D8
:1038B000110581F781E00E947E078823D9F3F70183
:1038C000608181E00E943803EDCF81E00E94FD021B
:1038D00081E00E94BE0281E00E947E078823D9F326
:1038E0006FEF81E00E94C105809380036FEF81E05C
:1038F0000E94C1058093810381E00E94FD0281E066
:103900000E947E078130D9F3E0909804F0909904EA
:1039100000919A0410919B0485E493E09F938F9308
:10392000812C912CA12CB12CC12CD12C26EA30E079
:1039300049E650E06DE070E080E893E00E94122ECE
:10394000809115021F928F9384E793E09F938F934A
:103950007F926F920E94A235E0909804F0909904B3
:1039600000919A0410919B047F926F9294E0C92E6B
:10397000D12C28EC30E04AE950E06FE070E080E8BC
:1039800093E00E94122E80E291E09CAB8BAB80E42E
:1039900096E09EAB8DAB20E035E038AF2FAB9AAF11
:1039A00089AF80E397E09CAF8BAF81E00E94BE02BD
:1039B0006AE081E00E94380360E081E00E94380301
:1039C000CE01C3967C010FB6F894DEBF0FBECDBF0B
:1039D00001E010E00DC0F701608181E00E94380332
:1039E0000A30110599F00F5F1F4FFFEFEF1AFF0A22
:1039F0000130110581F781E00E947E078823D9F309
:103A0000F701608181E00E943803EDCF81E00E94E0
:103A1000FD0281E00E94BE0281E00E947E078823B1
:103A2000D9F36FEF81E00E94C105809380036FEFAF
:103A300081E00E94C1058093810381E00E94FD0224
:103A400081E00E947E078130D9F380E093E09CAB57
:103A50008BAB89E090E09EAB8DAB81E00E94BE0213
:103A600064E081E00E94380360E081E00E94380356
:103A7000CE01C3967C0101E010E00DC0F70160812A
:103A800081E00E9438030430110599F00F5F1F4F49
:103A90009FEFE91AF90A0130110581F781E00E94D0
:103AA0007E078823D9F3F701608181E00E94380303
:103AB000EDCF81E00E94FD0281E00E94BE0281E024
:103AC0000E947E078823D9F36FEF81E00E94C10531
:103AD000809380036FEF81E00E94C1058093810392
:103AE00081E00E94FD0281E00E947E078130D9F3CF
:103AF00080919404882309F430C547E85FED69E8B4
:103B000070E080E893E00E94C52E80E591E09CABD8
:103B10008BAB80ED97E09EAB8DAB88E196E098AFE4
:103B20008FAB80E293E09AAF89AF80E392E09CAFE5
:103B30008BAF81E00E94BE026AE081E00E94380300
:103B400060E081E00E943803CE01C3967C0101E071
:103B500010E00DC0F701608181E00E9438030A3057
:103B6000110599F00F5F1F4F9FEFE91AF90A013015
:103B7000110581F781E00E947E078823D9F3F701C0
:103B8000608181E00E943803EDCF81E00E94FD0258
:103B900081E00E94BE0281E00E947E078823D9F363
:103BA0006FEF81E00E94C105809380036FEF81E099
:103BB0000E94C1058093810381E00E94FD0281E0A3
:103BC0000E947E078130D9F3E0909804F090990428
:103BD00000919A0410919B0487E493E09F938F9344
:103BE000812C912CA12CB12CC12CD12C26EA30E0B7
:103BF0004DEC50E06DE070E080E893E00E94122E02
:103C0000809114021F928F9384E793E09F938F9388
:103C10007F926F920E94A235E0909804F0909904F0
:103C200000919A0410919B047F926F9284E0C82EB9
:103C3000D12C28EC30E04EEF50E06FE070E080E8EF
:103C400093E00E94122E80E291E09CAB8BAB80E669
:103C500099E09EAB8DAB20E035E038AF2FAB9AAF4B
:103C600089AF80E397E09CAF8BAF81E00E94BE02FA
:103C70006AE081E00E94380360E081E00E9438033E
:103C8000CE01C3967C010FB6F894DEBF0FBECDBF48
:103C900001E010E00DC0F701608181E00E9438036F
:103CA0000A30110599F00F5F1F4FFFEFEF1AFF0A5F
:103CB0000130110581F781E00E947E078823D9F346
:103CC000F701608181E00E943803EDCF81E00E941E
:103CD000FD0281E00E94BE0281E00E947E078823EF
:103CE000D9F36FEF81E00E94C105809380036FEFED
:103CF00081E00E94C1058093810381E00E94FD0262
:103D000081E00E947E078130D9F380E093E09CAB94
:103D10008BAB8AE090E09EAB8DAB81E00E94BE024F
:103D200064E081E00E94380360E081E00E94380393
:103D3000CE01C3967C0101E010E00DC0F701608167
:103D400081E00E9438030430110599F00F5F1F4F86
:103D50009FEFE91AF90A0130110581F781E00E940D
:103D60007E078823D9F3F701608181E00E94380340
:103D7000EDCF81E00E94FD0281E00E94BE0281E061
:103D80000E947E078823D9F36FEF81E00E94C1056E
:103D9000809380036FEF81E00E94C10580938103CF
:103DA00081E00E94FD0281E00E947E078130D9F30C
:103DB00080919504882309F4CBC389E890E027E833
:103DC0003FED42E551E05CAB4BAB3EAB2DAB98AF6A
:103DD0008FAB81E00E94BE0266E081E00E94380362
:103DE00060E081E00E943803CE01C3967C0101E0CF
:103DF00010E00DC0F701608181E00E9438030630B9
:103E0000110599F00F5F1F4F9FEFE91AF90A013072
:103E1000110581F781E00E947E078823D9F3F7011D
:103E2000608181E00E943803EDCF81E00E94FD02B5
:103E300081E00E94BE0281E00E947E078823D9F3C0
:103E40006FEF81E00E94C105809380036FEF81E0F6
:103E50000E94C1058093810381E00E94FD0281E000
:103E60000E947E078130D9F380E591E09CAB8BAB5B
:103E700088EC9AE09EAB8DAB88E196E098AF8FAB73
:103E800080ED92E09AAF89AF80E392E09CAF8BAF78
:103E900081E00E94BE026AE081E00E94380360E097
:103EA00081E00E943803CE01C3967C0101E010E05E
:103EB0000DC0F701608181E00E9438030A301105CE
:103EC00099F00F5F1F4F9FEFE91AF90A01301105B2
:103ED00081F781E00E947E078823D9F3F701608192
:103EE00081E00E943803EDCF81E00E94FD0281E075
:103EF0000E94BE0281E00E947E078823D9F36FEF03
:103F000081E00E94C105809380036FEF81E00E94F1
:103F1000C1058093810381E00E94FD0281E00E943F
:103F20007E078130D9F3E0909804F09099040091D5
:103F30009A0410919B0489E493E09F938F93812CC2
:103F4000912CA12CB12CB4E0CB2ED12C23EC30E061
:103F500049E551E06DE070E080E893E00E94122EA8
:103F600080E291E09CAB8BAB80E39CE09EAB8DABA1
:103F700020E035E038AF2FAB9AAF89AF80E397E010
:103F80009CAF8BAF81E00E94BE026AE081E00E949C
:103F9000380360E081E00E943803CE01C3967C01C3
:103FA0000F900F9001E010E00DC0F701608181E0FB
:103FB0000E9438030A30110599F00F5F1F4F9FEFE1
:103FC000E91AF90A0130110581F781E00E947E07A4
:103FD0008823D9F3F701608181E00E943803EDCF97
:103FE00081E00E94FD0281E00E94BE0281E00E9409
:103FF0007E078823D9F36FEF81E00E94C10580938B
:1040000080036FEF81E00E94C1058093810381E00E
:104010000E94FD0281E00E947E078130D9F380E09A
:1040200093E09CAB8BAB8BE090E09EAB8DAB81E0E3
:104030000E94BE0264E081E00E94380360E081E0FB
:104040000E943803CE01C3967C0101E010E00DC050
:10405000F701608181E00E9438030430110599F076
:104060000F5F1F4F9FEFE91AF90A0130110581F721
:1040700081E00E947E078823D9F3F701608181E007
:104080000E943803EDCF81E00E94FD0281E00E9492
:10409000BE0281E00E947E078823D9F36FEF81E0A2
:1040A0000E94C105809380036FEF81E00E94C105EB
:1040B0008093810381E00E94FD0281E00E947E07DF
:1040C0008130D9F380919604882309F43CC247E8F3
:1040D0005FED69E870E080E893E00E94C52E80E51E
:1040E00091E09CAB8BAB88E99DE09EAB8DAB88E10A
:1040F00096E098AF8FAB80ED92E09AAF89AF80E306
:1041000092E09CAF8BAF81E00E94BE026AE081E04A
:104110000E94380360E081E00E943803CE01C3961C
:104120007C0101E010E00DC0F701608181E00E9498
:1041300038030A30110599F00F5F1F4F9FEFE91AFE
:10414000F90A0130110581F781E00E947E0788237A
:10415000D9F3F701608181E00E943803EDCF81E05F
:104160000E94FD0281E00E94BE0281E00E947E0763
:104170008823D9F36FEF81E00E94C105809380030B
:104180006FEF81E00E94C1058093810381E00E946E
:10419000FD0281E00E947E078130D9F3E09098040F
:1041A000F090990400919A0410919B0480E593E0AB
:1041B0009F938F93812C912CA12CB12CA4E0CA2E1B
:1041C000D12C23EC30E043EB51E06DE070E080E86F
:1041D00093E00E94122E80E291E09CAB8BAB1EAA72
:1041E0001DAA80E397E098AF8FAB20E03FE03AAFA5
:1041F00029AF9CAF8BAF81E00E94BE026AE081E0F4
:104200000E94380360E081E00E943803CE01C3962B
:104210007C010F900F9001E010E00DC0F70160816C
:1042200081E00E9438030A30110599F00F5F1F4F9B
:104230009FEFE91AF90A0130110581F781E00E9428
:104240007E078823D9F3F701608181E00E9438035B
:10425000EDCF81E00E94FD0281E00E94BE0281E07C
:104260000E947E078823D9F36FEF81E00E94C10589
:10427000809380036FEF81E00E94C10580938103EA
:1042800081E00E94FD0281E00E947E078130D9F327
:1042900080E093E09CAB8BAB8CE090E09EAB8DAB71
:1042A00081E00E94BE0264E081E00E94380360E089
:1042B00081E00E943803CE01C3967C0101E010E04A
:1042C0000DC0F701608181E00E94380304301105C0
:1042D00099F00F5F1F4F9FEFE91AF90A013011059E
:1042E00081F781E00E947E078823D9F3F70160817E
:1042F00081E00E943803EDCF81E00E94FD0281E061
:104300000E94BE0281E00E947E078823D9F36FEFEE
:1043100081E00E94C105809380036FEF81E00E94DD
:10432000C1058093810381E00E94FD0281E00E942B
:104330007E078130D9F380919704811141C14FEFFD
:104340005FEF6FEF70E080E893E00E94C52E80E59C
:1043500091E09CAB8BAB80E897E09EAB8DAB88E99E
:1043600098E098AF8FAB80E09FE09AAF89AF80ED87
:1043700092E09CAF8BAF81E00E94BE026AE081E0D8
:104380000E94380360E081E00E943803CE01C396AA
:104390007C0101E010E00DC0F701608181E00E9426
:1043A00038030A30110599F00F5F1F4F9FEFE91A8C
:1043B000F90A0130110581F781E00E947E07882308
:1043C000D9F3F701608181E00E943803EDCF81E0ED
:1043D0000E94FD0281E00E94BE0281E00E947E07F1
:1043E0008823D9F36FEF81E00E94C1058093800399
:1043F0006FEF81E00E94C1058093810381E00E94FC
:10440000FD0281E00E947E078130D9F380919D04F6
:104410001F928F938091A1048F938091A0048F931A
:1044200080919F048F9380919E048F938091A50427
:104430008F938091A4048F938091A3048F93809194
:10444000A2048F938091A9048F938091A8048F93E5
:104450008091A7048F938091A6048F9386E593E0C3
:104460009F938F937F926F920E94A235E090980461
:10447000F090990400919A0410919B047F926F929E
:10448000812C912CA12CB12CF4E0CF2ED12C23E146
:1044900031E040EF50E06DE070E080E893E00E9492
:1044A000122E81E00E94BE0262E081E00E94380389
:1044B00060E081E00E9438030FB6F894DEBF0FBEC3
:1044C000CDBF81E00E947E078823D9F361E881E0B7
:1044D0000E94380361E081E00E94380381E00E947D
:1044E000FD0281E00E94BE0281E00E947E078823D7
:1044F000D9F36FEF81E00E94C105809380036FEFD5
:1045000081E00E94C1058093810381E00E94FD0249
:1045100081E00E947E078130D9F3CA5BDF4F0FB67E
:10452000F894DEBF0FBECDBFDF91CF911F910F91E9
:10453000FF90EF90DF90CF90BF90AF909F908F90C3
:104540007F906F9008954FEF5FEF6FEF70E0C3CDF6
:104550008FEF90E02DEC3AEF34CC4FEF5FEF6FEF41
:1045600070E0CFCA4DEC5AEF6FEF70E06AC94FEFC1
:104570005FEF6FEF70E005C84FEF5FEF6FEF70E038
:104580000C9473198FEF90E02DEC3AEF0C945A17BE
:104590008FEF90E02FEF3FEF0C94CF154FEF5FEFD1
:1045A0006FEF70E00C948A144DEC5AEF6FEF70E0EF
:1045B0000C9445134FEF5FEF6FEF70E00C94F81120
:1045C00047E85FED69E870E0BECE0F931F93CF938D
:1045D000DF9381E00E94BE0262E081E00E94380326
:1045E00060E081E00E94380381E00E947E0788231A
:1045F000D9F362E081E00E94380363E081E00E9429
:10460000380381E00E94FD0281E00E94BE0200E8C2
:1046100013E0C1E0D0E00CC06FEF81E00E94C10563
:10462000F8018083CA30D10591F021960F5F1F4FAA
:10463000C130D10589F781E00E947E078823D9F334
:104640006FEF81E00E94C105F8018083EECF81E029
:104650000E94FD0281E00E947E078130D9F38091A3
:10466000830390E0982F882720918203822B9093D8
:104670008A04809389048091850390E0982F88278D
:1046800020918403822B90938804809387048091E7
:10469000870390E0982F882720918603822B9093A0
:1046A0008604809385042091890330E0322F2227ED
:1046B00040918803242B309382042093810481301D
:1046C000910559F0109280049093840480938304A0
:1046D000DF91CF911F910F91089520918304309124
:1046E0008404232B79F7209180042111EBCF21E062
:1046F00020938004E9CF20918504309186042130F5
:10470000310519F0FC011082089520918304309145
:104710008404232BB9F7FC0120812111F3CF21E080
:1047200020830895E0918104F09182043197EC3068
:10473000F10550F4EE58FF4F0C949030809197049F
:1047400091E089278093970408958091960491E0E1
:104750008927EBE8F4E0119294E0E739F907D9F7FB
:1047600080939604089580918C0491E08927EBE86A
:10477000F4E0119294E0E739F907D9F780938C04BB
:10478000089580918D0491E08927EBE8F4E011927F
:1047900094E0E739F907D9F780938D040895809163
:1047A0008E0491E08927EBE8F4E0119294E0E73978
:1047B000F907D9F780938E04089580918F0491E0D2
:1047C0008927EBE8F4E0119294E0E739F907D9F78B
:1047D00080938F0408958091900491E08927EBE8FD
:1047E000F4E0119294E0E739F907D9F78093900447
:1047F00008958091910491E08927EBE8F4E011920B
:1048000094E0E739F907D9F78093910408958091EE
:10481000920491E08927EBE8F4E0119294E0E73903
:10482000F907D9F78093920408958091930491E059
:104830008927EBE8F4E0119294E0E739F907D9F71A
:104840008093930408958091940491E08927EBE884
:10485000F4E0119294E0E739F907D9F780939404D2
:1048600008958091950491E08927EBE8F4E0119296
:1048700094E0E739F907D9F780939504089580917A
:10488000C904811108950E94E52280918004882343
:10489000C9F30C9492230E9452100C943F24CF929F
:1048A000DF92EF92FF92CF93DF933091CA04609131
:1048B000CC04361769F0EBE8F4E080E090E0219159
:1048C00021110FC001968C309105C9F71092CA04CE
:1048D0001092CC04DF91CF91FF90EF90DF90CF90BA
:1048E0000895631B8730910509F46BC064F188302B
:1048F000910509F48CC0099749F780911402C62FDD
:10490000DD27C7FDD095C80FD11DBE01882777FDD3
:104910008095982F0E94E4316B017C0120E030E00B
:104920004FE753E40E94B93218160CF4E2C020E0BD
:1049300030E0A901C701B6010E94193187FDC0E02E
:10494000C0931402C3CF8130910509F486C0069745
:1049500009F0BCCF772767FD7095872F972F0E94AE
:10496000E4312DEC3CEC4CEC5DE30E947233209181
:10497000BC043091BD044091BE045091BF040E941C
:10498000B5306B017C0120E030E040EA50E40E9449
:10499000B93218160CF4A4C020E030E0A901C70118
:1049A000B6010E94193187FF03C0C12CD12C7601BA
:1049B000C092BC04D092BD04E092BE04F092BF0449
:1049C00085CF80911602C62FDD27C7FDD095C80F71
:1049D000D11DBE01882777FD8095982F0E94E43174
:1049E0006B017C0120E030E04FE753E40E94B932D4
:1049F00018160CF47CC020E030E0A901C701B60114
:104A00000E94193187FDC0E0C09316025FCF8091EC
:104A10001502C62FDD27C7FDD095C80FD11DBE01D9
:104A2000882777FD8095982F0E94E4316B017C01E7
:104A300020E030E04FE753E40E94B93218160CF43E
:104A40004DC020E030E0A901C701B6010E94193134
:104A500087FDC0E0C093150239CF772767FD7095B9
:104A6000872F972F0E94E4312DEC3CEC4CEC5DE35A
:104A70000E9472332091190230911A0240911B0258
:104A800050911C020E94B5306B017C0120E030E0A7
:104A90004CE052E40E94B9321816CCF020E030E02D
:104AA00040EA50ECC701B6010E94193187FF06C0E9
:104AB000C12CD12C80EAE82E80ECF82EC09219028D
:104AC000D0921A02E0921B02F0921C02FFCEC12C7F
:104AD000D12C9CE0E92E92E4F92EF0CFCFEFBACFA3
:104AE000C12CD12CD0EAED2ED0E4FD2E61CFCFEF3A
:104AF0008BCFCFEF25CFFC0160830895EF92FF921B
:104B00000F931F93CF93DF93EC0188810E94BE0225
:104B100060E088810E94C10560E088810E94C10533
:104B200088810E94FD0288810E94BE0260E2888125
:104B30000E94C105182F60E088810E94C105082FDE
:104B400088810E94FD0288810E94BE0260E2888105
:104B50000E94C10560E088810E94C10588810E9491
:104B6000FD0288810E94BE0260E088810E94C1052A
:104B7000F82E60E088810E94C105E82E88810E949D
:104B8000FD028E2D90E0A0E0B0E0772766279F29F8
:104B9000602B712BDF91CF911F910F91FF90EF90C0
:104BA0000895FC0180810C94DF012F923F924F9277
:104BB0005F926F927F928F929F92AF92BF92CF92AD
:104BC000DF92EF92FF920F931F93CF93DF93CDB7B6
:104BD000DEB763970FB6F894DEBF0FBECDBF7C0182
:104BE0001B016A01FC0117821682838181FF66C363
:104BF000BE016F5F7F4F4B01F7019381F10193FD80
:104C0000859193FF81911F01882309F453C3853255
:104C100039F493FD859193FF81911F01853239F419
:104C2000B70190E00E94313556016501E5CF10E0F3
:104C3000512C20E02032A0F48B3269F030F4803225
:104C400059F0833269F420612CC08D3239F0803301
:104C500039F4216026C02260246023C0286021C06E
:104C600027FD27C030ED380F3A3078F426FF06C014
:104C7000FAE01F9F300D1124132F13C06AE0569ED7
:104C8000300D1124532E20620CC08E3221F426FDEB
:104C900011C3206406C08C3611F4206802C0883627
:104CA00041F4F10193FD859193FF81911F018111E1
:104CB000C1CF9BEB980F933018F42061805E06C043
:104CC0009BE9980F933008F0AAC12F7E26FF16E0CB
:104CD0002F73722E853621F4F22FF0647F2E08C0D8
:104CE000863621F4622F6068762E02C011111150B1
:104CF00077FE07C01C3348F444244394410E27E058
:104D00000BC0183030F4212F06C027E04CE3442EAE
:104D100003C027E017E0412C560174E0A70EB11C38
:104D2000F6016081718182819381042DA4010E942A
:104D3000E3336C01098100FF02C003FF06C071FC70
:104D400007C072FC08C0612C08C03DE2632E05C09C
:104D50002BE2622E02C090E2692E802F8C7099F1B6
:104D6000662011F084E001C083E0851510F0512C1D
:104D70000BC0581A73FC08C0B70180E290E00E9493
:104D800031355A94C9F7F3CF662029F0B701862D43
:104D900090E00E94313503FD03C00EEB11E002C02C
:104DA0000AEB11E0F72DF0717F2EF8018491882332
:104DB00009F476C271108052B70190E00E9431353B
:104DC0000F5F1F4FF2CF77FE0FC04C0C04FF04C0E3
:104DD0008A81813309F44A94141474F5F8E0F415C7
:104DE00078F588E0482E2CC076FC2AC0812F90E010
:104DF0008C159D059CF06CEFC6166FEFD60674F00F
:104E0000772D7068772E0AC0E2E0F0E0EC0FFD1F0E
:104E1000E10FF11D8081803319F411501111F4CF8D
:104E200077FE0EC044244394410E812F90E0C816B3
:104E3000D9062CF41C1904C04424439401C010E08A
:104E400077FE07C01C141D043CF496012F5F3F4FF2
:104E500005C025E030E002C021E030E0662011F01E
:104E60002F5F3F4F112331F0412F50E04F5F5F4FD5
:104E7000240F351F452D50E02417350714F4521A1E
:104E800001C0512C872D897049F4552039F0B701A4
:104E900080E290E00E9431355A94F7CF662029F0E5
:104EA000B701862D90E00E94313573FC09C0552072
:104EB00039F0B70180E390E00E9431355A94F7CF82
:104EC00077FE5FC09C2D8D2DD7FE02C090E080E064
:104ED000692E782E40E050E0C601841991099D8723
:104EE0008C87960126193709280D391D812F90E0EE
:104EF000EE27FF27E81BF90BFF87EE87FFEF6F1602
:104F00007F0669F4B7018EE290E02B8B3A8B488BD9
:104F1000598B0E943135598948893A892B89C614A1
:104F2000D70454F06C857D85661577052CF4F9015E
:104F3000E40FF51F818101C080E371E0671A7108F9
:104F40004F5F5F4FEE85FF856E167F066CF0B701F1
:104F500090E02B8B3A8B488B598B0E9431352B89F3
:104F60003A8948895989CACF6C147D0439F49A81E9
:104F7000963318F4953311F404FF81E3B70190E000
:104F80004BC08A81813309F00F7EB70190E00E9407
:104F90003135111105C074FE18C085E490E017C0CA
:104FA000B7018EE290E00E94313582E0662463947E
:104FB000680EF401E80FF11D8081B70190E00E94B6
:104FC0003135115041F3862DF1CF85E690E0B701E0
:104FD0000E943135D7FC05C0C114D10439F404FF57
:104FE00005C0D194C194D1088DE201C08BE2B70114
:104FF00090E00E94313580E36AE0C616D1042CF0BF
:105000008F5FFAE0CF1AD108F7CFB70190E00E9486
:105010003135B701C601C0960E94313541C1833692
:1050200031F0833779F0833509F058C021C056013B
:1050300072E0A70EB11CF6018081898301E010E0C7
:10504000640114C05601F2E0AF0EB11CF601C0803D
:10505000D18026FF03C0612F70E002C06FEF7FEFA9
:10506000C6012B8B0E94E8348C012B892F7715C049
:105070005601F2E0AF0EB11CF601C080D18026FFD0
:1050800003C0612F70E002C06FEF7FEFC6012B8B72
:105090000E94D6348C012B892068722E23FD1AC001
:1050A000852D90E008171907A8F4B70180E290E079
:1050B0000E9431355A94F4CFF60177FC859177FE42
:1050C00081916F01B70190E00E94313551105A94DF
:1050D000015011090115110579F7E2C0843611F06C
:1050E000893651F5560127FF09C0F4E0AF0EB11C17
:1050F000F60160817181828193810AC0F2E0AF0E76
:10510000B11CF60160817181882777FD8095982F09
:10511000022F0F7697FF08C0909580957095619546
:105120007F4F8F4F9F4F00682AE030E0A4010E941C
:10513000EA35C82EC8183EC0022F853721F40F7EED
:105140002AE030E01DC0097F8F3691F018F48835D1
:1051500059F0B0C0803719F0883711F0ABC000614A
:1051600004FF09C0046007C024FF08C0066006C031
:1051700028E030E005C020E130E002C020E132E06C
:10518000560107FF09C0F4E0AF0EB11CF6016081C3
:1051900071818281938108C0F2E0AF0EB11CF601EB
:1051A0006081718180E090E0A4010E94EA35C82E00
:1051B000C8180F7706FF0BC0202F2E7FC11650F4A2
:1051C00004FF0AC002FD08C0202F2E7E05C0DC2C83
:1051D000202F03C0DC2C01C0D12E24FF0DC0FE0106
:1051E000EC0DF11D8081803311F4297E09C022FF6E
:1051F00006C0D394D39404C0822F867809F0D39448
:1052000023FD13C020FF06C01C2DD51418F4150D66
:105210001D19D52CD51468F4B70180E290E02B8BD2
:105220000E943135D3942B89F5CFD51410F45D1835
:1052300001C0512C24FF12C0B70180E390E02B8BFA
:105240000E9431352B8922FF17C021FF03C088E55A
:1052500090E002C088E790E0B7010CC0822F86780A
:1052600059F021FD02C080E201C08BE227FD8DE2F2
:10527000B70190E00E943135C11638F4B70180E3E0
:1052800090E00E9431351150F7CFCA94F401EC0D33
:10529000F11D8081B70190E00E943135C110F5CF3A
:1052A000552009F4C2CCB70180E290E00E9431356C
:1052B0005A94F6CFF7018681978102C08FEF9FEF56
:1052C00063960FB6F894DEBF0FBECDBFDF91CF91CE
:1052D0001F910F91FF90EF90DF90CF90BF90AF9014
:1052E0009F908F907F906F905F904F903F902F9006
:1052F000089520FD09C0FC0123FD05C022FF02C066
:105300007383628351834083089544FD10C046FD3A
:1053100010C0DB01FC01AA0FBB1FEE1FFF1F109482
:10532000D1F76A0F7B1F8E1F9F1F31E003C033E050
:1053300001C034E0660F771F881F991F3150D1F7E5
:10534000620F711D811D911D08950F931F93CF93BF
:10535000DF938C01C8010E94F334EC0197FD08C073
:105360000E94BB34892BB1F7B801CE010E94D13520
:10537000CE01DF91CF911F910F9108956F927F928F
:105380009F92AF92BF92CF92DF92EF92FF920F93D4
:105390001F93CF93DF931F92CDB7DEB78C013B01F4
:1053A0005A0129830E94F334AC01552729814B32DD
:1053B000510521F04D32510581F4206831E0631A26
:1053C00071086114710411F480E07FC0C801298361
:1053D0000E94F334298197FDF7CFE22FED7F9E2EB7
:1053E000322F307379F5803369F57301F1E0EF1AEC
:1053F000F108E114F10409F454C0C80129830E94A2
:10540000F334298197FD4DC0382F3F7D383581F425
:10541000292D2264922E32E0631A710861147104FE
:1054200009F43FC0C8010E94F33497FF0BC039C094
:1054300026FF04C0E92DE2609E2E03C0F92DF26123
:105440009F2E3701C12CD12C760120ED280F28305A
:1054500080F094FE04C0B8010E94D1351FC02A30EC
:1054600040F096FEF8CF2F7D3FEE320F363098F7A2
:105470002750492DC701B6010E9485296B017C0187
:10548000292D2260922E31E0631A71086114710493
:1054900059F0C8010E94F33497FFD7CF91FC04C0A4
:1054A00093CFC12CD12C760197FE08C0F094E094E4
:1054B000D094C094C11CD11CE11CF11C292DB70152
:1054C000A601C5010E94792981E00F90DF91CF915B
:1054D0001F910F91FF90EF90DF90CF90BF90AF9012
:1054E0009F907F906F9008954F925F926F927F92FE
:1054F0008F929F92AF92BF92CF92DF92EF92FF92E4
:105500000F931F93CF93DF93CDB7DEB7A0970FB65E
:10551000F894DEBF0FBECDBF5C014B017A018E0156
:105520000F5F1F4F680180E2F80111928A95E9F739
:10553000F501638080E090E0712C412CB0E041E007
:1055400050E0F90163FC559063FE51908F01A52D49
:105550009F01511003C080E090E07FC0FEE55F1224
:1055600002C0009761F16B2F70E0681779074CF467
:105570006DE5561661F1EDE25E1203C0442009F1BB
:1055800003C0411001C0752C6A2F6695669566951B
:10559000F601E60FF11D6A2F67708A0102C0000F45
:1055A000111F6A95E2F7B8017081762B7083A715F9
:1055B00059F0A71510F4AF5FE7CFA150E5CFB1E0E8
:1055C00004C04424439401C0412C0196BACF442026
:1055D00019F08E8180628E83B11103C07724739499
:1055E00019C0F601CE018196208120952193E817FC
:1055F000F907D1F7F3CFE114F10429F0F701808323
:10560000C70101967C0191E0891A910881149104E7
:10561000F1F0712CC5010E94F33497FD16C0282FBC
:10562000269526952695F601E20FF11D208130E0A2
:10563000AC014770552702C0359527954A95E2F78A
:1056400020FDD9CFB5010E94D135711084CFE1146E
:10565000F10411F0F7011082C801A0960FB6F8947A
:10566000DEBF0FBECDBFDF91CF911F910F91FF9095
:10567000EF90DF90CF90BF90AF909F908F907F90F2
:105680006F905F904F9008952F923F924F925F924C
:105690006F927F929F92AF92BF92CF92DF92EF92E2
:1056A000FF920F931F93CF93DF9300D000D0CDB71D
:1056B000DEB76C018B011A010E94F3349E838D8347
:1056C00099278B32910529F08D9799F480E8982ECF
:1056D00001C0912C015011090115110511F480E050
:1056E00036C1C6010E94F3349E838D8397FF02C0AA
:1056F000F6CF912C8D819E810E94C334893691050D
:1057000041F08E369105D9F5B4ED6B2EB1E07B2ECC
:1057100004C0A7ED6A2EA1E07A2E8FEF681A780AEE
:10572000F3013197B490BB20F1F00150110901153C
:10573000110571F0C6010E94F3347C0197FD08C089
:105740000E94C334B81649F3B601C7010E94D1358F
:105750002AED621621E0720609F0C1CF80E090E0E8
:10576000A0E8BFE709C097ED691691E07906B1F7A7
:1057700080E090E0A0ECBFE7BC01CD01D8C0412C97
:10578000512C3201E12CF12C2D8120532A3028F5A7
:10579000E92DE260BE2E892D887092FE06C081112F
:1057A00023C0FFEFEF1AFF0A1FC0882319F081E022
:1057B000E81AF10840E2C301B2010E9485292B01D9
:1057C0003C0198E9491699E95906690699E1790673
:1057D00058F0E92DE660BE2E07C02E3FA1F493FCE1
:1057E00012C0F92DF860BF2E0150110901151105E5
:1057F00049F0C6010E94F3349E838D839B2C97FD54
:1058000002C0C2CF9B2C91FE6ACF8D818F7D8534E3
:1058100009F056C0580121E0A21AB108A114B10440
:1058200009F45DCFC6010E94F3349E838D8397FDFA
:1058300056CF99278B32910529F08D9781F4892DC8
:105840008061982E580192E0A91AB108A114B10400
:1058500009F445CFC6010E94F3349E838D838D8168
:105860009E81C0970A9708F03ACF8501A12CB12CF0
:10587000B501882777FD8095982F2D81205340E230
:105880000E948529AB01BC015A0101501109011583
:10589000110571F0C60149835A836B837C830E9492
:1058A000F3349E838D83C09749815A810A9700F310
:1058B00094FE04C0AA24BB24A41AB50AEA0CFB1C5B
:1058C000012B41F0ED81FE81F7FD04C0B601CF014F
:1058D0000E94D135C301B2010E94E231F7FE08C037
:1058E000F194E194F108F3EFAF2EF1E0BF2E04C084
:1058F000EBE0AE2EE2E0BE2E6501F8E1CF1AD10852
:1059000000E210E0E016F10650F0F5012591359126
:10591000459154910E947233E01AF10AF3CF24E0CA
:10592000A21AB10816950795AC14BD0459F797FE55
:1059300005C0DC01CB01B058BC01CD0121143104FC
:1059400029F0F101608371838283938381E026963D
:105950000FB6F894DEBF0FBECDBFDF91CF911F9180
:105960000F91FF90EF90DF90CF90BF90AF909F90FE
:105970007F906F905F904F903F902F9008954F923F
:105980005F926F927F928F929F92AF92BF92CF92CF
:10599000DF92EF92FF920F931F93CF93DF931F92AB
:1059A000CDB7DEB78C012B017A01FC01178216827C
:1059B000A12CF801D380F201D3FC8591D3FE819113
:1059C000382F2F01882309F416C190E039830E94F3
:1059D000BB343981892B21F0C8010E94A529E9CF68
:1059E000353241F4F201D3FC3591D3FE31912F01D0
:1059F000353269F4C80139830E94F334398197FD47
:105A0000F8C03817B1F2B8010E94D135F4C03A326B
:105A100041F4D3FC3591D3FE31912F01BB24B394D3
:105A200001C0B12C812C912C20ED230F2A3088F459
:105A3000FB2DF260BF2EB40180E090E040E20E94B6
:105A400085294B01F201D3FC3591D3FE31912F0111
:105A5000EBCFB1FE04C08114910421F4CCC08824A2
:105A60008A94982C383619F03C3661F014C0F20153
:105A7000D3FC3591D3FE31912F01383661F4FB2DE3
:105A8000F860BF2E8B2D8460B82EF201D3FC3591C7
:105A9000D3FE31912F01332309F4ADC0632F70E0A1
:105AA00082EC91E039830E94CB343981892B09F44F
:105AB000A2C0B0FC07C0F701C080D180C701029628
:105AC0007C0102C0C12CD12C3E3651F4F801468134
:105AD000578160E070E02B2DC6010E94792969CFC3
