:100000000C9486010C94B7010C94300D0C94300DB7
:100010000C94720D0C94B7010C94300D0C94B70134
:100020000C94B7010C947C0D0C94B7010C94B7019F
:100030000C94B7010C94B7010C94B7010C94B70160
:100040000C94B7010C94B7010C94B7010C94B70150
:100050000C94B7010C94B7010C94B7010C94B70140
:100060000C94B7010C94B7010C94B7010C94B70130
:100070000C94B7010C94B7010C94B7010C94B70120
:100080000C94B7010C94B7010C94B7010C94B70110
:100090000C94B7010C94B7010C94B7010C94B70100
:1000A0000C94B7010C94B7010C94B7010C94B701F0
:1000B0000C94B7010C94B7010C94B7010C94B701E0
:1000C0000C94B7010C94B7010C94B7010C94B701D0
:1000D0000C94B7010C94B7010C94B7010C94B701C0
:1000E0000C94B701AC2AC12ACF2ADD2AEB2AF92ABF
:1000F0000E2B232B382B4D2B9E2A882A0763423642
:10010000B79BD8A71A39685618AEBAAB558C1D3CA8
:10011000B7CC5763BD6DEDFD753EF6177231BF006C
:100120000000803F08000000BE922449123EABAAA6
:10013000AA2ABECDCCCC4C3E00000080BEABAAAA01
:10014000AA3E00000000BF000000803F0000000049
:1001500000084178D3BB4387D1133D190E3CC3BD82
:100160004282AD2B3E68EC8276BED98FE1A93E4C2F
:1001700080EFFFBE01C4FF7F3F00000000000C9431
:100180004D2B0C94F92A0C94882A0C94382B0C943F
:10019000232B0C94EB2A0C9487070C94AC2A0C9418
:1001A000C12A0C94CF2A0C940E2B0C9437360C9445
:1001B00097070C94DD2A0C949E2A6E616E00696E7E
:1001C00066006364696E6F70737578585B65666707
:1001D00045464700616E006E66696E69747900CDB0
:1001E000CCCC3D0AD7233C17B7D13877CC2B3295EE
:1001F00095E6241FB14F0A000020410000C84200CC
:10020000401C4620BCBE4CCA1B0E5AAEC59D740095
:10021000407A10F35A00A0724E18090010A5D4E8D5
:100220000000E87648170000E40B54020000CA9A68
:100230003B000000E1F505000080969800000040BA
:10024000420F000000A086010000001027000000FF
:1002500000E803000000006400000000000A000045
:100260000000000100000000002C76D888DC674FF9
:100270000823DFC1DFAE59E1B1B796E5E3E453C629
:100280003AE651997696E8E6C28426EB898C9B6221
:10029000ED407C6FFCEFBC9C9F40F2BAA56FA5F4CB
:1002A00090055A2AF75C936B6CF9676DC11BFCE0F3
:1002B000E40D47FEF520E6B500D0ED902E03009446
:1002C0003577050080841E080000204E0A000000DB
:1002D000C80C333333330F986E12831141EF8D21E5
:1002E00014893BE65516CFFEE6DB18D1844B381B4C
:1002F000F77C1D901DA4BBE424203284725E228111
:1003000000C9F124ECA1E53D2700373611241FBEBA
:10031000CFEFD1E2DEBFCDBF00E00CBF13E0A0E025
:10032000B2E0E8E8F8E700E00BBF02C007900D92EA
:10033000AA3EB107D9F725E0AAEEB3E001C01D92AD
:10034000AD36B207E1F713E0CCE0D3E000E006C041
:1003500022970109FE010BBF0E94A236CA30D107C5
:1003600080E00807A9F70E94AA350C94423C0C943F
:100370000000279A08952F9A08952F9808951F9A9C
:1003800008950097D9F020E030E02F9A4FE75AE126
:1003900066E0415050406040E1F700C000002F98F7
:1003A0004FE75AE166E0415050406040E1F700C03D
:1003B00000002F5F3F4F2817390739F70895813024
:1003C00009F441C0823009F44BC0833009F472C093
:1003D000843009F47DC0853009F498C0863009F076
:1003E00008952FEF81EE94E0215080409040E1F796
:1003F00000C0000080910101846080930101809120
:1004000002018460809302018091010182608093E7
:1004100001018091020182608093020180910101BB
:1004200081608093010180910201816080930201CB
:1004300080910101877F8093010180910201877F74
:10044000809302010895809A889A6F9A779A839A86
:100450008B9A819A899A82988A986E98769808954C
:100460000B9A13982FEF81EE94E02150804090403A
:10047000E1F700C0000080910701806880930701C8
:100480008091080180688093080180910701826053
:100490008093070180910801826080930801809118
:1004A000070188608093070180910801886080932C
:1004B000080108950B9A13982FEF81EE94E02150D4
:1004C00080409040E1F700C00000099A119ADDCF0A
:1004D00080910401806180930401809105018F7EE9
:1004E000809305012FEF81EE94E0215080409040F1
:1004F000E1F700C000008091040180648093040152
:1005000080910501806480930501BFCF0F9A1798F1
:100510002FEF81EE94E0215080409040E1F700C041
:1005200000000D9A159A809107018260809307015F
:1005300080910801826080930801809107018860A2
:100540008093070180910801886080930801809161
:1005500007018F7D80930701809108018F7D809333
:1005600008010895813009F0089577988AE08A9506
:10057000F1F7779A81E08A95F1F70895813009F1D2
:10058000823011F1833059F1843081F0853071F17E
:10059000863009F008958091020182608093020103
:1005A000809102018B7F8093020108958091080160
:1005B0008D7F80930801809105018F7B80930501D9
:1005C00008958B9888980895809108018D7F809375
:1005D0000801809108018F77809308010895809128
:1005E00008018D7F8093080111980895809108017A
:1005F0008D7F8093080115980895813031F1823004
:1006000041F1833061F1843081F0853051F18630E1
:1006100009F0089580910201826080930201809127
:100620000201846080930201089580910501806435
:100630008093050180910801826080930801809178
:1006400008018860809308010895889A8B9A899A96
:10065000089580910801806880930801EBCF119A7A
:10066000E9CF159A8091080182608093080108956E
:10067000962F9078813009F4C1C0823029F0833000
:1006800019F0843009F0089580910801992309F444
:1006900038C188608093080181E08A95F1F78091E4
:1006A000080182608093080181E08A95F1F78091CA
:1006B00008018D7F8093080166FF1DC180910801AC
:1006C00088608093080181E08A95F1F780910801A4
:1006D00082608093080181E08A95F1F7809108019A
:1006E0008D7F8093080165FF00C1809108018860BB
:1006F0008093080181E08A95F1F78091080182607A
:100700008093080181E08A95F1F7809108018D7F3F
:100710008093080164FFE3C08091080188608093A2
:10072000080181E08A95F1F7809108018260809349
:10073000080181E08A95F1F7809108018D7F80930F
:10074000080163FFC6C0809108018860809308019A
:1007500081E08A95F1F78091080182608093080119
:1007600081E08A95F1F7809108018D7F80930801DF
:1007700062FFA9C08091080188608093080181E030
:100780008A95F1F78091080182608093080181E0E9
:100790008A95F1F7809108018D7F8093080161FFB0
:1007A0008CC08091080188608093080181E08A955F
:1007B000F1F78091080182608093080181E08A95B9
:1007C000F1F7809108018D7F8093080160FF6FC071
:1007D0008091080188608093080181E08A95F1F793
:1007E0008091080182608093080181E08A95F1F789
:1007F000809108018D7F809308010895911185C033
:10080000899881E08A95F1F78B9A81E08A95F1F7D2
:100810008B9866FF88C0899A81E08A95F1F78B9A58
:1008200081E08A95F1F78B9865FF7BC0899A81E01A
:100830008A95F1F78B9A81E08A95F1F78B9864FF9E
:100840006EC0899A81E08A95F1F78B9A81E08A954A
:10085000F1F78B9863FF61C0899A81E08A95F1F77F
:100860008B9A81E08A95F1F78B9862FF54C0899A40
:1008700081E08A95F1F78B9A81E08A95F1F78B9860
:1008800061FF47C0899A81E08A95F1F78B9A81E0F0
:100890008A95F1F78B9860FF3AC0899A81E08A9532
:1008A000F1F78B9A81E08A95F1F78B980895809102
:1008B0000801877F8093080190CF80910801877F8E
:1008C0008093080173CF80910801877F809308018E
:1008D00056CF80910801877F8093080139CF80919E
:1008E0000801877F809308011CCF80910801877FD2
:1008F00080930801FFCE80910801877F80930801D3
:10090000E2CE877F80930801C7CE899A7ACF8998F3
:10091000C5CF8998B8CF8998ABCF89989ECF899851
:1009200091CF899884CF899877CF813009F4BBC063
:10093000853011F080E0089581E08A95F1F780918B
:1009400008018260809308018091060191E09A95E8
:10095000F1F7909108019D7F9093080185FB88270E
:1009600080F9880F91E09A95F1F7909108019260D3
:10097000909308012091060191E09A95F1F79091EA
:1009800008019D7F9093080125FB992790F9892BF9
:10099000880F91E09A95F1F79091080192609093F9
:1009A00008012091060191E09A95F1F790910801D4
:1009B0009D7F9093080125FB992790F9892B880F3B
:1009C00091E09A95F1F79091080192609093080157
:1009D0002091060191E09A95F1F7909108019D7F91
:1009E0009093080125FB992790F9892B880F91E0B6
:1009F0009A95F1F7909108019260909308012091E7
:100A0000060191E09A95F1F7909108019D7F9093EE
:100A1000080125FB992790F9892B880F91E09A9579
:100A2000F1F79091080192609093080120910601DE
:100A300091E09A95F1F7909108019D7F90930801BC
:100A400025FB992790F9892B880F91E09A95F1F76A
:100A5000909108019260909308012091060191E025
:100A60009A95F1F7909108019D7F9093080125FBDD
:100A7000992790F9892B91E09A95F1F790910801C7
:100A80009260909308012091060191E09A95F1F708
:100A9000909108019D7F90930801880F25FB99276D
:100AA00090F9892B08958A95F1F78B9A8FB191E08F
:100AB0009A95F1F78B9882FB882780F9880F91E04F
:100AC0009A95F1F78B9A2FB191E09A95F1F78B985F
:100AD00022FB992790F9892B880F91E09A95F1F7DD
:100AE0008B9A2FB191E09A95F1F78B9822FB992779
:100AF00090F9892B880F91E09A95F1F78B9A2FB195
:100B000091E09A95F1F78B9822FB992790F9892B20
:100B1000880F91E09A95F1F78B9A2FB191E09A9511
:100B2000F1F78B9822FB992790F9892B880F91E098
:100B30009A95F1F78B9A2FB191E09A95F1F78B98EE
:100B400022FB992790F9892B880F91E09A95F1F76C
:100B50008B9A2FB191E09A95F1F78B9822FB992708
:100B600090F9892B91E09A95F1F78B9A2FB191E04A
:100B70009A95F1F78B98880F22FB992790F9892B8A
:100B80000895962F9078813009F4F3C0863011F0E3
:100B900080E0089580910201911174C18E7F80934D
:100BA000020181E08A95F1F79091000180910201A4
:100BB0008D7F8093020181E08A95F1F78091020197
:100BC00082608093020193FB992790F9990F66FF49
:100BD0008FC18091020181608093020181E08A953A
:100BE000F1F780910001209102012D7F20930201F5
:100BF00021E02A95F1F72091020122602093020161
:100C000083FB882780F9892B880F65FF6BC1909142
:100C1000020191609093020191E09A95F1F7909111
:100C20000001209102012D7F2093020121E02A95ED
:100C3000F1F72091020122602093020193FB992792
:100C400090F9982B990F64FF47C180910201816050
:100C50008093020181E08A95F1F780910001209153
:100C600002012D7F2093020121E02A95F1F72091C6
:100C7000020122602093020183FB882780F9892BDF
:100C8000880F63FF23C1909102019160909302014C
:100C900091E09A95F1F790910001209102012D7F4A
:100CA0002093020121E02A95F1F7209102012260B0
:100CB0002093020193FB992790F9982B990F62FFDB
:100CC000FFC08091020181608093020181E08A95DA
:100CD000F1F780910001209102012D7F2093020104
:100CE00021E02A95F1F72091020122602093020170
:100CF00083FB882780F9892B880F61FFDBC09091E7
:100D0000020191609093020191E09A95F1F7909120
:100D10000001209102012D7F2093020121E02A95FC
:100D2000F1F72091020122602093020193FB9927A1
:100D300090F9982B990F60FFB7C0809102018160F4
:100D40008093020181E08A95F1F780910001209162
:100D500002012D7F2093020121E02A95F1F72091D5
:100D6000020122602093020183FB882780F9892BEE
:100D70000895911185C0899881E08A95F1F78B9A41
:100D80009FB181E08A95F1F78B9892FB992790F9B2
:100D9000990F66FF7DC0899A81E08A95F1F78B9A59
:100DA0008FB121E02A95F1F78B9882FB882780F993
:100DB000892B880F65FF6AC0899A91E09A95F1F7AF
:100DC0008B9A9FB121E02A95F1F78B9892FB992796
:100DD00090F9982B990F64FF63C0899A81E08A95F6
:100DE000F1F78B9A8FB121E02A95F1F78B9882FB6E
:100DF000882780F9892B880F63FF50C0899A91E07A
:100E00009A95F1F78B9A9FB121E02A95F1F78B988B
:100E100092FB992790F9982B990F62FF3DC0899A10
:100E200081E08A95F1F78B9A8FB121E02A95F1F74D
:100E30008B9882FB882780F9892B880F61FF2AC055
:100E4000899A91E09A95F1F78B9A9FB121E02A95C2
:100E5000F1F78B9892FB992790F9982B990F60FFE7
:100E600021C0899A81E08A95F1F78B9A8FB121E0B0
:100E70002A95F1F78B9882FB882780F9892B0895B2
:100E8000899A7ACF8160809302018BCE899895CF21
:100E9000899882CF8998D5CF8998C2CF8998AFCFCA
:100EA00089989CCF8998DECF809102018E7F8093B4
:100EB000020148CF909102019E7F9093020124CFBE
:100EC000809102018E7F8093020100CF90910201F8
:100ED0009E7F90930201DCCE809102018E7F8093F1
:100EE0000201B8CE909102019E7F9093020194CEB0
:100EF000809102018E7F8093020170CE813011F0CB
:100F000080E008958CB186FB882780F90895CF93FF
:100F1000C82F8A3041F09091C00095FFFCCFC0935C
:100F2000C600CF9108958DE00E948707F4CFCF933C
:100F30008091C00087FFFCCFC091C6002091EA03DA
:100F40003091EB03232B39F06091690570916A05AC
:100F50008C2F0E9487078C2FCF9108951092C50087
:100F600089E18093C400E0ECF0E080818D7F808394
:100F700086E08093C20088E18093C10008951092BA
:100F8000C50089E18093C400E0ECF0E080818D7FB2
:100F9000808386E08093C20088E18093C100109234
:100FA000EB031092EA0380E092E09093680580934F
:100FB000670590936A058093690508959093EB0304
:100FC0008093EA0308951092EB031092EA030895C8
:100FD000FC0160830895CF92DF92EF92FF92CF934E
:100FE000DF93EC016A017B0188810E94BE026C2DB7
:100FF00088810E943803B7018827992788810E9439
:10100000380399278F2D7E2D6D2D88810E943803FE
:101010008881DF91CF91FF90EF90DF90CF900C947B
:10102000FD02FC0180810C94DF01FC0160830895C6
:101030000F931F93CF93DF93EC018B0188810E9464
:10104000BE02B8010024660F771F001C660F771FD1
:10105000001C672F702D6F7388810E943803602FEA
:10106000660F660F88810E9438038881DF91CF91D7
:101070001F910F910C94FD02FC0180810C94DF0103
:101080000F931F93CF93DF938C01EB010E94D83A0B
:10109000FE0101900020E9F7EC1BFD0BC8018E0F4B
:1010A0009F1FDF91CF911F910F910895FC016083E5
:1010B00008950F931F93CF93DF93EC0188810E94D3
:1010C000BE0288810E94950488810E949504182F91
:1010D00088810E949504082F88810E94FD02802F3C
:1010E00090E0912BDF91CF911F910F910895FC011A
:1010F00080810C94DF01FC0160830895EF92FF92E0
:101100001F93CF93DF931F92CDB7DEB77C01162FCD
:10111000FC01808179830E94BE026981F701808190
:101120000E943803612FF70180810E943803F70184
:1011300080810F90DF91CF911F91FF90EF900C94E1
:10114000FD02FC0180810C94DF01CF92DF92EF92CF
:10115000FF920F931F93CF93DF931F92CDB7DEB70C
:10116000D82E7B0181E099830E94BE026E2D81E022
:101170000E9438036F2D81E00E9438039981E114A9
:10118000F10409F10D2D192FC12CD12C0CC0F8013F
:1011900061918F0181E00E943803FFEFCF1ADF0ACF
:1011A000CE14DF0481F0C6018F739927892B79F75C
:1011B00081E00E947E078111EACF81E00E947E07D4
:1011C0008823B1F3E4CF81E00F90DF91CF911F919D
:1011D0000F91FF90EF90DF90CF900C94FD0260E0B4
:1011E00070E88DE295E00C947E0860932D02709378
:1011F0002E0280932F02909330020E94D93725E966
:101200003FEB46E55CE30E9469390E94AD3761150A
:10121000710521E08207910520F06FEF7FEF80E0FC
:1012200090E08DE295E00C947E08CF92DF92EF92F1
:10123000FF9223E333E948E853E40E94A7369B0179
:10124000AC0160E070E080E89FE30E940F372FE080
:101250003FEC4BE55BE30E94A6362AE93DE54EE60E
:1012600055E40E9469390E947C372AE93FED4DE13F
:1012700056E40E94693920E030E44CE956E40E94CB
:101280000F3720E030E040E85FE30E94A7366B01B3
:101290007C0120E030E040E85FE30E940B3787FFED
:1012A00006C0C12CD12C30E8E32E3FE3F32E609131
:1012B00031027091320280E090E00E94D937A7019C
:1012C00096010E940F370E94AD378DE295E0FF90A6
:1012D000EF90DF90CF900C947E0860E070E088E2A1
:1012E00095E00C9418089093200280931F02BC0193
:1012F00080E090E00E94D93723E439E341E95DE3DF
:101300000E9469390E94AD37611580E1780710F0BD
:101310006FEF7FE088E295E00C9418084F925F929F
:101320006F927F928F929F92AF92BF92CF92DF92F5
:10133000EF92FF92C0901C05D0901D05E0901E0515
:10134000F0901F0560912302709124026E5F7F4F21
:10135000882777FD8095982F0E94DB37A70196019B
:101360000E940B3787FD14C0609121027091220208
:1013700062507109882777FD8095982F0E94DB378E
:101380009B01AC01C701B6010E940B3787FF16C055
:1013900081E08093300580932F0580913105811184
:1013A00051C0FF90EF90DF90CF90BF90AF909F9093
:1013B0008F907F906F905F904F90089580900F0571
:1013C00090901005A0901105B0901205C501B401D0
:1013D0000E94D9372B013C0120E030E040E85FE378
:1013E00060911B0270911C0280911D0290911E025F
:1013F0000E94A73620E030E04AE754E40E946939B1
:101400009B01AC01C301B2010E94B03818160CF167
:1014100080913105882309F459C08091130590917A
:101420001405A0911505B0911605892B8A2B8B2BDD
:1014300091F489288A288B2871F484E08093300500
:1014400080932F0580E090E00E947309109232058E
:10145000A8CF82E09ECF80912E05882309F4A1CFEA
:101460008090180590901905A0901A05B0901B0562
:10147000A5019401609125027091260280912702B6
:10148000909128020E94B038181654F5A7019601D1
:10149000C501B4010E94A6362DEC3CEC4CE45EE3A1
:1014A0000E94B03818167CF1A5019401C701B6015D
:1014B0000E94A6362DEC3CEC4CE45EE30E94B03872
:1014C00018160CF06ECF10922E056BCF10923005CF
:1014D00080912F05813009F064CF10922F0561CFE4
:1014E000A5019401C701B6010E94A6362DEC3CEC83
:1014F0004CE45EE30E94B03818162CF0A701960168
:10150000C501B401D5CF83E08093300580932F05CA
:1015100080E090E00E9473091092320510922E052F
:1015200040CF40E050E0BA0184E295E00C94EB0734
:10153000942F809318026093170240931602462F4F
:1015400050E060E070E0582B762F652F542F442731
:10155000492B84E295E00C94EB07CF92DF92EF9257
:10156000FF92809118029091270560911702409197
:101570001602891709F46EC00E94980A8091180219
:10158000809327058091170280932605809116028B
:1015900080932505C0902902D0902A02E0902B026A
:1015A000F0902C02209125023091260240912702D2
:1015B00050912802C701B6010E940B37811153C018
:1015C000C0901B02D0901C02E0901D02F0901E0201
:1015D0002091290530912A0540912B0550912C0529
:1015E000B601C7010E940B3781111DC02091320541
:1015F00080913105821791F0222329F080913005E6
:10160000882309F445C010922E0580E090E00E94E6
:1016100073091092320580E080933105FF90EF90BE
:10162000DF90CF9008958091320581110CC020E0A9
:10163000C601D7018093290590932A05A0932B0515
:10164000B0932C05D5CF80913005882309F449C08B
:1016500021E0EECF9091260569138ECF909125055C
:1016600049138ACF97CFC701B6010E94150980910F
:10167000290290912A02A0912B02B0912C02809312
:10168000250290932602A0932702B093280298CFB8
:1016900081E080932E0580911C0590911D05A091FD
:1016A0001E05B0911F058093180590931905A0930E
:1016B0001A05B0931B0520E030E04AE754E460913E
:1016C0001B0270911C0280911D0290911E020E94CB
:1016D00069390E94AD37CB010E94730980913205B0
:1016E0009BCF20E030E04AE754E4B601C7010E94F6
:1016F00069390E94AD37CB010E947309C0901B026B
:10170000D0901C02E0901D02F0901E022091320544
:101710008FCF089587E195E00E945908BC0180E0D1
:1017200090E00E94D93721E836E948E952E40E9466
:1017300069390E94AD37609320057093210580932D
:1017400022059093230508958F929F92AF92BF92A6
:10175000CF92DF92EF92FF9287E195E00E945908C5
:101760005C01609114027091150280E090E00E948B
:10177000D9376B017C01B50180E090E00E94D93738
:101780009B01AC01C701B6010E940F3720E030E099
:1017900040E85FE30E94A63620E030E44CE956E4DE
:1017A0000E9469390E94F6386B017C0127EE34E60D
:1017B00044E759E30E94693928EA35ED44E95AE3E0
:1017C0000E94A7364B015C0120E23AE645EC53E368
:1017D000C701B6010E946939A70196010E946939C3
:1017E000A70196010E9469399B01AC01C501B401B2
:1017F0000E94A7369B01AC0160E070E080E89FE3A7
:101800000E940F3723E333E948E853E40E94A636E9
:1018100060931C0570931D0580931E0590931F0512
:10182000FF90EF90DF90CF90BF90AF909F908F9000
:10183000089508954F925F926F927F928F929F9238
:10184000AF92BF92CF92DF92EF92FF920F931F93CE
:10185000CF93DF9389E095E00E946E2B6B017C01B2
:1018600010916305153008F0B9C0C12FD0E01F5F9B
:10187000CC0FDD1FCC0FDD1FCE01815B9A4F5C01C9
:10188000C701B6017F70882799270E94D9372DEAB2
:1018900039EA40E252E40E9469390E94AD37F5010D
:1018A0006083718382839383C55CDA4FB701882795
:1018B00099277F70882799270E94D93725EF32E82A
:1018C0004EE550E40E9469390E94AD376883798300
:1018D0008A839B8310936305EFE4F5E0ABE3B5E007
:1018E000812C912C540100E010E0980161917191DC
:1018F00081919191600F711F821F931FCD90DD9098
:10190000ED90FD90C80CD91CEA1CFB1C25E0E336C9
:10191000F20729F08B019C0146015701E7CFF5E062
:101920004F2E512C612C712CA30192010E94603624
:1019300049015A0120930F0530931005409311057A
:1019400050931205C701B601A30192010E946036AF
:10195000293883E138074105510508F443C088E878
:1019600093E1A0E0B0E08093130590931405A09359
:101970001505B093160568E893E180E050E0262F46
:10198000392F482FC501B4010E94503628EE33E0AC
:1019900040E050E00E94603620930B0530930C0528
:1019A00040930D0550930E058091000185FB88271B
:1019B00080F980930A05CA01B901DF91CF911F9187
:1019C0000F91FF90EF90DF90CF90BF90AF909F90DE
:1019D0008F907F906F905F904F90089511E0C0E0DE
:1019E000D0E046CF2093130530931405409315059E
:1019F00050931605622F932F842FC1CF52985A9A75
:101A0000E9E6F0E080818F7D808380818061808342
:101A1000EA9A5198599A8081877F80838081846077
:101A20008083E99A53985B9A808180688083808163
:101A30008F7B8083EB9A26982E9AA8E6B0E08C9153
:101A400081608C93EBE6F0E0808180648083259850
:101A50002D9A8C9181608C9380818062808308951F
:101A60001F920F920FB60F9211240BB60F922F9365
:101A70003F934F935F936F938F939F93EF93FF9356
:101A800040913A05440F440F40933A0559B169B16A
:101A900061FB882780F990E0842B52FB222720F9F4
:101AA00030E0220F331F822B932B80933A058F70E7
:101AB000E82FF0E0E35CFD4F809166059081890F8F
:101AC00080936605FF91EF919F918F916F915F9148
:101AD0004F913F912F910F900BBE0F900FBE0F9023
:101AE0001F9018951F920F920FB60F9211240F900E
:101AF0000FBE0F901F9018951F920F920FB60F9266
:101B000011248F939F9383B186FB882780F990914E
:101B10000F02992311F08823C1F080930F0283B143
:101B200085FB882780F990910E02992329F0811175
:101B300003C091E09093640580930E029F918F9172
:101B40000F900FBE0F901F90189591E09093650530
:101B5000E4CF9F92AF92BF92CF92DF92EF92FF922B
:101B60000F931F93CF93DF9393B113B1E7EFF4E09B
:101B7000C0E0D0E08191811104C02196CD30D10523
:101B8000C9F780916505882331F0092F007496FF0D
:101B9000EEC01092650580916405882339F0812F8D
:101BA0008072B82E15FF93C01092640520913905FC
:101BB00010916605211739F080913705909138050D
:101BC000C817D907A1F01092390510926605D09375
:101BD0003805C0933705DF91CF911F910F91FF908A
:101BE000EF90DF90CF90BF90AF909F900895121B21
:101BF000C730D10509F4D8C10CF016C1C130D105E8
:101C000009F401C2C630D10509F059C087E61802AF
:101C1000812D11248595859517FD8395182F8111A8
:101C20009AC2612F772767FD7095872F972F0E94A3
:101C3000DB372DEC3CEC4CEC5DE30E9469392091E4
:101C40001B0230911C0240911D0250911E020E9405
:101C5000A736962EA72EB82EC92E60911902709124
:101C60001A02882777FD8095982F0E94DB37D62EA1
:101C7000E72EF82E092F262F372F482F592F692DA1
:101C80007A2D8B2D9C2D0E94B03818160CF022C294
:101C900020E030E0A9016D2D7E2D8F2D902F0E9428
:101CA0000B3787FD68C28D2D9E2DAF2DB02F8093F1
:101CB0001B0290931C02A0931D02B0931E021123DD
:101CC00021F010923905109266055F9A80CFC730D7
:101CD000D10509F483C20CF00BC1C130D10509F460
:101CE0000DC3C630D10509F040C05F988FE19EE476
:101CF0000197F1F700C0000020E030E040E85FE32A
:101D000060911B0270911C0280911D0290911E0235
:101D10000E94A7365B016C016091190270911A0252
:101D2000882777FD8095982F0E94DB377B018C01F7
:101D30009B01AC01B501C6010E94B038181614F021
:101D40007501860120E030E0A901B701C8010E94B9
:101D50000B3787FD8FC3A701B80140931B02509337
:101D60001C0260931D0270931E025F9A1DCFC73044
:101D7000D10509F407C20CF088C0C130D10509F4BF
:101D800058C2C630D10509F04DC05F988FE19EE47E
:101D90000197F1F700C0000020E030E040E85FE389
:101DA00060911B0270911C0280911D0290911E0295
:101DB0000E94A636962EA72EB82EC92E6091190223
:101DC00070911A02882777FD8095982F0E94DB3743
:101DD000D62EE72EF82E092F262F372F482F592FD2
:101DE000692D7A2D8B2D9C2D0E94B03818161CF071
:101DF000D92C75010C2D20E030E0A9016D2D7E2D30
:101E00008F2D902F0E940B3787FD39C38D2D9E2D6E
:101E1000AF2DB02F80931B0290931C02A0931D0244
:101E2000B0931E025F9AB5CEC830D10509F493C0B5
:101E3000C930D10509F043CF87E61802812D11245E
:101E40008595859517FD8395182F81117CC180910B
:101E50001602A12EBB24A7FCB094A80EB11CB5019C
:101E6000882777FD8095982F0E94DB376B017C01D6
:101E700020E030E04FE753E40E94B03818160CF031
:101E800047C18FEF809316021ACFC830D10509F4ED
:101E9000B3C2C930D10531F65F988FE19EE4019756
:101EA000F1F700C00000A0901602B12C9AE0A91A28
:101EB000B108B501882777FD8095982F0E94DB3700
:101EC0006B017C0120E030E04FE753E40E94B03822
:101ED00018160CF4C4C220E030E0A901C701B60115
:101EE0000E940B3787FF0A2D009316025F9A51CE8E
:101EF000C830D10509F455C2C930D10509F035CF34
:101F00005F988FE19EE40197F1F700C00000009117
:101F1000160210E0065F1F4FB801882777FD8095F5
:101F2000982F0E94DB376B017C0120E030E04FE707
:101F300053E40E94B03818160CF493C220E030E04D
:101F4000A901C701B6010E940B3787FFB02EB092DE
:101F500016025F9A29CE87E61802812D11248595F5
:101F6000859517FD8395182F8111E5C08091170283
:101F7000A12EBB24A7FCB094A80EB11CB5018827E4
:101F800077FD8095982F0E94DB376B017C0120E064
:101F900030E04FE753E40E94B03818160CF0A2C0AE
:101FA0008FEF809317028BCE8FE99FE00197F1F7B7
:101FB00000C0000087E61802812D112485958595C3
:101FC00017FD8395182F8111AEC080911802A12EA4
:101FD000BB24A7FCB094A80EB11CB501882777FDDF
:101FE0008095982F0E94DB376B017C0120E030E068
:101FF0004FE753E40E94B03818160CF07EC08FEF04
:10200000809318025CCE17FDBBC01595159509F09D
:10201000AAC0612F772767FD7095872F972F0E94A1
:10202000DB372AE037ED43EA5BE30E946939209110
:10203000290230912A0240912B0250912C020E94D9
:10204000A736962EA72EB82EC92E60912302709126
:102050002402882777FD8095982F0E94DB37D62EA3
:10206000E72EF82E092F262F372F482F592F692DAD
:102070007A2D8B2D9C2D0E94B03818167CF560911E
:10208000210270912202882777FD8095982F0E9467
:10209000DB37962EA72EB82EC92E262F372F482F86
:1020A000592F6D2D7E2D8F2D902F0E940B3787FF7E
:1020B0000DC0892D9A2DAB2DBC2D809329029093B4
:1020C0002A02A0932B02B0932C02F9CD9D2C57012C
:1020D000C02EEFCFD92C75010C2DDACDD92C75017E
:1020E0000C2DCDCF20E030E0A901C701B6010E9440
:1020F0000B3787FFC9C180E054CF20E030E0A90151
:10210000C701B6010E940B3787FFB0C180E078CFCE
:1021100020E030E0A901C701B6010E940B3787FF1C
:10212000A7C180E0AFCE5F988FE99FE00197F1F7FC
:1021300000C000004ACF5F988FE99FE00197F1F758
:1021400000C0000013CF5F988FE99FE00197F1F77F
:1021500000C000007CCE5F988FE99FE00197F1F707
:1021600000C000005ECD5F988FE99FE00197F1F716
:1021700000C000004ECFD12CE12CF12C00E093CD1B
:102180001D5F43CF5F988FE19EE40197F1F700C098
:102190000000A0901802B12C9AE0A91AB108B5016C
:1021A000882777FD8095982F0E94DB376B017C0193
:1021B00020E030E04FE753E40E94B03818160CF4EA
:1021C00053C120E030E0A901C701B6010E940B37DE
:1021D00087FF0A2D009318025F9ADBCC5F988FE18E
:1021E0009EE40197F1F700C000000091180210E092
:1021F000065F1F4FB801882777FD8095982F0E94B2
:10220000DB376B017C0120E030E04FE753E40E94B4
:10221000B03818160CF41DC120E030E0A901C70148
:10222000B6010E940B3787FFB02EB09218025F9A5A
:10223000BBCC5F988FE19EE40197F1F700C00000EE
:102240006091290270912A0280912B0290912C02B8
:102250000E94A83761507109882777FD8095982FD3
:102260000E94DB37962EA72EB82EC92E609123022E
:1022700070912402882777FD8095982F0E94DB3784
:10228000D62EE72EF82E092F262F372F482F592F1D
:10229000692D7A2D8B2D9C2D0E94B03818161CF0BC
:1022A000D92C75010C2D6091210270912202882792
:1022B00077FD8095982F0E94DB37962EA72EB82E9B
:1022C000C92E262F372F482F592F6D2D7E2D8F2D5C
:1022D000902F0E940B3787FD03C09D2C5701C02E05
:1022E000892D9A2DAB2DBC2D8093290290932A0223
:1022F000A0932B02B0932C025F9A4BCC5F988FE196
:102300009EE40197F1F700C00000609129027091EE
:102310002A0280912B0290912C020E94A8376F5FB5
:102320007F4F882777FD8095982F0E94DB375B01D0
:102330006C016091230270912402882777FD8095BB
:10234000982F0E94DB377B018C019B01AC01B5010A
:10235000C6010E94B038181614F07501860160910C
:10236000210270912202882777FD8095982F0E9484
:10237000DB375B016C019B01AC01B701C8010E9416
:102380000B3787FD02C057016801A501B6014093D4
:10239000290250932A0260932B0270932C025F9AB9
:1023A00003CC5F988FE19EE40197F1F700C0000035
:1023B0000091170210E0065F1F4FB801882777FDD4
:1023C0008095982F0E94DB376B017C0120E030E084
:1023D0004FE753E40E94B03818160CF43DC020E0DB
:1023E00030E0A901C701B6010E940B3787FFB02E6C
:1023F000B09217025F9AD8CB5F988FE19EE4019765
:10240000F1F700C00000A0901702B12C9AE0A91AC1
:10241000B108B501882777FD8095982F0E94DB379A
:102420006B017C0120E030E04FE753E40E94B038BC
:1024300018166CF020E030E0A901C701B6010E9437
:102440000B3787FF0A2D009317025F9AA2CB0FEF7D
:10245000FACFBB24BA94E9CEBB24BA94C9CF0FEF0C
:1024600043CDBB24BA9473CD0FEFB4CE8A2DC8CD23
:102470008A2D08CDE12CF12C00E010E06CCCD12CA1
:10248000E12CF12C00E0C2CC8A2D8BCD81E00E94A2
:10249000BE0262E081E00E94380360E081E00E94B9
:1024A000380381E00E947E078823D9F362E081E04F
:1024B0000E94380360E081E00E94380381E00E94BE
:1024C000FD0281E00E94BE0281E00E947E07882317
:1024D000D9F36FEF81E00E94C1058093EC036FEFA9
:1024E00081E00E94C1058093ED0381E00E94FD021E
:1024F00081E00E947E078130D9F38091ED038F93B4
:102500008091EC038F938DE492E09F938F930E94D0
:102510005A3B81E00E94BE0262E081E00E943803E3
:1025200060E081E00E9438030F900F900F900F90B1
:1025300081E00E947E078823D9F363E081E00E9456
:10254000380360E081E00E94380381E00E94FD02D0
:1025500081E00E94BE0281E00E947E078823D9F3B9
:102560006FEF81E00E94C1058093EC036FEF81E083
:102570000E94C1058093ED0381E00E94FD0281E08D
:102580000E947E078130D9F38091ED038F93809173
:10259000EC038F9380E692E09F938F930E945A3BC7
:1025A00081E00E94BE0262E081E00E94380360E0A8
:1025B00081E00E9438030F900F900F900F9081E000
:1025C0000E947E078823D9F360E081E00E943803EF
:1025D00060E081E00E94380381E00E94FD0281E01A
:1025E0000E94BE0281E00E947E078823D9F36FEF2C
:1025F00081E00E94C1058093EC036FEF81E00E94AF
:10260000C1058093ED0381E00E94FD0281E00E94FC
:102610007E078130D9F381E00E94BE0262E081E052
:102620000E94380360E081E00E94380381E00E944C
:102630007E078823D9F361E081E00E94380360E0DF
:1026400081E00E94380381E00E94FD0281E00E9447
:10265000BE0281E00E947E078823D9F36FEF81E0FC
:102660000E94C1058093EC036FEF81E00E94C105D9
:102670008093ED0381E00E94FD0281E00E947E07CD
:102680008130D9F38091ED038F938091EC038F9388
:102690008EE692E09F938F930E945A3B0F900F908B
:1026A0000F900F9008956F927F928F929F92AF92AA
:1026B000BF92CF92DF92EF92FF920F931F93CF932F
:1026C000DF93CDB7DEB76A970FB6F894DEBF0FBEC3
:1026D000CDBF989AA09A2FEF83ED90E321508040D0
:1026E0009040E1F700C00000A098EFEFF3ED20E389
:1026F000E150F0402040E1F700C0000081E00E947E
:10270000DF0181E00E94BE0281E00E947E078823F3
:10271000D9F36FEF81E00E94C1058093EC036FEF66
:1027200081E00E94C1058093ED0381E00E94FD02DB
:1027300081E00E947E078130D9F38091EC03909173
:10274000ED038231944309F09AC075E8C72E72E018
:10275000D72EE3E96E2EE2E07E2E81E00E94BE02DB
:1027600062E081E00E94380360E081E00E9438036B
:1027700081E00E947E078823D9F360E081E00E9417
:10278000380360E081E00E94380381E00E94FD028E
:1027900081E00E94BE0281E00E947E078823D9F377
:1027A0006FEF81E00E94C1058093EC036FEF81E041
:1027B0000E94C1058093ED0381E00E94FD0281E04B
:1027C0000E947E078130D9F3E090EC03F090ED0396
:1027D00081E00E94BE0262E081E00E94380360E076
:1027E00081E00E94380381E00E947E078823D9F3AC
:1027F00061E081E00E94380360E081E00E943803DC
:1028000081E00E94FD0281E00E94BE0281E00E9400
:102810007E078823D9F36FEF81E00E94C105809382
:10282000EC036FEF81E00E94C1058093ED0381E02E
:102830000E94FD0281E00E947E078130D9F3009161
:10284000EC031091ED03FF92EF92DF92CF920E9482
:102850005A3B1F930F937F926F920E945A3B0FB681
:10286000F894DEBF0FBECDBFEF2809F076CF0F374B
:102870001D4109F072CF81EA92E00E946C3B80E03A
:1028800094E09A83898384E690E09C838B8381E043
:102890000E94BE0264E081E00E94380360E081E0B3
:1028A0000E943803FE0131963F017F0101E010E0F4
:1028B0000DC0F701608181E00E94380304301105EA
:1028C00099F00F5F1F4FFFEFEF1AFF0A013011055C
:1028D00081F781E00E947E078823D9F3F7016081A8
:1028E00081E00E943803EDCF81E00E94FD0281E08B
:1028F0000E94BE0281E00E947E078823D9F36FEF19
:1029000081E00E94C1058093EC036FEF81E00E949B
:10291000C1058093ED0381E00E94FD0281E00E94E9
:102920007E078130D9F381E00E94BE0262E081E03F
:102930000E94380360E081E00E94380381E00E9439
:102940007E078823D9F360E881E00E94380361E0C4
:1029500081E00E94380381E00E94FD0281E00E9434
:10296000BE0281E00E947E078823D9F36FEF81E0E9
:102970000E94C1058093EC036FEF81E00E94C105C6
:102980008093ED0381E00E94FD0281E00E947E07BA
:102990008130D9F385E591E09A83898384E090E0E2
:1029A0009C838B8381E00E94BE0264E081E00E94F0
:1029B000380360E081E00E943803730101E010E019
:1029C0000DC0F701608181E00E94380304301105D9
:1029D00099F00F5F1F4FFFEFEF1AFF0A013011054B
:1029E00081F781E00E947E078823D9F3F701608197
:1029F00081E00E943803EDCF81E00E94FD0281E07A
:102A00000E94BE0281E00E947E078823D9F36FEF07
:102A100081E00E94C1058093EC036FEF81E00E948A
:102A2000C1058093ED0381E00E94FD0281E00E94D8
:102A30007E078130D9F380E791E09A8389838BEE1A
:102A400093ED9C838B8389EE90E09E838D8381E060
:102A50000E94BE0266E081E00E94380360E081E0EF
:102A60000E943803730101E010E00DC0F70160819E
:102A700081E00E9438030630110599F00F5F1F4F67
:102A8000FFEFEF1AFF0A0130110581F781E00E9484
:102A90007E078823D9F3F701608181E00E94380323
:102AA000EDCF81E00E94FD0281E00E94BE0281E044
:102AB0000E947E078823D9F36FEF81E00E94C10551
:102AC0008093EC036FEF81E00E94C1058093ED03DA
:102AD00081E00E94FD0281E00E947E078130D9F3EF
:102AE0008BE1EDEAF2E0D30101900D928A95E1F7D6
:102AF000E0900505F0900605009107051091080586
:102B00007F926F92812C912CA12CB12C54E0C52E78
:102B1000D12C2EE130E040EF50E06EE070E08CEE22
:102B200093E00E94023481E1E8ECF2E0D3010190ED
:102B30000D928A95E1F7E0900505F0900605009169
:102B40000705109108057F926F9263E0C62ED12C85
:102B500024E630E04AE050E067E070E08CEE93E07D
:102B60000E94023484E1E4E1F3E0D30101900D928C
:102B70008A95E1F7E0900505F090060500910705BC
:102B8000109108057F926F9228E730E04AE050E00C
:102B900067E070E08CEE93E00E94023484E1E8E2AA
:102BA000F3E0D30101900D928A95E1F7E0900505DD
:102BB000F090060500910705109108057F926F922D
:102BC0002CE830E04AE050E067E070E08CEE93E003
:102BD0000E940234E0900505F0900605009107057B
:102BE000109108057F926F9224EB30E04AE050E0AC
:102BF00067E070E08CEE93E00E94023481E1E9ED41
:102C0000F2E0D30101900D928A95E1F7E09005057D
:102C1000F090060500910705109108057F926F92CC
:102C20002CED30E04AE050E068E070E08CEE93E09C
:102C30000E94023481E00E94BE0262E081E00E94B4
:102C4000380360E081E00E9438030FB6F894DEBFDD
:102C50000FBECDBF81E00E947E078823D9F361E8D3
:102C600081E00E94380361E081E00E94380381E046
:102C70000E94FD0281E00E94BE0281E00E947E0768
:102C80008823D9F36FEF81E00E94C1058093EC03A4
:102C90006FEF81E00E94C1058093ED0381E00E9407
:102CA000FD0281E00E947E078130D9F381E094E04B
:102CB0009E8B8D8B82E090E0988F8F8B1A8E198E71
:102CC00081E00E94BE0266E081E00E94380360E07D
:102CD00081E00E9438037E0195E1E90EF11C01E0DC
:102CE00010E00DC0F701608181E00E9438030630DA
:102CF000110599F00F5F1F4FEFEFEE1AFE0A01303A
:102D0000110581F781E00E947E078823D9F3F7013E
:102D1000608181E00E943803EDCF81E00E94FD02D6
:102D200081E00E94BE0281E00E947E078823D9F3E1
:102D30006FEF81E00E94C1058093EC036FEF81E0AB
:102D40000E94C1058093ED0381E00E94FD0281E0B5
:102D50000E947E078130D9F36AEE72E08CEE93E038
:102D60000E9427356A960FB6F894DEBF0FBECDBF1E
:102D7000DF91CF911F910F91FF90EF90DF90CF9057
:102D8000BF90AF909F908F907F906F9008950F931A
:102D90001F93CF93DF93989AA09A07E011E0F80170
:102DA00080818E7F8083C8E0D1E088818E7F888398
:102DB0008DE295E00E94A10888E295E00E943C081F
:102DC00084E295E00E94110887E195E00E9477086F
:102DD00089E095E00E94C12BF801808184608083A6
:102DE00088818B7F888380818061808388818061F6
:102DF00088830E9A16980C9A14980A9A1298A4E04E
:102E0000B1E08C9180628C93E5E0F1E080818F7D70
:102E100080838C9180688C9380818F778083F80188
:102E200080818064808388818F7B8883089A109852
:102E3000A1E0B1E08C9180648C93E2E0F1E08081CC
:102E40008F7B80838C9180688C9380818F77808347
:102E50008C918F7E8C9380818F7E80838C918F7DEF
:102E60008C9380818F7D8083999AA1989B9AA39857
:102E7000579A5F9A60E070E88DE295E00E947E08C4
:102E800060E070E088E295E00E94180840E050E0C1
:102E9000BA0184E295E00E94EB070E945313DF9190
:102EA000CF911F910F910C94FE0C6F927F928F9295
:102EB0009F92AF92BF92CF92DF92EF92FF920F93C9
:102EC0001F93CF93DF93CDB7DEB7C654D1090FB6AA
:102ED000F894DEBF0FBECDBF81E00E94BE0262E06B
:102EE00081E00E94380360E081E00E94380381E0C5
:102EF0000E947E078823D9F360E881E00E943803AE
:102F000061E081E00E94380381E00E94FD0281E0DF
:102F10000E94BE0281E00E947E078823D9F36FEFF2
:102F200081E00E94C1058093EC036FEF81E00E9475
:102F3000C1058093ED0381E00E94FD0281E00E94C3
:102F40007E078130D9F385E291E09A83898388E016
:102F500090E09C838B8381E00E94BE0264E081E06C
:102F60000E94380360E081E00E943803CE010196A0
:102F70003C017C0101E010E00DC0F701608181E0BF
:102F80000E9438030430110599F00F5F1F4F9FEF27
:102F9000E91AF90A0130110581F781E00E947E07E4
:102FA0008823D9F3F701608181E00E943803EDCFD7
:102FB00081E00E94FD0281E00E94BE0281E00E9449
:102FC0007E078823D9F36FEF81E00E94C1058093CB
:102FD000EC036FEF81E00E94C1058093ED0381E077
:102FE0000E94FD0281E00E947E078130D9F385E5D1
:102FF00091E09A83898384E090E09C838B8381E0D5
:103000000E94BE0264E081E00E94380360E081E03B
:103010000E943803730101E010E00DC0F7016081E8
:1030200081E00E9438030430110599F00F5F1F4FB3
:10303000FFEFEF1AFF0A0130110581F781E00E94CE
:103040007E078823D9F3F701608181E00E9438036D
:10305000EDCF81E00E94FD0281E00E94BE0281E08E
:103060000E947E078823D9F36FEF81E00E94C1059B
:103070008093EC036FEF81E00E94C1058093ED0324
:1030800081E00E94FD0281E00E947E078130D9F339
:103090008091100290911102A0911202B09113023E
:1030A00024E231E03A8329839C838B83BE83AD8302
:1030B00081E00E94BE0266E081E00E94380360E089
:1030C00081E00E943803730101E010E00DC0F701B8
:1030D000608181E00E9438030630110599F00F5F8E
:1030E0001F4FFFEFEF1AFF0A0130110581F781E052
:1030F0000E947E078823D9F3F701608181E00E9456
:103100003803EDCF81E00E94FD0281E00E94BE0203
:1031100081E00E947E078823D9F36FEF81E00E944F
:10312000C1058093EC036FEF81E00E94C10580939D
:10313000ED0381E00E94FD0281E00E947E07813064
:10314000D9F380E093E09A83898381E090E09C83C7
:103150008B830E94BE0264E081E00E94380360E03D
:1031600081E00E943803730101E010E00DC0F70117
:10317000608181E00E9438030430110599F00F5FEF
:103180001F4FFFEFEF1AFF0A0130110581F781E0B1
:103190000E947E078823D9F3F701608181E00E94B5
:1031A0003803EDCF81E00E94FD0281E00E94BE0263
:1031B00081E00E947E078823D9F36FEF81E00E94AF
:1031C000C1058093EC036FEF81E00E94C1058093FD
:1031D000ED0381E00E94FD0281E00E947E078130C4
:1031E000D9F38091F804882311F40C947E2946EEDB
:1031F00058ED6DEA70E08CEE93E00E94B53480E506
:1032000091E09A83898380EB94E09C838B8388E6AA
:1032100091E09E838D8380E699E098878F8380ED8F
:1032200092E09A87898781E00E94BE026AE081E08D
:103230000E94380360E081E00E943803730101E0DE
:1032400010E00DC0F701608181E00E9438030A3070
:10325000110599F00F5F1F4FFFEFEF1AFF0A0130C2
:10326000110581F781E00E947E078823D9F3F701D9
:10327000608181E00E943803EDCF81E00E94FD0271
:1032800081E00E94BE0281E00E947E078823D9F37C
:103290006FEF81E00E94C1058093EC036FEF81E046
:1032A0000E94C1058093ED0381E00E94FD0281E050
:1032B0000E947E078130D9F380912C028F938091F8
:1032C0002B028F9380912A028F93809129028F93F2
:1032D0008CE393E09F938F937F926F920E94993B30
:1032E000E0900505F090060500910705109108058E
:1032F0007F926F92812C912CA12CB12C74E0C72E5F
:10330000D12C2DE230E046E950E060E170E08CEE37
:1033100093E00E94023480E291E09CAB8BAB80E6AC
:1033200099E09EAB8DAB18AE1FAA9AAF89AF80ED26
:1033300092E09CAF8BAF81E00E94BE026AE081E028
:103340000E94380360E081E00E943803CE01C396FA
:103350007C010FB6F894DEBF0FBECDBF01E010E0D8
:103360000DC0F701608181E00E9438030A30110529
:1033700099F00F5F1F4FFFEFEF1AFF0A01301105A1
:1033800081F781E00E947E078823D9F3F7016081ED
:1033900081E00E943803EDCF81E00E94FD0281E0D0
:1033A0000E94BE0281E00E947E078823D9F36FEF5E
:1033B00081E00E94C1058093EC036FEF81E00E94E1
:1033C000C1058093ED0381E00E94FD0281E00E942F
:1033D0007E078130D9F380E093E09CAB8BAB82E039
:1033E00090E09EAB8DAB81E00E94BE0264E081E084
:1033F0000E94380360E081E00E943803CE01C3964A
:103400007C0101E010E00DC0F701608181E00E94C5
:1034100038030430110599F00F5F1F4F9FEFE91A31
:10342000F90A0130110581F781E00E947E078823A7
:10343000D9F3F701608181E00E943803EDCF81E08C
:103440000E94FD0281E00E94BE0281E00E947E0790
:103450008823D9F36FEF81E00E94C1058093EC03CC
:103460006FEF81E00E94C1058093ED0381E00E942F
:10347000FD0281E00E947E078130D9F34FEF5FEFBC
:103480006FEF70E08CEE93E00E94B53480E591E040
:103490009CAB8BAB88EC9AE09EAB8DAB88E691E061
:1034A00098AF8FAB80ED92E09AAF89AF9CAF8BAFB6
:1034B00081E00E94BE026AE081E00E94380360E081
:1034C00081E00E943803CE01C3967C0101E010E048
:1034D0000DC0F701608181E00E9438030A301105B8
:1034E00099F00F5F1F4F9FEFE91AF90A013011059C
:1034F00081F781E00E947E078823D9F3F70160817C
:1035000081E00E943803EDCF81E00E94FD0281E05E
:103510000E94BE0281E00E947E078823D9F36FEFEC
:1035200081E00E94C1058093EC036FEF81E00E946F
:10353000C1058093ED0381E00E94FD0281E00E94BD
:103540007E078130D9F3E0900505F09006050091E3
:1035500007051091080585E493E09F938F93812CD4
:10356000912CA12CB12C64E0C62ED12C29E130E0A5
:1035700049E551E06EE070E08CEE93E00E94023489
:10358000809122028F93809121028F9389E493E0AE
:103590009F938F937F926F920E94993BE0900505D5
:1035A000F090060500910705109108057F926F9233
:1035B00021E430E049E551E06EE070E08CEE93E00C
:1035C0000E94023480E291E09CAB8BAB80E39CE0F4
:1035D0009EAB8DAB18AE1FAA9AAF89AF80ED92E07B
:1035E0009CAF8BAF81E00E94BE026AE081E00E9446
:1035F000380360E081E00E943803CE01C3967C016D
:103600000FB6F894DEBF0FBECDBF01E010E00DC0D5
:10361000F701608181E00E9438030A30110599F0BA
:103620000F5F1F4FFFEFEF1AFF0A0130110581F7FF
:1036300081E00E947E078823D9F3F701608181E051
:103640000E943803EDCF81E00E94FD0281E00E94DC
:10365000BE0281E00E947E078823D9F36FEF81E0EC
:103660000E94C1058093EC036FEF81E00E94C105C9
:103670008093ED0381E00E94FD0281E00E947E07BD
:103680008130D9F380E093E09CAB8BAB83E090E09A
:103690009EAB8DAB81E00E94BE0264E081E00E949F
:1036A000380360E081E00E943803CE01C3967C01BC
:1036B00001E010E00DC0F701608181E00E94380355
:1036C0000430110599F00F5F1F4F9FEFE91AF90AB7
:1036D0000130110581F781E00E947E078823D9F32C
:1036E000F701608181E00E943803EDCF81E00E9404
:1036F000FD0281E00E94BE0281E00E947E078823D5
:10370000D9F36FEF81E00E94C1058093EC036FEF66
:1037100081E00E94C1058093ED0381E00E94FD02DB
:1037200081E00E947E078130D9F382E591E09CAB75
:103730008BAB8FEF9FEF9EAB8DAB8FEF90E098AF91
:103740008FAB81E00E94BE0266E081E00E943803F8
:1037500060E081E00E943803CE01C3967C0101E065
:1037600010E00DC0F701608181E00E94380306304F
:10377000110599F00F5F1F4F9FEFE91AF90A013009
:10378000110581F781E00E947E078823D9F3F701B4
:10379000608181E00E943803EDCF81E00E94FD024C
:1037A00081E00E94BE0281E00E947E078823D9F357
:1037B0006FEF81E00E94C1058093EC036FEF81E021
:1037C0000E94C1058093ED0381E00E94FD0281E02B
:1037D0000E947E078130D9F380E591E09CAB8BABF2
:1037E00088E99DE09EAB8DAB88E691E098AF8FAB0A
:1037F00080ED92E09AAF89AF9CAF8BAF81E00E94E1
:10380000BE026AE081E00E94380360E081E00E942D
:103810003803CE01C3967C0101E010E00DC0F70132
:10382000608181E00E9438030A30110599F00F5F32
:103830001F4F9FEFE91AF90A0130110581F781E066
:103840000E947E078823D9F3F701608181E00E94FE
:103850003803EDCF81E00E94FD0281E00E94BE02AC
:1038600081E00E947E078823D9F36FEF81E00E94F8
:10387000C1058093EC036FEF81E00E94C105809346
:10388000ED0381E00E94FD0281E00E947E0781300D
:10389000D9F3E0900505F090060500910705109119
:1038A00008058EE493E09F938F93812C912CA12C9B
:1038B000B12C54E0C52ED12C29E130E043EB51E08E
:1038C0006EE070E08CEE93E00E940234809124025E
:1038D0008F93809123028F9389E493E09F938F933A
:1038E0007F926F920E94993BE0900505F09006054B
:1038F00000910705109108057F926F9221E430E056
:1039000043EB51E06EE070E08CEE93E00E940234F5
:1039100080E291E09CAB8BAB1EAA1DAA80ED92E0E9
:1039200098AF8FAB20E03FE03AAF29AF9CAF8BAFB1
:1039300081E00E94BE026AE081E00E94380360E0FC
:1039400081E00E943803CE01C3967C010FB6F89443
:10395000DEBF0FBECDBF01E010E00DC0F7016081FA
:1039600081E00E9438030A30110599F00F5F1F4F64
:10397000FFEFEF1AFF0A0130110581F781E00E9485
:103980007E078823D9F3F701608181E00E94380324
:10399000EDCF81E00E94FD0281E00E94BE0281E045
:1039A0000E947E078823D9F36FEF81E00E94C10552
:1039B0008093EC036FEF81E00E94C1058093ED03DB
:1039C00081E00E94FD0281E00E947E078130D9F3F0
:1039D00080E093E09CAB8BAB87E090E09EAB8DAB3F
:1039E00081E00E94BE0264E081E00E94380360E052
:1039F00081E00E943803CE01C3967C0101E010E013
:103A00000DC0F701608181E00E9438030430110588
:103A100099F00F5F1F4F9FEFE91AF90A0130110566
:103A200081F781E00E947E078823D9F3F701608146
:103A300081E00E943803EDCF81E00E94FD0281E029
:103A40000E94BE0281E00E947E078823D9F36FEFB7
:103A500081E00E94C1058093EC036FEF81E00E943A
:103A6000C1058093ED0381E00E94FD0281E00E9488
:103A70007E078130D9F38091FE04882311F40C94E1
:103A8000782946EE58ED6DEA70E08CEE93E00E94E6
:103A9000B53480E591E09CAB8BAB80E991E09EABC7
:103AA0008DAB88EE93E098AF8FAB80E293E09AAF56
:103AB00089AF80E392E09CAF8BAF81E00E94BE02B1
:103AC0006AE081E00E94380360E081E00E943803F0
:103AD000CE01C3967C0101E010E00DC0F7016081CA
:103AE00081E00E9438030A30110599F00F5F1F4FE3
:103AF0009FEFE91AF90A0130110581F781E00E9470
:103B00007E078823D9F3F701608181E00E943803A2
:103B1000EDCF81E00E94FD0281E00E94BE0281E0C3
:103B20000E947E078823D9F36FEF81E00E94C105D0
:103B30008093EC036FEF81E00E94C1058093ED0359
:103B400081E00E94FD0281E00E947E078130D9F36E
:103B5000E0900505F0900605009107051091080515
:103B600082E593E09F938F93812C912CA12CB12C13
:103B7000C12CD12C2FE530E045E050E06DE070E045
:103B80008CEE93E00E940234809118021F928F9372
:103B900084E593E09F938F937F926F920E94993B6D
:103BA000E0900505F09006050091070510910805C5
:103BB0007F926F9244E0C42ED12C23E830E046E39C
:103BC00050E06FE070E08CEE93E00E94023480E2FF
:103BD00091E09CAB8BAB80E293E09EAB8DAB20ED94
:103BE00032E038AF2FAB9AAF89AF80E095E09CAF61
:103BF0008BAF81E00E94BE026AE081E00E94380340
:103C000060E081E00E943803CE01C3967C010FB6CC
:103C1000F894DEBF0FBECDBF01E010E00DC0F7018C
:103C2000608181E00E9438030A30110599F00F5F2E
:103C30001F4FFFEFEF1AFF0A0130110581F781E0F6
:103C40000E947E078823D9F3F701608181E00E94FA
:103C50003803EDCF81E00E94FD0281E00E94BE02A8
:103C600081E00E947E078823D9F36FEF81E00E94F4
:103C7000C1058093EC036FEF81E00E94C105809342
:103C8000ED0381E00E94FD0281E00E947E07813009
:103C9000D9F380E093E09CAB8BAB88E090E09EABE7
:103CA0008DAB81E00E94BE0264E081E00E94380397
:103CB00060E081E00E943803CE01C3967C0101E000
:103CC00010E00DC0F701608181E00E9438030430EC
:103CD000110599F00F5F1F4F9FEFE91AF90A0130A4
:103CE000110581F781E00E947E078823D9F3F7014F
:103CF000608181E00E943803EDCF81E00E94FD02E7
:103D000081E00E94BE0281E00E947E078823D9F3F1
:103D10006FEF81E00E94C1058093EC036FEF81E0BB
:103D20000E94C1058093ED0381E00E94FD0281E0C5
:103D30000E947E078130D9F38091FF04882311F41B
:103D40000C94722946EE58ED6DEA70E08CEE93E02B
:103D50000E94B53480E591E09CAB8BAB80EB94E0A6
:103D60009EAB8DAB88EE93E098AF8FAB80E293E093
:103D70009AAF89AF80E392E09CAF8BAF81E00E9465
:103D8000BE026AE081E00E94380360E081E00E94A8
:103D90003803CE01C3967C0101E010E00DC0F701AD
:103DA000608181E00E9438030A30110599F00F5FAD
:103DB0001F4F9FEFE91AF90A0130110581F781E0E1
:103DC0000E947E078823D9F3F701608181E00E9479
:103DD0003803EDCF81E00E94FD0281E00E94BE0227
:103DE00081E00E947E078823D9F36FEF81E00E9473
:103DF000C1058093EC036FEF81E00E94C1058093C1
:103E0000ED0381E00E94FD0281E00E947E07813087
:103E1000D9F3E0900505F090060500910705109193
:103E2000080587E593E09F938F93812C912CA12C1B
:103E3000B12CC12CD12C20E630E049E650E06DE0F9
:103E400070E08CEE93E00E940234809117021F9282
:103E50008F9384E593E09F938F937F926F920E945C
:103E6000993BE0900505F09006050091070510913B
:103E700008057F926F9234E0C32ED12C22E830E007
:103E80004AE950E06FE070E08CEE93E00E9402346B
:103E900080E291E09CAB8BAB80E496E09EAB8DAB77
:103EA00020ED32E038AF2FAB9AAF89AF80E095E0DC
:103EB0009CAF8BAF81E00E94BE026AE081E00E946D
:103EC000380360E081E00E943803CE01C3967C0194
:103ED0000FB6F894DEBF0FBECDBF01E010E00DC0FD
:103EE000F701608181E00E9438030A30110599F0E2
:103EF0000F5F1F4FFFEFEF1AFF0A0130110581F727
:103F000081E00E947E078823D9F3F701608181E078
:103F10000E943803EDCF81E00E94FD0281E00E9403
:103F2000BE0281E00E947E078823D9F36FEF81E013
:103F30000E94C1058093EC036FEF81E00E94C105F0
:103F40008093ED0381E00E94FD0281E00E947E07E4
:103F50008130D9F380E093E09CAB8BAB89E090E0BB
:103F60009EAB8DAB81E00E94BE0264E081E00E94C6
:103F7000380360E081E00E943803CE01C3967C01E3
:103F800001E010E00DC0F701608181E00E9438037C
:103F90000430110599F00F5F1F4F9FEFE91AF90ADE
:103FA0000130110581F781E00E947E078823D9F353
:103FB000F701608181E00E943803EDCF81E00E942B
:103FC000FD0281E00E94BE0281E00E947E078823FC
:103FD000D9F36FEF81E00E94C1058093EC036FEF8E
:103FE00081E00E94C1058093ED0381E00E94FD0203
:103FF00081E00E947E078130D9F3809100058823FB
:1040000011F40C946C2946EE58ED6DEA70E08CEEDC
:1040100093E00E94B53480E591E09CAB8BAB80EDE2
:1040200097E09EAB8DAB88EE93E098AF8FAB80E2CC
:1040300093E09AAF89AF80E392E09CAF8BAF81E0D1
:104040000E94BE026AE081E00E94380360E081E0E5
:104050000E943803CE01C3967C0101E010E00DC040
:10406000F701608181E00E9438030A30110599F060
:104070000F5F1F4F9FEFE91AF90A0130110581F711
:1040800081E00E947E078823D9F3F701608181E0F7
:104090000E943803EDCF81E00E94FD0281E00E9482
:1040A000BE0281E00E947E078823D9F36FEF81E092
:1040B0000E94C1058093EC036FEF81E00E94C1056F
:1040C0008093ED0381E00E94FD0281E00E947E0763
:1040D0008130D9F3E0900505F090060500910705C1
:1040E0001091080589E593E09F938F93812C912C83
:1040F000A12CB12CC12CD12C20E630E04DEC50E0AD
:104100006DE070E08CEE93E00E9402348091160224
:104110001F928F9384E593E09F938F937F926F928A
:104120000E94993BE0900505F09006050091070577
:10413000109108057F926F9224E0C22ED12C22E8C4
:1041400030E04EEF50E06FE070E08CEE93E00E94C4
:10415000023480E291E09CAB8BAB80E699E09EABB1
:104160008DAB20ED32E038AF2FAB9AAF89AF80E056
:1041700095E09CAF8BAF81E00E94BE026AE081E0D7
:104180000E94380360E081E00E943803CE01C396AC
:104190007C010FB6F894DEBF0FBECDBF01E010E08A
:1041A0000DC0F701608181E00E9438030A301105DB
:1041B00099F00F5F1F4FFFEFEF1AFF0A0130110553
:1041C00081F781E00E947E078823D9F3F70160819F
:1041D00081E00E943803EDCF81E00E94FD0281E082
:1041E0000E94BE0281E00E947E078823D9F36FEF10
:1041F00081E00E94C1058093EC036FEF81E00E9493
:10420000C1058093ED0381E00E94FD0281E00E94E0
:104210007E078130D9F380E093E09CAB8BAB86E0E6
:1042200090E09EAB8DAB81E00E94BE0264E081E035
:104230000E94380360E081E00E943803CE01C396FB
:104240007C0101E010E00DC0F701608181E00E9477
:1042500038030430110599F00F5F1F4F9FEFE91AE3
:10426000F90A0130110581F781E00E947E07882359
:10427000D9F3F701608181E00E943803EDCF81E03E
:104280000E94FD0281E00E94BE0281E00E947E0742
:104290008823D9F36FEF81E00E94C1058093EC037E
:1042A0006FEF81E00E94C1058093ED0381E00E94E1
:1042B000FD0281E00E947E078130D9F38091FD04E8
:1042C000882311F40C94662946EE58ED6DEA70E0EF
:1042D0008CEE93E00E94B53480E591E09CAB8BAB13
:1042E00080E39CE09EAB8DAB88EE93E098AF8FAB04
:1042F00080EA95E09AAF89AF80E392E09CAF8BAF04
:1043000081E00E94BE026AE081E00E94380360E022
:1043100081E00E943803CE01C3967C0101E010E0E9
:104320000DC0F701608181E00E9438030A30110559
:1043300099F00F5F1F4F9FEFE91AF90A013011053D
:1043400081F781E00E947E078823D9F3F70160811D
:1043500081E00E943803EDCF81E00E94FD0281E000
:104360000E94BE0281E00E947E078823D9F36FEF8E
:1043700081E00E94C1058093EC036FEF81E00E9411
:10438000C1058093ED0381E00E94FD0281E00E945F
:104390007E078130D9F380911E028F9380911D0298
:1043A0008F9380911C028F9380911B028F938BE5DA
:1043B00093E09F938F937F926F920E94993BE0903E
:1043C0000505F090060500910705109108057F92FC
:1043D0006F92812C912CA12CB12C94E0C92ED12C60
:1043E0002DE730E046E851E06FE070E08CEE93E0BE
:1043F0000E94023480E291E09CAB8BAB1EAA1DAA06
:1044000080E095E098AF8FAB20E03FE03AAF29AF76
:104410009CAF8BAF81E00E94BE026AE081E00E9407
:10442000380360E081E00E943803CE01C3967C012E
:104430000FB6F894DEBF0FBECDBF01E010E00DC097
:10444000F701608181E00E9438030A30110599F07C
:104450000F5F1F4FFFEFEF1AFF0A0130110581F7C1
:1044600081E00E947E078823D9F3F701608181E013
:104470000E943803EDCF81E00E94FD0281E00E949E
:10448000BE0281E00E947E078823D9F36FEF81E0AE
:104490000E94C1058093EC036FEF81E00E94C1058B
:1044A0008093ED0381E00E94FD0281E00E947E077F
:1044B0008130D9F380E093E09CAB8BAB84E090E05B
:1044C0009EAB8DAB81E00E94BE0264E081E00E9461
:1044D000380360E081E00E943803CE01C3967C017E
:1044E00001E010E00DC0F701608181E00E94380317
:1044F0000430110599F00F5F1F4F9FEFE91AF90A79
:104500000130110581F781E00E947E078823D9F3ED
:10451000F701608181E00E943803EDCF81E00E94C5
:10452000FD0281E00E94BE0281E00E947E07882396
:10453000D9F36FEF81E00E94C1058093EC036FEF28
:1045400081E00E94C1058093ED0381E00E94FD029D
:1045500081E00E947E078130D9F34FEF5FEF6FEF6C
:1045600070E08CEE93E00E94B53480E591E09CAB66
:104570008BAB80E991E09EAB8DAB88E196E098AF84
:104580008FAB80E293E09AAF89AF80E392E09CAF7B
:104590008BAF81E00E94BE026AE081E00E94380396
:1045A00060E081E00E943803CE01C3967C0101E007
:1045B00010E00DC0F701608181E00E9438030A30ED
:1045C000110599F00F5F1F4F9FEFE91AF90A0130AB
:1045D000110581F781E00E947E078823D9F3F70156
:1045E000608181E00E943803EDCF81E00E94FD02EE
:1045F00081E00E94BE0281E00E947E078823D9F3F9
:104600006FEF81E00E94C1058093EC036FEF81E0C2
:104610000E94C1058093ED0381E00E94FD0281E0CC
:104620000E947E078130D9F3E0900505F0900605E1
:10463000009107051091080583E693E09F938F93FF
:10464000812C912CA12CB12C84E0C82ED12C23ECF0
:1046500030E042E350E06CE070E08CEE93E00E94CA
:10466000023480E291E09CAB8BAB80E293E09EABA6
:104670008DAB20E035E038AF2FAB9AAF89AF80E348
:1046800097E09CAF8BAF6AE070E0CE01C3960E94CA
:10469000A50881E00E94BE020F900F9081E00E9469
:1046A0007E078823D9F36FEF81E00E94C1058093D4
:1046B000EC036FEF81E00E94C1058093ED0381E080
:1046C0000E94FD0281E00E947E078130D9F380E0E4
:1046D00093E09CAB8BAB85E090E09EAB8DAB81E033
:1046E0000E94BE0264E081E00E94380360E081E045
:1046F0000E943803CE01C3967C0101E010E00DC09A
:10470000F701608181E00E9438030430110599F0BF
:104710000F5F1F4F9FEFE91AF90A0130110581F76A
:1047200081E00E947E078823D9F3F701608181E050
:104730000E943803EDCF81E00E94FD0281E00E94DB
:10474000BE0281E00E947E078823D9F36FEF81E0EB
:104750000E94C1058093EC036FEF81E00E94C105C8
:104760008093ED0381E00E94FD0281E00E947E07BC
:104770008130D9F382E591E09CAB8BAB8DEC9AEF65
:104780009EAB8DAB8FEF90E098AF8FAB81E00E9436
:10479000BE0266E081E00E94380360E081E00E9492
:1047A0003803CE01C3967C0101E010E00DC0F70193
:1047B000608181E00E9438030630110599F00F5F97
:1047C0001F4F9FEFE91AF90A0130110581F781E0C7
:1047D0000E947E078823D9F3F701608181E00E945F
:1047E0003803EDCF81E00E94FD0281E00E94BE020D
:1047F00081E00E947E078823D9F36FEF81E00E9459
:10480000C1058093EC036FEF81E00E94C1058093A6
:10481000ED0381E00E94FD0281E00E947E0781306D
:10482000D9F380E591E09CAB8BAB80E496E09EAB46
:104830008DAB28E136E038AF2FAB9AAF89AF80E37C
:1048400092E09CAF8BAF81E00E94BE026AE081E003
:104850000E94380360E081E00E943803CE01C396D5
:104860007C0101E010E00DC0F701608181E00E9451
:1048700038030A30110599F00F5F1F4F9FEFE91AB7
:10488000F90A0130110581F781E00E947E07882333
:10489000D9F3F701608181E00E943803EDCF81E018
:1048A0000E94FD0281E00E94BE0281E00E947E071C
:1048B0008823D9F36FEF81E00E94C1058093EC0358
:1048C0006FEF81E00E94C1058093ED0381E00E94BB
:1048D000FD0281E00E947E078130D9F380911F059F
:1048E0008F9380911E058F9380911D058F938091EA
:1048F0001C058F938AE693E09F938F937F926F922C
:104900000E94993BE0900505F0900605009107058F
:10491000109108057F926F92812C912CA12CB12CC3
:10492000B5E0CB2ED12C23EC30E048E151E06EE035
:1049300070E08CEE93E00E94023480910505909126
:104940000605A0910705B091080521E431E03CABD4
:104950002BAB28E038E03EAB2DAB20EA35E038AF9A
:104960002FAB28E130E03AAF29AF20E230E03CAF96
:104970002BAF9EAF8DAF2196BFAFAEAF219784E036
:1049800090E023969FAF8EAF239725961FAE1EAE65
:10499000259727961FAE1EAE279781E00E94BE0284
:1049A00064E181E00E94380360E081E00E94380306
:1049B000CE01C3967C010FB6F894DEBF0FBECDBF0B
:1049C00001E010E00DC0F701608181E00E94380332
:1049D0000431110599F00F5F1F4FFFEFEF1AFF0A27
:1049E0000130110581F781E00E947E078823D9F309
:1049F000F701608181E00E943803EDCF81E00E94E1
:104A0000FD0281E00E94BE0281E00E947E078823B1
:104A1000D9F36FEF81E00E94C1058093EC036FEF43
:104A200081E00E94C1058093ED0381E00E94FD02B8
:104A300081E00E947E078130D9F380E291E09CAB57
:104A40008BAB80E699E09EAB8DAB20E035E038AFD4
:104A50002FAB9AAF89AF80E397E09CAF8BAF6AE052
:104A600070E0CE01C3960E94A50881E00E94BE02BC
:104A700081E00E947E078823D9F36FEF81E00E94D6
:104A8000C1058093EC036FEF81E00E94C105809324
:104A9000ED0381E00E94FD0281E00E947E078130EB
:104AA000D9F380E093E09CAB8BAB8AE090E09EABC7
:104AB0008DAB81E00E94BE0264E081E00E94380379
:104AC00060E081E00E943803CE01C3967C0101E0E2
:104AD00010E00DC0F701608181E00E9438030430CE
:104AE000110599F00F5F1F4F9FEFE91AF90A013086
:104AF000110581F781E00E947E078823D9F3F70131
:104B0000608181E00E943803EDCF81E00E94FD02C8
:104B100081E00E94BE0281E00E947E078823D9F3D3
:104B20006FEF81E00E94C1058093EC036FEF81E09D
:104B30000E94C1058093ED0381E00E94FD0281E0A7
:104B40000E947E078130D9F382E591E09CAB8BAB6C
:104B50008FEF9FEF9EAB8DAB8FEF90E098AF8FAB59
:104B600081E00E94BE0266E081E00E94380360E0BE
:104B700081E00E943803CE01C3967C0101E010E081
:104B80000DC0F701608181E00E94380306301105F5
:104B900099F00F5F1F4F9FEFE91AF90A01301105D5
:104BA00081F781E00E947E078823D9F3F7016081B5
:104BB00081E00E943803EDCF81E00E94FD0281E098
:104BC0000E94BE0281E00E947E078823D9F36FEF26
:104BD00081E00E94C1058093EC036FEF81E00E94A9
:104BE000C1058093ED0381E00E94FD0281E00E94F7
:104BF0007E078130D9F380E591E09CAB8BAB88ECEC
:104C00009AE09EAB8DAB88E196E098AF8FAB80EDDC
:104C100092E09AAF89AF80E392E09CAF8BAF81E0E6
:104C20000E94BE026AE081E00E94380360E081E0F9
:104C30000E943803CE01C3967C0101E010E00DC054
:104C4000F701608181E00E9438030A30110599F074
:104C50000F5F1F4F9FEFE91AF90A0130110581F725
:104C600081E00E947E078823D9F3F701608181E00B
:104C70000E943803EDCF81E00E94FD0281E00E9496
:104C8000BE0281E00E947E078823D9F36FEF81E0A6
:104C90000E94C1058093EC036FEF81E00E94C10583
:104CA0008093ED0381E00E94FD0281E00E947E0777
:104CB0008130D9F380E291E09CAB8BAB80E39CE048
:104CC0009EAB8DAB20E035E038AF2FAB9AAF89AF0C
:104CD00080E397E09CAF8BAF81E00E94BE026AE068
:104CE00081E00E94380360E081E00E943803CE0139
:104CF000C3967C0101E010E00DC0F701608181E006
:104D00000E9438030A30110599F00F5F1F4F9FEF83
:104D1000E91AF90A0130110581F781E00E947E0746
:104D20008823D9F3F701608181E00E943803EDCF39
:104D300081E00E94FD0281E00E94BE0281E00E94AB
:104D40007E078823D9F36FEF81E00E94C10580932D
:104D5000EC036FEF81E00E94C1058093ED0381E0D9
:104D60000E94FD0281E00E947E078130D9F380E03D
:104D700093E09CAB8BAB8BE090E09EAB8DAB81E086
:104D80000E94BE0264E081E00E94380360E081E09E
:104D90000E943803CE01C3967C0101E010E00DC0F3
:104DA000F701608181E00E9438030430110599F019
:104DB0000F5F1F4F9FEFE91AF90A0130110581F7C4
:104DC00081E00E947E078823D9F3F701608181E0AA
:104DD0000E943803EDCF81E00E94FD0281E00E9435
:104DE000BE0281E00E947E078823D9F36FEF81E045
:104DF0000E94C1058093EC036FEF81E00E94C10522
:104E00008093ED0381E00E94FD0281E00E947E0715
:104E10008130D9F382E591E09CAB8BAB8FEF9FEFB4
:104E20009EAB8DAB8FEF90E098AF8FAB81E00E948F
:104E3000BE0266E081E00E94380360E081E00E94EB
:104E40003803CE01C3967C0101E010E00DC0F701EC
:104E5000608181E00E9438030630110599F00F5FF0
:104E60001F4F9FEFE91AF90A0130110581F781E020
:104E70000E947E078823D9F3F701608181E00E94B8
:104E80003803EDCF81E00E94FD0281E00E94BE0266
:104E900081E00E947E078823D9F36FEF81E00E94B2
:104EA000C1058093EC036FEF81E00E94C105809300
:104EB000ED0381E00E94FD0281E00E947E078130C7
:104EC000D9F380E591E09CAB8BAB88E99DE09EAB8C
:104ED0008DAB88E196E098AF8FAB80ED92E09AAF12
:104EE00089AF80E392E09CAF8BAF6AE070E0CE01C7
:104EF000C3960E94A50881E00E94BE0281E00E9444
:104F00007E078823D9F36FEF81E00E94C10580936B
:104F1000EC036FEF81E00E94C1058093ED0381E017
:104F20000E94FD0281E00E947E078130D9F380E279
:104F300091E09CAB8BAB1EAA1DAA80E397E098AFD3
:104F40008FAB20E03FE03AAF29AF9CAF8BAF81E061
:104F50000E94BE026AE081E00E94380360E081E0C6
:104F60000E943803CE01C3967C0101E010E00DC021
:104F7000F701608181E00E9438030A30110599F041
:104F80000F5F1F4F9FEFE91AF90A0130110581F7F2
:104F900081E00E947E078823D9F3F701608181E0D8
:104FA0000E943803EDCF81E00E94FD0281E00E9463
:104FB000BE0281E00E947E078823D9F36FEF81E073
:104FC0000E94C1058093EC036FEF81E00E94C10550
:104FD0008093ED0381E00E94FD0281E00E947E0744
:104FE0008130D9F380E093E09CAB8BAB8CE090E018
:104FF0009EAB8DAB81E00E94BE0264E081E00E9426
:10500000380360E081E00E943803CE01C3967C0142
:1050100001E010E00DC0F701608181E00E943803DB
:105020000430110599F00F5F1F4F9FEFE91AF90A3D
:105030000130110581F781E00E947E078823D9F3B2
:10504000F701608181E00E943803EDCF81E00E948A
:10505000FD0281E00E94BE0281E00E947E0788235B
:10506000D9F36FEF81E00E94C1058093EC036FEFED
:1050700081E00E94C1058093ED0381E00E94FD0262
:1050800081E00E947E078130D9F380913205882328
:1050900009F417C148E95BEF68E970E08CEE93E032
:1050A0000E94B53480E591E09CAB8BAB80E897E043
:1050B0009EAB8DAB88E998E098AF8FAB80E09FE026
:1050C0009AAF89AF80ED92E09CAF8BAF81E00E94F8
:1050D000BE026AE081E00E94380360E081E00E9445
:1050E0003803CE01C3967C0101E010E00DC0F7014A
:1050F000608181E00E9438030A30110599F00F5F4A
:105100001F4F9FEFE91AF90A0130110581F781E07D
:105110000E947E078823D9F3F701608181E00E9415
:105120003803EDCF81E00E94FD0281E00E94BE02C3
:1051300081E00E947E078823D9F36FEF81E00E940F
:10514000C1058093EC036FEF81E00E94C10580935D
:10515000ED0381E00E94FD0281E00E947E07813024
:10516000D9F380913205882309F40CC180910A0596
:105170008111CAC068E873E180E090E000911305F6
:10518000109114052091150530911605601B710BC7
:10519000820B930B0E94D93720E030E04AE754E4B9
:1051A0000E940F379F938F937F936F9360910F05AA
:1051B0007091100580911105909112050E94D937C8
:1051C00020E030E04AE754E40E940F379F938F932A
:1051D0007F936F9383E793E09F938F937F926F9278
:1051E0000E94993B0FB6F894DEBF0FBECDBFE09092
:1051F0000505F090060500910705109108057F92BE
:105200006F92812C912CA12CB12CF4E0CF2ED12CBB
:1052100023E131E040EF50E06EE070E08CEE93E08F
:105220000E94023481E00E94BE0262E081E00E949E
:10523000380360E081E00E9438030F900F9081E016
:105240000E947E078823D9F361E881E00E94380339
:1052500061E081E00E94380381E00E94FD0281E06C
:105260000E94BE0281E00E947E078823D9F36FEF7F
:1052700081E00E94C1058093EC036FEF81E00E9402
:10528000C1058093ED0381E00E94FD0281E00E9450
:105290007E078130D9F3CA5BDF4F0FB6F894DEBFCB
:1052A0000FBECDBFDF91CF911F910F91FF90EF9077
:1052B000DF90CF90BF90AF909F908F907F906F9036
:1052C000089546E552E76FEF70E0E8CE4FEF5FEFED
:1052D0006FEF70E00C9468214FEF5FEF6FEF70E0BD
:1052E0000C9407204FEF5FEF6FEF70E00C94A61E59
:1052F0004FEF5FEF6FEF70E00C94451D4FEF5FEFE6
:105300006FEF70E00C94FB1868E873E180E090E0C8
:105310000091130510911405209115053091160583
:10532000601B710B820B930B0E94D93720E030E099
:105330004AE754EC0E940F379F938F937F936F93AC
:1053400060910F05709110058091110590911205E3
:105350000E94D93720E030E04AE754E40E940F373A
:105360009F938F937F936F9383E793E09F938F93A4
:105370007F926F920E94993B0FB6F894DEBF0FBEEA
:10538000CDBF35CFE0912F05F0E0EE0FFF1FED5CB4
:10539000FD4F60817181C3010E94D83A28CF0F93DD
:1053A0001F93CF93DF9381E00E94BE0262E081E011
:1053B0000E94380360E081E00E94380381E00E948F
:1053C0007E078823D9F362E081E00E94380363E01E
:1053D00081E00E94380381E00E94FD0281E00E948A
:1053E000BE020CEE13E0C1E0D0E00CC06FEF81E034
:1053F0000E94C105F8018083CA30D10591F0219641
:105400000F5F1F4FC130D10589F781E00E947E07F1
:105410008823D9F36FEF81E00E94C105F8018083F2
:10542000EECF81E00E94FD0281E00E947E07813084
:10543000D9F38091EF0390E0982F88272091EE0315
:10544000822B9093F6048093F5048091F10390E011
:10545000982F88272091F003822B9093F404809357
:10546000F3048091F30390E0982F88272091F203B2
:10547000822B9093F2048093F1042091F50330E0A5
:10548000322F22274091F403242B3093EE042093F3
:10549000ED048130910559F01092EC049093F004E2
:1054A0008093EF04DF91CF911F910F910895209188
:1054B000EF043091F004232B79F72091EC042111B3
:1054C000EBCF21E02093EC04E9CF2091F10430915F
:1054D000F2042130310519F0FC0110820895209169
:1054E000EF043091F004232BB9F7FC012081211146
:1054F000F3CF21E020830895E091ED04F091EE04D4
:105500003197EC30F105C0F4EE58FF4F0C94823621
:105510005F988FE19EE40197F1F700C00000809151
:1055200031058111C8C080913005811105C081E02D
:105530008093320510922F055F9A0895809102059D
:1055400091E08927E7EFF4E0119295E0E430F90764
:10555000D9F780930205F0CF5F988FE39FE1019721
:10556000F1F700C000008091F80491E08927E7EF8F
:10557000F4E0119295E0E430F907D9F78093F8044C
:10558000DBCF8091F90491E08927E7EFF4E01192F5
:1055900095E0E430F907D9F78093F904CDCF8091F5
:1055A000FA0491E08927E7EFF4E0119295E0E43006
:1055B000F907D9F78093FA04BFCF8091FB0491E0FB
:1055C0008927E7EFF4E0119295E0E430F907D9F785
:1055D0008093FB04B1CF8091FC0491E08927E7EF31
:1055E000F4E0119295E0E430F907D9F78093FC04D8
:1055F000A3CF5F988FE39FE10197F1F700C0000010
:105600008091FD0491E08927E7EFF4E0119295E0A5
:10561000E430F907D9F78093FD048ECF5F988FE3CC
:105620009FE10197F1F700C000008091FE0491E036
:105630008927E7EFF4E0119295E0E430F907D9F714
:105640008093FE0479CF5F988FE39FE10197F1F794
:1056500000C000008091FF0491E08927E7EFF4E0AB
:10566000119295E0E430F907D9F78093FF0464CFF5
:105670005F988FE39FE10197F1F700C000008091F0
:10568000000591E08927E7EFF4E0119295E0E4301E
:10569000F907D9F7809300054FCF8091010591E07C
:1056A0008927E7EFF4E0119295E0E430F907D9F7A4
:1056B0008093010541CF109232053ECF0E94CF2941
:1056C0008091EC04811101C008950C947C2A0E9401
:1056D00055170C945E2BFC0160830895EF92FF92A6
:1056E0000F931F93CF93DF93EC0188810E94BE023A
:1056F00060E088810E94C10560E088810E94C10548
:1057000088810E94FD0288810E94BE0260E2888139
:105710000E94C105182F60E088810E94C105082FF2
:1057200088810E94FD0288810E94BE0260E2888119
:105730000E94C10560E088810E94C10588810E94A5
:10574000FD0288810E94BE0260E088810E94C1053E
:10575000F82E60E088810E94C105E82E88810E94B1
:10576000FD028E2D90E0A0E0B0E0772766279F290C
:10577000602B712BDF91CF911F910F91FF90EF90D4
:105780000895FC0180810C94DF012F923F924F928B
:105790005F926F927F928F929F92AF92BF92CF92C1
:1057A000DF92EF92FF920F931F93CF93DF93CDB7CA
:1057B000DEB763970FB6F894DEBF0FBECDBF7C0196
:1057C0001B016A01FC0117821682838181FF66C377
:1057D000BE016F5F7F4F4B01F7019381F10193FD94
:1057E000859193FF81911F01882309F453C385326A
:1057F00039F493FD859193FF81911F01853239F42E
:10580000B70190E00E94283B56016501E5CF10E00A
:10581000512C20E02032A0F48B3269F030F4803239
:1058200059F0833269F420612CC08D3239F0803315
:1058300039F4216026C02260246023C0286021C082
:1058400027FD27C030ED380F3A3078F426FF06C028
:10585000FAE01F9F300D1124132F13C06AE0569EEB
:10586000300D1124532E20620CC08E3221F426FDFF
:1058700011C3206406C08C3611F4206802C088363B
:1058800041F4F10193FD859193FF81911F018111F5
:10589000C1CF9BEB980F933018F42061805E06C057
:1058A0009BE9980F933008F0AAC12F7E26FF16E0DF
:1058B0002F73722E853621F4F22FF0647F2E08C0EC
:1058C000863621F4622F6068762E02C011111150C5
:1058D00077FE07C01C3348F444244394410E27E06C
:1058E0000BC0183030F4212F06C027E04CE3442EC3
:1058F00003C027E017E0412C560174E0A70EB11C4D
:10590000F6016081718182819381042DA4010E943E
:10591000DA396C01098100FF02C003FF06C071FC87
:1059200007C072FC08C0612C08C03DE2632E05C0B0
:105930002BE2622E02C090E2692E802F8C7099F1CA
:10594000662011F084E001C083E0851510F0512C31
:105950000BC0581A73FC08C0B70180E290E00E94A7
:10596000283B5A94C9F7F3CF662029F0B701862D5A
:1059700090E00E94283B03FD03C00EEB11E002C043
:105980000AEB11E0F72DF0717F2EF8018491882346
:1059900009F476C271108052B70190E00E94283B52
:1059A0000F5F1F4FF2CF77FE0FC04C0C04FF04C0F7
:1059B0008A81813309F44A94141474F5F8E0F415DB
:1059C00078F588E0482E2CC076FC2AC0812F90E024
:1059D0008C159D059CF06CEFC6166FEFD60674F023
:1059E000772D7068772E0AC0E2E0F0E0EC0FFD1F23
:1059F000E10FF11D8081803319F411501111F4CFA2
:105A000077FE0EC044244394410E812F90E0C816C7
:105A1000D9062CF41C1904C04424439401C010E09E
:105A200077FE07C01C141D043CF496012F5F3F4F06
:105A300005C025E030E002C021E030E0662011F032
:105A40002F5F3F4F112331F0412F50E04F5F5F4FE9
:105A5000240F351F452D50E02417350714F4521A32
:105A600001C0512C872D897049F4552039F0B701B8
:105A700080E290E00E94283B5A94F7CF662029F0FC
:105A8000B701862D90E00E94283B73FC09C0552089
:105A900039F0B70180E390E00E94283B5A94F7CF99
:105AA00077FE5FC09C2D8D2DD7FE02C090E080E078
:105AB000692E782E40E050E0C601841991099D8737
:105AC0008C87960126193709280D391D812F90E002
:105AD000EE27FF27E81BF90BFF87EE87FFEF6F1616
