:100000000C9445010C9476010C947B080C947B08AD
:100010000C9476010C9476010C947B080C94760178
:100020000C9476010C9476010C9476010C94760174
:100030000C9476010C9476010C9476010C94760164
:100040000C9476010C9476010C9476010C94760154
:100050000C9476010C9476010C9476010C94760144
:100060000C9476010C9476010C9476010C94760134
:100070000C9476010C9476010C9476010C94760124
:100080000C9476010C9476010C9476010C94760114
:100090000C9476010C9476010C9476010C94760104
:1000A0000C9476010C9476010C9476010C947601F4
:1000B0000C9476010C9476010C9476010C947601E4
:1000C0000C9476010C9476010C9476010C947601D4
:1000D0000C9476010C9476010C9476010C947601C4
:1000E0000C947601C517E51787175C176C177B17FB
:1000F000AD17B117B517B917BD17C1170C9446073F
:100100000C94B1170C94AD170C945C170C946C17ED
:100110000C947B170C9487170C94C1170C94C5177B
:100120000C94BD170C9456070C94B9170C94B51782
:100130000C9465240C94E5176E616E00696E660080
:100140006364696E6F70737578585B656667454662
:100150004700616E006E66696E69747900CDCCCC23
:100160003D0AD7233C17B7D13877CC2B329595E68B
:10017000241FB14F0A000020410000C84200401C6B
:100180004620BCBE4CCA1B0E5AAEC59D7400407AB8
:1001900010F35A00A0724E18090010A5D4E8000010
:1001A000E87648170000E40B54020000CA9A3B00AE
:1001B0000000E1F505000080969800000040420F25
:1001C000000000A08601000000102700000000E8E9
:1001D00003000000006400000000000A00000000AE
:1001E000000100000000002C76D888DC674F08234F
:1001F000DFC1DFAE59E1B1B796E5E3E453C63AE6B5
:1002000051997696E8E6C28426EB898C9B62ED4094
:100210007C6FFCEFBC9C9F40F2BAA56FA5F49005E3
:100220005A2AF75C936B6CF9676DC11BFCE0E40D17
:1002300047FEF520E6B500D0ED902E03009435770B
:10024000050080841E080000204E0A000000C80C33
:10025000333333330F986E12831141EF8D2114899C
:100260003BE65516CFFEE6DB18D1844B381BF77CF6
:100270001D901DA4BBE424203284725E228100C93B
:10028000F124ECA1E53D2700652411241FBECFEF2A
:10029000D1E2DEBFCDBF00E00CBF13E0A0E0B2E0D2
:1002A000EAE0F0E500E00BBF02C007900D92A8382D
:1002B000B107D9F724E0A8E8B3E001C01D92A53C3E
:1002C000B207E1F712E0CAE8D2E000E006C02297E8
:1002D0000109FE010BBF0E949B24C838D10780E0B2
:1002E0000807A9F70E941C240C9403280C94000012
:1002F000279A08952F9A08952F9808951F9A089580
:100300000097D9F020E030E02F9A4FE75AE166E0FD
:10031000415050406040E1F700C000002F984FE787
:100320005AE166E0415050406040E1F700C00000F3
:100330002F5F3F4F2817390739F70895813009F4A7
:1003400041C0823009F44BC0833009F472C084305C
:1003500009F47DC0853009F498C0863009F008950D
:100360002FEF81EE94E0215080409040E1F700C0F3
:10037000000080910101846080930101809102015D
:100380008460809302018091010182608093010169
:10039000809102018260809302018091010181605D
:1003A000809301018091020181608093020180911C
:1003B0000101877F8093010180910201877F8093F3
:1003C00002010895809A889A6F9A779A839A8B9AF5
:1003D000819A899A82988A986E98769808950B9A4D
:1003E00013982FEF81EE94E0215080409040E1F788
:1003F00000C0000080910701806880930701809110
:1004000008018068809308018091070182608093D1
:1004100007018091080182608093080180910701A3
:1004200088608093070180910801886080930801AB
:1004300008950B9A13982FEF81EE94E0215080409D
:100440009040E1F700C00000099A119ADDCF809139
:100450000401806180930401809105018F7E809367
:1004600005012FEF81EE94E0215080409040E1F7AC
:1004700000C0000080910401806480930401809199
:100480000501806480930501BFCF0F9A17982FEF65
:1004900081EE94E0215080409040E1F700C00000E0
:1004A0000D9A159A809107018260809307018091CF
:1004B0000801826080930801809107018860809321
:1004C00007018091080188608093080180910701ED
:1004D0008F7D80930701809108018F7D80930801B3
:1004E0000895813009F0089577988AE08A95F1F7A8
:1004F000779A81E08A95F1F70895813009F1823089
:1005000011F1833059F1843081F0853071F18630FA
:1005100009F0089580910201826080930201809128
:1005200002018B7F809302010895809108018D7FE5
:1005300080930801809105018F7B809305010895C8
:100540008B9888980895809108018D7F8093080189
:10055000809108018F7780930801089580910801A8
:100560008D7F8093080111980895809108018D7FF7
:100570008093080115980895813031F1823041F15E
:10058000833061F1843081F0853051F1863009F09B
:10059000089580910201826080930201809102019E
:1005A00084608093020108958091050180648093A6
:1005B0000501809108018260809308018091080103
:1005C0008860809308010895889A8B9A899A089583
:1005D00080910801806880930801EBCF119AE9CFE0
:1005E000159A809108018260809308010895962FE2
:1005F0009078813009F4C1C0823029F0833019F03D
:10060000843009F0089580910801992309F438C1D4
:1006100088608093080181E08A95F1F78091080154
:1006200082608093080181E08A95F1F7809108014A
:100630008D7F8093080166FF1DC18091080188604D
:100640008093080181E08A95F1F78091080182602A
:100650008093080181E08A95F1F7809108018D7FF0
:100660008093080165FF00C1809108018860809334
:10067000080181E08A95F1F78091080182608093FA
:10068000080181E08A95F1F7809108018D7F8093C0
:10069000080164FFE3C0809108018860809308012D
:1006A00081E08A95F1F780910801826080930801CA
:1006B00081E08A95F1F7809108018D7F8093080190
:1006C00063FFC6C08091080188608093080181E0C3
:1006D0008A95F1F78091080182608093080181E09A
:1006E0008A95F1F7809108018D7F8093080162FF60
:1006F000A9C08091080188608093080181E08A95F3
:10070000F1F78091080182608093080181E08A9569
:10071000F1F7809108018D7F8093080161FF8CC003
:100720008091080188608093080181E08A95F1F743
:100730008091080182608093080181E08A95F1F739
:10074000809108018D7F8093080160FF6FC08091C8
:10075000080188608093080181E08A95F1F7809113
:10076000080182608093080181E08A95F1F7809109
:1007700008018D7F809308010895911185C08998A3
:1007800081E08A95F1F78B9A81E08A95F1F78B9851
:1007900066FF88C0899A81E08A95F1F78B9A81E09B
:1007A0008A95F1F78B9865FF7BC0899A81E08A95DD
:1007B000F1F78B9A81E08A95F1F78B9864FF6EC010
:1007C000899A81E08A95F1F78B9A81E08A95F1F711
:1007D0008B9863FF61C0899A81E08A95F1F78B9AC3
:1007E00081E08A95F1F78B9862FF54C0899A81E085
:1007F0008A95F1F78B9A81E08A95F1F78B9861FFE2
:1008000047C0899A81E08A95F1F78B9A81E08A95B1
:10081000F1F78B9860FF3AC0899A81E08A95F1F7E9
:100820008B9A81E08A95F1F78B9808958091080161
:10083000877F8093080190CF80910801877F809304
:10084000080173CF80910801877F8093080156CFFC
:1008500080910801877F8093080139CF809108013A
:10086000877F809308011CCF80910801877F809348
:100870000801FFCE80910801877F80930801E2CEB6
:10088000877F80930801C7CE899A7ACF8998C5CF90
:100890008998B8CF8998ABCF89989ECF899891CF06
:1008A000899884CF899877CF813009F4BBC085308F
:1008B00011F080E0089581E08A95F1F780910801B8
:1008C0008260809308018091060191E09A95F1F78A
:1008D000909108019D7F9093080185FB882780F9FE
:1008E000880F91E09A95F1F79091080192609093AA
:1008F00008012091060191E09A95F1F79091080185
:100900009D7F9093080125FB992790F9892B880FEB
:1009100091E09A95F1F79091080192609093080107
:100920002091060191E09A95F1F7909108019D7F41
:100930009093080125FB992790F9892B880F91E066
:100940009A95F1F790910801926090930801209197
:10095000060191E09A95F1F7909108019D7F90939F
:10096000080125FB992790F9892B880F91E09A952A
:10097000F1F790910801926090930801209106018F
:1009800091E09A95F1F7909108019D7F909308016D
:1009900025FB992790F9892B880F91E09A95F1F71B
:1009A000909108019260909308012091060191E0D6
:1009B0009A95F1F7909108019D7F9093080125FB8E
:1009C000992790F9892B880F91E09A95F1F79091EA
:1009D00008019260909308012091060191E09A9598
:1009E000F1F7909108019D7F9093080125FB9927CD
:1009F00090F9892B91E09A95F1F790910801926016
:100A0000909308012091060191E09A95F1F7909159
:100A100008019D7F90930801880F25FB992790F985
:100A2000892B08958A95F1F78B9A8FB191E09A9569
:100A3000F1F78B9882FB882780F9880F91E09A95CF
:100A4000F1F78B9A2FB191E09A95F1F78B9822FBF1
:100A5000992790F9892B880F91E09A95F1F78B9A55
:100A60002FB191E09A95F1F78B9822FB992790F995
:100A7000892B880F91E09A95F1F78B9A2FB191E02D
:100A80009A95F1F78B9822FB992790F9892B880F7B
:100A900091E09A95F1F78B9A2FB191E09A95F1F741
:100AA0008B9822FB992790F9892B880F91E09A95D2
:100AB000F1F78B9A2FB191E09A95F1F78B9822FB81
:100AC000992790F9892B880F91E09A95F1F78B9AE5
:100AD0002FB191E09A95F1F78B9822FB992790F925
:100AE000892B91E09A95F1F78B9A2FB191E09A9525
:100AF000F1F78B98880F22FB992790F9892B08959D
:100B0000962F9078813009F4F3C0863011F080E0A0
:100B1000089580910201911174C18E7F809302012A
:100B200081E08A95F1F790910001809102018D7F1B
:100B30008093020181E08A95F1F780910201826041
:100B40008093020193FB992790F9990F66FF8FC15B
:100B50008091020181608093020181E08A95F1F722
:100B600080910001209102012D7F2093020121E05C
:100B70002A95F1F72091020122602093020183FB64
:100B8000882780F9892B880F65FF6BC1909102013E
:100B900091609093020191E09A95F1F79091000194
:100BA000209102012D7F2093020121E02A95F1F787
:100BB0002091020122602093020193FB992790F972
:100BC000982B990F64FF47C1809102018160809347
:100BD000020181E08A95F1F78091000120910201E4
:100BE0002D7F2093020121E02A95F1F72091020147
:100BF00022602093020183FB882780F9892B880FCC
:100C000063FF23C19091020191609093020191E0F2
:100C10009A95F1F790910001209102012D7F209388
:100C2000020121E02A95F1F7209102012260209330
:100C3000020193FB992790F9982B990F62FFFFC04F
:100C40008091020181608093020181E08A95F1F731
:100C500080910001209102012D7F2093020121E06B
:100C60002A95F1F72091020122602093020183FB73
:100C7000882780F9892B880F61FFDBC090910201E2
:100C800091609093020191E09A95F1F790910001A3
:100C9000209102012D7F2093020121E02A95F1F796
:100CA0002091020122602093020193FB992790F981
:100CB000982B990F60FFB7C08091020181608093EB
:100CC000020181E08A95F1F78091000120910201F3
:100CD0002D7F2093020121E02A95F1F72091020156
:100CE00022602093020183FB882780F9892B0895D5
:100CF000911185C0899881E08A95F1F78B9A9FB10F
:100D000081E08A95F1F78B9892FB992790F9990FDA
:100D100066FF7DC0899A81E08A95F1F78B9A8FB141
:100D200021E02A95F1F78B9882FB882780F9892B9F
:100D3000880F65FF6AC0899A91E09A95F1F78B9ABE
:100D40009FB121E02A95F1F78B9892FB992790F9B2
:100D5000982B990F64FF63C0899A81E08A95F1F717
:100D60008B9A8FB121E02A95F1F78B9882FB882727
:100D700080F9892B880F63FF50C0899A91E09A957A
:100D8000F1F78B9A9FB121E02A95F1F78B9892FBAE
:100D9000992790F9982B990F62FF3DC0899A81E0BD
:100DA0008A95F1F78B9A8FB121E02A95F1F78B980C
:100DB00082FB882780F9892B880F61FF2AC0899AD6
:100DC00091E09A95F1F78B9A9FB121E02A95F1F77E
:100DD0008B9892FB992790F9982B990F60FF21C06F
:100DE000899A81E08A95F1F78B9A8FB121E02A9553
:100DF000F1F78B9882FB882780F9892B0895899ACF
:100E00007ACF8160809302018BCE899895CF8998A3
:100E100082CF8998D5CF8998C2CF8998AFCF89984A
:100E20009CCF8998DECF809102018E7F8093020152
:100E300048CF909102019E7F9093020124CF809130
:100E400002018E7F8093020100CF909102019E7F6C
:100E500090930201DCCE809102018E7F809302018B
:100E6000B8CE909102019E7F9093020194CE809122
:100E700002018E7F8093020170CE813011F080E0FC
:100E800008958CB186FB882780F90895CF93C82FE9
:100E90008A3041F09091C00095FFFCCFC093C6000E
:100EA000CF9108958DE00E944607F4CFCF938091B3
:100EB000C00087FFFCCFC091C6002091880330910D
:100EC0008903232B39F06091C1047091C2048C2FE7
:100ED0000E9446078C2FCF9108951092C50089E19A
:100EE0008093C400E0ECF0E080818D7F808386E019
:100EF0008093C20088E18093C10008951092C500DC
:100F000089E18093C400E0ECF0E080818D7F8083F4
:100F100086E08093C20088E18093C100109289032B
:100F20001092880380E092E09093C0048093BF0405
:100F30009093C2048093C104089590938903809391
:100F40008803089510928903109288030895FC0184
:100F500060830895CF92DF92EF92FF92CF93DF9359
:100F6000EC016A017B0188810E947D026C2D8881E1
:100F70000E94F702B7018827992788810E94F7020B
:100F800099278F2D7E2D6D2D88810E94F7028881F3
:100F9000DF91CF91FF90EF90DF90CF900C94BC0247
:100FA000FC0180810C949E01FC01608308950F93E5
:100FB0001F93CF93DF93EC018B0188810E947D0208
:100FC000B8010024660F771F001C660F771F001CF6
:100FD000672F702D6F7388810E94F702602F660F54
:100FE000660F88810E94F7028881DF91CF911F915F
:100FF0000F910C94BC02FC0180810C949E010F9314
:101000001F93CF93DF938C01EB010E949926FE0181
:1010100001900020E9F7EC1BFD0BC8018E0F9F1F0C
:10102000DF91CF911F910F910895FC016083089586
:101030000F931F93CF93DF93EC0188810E947D0271
:1010400088810E94540488810E945404182F88814A
:101050000E945404082F88810E94BC02802F90E0D7
:10106000912BDF91CF911F910F910895FC01808109
:101070000C949E01FC0160830895EF92FF921F93F0
:10108000CF93DF931F92CDB7DEB77C01162FFC0103
:10109000808179830E947D026981F70180810E94AD
:1010A000F702612FF70180810E94F702F70180812A
:1010B0000F90DF91CF911F91FF90EF900C94BC02A5
:1010C000FC0180810C949E0108950895089508956F
:1010D00087EB94E00C94911952985A9AE9E6F0E063
:1010E000808180618083EA9A5198599A80818460D6
:1010F0008083E99A08951F920F920FB60F921124E0
:101100000BB60F922F933F934F935F936F938F93F1
:101110009F93EF93FF934091BC04440F440F40937F
:10112000BC0459B169B161FB882780F990E0842B38
:1011300052FB222720F930E0220F331F822B932B02
:101140008093BC048F70E82FF0E0ED5BFD4F2081B1
:101150008091BD049091BE04820F911D27FD9A9548
:101160009093BE048093BD04FF91EF919F918F9166
:101170006F915F914F913F912F910F900BBE0F9008
:101180000FBE0F901F90189581E00E947D0262E0D3
:1011900081E00E94F70260E081E00E94F70281E0B6
:1011A0000E943D078823D9F362E081E00E94F702A4
:1011B00060E081E00E94F70281E00E94BC0281E0D1
:1011C0000E947D0281E00E943D078823D9F36FEFE2
:1011D00081E00E94800580938A036FEF81E00E9486
:1011E000800580938B0381E00E94BC0281E00E9415
:1011F0003D078130D9F380918B038F9380918A03CF
:101200008F9383E592E09F938F930E941B2781E049
:101210000E947D0262E081E00E94F70260E081E0CE
:101220000E94F7020F900F900F900F9081E00E94A4
:101230003D078823D9F363E081E00E94F70260E074
:1012400081E00E94F70281E00E94BC0281E00E94DE
:101250007D0281E00E943D078823D9F36FEF81E092
:101260000E94800580938A036FEF81E00E948005D1
:1012700080938B0381E00E94BC0281E00E943D07C5
:101280008130D9F380918B038F9380918A038F9360
:1012900086E692E09F938F930E941B2781E00E9435
:1012A0007D0262E081E00E94F70260E081E00E943E
:1012B000F7020F900F900F900F9081E00E943D0772
:1012C0008823D9F360E081E00E94F70260E081E0CA
:1012D0000E94F70281E00E94BC0281E00E947D0230
:1012E00081E00E943D078823D9F36FEF81E00E94DF
:1012F000800580938A036FEF81E00E9480058093D0
:101300008B0381E00E94BC0281E00E943D07813096
:10131000D9F381E00E947D0262E081E00E94F70241
:1013200060E081E00E94F70281E00E943D0788238F
:10133000D9F361E081E00E94F70260E081E00E9461
:10134000F70281E00E94BC0281E00E947D0281E000
:101350000E943D078823D9F36FEF81E00E9480054A
:1013600080938A036FEF81E00E94800580938B0356
:1013700081E00E94BC0281E00E943D078130D9F3E8
:1013800080918B038F9380918A038F9384E792E0FF
:101390009F938F930E941B270F900F900F900F9099
:1013A00008956F927F928F929F92AF92BF92CF9249
:1013B000DF92EF92FF920F931F93CF93DF93CDB7FE
:1013C000DEB76A970FB6F894DEBF0FBECDBF989A0E
:1013D000A09A2FEF83ED90E3215080409040E1F7F9
:1013E00000C00000A098EFEFF3ED20E3E150F040E3
:1013F0002040E1F700C0000081E00E949E0181E0F2
:101400000E947D0281E00E943D078823D9F36FEF9F
:1014100081E00E94800580938A036FEF81E00E9443
:10142000800580938B0381E00E94BC0281E00E94D2
:101430003D078130D9F380918A0390918B038231EB
:10144000944309F09AC07BE8C72E72E0D72EE9E9F1
:101450006E2EE2E07E2E81E00E947D0262E081E05D
:101460000E94F70260E081E00E94F70281E00E94A2
:101470003D078823D9F360E081E00E94F70260E035
:1014800081E00E94F70281E00E94BC0281E00E949C
:101490007D0281E00E943D078823D9F36FEF81E050
:1014A0000E94800580938A036FEF81E00E9480058F
:1014B00080938B0381E00E94BC0281E00E943D0783
:1014C0008130D9F3E0908A03F0908B0381E00E9491
:1014D0007D0262E081E00E94F70260E081E00E940C
:1014E000F70281E00E943D078823D9F361E081E0A3
:1014F0000E94F70260E081E00E94F70281E00E9412
:10150000BC0281E00E947D0281E00E943D078823A9
:10151000D9F36FEF81E00E94800580938A036FEF1B
:1015200081E00E94800580938B0381E00E94BC02D1
:1015300081E00E943D078130D9F300918A03109128
:101540008B03FF92EF92DF92CF920E941B271F9393
:101550000F937F926F920E941B270FB6F894DEBF05
:101560000FBECDBFEF2809F076CF0F371D4109F030
:1015700072CF87EA92E00E942D2780E094E09A8360
:10158000898384E690E09C838B8381E00E947D02C6
:1015900064E081E00E94F70260E081E00E94F702CF
:1015A000FE0131963F017F0101E010E00DC0F7011F
:1015B000608181E00E94F7020430110599F00F5F0D
:1015C0001F4FFFEFEF1AFF0A0130110581F781E08D
:1015D0000E943D078823D9F3F701608181E00E94D2
:1015E000F702EDCF81E00E94BC0281E00E947D0203
:1015F00081E00E943D078823D9F36FEF81E00E94CC
:10160000800580938A036FEF81E00E9480058093BC
:101610008B0381E00E94BC0281E00E943D07813083
:10162000D9F381E00E947D0262E081E00E94F7022E
:1016300060E081E00E94F70281E00E943D0788237C
:10164000D9F360E881E00E94F70261E081E00E9446
:10165000F70281E00E94BC0281E00E947D0281E0ED
:101660000E943D078823D9F36FEF81E00E94800537
:1016700080938A036FEF81E00E94800580938B0343
:1016800081E00E94BC0281E00E943D078130D9F3D5
:1016900085E591E09A83898384E090E09C838B8345
:1016A00081E00E947D0264E081E00E94F70260E038
:1016B00081E00E94F702730101E010E00DC0F70124
:1016C000608181E00E94F7020430110599F00F5FFC
:1016D0001F4FFFEFEF1AFF0A0130110581F781E07C
:1016E0000E943D078823D9F3F701608181E00E94C1
:1016F000F702EDCF81E00E94BC0281E00E947D02F2
:1017000081E00E943D078823D9F36FEF81E00E94BA
:10171000800580938A036FEF81E00E9480058093AB
:101720008B0381E00E94BC0281E00E943D07813072
:10173000D9F380E791E09A8389838BEE93ED9C83C4
:101740008B8389EE90E09E838D8381E00E947D02F1
:1017500066E081E00E94F70260E081E00E94F7020B
:10176000730101E010E00DC0F701608181E00E948B
:10177000F7020630110599F00F5F1F4FFFEFEF1AC8
:10178000FF0A0130110581F781E00E943D0788239F
:10179000D9F3F701608181E00E94F702EDCF81E08B
:1017A0000E94BC0281E00E947D0281E00E943D0710
:1017B0008823D9F36FEF81E00E94800580938A032C
:1017C0006FEF81E00E94800580938B0381E00E948F
:1017D000BC0281E00E943D078130D9F38BE1E3EB4D
:1017E000F2E0D30101900D928A95E1F7E090AE040A
:1017F000F090AF040091B0041091B1047F926F9209
:10180000812C912CA12CB12C54E0C52ED12C2EE191
:1018100030E040EF50E06EE070E08AE893E00E9434
:10182000462281E1EEECF2E0D30101900D928A951F
:10183000E1F7E090AE04F090AF040091B004109195
:10184000B1047F926F9263E0C62ED12C24E630E083
:101850004AE050E067E070E08AE893E00E944622A8
:1018600084E1EAE1F3E0D30101900D928A95E1F77A
:10187000E090AE04F090AF040091B0041091B10478
:101880007F926F9228E730E04AE050E067E070E036
:101890008AE893E00E94462284E1EEE2F3E0D3017D
:1018A00001900D928A95E1F7E090AE04F090AF04BC
:1018B0000091B0041091B1047F926F922CE830E057
:1018C0004AE050E067E070E08AE893E00E94462238
:1018D000E090AE04F090AF040091B0041091B10418
:1018E0007F926F9224EB30E04AE050E067E070E0D6
:1018F0008AE893E00E94462281E1EFEDF2E0D30115
:1019000001900D928A95E1F7E090AE04F090AF045B
:101910000091B0041091B1047F926F922CED30E0F1
:101920004AE050E068E070E08AE893E00E944622D6
:1019300081E00E947D0262E081E00E94F70260E0A7
:1019400081E00E94F7020FB6F894DEBF0FBECDBF54
:1019500081E00E943D078823D9F361E881E00E947D
:10196000F70261E081E00E94F70281E00E94BC0280
:1019700081E00E947D0281E00E943D078823D9F327
:101980006FEF81E00E94800580938A036FEF81E012
:101990000E94800580938B0381E00E94BC0281E05D
:1019A0000E943D078130D9F381E094E09E8B8D8BBE
:1019B00082E090E0988F8F8B1A8E198E81E00E94C2
:1019C0007D0266E081E00E94F70260E081E00E9413
:1019D000F7027E0195E1E90EF11C01E010E00DC077
:1019E000F701608181E00E94F7020630110599F04D
:1019F0000F5F1F4FEFEFEE1AFE0A0130110581F75E
:101A000081E00E943D078823D9F3F701608181E0DE
:101A10000E94F702EDCF81E00E94BC0281E00E94AB
:101A20007D0281E00E943D078823D9F36FEF81E0BA
:101A30000E94800580938A036FEF81E00E948005F9
:101A400080938B0381E00E94BC0281E00E943D07ED
:101A50008130D9F360EF72E08AE893E00E94992325
:101A60006A960FB6F894DEBF0FBECDBFDF91CF915F
:101A70001F910F91FF90EF90DF90CF90BF90AF90AC
:101A80009F908F907F906F9008950F931F93CF93A7
:101A9000DF93989AA09A07E011E0F80180818E7F89
:101AA0008083C8E0D1E088818E7F88838BEB94E0CF
:101AB0000E9460088AEB94E00E94FB0789EB94E0A7
:101AC0000E94D00788EB94E00E94360887EB94E0F0
:101AD0000E94051AF80180818460808388818B7F51
:101AE00088838081806180838881806188830E9A69
:101AF00016980C9A14980A9A1298A4E0B1E08C9166
:101B000080628C93E5E0F1E080818F7D80838C9111
:101B100080688C9380818F778083F80180818064D6
:101B2000808388818F7B8883089A1098A1E0B1E038
:101B30008C9180648C93E2E0F1E080818F7B8083E4
:101B40008C9180688C9380818F7780838C918F7E3D
:101B50008C9380818F7E80838C918F7D8C9380810C
:101B60008F7D8083999AA1989B9AA398579A5F9AA0
:101B700087EB94E00E9491190E94D109DF91CF91E7
:101B80001F910F910C946C082F923F924F925F928D
:101B90006F927F928F929F92AF92BF92CF92DF927D
:101BA000EF92FF920F931F93CF93DF93CDB7DEB7E2
:101BB000AC970FB6F894DEBF0FBECDBF85E291E0C3
:101BC0009A83898388E090E09C838B8381E00E94E4
:101BD0007D0264E081E00E94F70260E081E00E9403
:101BE000F7029E012F5F3F4F790101E010E00DC029
:101BF000D7016C9181E00E94F7020430110599F041
:101C00000F5F1F4F3FEFE31AF30A0130110581F711
:101C100081E00E943D078823D9F3D7016C9181E0D0
:101C20000E94F702EDCF81E00E94BC0281E00E9499
:101C30007D0281E00E943D078823D9F36FEF81E0A8
:101C40000E94800580938A036FEF81E00E948005E7
:101C500080938B0381E00E94BC0281E00E943D07DB
:101C60008130D9F38FE496E4A6E4B0E0898B9A8BB7
:101C7000AB8BBC8BFE0175968BE0DF011D928A95C4
:101C8000E9F782E591E09A8389838FEF9FEF9C8348
:101C90008B838FEF90E09E838D8381E00E947D0295
:101CA00066E081E00E94F70260E081E00E94F702B6
:101CB000FE0131967F0101E010E00DC0D7016C916B
:101CC00081E00E94F7020630110599F00F5F1F4F67
:101CD000FFEFEF1AFF0A0130110581F781E00E9442
:101CE0003D078823D9F3F701608181E00E94F70264
:101CF000EDCF81E00E94BC0281E00E947D0281E084
:101D00000E943D078823D9F36FEF81E00E94800590
:101D100080938A036FEF81E00E94800580938B039C
:101D200081E00E94BC0281E00E943D078130D9F32E
:101D300080E591E09A83898380E897E09C838B8398
:101D400080E491E09E838D8380E09FE098878F837D
:101D500080E892E09A87898781E00E947D026AE0AC
:101D600081E00E94F70260E081E00E94F702FE013C
:101D700031967F0101E010E00DC0D7016C9181E048
:101D80000E94F7020A30110599F00F5F1F4FFFEF15
:101D9000EF1AFF0A0130110581F781E00E943D072B
:101DA0008823D9F3D7016C9181E00E94F702EDCF2F
:101DB00081E00E94BC0281E00E947D0281E00E94DD
:101DC0003D078823D9F36FEF81E00E94800580935F
:101DD0008A036FEF81E00E94800580938B0381E08E
:101DE0000E94BC0281E00E943D078130D9F373EA72
:101DF000672E74E0772EE3E14E2EE2E05E2EFE01C8
:101E0000B0961F01F2E06F1A7108D30111968C9100
:101E100011978F938C918F93A2E5B3E0BF93AF930B
:101E20003F922F920E945A27E090AE04F090AF04A8
:101E30000091B0041091B104D2014D915C914A5DC2
:101E40005F4F3F922F92812C912CA12CB12C64E0FA
:101E5000C62ED12C28E230E061E170E08AE893E000
:101E60000E944622B4E04B0E511C0FB6F894DEBF20
:101E70000FBECDBFF7E96F16F4E07F0619F6E090CC
:101E8000AE04F090AF040091B0041091B104409101
:101E90001D0250911E02485D5F4F82E493E09F93C4
:101EA0008F932DE230E06FE070E08AE893E00E94CB
:101EB000462280E093E09A8389838DE090E09C83C2
:101EC0008B8381E00E947D0264E081E00E94F70242
:101ED00060E081E00E94F7029E012F5F3F4F790191
:101EE0000F900F9001E010E00DC0D7016C9181E0E0
:101EF0000E94F7020430110599F00F5F1F4F3FEF6A
:101F0000E31AF30A0130110581F781E00E943D07D1
:101F10008823D9F3F701608181E00E94F702EDCFB9
:101F200081E00E94BC0281E00E947D0281E00E946B
:101F30003D078823D9F36FEF81E00E9480058093ED
:101F40008A036FEF81E00E94800580938B0381E01C
:101F50000E94BC0281E00E943D078130D9F380914C
:101F60008A04882309F438C589E890E027E83FED22
:101F700042E551E05A8349833C832B839E838D83C2
:101F800081E00E947D0266E081E00E94F70260E04D
:101F900081E00E94F702FE0131967F0101E010E02E
:101FA0000DC0D7016C9181E00E94F7020630110547
:101FB00099F00F5F1F4FFFEFEF1AFF0A0130110575
:101FC00081F781E00E943D078823D9F3D7016C9106
:101FD00081E00E94F702EDCF81E00E94BC0281E027
:101FE0000E947D0281E00E943D078823D9F36FEFB4
:101FF00081E00E94800580938A036FEF81E00E9458
:10200000800580938B0381E00E94BC0281E00E94E6
:102010003D078130D9F380E591E09A83898380E898
:1020200097E09C838B8380EC98E09E838D8380E097
:102030009FE098878F8380E892E09A87898781E084
:102040000E947D026AE081E00E94F70260E081E088
:102050000E94F702FE0131967F0101E010E00DC001
:10206000D7016C9181E00E94F7020A30110599F0C6
:102070000F5F1F4FFFEFEF1AFF0A0130110581F7C5
:1020800081E00E943D078823D9F3F701608181E058
:102090000E94F702EDCF81E00E94BC0281E00E9425
:1020A0007D0281E00E943D078823D9F36FEF81E034
:1020B0000E94800580938A036FEF81E00E94800573
:1020C00080938B0381E00E94BC0281E00E943D0767
:1020D0008130D9F380918A04811183C48091B60440
:1020E000813009F48CC5823009F47CC5AE014F5EA5
:1020F0005F4F6A01E090AE04F090AF040091B0042D
:102100001091B104DF92CF92812C912CA12CB12C93
:1021100034E0C32ED12C28E131E040EF50E06EE0F6
:1021200070E08AE893E00E94462285E691E09A8377
:10213000898388E790E09C838B8381E00E947D0205
:1021400064E081E00E94F70260E081E00E94F70213
:10215000CE0101967C010F900F9001E010E00DC0C0
:10216000D7016C9181E00E94F7020430110599F0CB
:102170000F5F1F4F9FEFE91AF90A0130110581F730
:1021800081E00E943D078823D9F3D7016C9181E05B
:102190000E94F702EDCF81E00E94BC0281E00E9424
:1021A0007D0281E00E943D078823D9F36FEF81E033
:1021B0000E94800580938A036FEF81E00E94800572
:1021C00080938B0381E00E94BC0281E00E943D0766
:1021D0008130D9F3E7E3F2E0FAA3E9A380E090E0ED
:1021E00023E030E03EA32DA3212C312CE5E14E2E3F
:1021F000E2E05E2EDC01A557BB4FBCA3ABA3E1E040
:10220000F0E0FAA7E9A721E030E038A72FA3612C7E
:10221000712CAC014A5F5F4F5CA74BA7E0E0F3E095
:10222000FA83E9838BA59CA5861997099C838B83E8
:1022300081E00E947D0264E081E00E94F70260E09C
:1022400081E00E94F7029E012F5F3F4F790101E07C
:1022500010E00DC0D7016C9181E00E94F7020430BC
:10226000110599F00F5F1F4F3FEFE31AF30A01309A
:10227000110581F781E00E943D078823D9F3F7011A
:10228000608181E00E94F702EDCF81E00E94BC02F4
:1022900081E00E947D0281E00E943D078823D9F3FE
:1022A0006FEF81E00E94800580938A036FEF81E0E9
:1022B0000E94800580938B0381E00E94BC0281E034
:1022C0000E943D078130D9F3C30181709927EBA1AA
:1022D000FCA18215930509F462C1808181115AC164
:1022E0008DEA90E026EE38ED42E551E05A834983CD
:1022F0003C832B839E838D8381E00E947D0266E078
:1023000081E00E94F70260E081E00E94F702CE01C6
:1023100001967C0101E010E00DC0D7016C9181E0D5
:102320000E94F7020630110599F00F5F1F4F9FEFD3
:10233000E91AF90A0130110581F781E00E943D0791
:102340008823D9F3D7016C9181E00E94F702EDCF89
:1023500081E00E94BC0281E00E947D0281E00E9437
:102360003D078823D9F36FEF81E00E9480058093B9
:102370008A036FEF81E00E94800580938B0381E0E8
:102380000E94BC0281E00E943D078130D9F3E9A19F
:10239000FAA180819181D2012D913C91E0E5F1E09B
:1023A000FA83E983220F331F220F331F220F331FBB
:1023B0003C832B83880F991F880F991F880F991FC3
:1023C0009E838D8320E832E038872F833A872987E0
:1023D00081E00E947D026AE081E00E94F70260E0F5
:1023E00081E00E94F702AE014F5F5F4F7A0101E08A
:1023F00010E00DC0D7016C9181E00E94F7020A3015
:10240000110599F00F5F1F4F5FEFE51AF50A0130D4
:10241000110581F781E00E943D078823D9F3D70198
:102420006C9181E00E94F702EDCF81E00E94BC0236
:1024300081E00E947D0281E00E943D078823D9F35C
:102440006FEF81E00E94800580938A036FEF81E047
:102450000E94800580938B0381E00E94BC0281E092
:102460000E943D078130D9F32114310409F4F9C2E7
:10247000E9A1FAA1808191814997D2012D913C91E6
:10248000E2E6F1E0FA83E983220F331F220F331FC4
:10249000220F331F3C832B83880F991F880F991FAE
:1024A000880F991F9E838D8380EF90E098878F839C
:1024B0001A8619861C861B861E861D8688E790E074
:1024C000988B8F8781E00E947D0260E181E00E940D
:1024D000F70260E081E00E94F7029E012F5F3F4F0C
:1024E000790101E010E00DC0D7016C9181E00E94FC
:1024F000F7020031110599F00F5F1F4F3FEFE31A0C
:10250000F30A0130110581F781E00E943D0788231D
:10251000D9F3D7016C9181E00E94F702EDCF81E001
:102520000E94BC0281E00E947D0281E00E943D0782
:102530008823D9F36FEF81E00E94800580938A039E
:102540006FEF81E00E94800580938B0381E00E9401
:10255000BC0281E00E943D078130D9F3EFA1F8A5CC
:10256000369709F4C5C03FEF631A730A4FA158A507
:102570004F5F5F4F58A74FA354E0450E511C8BA1EE
:102580009CA101969CA38BA3A9A5BAA51296BAA754
:10259000A9A744CE8AEF90E026E236E7A5CE808157
:1025A000811158C08FEF90E02DEC3AEF42E551E0F9
:1025B0005A8349833C832B839E838D8381E00E94D1
:1025C0007D0266E081E00E94F70260E081E00E9407
:1025D000F702CE0101967C0101E010E00DC0D701A9
:1025E0006C9181E00E94F7020630110599F00F5FAF
:1025F0001F4F9FEFE91AF90A0130110581F781E0B9
:102600000E943D078823D9F3F701608181E00E9491
:10261000F702EDCF81E00E94BC0281E00E947D02C2
:1026200081E00E943D078823D9F36FEF81E00E948B
:10263000800580938A036FEF81E00E94800580937C
:102640008B0381E00E94BC0281E00E943D07813043
:10265000D9F39DCE8AEF90E026E236E7A7CFE0904F
:10266000AE04F090AF040091B0041091B1046DA0DD
:102670007EA0660C771CF301EF5CFD4F3F012081CB
:1026800031812651310949A45AA4440C551CA20198
:102690004D5E5D4F2A01DA014D915C918EE793E02A
:1026A0009F938F93812C912CA12CB12C64E0C62E8A
:1026B000D12C6CE070E08AE893E00E944622F3019E
:1026C000408151814D5D5F4FD2016D917C91EFE072
:1026D000AE2EB12CF4EBCF2ED12CE12CF12C8701B6
:1026E0002EE130E08AE893E00E94F9220F900F90EB
:1026F000FFEF2F1A3F0A2DA13EA12E5F3F4F3EA3B1
:102700002DA349A15AA14C5F5F4F5AA349A352E0A0
:102710002516310409F05DC150E8C52E52E0D52ED2
:1027200060E2462E55245394612C7FE0772E5A8226
:1027300049821C821B82DE82CD8278866F82DA8695
:10274000C98681E00E947D026AE081E00E94F70272
:1027500060E081E00E94F702CE0101967C0101E079
:1027600010E00DC0D7016C9181E00E94F7020A30A1
:10277000110599F00F5F1F4F9FEFE91AF90A013019
:10278000110581F781E00E943D078823D9F3F70105
:10279000608181E00E94F702EDCF81E00E94BC02DF
:1027A00081E00E947D0281E00E943D078823D9F3E9
:1027B0006FEF81E00E94800580938A036FEF81E0D4
:1027C0000E94800580938B0381E00E94BC0281E01F
:1027D0000E943D078130D9F3BBEFDB1AE0E8CE164B
:1027E000ECE0DE0609F0A3CF80912B0290912C0241
:1027F00020E231E03A8329831C821B8220E035E00D
:102800003E832D83880F991F880F991F880F991F6A
:1028100098878F833A87298781E00E947D026AE04A
:1028200081E00E94F70260E081E00E94F7029E01D1
:102830002F5F3F4F790101E010E00DC0D7016C918F
:1028400081E00E94F7020A30110599F00F5F1F4FD7
:102850003FEFE31AF30A0130110581F781E00E948E
:102860003D078823D9F3D7016C9181E00E94F702DC
:10287000EDCF81E00E94BC0281E00E947D0281E0F8
:102880000E943D078823D9F36FEF81E00E94800505
:1028900080938A036FEF81E00E94800580938B0311
:1028A00081E00E94BC0281E00E943D078130D9F3A3
:1028B000A7E1EA2EA2E0FA2EB0E22B2E33243394C5
:1028C00010E8412E12E0512E00E8602E07E0702E35
:1028D000F701808191813A822982880F991F880FA0
:1028E000991F880F991F9C838B835E824D829887E6
:1028F0008F837A86698681E00E947D026AE081E0AA
:102900000E94F70260E081E00E94F7029E012F5FC3
:102910003F4F690101E010E00DC0D6016C9181E0EC
:102920000E94F7020A30110599F00F5F1F4F3FEF29
:10293000C31AD30A0130110581F781E00E943D07D7
:102940008823D9F3F601608181E00E94F702EDCF80
:1029500081E00E94BC0281E00E947D0281E00E9431
:102960003D078823D9F36FEF81E00E9480058093B3
:102970008A036FEF81E00E94800580938B0381E0E2
:102980000E94BC0281E00E943D078130D9F3B4E08F
:10299000EB0EF11CEFE2EE16E2E0FE0609F098CF36
:1029A000AC960FB6F894DEBF0FBECDBFDF91CF91CE
:1029B0001F910F91FF90EF90DF90CF90BF90AF905D
:1029C0009F908F907F906F905F904F903F902F904F
:1029D00008958BA59CA50ACC8FEF90E026E636E6FD
:1029E000C7CA87EB94E00E9491196B017C01609348
:1029F000B2047093B3048093B4049093B50410911F
:102A0000BD040091BE0488EB94E00E9418080F9367
:102A10001F9326013701BFE05B22662477247F9253
:102A20006F925F924F92A701662777275F706627A4
:102A300077277F936F935F934F939F938F9384E454
:102A400093E09F938F936E01E1E1CE0ED11CDF9254
:102A5000CF920E945A270FB6F894DEBF0FBECDBFAB
:102A600049CBB2E06B16710409F45FC0B5E06B1698
:102A7000710409F4F4CDE9A1FAA18081918149960C
:102A8000D2012D913C91E2E6F1E0FA83E983220F35
:102A9000331F220F331F220F331F3C832B83880FDA
:102AA000991F880F991F880F991F9E838D8380EF30
:102AB00090E098878F831A8619861C861B8684EB84
:102AC00090E09E878D8788E790E0988B8F8781E0E4
:102AD0000E947D0260E181E00E94F70260E081E0F7
:102AE0000E94F7029E012F5F3F4F790101E010E045
:102AF0000130110579F0D7016C9181E00E94F70255
:102B00000031110509F44EC00F5F1F4F3FEFE31A6C
:102B1000F30AEECF81E00E943D078823D9F3F70145
:102B2000608181E00E94F702EFCFE090AE04F09068
:102B3000AF040091B0041091B104E9A1FAA1208181
:102B4000318126513109D2014D915C918BE793E09F
:102B50009F938F93812C912CA12CB12CA4E0CA2E91
:102B6000D12C6CE070E08AE893E00E944622E9A153
:102B7000FAA1408151814D5D5F4FD2016D917C91F1
:102B8000BFE0AB2EB12C14EBC12ED12CE12CF12CDB
:102B900087012EE130E08AE893E00E94F9220F904D
:102BA0000F90E1CC81E00E94BC0281E00E947D0296
:102BB00081E00E943D078823D9F36FEF81E00E94F6
:102BC000800580938A036FEF81E00E9480058093E7
:102BD0008B0381E00E94BC0281E00E943D078130AE
:102BE000D9F3BCCC6E0151E1C50ED11C84E1E7E6FE
:102BF000F3E0D60101900D928A95E1F77BCA6E0150
:102C000031E1C30ED11C82E1E5E5F3E0D60101908C
:102C10000D928A95E1F76ECA0F931F93CF93DF93BE
:102C200081E00E947D0262E081E00E94F70260E0A4
:102C300081E00E94F70281E00E943D078823D9F3DA
:102C400062E081E00E94F70263E081E00E94F70207
:102C500081E00E94BC0281E00E947D020AE813E04C
:102C6000C1E0D0E00CC06FEF81E00E948005F80168
:102C70008083CA30D10591F021960F5F1F4FC1307C
:102C8000D10589F781E00E943D078823D9F36FEFD2
:102C900081E00E948005F8018083EECF81E00E94F0
:102CA000BC0281E00E943D078130D9F380918D0301
:102CB00090E0982F882720918C03822B9093AD046D
:102CC0008093AC0480918F0390E0982F8827209107
:102CD0008E03822B9093AB048093AA04809191037E
:102CE00090E0982F882720919003822B9093A9043D
:102CF0008093A8042091930330E0322F2227409143
:102D00009203242B3093A5042093A40481309105D1
:102D100021F11092A3049093A7048093A6048091BC
:102D20000E022D30310551F0811103C081E08093F6
:102D30000E02DF91CF911F910F9108958823C9F35F
:102D400080918A0491E0892780938A0410920E0270
:102D5000DF91CF911F910F9108954091A60450915A
:102D6000A704452BB1F64091A3044111D2CF41E015
:102D70004093A304D0CF2091A8043091A90421301E
:102D8000310519F0FC01108208952091A6043091BC
:102D9000A704232BB9F7FC0120812111F3CF21E0F7
:102DA0002083089597FD18C086309105B4F4FC0186
:102DB000EE0FFF1FE956FB4F06C0119211920196CC
:102DC0008630910551F0208131812F5F3F4F318353
:102DD00020832A3031058CF70895FC01EE0FFF1F88
:102DE000EB56FB4F89E090E0918380830895CF9369
:102DF000DF9386309105E0F5AC01440F551FFA01D1
:102E0000E956FB4F208131812150310931832083E4
:102E100037FF2EC085309105C9F19C012F5F3F4FD0
:102E2000F901EE0FFF1FE956FB4F60817181161605
:102E300017060CF5A9E0B0E00FC02530310531F1DF
:102E4000B9016F5F7F4F8081918118161906A4F434
:102E5000A9019B01440F551FEA01C956DB4FB983F5
:102E6000A8838081918101978193919397FDE5CF0C
:102E7000DF91CF9108959C01F901EE0FFF1FE956F4
:102E8000FB4F11821082DF91CF91089525E030E051
:102E9000F901EE0FFF1FE956FB4F11821082F3CFAD
:102EA000E091A404F091A5043197EC30F10570F5A0
:102EB000EE58FF4F0C947E2480919D0490919E04C7
:102EC000019690939E0480939D040A970CF49EC0F3
:102ED00010929E0410929D0480919F049091A004F2
:102EE00001969093A00480939F040A977CF010921F
:102EF000A00410929F048091A1049091A2040196D5
:102F00009093A2048093A1040A9704F508958091F8
:102F10009B0490919C04019690939C0480939B0445
:102F20000A970CF474C010929C0410929B04EDE973
:102F3000F4E0808191810196918380830A9734F334
:102F40001192119284E0E33AF80799F789E090E052
:102F50009093A2048093A104089580E090E00C94E3
:102F6000F71681E090E00C94F71682E090E00C9464
:102F7000F71683E090E00C94F71684E090E00C9450
:102F8000F71685E090E00C94F716809197049091E5
:102F90009804019690939804809397040A97ACF153
:102FA0001092980410929704E9E9F4E080819181ED
:102FB0000196918380830A970CF4A8CF1192119205
:102FC00084E0E33AF80791F7C1CF8091990490919A
:102FD0009A04019690939A04809399040A97C4F0F6
:102FE00010929A0410929904EBE9F4E080819181A7
:102FF0000196918380830A970CF488CF11921192E5
:1030000084E0E33AF80791F7A1CF08950895089571
:103010000895EF92FF920F931F93CF93DF9300D009
:1030200000D0CDB7DEB781E00E947D0262E081E092
:103030000E94F70260E081E00E94F70281E00E94B6
:103040003D078823D9F360E881E00E94F70261E040
:1030500081E00E94F70281E00E94BC0281E00E94B0
:103060007D0281E00E943D078823D9F36FEF81E064
:103070000E94800580938A036FEF81E00E948005A3
:1030800080938B0381E00E94BC0281E00E943D0797
:103090008130D9F385E591E09A83898384E090E0DB
:1030A0009C838B8381E00E947D0264E081E00E942A
:1030B000F70260E081E00E94F702CE0101967C01F8
:1030C00001E010E00DC0F701608181E00E94F7028D
:1030D0000430110599F00F5F1F4F9FEFE91AF90AAD
:1030E0000130110581F781E00E943D078823D9F363
:1030F000F701608181E00E94F702EDCF81E00E943C
:10310000BC0281E00E947D0281E00E943D0788238D
:10311000D9F36FEF81E00E94800580938A036FEFFF
:1031200081E00E94800580938B0381E00E94BC02B5
:1031300081E00E943D078130D9F380910F02909188
:103140001002A0911102B091120224E231E03A8300
:1031500029839C838B83BE83AD8381E00E947D02A3
:1031600066E081E00E94F70260E081E00E94F702E1
:10317000CE0101967C0101E010E00DC0F7016081F5
:1031800081E00E94F7020630110599F00F5F1F4F92
:103190009FEFE91AF90A0130110581F781E00E94D9
:1031A0003D078823D9F3F701608181E00E94F7028F
:1031B000EDCF81E00E94BC0281E00E947D0281E0AF
:1031C0000E943D078823D9F36FEF81E00E948005BC
:1031D00080938A036FEF81E00E94800580938B03C8
:1031E00081E00E94BC0281E00E943D078130D9F35A
:1031F0000E94C40D8091B604882309F444C081E084
:103200000E947D0262E081E00E94F70260E081E0BE
:103210000E94F70281E00E943D078823D9F361E80C
:1032200081E00E94F70261E081E00E94F70281E004
:103230000E94BC0281E00E947D0281E00E943D0765
:103240008823D9F36FEF81E00E94800580938A0381
:103250006FEF81E00E94800580938B0381E00E94E4
:10326000BC0281E00E943D078130D9F326960FB65B
:10327000F894DEBF0FBECDBFDF91CF911F910F91AC
:10328000FF90EF9008950E940C168091A30488236C
:1032900009F4B5CF0E945017B2CF80918A040895E7
:1032A0008F929F92AF92BF92CF92DF92EF92FF9256
:1032B000E7E9F4E0C12CD12C7601C394812C912C48
:1032C0005401A191B191A70196010E949324860E09
:1032D000971EA81EB91ED701C601880F991FAA1FE5
:1032E000BB1F6C017D01CC0CDD1CEE1CFF1CCC0C4B
:1032F000DD1CEE1CFF1CC80ED91EEA1EFB1E84E05E
:10330000E33AF807F1F6C501B401FF90EF90DF90C2
:10331000CF90BF90AF909F908F900895FC016083F5
:1033200008958F929F92AF92BF92CF92DF92EF92C9
:10333000FF920F931F93CF93DF93EC0103E010E014
:1033400088810E947D0260E088810E94800560E0A3
:1033500088810E94800588810E94BC020150110969
:103360000115110569F788810E947D0260E288815C
:103370000E948005882E912CA12CB12C60E08881C0
:103380000E948005C82ED12CE12CF12C88810E944E
:10339000BC0203E010E088810E947D0260E2888127
:1033A0000E94800560E088810E94800588810E94DB
:1033B000BC02015011090115110569F788810E94AD
:1033C0007D0260E088810E948005182F60E088817E
:1033D0000E948005082F88810E94BC029A2D892DA9
:1033E000782D66276C297D298E299F29912B802B8A
:1033F000DF91CF911F910F91FF90EF90DF90CF90D1
:10340000BF90AF909F908F900895FC0180810C94A5
:103410009E012F923F924F925F926F927F928F9276
:103420009F92AF92BF92CF92DF92EF92FF920F9353
:103430001F93CF93DF93CDB7DEB763970FB6F894A2
:10344000DEBF0FBECDBF7C011B016A01FC011782EC
:103450001682838181FF66C3BE016F5F7F4F4B0180
:10346000F7019381F10193FD859193FF81911F01F4
:10347000882309F453C3853239F493FD859193FF72
:1034800081911F01853239F4B70190E00E94E9264D
:1034900056016501E5CF10E0512C20E02032A0F468
:1034A0008B3269F030F4803259F0833269F4206154
:1034B0002CC08D3239F0803339F4216026C022606F
:1034C000246023C0286021C027FD27C030ED380FBD
:1034D0003A3078F426FF06C0FAE01F9F300D112421
:1034E000132F13C06AE0569E300D1124532E206214
:1034F0000CC08E3221F426FD11C3206406C08C3628
:1035000011F4206802C0883641F4F10193FD8591E1
:1035100093FF81911F018111C1CF9BEB980F9330D5
:1035200018F42061805E06C09BE9980F933008F084
:10353000AAC12F7E26FF16E02F73722E853621F446
:10354000F22FF0647F2E08C0863621F4622F606867
:10355000762E02C01111115077FE07C01C3348F4BB
:1035600044244394410E27E00BC0183030F4212F3F
:1035700006C027E04CE3442E03C027E017E0412CAF
:10358000560174E0A70EB11CF60160817181828141
:103590009381042DA4010E949B256C01098100FFE9
:1035A00002C003FF06C071FC07C072FC08C0612C9A
:1035B00008C03DE2632E05C02BE2622E02C090E2FD
:1035C000692E802F8C7099F1662011F084E001C083
:1035D00083E0851510F0512C0BC0581A73FC08C0FD
:1035E000B70180E290E00E94E9265A94C9F7F3CF30
:1035F000662029F0B701862D90E00E94E92603FDA0
:1036000003C00CE311E002C008E311E0F72DF071F4
:103610007F2EF8018491882309F476C271108052BC
:10362000B70190E00E94E9260F5F1F4FF2CF77FEAF
:103630000FC04C0C04FF04C08A81813309F44A9402
:10364000141474F5F8E0F41578F588E0482E2CC0D1
:1036500076FC2AC0812F90E08C159D059CF06CEFC4
:10366000C6166FEFD60674F0772D7068772E0AC0F5
:10367000E2E0F0E0EC0FFD1FE10FF11D80818033EF
:1036800019F411501111F4CF77FE0EC04424439465
:10369000410E812F90E0C816D9062CF41C1904C0E5
:1036A0004424439401C010E077FE07C01C141D049D
:1036B0003CF496012F5F3F4F05C025E030E002C08B
:1036C00021E030E0662011F02F5F3F4F112331F0F1
:1036D000412F50E04F5F5F4F240F351F452D50E0C5
:1036E0002417350714F4521A01C0512C872D897004
:1036F00049F4552039F0B70180E290E00E94E926B4
:103700005A94F7CF662029F0B701862D90E00E94E9
:10371000E92673FC09C0552039F0B70180E390E039
:103720000E94E9265A94F7CF77FE5FC09C2D8D2D1D
:10373000D7FE02C090E080E0692E782E40E050E095
:10374000C601841991099D878C879601261937092E
:10375000280D391D812F90E0EE27FF27E81BF90B7C
:10376000FF87EE87FFEF6F167F0669F4B7018EE2E1
:1037700090E02B8B3A8B488B598B0E94E926598914
:1037800048893A892B89C614D70454F06C857D8505
:10379000661577052CF4F901E40FF51F818101C04E
:1037A00080E371E0671A71084F5F5F4FEE85FF8518
:1037B0006E167F066CF0B70190E02B8B3A8B488B2E
:1037C000598B0E94E9262B893A8948895989CACFA1
:1037D0006C147D0439F49A81963318F4953311F4FE
:1037E00004FF81E3B70190E04BC08A81813309F087
:1037F0000F7EB70190E00E94E926111105C074FE0A
:1038000018C085E490E017C0B7018EE290E00E94F6
:10381000E92682E066246394680EF401E80FF11D46
:103820008081B70190E00E94E926115041F3862D76
:10383000F1CF85E690E0B7010E94E926D7FC05C0EC
:10384000C114D10439F404FF05C0D194C194D10846
:103850008DE201C08BE2B70190E00E94E92680E38F
:103860006AE0C616D1042CF08F5FFAE0CF1AD108B7
:10387000F7CFB70190E00E94E926B701C601C096D4
:103880000E94E92641C1833631F0833779F08335D0
:1038900009F058C021C0560172E0A70EB11CF60114
:1038A0008081898301E010E0640114C05601F2E0D8
:1038B000AF0EB11CF601C080D18026FF03C0612F7E
:1038C00070E002C06FEF7FEFC6012B8B0E94A02635
:1038D0008C012B892F7715C05601F2E0AF0EB11C79
:1038E000F601C080D18026FF03C0612F70E002C0C6
:1038F0006FEF7FEFC6012B8B0E948E268C012B89E8
:103900002068722E23FD1AC0852D90E00817190734
:10391000A8F4B70180E290E00E94E9265A94F4CF1F
:10392000F60177FC859177FE81916F01B70190E0F8
:103930000E94E92651105A940150110901151105F0
:1039400079F7E2C0843611F0893651F5560127FF28
:1039500009C0F4E0AF0EB11CF60160817181828173
:1039600093810AC0F2E0AF0EB11CF6016081718153
:10397000882777FD8095982F022F0F7697FF08C034
:1039800090958095709561957F4F8F4F9F4F006800
:103990002AE030E0A4010E94A227C82EC8183EC029
:1039A000022F853721F40F7E2AE030E01DC0097F09
:1039B0008F3691F018F4883559F0B0C0803719F07F
:1039C000883711F0ABC0006104FF09C0046007C074
:1039D00024FF08C0066006C028E030E005C020E1F2
:1039E00030E002C020E132E0560107FF09C0F4E0F8
:1039F000AF0EB11CF601608171818281938108C094
:103A0000F2E0AF0EB11CF6016081718180E090E0C0
:103A1000A4010E94A227C82EC8180F7706FF0BC06A
:103A2000202F2E7FC11650F404FF0AC002FD08C0EB
:103A3000202F2E7E05C0DC2C202F03C0DC2C01C0E3
:103A4000D12E24FF0DC0FE01EC0DF11D80818033CD
:103A500011F4297E09C022FF06C0D394D39404C078
:103A6000822F867809F0D39423FD13C020FF06C06F
:103A70001C2DD51418F4150D1D19D52CD51468F46A
:103A8000B70180E290E02B8B0E94E926D3942B892A
:103A9000F5CFD51410F45D1801C0512C24FF12C0CD
:103AA000B70180E390E02B8B0E94E9262B8922FF4F
:103AB00017C021FF03C088E590E002C088E790E0CE
:103AC000B7010CC0822F867859F021FD02C080E238
:103AD00001C08BE227FD8DE2B70190E00E94E9264C
:103AE000C11638F4B70180E390E00E94E926115036
:103AF000F7CFCA94F401EC0DF11D8081B70190E07D
:103B00000E94E926C110F5CF552009F4C2CCB701B7
:103B100080E290E00E94E9265A94F6CFF701868170
:103B2000978102C08FEF9FEF63960FB6F894DEBFC8
:103B30000FBECDBFDF91CF911F910F91FF90EF90FE
:103B4000DF90CF90BF90AF909F908F907F906F90BD
:103B50005F904F903F902F90089520FD09C0FC0189
:103B600023FD05C022FF02C073836283518340831B
:103B7000089544FD10C046FD10C0DB01FC01AA0FF2
:103B8000BB1FEE1FFF1F1094D1F76A0F7B1F8E1F04
:103B90009F1F31E003C033E001C034E0660F771FA0
:103BA000881F991F3150D1F7620F711D811D911D22
:103BB00008950F931F93CF93DF938C01C8010E9448
:103BC000AB26EC0197FD08C00E947326892BB1F744
:103BD000B801CE010E948927CE01DF91CF911F91BC
:103BE0000F9108956F927F929F92AF92BF92CF9262
:103BF000DF92EF92FF920F931F93CF93DF931F9269
:103C0000CDB7DEB78C013B015A0129830E94AB2658
:103C1000AC01552729814B32510521F04D32510518
:103C200081F4206831E0631A71086114710411F4A1
:103C300080E07FC0C80129830E94AB26298197FDBF
:103C4000F7CFE22FED7F9E2E322F307379F5803340
:103C500069F57301F1E0EF1AF108E114F10409F4D8
:103C600054C0C80129830E94AB26298197FD4DC00D
:103C7000382F3F7D383581F4292D2264922E32E091
:103C8000631A71086114710409F43FC0C8010E94ED
:103C9000AB2697FF0BC039C026FF04C0E92DE260B8
:103CA0009E2E03C0F92DF2619F2E3701C12CD12C1D
:103CB000760120ED280F283080F094FE04C0B80172
:103CC0000E9489271FC02A3040F096FEF8CF2F7D32
:103CD0003FEE320F363098F72750492DC701B60115
:103CE0000E94B91D6B017C01292D2260922E31E0CA
:103CF000631A71086114710459F0C8010E94AB265F
:103D000097FFD7CF91FC04C093CFC12CD12C760163
:103D100097FE08C0F094E094D094C094C11CD11CCC
:103D2000E11CF11C292DB701A601C5010E94AD1DA2
:103D300081E00F90DF91CF911F910F91FF90EF9055
:103D4000DF90CF90BF90AF909F907F906F9008953D
:103D50004F925F926F927F928F929F92AF92BF929B
:103D6000CF92DF92EF92FF920F931F93CF93DF9347
:103D7000CDB7DEB7A0970FB6F894DEBF0FBECDBFAC
:103D80005C014B017A018E010F5F1F4F680180E2D9
:103D9000F80111928A95E9F7F501638080E090E0DF
:103DA000712C412CB0E041E050E0F90163FC5590EA
:103DB00063FE51908F01A52D9F01511003C080E03B
:103DC00090E07FC0FEE55F1202C0009761F16B2FAB
:103DD00070E0681779074CF46DE5561661F1EDE275
:103DE0005E1203C0442009F103C0411001C0752CCC
:103DF0006A2F669566956695F601E60FF11D6A2FA6
:103E000067708A0102C0000F111F6A95E2F7B801BE
:103E10007081762B7083A71559F0A71510F4AF5F4A
:103E2000E7CFA150E5CFB1E004C04424439401C0E2
:103E3000412C0196BACF442019F08E8180628E8386
:103E4000B11103C07724739419C0F601CE01819695
:103E5000208120952193E817F907D1F7F3CFE114DA
:103E6000F10429F0F7018083C70101967C0191E0FC
:103E7000891A910881149104F1F0712CC5010E94F6
:103E8000AB2697FD16C0282F269526952695F60178
:103E9000E20FF11D208130E0AC014770552702C0D0
:103EA000359527954A95E2F720FDD9CFB5010E94B7
:103EB0008927711084CFE114F10411F0F701108209
:103EC000C801A0960FB6F894DEBF0FBECDBFDF913C
:103ED000CF911F910F91FF90EF90DF90CF90BF9007
:103EE000AF909F908F907F906F905F904F900895CC
:103EF0002F923F924F925F926F927F929F92AF92DA
:103F0000BF92CF92DF92EF92FF920F931F93CF93C6
:103F1000DF9300D000D0CDB7DEB76C018B011A0162
:103F20000E94AB269E838D8399278B32910529F0C1
:103F30008D9799F480E8982E01C0912C01501109B9
:103F40000115110511F480E036C1C6010E94AB26AF
:103F50009E838D8397FF02C0F6CF912C8D819E8129
:103F60000E947B268936910541F08E369105D9F560
:103F7000B2E56B2EB1E07B2E04C0A5E56A2EA1E070
:103F80007A2E8FEF681A780AF3013197B490BB202C
:103F9000F1F0015011090115110571F0C6010E94DF
:103FA000AB267C0197FD08C00E947B26B81649F31A
:103FB000B601C7010E94892728E5621621E0720632
:103FC00009F0C1CF80E090E0A0E8BFE709C095E527
:103FD000691691E07906B1F780E090E0A0ECBFE7C8
:103FE000BC01CD01D8C0412C512C3201E12CF12C67
:103FF0002D8120532A3028F5E92DE260BE2E892D2F
:10400000887092FE06C0811123C0FFEFEF1AFF0AED
:104010001FC0882319F081E0E81AF10840E2C301CB
:10402000B2010E94B91D2B013C0198E9491699E99A
:104030005906690699E1790658F0E92DE660BE2E29
:1040400007C02E3FA1F493FC12C0F92DF860BF2EDB
:10405000015011090115110549F0C6010E94AB2656
:104060009E838D839B2C97FD02C0C2CF9B2C91FE1B
:104070006ACF8D818F7D853409F056C0580121E0CB
:10408000A21AB108A114B10409F45DCFC6010E94BF
:10409000AB269E838D8397FD56CF99278B32910552
:1040A00029F08D9781F4892D8061982E580192E036
:1040B000A91AB108A114B10409F445CFC6010E94A0
:1040C000AB269E838D838D819E81C0970A9708F0D1
:1040D0003ACF8501A12CB12CB501882777FD8095B9
:1040E000982F2D81205340E20E94B91DAB01BC01E5
:1040F0005A01015011090115110571F0C6014983DA
:104100005A836B837C830E94AB269E838D83C097EA
:1041100049815A810A9700F394FE04C0AA24BB2463
:10412000A41AB50AEA0CFB1C012B41F0ED81FE81BB
:10413000F7FD04C0B601CF010E948927C301B20177
:104140000E94AA24F7FE08C0F194E194F108F1E777
:10415000AF2EF1E0BF2E04C0E9E8AE2EE1E0BE2EA6
:104160006501F8E1CF1AD10800E210E0E016F1068F
:1041700050F0F50125913591459154910E94E72425
:10418000E01AF10AF3CF24E0A21AB10816950795B8
:10419000AC14BD0459F797FE05C0DC01CB01B05843
:1041A000BC01CD012114310429F0F1016083718338
:1041B0008283938381E026960FB6F894DEBF0FBE0C
:1041C000CDBFDF91CF911F910F91FF90EF90DF90C6
:1041D000CF90BF90AF909F907F906F905F904F90E7
:1041E0003F902F9008954F925F926F927F928F929F
:1041F0009F92AF92BF92CF92DF92EF92FF920F9376
:104200001F93CF93DF931F92CDB7DEB78C012B01A5
:104210007A01FC0117821682A12CF801D380F201E9
:10422000D3FC8591D3FE8191382F2F01882309F487
:1042300016C190E039830E9473263981892B21F0C1
:10424000C8010E94D91DE9CF353241F4F201D3FCF7
:104250003591D3FE31912F01353269F4C80139838C
:104260000E94AB26398197FDF8C03817B1F2B8012A
:104270000E948927F4C03A3241F4D3FC3591D3FE31
:1042800031912F01BB24B39401C0B12C812C912C0E
:1042900020ED230F2A3088F4FB2DF260BF2EB401ED
:1042A00080E090E040E20E94B91D4B01F201D3FC96
:1042B0003591D3FE31912F01EBCFB1FE04C08114B3
:1042C000910421F4CCC088248A94982C383619F0B3
:1042D0003C3661F014C0F201D3FC3591D3FE31912C
:1042E0002F01383661F4FB2DF860BF2E8B2D8460D2
:1042F000B82EF201D3FC3591D3FE31912F01332337
:1043000009F4ADC0632F70E080E491E039830E942E
:1043100083263981892B09F4A2C0B0FC07C0F701BC
:10432000C080D180C70102967C0102C0C12CD12C73
:104330003E3651F4F8014681578160E070E02B2D44
:10434000C6010E94AD1D69CF3336C9F4B1FC03C06C
:1043500088248394912CC8010E94AB2697FD7DC0D0
:10436000C114D10429F0F6018083C60101966C01C5
:1043700091E0891A91088114910469F76AC03B356C
:1043800059F49201A601B401C8010E94A81E2C0193
:10439000009709F05EC058C0C80139830E94D91D3A
:1043A000398197FD5AC03F36F1F140F43436B9F106
:1043B0003936E1F1383509F040C02DC03337B9F056
:1043C00018F4303741F139C0353749F1383719F130
:1043D00034C0C114D10429F0F6016082C6010196EF
:1043E0006C0191E0891A91088114910471F0C8015F
:1043F0000E94AB263C0197FD08C00E947326892BC2
:1044000041F3B801C3010E948927C114D10409F105
:10441000F60110821EC0FB2DF064BF2E07C08B2D4D
:104420008062B82E03C09B2D9061B92E2B2DA60162
:10443000B401C8010E94F21D05C0A601B401C80163
:104440000E94781F811105C0F8018381807329F4CF
:1044500006C0B0FCE2CEA394E0CEAA2019F08A2DCB
:1044600090E002C08FEF9FEF0F90DF91CF911F91EF
:104470000F91FF90EF90DF90CF90BF90AF909F9003
:104480008F907F906F905F904F9008956F927F9282
:104490008F929F92AF92BF92CF92DF92EF92FF9254
:1044A0000F931F93CF93DF93CDB7DEB7C251D140A7
:1044B0000FB6F894DEBF0FBECDBF3C0181E091E0A6
:1044C0009A8389837C836B83440F551F440F551F48
:1044D000440F551F5E834D83220F331F220F331F5E
:1044E000220F331F38872F83FA86E9861C870B87B4
:1044F000DE86CD86B88AAF86880C991C880C991CFC
:10450000880C991C9A8A898ACC5DDE4F68817981F2
:10451000C452D140CE0143960E94FF078E010F5F27
:104520001F4F6C01C01AD10A81E00E947D026C2DE0
:1045300081E00E94F7026D2D81E00E94F702C11414
:10454000D104F9F0780100E010E00BC0F7016191AF
:104550007F0181E00E94F7020F5F1F4FC016D10656
:1045600081F098012F733327232B81F781E00E947C
:104570003D078111EBCF81E00E943D078823B1F315
:10458000E5CF81E00E94BC0281E00E947D0281E0D3
:104590000E943D078823D9F36FEF81E00E948005D8
:1045A000F30180836FEF81E00E948005F301818336
:1045B00081E00E94BC0281E00E943D078130D9F376
:1045C000F30180819181CE5EDE4F0FB6F894DEBF9D
:1045D0000FBECDBFDF91CF911F910F91FF90EF9054
:1045E000DF90CF90BF90AF909F908F907F906F9013
:1045F00008958F929F92AF92BF92CF92DF92EF92E7
:10460000FF920F931F93CF93DF93CDB7DEB76097E1
:104610000FB6F894DEBF0FBECDBF4C01A2E6B1E0ED
:10462000BA83A983660F771F660F771F660F771F00
:104630007C836B83440F551F440F551F440F551F38
:104640005E834D83220F331F220F331F220F331F30
:1046500038872F83FA86E9861C870B87DE86CD860E
:10466000AA0CBB1CAA0CBB1CAA0CBB1CB88AAF862C
:1046700081E00E947D0260E181E00E94F70260E03B
:1046800081E00E94F702CE0101967C0101E010E07A
:104690000DC0F701608181E00E94F7020031110531
:1046A00099F00F5F1F4F9FEFE91AF90A01301105CA
:1046B00081F781E00E943D078823D9F3F7016081EB
:1046C00081E00E94F702EDCF81E00E94BC0281E010
:1046D0000E947D0281E00E943D078823D9F36FEF9D
:1046E00081E00E948005F40180836FEF81E00E94E9
:1046F0008005F401818381E00E94BC0281E00E9478
:104700003D078130D9F3F4018081918160960FB625
:10471000F894DEBF0FBECDBFDF91CF911F910F91F7
:10472000FF90EF90DF90CF90BF90AF909F908F90D1
:104730000895AF92BF92CF92DF92EF92FF920F93C4
:104740001F93CF93DF93CDB7DEB7C250D1400FB6E2
:10475000F894DEBF0FBECDBF5C0185E593E09A8380
:104760008983CE0103960E94FF078E010F5F1F4FC2
:104770006C01C01AD10A81E00E947D026C2D81E09B
:104780000E94F7026D2D81E00E94F702C114D1044E
:10479000F9F0780100E010E00BC0F70161917F01B2
:1047A00081E00E94F7020F5F1F4FC016D10681F013
:1047B00098012F733327232B81F781E00E943D0757
:1047C0008111EBCF81E00E943D078823B1F3E5CF53
:1047D00081E00E94BC0281E00E947D0281E00E9493
:1047E0003D078823D9F36FEF81E00E948005F50132
:1047F00080836FEF81E00E948005F501818381E075
:104800000E94BC0281E00E943D078130D9F3F5018E
:1048100080819181CE5FDE4F0FB6F894DEBF0FBE70
:10482000CDBFDF91CF911F910F91FF90EF90DF905F
:10483000CF90BF90AF9008950E9478010E947E07AC
:104840000E94450D83E090E00E9480010E947A0161
:10485000789481E893E00E942D27C0E0D0E040E00A
:1048600002E314E69E0136952795ABE7B4E10E947A
:10487000842496958795089F9001099F300D1124F7
:10488000C217D307F9F0442331F08FE99FE0019775
:10489000F1F700C0000021969E01369527953695C8
:1048A0002795ABE7B4E10E94842496958795189FDD
:1048B0009001199F300D112441E0C217D30791F6E2
:1048C00040E0D0CF0E940918E6CF62E08BEB94E085
:1048D0000E943A0863E08AEB94E00E94D40764E007
:1048E00089EB94E00E94A70765E088EB94E00E94C2
:1048F000150866E087EB94E00C948E19EE0FFF1F0D
:104900000590F491E02D1994A29FB001B39FC001CE
:10491000A39F700D811D1124911DB29F700D811DEB
:104920001124911D0895B7FF0C949F240E949F2489
:10493000821B930B08950790F691E02D19940E9425
:104940008424A59F900DB49F900DA49F800D911D70
:1049500011240895E89409C097FB3EF49095809542
:10496000709561957F4F8F4F9F4F9923A9F0F92F35
:1049700096E9BB279395F695879577956795B795B3
:10498000F111F8CFFAF4BB0F11F460FF1BC06F5F99
:104990007F4F8F4F9F4F16C0882311F096E911C0AB
:1049A000772321F09EE8872F762F05C0662371F0CC
:1049B00096E8862F70E060E02AF09A95660F771FE0
:1049C000881FDAF7880F9695879597F908950BD089
:1049D00078C069D028F06ED018F0952309F05AC03D
:1049E0005FC01124A2C07ED0A0F3959FD1F3950F94
:1049F00050E0551F629FF001729FBB27F00DB11D63
:104A0000639FAA27F00DB11DAA1F649F6627B00DF2
:104A1000A11D661F829F2227B00DA11D621F739FDB
:104A2000B00DA11D621F839FA00D611D221F749FE9
:104A30003327A00D611D231F849F600D211D822F30
:104A4000762F6A2F11249F5750408AF0E1F0882377
:104A50004AF0EE0FFF1FBB1F661F771F881F915084
:104A60005040A9F79E3F510570F014C05EC05F3FF3
:104A7000ECF3983EDCF3869577956795B795F795B7
:104A8000E7959F5FC1F7FE2B880F911D969587953F
:104A900097F9089597F99F6780E870E060E00895BE
:104AA0009FEF80EC089500240A9416161706180646
:104AB0000906089500240A94121613061406050622
:104AC0000895092E0394000C11F4882352F0BB0FB3
:104AD00040F4BF2B11F460FF04C06F5F7F4F8F4F16
:104AE0009F4F089557FD9058440F551F59F05F3F51
:104AF00071F04795880F97FB991F61F09F3F79F000
:104B000087950895121613061406551FF2CF469581
:104B1000F1DF08C0161617061806991FF1CF869503
:104B20007105610508940895E894BB2766277727E7
:104B3000CB0197F90895283008F027E03327DA01F0
:104B4000990F311D87FD916000966105710539F45B
:104B500032602E5F3D9330E32A95E1F708959F3F41
:104B600030F080387105610509F03C5F3C5F3D9392
:104B7000913008F08068911DDF93CF931F930F93BE
:104B8000FF92EF92192F987F9695E92F969596951B
:104B9000E90FFF27E951FE4F99273327EE24FF2421
:104BA000A701E70105900894079428F4360FE71E43
:104BB000F81E491F511D660F771F881F991F069405
:104BC000A1F70590079428F4E70EF81E491F561F19
:104BD000C11D770F881F991F661F0694A1F70590C6
:104BE000079428F4F80E491F561FC71FD11D880FC0
:104BF000991F661F771F0694A1F70590079420F46C
:104C0000490F561FC71FD81F990F661F771F881F90
:104C10000694A9F784911095177041F0D695C79521
:104C200057954795F794E7941A95C1F7EDE8F1E0A9
:104C300068941590159135916591959105907FE255
:104C40007395E118F10A430B560BC90BD009C0F755
:104C5000E10CF11E431F561FC91FD01D7EF4703397
:104C600011F48A95E6CFE894015030F0080F0AF469
:104C70000027021708F4202F2395022F7A3328F0FB
:104C800079E37D932A95E9F710C07D932A9589F6FB
:104C9000069497956795379517951794E118F10A3B
:104CA000430B560BC90BD00998F023957E91739551
:104CB0007A3308F070E37C932013B8F77E9170612B
:104CC0007D9330F0839571E37D9370E32A95E1F74E
:104CD0001124EF90FF900F911F91CF91DF919927B1
:104CE00087FD9095089591118BC1803219F08950FC
:104CF0008550D0F708959111089581548A5108F490
:104D0000805E855A0895FC010590061621F000206A
:104D1000D9F7C00108953197CF010895FC0105909E
:104D2000615070400110D8F7809590958E0F9F1FAD
:104D30000895FB01DC0101900D920020E1F7089538
:104D4000FC016150704001900110D8F7809590955A
:104D50008E0F9F1F0895CF93DF93EC012B8120FFCF
:104D600033C026FF0AC02F7B2B838E819F81019643
:104D70009F838E838A8190E029C022FF0FC0E88143
:104D8000F9818081992787FD9095009719F4206219
:104D90002B831AC03196F983E8830EC0EA85FB8520
:104DA000199597FF09C02B81019611F480E101C08C
:104DB00080E2822B8B8308C02E813F812F5F3F4F83
:104DC0003F832E83992702C08FEF9FEFDF91CF9112
:104DD00008950F931F93CF93DF93182F092FEB01A3
:104DE0008B8181FD03C08FEF9FEF20C082FF10C039
:104DF0004E815F812C813D81421753077CF4E8810D
:104E0000F9819F012F5F3F4F39832883108306C0AC
:104E1000E885F985812F1995892B29F72E813F8106
:104E20002F5F3F4F3F832E83812F902FDF91CF91B4
:104E30001F910F910895CF93DF93CDB7DEB7FE0199
:104E4000369661917191AF018091C1049091C20435
:104E50000E94091ADF91CF9108950F931F93CF936A
:104E6000DF93E091C104F091C204238121FF1BC0B4
:104E7000EC0100E010E089916091C1047091C204DE
:104E8000DB011896ED91FC911997882331F0199563
:104E9000892B89F30FEF1FEFEECF8AE01995892B4D
:104EA00011F4C80102C08FEF9FEFDF91CF911F91E6
:104EB0000F9108950F931F93CF93DF93CDB7DEB774
:104EC0002E970FB6F894DEBF0FBECDBF0E891F8997
:104ED00086E08C831A8309838FEF9FE79E838D83FF
:104EE000AE01465E5F4F688D798DCE0101960E94BE
:104EF000091AEF81F885E00FF11F10822E960FB688
:104F0000F894DEBF0FBECDBFDF91CF911F910F91FF
:104F10000895FB01238120FF12C026FD10C08F3FA2
:104F20003FEF930761F082832F7D206423832681E6
:104F300037812150310937832683992708958FEFD0
:104F40009FEF0895FA01AA27283051F1203181F10D
:104F5000E8946F936E7F6E5F7F4F8F4F9F4FAF4F81
:104F6000B1E03ED0B4E03CD0670F781F891F9A1F94
:104F7000A11D680F791F8A1F911DA11D6A0F711D48
:104F8000811D911DA11D20D009F468943F912AE054
:104F9000269F11243019305D3193DEF6CF0108953C
:104FA000462F4770405D4193B3E00FD0C9F7F6CF6D
:104FB000462F4F70405D4A3318F0495D31FD405235
:104FC000419302D0A9F7EACFB4E0A69597958795CB
:104FD00077956795BA95C9F70097610571050895AA
:104FE0009B01AC010A2E0694579547953795279556
:104FF000BA95C9F7620F731F841F951FA01D0895EE
:0A500000992788270895F894FFCF40
:10500A000000000300000000460756070000016682
:10501A004100000000280050007800A000C800F0FD
:10502A00001801400168019001B801E001E001E0C7
:10503A00010000280050007800A000C800F0001805
:10504A0001400100FF0100010000FFFF0000010014
:10505A0001FF00436C654F2056657273696F6E20BD
:10506A003D2025640A00436C654F204944203D20B9
:10507A0025640A00436C654F204E6F6F7028292003
:10508A004563686F203D2025640A00436C654F2004
:10509A0072303D307825780A00436C654F207231B2
:1050AA003D307825780A00436C654F2053796E634A
:1050BA006564005445432054656D7065726174756A
:1050CA00726520436F6E74726F6C6C657200446512
:1050DA0076696365204944203A20414D4F32005396
:1050EA0074617274696E67205570202E2E2E20000E
:1050FA0040466F6E74732F4453454737436C617350
:10510A007369634D696E692D426F6C644974616C91
:10511A0069632E6674666F6E7400486172647761A3
:10512A007265204944203A20302E302E30004669DC
:10513A00726D77617265204944203A20302E302EF4
:10514A0030002C0025752C20256C752C20256C75BB
:10515A002C202564004D61782043757272656E7447
:10516A00204661756C740044696F6465204E6F74E3
:10517A0020436F6E6E6563746564006D410075410E
:08518A00005265616479000028
:00000001FF
