:100000000C9497010C94B8010C94F1060C94F10631
:100010000C9433070C94B8010C94F1060C94B801BD
:100020000C94B8010C943D070C94B8010C94B801E1
:100030000C94B8010C94B8010C94B8010C94B8015C
:100040000C94B8010C94B8010C94B8010C94B8014C
:100050000C94B8010C94B8010C94B8010C94B8013C
:100060000C94B8010C941D050C94B8010C94B801C3
:100070000C94B8010C94B8010C94B8010C94B8011C
:100080000C94B8010C94B8010C94B8010C94B8010C
:100090000C94B8010C94B8010C94B8010C94B801FC
:1000A0000C94B8010C94B8010C94B8010C94B801EC
:1000B0000C94B8010C94B8010C94B8010C94B801DC
:1000C0000C94B8010C94B8010C94B8010C94B801CC
:1000D0000C94B8010C94B8010C94B8010C94B801BC
:1000E0000C94B801322D482D062D5E2D7F2DBA2D92
:1000F0001A2DE22D1C2D07634236B79BD8A71A395B
:10010000685618AEBAAB558C1D3CB7CC5763BD6D65
:10011000EDFD753EF6177231BF000000803F08000C
:100120000000BE922449123EABAAAA2ABECDCCCC76
:100130004C3E00000080BEABAAAAAA3E0000000010
:10014000BF000000803F0000000000084178D3BBE2
:100150004387D1133D190E3CC3BD4282AD2B3E688F
:10016000EC8276BED98FE1A93E4C80EFFFBE01C480
:10017000FF7F3F00000000000C941C2D0C94D50460
:100180000C94482D0C94BA2D0C94E5040C945E2D1F
:100190000C94E22D0C94322D0C947F2D0C941A2D7E
:1001A0000C94062D6E616E00696E660000407A1038
:1001B000F35A00A0724E18090010A5D4E80000E818
:1001C0007648170000E40B54020000CA9A3B000076
:1001D00000E1F505000080969800000040420F0005
:1001E0000000A08601000000102700000000E803C6
:1001F000000000006400000000000A000000000091
:100200000100000000002C76D888DC674F0823DF4F
:10021000C1DFAE59E1B1B796E5E3E453C63AE65122
:10022000997696E8E6C28426EB898C9B62ED407C49
:100230006FFCEFBC9C9F40F2BAA56FA5F490055AE5
:100240002AF75C936B6CF9676DC11BFCE0E40D470A
:10025000FEF520E6B500D0ED902E0300943577052D
:100260000080841E080000204E0A000000C80C33E5
:100270003333330F986E12831141EF8D2114893B74
:10028000E65516CFFEE6DB18D1844B381BF77C1DF4
:10029000901DA4BBE424203284725E228100C9F147
:1002A00024ECA1E53D274E414E494E495459494E53
:1002B00046CDCCCC3D0AD7233C17B7D13877CC2BD1
:1002C000329595E6241FB14F0A000020410000C876
:1002D0004200401C4620BCBE4CCA1B0E5AAEC59DF7
:1002E000746364696E6F70737578585B6566674593
:1002F000464700616E006E66696E69747900CDCC08
:10030000CC3D0AD7233C17B7D13877CC2B32959503
:10031000E6241FB14F0A000020410000C8420040FF
:100320001C4620BCBE4CCA1B0E5AAEC59D7411247F
:100330001FBECFEFD1E2DEBFCDBF00E00CBF15E0A6
:10034000A0E0B2E0E4EFF1E800E00BBF02C00790EC
:100350000D92A43BB107D9F729E0A4EBB5E001C0A9
:100360001D92AB3DB207E1F70E94F7370C94F840BD
:100370000C940000279A08952F9A08952F980895B5
:100380001F9A08950097D9F020E030E02F9A4FE7A8
:100390005AE166E0415050406040E1F700C0000083
:1003A0002F984FE75AE166E0415050406040E1F736
:1003B00000C000002F5F3F4F2817390739F7089515
:1003C000813009F43FC0823009F008958091010125
:1003D000806880930101809102018F7780930201F0
:1003E0002FEF81EE94E0215080409040E1F700C073
:1003F00000008091010188608093010180910201D9
:1004000088608093020180910101806180930101E5
:1004100080910201806180930201809101018062DC
:10042000809301018091020180628093020180919A
:100430000101806480930101809102018F7B809390
:1004400002010895809A889A6F9A779A839A8B9A74
:10045000819A899A82988A986E98769808958130C0
:1004600009F0089577989AE09A95F1F7779A8A9526
:10047000F1F70895813071F0823009F0089580918C
:1004800002018F7E8093020180910201877F809319
:10049000020108958B9888980895813099F08230F0
:1004A00009F0089580910201886080930201809193
:1004B0000201806180930201809102018062809339
:1004C00002010895889A8B9A899A0895962F9078B8
:1004D000813009F4BCC0823009F008958091020196
:1004E000911110C18F7D8093020181E0982F9A9520
:1004F000F1F7909102019061909302018A95F1F7D2
:10050000809102018F7E8093020166FF31C180914C
:10051000020180628093020181E0982F9A95F1F7A1
:10052000909102019061909302018A95F1F7809178
:1005300002018F7E8093020165FF14C18091020148
:1005400080628093020181E0982F9A95F1F7909153
:1005500002019061909302018A95F1F78091020166
:100560008F7E8093020164FFF7C080910201806258
:100570008093020181E0982F9A95F1F79091020102
:100580009061909302018A95F1F7809102018F7E2C
:100590008093020163FFDAC0809102018062809340
:1005A000020181E0982F9A95F1F7909102019061F4
:1005B000909302018A95F1F7809102018F7E8093DA
:1005C000020162FFBDC0809102018062809302013E
:1005D00081E0982F9A95F1F79091020190619093A4
:1005E00002018A95F1F7809102018F7E80930201CA
:1005F00061FFA0C08091020180628093020181E0CE
:10060000982F9A95F1F790910201906190930201D1
:100610008A95F1F7809102018F7E8093020160FF3D
:1006200083C08091020180628093020181E0982F53
:100630009A95F1F7909102019061909302018A9549
:10064000F1F7809102018F7E80930201089591114C
:1006500057C0899881E0982F9A95F1F78B9A8A95DF
:10066000F1F78B9866FF54C0899A81E0982F9A958C
:10067000F1F78B9A8A95F1F78B9865FF47C0899AB5
:1006800081E0982F9A95F1F78B9A8A95F1F78B98DC
:1006900064FF46C0899A81E0982F9A95F1F78B9A6A
:1006A0008A95F1F78B9863FF39C0899A81E0982F7A
:1006B0009A95F1F78B9A8A95F1F78B9862FF2CC087
:1006C000899A81E0982F9A95F1F78B9A8A95F1F79C
:1006D0008B9861FF1FC0899A81E0982F9A95F1F756
:1006E0008B9A8A95F1F78B9860FF1CC0899A81E0FC
:1006F000982F9A95F1F78B9A8A95F1F78B98089530
:10070000899AA8CF806280930201EFCE8998B8CFF2
:100710008998ABCF8998E0CF8998D3CF8998C6CFF5
:100720008998B9CF8998E3CF809102018F7D80931A
:1007300002017CCF809102018F7D809302015FCF07
:10074000809102018F7D8093020142CF809102014E
:100750008F7D8093020125CF809102018F7D809350
:10076000020108CF809102018F7D80930201EBCEC0
:10077000809102018F7D80930201CECE813011F0F5
:1007800080E00895982F9A95F1F78B9A2FB1982FC2
:100790009A95F1F78B9822FB222720F9220F982FA8
:1007A0009A95F1F78B9A9FB1382F3A95F1F78B987C
:1007B00092FB992790F9292B220F982F9A95F1F700
:1007C0008B9A9FB1382F3A95F1F78B9892FB992726
:1007D00090F9292B220F982F9A95F1F78B9A9FB1B8
:1007E000382F3A95F1F78B9892FB992790F9292B9E
:1007F000220F982F9A95F1F78B9A9FB1382F3A953F
:10080000F1F78B9892FB992790F9292B220F982FBB
:100810009A95F1F78B9A9FB1382F3A95F1F78B980B
:1008200092FB992790F9292B220F982F9A95F1F78F
:100830008B9A9FB1382F3A95F1F78B9892FB9927B5
:1008400090F9292B982F9A95F1F78B9A9FB18A9559
:10085000F1F78B98822F880F92FB992790F9892BBB
:100860000895813011F080E0089567FF93C0899A60
:1008700091E0892F8A95F1F78B9A8FB19A95F1F7CC
:100880008B9882FB882780F9880F66FF81C0899A40
:1008900021E0922F9A95F1F78B9A9FB12A95F1F763
:1008A0008B9892FB992790F9892B880F65FF6EC072
:1008B000899A21E0922F9A95F1F78B9A9FB12A9508
:1008C000F1F78B9892FB992790F9892B880F64FF99
:1008D0005BC0899A21E0922F9A95F1F78B9A9FB18C
:1008E0002A95F1F78B9892FB992790F9892B880F1D
:1008F00063FF48C0899A21E0922F9A95F1F78B9A6D
:100900009FB12A95F1F78B9892FB992790F9892B43
:10091000880F62FF35C0899A21E0922F9A95F1F7EE
:100920008B9A9FB12A95F1F78B9892FB992790F9B2
:10093000892B880F61FF22C0899A21E0922F9A9516
:10094000F1F78B9A9FB12A95F1F78B9892FB992733
:1009500090F9892B880F60FF0FC0899A21E0922FB0
:100960009A95F1F78B9A9FB12A95F1F78B9892FBA4
:10097000992790F9892B08958998F0CF8998DDCF30
:100980008998CACF8998B7CF8998A4CF899891CFF1
:1009900089987ECF89986CCF813011F080E00895DE
:1009A0008CB186FB882780F90895CF93C82F8A30B1
:1009B00041F09091C00095FFFCCFC093C600CF914D
:1009C00008958DE00E94D504F4CF8091B605882368
:1009D000E1F3E091B705F091B805E554FA4F808155
:1009E0009091B60591509093B6052091B70530913E
:1009F000B8052F5F3F4F3093B8052093B70520917E
:100A0000B7053091B8052F3F310509F008951092D0
:100A1000B8051092B70508951092C50089E180933A
:100A2000C400E0ECF0E080818D7F808386E08093DD
:100A3000C20088E18093C10008951F920F920FB603
:100A40000F9211240BB60F922F938F939F93EF93D6
:100A5000FF932091C6008091B6058F3FA1F1E091F0
:100A6000B905F091BA05E554FA4F20838091B60597
:100A70008F5F8093B6058091B9059091BA05019674
:100A80009093BA058093B9058091B9059091BA0504
:100A90008F3F910501F18091B4059091B505892BA7
:100AA00031F08091C00085FFFCCF2093C600FF91FC
:100AB000EF919F918F912F910F900BBE0F900FBED2
:100AC0000F901F9018958091C00085FFFCCF80E4A7
:100AD0008093C600ECCF1092BA051092B905DBCF17
:100AE0008091B6058823F1F0E091B705F091B80543
:100AF000E554FA4F80819091B60591509093B605D8
:100B00002091B7053091B8052F5F3F4F3093B8055E
:100B10002093B7052091B7053091B8052F3F3105D7
:100B200019F0089580E008951092B8051092B70565
:100B30000895E1ECF0E080818F7780831092C5000A
:100B400089E18093C400A0ECB0E08C918D7F8C9300
:100B500086E08093C20088E180831092B5051092F0
:100B6000B405A3EDB9E080E092E011969C938E93DA
:100B700013969C938E9312971092BA051092B90512
:100B80001092B8051092B7051092B6058081806862
:100B9000808308959093B5058093B40508951092CD
:100BA000B5051092B4050895FC0160830895EF9295
:100BB000FF921F93CF93DF931F92CDB7DEB77C01D7
:100BC000162FFC01808179830E943A026981F70126
:100BD00080810E946602612FF70180810E94660277
:100BE000F70180810F90DF91CF911F91FF90EF90DF
:100BF0000C944D02FC0180810C94E001FC016083A7
:100C00000895CF92DF92EF92FF920F93CF93DF93ED
:100C1000EC016A017B0188810E943A02602F6370B7
:100C200088810E94660299278F2D7E2D6D2D8881E7
:100C30000E9466026C2D88810E9466028881DF9185
:100C4000CF910F91FF90EF90DF90CF900C944D02D9
:100C5000FC0180810C94E001FC0160830895CF9237
:100C6000DF92EF92FF92CF93DF93EC016A017B0159
:100C700088810E943A026C2D88810E946602B70129
:100C80008827992788810E94660299278F2D7E2DBB
:100C90006D2D88810E9466028881DF91CF91FF903F
:100CA000EF90DF90CF900C944D02FC0180810C946A
:100CB000E001FC01608308950F931F93CF93DF93AE
:100CC000EC018B0188810E943A02B8010024660F72
:100CD000771F001C660F771F001C672F702D6F7326
:100CE00088810E946602602F660F660F88810E94CD
:100CF00066028881DF91CF911F910F910C944D0274
:100D0000FC0180810C94E0010F931F93CF93DF933C
:100D10008C01EB010E94BB3DFE0101900020E9F730
:100D2000CF018C1B9D0B800F911FDF91CF911F91E5
:100D30000F910895FC01608308950F931F93CF9343
:100D4000DF93EC0188810E943A0288810E94BE03F1
:100D500088810E94BE03082F88810E94BE03182F3D
:100D600088810E944D02812F90E0902BDF91CF91DE
:100D70001F910F910895FC0180810C94E00152981D
:100D80005A9AE9E6F0E080818F7D808380818061DE
:100D90008083EA9A5198599A8081877F80838081E5
:100DA00084608083E99A53985B9A8081806880830D
:100DB00080818F7B8083EB9A26982E9AA8E6B0E0FC
:100DC0008C9181608C93EBE6F0E08081806480837D
:100DD00025982D9A8C9181608C938081806280838C
:100DE00008951F920F920FB60F9211240BB60F9217
:100DF0002F933F934F935F936F938F939F93EF93B3
:100E0000FF934091CB09440F440F4093CB0959B154
:100E100069B161FB882780F990E0842B52FB22277F
:100E200020F930E0220F331F822B932B8093CB09C4
:100E30008F70E82FF0E0EF5CFD4F9091D00980813A
:100E4000890F8093D009FF91EF919F918F916F91BE
:100E50005F914F913F912F910F900BBE0F900FBE5E
:100E60000F901F9018951F920F920FB60F9211249A
:100E70000F900FBE0F901F9018951F920F920FB6F4
:100E80000F9211248F939F9383B186FB882780F95B
:100E900090910F02992311F08823C1F080930F02E3
:100EA00083B185FB882780F990910E02992329F060
:100EB000811103C091E09093CE0980930E029F911F
:100EC0008F910F900FBE0F901F90189591E0909307
:100ED000CF09E4CF81E00E943A0262E081E00E9403
:100EE000660260E081E00E94660281E00E94CC041C
:100EF0008823D9F362E081E00E94660260E081E02D
:100F00000E94660281E00E944D0281E00E943A0246
:100F100081E00E94CC048823D9F36FEF81E00E9426
:100F200031048093BA066FEF81E00E943104809310
:100F3000BB0681E00E944D0281E00E94CC0481301A
:100F4000D9F38091BB068F938091BA068F938BE67D
:100F500092E09F938F930E94723E81E00E943A023A
:100F600062E081E00E94660260E081E00E94660229
:100F70000F900F900F900F9081E00E94CC04882377
:100F8000D9F363E081E00E94660260E081E00E94A4
:100F9000660281E00E944D0281E00E943A0281E0F7
:100FA0000E94CC048823D9F36FEF81E00E943104C2
:100FB0008093BA066FEF81E00E9431048093BB06F4
:100FC00081E00E944D0281E00E94CC048130D9F37F
:100FD0008091BB068F938091BA068F938EE792E043
:100FE0009F938F930E94723E81E00E943A0262E0DA
:100FF00081E00E94660260E081E00E9466020F903C
:101000000F900F900F9081E00E94CC048823D9F3B9
:1010100060E081E00E94660260E081E00E9466027A
:1010200081E00E944D0281E00E943A0281E00E942C
:10103000CC048823D9F36FEF81E00E9431048093C0
:10104000BA066FEF81E00E9431048093BB0681E015
:101050000E944D0281E00E94CC048130D9F381E0EE
:101060000E943A0262E081E00E94660260E081E054
:101070000E94660281E00E94CC048823D9F361E0DB
:1010800081E00E94660260E081E00E94660281E0E9
:101090000E944D0281E00E943A0281E00E94CC044D
:1010A0008823D9F36FEF81E00E9431048093BA0660
:1010B0006FEF81E00E9431048093BB0681E00E94C3
:1010C0004D0281E00E94CC048130D9F38091BB06AF
:1010D0008F938091BA068F938CE892E09F938F93C1
:1010E0000E94723E0F900F900F900F9008950895F8
:1010F0006F927F928F929F92AF92BF92CF92DF9228
:10110000EF92FF920F931F93CF93DF93CDB7DEB78C
:101110006A970FB6F894DEBF0FBECDBF989AA09A1B
:101120002FEF83ED90E3215080409040E1F700C025
:101130000000A098EFEFF3ED20E3E150F0402040F5
:10114000E1F700C0000081E00E94E00181E00E9420
:101150003A0281E00E94CC048823D9F36FEF81E04A
:101160000E9431048093BA066FEF81E00E9431043F
:101170008093BB0681E00E944D0281E00E94CC0476
:101180008130D9F38091BA069091BB0682319443A5
:1011900009F07DC081E00E943A0262E081E00E9495
:1011A000660260E081E00E94660281E00E94CC0459
:1011B0008823D9F360E081E00E94660260E081E06C
:1011C0000E94660281E00E944D0281E00E943A0284
:1011D00081E00E94CC048823D9F36FEF81E00E9464
:1011E00031048093BA066FEF81E00E94310480934E
:1011F000BB0681E00E944D0281E00E94CC04813058
:10120000D9F30091BA061091BB0681E00E943A0220
:1012100062E081E00E94660260E081E00E94660276
:1012200081E00E94CC048823D9F361E081E00E9430
:10123000660260E081E00E94660281E00E944D0249
:1012400081E00E943A0281E00E94CC048823D9F315
:101250006FEF81E00E9431048093BA066FEF81E066
:101260000E9431048093BB0681E00E944D0281E020
:101270000E94CC048130D9F38091BA069091BB06CC
:10128000012B09F087CF8F379D4109F083CF80E094
:1012900094E09A83898384E690E09C838B8381E049
:1012A0000E943A0264E081E00E94660260E081E010
:1012B0000E946602CE0101963C017C0101E010E033
:1012C0000DC0F701608181E00E94660204301105C3
:1012D00099F00F5F1F4FFFEFEF1AFF0A0130110562
:1012E00081F781E00E94CC048823D9F3F701608163
:1012F00081E00E946602EDCF81E00E944D0281E014
:101300000E943A0281E00E94CC048823D9F36FEF57
:1013100081E00E9431048093BA066FEF81E00E9461
:1013200031048093BB0681E00E944D0281E00E945F
:10133000CC048130D9F381E00E943A0262E081E07E
:101340000E94660260E081E00E94660281E00E94E5
:10135000CC048823D9F360E881E00E94660261E052
:1013600081E00E94660281E00E944D0281E00E94BD
:101370003A0281E00E94CC048823D9F36FEF81E028
:101380000E9431048093BA066FEF81E00E9431041D
:101390008093BB0681E00E944D0281E00E94CC0454
:1013A0008130D9F385E591E09A83898384E090E0E8
:1013B0009C838B8381E00E943A0264E081E00E947A
:1013C000660260E081E00E946602730101E010E0C5
:1013D0000DC0F701608181E00E94660204301105B2
:1013E00099F00F5F1F4FFFEFEF1AFF0A0130110551
:1013F00081F781E00E94CC048823D9F3F701608152
:1014000081E00E946602EDCF81E00E944D0281E002
:101410000E943A0281E00E94CC048823D9F36FEF46
:1014200081E00E9431048093BA066FEF81E00E9450
:1014300031048093BB0681E00E944D0281E00E944E
:10144000CC048130D9F380E791E09A8389838BEED5
:1014500093ED9C838B8389EE90E09E838D8381E066
:101460000E943A0266E081E00E94660260E081E04C
:101470000E946602730101E010E00DC0F701608177
:1014800081E00E9466020630110599F00F5F1F4F40
:10149000FFEFEF1AFF0A0130110581F781E00E948A
:1014A000CC048823D9F3F701608181E00E946602B1
:1014B000EDCF81E00E944D0281E00E943A0281E07E
:1014C0000E94CC048823D9F36FEF81E00E9431049D
:1014D0008093BA066FEF81E00E9431048093BB06CF
:1014E00081E00E944D0281E00E94CC048130D9F35A
:1014F00089E1EAE1F3E0D30101900D928A95E1F7E9
:10150000E090F008F090F1080091F2081091F308D3
:101510007F926F92812C912CA12CB12C94E0C92E3A
:10152000D12C2EE130E040EF50E06EE070E08AEB2D
:1015300096E00E94C0368DE492E09F938F9383EAF9
:1015400092E09F938F937F926F920E94BC3EE090B7
:10155000F008F090F1080091F2081091F3087F92E2
:101560006F9223E0C22ED12C24E630E04AE050E016
:1015700067E070E08AEB96E00E94C03687E492E074
:101580009F938F9387EB92E09F938F937F926F92BD
:101590000E94BC3EE090F008F090F1080091F20843
:1015A0001091F3087F926F9228E730E04AE050E014
:1015B00067E070E08AEB96E00E94C03681E492E03A
:1015C0009F938F938BEC92E09F938F937F926F9278
:1015D0000E94BC3EE090F008F090F1080091F20803
:1015E0001091F3087F926F922CE830E04AE050E0CF
:1015F00067E070E08AEB96E00E94C03681E1EFED93
:10160000F2E0D30101900D928A95E1F7E090F008A5
:10161000F090F1080091F2081091F3087F926F9218
:101620002CED30E04AE050E068E070E08AEB96E0B4
:101630000E94C03681E00E943A0262E081E00E948E
:10164000660260E081E00E9466020FB6F894DEBF99
:101650000FBECDBF81E00E94CC048823D9F361E89E
:1016600081E00E94660261E081E00E94660281E002
:101670000E944D0281E00E943A0281E00E94CC0467
:101680008823D9F36FEF81E00E9431048093BA067A
:101690006FEF81E00E9431048093BB0681E00E94DD
:1016A0004D0281E00E94CC048130D9F381E094E0C6
:1016B0009E8B8D8B82E090E0988F8F8B1A8E198E87
:1016C00081E00E943A0266E081E00E94660260E0EA
:1016D00081E00E9466028E010B5E1F4F66246394B8
:1016E000712C0EC0F801608181E00E946602F6E074
:1016F0006F167104A1F09FEF691A790A0F5F1F4FEF
:10170000E1E06E16710471F781E00E94CC04882339
:10171000D9F3F801608181E00E946602ECCF81E09C
:101720000E944D0281E00E943A0281E00E94CC04B6
:101730008823D9F36FEF81E00E9431048093BA06C9
:101740006FEF81E00E9431048093BB0681E00E942C
:101750004D0281E00E94CC048130D9F360EF72E049
:101760008AEB96E00E9474376A960FB6F894DEBF53
:101770000FBECDBFDF91CF911F910F91FF90EF90E2
:10178000DF90CF90BF90AF909F908F907F906F90A1
:1017900008952F923F924F925F926F927F928F9215
:1017A0009F92AF92BF92CF92DF92EF92FF920F93F0
:1017B0001F93CF93DF93CDB7DEB7CE54D1400FB692
:1017C000F894DEBF0FBECDBF81E00E943A0262E016
:1017D00081E00E94660260E081E00E94660281E092
:1017E0000E94CC048823D9F360E881E00E9466025D
:1017F00061E081E00E94660281E00E944D0281E08A
:101800000E943A0281E00E94CC048823D9F36FEF52
:1018100081E00E9431048093BA066FEF81E00E945C
:1018200031048093BB0681E00E944D0281E00E945A
:10183000CC048130D9F385E591E09A83898384E0F3
:1018400090E09C838B8381E00E943A0264E081E017
:101850000E94660260E081E00E9466028E010F5FD6
:101860001F4F6801EE24E394F12C0FC0F601608154
:1018700081E00E946602F4E0EF16F104A9F02FEF78
:10188000E21AF20A3FEFC31AD30A81E0E816F10424
:1018900069F781E00E94CC048823D9F3F6016081C6
:1018A00081E00E946602EBCF81E00E944D0281E060
:1018B0000E943A0281E00E94CC048823D9F36FEFA2
:1018C00081E00E9431048093BA066FEF81E00E94AC
:1018D00031048093BB0681E00E944D0281E00E94AA
:1018E000CC048130D9F380E791E09A8389831C820C
:1018F0001B821E821D8281E00E943A0266E081E026
:101900000E94660260E081E00E9466026801EE24A7
:10191000E394F12C0FC0F601608181E00E94660221
:10192000F6E0EF16F104A9F02FEFE21AF20A3FEF0A
:10193000C31AD30A81E0E816F10469F781E00E9436
:10194000CC048823D9F3F601608181E00E9466020D
:10195000EBCF81E00E944D0281E00E943A0281E0DB
:101960000E94CC048823D9F36FEF81E00E943104F8
:101970008093BA066FEF81E00E9431048093BB062A
:1019800081E00E944D0281E00E94CC048130D9F3B5
:1019900080E093E09A83898381E090E09C838B834D
:1019A0000E943A0264E081E00E94660260E081E009
:1019B0000E9466026801EE24E394F12C0FC0F60148
:1019C000608181E00E946602F4E0EF16F104A9F064
:1019D0002FEFE21AF20A3FEFC31AD30A81E0E816AA
:1019E000F10469F781E00E94CC048823D9F3F60161
:1019F000608181E00E946602EBCF81E00E944D028F
:101A000081E00E943A0281E00E94CC048823D9F34D
:101A10006FEF81E00E9431048093BA066FEF81E09E
:101A20000E9431048093BB0681E00E944D0281E058
:101A30000E94CC048130D9F38091E60881110C9486
:101A4000F91D8FEF90E02FEF3FEF42E551E05A8311
:101A500049833C832B839E838D8381E00E943A02DD
:101A600066E081E00E94660260E081E00E9466021A
:101A70006801EE24E394F12C0FC0F601608181E04F
:101A80000E946602F6E0EF16F104A9F02FEFE21AC9
:101A9000F20A3FEFC31AD30A81E0E816F10469F7AE
:101AA00081E00E94CC048823D9F3F601608181E0B3
:101AB0000E946602EBCF81E00E944D0281E00E940D
:101AC0003A0281E00E94CC048823D9F36FEF81E0D1
:101AD0000E9431048093BA066FEF81E00E943104C6
:101AE0008093BB0681E00E944D0281E00E94CC04FD
:101AF0008130D9F380E591E09A83898380E797E08C
:101B00009C838B8388E797E09E838D8388EF94E0A6
:101B100098878F839A87898781E00E943A026AE0DA
:101B200081E00E94660260E081E00E946602680136
:101B3000EE24E394F12C0FC0F601608181E00E9455
:101B40006602FAE0EF16F104A9F02FEFE21AF20AAA
:101B50003FEFC31AD30A81E0E816F10469F781E088
:101B60000E94CC048823D9F3F601608181E00E94B1
:101B70006602EBCF81E00E944D0281E00E943A02B2
:101B800081E00E94CC048823D9F36FEF81E00E94AA
:101B900031048093BA066FEF81E00E943104809394
:101BA000BB0681E00E944D0281E00E94CC0481309E
:101BB000D9F3E091D608F091D708EE0FFF1FE2505D
:101BC000F84F60817181072E000C880B990B0E94E1
:101BD000E6392FE632E143E850E40E949B3A20E0E8
:101BE00030E040E85BE30E949B3A9F938F937F93A2
:101BF0006F938AE393E09F938F936E012DEEC21A49
:101C00002EEFD20ADF92CF920E94BC3E8091F00864
:101C10009091F108A091F208B091F30821E031E031
:101C20003A8329832FE030E03C832B8320EC38E09B
:101C30003E832D8320E837E038872F839A87898772
:101C4000BC87AB8785E090E09E878D87188A1F86CA
:101C50001A8A198AB601CE0143960E9484064C0165
:101C6000801A910A81E00E943A02682D81E00E9468
:101C70006602692D81E00E9466020FB6F894DEBF0D
:101C80000FBECDBF8114910401F15801E12CF12C5C
:101C90000CC0F50161915F0181E00E946602FFEFD7
:101CA000EF1AFF0A8E149F0481F0C7018F739927E2
:101CB000892B79F781E00E94CC048111EACF81E081
:101CC0000E94CC048823B1F3E4CF81E00E944D024E
:101CD00081E00E943A0281E00E94CC048823D9F37B
:101CE0006FEF81E00E9431048093BA066FEF81E0CC
:101CF0000E9431048093BB0681E00E944D0281E086
:101D00000E94CC048130D9F38091F0089091F108C1
:101D1000A091F208B091F30821E031E03A832983E1
:101D20002EE030E03C832B8320E139E03E832D839D
:101D300020EA37E038872F839A878987BC87AB876B
:101D400084E090E09E878D87188A1F861A8A198AF8
:101D500060E473E0CE0143960E9484064C01801A31
:101D6000910A81E00E943A02682D81E00E94660299
:101D7000692D81E00E9466028114910401F15801ED
:101D8000E12CF12C0CC0F50161915F0181E00E9412
:101D90006602FFEFEF1AFF0A8E149F0481F0C7015D
:101DA0008F739927892B79F781E00E94CC048111E8
:101DB000EACF81E00E94CC048823B1F3E4CF81E034
:101DC0000E944D0281E00E943A0281E00E94CC0410
:101DD0008823D9F36FEF81E00E9431048093BA0623
:101DE0006FEF81E00E9431048093BB0681E00E9486
:101DF0004D0281E00E94CC048130D9F380E093E071
:101E00009A83898386E090E09C838B8381E00E94A3
:101E10003A0264E081E00E94660260E081E00E9494
:101E200066025801EE24E394F12C0FC0F5016081A5
:101E300081E00E946602F4E0EF16F104A9F02FEFB2
:101E4000E21AF20A3FEFA31AB30A81E0E816F1049E
:101E500069F781E00E94CC048823D9F3F501608101
:101E600081E00E946602EBCF81E00E944D0281E09A
:101E70000E943A0281E00E94CC048823D9F36FEFDC
:101E800081E00E9431048093BA066FEF81E00E94E6
:101E900031048093BB0681E00E944D0281E00E94E4
:101EA000CC048130D9F3E091D608F091D708E05FF7
:101EB000FD4F808181110C94F31D8FEF90E026E699
:101EC00036E642E551E05A8349833C832B839E8367
:101ED0008D8381E00E943A0266E081E00E94660202
:101EE00060E081E00E9466025801EE24E394F12C48
:101EF0000FC0F501608181E00E946602F6E0EF16F6
:101F0000F104A9F02FEFE21AF20A3FEFA31AB30A85
:101F100081E0E816F10469F781E00E94CC0488238F
:101F2000D9F3F501608181E00E946602EBCF81E088
:101F30000E944D0281E00E943A0281E00E94CC049E
:101F40008823D9F36FEF81E00E9431048093BA06B1
:101F50006FEF81E00E9431048093BB0681E00E9414
:101F60004D0281E00E94CC048130D9F380E591E0FC
:101F70009A83898380E79CE09C838B8388E797E042
:101F80009E838D8388EF94E098878F839A878987D3
:101F900081E00E943A026AE081E00E94660260E00D
:101FA00081E00E9466025801EE24E394F12C0FC0F8
:101FB000F501608181E00E946602FAE0EF16F1040B
:101FC000A9F02FEFE21AF20A3FEFA31AB30A81E059
:101FD000E816F10469F781E00E94CC048823D9F364
:101FE000F501608181E00E946602EBCF81E00E94F2
:101FF0004D0281E00E943A0281E00E94CC048823D5
:10200000D9F36FEF81E00E9431048093BA066FEF3D
:1020100081E00E9431048093BB0681E00E944D0262
:1020200081E00E94CC048130D9F3E091D608F09190
:10203000D708EE0FFF1FEE0FFF1F8091D808909179
:10204000D908E80FF91FEE0FFF1FEA5EF74F8181F5
:102050008F9380818F938CE693E09F938F93DF9291
:10206000CF920E94BC3E8091F0089091F108A0911F
:10207000F208B091F30821E031E03A8329832FE0A0
:1020800030E03C832B8320E83CE03E832D8320E836
:1020900037E038872F839A878987BC87AB8784E0AE
:1020A00090E09E878D87188A1F861A8A198A62E4B3
:1020B00073E0CE0143960E9484064C01801A910A77
:1020C00081E00E943A02682D81E00E946602692D3B
:1020D00081E00E9466020F900F900F900F900F907A
:1020E0000F908114910401F15801E12CF12C0CC0E6
:1020F000F50161915F0181E00E946602FFEFEF1A36
:10210000FF0A8E149F0481F0C7018F739927892BD2
:1021100079F781E00E94CC048111EACF81E00E942E
:10212000CC048823B1F3E4CF81E00E944D0281E02A
:102130000E943A0281E00E94CC048823D9F36FEF19
:1021400081E00E9431048093BA066FEF81E00E9423
:1021500031048093BB0681E00E944D0281E00E9421
:10216000CC048130D9F380E093E09A83898382E0C4
:1021700090E09C838B8381E00E943A0264E081E0DE
:102180000E94660260E081E00E9466025801EE242F
:10219000E394F12C0FC0F501608181E00E9466029A
:1021A000F4E0EF16F104A9F02FEFE21AF20A3FEF84
:1021B000A31AB30A81E0E816F10469F781E00E94EE
:1021C000CC048823D9F3F501608181E00E94660286
:1021D000EBCF81E00E944D0281E00E943A0281E053
:1021E0000E94CC048823D9F36FEF81E00E94310470
:1021F0008093BA066FEF81E00E9431048093BB06A2
:1022000081E00E944D0281E00E94CC048130D9F32C
:102210008091E70881110C94ED1D8FEF90E02FEF76
:102220003FEF42E551E05A8349833C832B839E83F1
:102230008D8381E00E943A0266E081E00E9466029E
:1022400060E081E00E9466025801EE24E394F12CE4
:102250000FC0F501608181E00E946602F6E0EF1692
:10226000F104A9F02FEFE21AF20A3FEFA31AB30A22
:1022700081E0E816F10469F781E00E94CC0488232C
:10228000D9F3F501608181E00E946602EBCF81E025
:102290000E944D0281E00E943A0281E00E94CC043B
:1022A0008823D9F36FEF81E00E9431048093BA064E
:1022B0006FEF81E00E9431048093BB0681E00E94B1
:1022C0004D0281E00E94CC048130D9F380E591E099
:1022D0009A83898380E79CE09C838B8388E391E0E9
:1022E0009E838D8388EF94E098878F8388E792E0C0
:1022F0009A87898781E00E943A026AE081E00E9421
:10230000660260E081E00E9466025801EE24E394D8
:10231000F12C0FC0F501608181E00E946602FAE0B5
:10232000EF16F104A9F02FEFE21AF20A3FEFA31A19
:10233000B30A81E0E816F10469F781E00E94CC0459
:102340008823D9F3F501608181E00E946602EBCF1A
:1023500081E00E944D0281E00E943A0281E00E94E9
:10236000CC048823D9F36FEF81E00E94310480937D
:10237000BA066FEF81E00E9431048093BB0681E0D2
:102380000E944D0281E00E94CC048130D9F320905C
:1023900027023090280237FCC5C040901D025090A3
:1023A0001E0260901F02709020028091D6089091CA
:1023B000D708880F991F880F991F880F991F9C01B4
:1023C0002A58374FC75BDE4F39832883C954D14021
:1023D00020E030E040E85FE3E12CF12CCB5BDE4F06
:1023E0001882C554D140CA5BDE4F1882C654D14012
:1023F000C95BDE4F1882C754D140C85BDE4F1882DC
:10240000C854D140C75BDE4FE881F981C954D1403F
:1024100061917191C75BDE4FF983E883C954D14064
:10242000072E000C880B990BC55BDE4F2883CB541D
:10243000D140C45BDE4F3883CC54D140C35BDE4F08
:102440004883CD54D140C25BDE4F5883CE54D14037
:102450000E94E6394B015C01C55BDE4F2881CB54FD
:10246000D140C45BDE4F3881CC54D140C35BDE4FDA
:102470004881CD54D140C25BDE4F5881CE54D1400B
:10248000C301B2010E943C399B01AC01C501B401FA
:102490000E949B3A9B01AC01CB5BDE4FE881C554A7
:1024A000D140CA5BDE4FB881C654D140C95BDE4F14
:1024B000A881C754D140C85BDE4FF881C854D140D1
:1024C0006E2F7B2F8A2F9F2F0E94CB38CB5BDE4F46
:1024D0006883C554D140CA5BDE4F7883C654D1406F
:1024E000C95BDE4F8883C754D140C85BDE4F9883F9
:1024F000C854D140FFEFEF1AFF0A2E143F0434F105
:10250000B7010F2C000C880B990B0E94E6399B0138
:10251000AC0160E070E080E090E40E94083B9B0129
:10252000AC0170CFCB5BDE4F1882C554D140CA5B83
:10253000DE4F1882C654D140C95BDE4F1882C754A3
:10254000D140C85BDE4F1882C854D140C85BDE4F13
:102550002881C854D1402F93C95BDE4F3881C754BE
:10256000D1403F93CA5BDE4F8881C654D1408F93E0
:10257000CB5BDE4F9881C554D1409F9387E493E0B5
:102580009F938F93DF92CF920E94BC3E8091F00880
:102590009091F108A091F208B091F30821E031E0A8
:1025A0003A8329832FE030E03C832B8328E53EE00B
:1025B0003E832D8320E431E038872F839A878987F3
:1025C000BC87AB8785E090E09E878D87188A1F8641
:1025D0001A8A198AB601CE0143960E9484064C01DC
:1025E000801A910A81E00E943A02682D81E00E94DF
:1025F0006602692D81E00E9466020FB6F894DEBF84
:102600000FBECDBF8114910401F15801E12CF12CD2
:102610000CC0F50161915F0181E00E946602FFEF4D
:10262000EF1AFF0A8E149F0481F0C7018F73992758
:10263000892B79F781E00E94CC048111EACF81E0F7
:102640000E94CC048823B1F3E4CF81E00E944D02C4
:1026500081E00E943A0281E00E94CC048823D9F3F1
:102660006FEF81E00E9431048093BA066FEF81E042
:102670000E9431048093BB0681E00E944D0281E0FC
:102680000E94CC048130D9F38091F0089091F10838
:10269000A091F208B091F30821E031E03A83298358
:1026A0002CE030E03C832B8328E83EE03E832D8302
:1026B00020EA30E038872F839A878987BC87AB87E9
:1026C00084E090E09E878D87188A1F861A8A198A6F
:1026D00069E673E0CE0143960E9484064C01801A9D
:1026E000910A81E00E943A02682D81E00E94660210
:1026F000692D81E00E9466028114910401F1580164
:10270000E12CF12C0CC0F50161915F0181E00E9488
:102710006602FFEFEF1AFF0A8E149F0481F0C701D3
:102720008F739927892B79F781E00E94CC0481115E
:10273000EACF81E00E94CC048823B1F3E4CF81E0AA
:102740000E944D0281E00E943A0281E00E94CC0486
:102750008823D9F36FEF81E00E9431048093BA0699
:102760006FEF81E00E9431048093BB0681E00E94FC
:102770004D0281E00E94CC048130D9F380E093E0E7
:102780009A83898385E090E09C838B8381E00E941B
:102790003A0264E081E00E94660260E081E00E940B
:1027A00066025801EE24E394F12C0FC0F50160811C
:1027B00081E00E946602F4E0EF16F104A9F02FEF29
:1027C000E21AF20A3FEFA31AB30A81E0E816F10415
:1027D00069F781E00E94CC048823D9F3F501608178
:1027E00081E00E946602EBCF81E00E944D0281E011
:1027F0000E943A0281E00E94CC048823D9F36FEF53
:1028000081E00E9431048093BA066FEF81E00E945C
:1028100031048093BB0681E00E944D0281E00E945A
:10282000CC048130D9F38091EA0881110C94E71D22
:1028300089E890E027E83FED42E551E05A8349837B
:102840003C832B839E838D8381E00E943A0266E065
:1028500081E00E94660260E081E00E946602580109
:10286000EE24E394F12C0FC0F501608181E00E9419
:102870006602F6E0EF16F104A9F02FEFE21AF20A71
:102880003FEFA31AB30A81E0E816F10469F781E08B
:102890000E94CC048823D9F3F501608181E00E9475
:1028A0006602EBCF81E00E944D0281E00E943A0275
:1028B00081E00E94CC048823D9F36FEF81E00E946D
:1028C00031048093BA066FEF81E00E943104809357
:1028D000BB0681E00E944D0281E00E94CC04813061
:1028E000D9F380E591E09A83898380E79CE09C831B
:1028F0008B8388EB93E09E838D8388EF94E09887A9
:102900008F8388E792E09A87898781E00E943A0264
:102910006AE081E00E94660260E081E00E94660257
:102920005801EE24E394F12C0FC0F501608181E0A1
:102930000E946602FAE0EF16F104A9F02FEFE21A06
:10294000F20A3FEFA31AB30A81E0E816F10469F72F
:1029500081E00E94CC048823D9F3F501608181E0F5
:102960000E946602EBCF81E00E944D0281E00E944E
:102970003A0281E00E94CC048823D9F36FEF81E012
:102980000E9431048093BA066FEF81E00E94310407
:102990008093BB0681E00E944D0281E00E94CC043E
:1029A0008130D9F38091F0089091F108A091F2085C
:1029B000B091F30821E031E03A8329832DE030E043
:1029C0003C832B8320E83CE03E832D8320EC33E0E6
:1029D00038872F839A878987BC87AB8784E090E00C
:1029E0009E878D87188A1F861A8A198A6CE473E07D
:1029F000CE0143960E9484064C01801A910A81E020
:102A00000E943A02682D81E00E946602692D81E0F1
:102A10000E9466028114910401F15801E12CF12C0D
:102A20000CC0F50161915F0181E00E946602FFEF39
:102A3000EF1AFF0A8E149F0481F0C7018F73992744
:102A4000892B79F781E00E94CC048111EACF81E0E3
:102A50000E94CC048823B1F3E4CF81E00E944D02B0
:102A600081E00E943A0281E00E94CC048823D9F3DD
:102A70006FEF81E00E9431048093BA066FEF81E02E
:102A80000E9431048093BB0681E00E944D0281E0E8
:102A90000E94CC048130D9F380E093E09A8389834B
:102AA00083E090E09C838B8381E00E943A0264E0A3
:102AB00081E00E94660260E081E00E9466025801A7
:102AC000EE24E394F12C0FC0F501608181E00E94B7
:102AD0006602F4E0EF16F104A9F02FEFE21AF20A11
:102AE0003FEFA31AB30A81E0E816F10469F781E029
:102AF0000E94CC048823D9F3F501608181E00E9413
:102B00006602EBCF81E00E944D0281E00E943A0212
:102B100081E00E94CC048823D9F36FEF81E00E940A
:102B200031048093BA066FEF81E00E9431048093F4
:102B3000BB0681E00E944D0281E00E94CC048130FE
:102B4000D9F38091E80881110C94E11D8FEF90E09A
:102B50002FEF3FEF42E551E05A8349833C832B83BB
:102B60009E838D8381E00E943A0266E081E00E94AC
:102B7000660260E081E00E9466025801EE24E39460
:102B8000F12C0FC0F501608181E00E946602F6E041
:102B9000EF16F104A9F02FEFE21AF20A3FEFA31AA1
:102BA000B30A81E0E816F10469F781E00E94CC04E1
:102BB0008823D9F3F501608181E00E946602EBCFA2
:102BC00081E00E944D0281E00E943A0281E00E9471
:102BD000CC048823D9F36FEF81E00E943104809305
:102BE000BA066FEF81E00E9431048093BB0681E05A
:102BF0000E944D0281E00E94CC048130D9F380E52F
:102C000091E09A83898380E797E09C838B8388E3B4
:102C100091E09E838D8388EF94E098878F8388E787
:102C200092E09A87898781E00E943A026AE081E017
:102C30000E94660260E081E00E9466025801EE2474
:102C4000E394F12C0FC0F501608181E00E946602DF
:102C5000FAE0EF16F104A9F02FEFE21AF20A3FEFC3
:102C6000A31AB30A81E0E816F10469F781E00E9433
:102C7000CC048823D9F3F501608181E00E946602CB
:102C8000EBCF81E00E944D0281E00E943A0281E098
:102C90000E94CC048823D9F36FEF81E00E943104B5
:102CA0008093BA066FEF81E00E9431048093BB06E7
:102CB00081E00E944D0281E00E94CC048130D9F372
:102CC000E091D608F091D708EE0FFF1FEE0FFF1F1F
:102CD0008091D8089091D908E80FF91FEE0FFF1FD7
:102CE000EA58F74F81818F9380818F938CE693E030
:102CF0009F938F93DF92CF920E94BC3E8091F00809
:102D00009091F108A091F208B091F30821E031E030
:102D10003A8329832FE030E03C832B8320EC37E09B
:102D20003E832D8320E431E038872F839A8789877B
:102D3000BC87AB8785E090E09E878D87188A1F86C9
:102D40001A8A198AB601CE0143960E9484064C0164
:102D5000801A910A81E00E943A02682D81E00E9467
:102D60006602692D81E00E9466020F900F900F901D
:102D70000F900F900F908114910401F15801E12CF4
:102D8000F12C0CC0F50161915F0181E00E946602A7
:102D9000FFEFEF1AFF0A8E149F0481F0C7018F73B3
:102DA0009927892B79F781E00E94CC048111EACF21
:102DB00081E00E94CC048823B1F3E4CF81E00E943B
:102DC0004D0281E00E943A0281E00E94CC048823F7
:102DD000D9F36FEF81E00E9431048093BA066FEF60
:102DE00081E00E9431048093BB0681E00E944D0285
:102DF00081E00E94CC048130D9F38091F008909159
:102E0000F108A091F208B091F30821E031E03A8393
:102E100029832CE030E03C832B8320EC38E03E8398
:102E20002D8320E831E038872F839A878987BC87F4
:102E3000AB8784E090E09E878D87188A1F861A8A68
:102E4000198A66E573E0CE0143960E9484064C0120
:102E5000801A910A81E00E943A02682D81E00E9466
:102E60006602692D81E00E9466028114910401F1DD
:102E70005801E12CF12C0CC0F50161915F0181E05A
:102E80000E946602FFEFEF1AFF0A8E149F0481F082
:102E9000C7018F739927892B79F781E00E94CC04B1
:102EA0008111EACF81E00E94CC048823B1F3E4CF02
:102EB00081E00E944D0281E00E943A0281E00E947E
:102EC000CC048823D9F36FEF81E00E943104809312
:102ED000BA066FEF81E00E9431048093BB0681E067
:102EE0000E944D0281E00E94CC048130D9F380E041
:102EF00093E09A83898388E090E09C838B8381E0D0
:102F00000E943A0264E081E00E94660260E081E093
:102F10000E9466025801EE24E394F12C0FC0F501E3
:102F2000608181E00E946602F4E0EF16F104A9F0EE
:102F30002FEFE21AF20A3FEFA31AB30A81E0E81674
:102F4000F10469F781E00E94CC048823D9F3F501EC
:102F5000608181E00E946602EBCF81E00E944D0219
:102F600081E00E943A0281E00E94CC048823D9F3D8
:102F70006FEF81E00E9431048093BA066FEF81E029
:102F80000E9431048093BB0681E00E944D0281E0E3
:102F90000E94CC048130D9F38091ED0881110CC6D8
:102FA0008FEF90E02FEF3FEF42E551E05A834983E6
:102FB0003C832B839E838D8381E00E943A0266E0EE
:102FC00081E00E94660260E081E00E946602580192
:102FD000EE24E394F12C0FC0F501608181E00E94A2
:102FE0006602F6E0EF16F104A9F02FEFE21AF20AFA
:102FF0003FEFA31AB30A81E0E816F10469F781E014
:103000000E94CC048823D9F3F501608181E00E94FD
:103010006602EBCF81E00E944D0281E00E943A02FD
:1030200081E00E94CC048823D9F36FEF81E00E94F5
:1030300031048093BA066FEF81E00E9431048093DF
:10304000BB0681E00E944D0281E00E94CC048130E9
:10305000D9F380E591E09A83898380E797E09C83A8
:103060008B8388EB93E09E838D8388EF94E0988731
:103070008F8388E792E09A87898781E00E943A02ED
:103080006AE081E00E94660260E081E00E946602E0
:103090005801EE24E394F12C0FC0F501608181E02A
:1030A0000E946602FAE0EF16F104A9F02FEFE21A8F
:1030B000F20A3FEFA31AB30A81E0E816F10469F7B8
:1030C00081E00E94CC048823D9F3F501608181E07E
:1030D0000E946602EBCF81E00E944D0281E00E94D7
:1030E0003A0281E00E94CC048823D9F36FEF81E09B
:1030F0000E9431048093BA066FEF81E00E94310490
:103100008093BB0681E00E944D0281E00E94CC04C6
:103110008130D9F36091D8087091D908072E000C3E
:10312000880B990B0E94E6399B01AC0160E070E0CE
:1031300080E090E40E94083B9F938F937F936F936E
:103140008CE593E09F938F93DF92CF920E94BC3ED9
:103150008091F0089091F108A091F208B091F308E5
:1031600021E031E03A83298320E130E03C832B8366
:1031700020E837E03E832D8320EC33E038872F832F
:103180009A878987BC87AB8784E090E09E878D878C
:10319000188A1F861A8A198AB601CE0143960E94A0
:1031A00084064C01801A910A81E00E943A02682D3F
:1031B00081E00E946602692D81E00E9466020FB6DE
:1031C000F894DEBF0FBECDBF8114910401F1580108
:1031D000E12CF12C0CC0F50161915F0181E00E94AE
:1031E0006602FFEFEF1AFF0A8E149F0481F0C701F9
:1031F0008F739927892B79F781E00E94CC04811184
:10320000EACF81E00E94CC048823B1F3E4CF81E0CF
:103210000E944D0281E00E943A0281E00E94CC04AB
:103220008823D9F36FEF81E00E9431048093BA06BE
:103230006FEF81E00E9431048093BB0681E00E9421
:103240004D0281E00E94CC048130D9F36091D8080E
:103250007091D908072E000C880B990B0E94E63953
:103260009B01AC0160E070E080E090E40E94083BCC
:103270009B01AC0160911D0270911E0280911F02A2
:10328000909120020E943C399F938F937F936F937C
:1032900083E693E09F938F93DF92CF920E94BC3E90
:1032A0008091F0089091F108A091F208B091F30894
:1032B00021E031E03A8329832BE030E03C832B830B
:1032C00028E839E03E832D8320EB34E038872F83D4
:1032D0009A878987BC87AB8785E090E09E878D873A
:1032E000188A1F861A8A198AB601CE0143960E944F
:1032F00084064C01801A910A81E00E943A02682DEE
:1033000081E00E946602692D81E00E9466020FB68C
:10331000F894DEBF0FBECDBF8114910401F15801B6
:10332000E12CF12C0CC0F50161915F0181E00E945C
:103330006602FFEFEF1AFF0A8E149F0481F0C701A7
:103340008F739927892B79F781E00E94CC04811132
:10335000EACF81E00E94CC048823B1F3E4CF81E07E
:103360000E944D0281E00E943A0281E00E94CC045A
:103370008823D9F36FEF81E00E9431048093BA066D
:103380006FEF81E00E9431048093BB0681E00E94D0
:103390004D0281E00E94CC048130D9F38091F00885
:1033A0009091F108A091F208B091F30821E031E08A
:1033B0003A8329832AE030E03C832B8328E839E0F4
:1033C0003E832D8320E734E038872F839A878987CF
:1033D000BC87AB8783E090E09E878D87188A1F8625
:1033E0001A8A198A68E673E0CE0143960E94840621
:1033F0004C01801A910A81E00E943A02682D81E016
:103400000E946602692D81E00E9466028114910487
:1034100001F15801E12CF12C0CC0F50161915F0123
:1034200081E00E946602FFEFEF1AFF0A8E149F04EC
:1034300081F0C7018F739927892B79F781E00E946A
:10344000CC048111EACF81E00E94CC048823B1F33F
:10345000E4CF81E00E944D0281E00E943A0281E0C7
:103460000E94CC048823D9F36FEF81E00E943104DD
:103470008093BA066FEF81E00E9431048093BB060F
:1034800081E00E944D0281E00E94CC048130D9F39A
:1034900080E093E09A83898389E090E09C838B832A
:1034A00081E00E943A0264E081E00E94660260E0EE
:1034B00081E00E9466025801EE24E394F12C0FC0D3
:1034C000F501608181E00E946602F4E0EF16F104EC
:1034D000A9F02FEFE21AF20A3FEFA31AB30A81E034
:1034E000E816F10469F781E00E94CC048823D9F33F
:1034F000F501608181E00E946602EBCF81E00E94CD
:103500004D0281E00E943A0281E00E94CC048823AF
:10351000D9F36FEF81E00E9431048093BA066FEF18
:1035200081E00E9431048093BB0681E00E944D023D
:1035300081E00E94CC048130D9F38091EE088111A2
:1035400036C38FEF90E02FEF3FEF42E551E05A8313
:1035500049833C832B839E838D8381E00E943A02C2
:1035600066E081E00E94660260E081E00E946602FF
:103570005801EE24E394F12C0FC0F501608181E045
:103580000E946602F6E0EF16F104A9F02FEFE21AAE
:10359000F20A3FEFA31AB30A81E0E816F10469F7D3
:1035A00081E00E94CC048823D9F3F501608181E099
:1035B0000E946602EBCF81E00E944D0281E00E94F2
:1035C0003A0281E00E94CC048823D9F36FEF81E0B6
:1035D0000E9431048093BA066FEF81E00E943104AB
:1035E0008093BB0681E00E944D0281E00E94CC04E2
:1035F0008130D9F380E591E09A83898380E792E076
:103600009C838B8388E792E09E838D8388EF94E090
:1036100098878F839A87898781E00E943A026AE0BF
:1036200081E00E94660260E081E00E94660258012B
:10363000EE24E394F12C0FC0F501608181E00E943B
:103640006602FAE0EF16F104A9F02FEFE21AF20A8F
:103650003FEFA31AB30A81E0E816F10469F781E0AD
:103660000E94CC048823D9F3F501608181E00E9497
:103670006602EBCF81E00E944D0281E00E943A0297
:1036800081E00E94CC048823D9F36FEF81E00E948F
:1036900031048093BA066FEF81E00E943104809379
:1036A000BB0681E00E944D0281E00E94CC04813083
:1036B000D9F38091D6089091D70801969F938F9364
:1036C0008BE693E09F938F93DF92CF920E94BC3E54
:1036D0008091F0089091F108A091F208B091F30860
:1036E00021E031E03A83298320E130E03C832B83E1
:1036F00020E832E03E832D8338872F839A8789879D
:10370000BC87AB8784E090E09E878D87188A1F86F0
:103710001A8A198AB601CE0143960E9484064C018A
:10372000801A910A81E00E943A02682D81E00E948D
:103730006602692D81E00E9466020F900F900F9043
:103740000F900F900F908114910401F15801E12C1A
:10375000F12C0CC0F50161915F0181E00E946602CD
:10376000FFEFEF1AFF0A8E149F0481F0C7018F73D9
:103770009927892B79F781E00E94CC048111EACF47
:1037800081E00E94CC048823B1F3E4CF81E00E9461
:103790004D0281E00E943A0281E00E94CC0488231D
:1037A000D9F36FEF81E00E9431048093BA066FEF86
:1037B00081E00E9431048093BB0681E00E944D02AB
:1037C00081E00E94CC048130D9F380E093E09A83B9
:1037D000898384E090E09C838B8381E00E943A029D
:1037E00064E081E00E94660260E081E00E9466027F
:1037F0005801EE24E394F12C0FC0F501608181E0C3
:103800000E946602F4E0EF16F104A9F02FEFE21A2D
:10381000F20A3FEFA31AB30A81E0E816F10469F750
:1038200081E00E94CC048823D9F3F501608181E016
:103830000E946602EBCF81E00E944D0281E00E946F
:103840003A0281E00E94CC048823D9F36FEF81E033
:103850000E9431048093BA066FEF81E00E94310428
:103860008093BB0681E00E944D0281E00E94CC045F
:103870008130D9F3E091D608F091D708EE50F84F97
:10388000808181118FC18FEF90E026E636E642E518
:1038900051E05A8349833C832B839E838D8381E04F
:1038A0000E943A0266E081E00E94660260E081E0E8
:1038B0000E9466025801EE24E394F12C0FC0F5013A
:1038C000608181E00E946602F6E0EF16F104A9F043
:1038D0002FEFE21AF20A3FEFA31AB30A81E0E816CB
:1038E000F10469F781E00E94CC048823D9F3F50143
:1038F000608181E00E946602EBCF81E00E944D0270
:1039000081E00E943A0281E00E94CC048823D9F32E
:103910006FEF81E00E9431048093BA066FEF81E07F
:103920000E9431048093BB0681E00E944D0281E039
:103930000E94CC048130D9F380E591E09A83898399
:1039400080E792E09C838B8388E797E09E838D835A
:1039500088EF94E098878F839A87898781E00E9417
:103960003A026AE081E00E94660260E081E00E9423
:1039700066025801EE24E394F12C0FC0F50160813A
:1039800081E00E946602FAE0EF16F104A9F02FEF41
:10399000E21AF20A3FEFA31AB30A81E0E816F10433
:1039A00069F781E00E94CC048823D9F3F501608196
:1039B00081E00E946602EBCF81E00E944D0281E02F
:1039C0000E943A0281E00E94CC048823D9F36FEF71
:1039D00081E00E9431048093BA066FEF81E00E947B
:1039E00031048093BB0681E00E944D0281E00E9479
:1039F000CC048130D9F3E091D608F091D708EE508D
:103A0000F84F80818111FBC066E373E0C6010E941C
:103A1000BB3D8091F0089091F108A091F208B0911F
:103A2000F30821E031E03A8329832FE030E03C8342
:103A30002B8320E832E03E832D8320E837E038876F
:103A40002F839A878987BC87AB8784E090E09E8725
:103A50008D87188A1F861A8A198AB601CE01439665
:103A60000E9484066C01C01AD10A81E00E943A02C9
:103A70006C2D81E00E9466026D2D81E00E9466023D
:103A8000C114D104F9F0E12CF12C0CC0F8016191C2
:103A90008F0181E00E946602FFEFEF1AFF0ACE1449
:103AA000DF0481F097012F733327232B79F781E00F
:103AB0000E94CC048111EACF81E00E94CC048823CB
:103AC000B1F3E4CF81E00E944D0281E00E943A020E
:103AD00081E00E94CC048823D9F36FEF81E00E943B
:103AE00031048093BA066FEF81E00E943104809325
:103AF000BB0681E00E944D0281E00E94CC0481302F
:103B0000D9F381E00E943A0262E081E00E946602FD
:103B100060E081E00E94660281E00E94CC0488237C
:103B2000D9F361E881E00E94660261E081E00E94D1
:103B3000660281E00E944D0281E00E943A0281E02B
:103B40000E94CC048823D9F36FEF81E00E943104F6
:103B50008093BA066FEF81E00E9431048093BB0628
:103B600081E00E944D0281E00E94CC048130D9F3B3
:103B7000C25BDE4F0FB6F894DEBF0FBECDBFDF9144
:103B8000CF911F910F91FF90EF90DF90CF90BF905A
:103B9000AF909F908F907F906F905F904F903F90ED
:103BA0002F90089589E890E027E83FED70CE8DEAE8
:103BB00090E026EE38EDC9CC8DEA90E026EE38EDA7
:103BC000F3C98DEA90E026EE38ED0C94AA158DEA43
:103BD00090E026EE38ED0C941C148DEA90E026EE71
:103BE00038ED0C94111189E890E027E83FED0C9432
:103BF000610F8DEA90E026EE38ED0C94250D63E31D
:103C000073E004CF0F931F93CF93DF9381E00E9463
:103C10003A0262E081E00E94660260E081E00E9478
:103C2000660281E00E94CC048823D9F362E081E03F
:103C30000E94660263E081E00E94660281E00E94C9
:103C40004D0281E00E943A020AEB16E0C1E0D0E0AA
:103C50000CC06FEF81E00E943104F8018083CA300C
:103C6000D10591F021960F5F1F4FC130D10589F723
:103C700081E00E94CC048823D9F36FEF81E00E9499
:103C80003104F8018083EECF81E00E944D0281E093
:103C90000E94CC048130D9F38091BD0690E0982F2A
:103CA00088272091BC06822B9093E4088093E30838
:103CB0008091BF0690E0982F88272091BE06822B26
:103CC0009093E2088093E1088091C10690E0982FDC
:103CD00088272091C006822B9093E0088093DF080C
:103CE0002091C30630E0322F22274091C206242BB8
:103CF0003093DC082093DB088130910559F0109255
:103D0000DA089093DE088093DD08DF91CF911F9150
:103D10000F9108952091DD083091DE08232B79F76B
:103D20002091DA082111EBCF21E02093DA08E9CFC6
:103D30002091DF083091E0082130310519F0FC01B5
:103D4000108208952091DD083091DE08232BB9F709
:103D5000FC0120812111F3CF21E0208308951498E4
:103D600028E130E088EF90E0A0E0B0E009C0169ACA
:103D7000159AB695A795979587952150310929F001
:103D8000159880FDF4CF1698F3CF149A2FEF81EE9B
:103D900094E0215080409040E1F700C00000089579
:103DA000CF93DF93989AA09AE1E0F1E080818B7F36
:103DB0008083E2E0F1E080818B7F8083999AA198F3
:103DC0009B9AA398579A5F9A8FEF81B980EF80935F
:103DD00004018FE087B981E982B918B80E94780898
:103DE0000E94BF062FEF41EE54E02150404050406A
:103DF000E1F700C000000E94AF1EE091D608F091EC
:103E0000D70828B1C3E0D0E0CF01BE010E948B38B3
:103E1000AF01481B590BCA01BE010E948B3881E0DB
:103E200090E001C0880F6A95EAF780952F602823FB
:103E300028B95FEF89E698E1515080409040E1F762
:103E400000C00000DF91CF910895CF93DF93FC0174
:103E5000C3E0D0E0BE010E948B389C0148B1CF0185
:103E6000821B930BBE010E948B3881E090E001C061
:103E7000880F6A95EAF780954F60482348B9822FEA
:103E8000880F8F5F90E0982F88278766906314983B
:103E900020E130E007C01698159A880F991F21502D
:103EA000310951F0159897FFF6CF169A159A880F99
:103EB000991F21503109B1F7169888E090E01598C4
:103EC000159A0197E1F7149ADF91CF9108950F9316
:103ED0001F93CF93DF93E091D608F091D70803E0CA
:103EE00010E0CF01B8010E948B38EC0128B1CF015E
:103EF0008C1B9D0BB8010E948B3841E050E001C043
:103F0000440F6A95EAF740952F60242328B9E09181
:103F1000D608F091D708EE0FFF1FE250F84F20812E
:103F200031813063CC0FC9019C2B149820E130E023
:103F300007C01698159A880F991F2150310951F022
:103F4000159897FFF6CF169A159A880F991F21504A
:103F50003109B1F7169888E090E01598159A019705
:103F6000E1F7149ADF91CF911F910F9108952F924D
:103F70003F924F925F926F927F928F929F92AF92F9
:103F8000BF92CF92DF92EF92FF920F931F93CF9346
:103F9000DF9393B103B180913002882309F459C0B3
:103FA000E5EEF8E0C0E0D0E08191811104C02196F7
:103FB000CA30D105C9F796FB112710F98091CF09B6
:103FC00081115AC08091CE0905FB002700F98111AB
:103FD000C1C08091CD09882389F08091BF098730C5
:103FE00008F00AC18F5F8093BF09873009F404C1CC
:103FF000002321F01092CD091092BF098091CC09C5
:10400000882389F08091BE09873008F047C18F5F0F
:104010008093BE09873009F441C1112321F0109229
:10402000CC091092BE098091CA099091D0098917D4
:1040300041F02091C8093091C909C217D30709F48A
:104040008DC11092CA091092D009D093C909C093AA
:10405000C809DF91CF911F910F91FF90EF90DF90F2
:10406000CF90BF90AF909F908F907F906F905F9018
:104070004F903F902F9008958091CE098823C1F0F2
:10408000C130D1050CF45BC1C430D10524F02897B0
:10409000229708F054C11092CD091092BF091092D6
:1040A000CC091092BE091092CF091092CE09D1CF3F
:1040B0008091CD0981113BC191E09093CC09111100
:1040C0003BC1C330D10509F495C20CF403C6C83016
:1040D000D10509F489C6C930D105C1F55F988FE1D2
:1040E0009EE40197F1F700C00000E090D608F09040
:1040F000D70891E0E91AF108B7010F2C000C880BE2
:10410000990B0E94E6394B015C01C0902902D090C6
:104110002A02B6010D2C000C880B990B0E94E6397F
:104120009B01AC01C501B4010E94963A18160CF42B
:10413000A8C620E030E0A901C501B4010E943739CA
:1041400087FF6701D092D708C092D6085F9A809106
:10415000CE09F2C09091CC09911197C091E0909353
:10416000CD09011198C0C330D10509F4A7C20CF4E0
:1041700066C5C830D10509F4FEC5C930D105C1F501
:104180005F988FE19EE40197F1F700C00000E09096
:10419000D608F090D7089FEFE91AF90AB7010F2C5B
:1041A000000C880B990B0E94E6394B015C01C09012
:1041B0002902D0902A02B6010D2C000C880B990B15
:1041C0000E94E6399B01AC01C501B4010E94963AF8
:1041D00018160CF45CC620E030E0A901C501B4015A
:1041E0000E94373987FF6701D092D708C092D6085E
:1041F0005F9A8091CD094FC0C330D10509F465C3E2
:104200000CF4C0C2C830D10509F482C1C930D1054F
:10421000C1F55F988FE19EE40197F1F700C00000BF
:10422000E090D608F090D70892E0E90EF11CB701B3
:104230000F2C000C880B990B0E94E6394B015C0196
:10424000C0902902D0902A02B6010D2C000C880BD8
:10425000990B0E94E6399B01AC01C501B4010E9493
:10426000963A18160CF484C520E030E0A901C50187
:10427000B4010E94373987FF6701D092D708C092F6
:10428000D6085F9A1092BF09B3CE1092CC09109253
:10429000BE098091CD091092CE099DCEC330D105C3
:1042A00009F477C30CF4B9C2C830D10509F469C167
:1042B000C930D105C1F55F988FE19EE40197F1F710
:1042C00000C00000E090D608F090D70892E0E91A0C
:1042D000F108B7010F2C000C880B990B0E94E639EE
:1042E0004B015C01C0902902D0902A02B6010D2C2E
:1042F000000C880B990B0E94E6399B01AC01C501AB
:10430000B4010E94963A18160CF42FC520E030E054
:10431000A901C501B4010E94373987FF6701D09216
:10432000D708C092D6085F9A1092BE0976CE109236
:10433000CD091092BF0980E01092CF0945CE84E0EC
:104340008093C0095F982FEF3DEE82E0215030400E
:104350008040E1F700C000005F9A9DCE192F181B26
:10436000C330D10509F4DEC30CF463C0C830D105F5
:1043700009F484C3C930D10509F053C087E6180297
:10438000812D11248595859517FD8395182F811111
:1043900091C56091D6087091D708072E000C880B44
:1043A000990B0E94E6396B017C01612F012E000CF4
:1043B000770B880B990B0E94E63920E030E048E447
:1043C00053E40E943C399B01AC01C701B6010E9435
:1043D000CB384B015C01E0902902F0902A02B70132
:1043E0000F2C000C880B990B0E94E6399B01AC0145
:1043F000C501B4010E94963A18160CF433C520E0AA
:1044000030E0A901C501B4010E94373987FD05C01C
:10441000C501B4010E94AE397B01F092D708E09249
:10442000D608112321F01092CA091092D0095F9A80
:104430000CCEC130D105A9F787E61802812D1124D1
:104440008595859517FD8395182F81113BC5E090C3
:10445000D608F090D708EE0CFF1CF701E250F84F99
:1044600060817181072E000C880B990B0E94E63940
:104470004B015C01612F012E000C770B880B990B0F
:104480000E94E63920E030E048E453E40E943C39E1
:104490009B01AC01C501B4010E94CB38B62EC72EDA
:1044A000D82E092F6091210270912202072E000C54
:1044B000880B990B0E94E639762E872E982EA92E0E
:1044C000262F372F482F592F6B2D7C2D8D2D902F78
:1044D0000E94963A18161CF4B72C64010A2D20E0AD
:1044E00030E0A9016B2D7C2D8D2D902F0E94373946
:1044F00087FDF0C46B2D7C2D8D2D902F0E94AE3941
:10450000F701E250F84F718360830E94671F89CFE3
:104510005F98EFE1FEE43197F1F700C00000E09012
:10452000D808F090D908FFEFEF1AFF0AB7010F2C57
:10453000000C880B990B0E94E6394B015C01C0907E
:104540002702D0902802B6010D2C000C880B990B85
:104550000E94E6399B01AC01C501B4010E94963A64
:1045600018160CF479C420E030E0A901C501B401AB
:104570000E94373987FF6701D092D908C092D808C6
:1045800080CE5F98EFE1FEE43197F1F700C00000C4
:10459000E090D808F090D908F1E0EF1AF108B701DF
:1045A0000F2C000C880B990B0E94E6394B015C0123
:1045B000C0902702D0902802B6010D2C000C880B69
:1045C000990B0E94E6399B01AC01C501B4010E9420
:1045D000963A18160CF443C420E030E0A901C50156
:1045E000B4010E94373987FF6701D092D908C09281
:1045F000D80899CE5F988FE19EE40197F1F700C04B
:1046000000008090D6089090D708E090D808F090ED
:10461000D908880C991C880C991CF401EE0DFF1D1B
:10462000EE0FFF1FEA58F74F6081718161507109E9
:10463000072E000C880B990B0E94E6393B015C01A8
:10464000C0902502D0902602B6010D2C000C880BDC
:10465000990B0E94E6391B012C019B01AC01B301AF
:10466000C5010E94963A181614F4310152016627CA
:1046700077276C197D09072E000C880B990B0E9477
:10468000E6392B016C019B01AC01B301C5010E940D
:10469000373987FF02C032015601E80CF91CC70107
:1046A000880F991FFC01EA58F74F7F01B301C5013C
:1046B0000E94AE39F7017183608348CD5F98EFE1C6
:1046C000FEE43197F1F700C000008090D60890908A
:1046D000D708E090D808F090D908880C991C880C6D
:1046E000991CF401EE0DFF1DEE0FFF1FEA58F74F66
:1046F000608171816F5F7F4F072E000C880B990BD3
:104700000E94E6393B015C01C0902502D090260250
:10471000B6010D2C000C880B990B0E94E6391B0189
:104720002C019B01AC01B301C5010E94963A1816F9
:1047300014F431015201662777276C197D09072E81
:10474000000C880B990B0E94E6392B016C019B0130
:10475000AC01B301C5010E94373987FF02C03201A5
:104760005601E80CF91CC701880F991F9C012A58B3
:10477000374F7901B301C5010E94AE39F70171834A
:10478000608336CDC130D10509F07BCD5F988FE1D4
:104790009EE40197F1F700C00000E090D608F09089
:1047A000D708EE0CFF1CF701E250F84F60817181D1
:1047B0006C5E7F4F072E000C880B990B0E94E63928
:1047C0005B016C016091210270912202072E000CA6
:1047D000880B990B0E94E6393B014C019B01AC010F
:1047E000B501C6010E94963A181614F453016401EB
:1047F00020E030E0A901B501C6010E94373987FDEC
:1048000037C3B501C6010E94AE39F701E250F84F37
:10481000718360830E94671F34CDC130D10509F0D8
:1048200082CD5F988FE19EE40197F1F700C0000010
:10483000E090D608F090D708EE0CFF1CF701E2508C
:10484000F84F6081718164517109072E000C880B4B
:10485000990B0E94E639B62EC72ED82E092F6091EB
:10486000210270912202072E000C880B990B0E94E6
:10487000E639762E872E982EA92E262F372F482FF1
:10488000592F6B2D7C2D8D2D902F0E94963A181646
:104890001CF4B72C64010A2D20E030E0A9016B2D37
:1048A0007C2D8D2D902F0E94373987FDE4C26B2D12
:1048B0007C2D8D2D902F0E94AE39F701E250F84FDC
:1048C000718360830E94671F2ECD5F98EFE1FEE445
:1048D0003197F1F700C000008090D6089090D7087B
:1048E000E090D808F090D908880C991C880C991C85
:1048F000F401EE0DFF1DEE0FFF1FEA58F74F608128
:104900007181665F7F4F072E000C880B990B0E9408
:10491000E6393B015C01C0902502D0902602B60129
:104920000D2C000C880B990B0E94E6391B012C0101
:104930009B01AC01B301C5010E94963A181614F40C
:1049400031015201662777276C197D09072E000C6B
:10495000880B990B0E94E6392B016C019B01AC017D
:10496000B301C5010E94373987FF02C032015601E9
:10497000E80CF91CC701880F991F9C012A58374F72
:104980007901B301C5010E94AE39F70171836083DB
:1049900078CC5F98EFE1FEE43197F1F700C00000BA
:1049A0008090D6089090D708E090D808F090D90869
:1049B000880C991C880C991CF401EE0DFF1DEE0F5C
:1049C000FF1FEA58F74F608171816A507109072E05
:1049D000000C880B990B0E94E639762EA72EB82E74
:1049E000092FC0902502D0902602B6010D2C000C94
:1049F000880B990B0E94E639362E472E582E692EC9
:104A0000262F372F482F592F672D7A2D8B2D902F3A
:104A10000E94963A18161CF4732C5201062D662734
:104A200077276C197D09072E000C880B990B0E94C3
:104A3000E639562E672E6C01262F372FAC01672DD5
:104A40007A2D8B2D902F0E94373987FF04C0752C4B
:104A5000A62CBC2C0D2DE80CF91CC701880F991F42
:104A60009C012A58374F7901672D7A2D8B2D902F75
:104A70000E94AE39F7017183608355CC87E6180236
:104A8000812D11248595859517FD8395182F81110A
:104A900009C26091D8087091D908072E000C880BC4
:104AA000990B0E94E6396B017C01612F012E000CED
:104AB000770B880B990B0E94E63920E030E048E440
:104AC00053E40E943C399B01AC01C701B6010E942E
:104AD000CB384B015C01E0902702F0902802B7012F
:104AE0000F2C000C880B990B0E94E6399B01AC013E
:104AF000C501B4010E94963A18160CF4B6C120E024
:104B000030E0A901C501B4010E94373987FD05C015
:104B1000C501B4010E94AE397B01F092D908E09240
:104B2000D8087FCC87E61802812D112485958595BC
:104B300017FD8395182F8111ADC18090D6089090F4
:104B4000D708E090D808F090D908880C991C880CF8
:104B5000991CF401EE0DFF1DEE0FFF1FEA58F74FF1
:104B600060817181072E000C880B990B0E94E63939
:104B70002B013C01612F012E000C770B880B990B48
:104B80000E94E63920E030E048E453E40E943C39DA
:104B90009B01AC01C301B2010E94CB38762EA72E37
:104BA000B82E092FC0902502D0902602B6010D2CF8
:104BB000000C880B990B0E94E639362E472E582E92
:104BC000692E262F372F482F592F672D7A2D8B2DA1
:104BD000902F0E94963A18161CF4732C5201062D41
:104BE000662777276C197D09072E000C880B990B17
:104BF0000E94E639562E672E6C01262F372FAC0106
:104C0000672D7A2D8B2D902F0E94373987FF04C096
:104C1000752CA62CBC2C0D2DE80CF91CC701880F97
:104C2000991F9C012A58374F7901672D7A2D8B2DBA
:104C3000902F0E94AE39F70171836083F2CBC130AF
:104C4000D10509F0D5CA5F988FE19EE40197F1F78D
:104C500000C00000E090D608F090D708EE0CFF1CD2
:104C6000F701E250F84F608171816F5F7F4F072E2F
:104C7000000C880B990B0E94E6395B016C01609176
:104C8000210270912202072E000C880B990B0E94C2
:104C9000E6393B014C019B01AC01B501C6010E9404
:104CA000963A181614F45301640120E030E0A9018B
:104CB000B501C6010E94373987FD12C1B501C60191
:104CC0000E94AE39F701E250F84F718360830E9471
:104CD000671F8ECAC130D10509F038CA5F98EFE16D
:104CE000FEE43197F1F700C00000E090D608F090A4
:104CF000D708EE0CFF1CF701E250F84F608171817C
:104D000061507109072E000C880B990B0E94E6393F
:104D10005B016C016091210270912202072E000C50
:104D2000880B990B0E94E6393B014C019B01AC01B9
:104D3000B501C6010E94963A181614F45301640195
:104D400020E030E0A901B501C6010E94373987FD96
:104D5000C4C0B501C6010E94AE39F701E250F84F58
:104D6000718360830E94671FF1C9C12CD12CD7CAFF
:104D7000C12CD12C82CA5F98EFE1FEE43197F1F7A4
:104D800000C00000E090D808F090D908FFEFEF1ABB
:104D9000FF0AB7010F2C000C880B990B0E94E63913
:104DA0004B015C01C0902702D0902802B6010D2C67
:104DB000000C880B990B0E94E6399B01AC01C501E0
:104DC000B4010E94963A18160CF45EC020E030E060
:104DD000A901C501B4010E94373987FF6701D0924C
:104DE000D908C092D80804CA5F98EFE1FEE4319771
:104DF000F1F700C00000E090D808F090D908F1E089
:104E0000EF1AF108B7010F2C000C880B990B0E94C8
:104E1000E6394B015C01C0902702D0902802B60110
:104E20000D2C000C880B990B0E94E6399B01AC01FC
:104E3000C501B4010E94963A181604F120E030E052
:104E4000A901C501B4010E94373987FF6701D092DB
:104E5000D908C092D8087AC9C12CD12C8DCBC12CCD
:104E6000D12CC3CBE12CF12CD8CAE12CF12C55CE9E
:104E700060E070E0CACC60E070E01FCDC12CD12CA6
:104E8000E6CFC12CD12C5EC9C12CD12CA8CFC12C0E
:104E9000D12CAAC95F98EFE9FFE03197F1F700C084
:104EA00000004BCE5F98EFE9FFE03197F1F700C0CB
:104EB0000000EFCD5F988FE99FE00197F1F700C008
:104EC000000067CA5F988FE99FE00197F1F700C083
:104ED0000000BDCA60E070E013CB60E070E03DCF41
:104EE00060E070E0EFCECF93DF93FC0128B1C3E028
:104EF000D0E0BE010E948B38AF01481B590BCA019C
:104F0000BE010E948B3881E090E001C0880F6A9555
:104F1000EAF780952F60282328B9DF91CF91089573
:104F2000CF92DF92EF92FF920F931F93CF93DF9375
:104F3000FC01362F7A011098109A53E0C52ED12C1F
:104F4000B6010E948B382BEFAC0124038001259F12
:104F5000100D1124E81BF90BC8B1CF01B6010E9456
:104F60008B3881E090E001C0880F6A95EAF7809560
:104F7000CF60C823C8B9C8010E9602C0EE0CFF1C52
:104F80008A95E2F7232F30E0035F1F4F02C0220F04
:104F9000331F0A95E2F72E293F29276C3861EF016C
:104FA000CE50D84F8F010D5F1F4FEE24E394F12CAC
:104FB00089918823C1F0CF01B6010E948B384BEF55
:104FC000BC014603D001479FB00D1124CD010C96C2
:104FD000B70102C0660F771F8A95E2F7CB01809573
:104FE0009095282339233196E017F10709F780E1DE
:104FF00090E006C0139A119A36952795019749F0CB
:10500000119820FDF7CF1398119A3695279501979F
:10501000B9F7129A82B1817F82B9DF91CF911F9146
:105020000F91FF90EF90DF90CF9008958F929F9215
:10503000AF92BF92CF92DF92EF92FF920F931F93A6
:10504000CF93DF93CDB7DEB762970FB6F894DEBF8C
:105050000FBECDBF80E290E09A8B898BBE016F5E60
:105060007F4F84EF98E00E94AE3D9A8389837E0152
:1050700083E0E80EF11C01E010E0BE016F5E7F4F9F
:1050800080E090E00E94AE3DF701819391937F0113
:10509000892B09F4A4C00F5F1F4F0830110569F771
:1050A000E980FA8064ED73E0C7010E94B23D892B6C
:1050B00019F40330110549F16BED73E0C7010E944B
:1050C000B23D892BB1F161EF73E0C7010E94B23D9F
:1050D000892B21F40230110509F4A6C169E675E0B7
:1050E000C7010E94B23D892B21F40130110509F45A
:1050F000C7C160E874E0C7010E94B23D892B09F482
:1051000029C18DE695E00E948C3E5F9A62960FB6AB
:10511000F894DEBF0FBECDBFDF91CF911F910F91ED
:10512000FF90EF90DF90CF90BF90AF909F908F90C7
:1051300008950230110591F68B819C810E94913C6B
:1051400001978C30910508F72091270230912802B1
:1051500037FD65C1880F991F880F991F880F991F08
:105160008C010A58174F60E070E080E89FE3E12C63
:10517000F12C52EEC52E53E0D52EF801208131815D
:105180000E5F1F4F3F932F939F938F937F936F9348
:10519000DF92CF920E94723EFFEFEF1AFF0A0FB626
:1051A000F894DEBF0FBECDBF8091270290912802F8
:1051B0008E159F050CF433C1662777276E197F097A
:1051C000072E000C880B990B0E94E6399B01AC015D
:1051D00060E070E080E090E40E94083BCECFE98080
:1051E000FA806FE673E0C7010E94B23D892BF1F1AE
:1051F00068E973E0C7010E94B23D892B21F40230B7
:10520000110509F4ACC060E773E0C7010E94B23D2C
:10521000892B21F40330110509F4D4C069E973E046
:10522000C7010E94B23D892B09F03CCF0230110525
:1052300009F038CF8B819C810E94913C9C012150C8
:1052400031092C30310508F060CFFC01EF50F84FE8
:1052500080811F928F9388E892E09F938F930E94A2
:10526000723E0F900F900F900F904FCF03301105AB
:1052700009F0BECF5F988FE19EE40197F1F700C07F
:1052800000008B819C810E94913C7C018D819E81DC
:105290000E948D3C4B015C012CE53FE842E850E464
:1052A0000E94963A87FFB2C020E030E0A901C50114
:1052B000B4010E94373987FF03C0812C912C54011F
:1052C0008701015011090C30110508F01ECFC09064
:1052D000D608D090D7081093D7080093D6082FEFA0
:1052E0003FEF49E752E4C501B4010E949B3A0E9496
:1052F000AE39000F111FF801E250F84F718360833F
:10530000072E000C880B990B0E94E6392FE632E13C
:1053100043E850E40E949B3A20E030E040E85BE341
:105320000E949B3A9F938F937F936F93FF92EF928C
:1053300086E793E09F938F930E94723E0E94671FBF
:10534000D092D708C092D6080FB6F894DEBF0FBE31
:10535000CDBFDBCE85E894E00E948C3ED6CE8B811B
:105360009C810E94913C01978C30910508F0CDCE34
:10537000880F991FFC01E250F84F60817181072E60
:10538000000C880B990B0E94E6392FE632E143E8C6
:1053900050E40E949B3A20E030E040E85BE30E944A
:1053A0009B3A9F938F937F936F9380E993E09F93B2
:1053B0008F930E94723E0F900F900F900F900F905E
:1053C0000F90A3CE5F988FE19EE40197F1F700C0A4
:1053D00000008B819C810E94913C7C018D819E818B
:1053E0000E94913C8701015011090C30110508F011
:1053F0008CCE009709F493C0019709F4A1C040E056
:1054000050E061E0C8010E9490277FCEFCE58F2E1E
:10541000FFE89F2EF2E8AF2EF0E4BF2E51CF8AE0D6
:1054200090E00E94863E71CE5F98EFE1FEE43197F6
:10543000F1F700C000008B819C810E94913CDC014F
:10544000BC01615071096C30710508F05ECE40916D
:10545000BC075091BD0714161506ECF5EEEBF7E00E
:10546000440F551F4254584F91E003C0E417F5070D
:1054700079F12191319162177307C1F790E0F6CF6E
:1054800082E592E00E948C3E8DE492E09F938F93A0
:105490008CE494E09F938F930E94723E87E492E0A5
:1054A0009F938F938CE594E09F938F930E94723E1D
:1054B00081E492E09F938F938EE694E09F938F9385
:1054C0000E94723E0FB6F894DEBF0FBECDBF1DCE58
:1054D000992309F447C0809127029091280297FDF3
:1054E00011C0CD01880F991F880F991F880F991F30
:1054F000FC01EA5EF74F15821482FC01EA58F74F6F
:1055000015821482BF93AF9389EF93E09F938F939B
:105510000E94723E0F900F900F900F90F6CDF80101
:10552000EE50F84F1082FF92EF928FE993E09F9335
:105530008F930E94723E0F900F900F900F905FCF4D
:1055400081E0F801EE50F84F8083FF92EF928AEBF2
:1055500093E09F938F930E94723E0F900F900F9055
:105560000F904DCF89E194E09F938F930E94723EFC
:105570000F900F90CACD0E947005882309F44FC088
:105580008D30F1F08A30E1F0E091C609F091C70961
:10559000E436F1055CF0E65AF64F129299E0EA35EE
:1055A000F907D9F710925909E0E0F0E0DF01A75AB6
:1055B000B64F8C933196F093C709E093C609DBCFC1
:1055C0004091C6095091C70914161506A4F6A4EF18
:1055D000B8E0E9E5F9E09A01275A364F80818D93CA
:1055E0001192E217F307D1F78091C4099091C50990
:1055F000481759074CF4FA01EC50F74F8C50974F6D
:105600001192E817F907E1F75093C5094093C409CF
:105610001092C7091092C6090E941628ACCF0895AF
:1056200080911C028111A4C08091BE079091BF0798
:105630002091BA073091BB07FC01EE0FFF1FEE0F60
:10564000FF1FE20FF31FEE0FFF1FEA5EF74F4081CF
:105650005181452B09F43FC0F901EA52F84F2081EE
:105660002111A1C021E030E04091050163E070E02C
:105670000E948B38BC016C5F7F4F81E090E001C0DD
:10568000880F6A95EAF7482B40930501EFE1FEE4A5
:105690003197F1F700C000009091050180958923B2
:1056A00080930501E091BE07F091BF078091BA0792
:1056B0009091BB07EE0FFF1FEE0FFF1FE80FF91FC2
:1056C000EE0FFF1FEA5EF74F80819181280F391F8F
:1056D000318320830895233031050CF45AC0609142
:1056E00027027091280277FD17C0FC01EE0FFF1F03
:1056F000EE0FFF1FEE0FFF1FDF01AA58B74FEA5E44
:10570000F74F20E030E04D915D91419351932F5F31
:105710003F4F62177307BCF7FC01E05FFD4F21E0CC
:1057200020831092BF071092BE071092BB07109201
:10573000BA074091BC075091BD071416150674F4C2
:10574000EEEBF7E09A01220F331F2254384F82818B
:10575000938181939193E217F307C9F7415051095F
:105760005093BD074093BC0781E080931C020895CD
:105770004091BA075091BB07FA01EA52F84F608195
:105780008091BE079091BF070E94902710921C0243
:105790004BCF2F5F3F4F3093BB072093BA0781E079
:1057A00080931C0208952FEF3FEF5ECF8091BC07DE
:1057B0009091BD07892B11F00C94102B08952F9216
:1057C0003F924F925F926F927F928F929F92AF9291
:1057D000BF92CF92DF92EF92FF920F931F93CF93DE
:1057E000DF93C0902702D0902802D7FCCBC0409016
:1057F000D6085090D70812013201660C771C660C4F
:10580000771C660C771CC3018A58974F4C018301A3
:105810000A5E174FE0E0F0E021E030E040E0A12C2C
:10582000B12CD4018D919D914D01D8016D917C9148
:1058300011977C01E61AF70AED92FD928D01880F0F
:10584000991F880F991F880F991FB9010E948B38E3
:10585000EB01CA0DDB1DC770D078D7FDA6C05E0175
:10586000220F331FEF2809F041E03196CE16DF06F4
:10587000C4F6442309F4A0C0209709F45DC061E098
:105880001C161D060CF460E043E050E0C2010E94CB
:105890009027FE01D7FDA7C08091D6089091D70828
:1058A00063E070E00E948B389C012C5F3F4F309783
:1058B00001F181E090E001C0880F2A95EAF7482FB6
:1058C000982F909520E030E080910501842B809303
:1058D0000501AFE1BEE41197F1F700C0000080912F
:1058E00005018923809305012F5F3F4F2E173F0746
:1058F00059F7BFEF20E782E0B15020408040E1F748
:1059000000C000002090D6083090D7083101660C06
:10591000771C660C771C660C771CF301EA5EF74F68
:1059200086819781C80FD91FD783C683C09027026D
:10593000D0902802D7FC12C0F301EA5EF74FA6ED23
:10594000B7E0A6014952584F2191319181E01216DA
:10595000130684F58D93A417B507B1F7F101E05F45
:10596000FD4F10828091BC079091BD07FC01EE0FA6
:10597000FF1FE254F84F3182208201969093BD07B9
:105980008093BC07DF91CF911F910F91FF90EF9013
:10599000DF90CF90BF90AF909F908F907F906F904F
:1059A0005F904F903F902F9008952197C86FDF6FC1
:1059B000219655CF80E0CECFF201EE0FFF1FEE0F04
:1059C000FF1FEE0FFF1FDF01AA58B74FEA5EF74F28
:1059D00080E090E02D913D91219331930196C8167E
:1059E000D906C4F7CFCFEE27FF27EC1BFD0B54CF12
:1059F000E091DB08F091DC083197E930F105D0F453
:105A00008827EE58FF4F8F4F0C949F385F988FE395
:105A10009FE10197F1F700C000009091E80881E054
:105A20008927E5EEF8E0119298E0E03FF907D9F711
:105A30008093E8085F9A08955F988FE39FE101974C
:105A4000F1F700C000009091EE0881E08927E5EEB3
:105A5000F8E0119298E0E03FF907D9F78093EE085B
:105A60005F9A08955F988FE39FE10197F1F700C077
:105A700000009091E60881E08927E5EEF8E01192B8
:105A800098E0E03FF907D9F78093E6085F9A089518
:105A90005F988FE39FE10197F1F700C000009091BC
:105AA000E70881E08927E5EEF8E0119298E0E03F11
:105AB000F907D9F78093E7085F9A08955F988FE315
:105AC0009FE10197F1F700C000002091D6083091C6
:105AD000D708F901EE50F84F808191E09827908324
