:100000000C949D010C94CE010C94C20A0C94C20A6B
:100010000C94040B0C94CE010C94C20A0C94CE01E7
:100020000C94CE010C940E0B0C94CE010C94CE01CA
:100030000C94CE010C94CE010C94CE010C94CE0104
:100040000C94CE010C94CE010C94CE010C94CE01F4
:100050000C94CE010C94CE010C94CE010C94CE01E4
:100060000C94CE010C9433050C94CE010C94CE016B
:100070000C94CE010C94CE010C94CE010C94CE01C4
:100080000C94CE010C94CE010C94CE010C94CE01B4
:100090000C94CE010C94CE010C94CE010C94CE01A4
:1000A0000C94CE010C94CE010C94CE010C94CE0194
:1000B0000C94CE010C94CE010C94CE010C94CE0184
:1000C0000C94CE010C94CE010C94CE010C94CE0174
:1000D0000C94CE010C94CE010C94CE010C94CE0164
:1000E0000C94CE010F07E30625073B07510769076C
:1000F000A507F706DA07F90607634236B79BD8A7C4
:100100001A39685618AEBAAB558C1D3CB7CC57633C
:10011000BD6DEDFD753EF6177231BF000000803FEA
:1001200008000000BE922449123EABAAAA2ABECD06
:10013000CCCC4C3E00000080BEABAAAAAA3E000078
:100140000000BF000000803F000000000008417870
:10015000D3BB4387D1133D190E3CC3BD4282AD2BA7
:100160003E68EC8276BED98FE1A93E4C80EFFFBE9F
:1001700001C4FF7F3F00000000000C9451070C9465
:10018000DA070C943B070C9425070C9469070C9430
:10019000F9060C94EB040C94F7060C940F070C94DE
:1001A000FB040C948C390C94A5070C94E3066E6147
:1001B0006E00696E660000407A10F35A00A0724E1D
:1001C00018090010A5D4E80000E87648170000E4FC
:1001D0000B54020000CA9A3B000000E1F505000044
:1001E00080969800000040420F000000A0860100A9
:1001F0000000102700000000E80300000000640079
:10020000000000000A0000000000010000000000E3
:100210002C76D888DC674F0823DFC1DFAE59E1B107
:10022000B796E5E3E453C63AE651997696E8E6C216
:100230008426EB898C9B62ED407C6FFCEFBC9C9F1D
:1002400040F2BAA56FA5F490055A2AF75C936B6C3F
:10025000F9676DC11BFCE0E40D47FEF520E6B50033
:10026000D0ED902E0300943577050080841E0800A1
:1002700000204E0A000000C80C333333330F986E51
:1002800012831141EF8D2114893BE65516CFFEE60E
:10029000DB18D1844B381BF77C1D901DA4BBE424D4
:1002A000203284725E228100C9F124ECA1E53D2751
:1002B0004E414E494E495459494E46CDCCCC3D0A4B
:1002C000D7233C17B7D13877CC2B329595E6241F2E
:1002D000B14F0A000020410000C84200401C4620E7
:1002E000BCBE4CCA1B0E5AAEC59D746364696E6F6A
:1002F00070737578585B65666745464700616E00A8
:100300006E66696E69747900CDCCCC3D0AD7233C0A
:1003100017B7D13877CC2B329595E6241FB14F0A09
:10032000000020410000C84200401C4620BCBE4CDA
:10033000CA1B0E5AAEC59D748C3911241FBECFEF57
:10034000D1E2DEBFCDBF00E00CBF15E0A0E0B2E01F
:10035000E0E0F4E800E00BBF02C007900D92A63188
:10036000B107D9F729E0A6E1B5E001C01D92A53695
:10037000B207E1F711E0CDE9D1E000E006C0219736
:100380000109802FFE010E949139CC39D10780E00C
:100390000807A9F70E94D7380C94FE410C9400007E
:1003A000279A08952F9A08952F9808951F9A0895CF
:1003B0000097D9F020E030E02F9A4FE75AE166E04D
:1003C000415050406040E1F700C000002F984FE7D7
:1003D0005AE166E0415050406040E1F700C0000043
:1003E0002F5F3F4F2817390739F70895813009F4F7
:1003F0003FC0823009F008958091010180688093A8
:100400000101809102018F77809302012FEF81EE2D
:1004100094E0215080409040E1F700C000008091BE
:1004200001018860809301018091020188608093BE
:10043000020180910101806180930101809102019C
:1004400080618093020180910101806280930101AB
:100450008091020180628093020180910101806499
:1004600080930101809102018F7B809302010895A6
:10047000809A889A6F9A779A839A8B9A819A899AA6
:1004800082988A986E9876980895813009F0089538
:1004900077989AE09A95F1F7779A8A95F1F7089507
:1004A000813071F0823009F00895809102018F7ED1
:1004B0008093020180910201877F80930201089559
:1004C0008B9888980895813099F0823009F00895CA
:1004D0008091020188608093020180910201806115
:1004E000809302018091020180628093020108954D
:1004F000889A8B9A899A0895962F9078813009F47A
:10050000BCC0823009F0089580910201911110C1A0
:100510008F7D8093020181E0982F9A95F1F7909159
:1005200002019061909302018A95F1F78091020196
:100530008F7E8093020166FF31C18091020180624B
:100540008093020181E0982F9A95F1F79091020132
:100550009061909302018A95F1F7809102018F7E5C
:100560008093020165FF14C1809102018062809333
:10057000020181E0982F9A95F1F790910201906124
:10058000909302018A95F1F7809102018F7E80930A
:10059000020164FFF7C08091020180628093020132
:1005A00081E0982F9A95F1F79091020190619093D4
:1005B00002018A95F1F7809102018F7E80930201FA
:1005C00063FFDAC08091020180628093020181E0C2
:1005D000982F9A95F1F79091020190619093020102
:1005E0008A95F1F7809102018F7E8093020162FF6C
:1005F000BDC08091020180628093020181E0982F4A
:100600009A95F1F7909102019061909302018A9579
:10061000F1F7809102018F7E8093020161FFA0C0FB
:100620008091020180628093020181E0982F9A9567
:10063000F1F7909102019061909302018A95F1F790
:10064000809102018F7E8093020160FF83C08091C0
:10065000020180628093020181E0982F9A95F1F760
:10066000909102019061909302018A95F1F7809137
:1006700002018F7E809302010895911157C08998DD
:1006800081E0982F9A95F1F78B9A8A95F1F78B98DC
:1006900066FF54C0899A81E0982F9A95F1F78B9A5A
:1006A0008A95F1F78B9865FF47C0899A81E0982F6A
:1006B0009A95F1F78B9A8A95F1F78B9864FF46C06B
:1006C000899A81E0982F9A95F1F78B9A8A95F1F79C
:1006D0008B9863FF39C0899A81E0982F9A95F1F73A
:1006E0008B9A8A95F1F78B9862FF2CC0899A81E0EA
:1006F000982F9A95F1F78B9A8A95F1F78B9861FF6D
:100700001FC0899A81E0982F9A95F1F78B9A8A9564
:10071000F1F78B9860FF1CC0899A81E0982F9A9519
:10072000F1F78B9A8A95F1F78B980895899AA8CF5B
:10073000806280930201EFCE8998B8CF8998ABCFC1
:100740008998E0CF8998D3CF8998C6CF8998B9CFB7
:100750008998E3CF809102018F7D809302017CCF45
:10076000809102018F7D809302015FCF8091020111
:100770008F7D8093020142CF809102018F7D809313
:10078000020125CF809102018F7D8093020108CF65
:10079000809102018F7D80930201EBCE8091020156
:1007A0008F7D80930201CECE813011F080E00895DC
:1007B000982F9A95F1F78B9A2FB1982F9A95F1F778
:1007C0008B9822FB222720F9220F982F9A95F1F778
:1007D0008B9A9FB1382F3A95F1F78B9892FB992716
:1007E00090F9292B220F982F9A95F1F78B9A9FB1A8
:1007F000382F3A95F1F78B9892FB992790F9292B8E
:10080000220F982F9A95F1F78B9A9FB1382F3A952E
:10081000F1F78B9892FB992790F9292B220F982FAB
:100820009A95F1F78B9A9FB1382F3A95F1F78B98FB
:1008300092FB992790F9292B220F982F9A95F1F77F
:100840008B9A9FB1382F3A95F1F78B9892FB9927A5
:1008500090F9292B220F982F9A95F1F78B9A9FB137
:10086000382F3A95F1F78B9892FB992790F9292B1D
:10087000982F9A95F1F78B9A9FB18A95F1F78B98FB
:10088000822F880F92FB992790F9892B0895813048
:1008900011F080E0089567FF93C0899A91E0892F55
:1008A0008A95F1F78B9A8FB19A95F1F78B9882FB25
:1008B000882780F9880F66FF81C0899A21E0922FEE
:1008C0009A95F1F78B9A9FB12A95F1F78B9892FB45
:1008D000992790F9892B880F65FF6EC0899A21E0CE
:1008E000922F9A95F1F78B9A9FB12A95F1F78B98F1
:1008F00092FB992790F9892B880F64FF5BC0899A36
:1009000021E0922F9A95F1F78B9A9FB12A95F1F7F2
:100910008B9892FB992790F9892B880F63FF48C029
:10092000899A21E0922F9A95F1F78B9A9FB12A9597
:10093000F1F78B9892FB992790F9892B880F62FF2A
:1009400035C0899A21E0922F9A95F1F78B9A9FB141
:100950002A95F1F78B9892FB992790F9892B880FAC
:1009600061FF22C0899A21E0922F9A95F1F78B9A24
:100970009FB12A95F1F78B9892FB992790F9892BD3
:10098000880F60FF0FC0899A21E0922F9A95F1F7A6
:100990008B9A9FB12A95F1F78B9892FB992790F942
:1009A000892B08958998F0CF8998DDCF8998CACF8F
:1009B0008998B7CF8998A4CF899891CF89987ECF0D
:1009C00089986CCF813011F080E008958CB186FB5E
:1009D000882780F90895CF93C82F8A3041F09091ED
:1009E000C00095FFFCCFC093C600CF9108958DE065
:1009F0000E94EB04F4CF809118058823E1F3E09185
:100A00001905F0911A05E35EFA4F8081909118055F
:100A10009150909318052091190530911A052F5F78
:100A20003F4F30931A0520931905209119053091F5
:100A30001A052F3F310509F0089510921A051092FA
:100A4000190508951092C50089E18093C400E0EC77
:100A5000F0E080818D7F808386E08093C20088E112
:100A60008093C10008951F920F920FB60F92112428
:100A70000BB60F922F938F939F93EF93FF93209139
:100A8000C600809118058F3FA1F1E0911B05F09100
:100A90001C05E35EFA4F2083809118058F5F8093D9
:100AA000180580911B0590911C05019690931C05DB
:100AB00080931B0580911B0590911C058F3F91052C
:100AC00001F18091160590911705892B31F08091E5
:100AD000C00085FFFCCF2093C600FF91EF919F914E
:100AE0008F912F910F900BBE0F900FBE0F901F9004
:100AF00018958091C00085FFFCCF80E48093C600EC
:100B0000ECCF10921C0510921B05DBCF80911805CD
:100B10008823F1F0E0911905F0911A05E35EFA4F90
:100B20008081909118059150909318052091190596
:100B300030911A052F5F3F4F30931A052093190506
:100B40002091190530911A052F3F310519F00895AC
:100B500080E0089510921A05109219050895E1ECAD
:100B6000F0E080818F7780831092C50089E18093C7
:100B7000C400A0ECB0E08C918D7F8C9386E08093D4
:100B8000C20088E180831092170510921605ADE52A
:100B9000B9E080E092E011969C938E9313969C931B
:100BA0008E93129710921C0510921B0510921A0535
:100BB000109219051092180580818068808308952D
:100BC00090931705809316050895109217051092BB
:100BD00016050895FC0160830895EF92FF921F931C
:100BE000CF93DF931F92CDB7DEB77C01162FFC01A8
:100BF000808179830E9450026981F70180810E947F
:100C00007C02612FF70180810E947C02F7018081C4
:100C10000F90DF91CF911F91FF90EF900C946302A2
:100C2000FC0180810C94F601FC0160830895CF9251
:100C3000DF92EF92FF920F93CF93DF93EC016A0163
:100C40007B0188810E945002602F637088810E941E
:100C50007C0299278F2D7E2D6D2D88810E947C022C
:100C60006C2D88810E947C028881DF91CF910F9149
:100C7000FF90EF90DF90CF900C946302FC01808195
:100C80000C94F601FC0160830895CF92DF92EF92FD
:100C9000FF92CF93DF93EC016A017B0188810E9470
:100CA00050026C2D88810E947C02B7018827992709
:100CB00088810E947C0299278F2D7E2D6D2D888141
:100CC0000E947C028881DF91CF91FF90EF90DF90AE
:100CD000CF900C946302FC0180810C94F601FC011E
:100CE000608308950F931F93CF93DF93EC018B01E3
:100CF00088810E945002B8010024660F771F001CF3
:100D0000660F771F001C672F702D6F7388810E94FC
:100D10007C02602F660F660F88810E947C028881AA
:100D2000DF91CF911F910F910C946302FC018081A0
:100D30000C94F6010F931F93CF93DF938C01EB017B
:100D40000E94993EFE0101900020E9F7CF018C1B23
:100D50009D0B800F911FDF91CF911F910F910895EF
:100D6000FC01608308950F931F93CF93DF93EC01F1
:100D700088810E94500288810E94D40388810E9449
:100D8000D403082F88810E94D403182F88810E94E1
:100D90006302812F90E0902BDF91CF911F910F91F3
:100DA0000895FC0180810C94F601E0911D07F091FB
:100DB0001E073197EA30F105D0F48827EE58FF4F2F
:100DC0008F4F0C9491395F988FE39FE10197F1F772
:100DD00000C000009091290781E08927E7E2F7E051
:100DE000119297E0E333F907D9F7809329075F9AC7
:100DF00008955F988FE39FE10197F1F700C000002D
:100E00009091310781E08927E7E2F7E0119297E0BE
:100E1000E333F907D9F7809331075F9A08955F9814
:100E20008FE39FE10197F1F700C000009091280740
:100E300081E08927E7E2F7E0119297E0E333F907D1
:100E4000D9F7809328075F9A08955F988FE39FE111
:100E50000197F1F700C0000090912A0781E08927EF
:100E6000E7E2F7E0119297E0E333F907D9F78093CF
:100E70002A075F9A08955F988FE39FE10197F1F742
:100E800000C0000090912B0781E08927E7E2F7E09E
:100E9000119297E0E333F907D9F780932B075F9A14
:100EA00008955F988FE19EE40197F1F700C000007C
:100EB0009091390981E08927809339091092270799
:100EC000E9E2F7E0119297E0E333F907D9F75F9A87
:100ED00008955F988FE19EE40197F1F700C000004C
:100EE00010922707109228071092290710922A07BC
:100EF00010922B0710922C0710922E0710922F079A
:100F000010923007109231071092320780911E0222
:100F100090911F0201979C01220F331F820F931F94
:100F2000880F991F880F991FFC01ED5FF74FDC01B7
:100F3000AD56B74F815F974F119211921D921D923E
:100F4000E817F907C9F75F9A08955F988FE19EE463
:100F50000197F1F700C00000E7E2F7E0119297E097
:100F6000EE32F907D9F710922F071092300710923E
:100F700031071092320780911E0290911F02019753
:100F80009C01220F331F820F931F880F991F880F18
:100F9000991FFC01ED56F74FDC01AD5FB74F81564D
:100FA000974F219131912D933D93E817F907C9F798
:100FB0005F9A08955F988FE39FE10197F1F700C072
:100FC00000009091300781E08927E7E2F7E0119275
:100FD00097E0E333F907D9F7809330075F9A0895D4
:100FE0000F931F93CF93DF938EE090E00E94C54153
:100FF000EC0186E090E00E94C541AC01CE01A0E08A
:10100000B0E0DC019927882760E070E08C019D0149
:10101000042B152B262B372BC901B801613F19E48E
:10102000710712E08107910508F0AAC00E94C23A38
:1010300020E030E04AE754E40E941A3A60933D0908
:1010400070933E0980933F09909340098CE090E0B3
:101050000E94C541EC0184E090E00E94C541AC01D2
:10106000CE01A0E0B0E0DC019927882760E070E0C5
:101070008C019D01042B152B262B372BC901B801A0
:10108000613F19E4710712E08107910508F082C001
:101090000E94C23A20E030E04AE754E40E941A3A43
:1010A00060934109709342098093430990934409E6
:1010B0008AE090E00E94C541EC0182E090E00E944D
:1010C000C541AC01CE01A0E0B0E0DC019927882742
:1010D00060E070E08C019D01042B152B262B372B33
:1010E000C901B801613F19E4710712E08107910558
:1010F00008F04BC00E94C23A20E030E04AE754E4D6
:101100000E941A3A609345097093460980934709F3
:101110009093480988E090E00E94C541EC0180E08E
:1011200090E00E94C541AC01CE01A0E0B0E0DC013E
:101130009927882760E070E08C019D01042B152B16
:10114000262B372BC901B801613F19E4710712E062
:101150008107910520F50E94C23A20E030E04AE77D
:1011600054E40E941A3A6093490970934A098093A3
:101170004B0990934C09DF91CF911F910F910895E6
:1011800060E070E086E193E459CF60E070E086E1D2
:1011900093E4B8CF60E070E086E193E481CF60E053
:1011A00070E086E193E4DFCFCF92DF92EF92FF927F
:1011B000CF93DF93CDE3D9E020E030E04AE754E479
:1011C000688179818A819B810E94793B0E94933A50
:1011D0006B017C01B701882799278EE090E00E947F
:1011E000CB41B60186E090E00E94CB4120E030E0A8
:1011F0004AE754E46C817D818E819F810E94793B16
:101200000E94933A6B017C01B701882799278CE0F3
:1012100090E00E94CB41B60184E090E00E94CB4177
:1012200020E030E04AE754E4688579858A859B852B
:101230000E94793B0E94933A6B017C01BC01882794
:1012400099278AE090E00E94CB41B60182E090E0CD
:101250000E94CB4120E030E04AE754E46C857D8574
:101260008E859F850E94793B0E94933A6B017C0199
:10127000BC018827992788E090E00E94CB41B60105
:1012800080E090E0DF91CF91FF90EF90DF90CF90E2
:101290000C94CB41CF92DF92EF92FF920F931F936A
:1012A00069017A01609324027093250280932602DB
:1012B000909327020E94C23AF601EE0FFF1FEE0F35
:1012C000FF1FE05CFD4F20813181428153810E94EC
:1012D000793B0E94933AAB01BC014115510581E075
:1012E0006807710520F04FEF5FEF60E070E0970155
:1012F000860185E299E00E9417061F910F91FF90E9
:10130000EF90DF90CF900895CF92DF92EF92FF920F
:1013100080914D09882309F451C0809138098130AA
:1013200009F447C081E08093380980912F02882317
:1013300009F43FC0C12CD12C7601A701960160E0D1
:1013400070E0CB010E944A098FEFC81AD80AE80A58
:10135000F80A84E0C816D104E104F10471F7109290
:101360003D0910923E0910923F09109240091092D7
:1013700041091092420910924309109244091092B7
:101380004509109246091092470910924809109297
:10139000490910924A0910924B0910924C09109277
:1013A000390910923A0910923B0910923C091092A7
:1013B0002F02FF90EF90DF90CF9008958091380931
:1013C0008823B9F3809337091092380980912F024E
:1013D0008111EFCF81E080932F02FF90EF90DF909B
:1013E000CF9008954F925F926F927F92AF92BF928B
:1013F000CF92DF92EF92FF920F931F93CF93DF93E1
:1014000080912F02882309F44AC0909138099111E4
:1014100046C089E3A82E89E0B82EC6E2D9E00DE3E4
:1014200019E0C12CD12C7601F50181915F0188234F
:1014300009F449C020E030E04AE754E4F801608153
:101440007181828193810E94793B0E94933A488006
:1014500059806A807B80641575058605970541F083
:10146000688379838A839B83A70196010E944A0936
:101470002496FFEFCF1ADF0AEF0AFF0A0C5F1F4F17
:1014800084E0C816D104E104F10471F680913609B4
:10149000882319F081508093360980912F02909112
:1014A0002E02891380932E02DF91CF911F910F910D
:1014B000FF90EF90DF90CF90BF90AF907F906F90B4
:1014C0005F904F90089560E070E0CB01C0CFCF9265
:1014D000DF92EF92FF92C12CD12C7601A7019601E9
:1014E00060E070E0CB010E944A098FEFC81AD80A69
:1014F000E80AF80A84E0C816D104E104F10471F79F
:101500001092390910923A0910923B0910923C0945
:1015100081E080932F02FF90EF90DF90CF900895AD
:1015200052985A9AE9E6F0E080818F7D808380812D
:1015300080618083EA9A5198599A8081877F80835D
:10154000808184608083E99A53985B9A8081806867
:10155000808380818F7B8083EB9A26982E9AA8E6E1
:10156000B0E08C9181608C93EBE6F0E08081806448
:10157000808325982D9A8C9181608C9380818062E4
:10158000808308951F920F920FB60F9211240BB60D
:101590000F922F933F934F935F936F938F939F93EC
:1015A000EF93FF9340915509440F440F4093550921
:1015B00059B169B161FB882780F990E0842B52FB17
:1015C000222720F930E0220F331F822B932B8093A8
:1015D00055098F70E82FF0E0E05DFD4F90915A09BA
:1015E0008081890F80935A09FF91EF919F918F918C
:1015F0006F915F914F913F912F910F900BBE0F9084
:101600000FBE0F901F9018951F920F920FB60F925A
:1016100011240F900FBE0F901F9018951F920F92DC
:101620000FB60F9211248F939F9383B186FB882767
:1016300080F990910F02992311F08823C1F08093D3
:101640000F0283B185FB882780F990910E029923C0
:1016500029F0811103C091E09093580980930E0204
:101660009F918F910F900FBE0F901F90189591E052
:1016700090935909E4CF80911E0290911F02019727
:101680009C01220F331F820F931F880F991F880F11
:10169000991FFC01ED56F74FDC01AD5FB74F815646
:1016A000974F219131912D933D93E817F907C9F791
:1016B00008952F923F924F925F926F927F928F92F6
:1016C0009F92AF92BF92CF92DF92EF92FF920F93D1
:1016D0001F93CF93DF9300D01F92CDB7DEB713B126
:1016E00003B180912F02882309F462C0E7E2F7E09A
:1016F0001C821B828191811109C02B813C812F5F4B
:101700003F4F3C832B832B303105A1F716FB11276C
:1017100010F980915909811162C08091580905FB27
:10172000002700F98111D1C080915709882389F0E1
:1017300080910208873008F020C18F5F80930208F3
:10174000873009F41AC1002321F010925709109232
:10175000020880915609882389F08091010887301A
:1017600008F061C18F5F80930108873009F45BC185
:10177000112321F01092560910920108809154090A
:1017800010915A09811751F0209152093091530953
:101790004B815C814217530709F4B4C1109254097C
:1017A00010925A092B813C8130935309209352099E
:1017B0000F900F900F900F90DF91CF911F910F918D
:1017C000FF90EF90DF90CF90BF90AF909F908F9061
:1017D0007F906F905F904F903F902F9008958091F1
:1017E00058098823D9F04B815C81413051050CF4B4
:1017F00078C1453051052CF0CA010997029708F0CD
:1018000070C1109257091092020810925609109256
:1018100001081092590910925809CACF909157099E
:10182000911158C191E090935609111157C1EB8164
:10183000FC81E430F10509F4A8C20CF086C3E13064
:10184000F10509F459C73297E1F55F98EFE1FEE43D
:101850003197F1F700C0000020E030E040E85FE39E
:101860006091410970914209809143099091440926
:101870000E94A8396B017C01809020029090210287
:10188000A0902202B09023029401A5010E94743B13
:10189000181614F46401750120E030E0A901B601C6
:1018A000C7010E94153A87FF02C00C948B14A60151
:1018B000B7014093410950934209609343097093E3
:1018C00044095F9A8091580909C190915609911174
:1018D000A1C091E0909357090111A2C02B813C81D6
:1018E0002430310509F4C1C20CF06FC32130310539
:1018F00009F474C722303105E1F55F98EFE1FEE4A9
:101900003197F1F700C0000020E030E040E85FE3ED
:101910006091410970914209809143099091440975
:101920000E94A9396B017C018090200290902102D5
:10193000A0902202B09023029401A5010E94743B62
:10194000181614F46401750120E030E0A901B60115
:10195000C7010E94153A87FF02C00C949B14A60190
:10196000B701409341095093420960934309709332
:1019700044095F9A8091570953C02B813C812430E0
:10198000310509F489C40CF026C12130310509F470
:1019900048C422303105D1F55F98EFE1FEE431977C
:1019A000F1F700C0000020E030E040E251E4609137
:1019B00041097091420980914309909144090E9424
:1019C000A9396B017C018090200290902102A090A7
:1019D0002202B09023029401A5010E94743B1816C4
:1019E00014F46401750120E030E0A901B601C701DB
:1019F0000E94153A87FD39C7A601B70140934109F6
:101A00005093420960934309709344095F9A10927E
:101A1000020899CE10925609109201088091570938
:101A20001092580983CE2B813C812430310509F472
:101A300043C30CF010C12130310509F49DC422309C
:101A4000310509F043C05F98EFE1FEE43197F1F70B
:101A500000C0000020E030E040E251E46091410924
:101A60007091420980914309909144090E94A839DC
:101A7000D62EE72EF82E092F90902002A09021025A
:101A8000B0902202C0902302292D3A2D4B2D5C2DBF
:101A90000E94743B18161CF4D92C75010C2D20E003
:101AA00030E0A9016D2D7E2D8F2D902F0E94153ACB
:101AB00087FDE0C64D2D5E2D6F2D702F409341099F
:101AC0005093420960934309709344095F9A1092BE
:101AD00001084ECE1092570910920208109259092F
:101AE0001ECE84E0809336095F985FEF8DEE92E022
:101AF000515080409040E1F700C000005F9A0E9482
:101B0000D4087FCE181B8B819C818430910509F409
:101B100077C40CF0E0C08130910509F456C50297F6
:101B200009F051C087E61802812D1124859585950D
:101B300017FD8395182F8111B5C6612F012E000C5A
:101B4000770B880B990B0E94C43A20E030E048E400
:101B500053E40E941A3A2091410930914209409180
:101B60004309509144090E94A939D62EE72EF82E38
:101B7000092F90902002A0902102B0902202C090E4
:101B80002302292D3A2D4B2D5C2D0E94743B1816F3
:101B90001CF4D92C75010C2D20E030E0A9016D2D2D
:101BA0007E2D8F2D902F0E94153A87FDA3C64D2DB7
:101BB0005E2D6F2D702F4093410950934209609321
:101BC000430970934409112321F010925409109293
:101BD0005A095F9AE7CD4B815C814930510509F480
:101BE000E9C24A30510509F011CF5F988FE19EE4B8
:101BF0000197F1F700C00000E0901E02F0901F0274
:101C000092E0E90EF11CB70180E090E00E94C23A38
:101C10004B015C01C0901C02D0901D02B60180E017
:101C200090E00E94C23A9B01AC01C501B4010E9440
:101C3000743B18160CF421C520E030E040E85FE367
:101C4000C501B4010E94153A87FF6701D0921F02B7
:101C5000C0921E02DBCE4B815C814930510509F4F4
:101C6000F4C14A30510509F031CF5F988FE19EE40D
:101C70000197F1F700C00000E0901E02F0901F02F3
:101C800092E0E91AF108B70180E090E00E94C23AC0
:101C90004B015C01C0901C02D0901D02B60180E097
:101CA00090E00E94C23A9B01AC01C501B4010E94C0
:101CB000743B18160CF4E5C420E030E040E85FE324
:101CC000C501B4010E94153A87FF6701D0921F0237
:101CD000C0921E02FBCEEB81FC81E930F10509F4D4
:101CE00025C43A9709F06FCF87E61802812D112499
:101CF0008595859517FD8395182F8111E3C5609112
:101D00001E0270911F0280E090E00E94C23A6B01B7
:101D10007C01612F012E000C770B880B990B0E9420
:101D2000C43A20E030E048E453E40E941A3A9B01B0
:101D3000AC01C701B6010E94A9394B015C01E090DA
:101D40001C02F0901D02B70180E090E00E94C23AB0
:101D50009B01AC01C501B4010E94743B18160CF440
:101D60007BC520E030E040E85FE3C501B4010E949C
:101D7000153A87FD05C0C501B4010E94933A7B0165
:101D8000F0921F02E0921E021ECF5F988FE19EE448
:101D90000197F1F700C00000E0901E02F0901F02D2
:101DA00091E0E91AF108C0902309D0902409570165
:101DB000AA0CBB1CF501EE0DFF1DEE0FFF1FEC0D75
:101DC000FD1DEE0FFF1FED56F74F608171816150D1
:101DD0007109072E000C880B990B0E94C43A2B0145
:101DE0003C018090180290901902B401092C000C5B
:101DF000880B990B0E94C43A1B0189839A839B012B
:101E0000AC01B201C3010E94743B18161CF42101FD
:101E100069807A806627772768197909072E000C70
:101E2000880B990B0E94C43A1B014C019B01AC0129
:101E3000B201C3010E94153A87FF02C0210134019B
:101E4000C5018E0D9F1D880F991F8C0D9D1D880F3C
:101E5000991FFC01ED56F74F7F01B201C3010E94AB
:101E60008C3AF701718360832CCD5F988FE19EE4FB
:101E70000197F1F700C00000E0901E02F0901F02F1
:101E800091E0E91AF108C0902309D0902409570184
:101E9000AA0CBB1CF501EE0DFF1DEE0FFF1FEC0D94
:101EA000FD1DEE0FFF1FED56F74F608171816F5FD3
:101EB0007F4F072E000C880B990B0E94C43A2B0110
:101EC0003C018090180290901902B401092C000C7A
:101ED000880B990B0E94C43A1B0189839A839B014A
:101EE000AC01B201C3010E94743B18161CF421011D
:101EF00069807A806627772768197909072E000C90
:101F0000880B990B0E94C43A1B014C019B01AC0148
:101F1000B201C3010E94153A87FF02C021013401BA
:101F2000C5018E0D9F1D880F991F8C0D9D1D880F5B
:101F3000991FFC01ED56F74F7F01B201C3010E94CA
:101F40008C3AF7017183608314CD2B813C81293059
:101F5000310509F49AC32A30310509F0B2CC5F98F3
:101F60008FE19EE40197F1F700C00000C0901E02CF
:101F7000D0901F0291E0C91AD108B60180E090E02C
:101F80000E94C23A4B015C01E0901C02F0901D02DD
:101F9000B70180E090E00E94C23A9B01AC01C5010C
:101FA000B4010E94743B18160CF478C420E030E0B1
:101FB00040E85FE3C501B4010E94153A87FF76014E
:101FC000F0921F02E0921E027CCC4B815C81493072
:101FD000510509F4CCC34A30510509F0CACC5F98C9
:101FE0008FE19EE40197F1F700C00000C0901E024F
:101FF000D0901F029FEFC91AD90AB60180E090E085
:102000000E94C23A4B015C01E0901C02F0901D025C
:10201000B70180E090E00E94C23A9B01AC01C5018B
:10202000B4010E94743B18160CF42EC420E030E07A
:1020300040E85FE3C501B4010E94153A87FF7601CD
:10204000F0921F02E0921E0294CC5F98EFE1FEE452
:102050003197F1F700C00000E0902309F0902409C7
:10206000F1E0EF1AF108B7010F2C000C880B990B67
:102070000E94C43A4B015C01C0901A02D0901B022E
:10208000B60180E090E00E94C23A9B01AC01C5011C
:10209000B4010E94743B18160CF4E9C220E030E051
:1020A000A901C501B4010E94153A87FD7601F0929D
:1020B0002409E09223090ACD5F988FE19EE40197FD
:1020C000F1F700C00000E0901E02F0901F0291E0C6
:1020D000E91AF108C0902309D09024094701880C1F
:1020E000991CF401EE0DFF1DEE0FFF1FEC0DFD1D01
:1020F000EE0FFF1FED56F74F608171816A50710935
:10210000072E000C880B990B0E94C43A562E672E9E
:10211000782E092FA0901802B0901902B5010B2C4F
:10212000000C880B990B0E94C43A1B01482E99831E
:102130009B01482F592F652D762D872D902F0E94BA
:10214000743B181624F4522C632C742C09816627D6
:1021500077276A197B09072E000C880B990B0E94C0
:10216000C43A362E472E5C01262F372FAC01652D41
:10217000762D872D902F0E94153A87FF04C0532C8F
:10218000642C7A2C0B2DE80CF91CEE0CFF1CEC0CCB
:10219000FD1CC701880F991FFC01ED56F74F7F0109
:1021A000652D762D872D902F0E948C3AF701718333
:1021B00060838CCC5F98EFE1FEE43197F1F700C0CB
:1021C0000000E0902309F0902409FFEFEF1AFF0AC6
:1021D000B7010F2C000C880B990B0E94C43A4B01DD
:1021E0005C01C0901A02D0901B02B60180E090E022
:1021F0000E94C23A9B01AC01C501B4010E94743B2C
:1022000018160CF437C220E030E0A901C501B40172
:102210000E94153A87FD7601F0922409E092230985
:10222000F5CB5F988FE19EE40197F1F700C00000C5
:1022300020E030E040E251E460913D0970913E09B8
:1022400080913F09909140090E94A9396B017C015E
:102250008090200290902102A0902202B090230250
:102260009401A5010E94743B181614F464017501D1
:1022700020E030E0A901B601C7010E94153A87FDB0
:10228000FEC2A601B70140933D0950933E096093F9
:102290003F0970934009BACB5F988FE19EE40197A4
:1022A000F1F700C00000E0901E02F0901F0291E0E4
:1022B000E91AF108C0902309D09024095701AA0C0B
:1022C000BB1CF501EE0DFF1DEE0FFF1FEC0DFD1DFC
:1022D000EE0FFF1FED56F74F60817181665F7F4FF4
:1022E000072E000C880B990B0E94C43A2B013C016D
:1022F0008090180290901902B401092C000C880BF0
:10230000990B0E94C43A1B0189839A839B01AC01FB
:10231000B201C3010E94743B18161CF421016980AC
:102320007A806627772768197909072E000C880BB1
:10233000990B0E94C43A1B014C019B01AC01B201F4
:10234000C3010E94153A87FF02C021013401EA0C43
:10235000FB1CEE0CFF1CEC0CFD1CC701880F991F29
:10236000FC01ED56F74F7F01B201C3010E948C3A88
:10237000F701718360834ACB5F988FE19EE40197F8
:10238000F1F700C0000020E030E040E251E460914D
:102390003D0970913E0980913F09909140090E944A
:1023A000A839D62EE72EF82E092F90902002A09063
:1023B0002102B0902202C0902302292D3A2D4B2DEC
:1023C0005C2D0E94743B18161CF4D92C75010C2D41
:1023D00020E030E0A9016D2D7E2D8F2D902F0E94E1
:1023E000153A87FD3DC24D2D5E2D6F2D702F409308
:1023F0003D0950933E0960933F097093400966CBB5
:1024000087E61802812D11248595859517FD839502
:10241000182F81114FC2E0901E02F0901F0291E030
:10242000E91AF108C0902309D09024094701880CCB
:10243000991CF401EE0DFF1DEE0FFF1FEC0DFD1DAD
:10244000EE0FFF1FED56F74F60817181072E000CD4
:10245000880B990B0E94C43A2B013C01612F012E7D
:10246000000C770B880B990B0E94C43A20E030E0F7
:1024700048E453E40E941A3A9B01AC01C301B20143
:102480000E94A939562E672E782E092FA090180287
:10249000B0901902B5010B2C000C880B990B0E940F
:1024A000C43A1B01482E99839B01482F592F652D53
:1024B000762D872D902F0E94743B181624F4522CF1
:1024C000632C742C0981662777276A197B09072EEC
:1024D000000C880B990B0E94C43A362E472E5C01E3
:1024E000262F372FAC01652D762D872D902F0E943A
:1024F000153A87FF04C0532C642C7A2C0B2DE80C62
:10250000F91CEE0CFF1CEC0CFD1CC701880F991F79
:10251000FC01ED56F74F7F01652D762D872D902F0D
:102520000E948C3AF701718360834DCB87E61802D5
:10253000812D11248595859517FD8395182F81117F
:10254000D1C16091230970912409072E000C880BDA
:10255000990B0E94C43A6B017C01612F012E000C83
:10256000770B880B990B0E94C43A20E030E048E4D6
:1025700053E40E941A3A9B01AC01C701B6010E94C4
:10258000A9394B015C01E0901A02F0901B02B701DF
:1025900080E090E00E94C23A9B01AC01C501B40109
:1025A0000E94743B18160CF454C120E030E0A901DD
:1025B000C501B4010E94153A87FFA6C12E2D8F2DAB
:1025C0002093230980932409FECA87E61802812DEF
:1025D00011248595859517FD8395182F81117AC152
:1025E000612F012E000C770B880B990B0E94C43AC7
:1025F00020E030E048E453E40E941A3A20913D097B
:1026000030913E0940913F09509140090E94A939FB
:10261000D62EE72EF82E092F90902002A0902102AE
:10262000B0902202C0902302292D3A2D4B2D5C2D13
:102630000E94743B18161CF4D92C75010C2D20E057
:1026400030E0A9016D2D7E2D8F2D902F0E94153A1F
:1026500087FD55C14D2D5E2D6F2D702F40933D0987
:1026600050933E0960933F0970934009ACCAE12C36
:10267000F12C1DCDE12CF12CCFCDCC24C394D12C49
:10268000E5CACC24C394D12C21CB5F98EFE1FEE4C2
:102690003197F1F700C00000E0902309F090240981
:1026A000F1E0EF1AF108B7010F2C000C880B990B21
:1026B0000E94C43A4B015C01C0901A02D0901B02E8
:1026C000B60180E090E00E94C23A9B01AC01C501D6
:1026D000B4010E94743B18160CF4DDC020E030E019
:1026E000A901C501B4010E94153A87FD7601F09257
:1026F0002409E0922309E5C85F988FE19EE40197E1
:10270000F1F700C0000020E030E040E85FE36091B6
:102710003D0970913E0980913F09909140090E94C6
:10272000A8396B017C018090200290902102A0903A
:102730002202B09023029401A5010E94743B181656
:1027400014F46401750120E030E0A901B601C7016D
:102750000E94153A87FDEAC0A601B70140933D09E2
:1027600050933E0960933F0970934009AAC85F984F
:10277000EFE1FEE43197F1F700C00000E09023099B
:10278000F0902409FFEFEF1AFF0AB7010F2C000C9D
:10279000880B990B0E94C43A4B015C01C0901A024D
:1027A000D0901B02B60180E090E00E94C23A9B01EB
:1027B000AC01C501B4010E94743B18160CF468C04A
:1027C00020E030E0A901C501B4010E94153A87FD5F
:1027D0007601F0922409E0922309CBC85F988FE13B
:1027E0009EE40197F1F700C0000020E030E040E8EF
:1027F0005FE360913D0970913E0980913F0990919E
:1028000040090E94A9396B017C01809020029090C0
:102810002102A0902202B09023029401A5010E94FF
:10282000743B181614F46401750120E030E0A9012E
:10283000B601C7010E94153A87FD73C0A601B70112
:1028400040933D0950933E0960933F0970934009BE
:1028500090C820E080E0B4CEEE24E394F12C90CA3E
:10286000D12CE12CF12C00E0BECDC12CD12CE12CDF
:10287000F12CC2C8D12CE12CF12C00E01BC9C12CD9
:10288000D12CE12CF12CFDCCEE24E394F12CD8CB0F
:10289000E12CF12C9ECFE12CF12C29CFEE24E394F6
:1028A000F12C8ECB5F98EFE9FFE03197F1F700C094
:1028B000000043C95F988FE99FE00197F1F700C0DE
:1028C0000000A9CD5F988FE99FE00197F1F700C064
:1028D000000015CA5F988FE99FE00197F1F700C0EB
:1028E00000007ECE5F98EFE9FFE03197F1F700C07E
:1028F000000027CED12CE12CF12C00E058C9D12CBE
:10290000E12CF12C00E0A6CEC501B4010E948C3A66
:10291000262F872F55CEC12CD12CE12CF12C0C94D5
:10292000570CC12CD12CE12CF12C88CFC12CD12CEF
:10293000E12CF12C11CFC12CD12CE12CF12C0C94D9
:10294000AF0C8F929F92AF92BF92CF92DF92EF9295
:10295000FF920F931F93CF93DF93CDB7DEB76297AC
:102960000FB6F894DEBF0FBECDBF80E290E09A8B29
:10297000898BBE016F5E7F4F87E397E00E948C3E9C
:102980009A8389837E0183E0E80EF11C01E010E068
:10299000BE016F5E7F4F80E090E00E948C3EF701A9
:1029A000819391937F01892B09F45CC00F5F1F4FC6
:1029B0000830110569F7E980FA806AE772E0C7011B
:1029C0000E94903E892BA1F45F9A62960FB6F8940C
:1029D000DEBF0FBECDBFDF91CF911F910F91FF9052
:1029E000EF90DF90CF90BF90AF909F908F90089521
:1029F00063EA72E0C7010E94903E892B29F36BE7DE
:102A000072E0C7010E94903E892BF1F264EA72E005
:102A1000C7010E94903E892BB9F268E573E0C701B7
:102A20000E94903E892B09F416C165E173E0C7014D
:102A30000E94903E892B09F461C16CE573E0C701E7
:102A40000E94903E892B09F45EC16FE673E0C701D6
:102A50000E94903E892B09F43BC184E993E00E94D7
:102A6000643FB2CFE980FA806AE772E0C7010E9452
:102A7000903E892B89F163EA72E0C7010E94903E83
:102A8000892B09F086C00230110509F09DCF8B819A
:102A90009C810E946F3D01978430910508F094CF8E
:102AA000880F991F880F991FFC01E35CF64F838103
:102AB0008F9382818F9381818F9380818F938CE913
:102AC00092E09F938F930E94503F0F900F900F9032
:102AD0000F900F900F9078CF0330110509F074CF4D
:102AE0005F988FE19EE40197F1F700C000008B81B1
:102AF0009C810E946F3D8C018D819E810E946B3D67
:102B0000F62EE72ED82EC92E80902002909021021A
:102B1000A0902202B09023029401A5010E94743B70
:102B2000181624F4F82CE92CDA2CCB2C20E030E019
:102B3000A9016F2D7E2D8D2D9C2D0E94153A87FDAC
:102B4000C2C09801215031092430310508F0AFC0CE
:102B5000220F331F220F331FF901E35CF64F8F2D35
:102B60009E2DAD2DBC2D80839183A283B383CF9204
:102B7000DF92EF92FF921F930F9381E892E09F9371
:102B80008F930E94503F0FB6F894DEBF0FBECDBFAB
:102B90001BCF6BE772E0C7010E94903E892B41F189
:102BA00064EA72E0C7010E94903E892B09F035CF9C
:102BB0000230110509F008CF8B819C810E946F3D86
:102BC0009C01215031092430310508F0FDCEFC0173
:102BD000E85CF64F80811F928F938BE693E09F9382
:102BE0008F930E94503F0F900F900F900F90ECCE5C
:102BF0000330110509F0E8CE5F988FE19EE401975C
:102C0000F1F700C000008B819C810E946F3D8C0118
:102C10008D819E810E946F3D9801215031092430A1
:102C2000310508F0D1CE009709F47AC0019709F078
:102C3000CBCEF801E85CF64F81E080831F930F93C1
:102C400086EC92E09F938F930E94503F0F900F90DD
:102C50000F900F90B9CE0130110509F0B5CE81E685
:102C600092E00E94643F8CE592E09F938F9381EE07
:102C700092E09F938F930E94503F86E592E09F934E
:102C80008F9381EF92E09F938F930E94503F80E556
:102C900092E09F938F9383E093E09F938F930E94A2
:102CA000503F0FB6F894DEBF0FBECDBF8DCE220FC2
:102CB000331F220F331FF901E35CF64FF080E180F0
:102CC000D280C38054CFF12CE12CD12CC12C39CF30
:102CD00090914D0981E0982790934D0990912F0292
:102CE00089271F928F938FE793E09F938F930E9482
:102CF000503F0F900F900F900F9066CE8AE193E0B7
:102D00000E94643F61CE1F921F9282E693E09F93E0
:102D10008F930E94503F0F900F900F900F9054CEC2
:102D2000F801E85CF64F10821F930F938AEA92E055
:102D30009F938F930E94503F0F900F900F900F9092
:102D400043CE0E948605882309F44FC08D30F1F0F0
:102D50008A30E1F0E0915009F0915109E436F10533
:102D60005CF0E356F84F129297E0ED39F907D9F786
:102D700010929C07E0E0F0E0DF01A456B84F8C937E
:102D80003196F0935109E0935009DBCF40915009FF
:102D90005091510914161506A4F6A7E3B7E0ECE923
:102DA000F7E09A012456384F80818D931192E217F3
:102DB000F307D1F780914E0990914F0948175907B1
:102DC0004CF4FA01E95CF84F895C984F1192E817CE
:102DD000F907E1F750934F0940934E0910925109BA
:102DE000109250090E94A114ACCF089581E00E9476
:102DF000500262E081E00E947C0260E081E00E947B
:102E00007C0281E00E94E2048823D9F362E081E041
:102E10000E947C0260E081E00E947C0281E00E94CE
:102E2000630281E00E94500281E00E94E204882354
:102E3000D9F36FEF81E00E94470480931C066FEF87
:102E400081E00E94470480931D0681E00E94630296
:102E500081E00E94E2048130D9F380911D068F93B6
:102E600080911C068F938EEC93E09F938F930E942A
:102E7000503F81E00E94500262E081E00E947C02AB
:102E800060E081E00E947C020F900F900F900F9005
:102E900081E00E94E2048823D9F363E081E00E948C
:102EA0007C0260E081E00E947C0281E00E9463027B
:102EB00081E00E94500281E00E94E2048823D9F35D
:102EC0006FEF81E00E94470480931C066FEF81E062
:102ED0000E94470480931D0681E00E94630281E006
:102EE0000E94E2048130D9F380911D068F93809176
:102EF0001C068F9381EE93E09F938F930E94503F27
:102F000081E00E94500262E081E00E947C0260E069
:102F100081E00E947C020F900F900F900F9081E053
:102F20000E94E2048823D9F360E081E00E947C02E1
:102F300060E081E00E947C0281E00E94630281E007
:102F40000E94500281E00E94E2048823D9F36FEFCF
:102F500081E00E94470480931C066FEF81E00E948D
:102F6000470480931D0681E00E94630281E00E9475
:102F7000E2048130D9F381E00E94500262E081E0F6
:102F80000E947C0260E081E00E947C0281E00E945D
:102F9000E2048823D9F361E081E00E947C0260E0D2
:102FA00081E00E947C0281E00E94630281E00E9435
:102FB000500281E00E94E2048823D9F36FEF81E0A0
:102FC0000E94470480931C066FEF81E00E94470433
:102FD00080931D0681E00E94630281E00E94E2046A
:102FE0008130D9F380911D068F9380911C068F93B9
:102FF0008FEE93E09F938F930E94503F0F900F901E
:103000000F900F9008956F927F928F929F92AF9240
:10301000BF92CF92DF92EF92FF920F931F93CF93C5
:10302000DF93CDB7DEB76A970FB6F894DEBF0FBE59
:10303000CDBF989AA09A2FEF83ED90E32150804066
:103040009040E1F700C00000A098EFEFF3ED20E31F
:10305000E150F0402040E1F700C0000081E00E9414
:10306000F60181E00E94500281E00E94E204882380
:10307000D9F36FEF81E00E94470480931C066FEF45
:1030800081E00E94470480931D0681E00E94630254
:1030900081E00E94E2048130D9F380911C06909176
:1030A0001D068231944309F07DC081E00E945002E8
:1030B00062E081E00E947C0260E081E00E947C028C
:1030C00081E00E94E2048823D9F360E081E00E945D
:1030D0007C0260E081E00E947C0281E00E94630249
:1030E00081E00E94500281E00E94E2048823D9F32B
:1030F0006FEF81E00E94470480931C066FEF81E030
:103100000E94470480931D0681E00E94630281E0D3
:103110000E94E2048130D9F300911C0610911D0633
:1031200081E00E94500262E081E00E947C0260E047
:1031300081E00E947C0281E00E94E2048823D9F3AE
:1031400061E081E00E947C0260E081E00E947C02FC
:1031500081E00E94630281E00E94500281E00E94AF
:10316000E2048823D9F36FEF81E00E944704809343
:103170001C066FEF81E00E94470480931D0681E0EA
:103180000E94630281E00E94E2048130D9F38091C1
:103190001C0690911D06012B09F087CF8F379D41AA
:1031A00009F083CF80E094E09A83898384E690E0FD
:1031B0009C838B8381E00E94500264E081E00E9446
:1031C0007C0260E081E00E947C02CE0101963C011D
:1031D0007C0101E010E00DC0F701608181E00E94F8
:1031E0007C020430110599F00F5F1F4FFFEFEF1ABB
:1031F000FF0A0130110581F781E00E94E204882373
:10320000D9F3F701608181E00E947C02EDCF81E07B
:103210000E94630281E00E94500281E00E94E20469
:103220008823D9F36FEF81E00E94470480931C0646
:103230006FEF81E00E94470480931D0681E00E94A9
:10324000630281E00E94E2048130D9F381E00E94B0
:10325000500262E081E00E947C0260E081E00E9416
:103260007C0281E00E94E2048823D9F360E881E0D7
:103270000E947C0261E081E00E947C0281E00E9469
:10328000630281E00E94500281E00E94E2048823F0
:10329000D9F36FEF81E00E94470480931C066FEF23
:1032A00081E00E94470480931D0681E00E94630232
:1032B00081E00E94E2048130D9F385E591E09A83B0
:1032C000898384E090E09C838B8381E00E9450029C
:1032D00064E081E00E947C0260E081E00E947C0268
:1032E000730101E010E00DC0F701608181E00E94F0
:1032F0007C020430110599F00F5F1F4FFFEFEF1AAA
:10330000FF0A0130110581F781E00E94E204882361
:10331000D9F3F701608181E00E947C02EDCF81E06A
:103320000E94630281E00E94500281E00E94E20458
:103330008823D9F36FEF81E00E94470480931C0635
:103340006FEF81E00E94470480931D0681E00E9498
:10335000630281E00E94E2048130D9F380E791E0CA
:103360009A8389838BEE93ED9C838B8389EE90E027
:103370009E838D8381E00E94500266E081E00E947E
:103380007C0260E081E00E947C02730101E010E0B9
:103390000DC0F701608181E00E947C0206301105BA
:1033A00099F00F5F1F4FFFEFEF1AFF0A0130110571
:1033B00081F781E00E94E2048823D9F3F70160815C
:1033C00081E00E947C02EDCF81E00E94630281E0F7
:1033D0000E94500281E00E94E2048823D9F36FEF3B
:1033E00081E00E94470480931C066FEF81E00E94F9
:1033F000470480931D0681E00E94630281E00E94E1
:10340000E2048130D9F389E1EDE7F4E0D3010190E2
:103410000D928A95E1F7E0903307F0903407009120
:103420003507109136077F926F92812C912CA12C39
:10343000B12C94E0C92ED12C2EE130E040EF50E0C9
:103440006EE070E08CE196E00E94A0378CE592E09F
:103450009F938F9386E094E09F938F937F926F92D8
:103460000E94943FE0903307F090340700913507B5
:10347000109136077F926F9223E0C22ED12C24E662
:1034800030E04AE050E067E070E08CE196E00E94B6
:10349000A03786E592E09F938F938AE194E09F9313
:1034A0008F937F926F920E94943FE0903307F09049
:1034B000340700913507109136077F926F9228E705
:1034C00030E04AE050E067E070E08CE196E00E9476
:1034D000A03780E592E09F938F938EE294E09F93D4
:1034E0008F937F926F920E94943FE0903307F09009
:1034F000340700913507109136077F926F922CE8C0
:1035000030E04AE050E067E070E08CE196E00E9435
:10351000A03781E1E2E4F4E0D30101900D928A95B5
:10352000E1F7E0903307F0903407009135071091F0
:1035300036077F926F922CED30E04AE050E068E071
:1035400070E08CE196E00E94A03781E00E9450027A
:1035500062E081E00E947C0260E081E00E947C02E7
:103560000FB6F894DEBF0FBECDBF81E00E94E2042B
:103570008823D9F361E881E00E947C0261E081E068
:103580000E947C0281E00E94630281E00E9450025E
:1035900081E00E94E2048823D9F36FEF81E00E946A
:1035A000470480931C066FEF81E00E9447048093DC
:1035B0001D0681E00E94630281E00E94E2048130E6
:1035C000D9F381E094E09E8B8D8B82E090E0988F20
:1035D0008F8B1A8E198E81E00E94500266E081E086
:1035E0000E947C0260E081E00E947C028E010B5E02
:1035F0001F4F66246394712C0EC0F801608181E036
:103600000E947C02F6E06F167104A1F09FEF691A28
:10361000790A0F5F1F4FE1E06E16710471F781E0C8
:103620000E94E2048823D9F3F801608181E00E94BE
:103630007C02ECCF81E00E94630281E00E94500294
:1036400081E00E94E2048823D9F36FEF81E00E94B9
:10365000470480931C066FEF81E00E94470480932B
:103660001D0681E00E94630281E00E94E204813035
:10367000D9F363E574E08CE196E00E9454386A96D1
:103680000FB6F894DEBF0FBECDBFDF91CF911F9173
:103690000F91FF90EF90DF90CF90BF90AF909F90F1
:1036A0008F907F906F900895989AA09AE1E0F1E052
:1036B00080818B7F8083E2E0F1E080818B7F80835B
:1036C00085E299E00E943E06999AA1989B9AA39858
:1036D000579A5F9A0E94670A0E9403180E94900AF4
:1036E0000E94F0070E94670A2FEF83E294EF2150B7
:1036F00080409040E1F700C0000008952F923F9273
:103700004F925F926F927F928F929F92AF92BF92F1
:10371000CF92DF92EF92FF920F931F93CF93DF939D
:10372000CDB7DEB7CC54D1400FB6F894DEBF0FBE94
:10373000CDBF81E00E94500262E081E00E947C02E5
:1037400060E081E00E947C0281E00E94E204882324
:10375000D9F360E881E00E947C0261E081E00E9490
:103760007C0281E00E94630281E00E94500281E0BD
:103770000E94E2048823D9F36FEF81E00E9447049E
:1037800080931C066FEF81E00E94470480931D0622
:1037900081E00E94630281E00E94E2048130D9F35B
:1037A00085E591E09A83898384E090E09C838B8314
:1037B00081E00E94500264E081E00E947C0260E0AF
:1037C00081E00E947C02CE0101963C017C0101E077
:1037D00010E00DC0F701608181E00E947C0204309E
:1037E000110599F00F5F1F4F9FEFE91AF90A013099
:1037F000110581F781E00E94E2048823D9F3F701E3
:10380000608181E00E947C02EDCF81E00E94630232
:1038100081E00E94500281E00E94E2048823D9F3F3
:103820006FEF81E00E94470480931C066FEF81E0F8
:103830000E94470480931D0681E00E94630281E09C
:103840000E94E2048130D9F380E791E09A83898372
:103850001C821B821E821D8281E00E94500266E053
:1038600081E00E947C0260E081E00E947C027301A2
:1038700001E010E00DC0F701608181E00E947C0250
:103880000630110599F00F5F1F4FFFEFEF1AFF0A87
:103890000130110581F781E00E94E2048823D9F309
:1038A000F701608181E00E947C02EDCF81E00E94FF
:1038B000630281E00E94500281E00E94E2048823BA
:1038C000D9F36FEF81E00E94470480931C066FEFED
:1038D00081E00E94470480931D0681E00E946302FC
:1038E00081E00E94E2048130D9F380E093E09A8382
:1038F000898381E090E09C838B830E94500264E086
:1039000081E00E947C0260E081E00E947C02730101
:1039100001E010E00DC0F701608181E00E947C02AF
:103920000430110599F00F5F1F4FFFEFEF1AFF0AE8
:103930000130110581F781E00E94E2048823D9F368
:10394000F701608181E00E947C02EDCF81E00E945E
:10395000630281E00E94500281E00E94E204882319
:10396000D9F36FEF81E00E94470480931C066FEF4C
:1039700081E00E94470480931D0681E00E9463025B
:1039800081E00E94E2048130D9F3809128078111FF
:103990000C944C2D8FEF90E02FEF3FEF42E551E07C
:1039A0005A8349833C832B839E838D8381E00E94CD
:1039B000500266E081E00E947C0260E081E00E94AB
:1039C0007C02730101E010E00DC0F701608181E02D
:1039D0000E947C020630110599F00F5F1F4FFFEF28
:1039E000EF1AFF0A0130110581F781E00E94E2041D
:1039F0008823D9F3F701608181E00E947C02EDCF3A
:103A000081E00E94630281E00E94500281E00E94F6
:103A1000E2048823D9F36FEF81E00E94470480938A
:103A20001C066FEF81E00E94470480931D0681E031
:103A30000E94630281E00E94E2048130D9F380E5B4
:103A400091E09A83898380E797E09C838B8388E366
:103A500096E09E838D8388EF94E098878F8388E734
:103A600092E09A87898781E00E9450026AE081E0B3
:103A70000E947C0260E081E00E947C02730101E010
:103A800010E00DC0F701608181E00E947C020A30E5
:103A9000110599F00F5F1F4FFFEFEF1AFF0A01307A
:103AA000110581F781E00E94E2048823D9F3F70130
:103AB000608181E00E947C02EDCF81E00E94630280
:103AC00081E00E94500281E00E94E2048823D9F341
:103AD0006FEF81E00E94470480931C066FEF81E046
:103AE0000E94470480931D0681E00E94630281E0EA
:103AF0000E94E2048130D9F3809140098F93809134
:103B00003F098F9380913E098F9380913D098F9358
:103B10008DE994E09F938F931E01FDEE2F1AFEEF27
:103B20003F0A3F922F920E94943FE0903307F0901B
:103B3000340700913507109136073F922F92812C60
:103B4000912CA12CB12CA5E0CA2ED12C28EC30E070
:103B500048E151E06FE070E08CE196E00E94A03710
:103B6000E0903307F0903407009135071091360745
:103B700083EA94E09F938F93B4E0CB2ED12C2CEC6E
:103B800030E042E251E06EE070E08CE196E00E94AD
:103B9000A03780E093E09A83898382E090E09C8361
:103BA0008B8381E00E94500264E081E00E947C02ED
:103BB00060E081E00E947C0273010FB6F894DEBFE2
:103BC0000FBECDBF01E010E00DC0F701608181E0C4
:103BD0000E947C020430110599F00F5F1F4F9FEF88
:103BE000E91AF90A0130110581F781E00E94E20427
:103BF0008823D9F3F701608181E00E947C02EDCF38
:103C000081E00E94630281E00E94500281E00E94F4
:103C1000E2048823D9F36FEF81E00E944704809388
:103C20001C066FEF81E00E94470480931D0681E02F
:103C30000E94630281E00E94E2048130D9F3809106
:103C4000290781110C94462D8FEF90E02FEF3FEF65
:103C500042E551E05A8349833C832B839E838D83C5
:103C600081E00E94500266E081E00E947C0260E0F8
:103C700081E00E947C02730101E010E00DC0F701B9
:103C8000608181E00E947C020630110599F00F5F8F
:103C90001F4FFFEFEF1AFF0A0130110581F781E096
:103CA0000E94E2048823D9F3F701608181E00E9439
:103CB0007C02EDCF81E00E94630281E00E9450020D
:103CC00081E00E94E2048823D9F36FEF81E00E9433
:103CD000470480931C066FEF81E00E9447048093A5
:103CE0001D0681E00E94630281E00E94E2048130AF
:103CF000D9F380E591E09A83898380E797E09C83FC
:103D00008B8388EB98E09E838D8388EF94E098877F
:103D10008F8388E792E09A87898781E00E9450022A
:103D20006AE081E00E947C0260E081E00E947C0207
:103D3000730101E010E00DC0F701608181E00E9495
:103D40007C020A30110599F00F5F1F4FFFEFEF1A49
:103D5000FF0A0130110581F781E00E94E204882307
:103D6000D9F3F701608181E00E947C02EDCF81E010
:103D70000E94630281E00E94500281E00E94E204FE
:103D80008823D9F36FEF81E00E94470480931C06DB
:103D90006FEF81E00E94470480931D0681E00E943E
:103DA000630281E00E94E2048130D9F380914409EA
:103DB0008F93809143098F93809142098F938091D3
:103DC00041098F938DE994E09F938F933F922F92B7
:103DD0000E94943FE0903307F0903407009135073C
:103DE000109136073F922F92812C912CA12CB12C4F
:103DF000E5E0CE2ED12C28E131E046E151E06FE044
:103E000070E08CE196E00E94A037E0903307F090DC
:103E10003407009135071091360785EA94E09F93A7
:103E20008F93F4E0CF2ED12C2CE131E042E251E02F
:103E30006EE070E08CE196E00E94A03780E093E0B5
:103E40009A83898387E090E09C838B8381E00E9442
:103E5000500264E081E00E947C0260E081E00E9408
:103E60007C0273010FB6F894DEBF0FBECDBF01E038
:103E700010E00DC0F701608181E00E947C020430F7
:103E8000110599F00F5F1F4F9FEFE91AF90A0130F2
:103E9000110581F781E00E94E2048823D9F3F7013C
:103EA000608181E00E947C02EDCF81E00E9463028C
:103EB00081E00E94500281E00E94E2048823D9F34D
:103EC0006FEF81E00E94470480931C066FEF81E052
:103ED0000E94470480931D0681E00E94630281E0F6
:103EE0000E94E2048130D9F382E591E09A838983CC
:103EF00087E89FED9C838B8389E890E09E838D8388
:103F000081E00E94500266E081E00E947C0260E055
:103F100081E00E947C02730101E010E00DC0F70116
:103F2000608181E00E947C020630110599F00F5FEC
:103F30001F4FFFEFEF1AFF0A0130110581F781E0F3
:103F40000E94E2048823D9F3F701608181E00E9496
:103F50007C02EDCF81E00E94630281E00E9450026A
:103F600081E00E94E2048823D9F36FEF81E00E9490
:103F7000470480931C066FEF81E00E944704809302
:103F80001D0681E00E94630281E00E94E20481300C
:103F9000D9F380E591E09A83898380E79CE09C8354
:103FA0008B8388E797E09E838D8388EF94E09887E2
:103FB0008F839A87898781E00E9450026AE081E0BE
:103FC0000E947C0260E081E00E947C02730101E0BB
:103FD00010E00DC0F701608181E00E947C020A3090
:103FE000110599F00F5F1F4FFFEFEF1AFF0A013025
:103FF000110581F781E00E94E2048823D9F3F701DB
:10400000608181E00E947C02EDCF81E00E9463022A
:1040100081E00E94500281E00E94E2048823D9F3EB
:104020006FEF81E00E94470480931C066FEF81E0F0
:104030000E94470480931D0681E00E94630281E094
:104040000E94E2048130D9F380911E0290911F02F8
:104050000197FC01EE0FFF1FE80FF91FEE0FFF1F86
:104060008091230990912409E80FF91FEE0FFF1F9B
:10407000ED5FF74F81818F9380818F9381ED94E085
:104080009F938F933F922F920E94943F809133078A
:1040900090913407A0913507B091360721E031E0C7
:1040A0003A8329832FE030E03C832B8320E83CE0F7
:1040B0003E832D8320E837E038872F839A878987CE
:1040C000BC87AB8784E090E09E878D87188A1F8627
:1040D0001A8A198A67EA74E0CE0143960E949A060A
:1040E0006C01C618D70881E00E9450026C2D81E057
:1040F0000E947C026D2D81E00E947C020F900F9047
:104100000F900F900F900F90C114D104F9F073012C
:1041100000E010E00BC0F70161917F0181E00E9497
:104120007C020F5F1F4FC016D10681F0C8018F734C
:104130009927892B81F781E00E94E2048111EBCF5E
:1041400081E00E94E2048823B1F3E5CF81E00E9480
:10415000630281E00E94500281E00E94E204882311
:10416000D9F36FEF81E00E94470480931C066FEF44
:1041700081E00E94470480931D0681E00E94630253
:1041800081E00E94E2048130D9F380E093E09A83D9
:10419000898383E090E09C838B8381E00E945002BE
:1041A00064E081E00E947C0260E081E00E947C0289
:1041B000730101E010E00DC0F701608181E00E9411
:1041C0007C020430110599F00F5F1F4FFFEFEF1ACB
:1041D000FF0A0130110581F781E00E94E204882383
:1041E000D9F3F701608181E00E947C02EDCF81E08C
:1041F0000E94630281E00E94500281E00E94E2047A
:104200008823D9F36FEF81E00E94470480931C0656
:104210006FEF81E00E94470480931D0681E00E94B9
:10422000630281E00E94E2048130D9F380912A0781
:1042300081110C94402D8FEF90E02FEF3FEF42E57E
:1042400051E05A8349833C832B839E838D8381E095
:104250000E94500266E081E00E947C0260E081E002
:104260000E947C02730101E010E00DC0F701608143
:1042700081E00E947C020630110599F00F5F1F4F0C
:10428000FFEFEF1AFF0A0130110581F781E00E946C
:10429000E2048823D9F3F701608181E00E947C0267
:1042A000EDCF81E00E94630281E00E94500281E034
:1042B0000E94E2048823D9F36FEF81E00E94470453
:1042C00080931C066FEF81E00E94470480931D06D7
:1042D00081E00E94630281E00E94E2048130D9F310
:1042E00080E591E09A83898380E79CE09C838B83BF
:1042F00088E391E09E838D8388EF94E098878F8395
:1043000088E792E09A87898781E00E9450026AE0FC
:1043100081E00E947C0260E081E00E947C027301E7
:1043200001E010E00DC0F701608181E00E947C0295
:104330000A30110599F00F5F1F4FFFEFEF1AFF0AC8
:104340000130110581F781E00E94E2048823D9F34E
:10435000F701608181E00E947C02EDCF81E00E9444
:10436000630281E00E94500281E00E94E2048823FF
:10437000D9F36FEF81E00E94470480931C066FEF32
:1043800081E00E94470480931D0681E00E94630241
:1043900081E00E94E2048130D9F380901402909071
:1043A0001502A0901602B090170280911E02909103
:1043B0001F0201978C01000F111F080F191F000F1A
:1043C000111F000F111F0D56174F20E030E040E87D
:1043D0005FE3412C512CCB5BDE4F1882C554D1409A
:1043E000CA5BDE4F1882C654D140C95BDE4F1882CB
:1043F000C754D140C85BDE4F1882C854D14011C0A9
:10440000B201052C000C880B990B0E94C43A9B0149
:10441000AC0160E070E080E090E40E94E63B9B012C
:10442000AC01F801619171918F01072E000C880B8E
:10443000990BC75BDE4F2883C954D140C65BDE4F62
:104440003883CA54D140C55BDE4F4883CB54D1403A
:10445000C45BDE4F5883CC54D1400E94C43A6B01F8
:104460007C01C75BDE4F2881C954D140C65BDE4F5B
:104470003881CA54D140C55BDE4F4881CB54D1400E
:10448000C45BDE4F5881CC54D140C501B4010E94B9
:104490001A3A9B01AC01C701B6010E94793B9B010E
:1044A000AC01CB5BDE4FB881C554D140CA5BDE4F57
:1044B000A881C654D140C95BDE4FF881C754D140B2
:1044C000C85BDE4FE881C854D1406B2F7A2F8F2F05
:1044D0009E2F0E94A939CB5BDE4F6883C554D14023
:1044E000CA5BDE4F7883C654D140C95BDE4F8883F8
:1044F000C754D140C85BDE4F9883C854D140FFEF0A
:104500004F1A5F0A26E04216510409F079CF9F93B3
:104510008F937F936F938CEA94E09F938F933F9256
:104520002F920E94943FE0903307F090340700915F
:104530003507109136073F922F92812C912CA12C98
:10454000B12C95E0C92ED12C28E230E04BEC51E0A3
:104550006FE070E08CE196E00E94A037E0903307B6
:10456000F090340700913507109136078EEC94E0F7
:104570009F938F9324E0C22ED12C24E130E041EDB3
:1045800051E06CE070E08CE196E00E94A03780E0A2
:1045900093E09A8389835C824B8281E00E9450027F
:1045A00064E081E00E947C0260E081E00E947C0285
:1045B00073010FB6F894DEBF0FBECDBF01E010E06F
:1045C0000DC0F701608181E00E947C02043011057A
:1045D00099F00F5F1F4F9FEFE91AF90A013011059B
:1045E00081F781E00E94E2048823D9F3F70160811A
:1045F00081E00E947C02EDCF81E00E94630281E0B5
:104600000E94500281E00E94E2048823D9F36FEFF8
:1046100081E00E94470480931C066FEF81E00E94B6
:10462000470480931D0681E00E94630281E00E949E
:10463000E2048130D9F380912D0781110C943A2D39
:1046400089E890E027E83FED42E551E05A8349834D
:104650003C832B839E838D8381E00E94500266E021
:1046600081E00E947C0260E081E00E947C02730194
:1046700001E010E00DC0F701608181E00E947C0242
:104680000630110599F00F5F1F4FFFEFEF1AFF0A79
:104690000130110581F781E00E94E2048823D9F3FB
:1046A000F701608181E00E947C02EDCF81E00E94F1
:1046B000630281E00E94500281E00E94E2048823AC
:1046C000D9F36FEF81E00E94470480931C066FEFDF
:1046D00081E00E94470480931D0681E00E946302EE
:1046E00081E00E94E2048130D9F380E591E09A8371
:1046F000898380E79CE09C838B8388EB93E09E8397
:104700008D8388EF94E098878F8388E792E09A877B
:10471000898781E00E9450026AE081E00E947C0269
:1047200060E081E00E947C02730101E010E00DC0B6
:10473000F701608181E00E947C020A30110599F046
:104740000F5F1F4FFFEFEF1AFF0A0130110581F7CE
:1047500081E00E94E2048823D9F3F701608181E0BF
:104760000E947C02EDCF81E00E94630281E00E9402
:10477000500281E00E94E2048823D9F36FEF81E0C8
:104780000E94470480931C066FEF81E00E9447045B
:1047900080931D0681E00E94630281E00E94E20492
:1047A0008130D9F38091330790913407A091350778
:1047B000B091360721E031E03A8329832DE030E0E3
:1047C0003C832B8320E83CE03E832D8320EC33E0C8
:1047D00038872F839A878987BC87AB8784E090E0EE
:1047E0009E878D87188A1F861A8A198A61EB74E062
:1047F000CE0143960E949A066C01C618D70881E044
:104800000E9450026C2D81E00E947C026D2D81E09F
:104810000E947C02C114D104F9F0730100E010E0A1
:104820000BC0F70161917F0181E00E947C020F5F64
:104830001F4FC016D10681F0C8018F739927892BAD
:1048400081F781E00E94E2048111EBCF81E00E94B8
:10485000E2048823B1F3E5CF81E00E94630281E0A6
:104860000E94500281E00E94E2048823D9F36FEF96
:1048700081E00E94470480931C066FEF81E00E9454
:10488000470480931D0681E00E94630281E00E943C
:10489000E2048130D9F380E093E09A83898384E055
:1048A00090E09C838B8381E00E94500264E081E071
:1048B0000E947C0260E081E00E947C02730101E0C2
:1048C00010E00DC0F701608181E00E947C0204309D
:1048D000110599F00F5F1F4FFFEFEF1AFF0A01302C
:1048E000110581F781E00E94E2048823D9F3F701E2
:1048F000608181E00E947C02EDCF81E00E94630232
:1049000081E00E94500281E00E94E2048823D9F3F2
:104910006FEF81E00E94470480931C066FEF81E0F7
:104920000E94470480931D0681E00E94630281E09B
:104930000E94E2048130D9F380912B0781110C94FD
:10494000572D8FEF90E02FEF3FEF42E551E05A8374
:1049500049833C832B839E838D8381E00E94500298
:1049600066E081E00E947C0260E081E00E947C02BF
:10497000730101E010E00DC0F701608181E00E9449
:104980007C020630110599F00F5F1F4FFFEFEF1A01
:10499000FF0A0130110581F781E00E94E2048823BB
:1049A000D9F3F701608181E00E947C02EDCF81E0C4
:1049B0000E94630281E00E94500281E00E94E204B2
:1049C0008823D9F36FEF81E00E94470480931C068F
:1049D0006FEF81E00E94470480931D0681E00E94F2
:1049E000630281E00E94E2048130D9F380E591E026
:1049F0009A83898380E797E09C838B8388E391E0A7
:104A00009E838D8388EF94E098878F8388E792E078
:104A10009A87898781E00E9450026AE081E00E94C3
:104A20007C0260E081E00E947C02730101E010E002
:104A30000DC0F701608181E00E947C020A301105FF
:104A400099F00F5F1F4FFFEFEF1AFF0A01301105BA
:104A500081F781E00E94E2048823D9F3F7016081A5
:104A600081E00E947C02EDCF81E00E94630281E040
:104A70000E94500281E00E94E2048823D9F36FEF84
:104A800081E00E94470480931C066FEF81E00E9442
:104A9000470480931D0681E00E94630281E00E942A
:104AA000E2048130D9F380911E0290911F02019798
:104AB000FC01EE0FFF1FE80FF91FEE0FFF1F8091A3
:104AC000230990912409E80FF91FEE0FFF1FED56FF
:104AD000F74F81818F9380818F9381ED94E09F9335
:104AE0008F933F922F920E94943FE0903307F09073
:104AF000340700913507109136073F922F92812C91
:104B0000912CA12CB12C85E0C82ED12C28E230E0CC
:104B100048EF50E06FE070E08CE196E00E94A03733
:104B20008091330790913407A0913507B0913607F3
:104B300021E031E03A8329832CE030E03C832B8371
:104B400020EC38E03E832D8320E831E038872F8346
:104B50009A878987BC87AB8784E090E09E878D87A2
:104B6000188A1F861A8A198A6BEB74E0CE01439665
:104B70000E949A066C01C618D70881E00E94500274
:104B80006C2D81E00E947C026D2D81E00E947C02F0
:104B90000FB6F894DEBF0FBECDBFC114D104F9F03B
:104BA000730100E010E00BC0F70161917F0181E02B
:104BB0000E947C020F5F1F4FC016D10681F0C80112
:104BC0008F739927892B81F781E00E94E20481117C
:104BD000EBCF81E00E94E2048823B1F3E5CF81E0CE
:104BE0000E94630281E00E94500281E00E94E20480
:104BF0008823D9F36FEF81E00E94470480931C065D
:104C00006FEF81E00E94470480931D0681E00E94BF
:104C1000630281E00E94E2048130D9F380E093E0F6
:104C20009A83898389E090E09C838B8381E00E9452
:104C3000500264E081E00E947C0260E081E00E941A
:104C40007C02730101E010E00DC0F701608181E09A
:104C50000E947C020430110599F00F5F1F4FFFEF97
:104C6000EF1AFF0A0130110581F781E00E94E2048A
:104C70008823D9F3F701608181E00E947C02EDCFA7
:104C800081E00E94630281E00E94500281E00E9464
:104C9000E2048823D9F36FEF81E00E9447048093F8
:104CA0001C066FEF81E00E94470480931D0681E09F
:104CB0000E94630281E00E94E2048130D9F3809176
:104CC00030078111EFC68FEF90E02FEF3FEF42E505
:104CD00051E05A8349833C832B839E838D8381E0FB
:104CE0000E94500266E081E00E947C0260E081E068
:104CF0000E947C02730101E010E00DC0F7016081A9
:104D000081E00E947C020630110599F00F5F1F4F71
:104D1000FFEFEF1AFF0A0130110581F781E00E94D1
:104D2000E2048823D9F3F701608181E00E947C02CC
:104D3000EDCF81E00E94630281E00E94500281E099
:104D40000E94E2048823D9F36FEF81E00E944704B8
:104D500080931C066FEF81E00E94470480931D063C
:104D600081E00E94630281E00E94E2048130D9F375
:104D700080E591E09A83898380E797E09C838B8329
:104D800088EB93E09E838D8388EF94E098878F83F0
:104D900088E792E09A87898781E00E9450026AE062
:104DA00081E00E947C0260E081E00E947C0273014D
:104DB00001E010E00DC0F701608181E00E947C02FB
:104DC0000A30110599F00F5F1F4FFFEFEF1AFF0A2E
:104DD0000130110581F781E00E94E2048823D9F3B4
:104DE000F701608181E00E947C02EDCF81E00E94AA
:104DF000630281E00E94500281E00E94E204882365
:104E0000D9F36FEF81E00E94470480931C066FEF97
:104E100081E00E94470480931D0681E00E946302A6
:104E200081E00E94E2048130D9F3609123097091FE
:104E30002409072E000C880B990B0E94C43A9B0191
:104E4000AC0160E070E080E090E40E94E63B9F935C
:104E50008F937F936F9381EC94E09F938F933F9216
:104E60002F920E94943F8091330790913407A09134
:104E70003507B091360721E031E03A83298320E1FC
:104E800030E03C832B8320E837E03E832D8320EC09
:104E900033E038872F839A878987BC87AB8784E084
:104EA00090E09E878D87188A1F861A8A198AB10119
:104EB000CE0143960E949A066C01C618D70881E07D
:104EC0000E9450026C2D81E00E947C026D2D81E0D9
:104ED0000E947C020FB6F894DEBF0FBECDBFC11496
:104EE000D104F9F0730100E010E00BC0F70161910B
:104EF0007F0181E00E947C020F5F1F4FC016D10628
:104F000081F0C8018F739927892B81F781E00E9476
:104F1000E2048111EBCF81E00E94E2048823B1F327
:104F2000E5CF81E00E94630281E00E94500281E0AF
:104F30000E94E2048823D9F36FEF81E00E944704C6
:104F400080931C066FEF81E00E94470480931D064A
:104F500081E00E94630281E00E94E2048130D9F383
:104F60006091230970912409072E000C880B990B7E
:104F70000E94C43A9B01AC0160E070E080E090E4E4
:104F80000E94E63B9B01AC016091140270911502F6
:104F900080911602909117020E941A3A9F938F9364
:104FA0007F936F9388EC94E09F938F933F922F921F
:104FB0000E94943FE0903307F0903407009135074A
:104FC000109136073F922F92812C912CA12CB12C5D
:104FD00075E0C72ED12C26E930E041E351E06BE0CB
:104FE00070E08CE196E00E94A037E0903307F090EB
:104FF000340700913507109136078DEC94E09F93AC
:105000008F93E3E0CE2ED12C2EE830E042E351E046
:105010006AE070E08CE196E00E94A03780E093E0C7
:105020009A8389838AE090E09C838B8381E00E944D
:10503000500264E081E00E947C0260E081E00E9416
:105040007C0273010FB6F894DEBF0FBECDBF01E046
:1050500010E00DC0F701608181E00E947C02043005
:10506000110599F00F5F1F4F9FEFE91AF90A013000
:10507000110581F781E00E94E2048823D9F3F7014A
:10508000608181E00E947C02EDCF81E00E9463029A
:1050900081E00E94500281E00E94E2048823D9F35B
:1050A0006FEF81E00E94470480931C066FEF81E060
:1050B0000E94470480931D0681E00E94630281E004
:1050C0000E94E2048130D9F3809131078111F5C447
:1050D0008FEF90E02FEF3FEF42E551E05A83498395
:1050E0003C832B839E838D8381E00E94500266E087
:1050F00081E00E947C0260E081E00E947C027301FA
:1051000001E010E00DC0F701608181E00E947C02A7
:105110000630110599F00F5F1F4FFFEFEF1AFF0ADE
:105120000130110581F781E00E94E2048823D9F360
:10513000F701608181E00E947C02EDCF81E00E9456
:10514000630281E00E94500281E00E94E204882311
:10515000D9F36FEF81E00E94470480931C066FEF44
:1051600081E00E94470480931D0681E00E94630253
:1051700081E00E94E2048130D9F380E591E09A83D6
:10518000898380E792E09C838B8388E792E09E830B
:105190008D8388EF94E098878F839A87898781E051
:1051A0000E9450026AE081E00E947C0260E081E09F
:1051B0000E947C02730101E010E00DC0F7016081E4
:1051C00081E00E947C020A30110599F00F5F1F4FA9
:1051D000FFEFEF1AFF0A0130110581F781E00E940D
:1051E000E2048823D9F3F701608181E00E947C0208
:1051F000EDCF81E00E94630281E00E94500281E0D5
:105200000E94E2048823D9F36FEF81E00E944704F3
:1052100080931C066FEF81E00E94470480931D0677
:1052200081E00E94630281E00E94E2048130D9F3B0
:1052300080911F028F9380911E028F9380ED94E0E6
:105240009F938F933F922F920E94943FE090330759
:10525000F090340700913507109136073F922F9256
:10526000812C912CA12CB12C64E0C62ED12C20E5F0
:1052700030E040E550E060E170E08CE196E00E94B3
:10528000A0370FB6F894DEBF0FBECDBF80913809AE
:10529000811133C080E093E09A83898385E090E0B8
:1052A0009C838B8381E00E94500264E081E00E9435
:1052B0007C0260E081E00E947C02730101E010E06A
:1052C0000EC0F701608181E00E947C02043011056C
:1052D00009F4F8C30F5F1F4F9FEFE91AF90A013075
:1052E000110579F781E00E94E2048823D9F3F701E0
:1052F000608181E00E947C02EDCF82E591E09A839B
:10530000898386E696E69C838B838FEF90E09E836D
:105310008D8381E00E94500266E081E00E947C0261
:1053200060E081E00E947C02730101E010E00DC0AA
:10533000F701608181E00E947C020630110599F03E
:105340000F5F1F4FFFEFEF1AFF0A0130110581F7C2
:1053500081E00E94E2048823D9F3F701608181E0B3
:105360000E947C02EDCF81E00E94630281E00E94F6
:10537000500281E00E94E2048823D9F36FEF81E0BC
:105380000E94470480931C066FEF81E00E9447044F
:1053900080931D0681E00E94630281E00E94E20486
:1053A0008130D9F380E591E09A83898380EB93E0A3
:1053B0009C838B8380EE93E09E838D8380E897E0CF
:1053C00098878F8388E192E09A87898781E00E949D
:1053D00050026AE081E00E947C0260E081E00E946D
:1053E0007C02730101E010E00DC0F701608181E0F3
:1053F0000E947C020A30110599F00F5F1F4FFFEFEA
:10540000EF1AFF0A0130110581F781E00E94E204E2
:105410008823D9F3F701608181E00E947C02EDCFFF
:1054200081E00E94630281E00E94500281E00E94BC
:10543000E2048823D9F36FEF81E00E944704809350
:105440001C066FEF81E00E94470480931D0681E0F7
:105450000E94630281E00E94E2048130D9F3E0906F
:105460003307F090340700913507109136078AED25
:1054700094E09F938F93812C912CA12CB12C44E02C
:10548000C42ED12C2EE630E048E750E06DE070E00D
:105490008CE196E00E94A037E0903307F09034074B
:1054A000009135071091360780EE94E09F938F931B
:1054B0002CE830E048E750E06DE070E08CE196E0E9
:1054C0000E94A037E0903307F09034070091350731
:1054D0001091360786EE94E09F938F9329E630E093
:1054E00044EE50E06CE070E08CE196E00E94A03762
:1054F00080E591E09A83898380EB93E09C838B83A2
:1055000080EF98E09E838D8380E897E098878F8373
:1055100088E292E09A87898781E00E9450026AE0DF
:1055200081E00E947C0260E081E00E947C027301C5
:105530000F900F900F900F900F900F9001E010E0E0
:105540000DC0F701608181E00E947C020A301105E4
:1055500099F00F5F1F4FFFEFEF1AFF0A013011059F
:1055600081F781E00E94E2048823D9F3F70160818A
:1055700081E00E947C02EDCF81E00E94630281E025
:105580000E94500281E00E94E2048823D9F36FEF69
:1055900081E00E94470480931C066FEF81E00E9427
:1055A000470480931D0681E00E94630281E00E940F
:1055B000E2048130D9F3E0903307F0903407009192
:1055C0003507109136078AED94E09F938F93812CD5
:1055D000912CA12CB12C34E0C32ED12C2EE031E043
:1055E00048E750E06DE070E08CE196E00E94A03763
:1055F000E0903307F090340700913507109136079B
:1056000080EE94E09F938F932CE231E048E750E0E6
:105610006DE070E08CE196E00E94A037E0903307E7
:10562000F0903407009135071091360788EE94E02A
:105630009F938F9329E031E044EE50E06CE070E0FE
:105640008CE196E00E94A03780E591E09A838983FF
:1056500080E59BE09C838B8380EE93E09E838D832B
:1056600080E897E098878F8388E192E09A8789871E
:1056700081E00E9450026AE081E00E947C0260E0CA
:1056800081E00E947C0273010F900F900F900F90A9
:105690000F900F9001E010E00DC0F701608181E0F4
:1056A0000E947C020A30110599F00F5F1F4FFFEF37
:1056B000EF1AFF0A0130110581F781E00E94E20430
:1056C0008823D9F3F701608181E00E947C02EDCF4D
:1056D00081E00E94630281E00E94500281E00E940A
:1056E000E2048823D9F36FEF81E00E94470480939E
:1056F0001C066FEF81E00E94470480931D0681E045
:105700000E94630281E00E94E2048130D9F3E090BC
:105710003307F090340700913507109136078AED72
:1057200094E09F938F93812C912CA12CB12C24E099
:10573000C22ED12C2EE630E048E651E06DE070E05C
:105740008CE196E00E94A037E0903307F090340798
:10575000009135071091360780EE94E09F938F9368
:105760002CE830E048E651E06DE070E08CE196E036
:105770000E94A037E0903307F0903407009135077E
:10578000109136078AEE94E09F938F9329E630E0DC
:1057900044ED51E06CE070E08CE196E00E94A037AF
:1057A00080E591E09A83898380E59BE09C838B83ED
:1057B00080EF98E09E838D8380E897E098878F83C1
:1057C00088E292E09A87898781E00E9450026AE02D
:1057D00081E00E947C0260E081E00E947C02730113
:1057E0000F900F900F900F900F900F9001E010E02E
:1057F0000DC0F701608181E00E947C020A30110532
:1058000099F00F5F1F4FFFEFEF1AFF0A01301105EC
:1058100081F781E00E94E2048823D9F3F7016081D7
:1058200081E00E947C02EDCF81E00E94630281E072
:105830000E94500281E00E94E2048823D9F36FEFB6
:1058400081E00E94470480931C066FEF81E00E9474
:10585000470480931D0681E00E94630281E00E945C
:10586000E2048130D9F3E0903307F09034070091DF
:105870003507109136078AED94E09F938F93812C22
:10588000912CA12CB12C94E0C92ED12C2EE031E02A
:1058900048E651E06DE070E08CE196E00E94A037B0
:1058A0008091330790913407A0913507B091360766
:1058B00021E031E03A8329832DE030E03C832B83E3
:1058C00020E43BE03E832D8320E639E038872F83B8
:1058D0009A878987BC87AB8784E090E09E878D8715
:1058E000188A1F861A8A198A60EE74E0CE014396E0
:1058F0000E949A067C01E618F70881E00E94500297
:105900006E2D81E00E947C026F2D81E00E947C025E
:105910000F900F90E114F104F1F000E010E00BC0E3
:10592000F30161913F0181E00E947C020F5F1F4FF4
:10593000E016F10681F098012F733327232B81F7AE
:1059400081E00E94E2048111EBCF81E00E94E20439
:105950008823B1F3E5CF81E00E94630281E00E94D9
:10596000500281E00E94E2048823D9F36FEF81E0C6
:105970000E94470480931C066FEF81E00E94470459
:1059800080931D0681E00E94630281E00E94E20490
:105990008130D9F3E0903307F09034070091350758
:1059A000109136078CEE94E09F938F93812C912C6D
:1059B000A12CB12C84E0C82ED12C29E031E044ED9B
:1059C00051E06CE070E08CE196E00E94A0370F900F
:1059D0000F9081E00E94500262E081E00E947C0210
:1059E00060E081E00E947C0281E00E94E204882362
:1059F000D9F361E881E00E947C0261E081E00E94CD
:105A00007C0281E00E94630281E00E94500281E0FA
:105A10000E94E2048823D9F36FEF81E00E944704DB
:105A200080931C066FEF81E00E94470480931D065F
:105A300081E00E94630281E00E94E2048130D9F398
:105A4000C45BDE4F0FB6F894DEBF0FBECDBFDF9153
:105A5000CF911F910F91FF90EF90DF90CF90BF906B
:105A6000AF909F908F907F906F905F904F903F90FE
:105A70002F9008958DEA90E026EE38ED0C942423C3
:105A80008DEA90E026EE38ED0C941F218DEA90E02F
:105A900026EE38ED0C94281E8DEA90E026EE38EDC7
:105AA0000C94CE1C8DEA90E026EE38ED10C98DEAFC
:105AB00090E026EE38ED0C94A5248DEA90E026EED9
:105AC00038ED0ACB81E00E94630281E00E9450021F
:105AD00081E00E94E2048823D9F36FEF81E00E9405
