:100000000C9445010C9476010C945C090C945C09E9
:100010000C94A5090C9476010C945C090C9476015F
:100020000C9476010C9476010C9476010C94760174
:100030000C9476010C9476010C9476010C94760164
:100040000C9476010C9476010C9476010C94760154
:100050000C9476010C9476010C9476010C94760144
:100060000C9476010C9476010C9476010C94760134
:100070000C9476010C9476010C9476010C94760124
:100080000C9476010C9476010C9476010C94760114
:100090000C9476010C9476010C9476010C94760104
:1000A0000C9476010C9476010C9476010C947601F4
:1000B0000C9476010C9476010C9476010C947601E4
:1000C0000C9476010C9476010C9476010C947601D4
:1000D0000C9476010C9476010C9476010C947601C4
:1000E0000C947601A41FAB1FB21FB91FC01FC71FFE
:1000F000CE1FD51FDC1FE31F9D1F961F0C94A41F4E
:100100000C9446070C94CE1F0C94E31F0C94B91F5B
:100110000C94C71F0C949D1F0C94DC1F0C94B21FF1
:100120000C94D22A0C94961F0C94AB1F0C94C01FF5
:100130000C94D51F0C9456076E616E00696E6600B4
:100140006364696E6F70737578585B656667454662
:100150004700616E006E66696E69747900CDCCCC23
:100160003D0AD7233C17B7D13877CC2B329595E68B
:10017000241FB14F0A000020410000C84200401C6B
:100180004620BCBE4CCA1B0E5AAEC59D7400407AB8
:1001900010F35A00A0724E18090010A5D4E8000010
:1001A000E87648170000E40B54020000CA9A3B00AE
:1001B0000000E1F505000080969800000040420F25
:1001C000000000A08601000000102700000000E8E9
:1001D00003000000006400000000000A00000000AE
:1001E000000100000000002C76D888DC674F08234F
:1001F000DFC1DFAE59E1B1B796E5E3E453C63AE6B5
:1002000051997696E8E6C28426EB898C9B62ED4094
:100210007C6FFCEFBC9C9F40F2BAA56FA5F49005E3
:100220005A2AF75C936B6CF9676DC11BFCE0E40D17
:1002300047FEF520E6B500D0ED902E03009435770B
:10024000050080841E080000204E0A000000C80C33
:10025000333333330F986E12831141EF8D2114899C
:100260003BE65516CFFEE6DB18D1844B381BF77CF6
:100270001D901DA4BBE424203284725E228100C93B
:10028000F124ECA1E53D2700D22A11241FBECFEFB7
:10029000D1E2DEBFCDBF00E00CBF13E0A0E0B2E0D2
:1002A000ECE3FDE500E00BBF02C007900D92AC341B
:1002B000B107D9F724E0ACE4B3E001C01D92AA3A3B
:1002C000B207E1F712E0CAE8D2E000E006C02297E8
:1002D0000109FE010BBF0E94082BC838D10780E03E
:1002E0000807A9F70E94872A0C949C2E0C94000002
:1002F000279A08952F9A08952F9808951F9A089580
:100300000097D9F020E030E02F9A4FE75AE166E0FD
:10031000415050406040E1F700C000002F984FE787
:100320005AE166E0415050406040E1F700C00000F3
:100330002F5F3F4F2817390739F70895813009F4A7
:1003400041C0823009F44BC0833009F472C084305C
:1003500009F47DC0853009F498C0863009F008950D
:100360002FEF81EE94E0215080409040E1F700C0F3
:10037000000080910101846080930101809102015D
:100380008460809302018091010182608093010169
:10039000809102018260809302018091010181605D
:1003A000809301018091020181608093020180911C
:1003B0000101877F8093010180910201877F8093F3
:1003C00002010895809A889A6F9A779A839A8B9AF5
:1003D000819A899A82988A986E98769808950B9A4D
:1003E00013982FEF81EE94E0215080409040E1F788
:1003F00000C0000080910701806880930701809110
:1004000008018068809308018091070182608093D1
:1004100007018091080182608093080180910701A3
:1004200088608093070180910801886080930801AB
:1004300008950B9A13982FEF81EE94E0215080409D
:100440009040E1F700C00000099A119ADDCF809139
:100450000401806180930401809105018F7E809367
:1004600005012FEF81EE94E0215080409040E1F7AC
:1004700000C0000080910401806480930401809199
:100480000501806480930501BFCF0F9A17982FEF65
:1004900081EE94E0215080409040E1F700C00000E0
:1004A0000D9A159A809107018260809307018091CF
:1004B0000801826080930801809107018860809321
:1004C00007018091080188608093080180910701ED
:1004D0008F7D80930701809108018F7D80930801B3
:1004E0000895813009F0089577988AE08A95F1F7A8
:1004F000779A81E08A95F1F70895813009F1823089
:1005000011F1833059F1843081F0853071F18630FA
:1005100009F0089580910201826080930201809128
:1005200002018B7F809302010895809108018D7FE5
:1005300080930801809105018F7B809305010895C8
:100540008B9888980895809108018D7F8093080189
:10055000809108018F7780930801089580910801A8
:100560008D7F8093080111980895809108018D7FF7
:100570008093080115980895813031F1823041F15E
:10058000833061F1843081F0853051F1863009F09B
:10059000089580910201826080930201809102019E
:1005A00084608093020108958091050180648093A6
:1005B0000501809108018260809308018091080103
:1005C0008860809308010895889A8B9A899A089583
:1005D00080910801806880930801EBCF119AE9CFE0
:1005E000159A809108018260809308010895962FE2
:1005F0009078813009F4C1C0823029F0833019F03D
:10060000843009F0089580910801992309F438C1D4
:1006100088608093080181E08A95F1F78091080154
:1006200082608093080181E08A95F1F7809108014A
:100630008D7F8093080166FF1DC18091080188604D
:100640008093080181E08A95F1F78091080182602A
:100650008093080181E08A95F1F7809108018D7FF0
:100660008093080165FF00C1809108018860809334
:10067000080181E08A95F1F78091080182608093FA
:10068000080181E08A95F1F7809108018D7F8093C0
:10069000080164FFE3C0809108018860809308012D
:1006A00081E08A95F1F780910801826080930801CA
:1006B00081E08A95F1F7809108018D7F8093080190
:1006C00063FFC6C08091080188608093080181E0C3
:1006D0008A95F1F78091080182608093080181E09A
:1006E0008A95F1F7809108018D7F8093080162FF60
:1006F000A9C08091080188608093080181E08A95F3
:10070000F1F78091080182608093080181E08A9569
:10071000F1F7809108018D7F8093080161FF8CC003
:100720008091080188608093080181E08A95F1F743
:100730008091080182608093080181E08A95F1F739
:10074000809108018D7F8093080160FF6FC08091C8
:10075000080188608093080181E08A95F1F7809113
:10076000080182608093080181E08A95F1F7809109
:1007700008018D7F809308010895911185C08998A3
:1007800081E08A95F1F78B9A81E08A95F1F78B9851
:1007900066FF88C0899A81E08A95F1F78B9A81E09B
:1007A0008A95F1F78B9865FF7BC0899A81E08A95DD
:1007B000F1F78B9A81E08A95F1F78B9864FF6EC010
:1007C000899A81E08A95F1F78B9A81E08A95F1F711
:1007D0008B9863FF61C0899A81E08A95F1F78B9AC3
:1007E00081E08A95F1F78B9862FF54C0899A81E085
:1007F0008A95F1F78B9A81E08A95F1F78B9861FFE2
:1008000047C0899A81E08A95F1F78B9A81E08A95B1
:10081000F1F78B9860FF3AC0899A81E08A95F1F7E9
:100820008B9A81E08A95F1F78B9808958091080161
:10083000877F8093080190CF80910801877F809304
:10084000080173CF80910801877F8093080156CFFC
:1008500080910801877F8093080139CF809108013A
:10086000877F809308011CCF80910801877F809348
:100870000801FFCE80910801877F80930801E2CEB6
:10088000877F80930801C7CE899A7ACF8998C5CF90
:100890008998B8CF8998ABCF89989ECF899891CF06
:1008A000899884CF899877CF813009F4BBC085308F
:1008B00011F080E0089581E08A95F1F780910801B8
:1008C0008260809308018091060191E09A95F1F78A
:1008D000909108019D7F9093080185FB882780F9FE
:1008E000880F91E09A95F1F79091080192609093AA
:1008F00008012091060191E09A95F1F79091080185
:100900009D7F9093080125FB992790F9892B880FEB
:1009100091E09A95F1F79091080192609093080107
:100920002091060191E09A95F1F7909108019D7F41
:100930009093080125FB992790F9892B880F91E066
:100940009A95F1F790910801926090930801209197
:10095000060191E09A95F1F7909108019D7F90939F
:10096000080125FB992790F9892B880F91E09A952A
:10097000F1F790910801926090930801209106018F
:1009800091E09A95F1F7909108019D7F909308016D
:1009900025FB992790F9892B880F91E09A95F1F71B
:1009A000909108019260909308012091060191E0D6
:1009B0009A95F1F7909108019D7F9093080125FB8E
:1009C000992790F9892B880F91E09A95F1F79091EA
:1009D00008019260909308012091060191E09A9598
:1009E000F1F7909108019D7F9093080125FB9927CD
:1009F00090F9892B91E09A95F1F790910801926016
:100A0000909308012091060191E09A95F1F7909159
:100A100008019D7F90930801880F25FB992790F985
:100A2000892B08958A95F1F78B9A8FB191E09A9569
:100A3000F1F78B9882FB882780F9880F91E09A95CF
:100A4000F1F78B9A2FB191E09A95F1F78B9822FBF1
:100A5000992790F9892B880F91E09A95F1F78B9A55
:100A60002FB191E09A95F1F78B9822FB992790F995
:100A7000892B880F91E09A95F1F78B9A2FB191E02D
:100A80009A95F1F78B9822FB992790F9892B880F7B
:100A900091E09A95F1F78B9A2FB191E09A95F1F741
:100AA0008B9822FB992790F9892B880F91E09A95D2
:100AB000F1F78B9A2FB191E09A95F1F78B9822FB81
:100AC000992790F9892B880F91E09A95F1F78B9AE5
:100AD0002FB191E09A95F1F78B9822FB992790F925
:100AE000892B91E09A95F1F78B9A2FB191E09A9525
:100AF000F1F78B98880F22FB992790F9892B08959D
:100B0000962F9078813009F4F3C0863011F080E0A0
:100B1000089580910201911174C18E7F809302012A
:100B200081E08A95F1F790910001809102018D7F1B
:100B30008093020181E08A95F1F780910201826041
:100B40008093020193FB992790F9990F66FF8FC15B
:100B50008091020181608093020181E08A95F1F722
:100B600080910001209102012D7F2093020121E05C
:100B70002A95F1F72091020122602093020183FB64
:100B8000882780F9892B880F65FF6BC1909102013E
:100B900091609093020191E09A95F1F79091000194
:100BA000209102012D7F2093020121E02A95F1F787
:100BB0002091020122602093020193FB992790F972
:100BC000982B990F64FF47C1809102018160809347
:100BD000020181E08A95F1F78091000120910201E4
:100BE0002D7F2093020121E02A95F1F72091020147
:100BF00022602093020183FB882780F9892B880FCC
:100C000063FF23C19091020191609093020191E0F2
:100C10009A95F1F790910001209102012D7F209388
:100C2000020121E02A95F1F7209102012260209330
:100C3000020193FB992790F9982B990F62FFFFC04F
:100C40008091020181608093020181E08A95F1F731
:100C500080910001209102012D7F2093020121E06B
:100C60002A95F1F72091020122602093020183FB73
:100C7000882780F9892B880F61FFDBC090910201E2
:100C800091609093020191E09A95F1F790910001A3
:100C9000209102012D7F2093020121E02A95F1F796
:100CA0002091020122602093020193FB992790F981
:100CB000982B990F60FFB7C08091020181608093EB
:100CC000020181E08A95F1F78091000120910201F3
:100CD0002D7F2093020121E02A95F1F72091020156
:100CE00022602093020183FB882780F9892B0895D5
:100CF000911185C0899881E08A95F1F78B9A9FB10F
:100D000081E08A95F1F78B9892FB992790F9990FDA
:100D100066FF7DC0899A81E08A95F1F78B9A8FB141
:100D200021E02A95F1F78B9882FB882780F9892B9F
:100D3000880F65FF6AC0899A91E09A95F1F78B9ABE
:100D40009FB121E02A95F1F78B9892FB992790F9B2
:100D5000982B990F64FF63C0899A81E08A95F1F717
:100D60008B9A8FB121E02A95F1F78B9882FB882727
:100D700080F9892B880F63FF50C0899A91E09A957A
:100D8000F1F78B9A9FB121E02A95F1F78B9892FBAE
:100D9000992790F9982B990F62FF3DC0899A81E0BD
:100DA0008A95F1F78B9A8FB121E02A95F1F78B980C
:100DB00082FB882780F9892B880F61FF2AC0899AD6
:100DC00091E09A95F1F78B9A9FB121E02A95F1F77E
:100DD0008B9892FB992790F9982B990F60FF21C06F
:100DE000899A81E08A95F1F78B9A8FB121E02A9553
:100DF000F1F78B9882FB882780F9892B0895899ACF
:100E00007ACF8160809302018BCE899895CF8998A3
:100E100082CF8998D5CF8998C2CF8998AFCF89984A
:100E20009CCF8998DECF809102018E7F8093020152
:100E300048CF909102019E7F9093020124CF809130
:100E400002018E7F8093020100CF909102019E7F6C
:100E500090930201DCCE809102018E7F809302018B
:100E6000B8CE909102019E7F9093020194CE809122
:100E700002018E7F8093020170CE813011F080E0FC
:100E800008958CB186FB882780F90895CF93C82FE9
:100E90008A3041F09091C00095FFFCCFC093C6000E
:100EA000CF9108958DE00E944607F4CFCF938091B3
:100EB000C00087FFFCCFC091C60020914C03309149
:100EC0004D03232B39F06091A6047091A7048C2F59
:100ED0000E9446078C2FCF9108951092C50089E19A
:100EE0008093C400E0ECF0E080818D7F808386E019
:100EF0008093C20088E18093C10008951092C500DC
:100F000089E18093C400E0ECF0E080818D7F8083F4
:100F100086E08093C20088E18093C10010924D0367
:100F200010924C0380E092E09093A5048093A40477
:100F30009093A7048093A604089590934D03809303
:100F40004C03089510924D0310924C030895FC0138
:100F500060830895CF92DF92EF92FF92CF93DF9359
:100F6000EC016A017B0188810E947D026C2D8881E1
:100F70000E94F702B7018827992788810E94F7020B
:100F800099278F2D7E2D6D2D88810E94F7028881F3
:100F9000DF91CF91FF90EF90DF90CF900C94BC0247
:100FA000FC0180810C949E01FC01608308950F93E5
:100FB0001F93CF93DF93EC018B0188810E947D0208
:100FC000B8010024660F771F001C660F771F001CF6
:100FD000672F702D6F7388810E94F702602F660F54
:100FE000660F88810E94F7028881DF91CF911F915F
:100FF0000F910C94BC02FC0180810C949E010F9314
:101000001F93CF93DF938C01EB010E94322DFE01E1
:1010100001900020E9F7EC1BFD0BC8018E0F9F1F0C
:10102000DF91CF911F910F910895FC016083089586
:101030000F931F93CF93DF93EC0188810E947D0271
:1010400088810E94540488810E945404182F88814A
:101050000E945404082F88810E94BC02802F90E0D7
:10106000912BDF91CF911F910F910895FC01808109
:101070000C949E01FC0160830895EF92FF921F93F0
:10108000CF93DF931F92CDB7DEB77C01162FFC0103
:10109000808179830E947D026981F70180810E94AD
:1010A000F702612FF70180810E94F702F70180812A
:1010B0000F90DF91CF911F91FF90EF900C94BC02A5
:1010C000FC0180810C949E01089560E070E887E93E
:1010D00094E00C943D086093980470939904809375
:1010E0009A0490939B040E94432B25E93FEB46E52D
:1010F0005CE30E94A92B0E94172B6115710521E06A
:101100008207910520F06FEF7FEF80E090E087E9A4
:1011100094E00C943D0860E070E084E994E00C9465
:10112000D7079093960480939504BC0180E090E0EB
:101130000E94432B2CEA35EC47E25FE30E94A92B87
:101140000E94172B611580E1780710F06FEF7FE0A8
:1011500084E994E00C94D70740E050E0BA0180E9BC
:1011600094E00C94AA07942F8093930460939204C4
:101170004093910470E0562F4427662757FD6095F1
:10118000762F682B492B80E994E00C94AA070895E8
:101190008BE894E00E941808BC0180E090E00E9477
:1011A000432B21E836E948E952E40E94A92B0E942A
:1011B000172B60938C0470938D0480938E0490930E
:1011C0008F04089508958F929F92AF92BF92CF920D
:1011D000DF92EF92FF9282E894E00E94BD204B01E3
:1011E0005C017F70882799270E94432B25EF32E806
:1011F0004EE550E40E94A92B0E94172B6B017C0145
:101200007093880460938704B501882799277F70BD
:10121000882799270E94432B2CED31E14BE850E4BD
:101220000E94A92B0E94172B70938A046093890453
:101230006C9D90016D9D300D7C9D300D1124369577
:1012400027953695279536952795A5ECB0E20E940F
:10125000F12A929582958F7089279F708927BC010A
:1012600080E090E06093830470938404809385040D
:1012700090938604FF90EF90DF90CF90BF90AF9057
:101280009F908F90089552985A9AE9E6F0E08081F5
:1012900080618083EA9A5198599A80818460808322
:1012A000E99A53985B9A808180688083EB9A2698AC
:1012B0002E9A25982D9A08951F920F920FB60F928D
:1012C00011240BB60F922F933F934F935F936F931D
:1012D0008F939F93EF93FF934091A104440F440F8A
:1012E0004093A10459B169B161FB882780F990E06E
:1012F000842B52FB222720F930E0220F331F822B50
:10130000932B8093A1048F70E82FF0E0ED5BFD4FED
:1013100020818091A2049091A304820F911D27FD4A
:101320009A959093A3048093A204FF91EF919F91CB
:101330008F916F915F914F913F912F910F900BBEC5
:101340000F900FBE0F901F9018951F920F920FB61F
:101350000F9211240F900FBE0F901F90189581E0EF
:101360000E947D0262E081E00E94F70260E081E07D
:101370000E94F70281E00E943D078823D9F362E0D2
:1013800081E00E94F70260E081E00E94F70281E0C4
:101390000E94BC0281E00E947D0281E00E943D0724
:1013A0008823D9F36FEF81E00E94800580934E037C
:1013B0006FEF81E00E94800580934F0381E00E94DF
:1013C000BC0281E00E943D078130D9F380914F0338
:1013D0008F9380914E038F9383E592E09F938F9339
:1013E0000E94B42D81E00E947D0262E081E00E94B3
:1013F000F70260E081E00E94F7020F900F900F90DB
:101400000F9081E00E943D078823D9F363E081E0DB
:101410000E94F70260E081E00E94F70281E00E94F2
:10142000BC0281E00E947D0281E00E943D0788238A
:10143000D9F36FEF81E00E94800580934E036FEF38
:1014400081E00E94800580934F0381E00E94BC02EE
:1014500081E00E943D078130D9F380914F038F9343
:1014600080914E038F9386E692E09F938F930E9424
:10147000B42D81E00E947D0262E081E00E94F702CB
:1014800060E081E00E94F7020F900F900F900F90A4
:1014900081E00E943D078823D9F360E081E00E944B
:1014A000F70260E081E00E94F70281E00E94BC0246
:1014B00081E00E947D0281E00E943D078823D9F3EC
:1014C0006FEF81E00E94800580934E036FEF81E013
:1014D0000E94800580934F0381E00E94BC0281E05E
:1014E0000E943D078130D9F381E00E947D0262E0D5
:1014F00081E00E94F70260E081E00E94F70281E053
:101500000E943D078823D9F361E081E00E94F70241
:1015100060E081E00E94F70281E00E94BC0281E06D
:101520000E947D0281E00E943D078823D9F36FEF7E
:1015300081E00E94800580934E036FEF81E00E945E
:10154000800580934F0381E00E94BC0281E00E94ED
:101550003D078130D9F380914F038F9380914E03E3
:101560008F9384E792E09F938F930E94B42D0F9006
:101570000F900F900F9008956F927F928F929F928D
:10158000AF92BF92CF92DF92EF92FF920F931F9391
:10159000CF93DF93CDB7DEB76A970FB6F894DEBF6F
:1015A0000FBECDBF989AA09A2FEF83ED90E3215004
:1015B00080409040E1F700C00000A098EFEFF3ED0D
:1015C00020E3E150F0402040E1F700C0000081E05E
:1015D0000E949E0181E00E947D0281E00E943D0701
:1015E0008823D9F36FEF81E00E94800580934E033A
:1015F0006FEF81E00E94800580934F0381E00E949D
:10160000BC0281E00E943D078130D9F380914E03F6
:1016100090914F038231944309F09AC0BBE8CB2EDE
:10162000B2E0DB2E19E9612E12E0712E81E00E94FA
:101630007D0262E081E00E94F70260E081E00E94AA
:10164000F70281E00E943D078823D9F360E081E042
:101650000E94F70260E081E00E94F70281E00E94B0
:10166000BC0281E00E947D0281E00E943D07882348
:10167000D9F36FEF81E00E94800580934E036FEFF6
:1016800081E00E94800580934F0381E00E94BC02AC
:1016900081E00E943D078130D9F3E0904E03F09045
:1016A0004F0381E00E947D0262E081E00E94F70228
:1016B00060E081E00E94F70281E00E943D078823FC
:1016C000D9F361E081E00E94F70260E081E00E94CE
:1016D000F70281E00E94BC0281E00E947D0281E06D
:1016E0000E943D078823D9F36FEF81E00E948005B7
:1016F00080934E036FEF81E00E94800580934F033B
:1017000081E00E94BC0281E00E943D078130D9F354
:1017100000914E0310914F03FF92EF92DF92CF9210
:101720000E94B42D1F930F937F926F920E94B42D4D
:101730000FB6F894DEBF0FBECDBFEF2809F076CF0D
:101740000F371D4109F072CF87EA92E00E94C62D43
:1017500080E094E09A8389838AE090E09C838B8385
:1017600081E00E947D0264E081E00E94F70260E077
:1017700081E00E94F702FE0131963F017F0101E006
:1017800010E00DC0F701608181E00E94F702043093
:10179000110599F00F5F1F4FFFEFEF1AFF0A01309D
:1017A000110581F781E00E943D078823D9F3F701F5
:1017B000608181E00E94F702EDCF81E00E94BC02CF
:1017C00081E00E947D0281E00E943D078823D9F3D9
:1017D0006FEF81E00E94800580934E036FEF81E000
:1017E0000E94800580934F0381E00E94BC0281E04B
:1017F0000E943D078130D9F381E00E947D0262E0C2
:1018000081E00E94F70260E081E00E94F70281E03F
:101810000E943D078823D9F360E881E00E94F70227
:1018200061E081E00E94F70281E00E94BC0281E059
:101830000E947D0281E00E943D078823D9F36FEF6B
:1018400081E00E94800580934E036FEF81E00E944B
:10185000800580934F0381E00E94BC0281E00E94DA
:101860003D078130D9F385E591E09A83898384E04F
:1018700090E09C838B8381E00E947D0264E081E0A4
:101880000E94F70260E081E00E94F702730101E02C
:1018900010E00DC0F701608181E00E94F702043082
:1018A000110599F00F5F1F4FFFEFEF1AFF0A01308C
:1018B000110581F781E00E943D078823D9F3F701E4
:1018C000608181E00E94F702EDCF81E00E94BC02BE
:1018D00081E00E947D0281E00E943D078823D9F3C8
:1018E0006FEF81E00E94800580934E036FEF81E0EF
:1018F0000E94800580934F0381E00E94BC0281E03A
:101900000E943D078130D9F380E791E09A83898373
:101910008BEE93ED9C838B8389EE90E09E838D8389
:1019200081E00E947D0266E081E00E94F70260E0B3
:1019300081E00E94F702730101E010E00DC0F701A1
:10194000608181E00E94F7020630110599F00F5F77
:101950001F4FFFEFEF1AFF0A0130110581F781E0F9
:101960000E943D078823D9F3F701608181E00E943E
:10197000F702EDCF81E00E94BC0281E00E947D026F
:1019800081E00E943D078823D9F36FEF81E00E9438
:10199000800580934E036FEF81E00E948005809365
:1019A0004F0381E00E94BC0281E00E943D0781302C
:1019B000D9F38BE1E3EBF2E0D30101900D928A952C
:1019C000E1F7E0907E04F0907F0400918004109194
:1019D00081047F926F92812C912CA12CB12CF4E088
:1019E000CF2ED12C2EE130E040EF50E06EE070E0E1
:1019F0008EE493E00E94512981E1EEECF2E0D30104
:101A000001900D928A95E1F7E0907E04F0907F04BA
:101A100000918004109181047F926F92A3E0CA2EFE
:101A2000D12C24E630E04AE050E067E070E08EE43C
:101A300093E00E94512984E1EAE1F3E0D3010190AF
:101A40000D928A95E1F7E0907E04F0907F0400917A
:101A50008004109181047F926F9228E730E04AE081
:101A600050E067E070E08EE493E00E94512984E149
:101A7000EEE2F3E0D30101900D928A95E1F7E09058
:101A80007E04F0907F0400918004109181047F9285
:101A90006F922CE830E04AE050E067E070E08EE4BE
:101AA00093E00E945129E0907E04F0907F04009121
:101AB0008004109181047F926F9224EB30E04AE021
:101AC00050E067E070E08EE493E00E94512981E1EC
:101AD000EFEDF2E0D30101900D928A95E1F7E090ED
:101AE0007E04F0907F0400918004109181047F9225
:101AF0006F922CED30E04AE050E068E070E08EE458
:101B000093E00E94512981E00E947D0262E081E021
:101B10000E94F70260E081E00E94F7020FB6F8949D
:101B2000DEBF0FBECDBF81E00E943D078823D9F301
:101B300061E881E00E94F70261E081E00E94F70223
:101B400081E00E94BC0281E00E947D0281E00E944F
:101B50003D078823D9F36FEF81E00E9480058093D1
:101B60004E036FEF81E00E94800580934F0381E078
:101B70000E94BC0281E00E943D078130D9F381E0E0
:101B800094E09E8B8D8B82E090E0988F8F8B1A8EE5
:101B9000198E81E00E947D0266E081E00E94F702DA
:101BA00060E081E00E94F7027E0195E1E90EF11C00
:101BB00001E010E00DC0F701608181E00E94F702B2
:101BC0000630110599F00F5F1F4FEFEFEE1AFE0A76
:101BD0000130110581F781E00E943D078823D9F388
:101BE000F701608181E00E94F702EDCF81E00E9461
:101BF000BC0281E00E947D0281E00E943D078823B3
:101C0000D9F36FEF81E00E94800580934E036FEF60
:101C100081E00E94800580934F0381E00E94BC0216
:101C200081E00E943D078130D9F360EF72E08EE4DD
:101C300093E00E94042A6A960FB6F894DEBF0FBEA6
:101C4000CDBFDF91CF911F910F91FF90EF90DF906B
:101C5000CF90BF90AF909F908F907F906F9008959E
:101C60000F931F93CF93DF93989AA09A07E011E008
:101C7000F80180818E7F8083C8E0D1E088818E7FEB
:101C8000888387E994E00E94600884E994E00E94D8
:101C9000FB0780E994E00E94D0078BE894E00E9463
:101CA000360882E894E00E941021F8018081846067
:101CB000808388818B7F8883808180618083888115
:101CC000806188830E9A16980C9A14980A9A129832
:101CD000A4E0B1E08C9180628C93E5E0F1E080813A
:101CE0008F7D80838C9180688C9380818F778083B7
:101CF000F80180818064808388818F7B8883089A43
:101D00001098A1E0B1E08C9180648C93E2E0F1E066
:101D100080818F7B80838C9180688C9380818F778A
:101D200080838C918F7E8C9380818F7E80838C9139
:101D30008F7D8C9380818F7D8083999AA1989B9AC7
:101D4000A398579A5F9A60E070E887E994E00E9450
:101D50003D0860E070E084E994E00E94D70740E02D
:101D600050E0BA0180E994E00E94AA070E94BC0AF0
:101D7000DF91CF911F910F910C9443096F927F9245
:101D80008F929F92AF92BF92CF92DF92EF92FF928B
:101D90000F931F93CF93DF93CDB7DEB769970FB63D
:101DA000F894DEBF0FBECDBF81E00E947D0262E0ED
:101DB00081E00E94F70260E081E00E94F70281E08A
:101DC0000E943D078823D9F360E881E00E94F70272
:101DD00061E081E00E94F70281E00E94BC0281E0A4
:101DE0000E947D0281E00E943D078823D9F36FEFB6
:101DF00081E00E94800580934E036FEF81E00E9496
:101E0000800580934F0381E00E94BC0281E00E9424
:101E10003D078130D9F385E291E09A83898388E098
:101E200090E09C838B8381E00E947D0264E081E0EE
:101E30000E94F70260E081E00E94F702CE01019665
:101E40003C017C0101E010E00DC0F701608181E000
:101E50000E94F7020430110599F00F5F1F4F9FEFAA
:101E6000E91AF90A0130110581F781E00E943D0766
:101E70008823D9F3F701608181E00E94F702EDCF5A
:101E800081E00E94BC0281E00E947D0281E00E940C
:101E90003D078823D9F36FEF81E00E94800580938E
:101EA0004E036FEF81E00E94800580934F0381E035
:101EB0000E94BC0281E00E943D078130D9F385E594
:101EC00091E09A83898384E090E09C838B8381E016
:101ED0000E947D0264E081E00E94F70260E081E000
:101EE0000E94F702730101E010E00DC0F70160816C
:101EF00081E00E94F7020430110599F00F5F1F4F37
:101F0000FFEFEF1AFF0A0130110581F781E00E940F
:101F10003D078823D9F3F701608181E00E94F70231
:101F2000EDCF81E00E94BC0281E00E947D0281E051
:101F30000E943D078823D9F36FEF81E00E9480055E
:101F400080934E036FEF81E00E94800580934F03E2
:101F500081E00E94BC0281E00E943D078130D9F3FC
:101F600080913F0290914002A0914102B0914202C3
:101F700024E231E03A8329839C838B83BE83AD8343
:101F800081E00E947D0266E081E00E94F70260E04D
:101F900081E00E94F702730101E010E00DC0F7013B
:101FA000608181E00E94F7020630110599F00F5F11
:101FB0001F4FFFEFEF1AFF0A0130110581F781E093
:101FC0000E943D078823D9F3F701608181E00E94D8
:101FD000F702EDCF81E00E94BC0281E00E947D0209
:101FE00081E00E943D078823D9F36FEF81E00E94D2
:101FF000800580934E036FEF81E00E9480058093FF
:102000004F0381E00E94BC0281E00E943D078130C5
:10201000D9F380E093E09A83898381E090E09C8308
:102020008B830E947D0264E081E00E94F70260E001
:1020300081E00E94F702730101E010E00DC0F7019A
:10204000608181E00E94F7020430110599F00F5F72
:102050001F4FFFEFEF1AFF0A0130110581F781E0F2
:102060000E943D078823D9F3F701608181E00E9437
:10207000F702EDCF81E00E94BC0281E00E947D0268
:1020800081E00E943D078823D9F36FEF81E00E9431
:10209000800580934E036FEF81E00E94800580935E
:1020A0004F0381E00E94BC0281E00E943D07813025
:1020B000D9F382E591E09A8389838FEF9FEF9C8328
:1020C0008B838FEF90E09E838D8381E00E947D0261
:1020D00066E081E00E94F70260E081E00E94F70282
:1020E000730101E010E00DC0F701608181E00E9402
:1020F000F7020630110599F00F5F1F4FFFEFEF1A3F
:10210000FF0A0130110581F781E00E943D07882315
:10211000D9F3F701608181E00E94F702EDCF81E001
:102120000E94BC0281E00E947D0281E00E943D0786
:102130008823D9F36FEF81E00E94800580934E03DE
:102140006FEF81E00E94800580934F0381E00E9441
:10215000BC0281E00E943D078130D9F380E591E027
:102160009A83898380EB94E09C838B8388E691E05B
:102170009E838D8380E699E098878F8380ED92E03F
:102180009A87898781E00E947D026AE081E00E944F
:10219000F70260E081E00E94F702730101E010E0C5
:1021A0000DC0F701608181E00E94F7020A3011053D
:1021B00099F00F5F1F4FFFEFEF1AFF0A0130110573
:1021C00081F781E00E943D078823D9F3F701608100
:1021D00081E00E94F702EDCF81E00E94BC0281E025
:1021E0000E947D0281E00E943D078823D9F36FEFB2
:1021F00081E00E94800580934E036FEF81E00E9492
:10220000800580934F0381E00E94BC0281E00E9420
:102210003D078130D9F3809171041F928F9382E43E
:1022200093E09F938F937F926F920E94F32DE090A3
:102230007E04F0907F0400918004109181047F92CD
:102240006F92812C912CA12CB12CB4E0CB2ED12CEF
:102250002DE230E046E950E060E170E08EE493E08A
:102260000E94512980E093E0998B888B82E090E076
:102270009B8B8A8B81E00E947D0264E081E00E945A
:10228000F70260E081E00E94F702CE0140967C01F7
:102290000FB6F894DEBF0FBECDBF01E010E00DC059
:1022A000F701608181E00E94F7020430110599F086
:1022B0000F5F1F4FFFEFEF1AFF0A0130110581F783
:1022C00081E00E943D078823D9F3F701608181E016
:1022D0000E94F702EDCF81E00E94BC0281E00E94E3
:1022E0007D0281E00E943D078823D9F36FEF81E0F2
:1022F0000E94800580934E036FEF81E00E9480056D
:1023000080934F0381E00E94BC0281E00E943D0760
:102310008130D9F382E591E0998B888B8DEC9AEF2F
:102320009B8B8A8B8FEF90E09D8B8C8B81E00E9442
:102330007D0266E081E00E94F70260E081E00E9499
:10234000F702CE0140967C0101E010E00DC0F701DC
:10235000608181E00E94F7020630110599F00F5F5D
:102360001F4F9FEFE91AF90A0130110581F781E04B
:102370000E943D078823D9F3F701608181E00E9424
:10238000F702EDCF81E00E94BC0281E00E947D0255
:1023900081E00E943D078823D9F36FEF81E00E941E
:1023A000800580934E036FEF81E00E94800580934B
:1023B0004F0381E00E94BC0281E00E943D07813012
:1023C000D9F380E591E0998B888B88EC9AE09B8B20
:1023D0008A8B88E691E09D8B8C8B80ED92E09F8BC1
:1023E0008E8B998F888F81E00E947D026AE081E068
:1023F0000E94F70260E081E00E94F702CE01409661
:102400007C0101E010E00DC0F701608181E00E94D5
:10241000F7020A30110599F00F5F1F4F9FEFE91A7D
:10242000F90A0130110581F781E00E943D078823F8
:10243000D9F3F701608181E00E94F702EDCF81E0DE
:102440000E94BC0281E00E947D0281E00E943D0763
:102450008823D9F36FEF81E00E94800580934E03BB
:102460006FEF81E00E94800580934F0381E00E941E
:10247000BC0281E00E943D078130D9F38091700455
:102480001F928F9382E493E09F938F937F926F923A
:102490000E94F32DE0907E04F0907F040091800470
:1024A000109181047F926F92812C912CA12CB12CE0
:1024B000A4E0CA2ED12C2DE230E049E551E060E1E4
:1024C00070E08EE493E00E94512980E093E0998BC4
:1024D000888B83E090E09B8B8A8B81E00E947D0259
:1024E00064E081E00E94F70260E081E00E94F70270
:1024F000CE0140967C010FB6F894DEBF0FBECDBF73
:1025000001E010E00DC0F701608181E00E94F70258
:102510000430110599F00F5F1F4FFFEFEF1AFF0A0C
:102520000130110581F781E00E943D078823D9F32E
:10253000F701608181E00E94F702EDCF81E00E9407
:10254000BC0281E00E947D0281E00E943D07882359
:10255000D9F36FEF81E00E94800580934E036FEF07
:1025600081E00E94800580934F0381E00E94BC02BD
:1025700081E00E943D078130D9F382E591E0998B9B
:10258000888B8FEF9FEF9B8B8A8B8FEF90E09D8BDB
:102590008C8B81E00E947D0266E081E00E94F70260
:1025A00060E081E00E94F702CE0140967C0101E0EC
:1025B00010E00DC0F701608181E00E94F702063053
:1025C000110599F00F5F1F4F9FEFE91AF90A0130CB
:1025D000110581F781E00E943D078823D9F3F701B7
:1025E000608181E00E94F702EDCF81E00E94BC0291
:1025F00081E00E947D0281E00E943D078823D9F39B
:102600006FEF81E00E94800580934E036FEF81E0C1
:102610000E94800580934F0381E00E94BC0281E00C
:102620000E943D078130D9F380E591E0998B888B3A
:1026300088E99DE09B8B8A8B88E691E09D8B8C8B53
:1026400080ED92E09F8B8E8B998F888F81E00E9426
:102650007D026AE081E00E94F70260E081E00E9472
:10266000F702CE0140967C0101E010E00DC0F701B9
:10267000608181E00E94F7020A30110599F00F5F36
:102680001F4F9FEFE91AF90A0130110581F781E028
:102690000E943D078823D9F3F701608181E00E9401
:1026A000F702EDCF81E00E94BC0281E00E947D0232
:1026B00081E00E943D078823D9F36FEF81E00E94FB
:1026C000800580934E036FEF81E00E948005809328
:1026D0004F0381E00E94BC0281E00E943D078130EF
:1026E000D9F380916F041F928F9382E493E09F93BC
:1026F0008F937F926F920E94F32DE0907E04F09072
:102700007F0400918004109181047F926F92812C4C
:10271000912CA12CB12CF4E0CF2ED12C2DE230E065
:1027200043EB51E060E170E08EE493E00E945129B8
:1027300080E093E0998B888B84E090E09B8B8A8B80
:1027400081E00E947D0264E081E00E94F70260E087
:1027500081E00E94F702CE0140967C010FB6F8940A
:10276000DEBF0FBECDBF01E010E00DC0F7016081FC
:1027700081E00E94F7020430110599F00F5F1F4FAE
:10278000FFEFEF1AFF0A0130110581F781E00E9487
:102790003D078823D9F3F701608181E00E94F702A9
:1027A000EDCF81E00E94BC0281E00E947D0281E0C9
:1027B0000E943D078823D9F36FEF81E00E948005D6
:1027C00080934E036FEF81E00E94800580934F035A
:1027D00081E00E94BC0281E00E943D078130D9F374
:1027E00082E591E0998B888B8FEF9FEF9B8B8A8B93
:1027F0008FEF90E09D8B8C8B81E00E947D0266E0E4
:1028000081E00E94F70260E081E00E94F702CE01C1
:1028100040967C0101E010E00DC0F701608181E08D
:102820000E94F7020630110599F00F5F1F4F9FEFCE
:10283000E91AF90A0130110581F781E00E943D078C
:102840008823D9F3F701608181E00E94F702EDCF80
:1028500081E00E94BC0281E00E947D0281E00E9432
:102860003D078823D9F36FEF81E00E9480058093B4
:102870004E036FEF81E00E94800580934F0381E05B
:102880000E94BC0281E00E943D078130D9F380E5BF
:1028900091E0998B888B80E991E09B8B8A8B88EE05
:1028A00093E09D8B8C8B80E293E09F8B8E8B80E3FB
:1028B00092E0998F888F81E00E947D026AE081E03A
:1028C0000E94F70260E081E00E94F702CE0140968C
:1028D0007C0101E010E00DC0F701608181E00E9401
:1028E000F7020A30110599F00F5F1F4F9FEFE91AA9
:1028F000F90A0130110581F781E00E943D07882324
:10290000D9F3F701608181E00E94F702EDCF81E009
:102910000E94BC0281E00E947D0281E00E943D078E
:102920008823D9F36FEF81E00E94800580934E03E6
:102930006FEF81E00E94800580934F0381E00E9449
:10294000BC0281E00E943D078130D9F380916E0482
:102950001F928F9382E493E09F938F937F926F9265
:102960000E94F32DE0907E04F0907F04009180049B
:10297000109181047F926F92812C912CA12CB12C0B
:10298000E4E0CE2ED12C2DE730E042E350E060E1D0
:1029900070E08EE493E00E94512980E093E0998BEF
:1029A000888B85E090E09B8B8A8B81E00E947D0282
:1029B00064E081E00E94F70260E081E00E94F7029B
:1029C000CE0140967C010FB6F894DEBF0FBECDBF9E
:1029D00001E010E00DC0F701608181E00E94F70284
:1029E0000430110599F00F5F1F4FFFEFEF1AFF0A38
:1029F0000130110581F781E00E943D078823D9F35A
:102A0000F701608181E00E94F702EDCF81E00E9432
:102A1000BC0281E00E947D0281E00E943D07882384
:102A2000D9F36FEF81E00E94800580934E036FEF32
:102A300081E00E94800580934F0381E00E94BC02E8
:102A400081E00E943D078130D9F382E591E0998BC6
:102A5000888B8DEC9AEF9B8B8A8B8FEF90E09D8B10
:102A60008C8B81E00E947D0266E081E00E94F7028B
:102A700060E081E00E94F702CE0140967C0101E017
:102A800010E00DC0F701608181E00E94F70206307E
:102A9000110599F00F5F1F4F9FEFE91AF90A0130F6
:102AA000110581F781E00E943D078823D9F3F701E2
:102AB000608181E00E94F702EDCF81E00E94BC02BC
:102AC00081E00E947D0281E00E943D078823D9F3C6
:102AD0006FEF81E00E94800580934E036FEF81E0ED
:102AE0000E94800580934F0381E00E94BC0281E038
:102AF0000E943D078130D9F380E591E0998B888B66
:102B000080E496E09B8B8A8B28EE33E03D8B2C8B08
:102B10009F8B8E8B80E392E0998F888F81E00E945B
:102B20007D026AE081E00E94F70260E081E00E949D
:102B3000F702CE0140967C0101E010E00DC0F701E4
:102B4000608181E00E94F7020A30110599F00F5F61
:102B50001F4F9FEFE91AF90A0130110581F781E053
:102B60000E943D078823D9F3F701608181E00E942C
:102B7000F702EDCF81E00E94BC0281E00E947D025D
:102B800081E00E943D078823D9F36FEF81E00E9426
:102B9000800580934E036FEF81E00E948005809353
:102BA0004F0381E00E94BC0281E00E943D0781301A
:102BB000D9F380916D041F928F9382E493E09F93E9
:102BC0008F937F926F920E94F32DE0907E04F0909D
:102BD0007F0400918004109181047F926F92812C78
:102BE000912CA12CB12C74E0C72ED12C2DE730E014
:102BF00048EC50E060E170E08EE493E00E945129DF
:102C000080E093E0998B888B86E090E09B8B8A8BA9
:102C100081E00E947D0264E081E00E94F70260E0B2
:102C200081E00E94F702CE0140967C010FB6F89435
:102C3000DEBF0FBECDBF01E010E00DC0F701608127
:102C400081E00E94F7020430110599F00F5F1F4FD9
:102C5000FFEFEF1AFF0A0130110581F781E00E94B2
:102C60003D078823D9F3F701608181E00E94F702D4
:102C7000EDCF81E00E94BC0281E00E947D0281E0F4
:102C80000E943D078823D9F36FEF81E00E94800501
:102C900080934E036FEF81E00E94800580934F0385
:102CA00081E00E94BC0281E00E943D078130D9F39F
:102CB00082E591E0998B888B8FEF9FEF9B8B8A8BBE
:102CC0008FEF90E09D8B8C8B81E00E947D0266E00F
:102CD00081E00E94F70260E081E00E94F702CE01ED
:102CE00040967C0101E010E00DC0F701608181E0B9
:102CF0000E94F7020630110599F00F5F1F4F9FEFFA
:102D0000E91AF90A0130110581F781E00E943D07B7
:102D10008823D9F3F701608181E00E94F702EDCFAB
:102D200081E00E94BC0281E00E947D0281E00E945D
:102D30003D078823D9F36FEF81E00E9480058093DF
:102D40004E036FEF81E00E94800580934F0381E086
:102D50000E94BC0281E00E943D078130D9F380E5EA
:102D600091E0998B888B80E39CE09B8B8A8B88EE2B
:102D700093E09D8B8C8B80EA95E09F8B8E8B80E31C
:102D800092E0998F888F81E00E947D026AE081E065
:102D90000E94F70260E081E00E94F702CE014096B7
:102DA0007C0101E010E00DC0F701608181E00E942C
:102DB000F7020A30110599F00F5F1F4F9FEFE91AD4
:102DC000F90A0130110581F781E00E943D0788234F
:102DD000D9F3F701608181E00E94F702EDCF81E035
:102DE0000E94BC0281E00E947D0281E00E943D07BA
:102DF0008823D9F36FEF81E00E94800580934E0312
:102E00006FEF81E00E94800580934F0381E00E9474
:102E1000BC0281E00E943D078130D9F380916C04AF
:102E20001F928F9382E493E09F938F937F926F9290
:102E30000E94F32DE0907E04F0907F0400918004C6
:102E4000109181047F926F92812C912CA12CB12C36
:102E500064E0C62ED12C2DE730E046E851E060E179
:102E600070E08EE493E00E94512980E093E0998B1A
:102E7000888B87E090E09B8B8A8B81E00E947D02AB
:102E800064E081E00E94F70260E081E00E94F702C6
:102E9000CE0140967C010FB6F894DEBF0FBECDBFC9
:102EA00001E010E00DC0F701608181E00E94F702AF
:102EB0000430110599F00F5F1F4FFFEFEF1AFF0A63
:102EC0000130110581F781E00E943D078823D9F385
:102ED000F701608181E00E94F702EDCF81E00E945E
:102EE000BC0281E00E947D0281E00E943D078823B0
:102EF000D9F36FEF81E00E94800580934E036FEF5E
:102F000081E00E94800580934F0381E00E94BC0213
:102F100081E00E943D078130D9F382E591E0998BF1
:102F2000888B8FEF9FEF9B8B8A8B8FEF90E09D8B31
:102F30008C8B81E00E947D0266E081E00E94F702B6
:102F400060E081E00E94F702CE0140967C0101E042
:102F500010E00DC0F701608181E00E94F7020630A9
:102F6000110599F00F5F1F4F9FEFE91AF90A013021
:102F7000110581F781E00E943D078823D9F3F7010D
:102F8000608181E00E94F702EDCF81E00E94BC02E7
:102F900081E00E947D0281E00E943D078823D9F3F1
:102FA0006FEF81E00E94800580934E036FEF81E018
:102FB0000E94800580934F0381E00E94BC0281E063
:102FC0000E943D078130D9F380E591E0998B888B91
:102FD00080E991E09B8B8A8B88E196E09D8B8C8BBE
:102FE00080E293E09F8B8E8B80E392E0998F888FB5
:102FF00081E00E947D026AE081E00E94F70260E0C9
:1030000081E00E94F702CE0140967C0101E010E0D1
:103010000DC0F701608181E00E94F7020A301105BE
:1030200099F00F5F1F4F9FEFE91AF90A0130110560
:1030300081F781E00E943D078823D9F3F701608181
:1030400081E00E94F702EDCF81E00E94BC0281E0A6
:103050000E947D0281E00E943D078823D9F36FEF33
:1030600081E00E94800580934E036FEF81E00E9413
:10307000800580934F0381E00E94BC0281E00E94A2
:103080003D078130D9F380916B041F928F9382E4C6
:1030900093E09F938F937F926F920E94F32DE09025
:1030A0007E04F0907F0400918004109181047F924F
:1030B0006F92812C912CA12CB12C54E0C52ED12CD7
:1030C00023EC30E042E350E060E170E08EE493E016
:1030D0000E94512980E093E0998B888B88E090E0F2
:1030E0009B8B8A8B81E00E947D0264E081E00E94DC
:1030F000F70260E081E00E94F702CE0140967C0179
:103100000FB6F894DEBF0FBECDBF01E010E00DC0DA
:10311000F701608181E00E94F7020430110599F007
:103120000F5F1F4FFFEFEF1AFF0A0130110581F704
:1031300081E00E943D078823D9F3F701608181E097
:103140000E94F702EDCF81E00E94BC0281E00E9464
:103150007D0281E00E943D078823D9F36FEF81E073
:103160000E94800580934E036FEF81E00E948005EE
:1031700080934F0381E00E94BC0281E00E943D07E2
:103180008130D9F382E591E0998B888B8DEC9AEFB1
:103190009B8B8A8B8FEF90E09D8B8C8B81E00E94C4
:1031A0007D0266E081E00E94F70260E081E00E941B
:1031B000F702CE0140967C0101E010E00DC0F7015E
:1031C000608181E00E94F7020630110599F00F5FDF
:1031D0001F4F9FEFE91AF90A0130110581F781E0CD
:1031E0000E943D078823D9F3F701608181E00E94A6
:1031F000F702EDCF81E00E94BC0281E00E947D02D7
:1032000081E00E943D078823D9F36FEF81E00E949F
:10321000800580934E036FEF81E00E9480058093CC
:103220004F0381E00E94BC0281E00E943D07813093
:10323000D9F380E591E0998B888B80EB94E09B8BB0
:103240008A8B88E196E09D8B8C8B80E293E09F8B4C
:103250008E8B80E392E0998F888F81E00E947D02BF
:103260006AE081E00E94F70260E081E00E94F702DC
:10327000CE0140967C0101E010E00DC0F7016081B5
:1032800081E00E94F7020A30110599F00F5F1F4F8D
:103290009FEFE91AF90A0130110581F781E00E94D8
:1032A0003D078823D9F3F701608181E00E94F7028E
:1032B000EDCF81E00E94BC0281E00E947D0281E0AE
:1032C0000E943D078823D9F36FEF81E00E948005BB
:1032D00080934E036FEF81E00E94800580934F033F
:1032E00081E00E94BC0281E00E943D078130D9F359
:1032F00080916A041F928F9382E493E09F938F934F
:103300007F926F920E94F32DE0907E04F0907F04F4
:1033100000918004109181047F926F92812C912CF6
:10332000A12CB12C44E0C42ED12C23EC30E046E992
:1033300050E060E170E08EE493E00E94512980E06B
:1033400093E0998B888B89E090E09B8B8A8B81E05E
:103350000E947D0264E081E00E94F70260E081E06B
:103360000E94F702CE0140967C010FB6F894DEBFB2
:103370000FBECDBF01E010E00DC0F701608181E01C
:103380000E94F7020430110599F00F5F1F4FFFEF05
:10339000EF1AFF0A0130110581F781E00E943D0715
:1033A0008823D9F3F701608181E00E94F702EDCF15
:1033B00081E00E94BC0281E00E947D0281E00E94C7
:1033C0003D078823D9F36FEF81E00E948005809349
:1033D0004E036FEF81E00E94800580934F0381E0F0
:1033E0000E94BC0281E00E943D078130D9F382E552
:1033F00091E0998B888B8FEF9FEF9B8B8A8B8FEF60
:1034000090E09D8B8C8B81E00E947D0266E081E0E4
:103410000E94F70260E081E00E94F702CE01409630
:103420007C0101E010E00DC0F701608181E00E94A5
:10343000F7020630110599F00F5F1F4F9FEFE91A51
:10344000F90A0130110581F781E00E943D078823C8
:10345000D9F3F701608181E00E94F702EDCF81E0AE
:103460000E94BC0281E00E947D0281E00E943D0733
:103470008823D9F36FEF81E00E94800580934E038B
:103480006FEF81E00E94800580934F0381E00E94EE
:10349000BC0281E00E943D078130D9F380E591E0D4
:1034A000998B888B80ED97E09B8B8A8B88E196E0E7
:1034B0009D8B8C8B80E293E09F8B8E8B80E392E0E0
:1034C000998F888F81E00E947D026AE081E00E94EE
:1034D000F70260E081E00E94F702CE0140967C0195
:1034E00001E010E00DC0F701608181E00E94F70269
:1034F0000A30110599F00F5F1F4F9FEFE91AF90A83
:103500000130110581F781E00E943D078823D9F33E
:10351000F701608181E00E94F702EDCF81E00E9417
:10352000BC0281E00E947D0281E00E943D07882369
:10353000D9F36FEF81E00E94800580934E036FEF17
:1035400081E00E94800580934F0381E00E94BC02CD
:1035500081E00E943D078130D9F3809169041F9278
:103560008F9382E493E09F938F937F926F920E9458
:10357000F32DE0907E04F0907F0400918004109180
:1035800081047F926F92812C912CA12CB12C34E07C
:10359000C32ED12C23EC30E04AEF50E060E170E024
:1035A0008EE493E00E94512980E093E0998B888B10
:1035B0008AE090E09B8B8A8B81E00E947D0264E030
:1035C00081E00E94F70260E081E00E94F702CE01F4
:1035D00040967C010FB6F894DEBF0FBECDBF01E070
:1035E00010E00DC0F701608181E00E94F702043015
:1035F000110599F00F5F1F4FFFEFEF1AFF0A01301F
:10360000110581F781E00E943D078823D9F3F70176
:10361000608181E00E94F702EDCF81E00E94BC0250
:1036200081E00E947D0281E00E943D078823D9F35A
:103630006FEF81E00E94800580934E036FEF81E081
:103640000E94800580934F0381E00E94BC0281E0CC
:103650000E943D078130D9F382E591E0998B888BF8
:103660008DEC9AEF9B8B8A8B8FEF90E09D8B8C8BF0
:1036700081E00E947D0266E081E00E94F70260E046
:1036800081E00E94F702CE0140967C0101E010E04B
:103690000DC0F701608181E00E94F702063011053C
:1036A00099F00F5F1F4F9FEFE91AF90A01301105DA
:1036B00081F781E00E943D078823D9F3F7016081FB
:1036C00081E00E94F702EDCF81E00E94BC0281E020
:1036D0000E947D0281E00E943D078823D9F36FEFAD
:1036E00081E00E94800580934E036FEF81E00E948D
:1036F000800580934F0381E00E94BC0281E00E941C
:103700003D078130D9F380E591E0998B888B88EC77
:103710009AE09B8B8A8B88E196E09D8B8C8B80ED69
:1037200092E09F8B8E8B80E392E0998F888F81E06F
:103730000E947D026AE081E00E94F70260E081E081
:103740000E94F702CE0140967C0101E010E00DC01E
:10375000F701608181E00E94F7020A30110599F0BB
:103760000F5F1F4F9FEFE91AF90A0130110581F72A
:1037700081E00E943D078823D9F3F701608181E051
:103780000E94F702EDCF81E00E94BC0281E00E941E
:103790007D0281E00E943D078823D9F36FEF81E02D
:1037A0000E94800580934E036FEF81E00E948005A8
:1037B00080934F0381E00E94BC0281E00E943D079C
:1037C0008130D9F3809168041F928F9382E493E053
:1037D0009F938F937F926F920E94F32DE0907E04CF
:1037E000F0907F0400918004109181047F926F9289
:1037F000812C912CA12CB12C24E0C22ED12C23ECB5
:1038000030E049E551E060E170E08EE493E00E9431
:10381000512980E093E0998B888B8BE090E09B8B23
:103820008A8B81E00E947D0264E081E00E94F702C1
:1038300060E081E00E94F702CE0140967C010FB665
:10384000F894DEBF0FBECDBF01E010E00DC0F70160
:10385000608181E00E94F7020430110599F00F5F4A
:103860001F4FFFEFEF1AFF0A0130110581F781E0CA
:103870000E943D078823D9F3F701608181E00E940F
:10388000F702EDCF81E00E94BC0281E00E947D0240
:1038900081E00E943D078823D9F36FEF81E00E9409
:1038A000800580934E036FEF81E00E948005809336
:1038B0004F0381E00E94BC0281E00E943D078130FD
:1038C000D9F382E591E0998B888B8FEF9FEF9B8BEB
:1038D0008A8B8FEF90E09D8B8C8B81E00E947D0224
:1038E00066E081E00E94F70260E081E00E94F7025A
:1038F000CE0140967C0101E010E00DC0F70160812F
:1039000081E00E94F7020630110599F00F5F1F4F0A
:103910009FEFE91AF90A0130110581F781E00E9451
:103920003D078823D9F3F701608181E00E94F70207
:10393000EDCF81E00E94BC0281E00E947D0281E027
:103940000E943D078823D9F36FEF81E00E94800534
:1039500080934E036FEF81E00E94800580934F03B8
:1039600081E00E94BC0281E00E943D078130D9F3D2
:1039700080E591E0998B888B88E99DE09B8B8A8B11
:1039800088E196E09D8B8C8B80ED92E09F8B8E8BF7
:1039900080E392E0998F888F81E00E947D026AE047
:1039A00081E00E94F70260E081E00E94F702CE0110
:1039B00040967C0101E010E00DC0F701608181E0DC
:1039C0000E94F7020A30110599F00F5F1F4F9FEF19
:1039D000E91AF90A0130110581F781E00E943D07DB
:1039E0008823D9F3F701608181E00E94F702EDCFCF
:1039F00081E00E94BC0281E00E947D0281E00E9481
:103A00003D078823D9F36FEF81E00E948005809302
:103A10004E036FEF81E00E94800580934F0381E0A9
:103A20000E94BC0281E00E943D078130D9F3809161
:103A300067041F928F9382E493E09F938F937F920A
:103A40006F920E94F32DE0907E04F0907F0400912D
:103A50008004109181047F926F92812C912CA12C73
:103A6000B12C94E0C92ED12C23EC30E043EB51E093
:103A700060E170E08EE493E00E94512980E093E0E1
:103A8000998B888B8CE090E09B8B8A8B81E00E94E5
:103A90007D0264E081E00E94F70260E081E00E9424
:103AA000F702CE0140967C010FB6F894DEBF0FBE40
:103AB000CDBF01E010E00DC0F701608181E00E9400
:103AC000F7020430110599F00F5F1F4FFFEFEF1A57
:103AD000FF0A0130110581F781E00E943D0788232C
:103AE000D9F3F701608181E00E94F702EDCF81E018
:103AF0000E94BC0281E00E947D0281E00E943D079D
:103B00008823D9F36FEF81E00E94800580934E03F4
:103B10006FEF81E00E94800580934F0381E00E9457
:103B2000BC0281E00E943D078130D9F382E591E03B
:103B3000998B888B8FEF9FEF9B8B8A8B8FEF90E019
:103B40009D8B8C8B81E00E947D0266E081E00E946B
:103B5000F70260E081E00E94F702CE0140967C010E
:103B600001E010E00DC0F701608181E00E94F702E2
:103B70000630110599F00F5F1F4F9FEFE91AF90A00
:103B80000130110581F781E00E943D078823D9F3B8
:103B9000F701608181E00E94F702EDCF81E00E9491
:103BA000BC0281E00E947D0281E00E943D078823E3
:103BB000D9F36FEF81E00E94800580934E036FEF91
:103BC00081E00E94800580934F0381E00E94BC0247
:103BD00081E00E943D078130D9F380E591E0998B27
:103BE000888B80E897E09B8B8A8B88E998E09D8B97
:103BF0008C8B80E09FE09F8B8E8B80ED92E0998F85
:103C0000888F81E00E947D026AE081E00E94F702D5
:103C100060E081E00E94F702CE0140967C0101E065
:103C200010E00DC0F701608181E00E94F7020A30C8
:103C3000110599F00F5F1F4F9FEFE91AF90A013044
:103C4000110581F781E00E943D078823D9F3F70130
:103C5000608181E00E94F702EDCF81E00E94BC020A
:103C600081E00E947D0281E00E943D078823D9F314
:103C70006FEF81E00E94800580934E036FEF81E03B
:103C80000E94800580934F0381E00E94BC0281E086
:103C90000E943D078130D9F3809166041F928F9373
:103CA00082E493E09F938F937F926F920E94F32D13
:103CB000E0907E04F0907F040091800410918104D4
:103CC0007F926F92812C912CA12CB12C84E0C82E74
:103CD000D12C23E131E040EF50E060E170E08EE470
:103CE00093E00E94512981E00E947D0262E081E020
:103CF0000E94F70260E081E00E94F7020FB6F8949C
:103D0000DEBF0FBECDBF81E00E943D078823D9F3FF
:103D100061E881E00E94F70261E081E00E94F70221
:103D200081E00E94BC0281E00E947D0281E00E944D
:103D30003D078823D9F36FEF81E00E9480058093CF
:103D40004E036FEF81E00E94800580934F0381E076
:103D50000E94BC0281E00E943D078130D9F3699640
:103D60000FB6F894DEBF0FBECDBFDF91CF911F918C
:103D70000F91FF90EF90DF90CF90BF90AF909F900A
:103D80008F907F906F9008950F931F93CF93DF9341
:103D900081E00E947D0262E081E00E94F70260E023
:103DA00081E00E94F70281E00E943D078823D9F359
:103DB00062E081E00E94F70263E081E00E94F70286
:103DC00081E00E94BC0281E00E947D020EE413E0CB
:103DD000C1E0D0E00CC06FEF81E00E948005F801E7
:103DE0008083CA30D10591F021960F5F1F4FC130FB
:103DF000D10589F781E00E943D078823D9F36FEF51
:103E000081E00E948005F8018083EECF81E00E946E
:103E1000BC0281E00E943D078130D9F380915103BB
:103E200090E0982F882720915003822B90937D0457
:103E300080937C048091530390E0982F88272091F1
:103E40005203822B90937B0480937A0480915503D4
:103E500090E0982F882720915403822B9093790427
:103E6000809378042091570330E0322F222740912D
:103E70005603242B309375042093740481309105EC
:103E800021F11092730490937704809376048091CB
:103E90003E022D30310551F0811103C081E0809345
:103EA0003E02DF91CF911F910F9108958823C9F3AE
:103EB0008091720491E089278093720410923E02EF
:103EC000DF91CF911F910F91089540917604509109
:103ED0007704452BB1F6409173044111D2CF41E0F4
:103EE00040937304D0CF209178043091790421302D
:103EF000310519F0FC01108208952091760430916B
:103F00007704232BB9F7FC0120812111F3CF21E0A5
:103F100020830895E0917404F09175043197EC309A
:103F2000F10550F4EE58FF4F0C94EB2A8091660493
:103F300091E089278093660408958091670491E059
:103F400089278093670408958091710491E08927FF
:103F50008093710408958091700491E08927809383
:103F60007004089580916F0491E0892780936F0415
:103F7000089580916E0491E0892780936E040895DE
:103F800080916D0491E0892780936D04089580915C
:103F90006C0491E0892780936C04089580916B04F0
:103FA00091E0892780936B04089580916A0491E0E1
:103FB000892780936A0408958091690491E0892794
:103FC0008093690408958091680491E08927809323
:103FD000680408958091A004811108950E94C41E70
:103FE000809173048823C9F30C948A1F0E94BE0E2B
:103FF0000C94EA1F089597FD18C086309105B4F41B
:10400000FC01EE0FFF1FE65AFB4F06C01192119202
:1040100001968630910551F0208131812F5F3F4F0D
:10402000318320832A3031058CF70895FC01EE0F8F
:10403000FF1FE85AFB4F89E090E091838083089549
:10404000CF93DF9386309105E0F5AC01440F551F07
:10405000FA01E65AFB4F2081318121503109318329
:10406000208337FF2EC085309105C9F19C012F5F59
:104070003F4FF901EE0FFF1FE65AFB4F6081718140
:10408000161617060CF5A9E0B0E00FC02530310573
:1040900031F1B9016F5F7F4F808191811816190648
:1040A000A4F4A9019B01440F551FEA01C65ADB4F36
:1040B000B983A8838081918101978193919397FD22
:1040C000E5CFDF91CF9108959C01F901EE0FFF1F1D
:1040D000E65AFB4F11821082DF91CF91089525E0BF
:1040E00030E0F901EE0FFF1FE65AFB4F11821082FC
:1040F000F3CF8091720408958F929F92AF92BF92F6
:10410000CF92DF92EF92FF92EAE5F4E0C12CD12C3E
:104110007601C394812C912C5401A191B191A701F6
:1041200096010E94002B860E971EA81EB91ED7016D
:10413000C601880F991FAA1FBB1F6C017D01CC0C03
:10414000DD1CEE1CFF1CCC0CDD1CEE1CFF1CC80E85
:10415000D91EEA1EFB1E84E0E636F807F1F6C5011B
:10416000B401FF90EF90DF90CF90BF90AF909F9001
:104170008F900895FC0160830895EF92FF920F9352
:104180001F93CF93DF93EC0188810E947D0260E052
:1041900088810E94800560E088810E948005888176
:1041A0000E94BC0288810E947D0260E288810E9498
:1041B0008005182F60E088810E948005082F888183
:1041C0000E94BC0288810E947D0260E288810E9478
:1041D000800560E088810E94800588810E94BC0281
:1041E00088810E947D0260E088810E948005F82E0F
:1041F00060E088810E948005E82E88810E94BC02D0
:104200008E2D90E0A0E0B0E0772766279F29602BF5
:10421000712BDF91CF911F910F91FF90EF90089537
:10422000FC0180810C949E012F923F924F925F92ED
:104230006F927F928F929F92AF92BF92CF92DF92B6
:10424000EF92FF920F931F93CF93DF93CDB7DEB71B
:1042500063970FB6F894DEBF0FBECDBF7C011B0184
:104260006A01FC0117821682838181FF66C3BE0149
:104270006F5F7F4F4B01F7019381F10193FD8591B2
:1042800093FF81911F01882309F453C3853239F4C8
:1042900093FD859193FF81911F01853239F4B70118
:1042A00090E00E94822D56016501E5CF10E0512C6F
:1042B00020E02032A0F48B3269F030F4803259F0E3
:1042C000833269F420612CC08D3239F0803339F4A7
:1042D000216026C02260246023C0286021C027FD01
:1042E00027C030ED380F3A3078F426FF06C0FAE0E8
:1042F0001F9F300D1124132F13C06AE0569E300DFE
:104300001124532E20620CC08E3221F426FD11C3DD
:10431000206406C08C3611F4206802C0883641F44F
:10432000F10193FD859193FF81911F018111C1CF0F
:104330009BEB980F933018F42061805E06C09BE9D8
:10434000980F933008F0AAC12F7E26FF16E02F7336
:10435000722E853621F4F22FF0647F2E08C0863647
:1043600021F4622F6068762E02C01111115077FE81
:1043700007C01C3348F444244394410E27E00BC08B
:10438000183030F4212F06C027E04CE3442E03C040
:1043900027E017E0412C560174E0A70EB11CF6018E
:1043A0006081718182819381042DA4010E94342C4B
:1043B0006C01098100FF02C003FF06C071FC07C049
:1043C00072FC08C0612C08C03DE2632E05C02BE2E0
:1043D000622E02C090E2692E802F8C7099F16620C7
:1043E00011F084E001C083E0851510F0512C0BC062
:1043F000581A73FC08C0B70180E290E00E94822D39
:104400005A94C9F7F3CF662029F0B701862D90E0C2
:104410000E94822D03FD03C00CE311E002C008E3FB
:1044200011E0F72DF0717F2EF8018491882309F4B3
:1044300076C271108052B70190E00E94822D0F5F0A
:104440001F4FF2CF77FE0FC04C0C04FF04C08A81CF
:10445000813309F44A94141474F5F8E0F41578F5EE
:1044600088E0482E2CC076FC2AC0812F90E08C1565
:104470009D059CF06CEFC6166FEFD60674F0772D95
:104480007068772E0AC0E2E0F0E0EC0FFD1FE10F4C
:10449000F11D8081803319F411501111F4CF77FE92
:1044A0000EC044244394410E812F90E0C816D906D3
:1044B0002CF41C1904C04424439401C010E077FE7E
:1044C00007C01C141D043CF496012F5F3F4F05C02C
:1044D00025E030E002C021E030E0662011F02F5FDF
:1044E0003F4F112331F0412F50E04F5F5F4F240FBA
:1044F000351F452D50E02417350714F4521A01C01A
:10450000512C872D897049F4552039F0B70180E28C
:1045100090E00E94822D5A94F7CF662029F0B701CF
:10452000862D90E00E94822D73FC09C0552039F041
:10453000B70180E390E00E94822D5A94F7CF77FE76
:104540005FC09C2D8D2DD7FE02C090E080E0692ECB
:10455000782E40E050E0C601841991099D878C8730
:10456000960126193709280D391D812F90E0EE2775
:10457000FF27E81BF90BFF87EE87FFEF6F167F061B
:1045800069F4B7018EE290E02B8B3A8B488B598B04
:104590000E94822D598948893A892B89C614D704EB
:1045A00054F06C857D85661577052CF4F901E40FD0
:1045B000F51F818101C080E371E0671A71084F5FC8
:1045C0005F4FEE85FF856E167F066CF0B70190E0B9
:1045D0002B8B3A8B488B598B0E94822D2B893A89E1
:1045E00048895989CACF6C147D0439F49A8196336D
:1045F00018F4953311F404FF81E3B70190E04BC048
:104600008A81813309F00F7EB70190E00E94822DEC
:10461000111105C074FE18C085E490E017C0B70101
:104620008EE290E00E94822D82E066246394680E00
:10463000F401E80FF11D8081B70190E00E94822D06
:10464000115041F3862DF1CF85E690E0B7010E942D
:10465000822DD7FC05C0C114D10439F404FF05C074
:10466000D194C194D1088DE201C08BE2B70190E0F2
:104670000E94822D80E36AE0C616D1042CF08F5F81
:10468000FAE0CF1AD108F7CFB70190E00E94822D4F
:10469000B701C601C0960E94822D41C1833631F018
:1046A000833779F0833509F058C021C0560172E094
:1046B000A70EB11CF6018081898301E010E064013E
:1046C00014C05601F2E0AF0EB11CF601C080D180DB
:1046D00026FF03C0612F70E002C06FEF7FEFC601BD
:1046E0002B8B0E94392D8C012B892F7715C05601F9
:1046F000F2E0AF0EB11CF601C080D18026FF03C0EE
:10470000612F70E002C06FEF7FEFC6012B8B0E941C
:10471000272D8C012B892068722E23FD1AC0852D30
:1047200090E008171907A8F4B70180E290E00E9412
:10473000822D5A94F4CFF60177FC859177FE819112
:104740006F01B70190E00E94822D51105A940150E0
:1047500011090115110579F7E2C0843611F0893687
:1047600051F5560127FF09C0F4E0AF0EB11CF60168
:1047700060817181828193810AC0F2E0AF0EB11C29
:10478000F60160817181882777FD8095982F022F2F
:104790000F7697FF08C090958095709561957F4F33
:1047A0008F4F9F4F00682AE030E0A4010E943B2E0B
:1047B000C82EC8183EC0022F853721F40F7E2AE08C
:1047C00030E01DC0097F8F3691F018F4883559F01C
:1047D000B0C0803719F0883711F0ABC0006104FF1A
:1047E00009C0046007C024FF08C0066006C028E0B6
:1047F00030E005C020E130E002C020E132E05601A7
:1048000007FF09C0F4E0AF0EB11CF60160817181B1
:104810008281938108C0F2E0AF0EB11CF601608185
:10482000718180E090E0A4010E943B2EC82EC81840
:104830000F7706FF0BC0202F2E7FC11650F404FF08
:104840000AC002FD08C0202F2E7E05C0DC2C202FC0
:1048500003C0DC2C01C0D12E24FF0DC0FE01EC0DE5
:10486000F11D8081803311F4297E09C022FF06C02A
:10487000D394D39404C0822F867809F0D39423FD77
:1048800013C020FF06C01C2DD51418F4150D1D19DA
:10489000D52CD51468F4B70180E290E02B8B0E94F0
:1048A000822DD3942B89F5CFD51410F45D1801C057
:1048B000512C24FF12C0B70180E390E02B8B0E94A3
:1048C000822D2B8922FF17C021FF03C088E590E0CD
:1048D00002C088E790E0B7010CC0822F867859F0BB
:1048E00021FD02C080E201C08BE227FD8DE2B7010D
:1048F00090E00E94822DC11638F4B70180E390E069
:104900000E94822D1150F7CFCA94F401EC0DF11DD5
:104910008081B70190E00E94822DC110F5CF552013
:1049200009F4C2CCB70180E290E00E94822D5A9433
:10493000F6CFF7018681978102C08FEF9FEF6396D4
:104940000FB6F894DEBF0FBECDBFDF91CF911F91A0
:104950000F91FF90EF90DF90CF90BF90AF909F901E
:104960008F907F906F905F904F903F902F90089521
:1049700020FD09C0FC0123FD05C022FF02C0738396
:10498000628351834083089544FD10C046FD10C0EA
:10499000DB01FC01AA0FBB1FEE1FFF1F1094D1F714
:1049A0006A0F7B1F8E1F9F1F31E003C033E001C0E1
:1049B00034E0660F771F881F991F3150D1F7620FBF
:1049C000711D811D911D08950F931F93CF93DF9348
:1049D0008C01C8010E94442DEC0197FD08C00E9483
:1049E0000C2D892BB1F7B801CE010E94222ECE01E9
:1049F000DF91CF911F910F9108956F927F929F92B7
:104A0000AF92BF92CF92DF92EF92FF920F931F93DC
:104A1000CF93DF931F92CDB7DEB78C013B015A01D4
:104A200029830E94442DAC01552729814B32510521
:104A300021F04D32510581F4206831E0631A71088C
:104A40006114710411F480E07FC0C80129830E94C1
:104A5000442D298197FDF7CFE22FED7F9E2E322F37
:104A6000307379F5803369F57301F1E0EF1AF108DD
:104A7000E114F10409F454C0C80129830E94442DB3
:104A8000298197FD4DC0382F3F7D383581F4292D80
:104A90002264922E32E0631A71086114710409F4E1
:104AA0003FC0C8010E94442D97FF0BC039C026FFAC
:104AB00004C0E92DE2609E2E03C0F92DF2619F2E05
:104AC0003701C12CD12C760120ED280F283080F041
:104AD00094FE04C0B8010E94222E1FC02A3040F06C
:104AE00096FEF8CF2F7D3FEE320F363098F72750E5
:104AF000492DC701B6010E94C4246B017C01292DF8
:104B00002260922E31E0631A71086114710459F029
:104B1000C8010E94442D97FFD7CF91FC04C093CFCA
:104B2000C12CD12C760197FE08C0F094E094D0946B
:104B3000C094C11CD11CE11CF11C292DB701A60198
:104B4000C5010E94B82481E00F90DF91CF911F91A1
:104B50000F91FF90EF90DF90CF90BF90AF909F901C
:104B60007F906F9008954F925F926F927F928F9295
:104B70009F92AF92BF92CF92DF92EF92FF920F93EC
:104B80001F93CF93DF93CDB7DEB7A0970FB6F894FE
:104B9000DEBF0FBECDBF5C014B017A018E010F5FFE
:104BA0001F4F680180E2F80111928A95E9F7F5013B
:104BB000638080E090E0712C412CB0E041E050E057
:104BC000F90163FC559063FE51908F01A52D9F0163
:104BD000511003C080E090E07FC0FEE55F1202C08C
:104BE000009761F16B2F70E0681779074CF46DE561
:104BF000561661F1EDE25E1203C0442009F103C0D4
:104C0000411001C0752C6A2F669566956695F60170
:104C1000E60FF11D6A2F67708A0102C0000F111F95
:104C20006A95E2F7B8017081762B7083A71559F069
:104C3000A71510F4AF5FE7CFA150E5CFB1E004C0F6
:104C40004424439401C0412C0196BACF442019F06A
:104C50008E8180628E83B11103C07724739419C052
:104C6000F601CE018196208120952193E817F9075E
:104C7000D1F7F3CFE114F10429F0F7018083C701E4
:104C800001967C0191E0891A910881149104F1F058
:104C9000712CC5010E94442D97FD16C0282F269522
:104CA00026952695F601E20FF11D208130E0AC013A
:104CB0004770552702C0359527954A95E2F720FDA4
:104CC000D9CFB5010E94222E711084CFE114F104D6
:104CD00011F0F7011082C801A0960FB6F894DEBF5C
:104CE0000FBECDBFDF91CF911F910F91FF90EF903D
:104CF000DF90CF90BF90AF909F908F907F906F90FC
:104D00005F904F9008952F923F924F925F926F92D3
:104D10007F929F92AF92BF92CF92DF92EF92FF92DB
:104D20000F931F93CF93DF9300D000D0CDB7DEB7A2
:104D30006C018B011A010E94442D9E838D8399275B
:104D40008B32910529F08D9799F480E8982E01C057
:104D5000912C015011090115110511F480E036C1A3
:104D6000C6010E94442D9E838D8397FF02C0F6CF1B
:104D7000912C8D819E810E94142D8936910541F0E0
:104D80008E369105D9F5B2E56B2EB1E07B2E04C0CD
:104D9000A5E56A2EA1E07A2E8FEF681A780AF30152
:104DA0003197B490BB20F1F00150110901151105A4
:104DB00071F0C6010E94442D7C0197FD08C00E943D
:104DC000142DB81649F3B601C7010E94222E28E51A
:104DD000621621E0720609F0C1CF80E090E0A0E801
:104DE000BFE709C095E5691691E07906B1F780E063
:104DF00090E0A0ECBFE7BC01CD01D8C0412C512C04
:104E00003201E12CF12C2D8120532A3028F5E92D97
:104E1000E260BE2E892D887092FE06C0811123C0EB
:104E2000FFEFEF1AFF0A1FC0882319F081E0E81A8C
:104E3000F10840E2C301B2010E94C4242B013C01ED
:104E400098E9491699E95906690699E1790658F0F1
:104E5000E92DE660BE2E07C02E3FA1F493FC12C0E0
:104E6000F92DF860BF2E015011090115110549F007
:104E7000C6010E94442D9E838D839B2C97FD02C00A
:104E8000C2CF9B2C91FE6ACF8D818F7D853409F036
:104E900056C0580121E0A21AB108A114B10409F4C6
:104EA0005DCFC6010E94442D9E838D8397FD56CF12
:104EB00099278B32910529F08D9781F4892D806196
:104EC000982E580192E0A91AB108A114B10409F46E
:104ED00045CFC6010E94442D9E838D838D819E8186
:104EE000C0970A9708F03ACF8501A12CB12CB501E3
:104EF000882777FD8095982F2D81205340E20E94CE
:104F0000C424AB01BC015A0101501109011511055E
:104F100071F0C60149835A836B837C830E94442DC0
:104F20009E838D83C09749815A810A9700F394FE2E
:104F300004C0AA24BB24A41AB50AEA0CFB1C012B4A
:104F400041F0ED81FE81F7FD04C0B601CF010E9462
:104F5000222EC301B2010E94432BF7FE08C0F19438
:104F6000E194F108F1E7AF2EF1E0BF2E04C0E9E8CB
:104F7000AE2EE1E0BE2E6501F8E1CF1AD10800E2C5
:104F800010E0E016F10650F0F501259135914591BC
:104F900054910E94A92BE01AF10AF3CF24E0A21A3F
:104FA000B10816950795AC14BD0459F797FE05C0D6
:104FB000DC01CB01B058BC01CD012114310429F032
:104FC000F101608371838283938381E026960FB61B
:104FD000F894DEBF0FBECDBFDF91CF911F910F912F
:104FE000FF90EF90DF90CF90BF90AF909F907F9019
:104FF0006F905F904F903F902F9008954F925F92E7
:105000006F927F928F929F92AF92BF92CF92DF92D8
:10501000EF92FF920F931F93CF93DF931F92CDB721
:10502000DEB78C012B017A01FC0117821682A12CBC
:10503000F801D380F201D3FC8591D3FE8191382F02
:105040002F01882309F416C190E039830E940C2DAA
:105050003981892B21F0C8010E94E424E9CF35323F
:1050600041F4F201D3FC3591D3FE31912F01353259
:1050700069F4C80139830E94442D398197FDF8C035
:105080003817B1F2B8010E94222EF4C03A3241F42E
:10509000D3FC3591D3FE31912F01BB24B39401C0D1
:1050A000B12C812C912C20ED230F2A3088F4FB2D7C
:1050B000F260BF2EB40180E090E040E20E94C42480
:1050C0004B01F201D3FC3591D3FE31912F01EBCF8F
:1050D000B1FE04C08114910421F4CCC088248A94C8
:1050E000982C383619F03C3661F014C0F201D3FC2C
:1050F0003591D3FE31912F01383661F4FB2DF860E4
:10510000BF2E8B2D8460B82EF201D3FC3591D3FED7
:1051100031912F01332309F4ADC0632F70E080E497
:1051200091E039830E941C2D3981892B09F4A2C09A
:10513000B0FC07C0F701C080D180C70102967C0196
:1051400002C0C12CD12C3E3651F4F8014681578162
:1051500060E070E02B2DC6010E94B82469CF333681
:10516000C9F4B1FC03C088248394912CC8010E9427
:10517000442D97FD7DC0C114D10429F0F601808330
:10518000C60101966C0191E0891A9108811491047D
:1051900069F76AC03B3559F49201A601B401C80110
:1051A0000E94B3252C01009709F05EC058C0C801C9
:1051B00039830E94E424398197FD5AC03F36F1F1CA
:1051C00040F43436B9F13936E1F1383509F040C0F0
:1051D0002DC03337B9F018F4303741F139C03537C5
:1051E00049F1383719F134C0C114D10429F0F6015E
:1051F0006082C60101966C0191E0891A91088114C0
:10520000910471F0C8010E94442D3C0197FD08C033
:105210000E940C2D892B41F3B801C3010E94222E5C
:10522000C114D10409F1F60110821EC0FB2DF064F7
:10523000BF2E07C08B2D8062B82E03C09B2D9061BE
:10524000B92E2B2DA601B401C8010E94FD2405C072
:10525000A601B401C8010E948326811105C0F8018E
:105260008381807329F406C0B0FCE2CEA394E0CE23
:10527000AA2019F08A2D90E002C08FEF9FEF0F90C7
:10528000DF91CF911F910F91FF90EF90DF90CF9022
:10529000BF90AF909F908F907F906F905F904F9056
:1052A00008956F927F928F929F92AF92BF92CF920A
:1052B000DF92EF92FF920F931F93CF93DF93CDB7BF
:1052C000DEB7C251D1400FB6F894DEBF0FBECDBFDE
:1052D0003C0181E091E09A8389837C836B83440F56
:1052E000551F440F551F440F551F5E834D83220FDA
:1052F000331F220F331F220F331F38872F83FA8665
:10530000E9861C870B87DE86CD86B88AAF86880C37
:10531000991C880C991C880C991C9A8A898ACC5DE6
:10532000DE4F68817981C452D140CE0143960E94FC
:10533000FF078E010F5F1F4F6C01C01AD10A81E079
:105340000E947D026C2D81E00E94F7026D2D81E0AC
:105350000E94F702C114D104F9F0780100E010E0D6
:105360000BC0F70161917F0181E00E94F7020F5F9E
:105370001F4FC016D10681F098012F733327232BBE
:1053800081F781E00E943D078111EBCF81E00E940F
:105390003D078823B1F3E5CF81E00E94BC0281E0A4
:1053A0000E947D0281E00E943D078823D9F36FEFC0
:1053B00081E00E948005F30180836FEF81E00E940D
:1053C0008005F301818381E00E94BC0281E00E949C
:1053D0003D078130D9F3F30180819181CE5EDE4FAC
:1053E0000FB6F894DEBF0FBECDBFDF91CF911F91F6
:1053F0000F91FF90EF90DF90CF90BF90AF909F9074
:105400008F907F906F900895AF92BF92CF92DF926E
:10541000EF92FF920F931F93CF93DF93CDB7DEB739
:10542000C250D1400FB6F894DEBF0FBECDBF5C01B5
:1054300085E593E09A838983CE0103960E94FF0756
:105440008E010F5F1F4F6C01C01AD10A81E00E94CC
:105450007D026C2D81E00E94F7026D2D81E00E949B
:10546000F702C114D104F9F0780100E010E00BC09C
:10547000F70161917F0181E00E94F7020F5F1F4FEA
:10548000C016D10681F098012F733327232B81F7A3
:1054900081E00E943D078111EBCF81E00E943D0732
:1054A0008823B1F3E5CF81E00E94BC0281E00E9435
:1054B0007D0281E00E943D078823D9F36FEF81E0F0
:1054C0000E948005F50180836FEF81E00E948005D6
:1054D000F501818381E00E94BC0281E00E943D07CA
:1054E0008130D9F3F50180819181CE5FDE4F0FB617
:1054F000F894DEBF0FBECDBFDF91CF911F910F910A
:10550000FF90EF90DF90CF90BF90AF9008950E94F2
:1055100078010E947E070E94300E83E090E00E9496
:1055200080010E947A01789485E493E00E94C62D60
:10553000C0E0D0E040E002E314E69E0136952795F6
:10554000ABE7B4E10E94F12A96958795089F9001F8
:10555000099F300D1124C217D307F9F0442331F00D
:105560008FE99FE00197F1F700C0000021969E01AE
:105570003695279536952795ABE7B4E10E94F12A39
:1055800096958795189F9001199F300D112441E041
:10559000C217D30791F640E0D0CF0E94BE0E0E9402
:1055A000EA1FE4CF62E087E994E00E943A0863E0F2
:1055B00084E994E00E94D40764E080E994E00E94CA
:1055C000A70765E08BE894E00E94150866E082E892
:1055D00094E00C94BA20EE0FFF1F0590F491E02D9B
:1055E0001994A29FB001B39FC001A39F700D811DAC
:1055F0001124911DB29F700D811D1124911D0895DC
:10560000B7FF0C940C2B0E940C2B821B930B08955C
:105610000790F691E02D19940E94F12AA59F900D14
:10562000B49F900DA49F800D911D1124089570D0FA
:1056300088F09F5790F0B92F9927B751A0F0D1F07B
:10564000660F771F881F991F1AF0BA95C9F712C005
:10565000B13081F077D0B1E0089574C0672F782F12
:105660008827B85F39F0B93FCCF386957795679571
:10567000B395D9F73EF490958095709561957F4FDD
:105680008F4F9F4F0895E89409C097FB3EF4909583
:105690008095709561957F4F8F4F9F4F9923A9F00B
:1056A000F92F96E9BB279395F6958795779567959A
:1056B000B795F111F8CFFAF4BB0F11F460FF1BC0DE
:1056C0006F5F7F4F8F4F9F4F16C0882311F096E971
:1056D00011C0772321F09EE8872F762F05C066231F
:1056E00071F096E8862F70E060E02AF09A95660FD8
:1056F000771F881FDAF7880F9695879597F9089591
:1057000057FD9058440F551F59F05F3F71F0479572
:10571000880F97FB991F61F09F3F79F08795089557
:10572000121613061406551FF2CF4695F1DF08C076
:10573000161617061806991FF1CF86957105610593
:1057400008940895E894BB2766277727CB0197F93B
:1057500008950BD078C069D028F06ED018F095234A
:1057600009F05AC05FC01124EECFCADFA0F3959FA5
:10577000D1F3950F50E0551F629FF001729FBB2738
:10578000F00DB11D639FAA27F00DB11DAA1F649FE4
:105790006627B00DA11D661F829F2227B00DA11D97
:1057A000621F739FB00DA11D621F839FA00D611D1D
:1057B000221F749F3327A00D611D231F849F600D3E
:1057C000211D822F762F6A2F11249F5750408AF077
:1057D000E1F088234AF0EE0FFF1FBB1F661F771F03
:1057E000881F91505040A9F79E3F510570F014C09A
:1057F000AACF5F3FECF3983EDCF3869577956795EB
:10580000B795F795E7959F5FC1F7FE2B880F911D20
:105810009695879597F9089597F99F6780E870E0C6
:1058200060E008959FEF80EC089500240A94161616
:10583000170618060906089500240A94121613067E
:10584000140605060895092E0394000C11F488230C
:1058500052F0BB0F40F4BF2B11F460FF04C06F5F28
:105860007F4F8F4F9F4F0895283008F027E0332750
:10587000DA01990F311D87FD916000966105710570
:1058800039F432602E5F3D9330E32A95E1F70895B5
:105890009F3F30F080387105610509F03C5F3C5F47
:1058A0003D93913008F08068911DDF93CF931F9353
:1058B0000F93FF92EF92192F987F9695E92F969567
:1058C0009695E90FFF27E951FE4F99273327EE24DC
:1058D000FF24A701E70105900894079428F4360FE8
:1058E000E71EF81E491F511D660F771F881F991F5D
:1058F0000694A1F70590079428F4E70EF81E491FB7
:10590000561FC11D770F881F991F661F0694A1F7A8
:105910000590079428F4F80E491F561FC71FD11D84
:10592000880F991F661F771F0694A1F705900794AB
:1059300020F4490F561FC71FD81F990F661F771FE6
:10594000881F0694A9F784911095177041F0D69599
:10595000C79557954795F794E7941A95C1F7EDE8E1
:10596000F1E06894159015913591659195910590A8
:105970007FE27395E118F10A430B560BC90BD0096E
:10598000C0F7E10CF11E431F561FC91FD01D7EF446
:10599000703311F48A95E6CFE894015030F0080F87
:1059A0000AF40027021708F4202F2395022F7A33D8
:1059B00028F079E37D932A95E9F710C07D932A9525
:1059C00089F6069497956795379517951794E1187A
:1059D000F10A430B560BC90BD00998F023957E9121
:1059E00073957A3308F070E37C932013B8F77E91B7
:1059F00070617D9330F0839571E37D9370E32A9518
:105A0000E1F71124EF90FF900F911F91CF91DF915B
:105A1000992787FD9095089591118BC1803219F0D7
:105A200089508550D0F708959111089581548A5175
:105A300008F4805E855A0895FC010590061621F051
:105A40000020D9F7C00108953197CF010895FC01D6
:105A50000590615070400110D8F7809590958E0F99
:105A60009F1F0895FB01DC0101900D920020E1F7DA
:105A70000895FC016150704001900110D8F78095A5
:105A800090958E0F9F1F0895CF93DF93EC012B818C
:105A900020FF33C026FF0AC02F7B2B838E819F817E
:105AA00001969F838E838A8190E029C022FF0FC0D8
:105AB000E881F9818081992787FD9095009719F4F5
:105AC00020622B831AC03196F983E8830EC0EA85E1
:105AD000FB85199597FF09C02B81019611F480E190
