:100000000C9439010C946A010C943B070C943B0747
:100010000C947D070C946A010C943B070C946A01C4
:100020000C946A010C9487070C946A010C946A0181
:100030000C946A010C946A010C946A010C946A0194
:100040000C946A010C946A010C946A010C946A0184
:100050000C946A010C946A010C946A010C946A0174
:100060000C946A010C94CF040C946A010C946A01FC
:100070000C946A010C946A010C946A010C946A0154
:100080000C946A010C946A010C946A010C946A0144
:100090000C946A010C946A010C946A010C946A0134
:1000A0000C946A010C946A010C946A010C946A0124
:1000B0000C946A010C946A010C946A010C946A0114
:1000C0000C946A010C946A010C946A010C946A0104
:1000D0000C946A010C946A010C946A010C946A01F4
:1000E0000C946A01C725DC25F12506261B2635263A
:1000F000AD2593250C9487040C9406260C94AD250D
:100100000C9435260C9493250C94DC250C94D83053
:100110000C941B260C94C7250C9497040C94F12581
:100120006E616E00696E66006364696E6F707375F0
:1001300078585B65666745464700616E006E666984
:100140006E69747900CDCCCC3D0AD7233C17B7D16A
:100150003877CC2B329595E6241FB14F0A0000204A
:10016000410000C84200401C4620BCBE4CCA1B0EC9
:100170005AAEC59D7400407A10F35A00A0724E1812
:10018000090010A5D4E80000E87648170000E40B49
:1001900054020000CA9A3B000000E1F5050000800F
:1001A000969800000040420F000000A08601000069
:1001B00000102700000000E80300000000640000B9
:1001C0000000000A00000000000100000000002CF8
:1001D00076D888DC674F0823DFC1DFAE59E1B1B7BD
:1001E00096E5E3E453C63AE651997696E8E6C2848A
:1001F00026EB898C9B62ED407C6FFCEFBC9C9F40A2
:10020000F2BAA56FA5F490055A2AF75C936B6CF9C6
:10021000676DC11BFCE0E40D47FEF520E6B500D09C
:10022000ED902E0300943577050080841E080000B1
:10023000204E0A000000C80C333333330F986E127F
:10024000831141EF8D2114893BE65516CFFEE6DB85
:1002500018D1844B381BF77C1D901DA4BBE42420CF
:100260003284725E228100C9F124ECA1E53D2700B1
:10027000D83011241FBECFEFD1E2DEBFCDBF00E0EA
:100280000CBF13E0A0E0B2E0E4E5FBE600E00BBF4A
:1002900002C007900D92AE36B107D9F726E0AEE660
:1002A000B3E001C01D92A139B207E1F712E0C2E745
:1002B000D2E000E006C022970109FE010BBF0E94B8
:1002C000F230C037D10780E00807A9F70E94293033
:1002D0000C94A8350C940000279A08952F9A08953D
:1002E0002F9808951F9A08950097D9F020E030E0E4
:1002F0002F9A4FE75AE166E0415050406040E1F7E5
:1003000000C000002F984FE75AE166E0415050408E
:100310006040E1F700C000002F5F3F4F281739070A
:1003200039F70895813009F43FC0823009F008950B
:1003300080910101806880930101809102018F7793
:10034000809302012FEF81EE94E021508040904095
:10035000E1F700C0000080910101886080930101F5
:100360008091020188608093020180910101806187
:10037000809301018091020180618093020180914C
:10038000010180628093010180910201806280936B
:10039000020180910101806480930101809102013A
:1003A0008F7B809302010895809A889A6F9A779A3A
:1003B000839A8B9A819A899A82988A986E9876986D
:1003C0000895813009F0089577988AE08A95F1F7C9
:1003D000779A81E08A95F1F70895813071F0823043
:1003E00009F00895809102018F7E8093020180912F
:1003F0000201877F8093020108958B988898089561
:10040000813099F0823009F008958091020188606E
:1004100080930201809102018061809302018091AA
:1004200002018062809302010895889A8B9A899ACA
:100430000895962F9078813009F4BCC0823009F07D
:10044000089580910201911110C18F7D8093020166
:1004500081E08A95F1F78091020180618093020129
:1004600081E08A95F1F7809102018F7E80930201ED
:1004700066FF31C18091020180628093020181E0B8
:100480008A95F1F78091020180618093020181E0F9
:100490008A95F1F7809102018F7E8093020165FFBA
:1004A00014C18091020180628093020181E08A95EB
:1004B000F1F78091020180618093020181E08A95C9
:1004C000F1F7809102018F7E8093020164FFF7C0F3
:1004D0008091020180628093020181E08A95F1F7A8
:1004E0008091020180618093020181E08A95F1F799
:1004F000809102018F7E8093020163FFDAC08091B8
:10050000020180628093020181E08A95F1F7809177
:10051000020180618093020181E08A95F1F7809168
:1005200002018F7E8093020162FFBDC080910201B3
:1005300080628093020181E08A95F1F78091020147
:1005400080618093020181E08A95F1F78091020138
:100550008F7E8093020161FFA0C0809102018062C2
:100560008093020181E08A95F1F780910201806118
:100570008093020181E08A95F1F7809102018F7EDC
:100580008093020160FF83C08091020180628093AA
:10059000020181E08A95F1F78091020180618093E8
:1005A000020181E08A95F1F7809102018F7E8093AC
:1005B00002010895911157C0899881E08A95F1F759
:1005C0008B9A81E08A95F1F78B9866FF54C0899ADF
:1005D00081E08A95F1F78B9A81E08A95F1F78B9803
:1005E00065FF47C0899A81E08A95F1F78B9A81E08F
:1005F0008A95F1F78B9864FF46C0899A81E08A95C5
:10060000F1F78B9A81E08A95F1F78B9863FF39C0F7
:10061000899A81E08A95F1F78B9A81E08A95F1F7C2
:100620008B9862FF2CC0899A81E08A95F1F78B9AAA
:1006300081E08A95F1F78B9861FF1FC0899A81E06C
:100640008A95F1F78B9A81E08A95F1F78B9860FF94
:100650001CC0899A81E08A95F1F78B9A81E08A958E
:10066000F1F78B980895899AA8CF80628093020150
:10067000EFCE8998B8CF8998ABCF8998E0CF899889
:10068000D3CF8998C6CF8998B9CF8998E3CF809185
:1006900002018F7D809302017CCF809102018F7DCA
:1006A000809302015FCF809102018F7D80930201D0
:1006B00042CF809102018F7D8093020125CF8091EE
:1006C00002018F7D8093020108CF809102018F7D0E
:1006D00080930201EBCE809102018F7D8093020115
:1006E000CECE813011F080E008958A95F1F78B9A93
:1006F0008FB191E09A95F1F78B9882FB882780F96A
:10070000880F91E09A95F1F78B9A2FB191E09A9525
:10071000F1F78B9822FB992790F9892B880F91E0AC
:100720009A95F1F78B9A2FB191E09A95F1F78B9802
:1007300022FB992790F9892B880F91E09A95F1F780
:100740008B9A2FB191E09A95F1F78B9822FB99271C
:1007500090F9892B880F91E09A95F1F78B9A2FB138
:1007600091E09A95F1F78B9822FB992790F9892BC4
:10077000880F91E09A95F1F78B9A2FB191E09A95B5
:10078000F1F78B9822FB992790F9892B880F91E03C
:100790009A95F1F78B9A2FB191E09A95F1F78B9892
:1007A00022FB992790F9892B91E09A95F1F78B9A82
:1007B0002FB191E09A95F1F78B98880F22FB99273A
:1007C00090F9892B0895813011F080E0089567FF3A
:1007D00093C0899A81E08A95F1F78B9A9FB181E065
:1007E0008A95F1F78B9892FB992790F9990F66FFFC
:1007F00081C0899A81E08A95F1F78B9A8FB121E0C7
:100800002A95F1F78B9882FB882780F9892B880F2E
:1008100065FF6EC0899A91E09A95F1F78B9A9FB126
:1008200021E02A95F1F78B9892FB992790F9982B64
:10083000990F64FF5BC0899A81E08A95F1F78B9AE2
:100840008FB121E02A95F1F78B9882FB882780F9F8
:10085000892B880F63FF48C0899A91E09A95F1F738
:100860008B9A9FB121E02A95F1F78B9892FB9927FB
:1008700090F9982B990F62FF35C0899A81E08A958B
:10088000F1F78B9A8FB121E02A95F1F78B9882FBD3
:10089000882780F9892B880F61FF22C0899A91E00F
:1008A0009A95F1F78B9A9FB121E02A95F1F78B98F1
:1008B00092FB992790F9982B990F60FF0FC0899AA6
:1008C00081E08A95F1F78B9A8FB121E02A95F1F7B3
:1008D0008B9882FB882780F9892B08958998F0CF1F
:1008E0008998DDCF8998CACF8998B7CF8998A4CF46
:1008F000899891CF89987ECF89986CCF813011F0FB
:1009000080E008958CB186FB882780F90895CF9305
:10091000C82F8A3041F09091C00095FFFCCFC09362
:10092000C600CF9108958DE00E948704F4CF809196
:1009300070038823E1F3E0917103F0917203EB58A7
:10094000FC4F80819091700391509093700320919F
:100950007103309172032F5F3F4F309372032093E6
:10096000710320917103309172032F3F310509F01B
:100970000895109272031092710308951092C500A9
:1009800089E18093C400E0ECF0E080818D7F80837A
:1009900086E08093C20088E18093C10008951F9291
:1009A0000F920FB60F9211240BB60F922F938F93C5
:1009B0009F93EF93FF932091C600809170038F3F28
:1009C000A1F1E0917303F0917403EB58FC4F208385
:1009D000809170038F5F8093700380917303909177
:1009E000740301969093740380937303809173034F
:1009F000909174038F3F910501F180916E03909166
:100A00006F03892B31F08091C00085FFFCCF2093CC
:100A1000C600FF91EF919F918F912F910F900BBE88
:100A20000F900FBE0F901F9018958091C00085FF0A
:100A3000FCCF80E48093C600ECCF10927403109238
:100A40007303DBCF809170038823F1F0E091710391
:100A5000F0917203EB58FC4F80819091700391509C
:100A60009093700320917103309172032F5F3F4F79
:100A700030937203209371032091710330917203BC
:100A80002F3F310519F0089580E008951092720308
:100A9000109271030895E1ECF0E080818F778083FC
:100AA0001092C50089E18093C400A0ECB0E08C9165
:100AB0008D7F8C9386E08093C20088E180831092C2
:100AC0006F0310926E0380E092E090938C06809307
:100AD0008B0690938E0680938D061092740310926D
:100AE000730310927203109271031092700380814D
:100AF00080688083089590936F0380936E030895B8
:100B000010926F0310926E030895FC0160830895A4
:100B1000CF92DF92EF92FF920F93CF93DF93EC018E
:100B20006A017B0188810E94ED01602F63708881DA
:100B30000E94190299278F2D7E2D6D2D88810E948C
:100B400019026C2D88810E9419028881DF91CF9152
:100B50000F91FF90EF90DF90CF900C940002FC017A
:100B600080810C949201FC0160830895CF92DF9202
:100B7000EF92FF92CF93DF93EC016A017B018881B2
:100B80000E94ED016C2D88810E941902B70188270F
:100B9000992788810E94190299278F2D7E2D6D2D0E
:100BA00088810E9419028881DF91CF91FF90EF9098
:100BB000DF90CF900C940002FC0180810C94920194
:100BC000FC01608308950F931F93CF93DF93EC0193
:100BD0008B0188810E94ED01B8010024660F771F08
:100BE000001C660F771F001C672F702D6F738881A4
:100BF0000E941902602F660F660F88810E941902F9
:100C00008881DF91CF911F910F910C940002FC011C
:100C100080810C9492010F931F93CF93DF938C01EB
:100C2000EB010E941734FE0101900020E9F7EC1B54
:100C3000FD0BC8018E0F9F1FDF91CF911F910F9168
:100C40000895FC01608308950F931F93CF93DF9362
:100C5000EC0188810E94ED0188810E9471038881E6
:100C60000E947103182F88810E947103082F8881C8
:100C70000E940002802F90E0912BDF91CF911F9175
:100C80000F910895FC0180810C949201FC01608316
:100C90000895EF92FF921F93CF93DF931F92CDB7EA
:100CA000DEB77C01162FFC01808179830E94ED0163
:100CB0006981F70180810E941902612FF70180810B
:100CC0000E941902F70180810F90DF91CF911F914F
:100CD000FF90EF900C940002FC0180810C94920133
:100CE00008950895CF92DF92EF92FF920F931F9392
:100CF00069017A01609314027093150280931602C1
:100D0000909317020E94F331F601EE0FFF1FEE0FD2
:100D1000FF1FE65DFD4F20813181428153810E949A
:100D2000A9320E94C731AB01BC014115510581E0D8
:100D30006807710520F04FEF5FEF60E070E097010A
:100D4000860187E596E00E9488051F910F91FF902C
:100D5000EF90DF90CF9008954F925F926F927F92C5
:100D6000AF92BF92CF92DF92EF92FF920F931F93B9
:100D7000CF93DF9348E6A42E46E0B42EC8E5D6E034
:100D80000CE616E0C12CD12C7601F50181915F01B2
:100D90008823D9F120E030E04AE754E4F80160818B
:100DA0007181828193810E94A9320E94C73148805B
:100DB00059806A807B80641575058605970541F02A
:100DC000688379838A839B83A70196010E947206B8
:100DD0002496FFEFCF1ADF0AEF0AFF0A0C5F1F4FBE
:100DE00084E0C816D104E104F10479F6DF91CF91D3
:100DF0001F910F91FF90EF90DF90CF90BF90AF9039
:100E00007F906F905F904F90089560E070E0CB010D
:100E1000CECF52985A9AE9E6F0E080818F7D8083A8
:100E2000808180618083EA9A5198599A8081877F76
:100E30008083808184608083E99A53985B9A808163
:100E40008068808380818F7B8083EB9A26982E9A9E
:100E5000A8E6B0E08C9181608C93EBE6F0E08081B5
:100E60008064808325982D9A8C9181608C938081F9
:100E70008062808308951F920F920FB60F92112403
:100E80000BB60F922F933F934F935F936F938F9374
:100E90009F93EF93FF9340918306440F440F409339
:100EA000830659B169B161FB882780F990E0842BF2
:100EB00052FB222720F930E0220F331F822B932B85
:100EC000809383068F70E82FF0E0E65EFD4F8091FF
:100ED00088069081890F80938806FF91EF919F91FA
:100EE0008F916F915F914F913F912F910F900BBE1A
:100EF0000F900FBE0F901F9018951F920F920FB674
:100F00000F9211240F900FBE0F901F9018951F92F3
:100F10000F920FB60F9211248F939F9383B186FB8C
:100F2000882780F990910F02992311F08823C1F04E
:100F300080930F0283B185FB882780F990910E0280
:100F4000992329F0811103C091E090938606809344
:100F50000E029F918F910F900FBE0F901F901895CA
:100F600091E090938706E4CFCF92DF92EF92FF92C9
:100F70000F931F93CF93DF9313B116FB112710F933
:100F800003B105FB002700F9EFE7F5E0C0E0D0E092
:100F90008191811104C02196C730D105C9F7809194
:100FA0008706882341F081E080938406112309F4A9
:100FB0007CC11092870680918606811149C080917C
:100FC0008506882389F080915606853008F028C16F
:100FD0008F5F80935606853009F422C1002321F0EB
:100FE000109285061092560680918406882389F017
:100FF00080915506853008F0CEC08F5F80935506EE
:10100000853009F4C8C0112321F010928406109293
:1010100055062091820610918806211741F0809193
:10102000800690918106C817D90709F45BC0109219
:10103000820610928806D0938106C0938006DF91C5
:10104000CF911F910F91FF90EF90DF90CF90089577
:1010500081E08093850601116BC1C230D10509F48E
:101060001DC30CF423C2C330D10509F4EBC3C43053
:10107000D105A1F55F988FE19EE40197F1F700C0DB
:10108000000020E030E040E85FE360917806709176
:10109000790680917A0690917B060E94F7306B0169
:1010A0007C0120E030E046E153E40E94A5321816AE
:1010B0000CF4EBC420E030E0A901C701B6010E94A6
:1010C0005B3187FF03C0C12CD12C7601C09278061A
:1010D000D0927906E0927A06F0927B065F9A809130
:1010E000850627C1121BC230D10509F494C20CF445
:1010F00023C1C330D10509F44BC2C430D10509F076
:1011000042C087E61802812D11248595859517FD2B
:101110008395182F811100C5612F772767FD709582
:10112000872F972F0E94F53120E030E048E453E408
:101130000E945F31209178063091790640917A06BD
:1011400050917B060E94F7306B017C0120E030E07B
:1011500046E153E40E94A53218160CF457C420E06F
:1011600030E0A901C701B6010E945B3187FF03C0CF
:10117000C12CD12C7601C0927806D0927906E092EB
:101180007A06F0927B06112321F0109282061092CB
:1011900088065F9A50CFC230D10509F4B4C20CF46E
:1011A0004CC1C330D10509F418C3C430D105A1F531
:1011B0005F988FE19EE40197F1F700C0000020E006
:1011C00030E040E251E460917806709179068091B8
:1011D0007A0690917B060E94F6306B017C0120E03C
:1011E00030E046E153E40E94A53218160CF438C4EE
:1011F00020E030E0A901C701B6010E945B3187FF02
:1012000003C0C12CD12C7601C0927806D092790609
:10121000E0927A06F0927B065F9A10925506F3CE22
:10122000C230D10509F4AFC30CF479C1C330D10584
:1012300009F49EC2C430D105A1F55F988FE19EE408
:101240000197F1F700C0000020E030E040E251E4F7
:10125000609178067091790680917A0690917B066C
:101260000E94F7306B017C0120E030E046E153E45E
:101270000E94A53218160CF4FAC320E030E0A90150
:10128000C701B6010E945B3187FF03C0C12CD12C7E
:101290007601C0927806D0927906E0927A06F092B2
:1012A0007B065F9A1092560699CEC230D10509F49A
:1012B00034C30CF488C0C330D10509F4F8C2C4307B
:1012C000D105A1F55F988FE19EE40197F1F700C089
:1012D000000020E030E040E85FE360917806709124
:1012E000790680917A0690917B060E94F6306B0118
:1012F0007C0120E030E046E153E40E94A53218165C
:101300000CF4BCC320E030E0A901C701B6010E9483
:101310005B3187FF03C0C12CD12C7601C0927806C7
:10132000D0927906E0927A06F0927B065F9A41CEDF
:1013300081E01092860645CEC130D10509F023CF59
:1013400087E61802812D11248595859517FD8395D3
:10135000182F8111D9C3612F772767FD7095872FCB
:10136000972F0E94F53120E030E048E453E40E94DA
:101370005F3120916C0630916D0640916E06509160
:101380006F060E94F7306B017C0120E030E046E1FF
:1013900053E40E94A53218160CF43FC320E030E05D
:1013A000A901C701B6010E945B3187FF03C0C12CB0
:1013B000D12C7601C0926C06D0926D06E0926E063A
:1013C000F0926F06E0CEC130D10509F0AFCF5F9843
:1013D0008FE19EE40197F1F700C0000020E030E0CB
:1013E00040E85FE360916C0670916D0680916E0637
:1013F00090916F060E94F6306B017C0120E030E096
:1014000046E153E40E94A53218160CF422C320E0F2
:1014100030E0A901C701B6010E945B3187FF03C01C
:10142000C12CD12C7601C0926C06D0926D06E09250
:101430006E06F0926F065F9ABCCDC130D10509F0FF
:10144000EBCE5F988FE19EE40197F1F700C00000BA
:1014500020E030E040E251E460916C0670916D064E
:1014600080916E0690916F060E94F6306B017C01B0
:1014700020E030E046E153E40E94A53218160CF457
:10148000E1C220E030E0A901C701B6010E945B3152
:1014900087FF03C0C12CD12C7601C0926C06D0927C
:1014A0006D06E0926E06F0926F06B6CEC130D105A1
:1014B00009F014CE5F988FE19EE40197F1F700C028
:1014C000000020E030E040E85FE360916C0670913E
:1014D0006D0680916E0690916F060E94F7306B0149
:1014E0007C0120E030E046E153E40E94A53218166A
:1014F0000CF4A1C220E030E0A901C701B6010E94AE
:101500005B3187FF03C0C12CD12C7601C0926C06E1
:10151000D0926D06E0926E06F0926F06DFCDC1307C
:10152000D10509F0BECE5F988FE19EE40197F1F7F7
:1015300000C0000020E030E040E251E460916C0621
:1015400070916D0680916E0690916F060E94F73043
:101550006B017C0120E030E046E153E40E94A532BB
:1015600018160CF461C220E030E0A901C701B601F1
:101570000E945B3187FF03C0C12CD12C7601C09241
:101580006C06D0926D06E0926E06F0926F0689CEE0
:1015900087E61802812D11248595859517FD839581
:1015A000182F8111C9C2612F772767FD7095872F8A
:1015B000972F0E94F53120E030E048E453E40E9488
:1015C0005F312091740630917506409176065091F6
:1015D00077060E94F7306B017C0120E030E046E1A5
:1015E00053E40E94A53218160CF409C220E030E042
:1015F000A901C701B6010E945B3187FF03C0C12C5E
:10160000D12C7601C0927406D0927506E0927606CF
:10161000F0927706B8CD87E61802812D11248595C2
:10162000859517FD8395182F81117EC2612F77272D
:1016300067FD7095872F972F0E94F53120E030E0ED
:1016400048E453E40E945F312091700630917106A6
:1016500040917206509173060E94F7306B017C0135
:1016600020E030E046E153E40E94A53218160CF465
:10167000BFC120E030E0A901C701B6010E945B3183
:1016800087FF03C0C12CD12C7601C0927006D09286
:101690007106E0927206F092730675CD5F988FE145
:1016A0009EE40197F1F700C0000020E030E040E840
:1016B0005FE360917006709171068091720690915F
:1016C00073060E94F7306B017C0120E030E046E1B8
:1016D00053E40E94A53218160CF40FC220E030E04B
:1016E000A901C701B6010E945B3187FF03C0C12C6D
:1016F000D12C7601C0927006D0927106E0927206EB
:10170000F0927306EBCC5F988FE19EE40197F1F7BE
:1017100000C0000020E030E040E251E4609170063B
:101720007091710680917206909173060E94F63056
:101730006B017C0120E030E046E153E40E94A532D9
:1017400018160CF4D3C120E030E0A901C701B6019E
:101750000E945B3187FF03C0C12CD12C7601C0925F
:101760007006D0927106E0927206F092730654CD24
:101770005F988FE19EE40197F1F700C0000020E040
:1017800030E040E251E460917406709175068091FA
:101790007606909177060E94F7306B017C0120E07D
:1017A00030E046E153E40E94A53218160CF497C1CC
:1017B00020E030E0A901C701B6010E945B3187FF3C
:1017C00003C0C12CD12C7601C0927406D09275064C
:1017D000E0927606F092770664CD5F988FE19EE402
:1017E0000197F1F700C0000020E030E040E251E452
:1017F00060917406709175068091760690917706D7
:101800000E94F6306B017C0120E030E046E153E4B9
:101810000E94A53218160CF45BC120E030E0A9014B
:10182000C701B6010E945B3187FF03C0C12CD12CD8
:101830007601C0927406D0927506E0927606F09218
:101840007706EACC5F988FE19EE40197F1F700C03C
:10185000000020E030E040E85FE3609174067091A2
:10186000750680917606909177060E94F7306B019D
:101870007C0120E030E046E153E40E94A5321816D6
:101880000CF41FC120E030E0A901C701B6010E949D
:101890005B3187FF03C0C12CD12C7601C092740646
:1018A000D0927506E0927606F092770617CC5F9894
:1018B0008FE19EE40197F1F700C0000020E030E0E6
:1018C00040E85FE36091740670917506809176063A
:1018D000909177060E94F6306B017C0120E030E0A9
:1018E00046E153E40E94A53218160CF4E3C020E050
:1018F00030E0A901C701B6010E945B3187FF03C038
:10190000C12CD12C7601C0927406D0927506E0925B
:101910007606F09277065F9A4CCB5F988FE19EE453
:101920000197F1F700C0000020E030E040E85FE3FD
:1019300060917006709171068091720690917306A5
:101940000E94F6306B017C0120E030E046E153E478
:101950000E94A53218160CF4A6C020E030E0A901C0
:10196000C701B6010E945B3187FF03C0C12CD12C97
:101970007601C0927006D0927106E0927206F092E3
:1019800073065F9A16CB5F988FE19EE40197F1F79B
:1019900000C0000020E030E040E251E460917006B9
:1019A0007091710680917206909173060E94F730D3
:1019B0006B017C0120E030E046E153E40E94A53257
:1019C00018160CF469C020E030E0A901C701B60187
:1019D0000E945B3187FF03C0C12CD12C7601C092DD
:1019E0007006D0927106E0927206F092730659CC9E
:1019F000C12CD12CE6E1EE2EE3E4FE2E46CEC12C26
:101A0000D12C76E1E72E73E4F72EFCCDC12CD12C3E
:101A100066E1E62E63E4F62EAECBC12CD12CF6E1C6
:101A2000EF2EF3E4FF2EC6CCC12CD12C46E1E42EE0
:101A300043E4F42EA4CDC12CD12CE6E1EE2EE3E458
:101A4000FE2E64CDC12CD12C86E1E82E83E4F82E45
:101A500024CDC12CD12C86E1E82E83E4F82EE3CCF2
:101A6000C12CD12CA6E1EA2EA3E4FA2ECDCBC12CB9
:101A7000D12C96E1E92E93E4F92E0BCCC12CD12C7C
:101A8000F6E1EF2EF3E4FF2E49CCC12CD12C56E128
:101A9000E52E53E4F52E1ACBC12CD12C36E1E32EE2
:101AA00033E4F32E9CCFC12CD12CB6E1EB2EB3E462
:101AB000FB2E5FCFC12CD12CA6E1EA2EA3E4FA2E97
:101AC00022CFC12CD12C66E1E62E63E4F62EE6CEC1
:101AD000C12CD12CB6E1EB2EB3E4FB2EAACEC12C47
:101AE000D12C26E1E22E23E4F22E6ECEC12CD12C95
:101AF00006E1E02E03E4F02E32CEC12CD12C76E1AB
:101B0000E72E73E4F72EF6CD5F988FE99FE00197FB
:101B1000F1F700C000001FCC5F988FE99FE00197AC
:101B2000F1F700C00000F8CA5F988FE99FE00197C5
:101B3000F1F700C000007ACD5F988FE99FE0019730
:101B4000F1F700C000002FCDEF92FF920F931F938B
:101B5000CF93DF93CDB7DEB762970FB6F894DEBFB1
:101B60000FBECDBF80E290E09A8B898BBE016F5E85
:101B70007F4F8BE895E00E940A349A8389837E0127
:101B800083E0E80EF11C01E010E0BE016F5E7F4FC4
:101B900080E090E00E940A34F701819391937F01E5
:101BA000892B99F00F5F1F4F0830110571F75F9A6D
:101BB00062960FB6F894DEBF0FBECDBFDF91CF9116
:101BC0001F910F91FF90EF9008956CE572E089816D
:101BD0009A810E940E34892B51F70130110539F793
:101BE0008BE492E00E94D23486E492E09F938F933C
:101BF00080E692E09F938F930E94C03480E492E04D
:101C00009F938F9380E792E09F938F930E94C034BD
:101C10008AE392E09F938F9382E892E09F938F9361
:101C20000E94C0340FB6F894DEBF0FBECDBFBFCF49
:101C30000E942205882309F44CC08D30F1F08A30CF
:101C4000E1F0E0917E06F0917F06E436F1055CF06C
:101C5000EF50FA4F129295E0E13FF907D9F7109251
:101C6000F005E0E0F0E0DF01A051BA4F8C9331962F
:101C7000F0937F06E0937E06DBCF20917E063091C5
:101C80007F0612161306A4F6EBE8F5E0A0EFB5E028
:101C9000C90185579A4F4C9141931D92E817F90756
:101CA000D1F780917C0690917D062817390734F48E
:101CB00085579A4F1192E817F907E1F730937D069F
:101CC00020937C0610927F0610927E060E94A40D3F
:101CD000AFCF089581E00E94ED0162E081E00E94B3
:101CE000190260E081E00E94190281E00E947E04F6
:101CF0008823D9F362E081E00E94190260E081E06C
:101D00000E94190281E00E94000281E00E94ED0120
:101D100081E00E947E048823D9F36FEF81E00E9466
:101D2000E303809374046FEF81E00E94E3038093E8
:101D3000750481E00E94000281E00E947E048130EF
:101D4000D9F3809175048F93809174048F9384E903
:101D500092E09F938F930E94C03481E00E94ED0136
:101D600062E081E00E94190260E081E00E941902B5
:101D70000F900F900F900F9081E00E947E048823B7
:101D8000D9F363E081E00E94190260E081E00E94E3
:101D9000190281E00E94000281E00E94ED0181E0D1
:101DA0000E947E048823D9F36FEF81E00E94E30351
:101DB000809374046FEF81E00E94E30380937504C5
:101DC00081E00E94000281E00E947E048130D9F30C
:101DD000809175048F93809174048F9387EA92E0C9
:101DE0009F938F930E94C03481E00E94ED0162E0D6
:101DF00081E00E94190260E081E00E9419020F90C8
:101E00000F900F900F9081E00E947E048823D9F3F9
:101E100060E081E00E94190260E081E00E94190206
:101E200081E00E94000281E00E94ED0181E00E94B9
:101E30007E048823D9F36FEF81E00E94E30380934F
:101E400074046FEF81E00E94E3038093750481E0E6
:101E50000E94000281E00E947E048130D9F381E07B
:101E60000E94ED0162E081E00E94190260E081E0E1
:101E70000E94190281E00E947E048823D9F361E068
:101E800081E00E94190260E081E00E94190281E075
:101E90000E94000281E00E94ED0181E00E947E0428
:101EA0008823D9F36FEF81E00E94E30380937404E9
:101EB0006FEF81E00E94E3038093750481E00E944C
:101EC000000281E00E947E048130D9F38091750484
:101ED0008F93809174048F9385EB92E09F938F93FF
:101EE0000E94C0340F900F900F900F9008956F9242
:101EF0007F928F929F92AF92BF92CF92DF92EF929A
:101F0000FF920F931F93CF93DF93CDB7DEB76A97FE
:101F10000FB6F894DEBF0FBECDBF989AA09A2FEFF0
:101F200083ED90E3215080409040E1F700C0000035
:101F3000A098EFEFF3ED20E3E150F0402040E1F70F
:101F400000C0000081E00E94920181E00E94ED014A
:101F500081E00E947E048823D9F36FEF81E00E9424
:101F6000E303809374046FEF81E00E94E3038093A6
:101F7000750481E00E94000281E00E947E048130AD
:101F8000D9F380917404909175048231944309F0DF
:101F90007DC081E00E94ED0162E081E00E941902B3
:101FA00060E081E00E94190281E00E947E048823A3
:101FB000D9F360E081E00E94190260E081E00E94B4
:101FC000190281E00E94000281E00E94ED0181E09F
:101FD0000E947E048823D9F36FEF81E00E94E3031F
:101FE000809374046FEF81E00E94E3038093750493
:101FF00081E00E94000281E00E947E048130D9F3DA
:10200000009174041091750481E00E94ED0162E07A
:1020100081E00E94190260E081E00E94190281E0E3
:102020000E947E048823D9F361E081E00E941902B6
:1020300060E081E00E94190281E00E94000281E0DC
:102040000E94ED0181E00E947E048823D9F36FEFA6
:1020500081E00E94E303809374046FEF81E00E94AB
:10206000E3038093750481E00E94000281E00E94F6
:102070007E048130D9F38091740490917504012B12
:1020800009F087CF8F379D4109F083CF80E094E03E
:102090009A83898384E690E09C838B8381E00E940D
:1020A000ED0164E081E00E94190260E081E00E949D
:1020B0001902CE0101963C017C0101E010E00DC047
:1020C000F701608181E00E9419020430110599F046
:1020D0000F5F1F4FFFEFEF1AFF0A0130110581F765
:1020E00081E00E947E048823D9F3F701608181E0BA
:1020F0000E941902EDCF81E00E94000281E00E945F
:10210000ED0181E00E947E048823D9F36FEF81E026
:102110000E94E303809374046FEF81E00E94E30365
:102120008093750481E00E94000281E00E947E0499
:102130008130D9F381E00E94ED0162E081E00E94EC
:10214000190260E081E00E94190281E00E947E0491
:102150008823D9F360E881E00E94190261E081E000
:102160000E94190281E00E94000281E00E94ED01BC
:1021700081E00E947E048823D9F36FEF81E00E9402
:10218000E303809374046FEF81E00E94E303809384
:10219000750481E00E94000281E00E947E0481308B
:1021A000D9F385E591E09A83898384E090E09C836C
:1021B0008B8381E00E94ED0164E081E00E941902BE
:1021C00060E081E00E941902730101E010E00DC09F
:1021D000F701608181E00E9419020430110599F035
:1021E0000F5F1F4FFFEFEF1AFF0A0130110581F754
:1021F00081E00E947E048823D9F3F701608181E0A9
:102200000E941902EDCF81E00E94000281E00E944D
:10221000ED0181E00E947E048823D9F36FEF81E015
:102220000E94E303809374046FEF81E00E94E30354
:102230008093750481E00E94000281E00E947E0488
:102240008130D9F380E791E09A8389838BEE93ED17
:102250009C838B8389EE90E09E838D8381E00E9436
:10226000ED0166E081E00E94190260E081E00E94D9
:102270001902730101E010E00DC0F701608181E0F7
:102280000E9419020630110599F00F5F1F4FFFEFF2
:10229000EF1AFF0A0130110581F781E00E947E04E8
:1022A0008823D9F3F701608181E00E941902EDCF04
:1022B00081E00E94000281E00E94ED0181E00E9425
:1022C0007E048823D9F36FEF81E00E94E3038093BB
:1022D00074046FEF81E00E94E3038093750481E052
:1022E0000E94000281E00E947E048130D9F381E1E6
:1022F000E8E3F3E0D30101900D928A95E1F7E090D5
:102300008705F09088050091890510918A057F92D4
:102310006F92812C912CA12CB12C94E0C92ED12C40
:102320002EE130E040EF50E06EE070E084E794E0B2
:102330000E94F32E86E492E09F938F938CEC92E0C0
:102340009F938F937F926F920E94FF34E090870556
:10235000F09088050091890510918A057F926F920F
:1023600023E0C22ED12C24E630E04AE050E067E0C2
:1023700070E084E794E00E94F32E80E492E09F9363
:102380008F938BED92E09F938F937F926F920E9439
:10239000FF34E0908705F090880500918905109141
:1023A0008A057F926F9228E730E04AE050E067E0CC
:1023B00070E084E794E00E94F32E8AE392E09F931A
:1023C0008F938CEE92E09F938F937F926F920E94F7
:1023D000FF34E0908705F090880500918905109101
:1023E0008A057F926F922CE830E04AE050E067E087
:1023F00070E084E794E00E94F32E81E1EDEFF2E0DB
:10240000D30101900D928A95E1F7E0908705F09055
:1024100088050091890510918A057F926F922CEDB5
:1024200030E04AE050E068E070E084E794E00E9429
:10243000F32E81E00E94ED0162E081E00E9419022A
:1024400060E081E00E9419020FB6F894DEBF0FBE73
:10245000CDBF81E00E947E048823D9F361E881E04A
:102460000E94190261E081E00E94190281E00E944D
:10247000000281E00E94ED0181E00E947E04882339
:10248000D9F36FEF81E00E94E303809374046FEF50
:1024900081E00E94E3038093750481E00E940002C2
:1024A00081E00E947E048130D9F381E094E09E8B2C
:1024B0008D8B82E090E0988F8F8B1A8E198E81E041
:1024C0000E94ED0166E081E00E94190260E081E077
:1024D0000E9419027E0195E1E90EF11C01E010E075
:1024E0000DC0F701608181E00E94190206301105DC
:1024F00099F00F5F1F4FEFEFEE1AFE0A0130110542
:1025000081F781E00E947E048823D9F3F70160817E
:1025100081E00E941902EDCF81E00E94000281E07B
:102520000E94ED0181E00E947E048823D9F36FEFC1
:1025300081E00E94E303809374046FEF81E00E94C6
:10254000E3038093750481E00E94000281E00E9411
:102550007E048130D9F36EE073E084E794E00E945A
:10256000A62F6A960FB6F894DEBF0FBECDBFDF91DF
:10257000CF911F910F91FF90EF90DF90CF90BF9080
:10258000AF909F908F907F906F900895989AA09AA7
:10259000E1E0F1E080818B7F8083E2E0F1E0808107
:1025A0008B7F808387E596E00E94AF05999AA1987A
:1025B0009B9AA398579A5F9A0E94770F0E940907E7
:1025C0002FEF83E294EF215080409040E1F700C06C
:1025D000000008954F925F926F927F928F929F9228
:1025E000AF92BF92CF92DF92EF92FF920F931F9321
:1025F000CF93DF93CDB7DEB7C454D1400FB6F89474
:10260000DEBF0FBECDBF81E00E94ED0162E081E040
:102610000E94190260E081E00E94190281E00E949C
:102620007E048823D9F360E881E00E94190261E00A
:1026300081E00E94190281E00E94000281E00E9474
:10264000ED0181E00E947E048823D9F36FEF81E0E1
:102650000E94E303809374046FEF81E00E94E30320
:102660008093750481E00E94000281E00E947E0454
:102670008130D9F385E591E09A83898384E090E005
:102680009C838B8381E00E94ED0164E081E00E94E5
:10269000190260E081E00E941902CE0101963C011E
:1026A0007C0101E010E00DC0F701608181E00E9433
:1026B00019020430110599F00F5F1F4F9FEFE91ABF
:1026C000F90A0130110581F781E00E947E04882318
:1026D000D9F3F701608181E00E941902EDCF81E01A
:1026E0000E94000281E00E94ED0181E00E947E04D0
:1026F0008823D9F36FEF81E00E94E3038093740491
:102700006FEF81E00E94E3038093750481E00E94F3
:10271000000281E00E947E048130D9F380E791E0DD
:102720009A8389831C821B821E821D8281E00E9403
:10273000ED0166E081E00E94190260E081E00E9404
:102740001902730101E010E00DC0F701608181E022
:102750000E9419020630110599F00F5F1F4FFFEF1D
:10276000EF1AFF0A0130110581F781E00E947E0413
:102770008823D9F3F701608181E00E941902EDCF2F
:1027800081E00E94000281E00E94ED0181E00E9450
:102790007E048823D9F36FEF81E00E94E3038093E6
:1027A00074046FEF81E00E94E3038093750481E07D
:1027B0000E94000281E00E947E048130D9F380E013
:1027C00093E09A83898381E090E09C838B830E94CD
:1027D000ED0164E081E00E94190260E081E00E9466
:1027E0001902730101E010E00DC0F701608181E082
:1027F0000E9419020430110599F00F5F1F4FFFEF7F
:10280000EF1AFF0A0130110581F781E00E947E0472
:102810008823D9F3F701608181E00E941902EDCF8E
:1028200081E00E94000281E00E94ED0181E00E94AF
:102830007E048823D9F36FEF81E00E94E303809345
:1028400074046FEF81E00E94E3038093750481E0DC
:102850000E94000281E00E947E048130D9F38091C1
:102860008005882311F40C94D0248DEA90E026EEA4
:1028700038ED42E551E05A8349833C832B839E83A4
:102880008D8381E00E94ED0166E081E00E941902E3
:1028900060E081E00E941902730101E010E00DC0C8
:1028A000F701608181E00E9419020630110599F05C
:1028B0000F5F1F4FFFEFEF1AFF0A0130110581F77D
:1028C00081E00E947E048823D9F3F701608181E0D2
:1028D0000E941902EDCF81E00E94000281E00E9477
:1028E000ED0181E00E947E048823D9F36FEF81E03F
:1028F0000E94E303809374046FEF81E00E94E3037E
:102900008093750481E00E94000281E00E947E04B1
:102910008130D9F380E591E09A83898380EB93E05D
:102920009C838B8380E691E09E838D8380E897E093
:1029300098878F8388EC92E09A87898781E00E944C
:10294000ED016AE081E00E94190260E081E00E94EE
:102950001902730101E010E00DC0F701608181E010
:102960000E9419020A30110599F00F5F1F4FFFEF07
:10297000EF1AFF0A0130110581F781E00E947E0401
:102980008823D9F3F701608181E00E941902EDCF1D
:1029900081E00E94000281E00E94ED0181E00E943E
:1029A0007E048823D9F36FEF81E00E94E3038093D4
:1029B00074046FEF81E00E94E3038093750481E06B
:1029C0000E94000281E00E947E048130D9F3809150
:1029D0006F068F9380916E068F9380916D068F9313
:1029E00080916C068F9380E593E09F938F932E01E7
:1029F000FDEE4F1AFEEF5F0A5F924F920E94FF3486
:102A00008091870590918805A0918905B0918A05EC
:102A100021E031E03A83298320E130E03C832B83BD
:102A200020E436E03E832D8328E631E038872F838B
:102A30009A878987BC87AB8785E090E09E878D87E2
:102A4000188A1F861A8A198AB201CE0143960E94FB
:102A50000B066C01C618D70881E00E94ED016C2DB1
:102A600081E00E9419026D2D81E00E9419020FB6CB
:102A7000F894DEBF0FBECDBFC114D104F9F07301CD
:102A800000E010E00BC0F70161917F0181E00E943E
:102A900019020F5F1F4FC016D10681F098012F73E6
:102AA0003327232B81F781E00E947E048111EBCF35
:102AB00081E00E947E048823B1F3E5CF81E00E948B
:102AC000000281E00E94ED0181E00E947E048823E3
:102AD000D9F36FEF81E00E94E303809374046FEFFA
:102AE00081E00E94E3038093750481E00E9400026C
:102AF00081E00E947E048130D9F3E0908705F09058
:102B000088050091890510918A0586E593E09F93D9
:102B10008F93812C912CA12CB12C54E0C52ED12C5B
:102B200025E330E04CED50E06EE070E084E794E0A7
:102B30000E94F32EE0908705F090880500918905AA
:102B400010918A0588E593E09F938F932FE030E002
:102B500044EE50E06CE070E084E794E00E94F32ED5
:102B600080E093E09A83898385E090E09C838B8367
:102B700081E00E94ED0164E081E00E94190260E0C2
:102B800081E00E94190273010F900F900F900F9037
:102B900001E010E00DC0F701608181E00E941902A0
:102BA0000430110599F00F5F1F4FFFEFEF1AFF0A76
:102BB0000130110581F781E00E947E048823D9F35A
:102BC000F701608181E00E941902EDCF81E00E944F
:102BD000000281E00E94ED0181E00E947E048823D2
:102BE000D9F36FEF81E00E94E303809374046FEFE9
:102BF00081E00E94E3038093750481E00E9400025B
:102C000081E00E947E048130D9F380916806882398
:102C100011F40C94CA2489E890E027E83FED42E5DE
:102C200051E05A8349833C832B839E838D8381E0CB
:102C30000E94ED0166E081E00E94190260E081E0FF
:102C40000E941902730101E010E00DC0F7016081DC
:102C500081E00E9419020630110599F00F5F1F4FA5
:102C6000FFEFEF1AFF0A0130110581F781E00E94A2
:102C70007E048823D9F3F701608181E00E94190264
:102C8000EDCF81E00E94000281E00E94ED0181E031
:102C90000E947E048823D9F36FEF81E00E94E30352
:102CA000809374046FEF81E00E94E30380937504C6
:102CB00081E00E94000281E00E947E048130D9F30D
:102CC00080E591E09A83898380EB93E09C838B83FA
:102CD00080EE93E09E838D8380E897E098878F83D2
:102CE00088E192E09A87898781E00E94ED016AE09D
:102CF00081E00E94190260E081E00E9419027301E4
:102D000001E010E00DC0F701608181E00E9419022E
:102D10000A30110599F00F5F1F4FFFEFEF1AFF0AFE
:102D20000130110581F781E00E947E048823D9F3E8
:102D3000F701608181E00E941902EDCF81E00E94DD
:102D4000000281E00E94ED0181E00E947E04882360
:102D5000D9F36FEF81E00E94E303809374046FEF77
:102D600081E00E94E3038093750481E00E940002E9
:102D700081E00E947E048130D9F380916806882327
:102D800011F40C94C62469E473E0C2010E94173464
:102D9000E0908705F09088050091890510918A05DB
:102DA0005F924F92812C912CA12CB12C44E0C42E27
:102DB000D12C2DE730E048E750E06FE070E084E789
:102DC00094E00E94F32EE0908705F0908805009132
:102DD000890510918A0588E593E09F938F9329E6F2
:102DE00030E044EE50E06CE070E084E794E00E9454
:102DF000F32E80E093E09A83898383E090E09C83C4
:102E00008B8381E00E94ED0164E081E00E94190261
:102E100060E081E00E94190273010F900F900F9003
:102E20000F9001E010E00DC0F701608181E00E9489
:102E300019020430110599F00F5F1F4FFFEFEF1AD1
:102E4000FF0A0130110581F781E00E947E0488238A
:102E5000D9F3F701608181E00E941902EDCF81E092
:102E60000E94000281E00E94ED0181E00E947E0448
:102E70008823D9F36FEF81E00E94E3038093740409
:102E80006FEF81E00E94E3038093750481E00E946C
:102E9000000281E00E947E048130D9F38091820596
:102EA000882311F40C94C0248DEA90E026EE38EDCE
:102EB00042E551E05A8349833C832B839E838D8373
:102EC00081E00E94ED0166E081E00E94190260E06D
:102ED00081E00E941902730101E010E00DC0F701CA
:102EE000608181E00E9419020630110599F00F5FA0
:102EF0001F4FFFEFEF1AFF0A0130110581F781E044
:102F00000E947E048823D9F3F701608181E00E944A
:102F10001902EDCF81E00E94000281E00E94ED01E4
:102F200081E00E947E048823D9F36FEF81E00E9444
:102F3000E303809374046FEF81E00E94E3038093C6
:102F4000750481E00E94000281E00E947E048130CD
:102F5000D9F380E591E09A83898380EB93E09C83A9
:102F60008B8380E796E09E838D8380E897E0988747
:102F70008F8388EB92E09A87898781E00E94ED0138
:102F80006AE081E00E94190260E081E00E9419027B
:102F9000730101E010E00DC0F701608181E00E9443
:102FA00019020A30110599F00F5F1F4FFFEFEF1A5A
:102FB000FF0A0130110581F781E00E947E04882319
:102FC000D9F3F701608181E00E941902EDCF81E021
:102FD0000E94000281E00E94ED0181E00E947E04D7
:102FE0008823D9F36FEF81E00E94E3038093740498
:102FF0006FEF81E00E94E3038093750481E00E94FB
:10300000000281E00E947E048130D9F3809177062E
:103010008F93809176068F93809175068F93809120
:1030200074068F9380E593E09F938F935F924F9206
:103030000E94FF348091870590918805A0918905B1
:10304000B0918A0521E031E03A83298320E130E024
:103050003C832B8320E436E03E832D8328E636E054
:1030600038872F839A878987BC87AB8785E090E074
:103070009E878D87188A1F861A8A198AB201CE0107
:1030800043960E940B066C01C618D70881E00E9487
:10309000ED016C2D81E00E9419026D2D81E00E94EE
:1030A00019020FB6F894DEBF0FBECDBFC114D10414
:1030B000F9F0730100E010E00BC0F70161917F01AE
:1030C00081E00E9419020F5F1F4FC016D10681F0E8
:1030D00098012F733327232B81F781E00E947E0410
:1030E0008111EBCF81E00E947E048823B1F3E5CF0C
:1030F00081E00E94000281E00E94ED0181E00E94D7
:103100007E048823D9F36FEF81E00E94E30380936C
:1031100074046FEF81E00E94E3038093750481E003
:103120000E94000281E00E947E048130D9F38091E8
:10313000870590918805A0918905B0918A0521E0C5
:1031400031E03A8329832EE030E03C832B8320EE6C
:1031500036E03E832D8328EA36E038872F839A872E
:103160008987BC87AB8784E090E09E878D87188A2B
:103170001F861A8A198A66E573E0CE0143960E947B
:103180000B066C01C618D70881E00E94ED016C2D7A
:1031900081E00E9419026D2D81E00E941902C11484
:1031A000D104F9F0730100E010E00BC0F701619168
:1031B0007F0181E00E9419020F5F1F4FC016D106E8
:1031C00081F098012F733327232B81F781E00E9430
:1031D0007E048111EBCF81E00E947E048823B1F34D
:1031E000E5CF81E00E94000281E00E94ED0181E0D4
:1031F0000E947E048823D9F36FEF81E00E94E303ED
:10320000809374046FEF81E00E94E3038093750460
:1032100081E00E94000281E00E947E048130D9F3A7
:103220008091870590918805A0918905B0918A05C4
:1032300021E031E03A8329832CE030E03C832B838A
:1032400020E237E03E832D8328E735E038872F835F
:103250009A878987BC87AB8784E090E09E878D87BB
:10326000188A1F861A8A198A6AE573E0CE01439686
:103270000E940B066C01C618D70881E00E94ED0180
:103280006C2D81E00E9419026D2D81E00E941902CF
:10329000C114D104F9F0730100E010E00BC0F70194
:1032A00061917F0181E00E9419020F5F1F4FC016DC
:1032B000D10681F098012F733327232B81F781E00A
:1032C0000E947E048111EBCF81E00E947E0488235E
:1032D000B1F3E5CF81E00E94000281E00E94ED01A0
:1032E00081E00E947E048823D9F36FEF81E00E9481
:1032F000E303809374046FEF81E00E94E303809303
:10330000750481E00E94000281E00E947E04813009
:10331000D9F380E093E09A83898387E090E09C83EF
:103320008B8381E00E94ED0164E081E00E9419023C
:1033300060E081E00E941902730101E010E00DC01D
:10334000F701608181E00E9419020430110599F0B3
:103350000F5F1F4FFFEFEF1AFF0A0130110581F7D2
:1033600081E00E947E048823D9F3F701608181E027
:103370000E941902EDCF81E00E94000281E00E94CC
:10338000ED0181E00E947E048823D9F36FEF81E094
:103390000E94E303809374046FEF81E00E94E303D3
:1033A0008093750481E00E94000281E00E947E0407
:1033B0008130D9F380916A06882311F40C94BA24E1
:1033C00089E890E027E83FED42E551E05A834983E0
:1033D0003C832B839E838D8381E00E94ED0166E018
:1033E00081E00E94190260E081E00E9419027301ED
:1033F00001E010E00DC0F701608181E00E94190238
:103400000630110599F00F5F1F4FFFEFEF1AFF0A0B
:103410000130110581F781E00E947E048823D9F3F1
:10342000F701608181E00E941902EDCF81E00E94E6
:10343000000281E00E94ED0181E00E947E04882369
:10344000D9F36FEF81E00E94E303809374046FEF80
:1034500081E00E94E3038093750481E00E940002F2
:1034600081E00E947E048130D9F380E591E09A8367
:10347000898380EB93E09C838B8380EF98E09E832D
:103480008D8380E897E098878F8388E292E09A871F
:10349000898781E00E94ED016AE081E00E941902C3
:1034A00060E081E00E941902730101E010E00DC0AC
:1034B000F701608181E00E9419020A30110599F03C
:1034C0000F5F1F4FFFEFEF1AFF0A0130110581F761
:1034D00081E00E947E048823D9F3F701608181E0B6
:1034E0000E941902EDCF81E00E94000281E00E945B
:1034F000ED0181E00E947E048823D9F36FEF81E023
:103500000E94E303809374046FEF81E00E94E30361
:103510008093750481E00E94000281E00E947E0495
:103520008130D9F380916A06882311F40C94B62473
:1035300069E473E0C2010E9417348091870590917D
:103540008805A0918905B0918A0521E031E03A8390
:1035500029832FE030E03C832B8320EC33E03E8353
:103560002D8328EE38E038872F839A878987BC8798
:10357000AB8784E090E09E878D87188A1F861A8A21
:10358000198AB201CE0143960E940B066C01C6183F
:10359000D70881E00E94ED016C2D81E00E941902A4
:1035A0006D2D81E00E941902C114D104F9F073015C
:1035B00000E010E00BC0F70161917F0181E00E9403
:1035C00019020F5F1F4FC016D10681F098012F73AB
:1035D0003327232B81F781E00E947E048111EBCFFA
:1035E00081E00E947E048823B1F3E5CF81E00E9450
:1035F000000281E00E94ED0181E00E947E048823A8
:10360000D9F36FEF81E00E94E303809374046FEFBE
:1036100081E00E94E3038093750481E00E94000230
:1036200081E00E947E048130D9F3809187059091DA
:103630008805A0918905B0918A0521E031E03A839F
:1036400029832CE030E03C832B8320E237E03E836B
:103650002D8328E438E038872F839A878987BC87B1
:10366000AB8784E090E09E878D87188A1F861A8A30
:10367000198A6AE573E0CE0143960E940B066C013D
:10368000C618D70881E00E94ED016C2D81E00E94F0
:1036900019026D2D81E00E941902C114D104F9F0C4
:1036A000730100E010E00BC0F70161917F0181E040
:1036B0000E9419020F5F1F4FC016D10681F09801BA
:1036C0002F733327232B81F781E00E947E04811121
:1036D000EBCF81E00E947E048823B1F3E5CF81E047
:1036E0000E94000281E00E94ED0181E00E947E04C0
:1036F0008823D9F36FEF81E00E94E3038093740481
:103700006FEF81E00E94E3038093750481E00E94E3
:10371000000281E00E947E048130D9F380E093E0D2
:103720009A83898382E090E09C838B8381E00E946E
:10373000ED0164E081E00E94190260E081E00E94F6
:103740001902730101E010E00DC0F701608181E012
:103750000E9419020430110599F00F5F1F4FFFEF0F
:10376000EF1AFF0A0130110581F781E00E947E0403
:103770008823D9F3F701608181E00E941902EDCF1F
:1037800081E00E94000281E00E94ED0181E00E9440
:103790007E048823D9F36FEF81E00E94E3038093D6
:1037A00074046FEF81E00E94E3038093750481E06D
:1037B0000E94000281E00E947E048130D9F3809152
:1037C0008105882311F40C94B0248DEA90E026EE54
:1037D00038ED42E551E05A8349833C832B839E8335
:1037E0008D8381E00E94ED0166E081E00E94190274
:1037F00060E081E00E941902730101E010E00DC059
:10380000F701608181E00E9419020630110599F0EC
:103810000F5F1F4FFFEFEF1AFF0A0130110581F70D
:1038200081E00E947E048823D9F3F701608181E062
:103830000E941902EDCF81E00E94000281E00E9407
:10384000ED0181E00E947E048823D9F36FEF81E0CF
:103850000E94E303809374046FEF81E00E94E3030E
:103860008093750481E00E94000281E00E947E0442
:103870008130D9F380E591E09A83898380E59BE0EC
:103880009C838B8380E691E09E838D8380E897E024
:1038900098878F8388EC92E09A87898781E00E94DD
:1038A000ED016AE081E00E94190260E081E00E947F
:1038B0001902730101E010E00DC0F701608181E0A1
:1038C0000E9419020A30110599F00F5F1F4FFFEF98
:1038D000EF1AFF0A0130110581F781E00E947E0492
:1038E0008823D9F3F701608181E00E941902EDCFAE
:1038F00081E00E94000281E00E94ED0181E00E94CF
:103900007E048823D9F36FEF81E00E94E303809364
:1039100074046FEF81E00E94E3038093750481E0FB
:103920000E94000281E00E947E048130D9F38091E0
:1039300073068F93809172068F93809171068F9397
:10394000809170068F9380E593E09F938F935F92B1
:103950004F920E94FF348091870590918805A09135
:103960008905B0918A0521E031E03A83298320E17D
:1039700030E03C832B8320EC3DE03E832D8328E622
:1039800031E038872F839A878987BC87AB8785E0AA
:1039900090E09E878D87188A1F861A8A198AB2013D
:1039A000CE0143960E940B066C01C618D70881E031
:1039B0000E94ED016C2D81E00E9419026D2D81E0C5
:1039C0000E9419020FB6F894DEBF0FBECDBFC1141E
:1039D000D104F9F0730100E010E00BC0F701619130
:1039E0007F0181E00E9419020F5F1F4FC016D106B0
:1039F00081F098012F733327232B81F781E00E94F8
:103A00007E048111EBCF81E00E947E048823B1F314
:103A1000E5CF81E00E94000281E00E94ED0181E09B
:103A20000E947E048823D9F36FEF81E00E94E303B4
:103A3000809374046FEF81E00E94E3038093750428
:103A400081E00E94000281E00E947E048130D9F36F
:103A5000E0908705F09088050091890510918A050E
:103A600086E593E09F938F93812C912CA12CB12C10
:103A700034E0C32ED12C25E330E04CEC51E06EE075
:103A800070E084E794E00E94F32E80918705909186
:103A90008805A0918905B0918A0521E031E03A833B
:103AA00029832CE030E03C832B8320EA3EE03E83F8
:103AB0002D8328E730E038872F839A878987BC8752
:103AC000AB8784E090E09E878D87188A1F861A8ACC
:103AD000198A6CE573E0CE0143960E940B066C01D7
:103AE000C618D70881E00E94ED016C2D81E00E948C
:103AF00019026D2D81E00E9419020F900F90C114E0
:103B0000D104F9F0730100E010E00BC0F7016191FE
:103B10007F0181E00E9419020F5F1F4FC016D1067E
:103B200081F098012F733327232B81F781E00E94C6
:103B30007E048111EBCF81E00E947E048823B1F3E3
:103B4000E5CF81E00E94000281E00E94ED0181E06A
:103B50000E947E048823D9F36FEF81E00E94E30383
:103B6000809374046FEF81E00E94E30380937504F7
:103B700081E00E94000281E00E947E048130D9F33E
:103B800080E093E09A83898386E090E09C838B8336
:103B900081E00E94ED0164E081E00E94190260E092
:103BA00081E00E941902730101E010E00DC0F701ED
:103BB000608181E00E9419020430110599F00F5FC5
:103BC0001F4FFFEFEF1AFF0A0130110581F781E067
:103BD0000E947E048823D9F3F701608181E00E946E
:103BE0001902EDCF81E00E94000281E00E94ED0108
:103BF00081E00E947E048823D9F36FEF81E00E9468
:103C0000E303809374046FEF81E00E94E3038093E9
:103C1000750481E00E94000281E00E947E048130F0
:103C2000D9F380916906882309F495C689E890E064
:103C300027E83FED42E551E05A8349833C832B83DB
:103C40009E838D8381E00E94ED0166E081E00E9409
:103C5000190260E081E00E941902730101E010E0A6
:103C60000DC0F701608181E00E9419020630110544
:103C700099F00F5F1F4FFFEFEF1AFF0A0130110598
:103C800081F781E00E947E048823D9F3F7016081E7
:103C900081E00E941902EDCF81E00E94000281E0E4
:103CA0000E94ED0181E00E947E048823D9F36FEF2A
:103CB00081E00E94E303809374046FEF81E00E942F
:103CC000E3038093750481E00E94000281E00E947A
:103CD0007E048130D9F380E591E09A83898380E581
:103CE0009BE09C838B8380EE93E09E838D8380E8B2
:103CF00097E098878F8388E192E09A87898781E0AF
:103D00000E94ED016AE081E00E94190260E081E01A
:103D10000E941902730101E010E00DC0F7016081FB
:103D200081E00E9419020A30110599F00F5F1F4FC0
:103D3000FFEFEF1AFF0A0130110581F781E00E94C1
:103D40007E048823D9F3F701608181E00E94190283
:103D5000EDCF81E00E94000281E00E94ED0181E050
:103D60000E947E048823D9F36FEF81E00E94E30371
:103D7000809374046FEF81E00E94E30380937504E5
:103D800081E00E94000281E00E947E048130D9F32C
:103D900080916906882309F4DBC569E473E0C201F8
:103DA0000E9417348091870590918805A09189051C
:103DB000B0918A0521E031E03A8329832FE030E099
:103DC0003C832B8320E43BE03E832D8328EE33E0CD
:103DD00038872F839A878987BC87AB8784E090E0F8
:103DE0009E878D87188A1F861A8A198AB201CE018A
:103DF00043960E940B066C01C618D70881E00E940A
:103E0000ED016C2D81E00E9419026D2D81E00E9470
:103E10001902C114D104F9F0730100E010E00BC0E5
:103E2000F70161917F0181E00E9419020F5F1F4F2E
:103E3000C016D10681F098012F733327232B81F709
:103E400081E00E947E048111EBCF81E00E947E041C
:103E50008823B1F3E5CF81E00E94000281E00E9457
:103E6000ED0181E00E947E048823D9F36FEF81E0A9
:103E70000E94E303809374046FEF81E00E94E303E8
:103E80008093750481E00E94000281E00E947E041C
:103E90008130D9F38091870590918805A09189059B
:103EA000B0918A0521E031E03A8329832CE030E0AB
:103EB0003C832B8320EA3EE03E832D8328E433E0DD
:103EC00038872F839A878987BC87AB8784E090E007
:103ED0009E878D87188A1F861A8A198A6CE573E077
:103EE000CE0143960E940B066C01C618D70881E0EC
:103EF0000E94ED016C2D81E00E9419026D2D81E080
:103F00000E941902C114D104F9F0730100E010E01D
:103F10000BC0F70161917F0181E00E9419020F5FE0
:103F20001F4FC016D10681F098012F733327232B22
:103F300081F781E00E947E048111EBCF81E00E9435
:103F40007E048823B1F3E5CF81E00E94000281E086
:103F50000E94ED0181E00E947E048823D9F36FEF77
:103F600081E00E94E303809374046FEF81E00E947C
:103F7000E3038093750481E00E94000281E00E94C7
:103F80007E048130D9F380E093E09A83898384E0D2
:103F900090E09C838B8381E00E94ED0164E081E0EE
:103FA0000E94190260E081E00E941902730101E0A1
:103FB00010E00DC0F701608181E00E941902043019
:103FC000110599F00F5F1F4FFFEFEF1AFF0A013045
:103FD000110581F781E00E947E048823D9F3F7015F
:103FE000608181E00E941902EDCF81E00E94000211
:103FF00081E00E94ED0181E00E947E048823D9F3D4
:104000006FEF81E00E94E303809374046FEF81E01F
:104010000E94E3038093750481E00E94000281E026
:104020000E947E048130D9F380918305882309F4AE
:104030008AC48DEA90E026EE38ED42E551E05A83DD
:1040400049833C832B839E838D8381E00E94ED0115
:1040500066E081E00E94190260E081E00E9419029E
:10406000730101E010E00DC0F701608181E00E9462
:1040700019020630110599F00F5F1F4FFFEFEF1A7D
:10408000FF0A0130110581F781E00E947E04882338
:10409000D9F3F701608181E00E941902EDCF81E040
:1040A0000E94000281E00E94ED0181E00E947E04F6
:1040B0008823D9F36FEF81E00E94E30380937404B7
:1040C0006FEF81E00E94E3038093750481E00E941A
:1040D000000281E00E947E048130D9F380E591E006
:1040E0009A83898380E59BE09C838B8380E796E0BD
:1040F0009E838D8380E897E098878F8388EB92E09A
:104100009A87898781E00E94ED016AE081E00E9440
:10411000190260E081E00E941902730101E010E0E1
:104120000DC0F701608181E00E9419020A3011057B
:1041300099F00F5F1F4FFFEFEF1AFF0A01301105D3
:1041400081F781E00E947E048823D9F3F701608122
:1041500081E00E941902EDCF81E00E94000281E01F
:104160000E94ED0181E00E947E048823D9F36FEF65
:1041700081E00E94E303809374046FEF81E00E946A
:10418000E3038093750481E00E94000281E00E94B5
:104190007E048130D9F380917B068F9380917A06DB
:1041A0008F93809179068F93809178068F9380E525
:1041B00093E09F938F935F924F920E94FF34809180
:1041C000870590918805A0918905B0918A0521E025
:1041D00031E03A83298320E130E03C832B8320ECDB
:1041E0003DE03E832D8328E636E038872F839A878B
:1041F0008987BC87AB8785E090E09E878D87188A8A
:104200001F861A8A198AB201CE0143960E940B06B4
:104210006C01C618D70881E00E94ED016C2D81E089
:104220000E9419026D2D81E00E9419020FB6F894C8
:10423000DEBF0FBECDBFC114D104F9F0730100E0A1
:1042400010E00BC0F70161917F0181E00E9419022B
:104250000F5F1F4FC016D10681F098012F733327CF
:10426000232B81F781E00E947E048111EBCF81E056
:104270000E947E048823B1F3E5CF81E00E94000212
:1042800081E00E94ED0181E00E947E048823D9F341
:104290006FEF81E00E94E303809374046FEF81E08D
:1042A0000E94E3038093750481E00E94000281E094
:1042B0000E947E048130D9F3809187059091880512
:1042C000A0918905B0918A0521E031E03A832983E4
:1042D0002EE030E03C832B8320E63EE03E832D83BE
:1042E00028EA36E038872F839A878987BC87AB878F
:1042F00084E090E09E878D87188A1F861A8A198A23
:1043000066E573E0CE0143960E940B066C01C61869
:10431000D70881E00E94ED016C2D81E00E94190216
:104320006D2D81E00E941902C114D104F9F07301CE
:1043300000E010E00BC0F70161917F0181E00E9475
:1043400019020F5F1F4FC016D10681F098012F731D
:104350003327232B81F781E00E947E048111EBCF6C
:1043600081E00E947E048823B1F3E5CF81E00E94C2
:10437000000281E00E94ED0181E00E947E0488231A
:10438000D9F36FEF81E00E94E303809374046FEF31
:1043900081E00E94E3038093750481E00E940002A3
:1043A00081E00E947E048130D9F38091870590914D
:1043B0008805A0918905B0918A0521E031E03A8312
:1043C00029832CE030E03C832B8320EA3EE03E83CF
:1043D0002D8328E735E038872F839A878987BC8724
:1043E000AB8784E090E09E878D87188A1F861A8AA3
:1043F000198A6EE573E0CE0143960E940B066C01AC
:10440000C618D70881E00E94ED016C2D81E00E9462
:1044100019026D2D81E00E941902C114D104F9F036
:10442000730100E010E00BC0F70161917F0181E0B2
:104430000E9419020F5F1F4FC016D10681F098012C
:104440002F733327232B81F781E00E947E04811193
:10445000EBCF81E00E947E048823B1F3E5CF81E0B9
:104460000E94000281E00E94ED0181E00E947E0432
:104470008823D9F36FEF81E00E94E30380937404F3
:104480006FEF81E00E94E3038093750481E00E9456
:10449000000281E00E947E048130D9F380E093E045
:1044A0009A83898388E090E09C838B8381E00E94DB
:1044B000ED0164E081E00E94190260E081E00E9469
:1044C0001902730101E010E00DC0F701608181E085
:1044D0000E9419020430110599F00F5F1F4FFFEF82
:1044E000EF1AFF0A0130110581F781E00E947E0476
:1044F0008823D9F3F701608181E00E941902EDCF92
:1045000081E00E94000281E00E94ED0181E00E94B2
:104510007E048823D9F36FEF81E00E94E303809348
:1045200074046FEF81E00E94E3038093750481E0DF
:104530000E94000281E00E947E048130D9F38091C4
:104540006B06882309F4FAC189E890E027E83FED7B
:1045500042E551E05A8349833C832B839E838D83BC
:1045600081E00E94ED0166E081E00E94190260E0B6
:1045700081E00E941902730101E010E00DC0F70113
:10458000608181E00E9419020630110599F00F5FE9
:104590001F4FFFEFEF1AFF0A0130110581F781E08D
:1045A0000E947E048823D9F3F701608181E00E9494
:1045B0001902EDCF81E00E94000281E00E94ED012E
:1045C00081E00E947E048823D9F36FEF81E00E948E
:1045D000E303809374046FEF81E00E94E303809310
:1045E000750481E00E94000281E00E947E04813017
:1045F000D9F380E591E09A83898380E59BE09C83F1
:104600008B8380EF98E09E838D8380E897E0988786
:104610008F8388E292E09A87898781E00E94ED018A
:104620006AE081E00E94190260E081E00E941902C4
:10463000730101E010E00DC0F701608181E00E948C
:1046400019020A30110599F00F5F1F4FFFEFEF1AA3
:10465000FF0A0130110581F781E00E947E04882362
:10466000D9F3F701608181E00E941902EDCF81E06A
:104670000E94000281E00E94ED0181E00E947E0420
:104680008823D9F36FEF81E00E94E30380937404E1
:104690006FEF81E00E94E3038093750481E00E9444
:1046A000000281E00E947E048130D9F380916B0684
:1046B00081117CC16CE473E0C2010E9417348091C7
:1046C000870590918805A0918905B0918A0521E020
:1046D00031E03A8329832FE030E03C832B8320E4D0
:1046E0003BE03E832D8328EE38E038872F839A877E
:1046F0008987BC87AB8784E090E09E878D87188A86
:104700001F861A8A198AB201CE0143960E940B06AF
:104710002C014618570881E00E94ED01642D81E0CC
:104720000E941902652D81E00E9419024114510472
:10473000F9F0730100E010E00BC0F70161917F0117
:1047400081E00E9419020F5F1F4F4016510681F051
:1047500098012F733327232B81F781E00E947E0479
:104760008111EBCF81E00E947E048823B1F3E5CF75
:1047700081E00E94000281E00E94ED0181E00E9440
:104780007E048823D9F36FEF81E00E94E3038093D6
:1047900074046FEF81E00E94E3038093750481E06D
:1047A0000E94000281E00E947E048130D9F3809152
:1047B000870590918805A0918905B0918A0521E02F
:1047C00031E03A8329832CE030E03C832B8320EADC
:1047D0003EE03E832D8328E438E038872F839A8794
:1047E0008987BC87AB8784E090E09E878D87188A95
:1047F0001F861A8A198A6EE573E0CE0143960E94DD
:104800000B067C01E618F70881E00E94ED016E2D91
:1048100081E00E9419026F2D81E00E941902E114CB
:10482000F104F1F000E010E00BC0F30161913F01F1
:1048300081E00E9419020F5F1F4FE016F10681F020
:1048400098012F733327232B81F781E00E947E0488
:104850008111EBCF81E00E947E048823B1F3E5CF84
:1048600081E00E94000281E00E94ED0181E00E944F
:104870007E048823D9F36FEF81E00E94E3038093E5
:1048800074046FEF81E00E94E3038093750481E07C
:104890000E94000281E00E947E048130D9F381E011
:1048A0000E94ED0162E081E00E94190260E081E077
:1048B0000E94190281E00E947E048823D9F361E8F6
:1048C00081E00E94190261E081E00E94190281E00A
:1048D0000E94000281E00E94ED0181E00E947E04BE
:1048E0008823D9F36FEF81E00E94E303809374047F
:1048F0006FEF81E00E94E3038093750481E00E94E2
:10490000000281E00E947E048130D9F3CC5BDE4F4F
:104910000FB6F894DEBF0FBECDBFDF91CF911F91D0
:104920000F91FF90EF90DF90CF90BF90AF909F904E
:104930008F907F906F905F904F9008958FEF90E0F1
:1049400026E636E605CE8FEF90E02FEF3FEF75CBF2
:104950006CE473E024CA8FEF90E026E636E66AC97D
:104960008FEF90E02FEF3FEF0C94E91B6CE473E0C6
:104970000C949A1A8FEF90E026E636E60C94E41930
:104980008FEF90E02FEF3FEF0C9458176CE473E03B
:104990000C94C5168FEF90E026E636E60C940F16C1
:1049A0008FEF90E02FEF3FEF0C94391469E473E040
:1049B00083CE0F931F93CF93DF9381E00E94ED018D
:1049C00062E081E00E94190260E081E00E94190229
:1049D00081E00E947E048823D9F362E081E00E9496
:1049E000190263E081E00E94190281E00E94000246
:1049F00081E00E94ED0104E714E0C1E0D0E00CC0CA
:104A00006FEF81E00E94E303F8018083CA30D10593
:104A100091F021960F5F1F4FC130D10589F781E0DA
:104A20000E947E048823D9F36FEF81E00E94E303A4
:104A3000F8018083EECF81E00E94000281E00E94B5
:104A40007E048130D9F38091770490E0982F8827F5
:104A500020917604822B90937E0580937D05809132
:104A6000790490E0982F882720917804822B9093E6
:104A70007C0580937B0580917B0490E0982F8827AC
:104A800020917A04822B90937A0580937905209166
:104A90007D0430E0322F222740917C04242B309378
:104AA0007605209375058130910559F010927405B3
:104AB0009093780580937705DF91CF911F910F91A7
:104AC00008952091770530917805232B79F720916F
:104AD00074052111EBCF21E020937405E9CF2091DB
:104AE000790530917A052130310519F0FC011082E9
:104AF00008952091770530917805232BB9F7FC01B3
:104B000020812111F3CF21E020830895E0917505E4
:104B1000F09176053197E830F105E8F4EE58FF4F53
:104B20005F980C94DD308FE19EE40197F1F700C0AF
:104B3000000080916B0691E0892780936B061092AC
:104B40007F051092800510928105109282051092C7
:104B50008405109285055F9A08958FE19EE4019780
:104B6000F1F700C0000080916A0691E089278093E8
:104B70006A0610927F0510928005109281051092AE
:104B8000830510928405109285055F9A08958FE33E
:104B90009FE10197F1F700C000008091800591E04E
:104BA0008927EFE7F5E0119295E0E638F907D9F7A4
:104BB000809380055F9A08958FE39FE10197F1F755
:104BC00000C000008091810591E08927EFE7F5E0C2
:104BD000119295E0E638F907D9F7809381055F9A3D
:104BE00008958FE39FE10197F1F700C000008091E5
:104BF000820591E08927EFE7F5E0119295E0E6382C
:104C0000F907D9F7809382055F9A08958FE39FE1B2
:104C10000197F1F700C000008091830591E089279A
:104C2000EFE7F5E0119295E0E638F907D9F78093C0
:104C300083055F9A08958FE19EE40197F1F700C024
:104C400000008091680691E08927809368061092A1
:104C50007F051092810510928205109283051092B3
:104C60008405109285055F9A08958FE19EE401976F
:104C7000F1F700C000008091690691E089278093D8
:104C8000690610927F05109280051092820510929D
:104C9000830510928405109285055F9A08950E94FD
:104CA000D92480917405811101C008950C94862542
:104CB0000E94EA120C944F26FC0160830895EF9243
:104CC000FF920F931F93CF93DF93EC0188810E9493
:104CD000ED0160E088810E94E30360E088810E942A
:104CE000E30388810E94000288810E94ED0160E256
:104CF00088810E94E303182F60E088810E94E3030B
:104D0000082F88810E94000288810E94ED0160E2E4
:104D100088810E94E30360E088810E94E303888128
:104D20000E94000288810E94ED0160E088810E945B
:104D3000E303F82E60E088810E94E303E82E888177
:104D40000E9400028E2D90E0A0E0B0E07727662759
:104D50009F29602B712BDF91CF911F910F91FF90B5
:104D6000EF900895FC0180810C9492012F923F9264
:104D70004F925F926F927F928F929F92AF92BF926B
:104D8000CF92DF92EF92FF920F931F93CF93DF9317
:104D9000CDB7DEB763970FB6F894DEBF0FBECDBFB9
:104DA0007C011B016A01FC0117821682838181FF4D
:104DB00066C3BE016F5F7F4F4B01F7019381F10125
:104DC00093FD859193FF81911F01882309F453C3BB
:104DD000853239F493FD859193FF81911F018532CE
:104DE00039F4B70190E00E948E3456016501E5CF99
:104DF00010E0512C20E02032A0F48B3269F030F426
:104E0000803259F0833269F420612CC08D3239F040
:104E1000803339F4216026C02260246023C02860DA
:104E200021C027FD27C030ED380F3A3078F426FF37
:104E300006C0FAE01F9F300D1124132F13C06AE043
:104E4000569E300D1124532E20620CC08E3221F458
:104E500026FD11C3206406C08C3611F4206802C000
:104E6000883641F4F10193FD859193FF81911F01F3
:104E70008111C1CF9BEB980F933018F42061805EB5
:104E800006C09BE9980F933008F0AAC12F7E26FF39
:104E900016E02F73722E853621F4F22FF0647F2EE8
:104EA00008C0863621F4622F6068762E02C0111188
:104EB000115077FE07C01C3348F444244394410E3C
:104EC00027E00BC0183030F4212F06C027E04CE358
:104ED000442E03C027E017E0412C560174E0A70ED2
:104EE000B11CF6016081718182819381042DA4013E
:104EF0000E940C336C01098100FF02C003FF06C051
:104F000071FC07C072FC08C0612C08C03DE2632E32
:104F100005C02BE2622E02C090E2692E802F8C70B9
:104F200099F1662011F084E001C083E0851510F04E
:104F3000512C0BC0581A73FC08C0B70180E290E0F6
:104F40000E948E345A94C9F7F3CF662029F0B70136
:104F5000862D90E00E948E3403FD03C004E211E030
:104F600002C000E211E0F72DF0717F2EF80184916C
:104F7000882309F476C271108052B70190E00E9434
:104F80008E340F5F1F4FF2CF77FE0FC04C0C04FF23
:104F900004C08A81813309F44A94141474F5F8E04A
:104FA000F41578F588E0482E2CC076FC2AC0812FB5
:104FB00090E08C159D059CF06CEFC6166FEFD60641
:104FC00074F0772D7068772E0AC0E2E0F0E0EC0F05
:104FD000FD1FE10FF11D8081803319F41150111173
:104FE000F4CF77FE0EC044244394410E812F90E00D
:104FF000C816D9062CF41C1904C04424439401C0DB
:1050000010E077FE07C01C141D043CF496012F5FCE
:105010003F4F05C025E030E002C021E030E06620CF
:1050200011F02F5F3F4F112331F0412F50E04F5FC0
:105030005F4F240F351F452D50E02417350714F41A
:10504000521A01C0512C872D897049F4552039F02E
:10505000B70180E290E00E948E345A94F7CF662028
:1050600029F0B701862D90E00E948E3473FC09C0B0
:10507000552039F0B70180E390E00E948E345A94B5
:10508000F7CF77FE5FC09C2D8D2DD7FE02C090E03C
:1050900080E0692E782E40E050E0C6018419910925
:1050A0009D878C87960126193709280D391D812F78
:1050B00090E0EE27FF27E81BF90BFF87EE87FFEF55
:1050C0006F167F0669F4B7018EE290E02B8B3A8B66
:1050D000488B598B0E948E34598948893A892B898B
:1050E000C614D70454F06C857D85661577052CF4BD
:1050F000F901E40FF51F818101C080E371E0671AB7
:1051000071084F5F5F4FEE85FF856E167F066CF06E
:10511000B70190E02B8B3A8B488B598B0E948E34D1
:105120002B893A8948895989CACF6C147D0439F48E
:105130009A81963318F4953311F404FF81E3B70193
:1051400090E04BC08A81813309F00F7EB70190E077
:105150000E948E34111105C074FE18C085E490E0E1
:1051600017C0B7018EE290E00E948E3482E0662480
:105170006394680EF401E80FF11D8081B70190E09F
:105180000E948E34115041F3862DF1CF85E690E0D8
:10519000B7010E948E34D7FC05C0C114D10439F484
:1051A00004FF05C0D194C194D1088DE201C08BE207
:1051B000B70190E00E948E3480E36AE0C616D10405
:1051C0002CF08F5FFAE0CF1AD108F7CFB70190E04B
:1051D0000E948E34B701C601C0960E948E3441C130
:1051E000833631F0833779F0833509F058C021C018
:1051F000560172E0A70EB11CF6018081898301E09F
:1052000010E0640114C05601F2E0AF0EB11CF601CB
:10521000C080D18026FF03C0612F70E002C06FEF15
:105220007FEFC6012B8B0E941E348C012B892F77B8
:1052300015C05601F2E0AF0EB11CF601C080D1805E
:1052400026FF03C0612F70E002C06FEF7FEFC60141
:105250002B8B0E94FF338C012B892068722E23FD3B
:105260001AC0852D90E008171907A8F4B70180E24D
:1052700090E00E948E345A94F4CFF60177FC859129
:1052800077FE81916F01B70190E00E948E3451103A
:105290005A94015011090115110579F7E2C08436BD
:1052A00011F0893651F5560127FF09C0F4E0AF0E21
:1052B000B11CF60160817181828193810AC0F2E0A4
:1052C000AF0EB11CF60160817181882777FD809552
:1052D000982F022F0F7697FF08C0909580957095B4
:1052E00061957F4F8F4F9F4F00682AE030E0A40107
:1052F0000E944735C82EC8183EC0022F853721F4BA
:105300000F7E2AE030E01DC0097F8F3691F018F43F
:10531000883559F0B0C0803719F0883711F0ABC02C
:10532000006104FF09C0046007C024FF08C00660D4
:1053300006C028E030E005C020E130E002C020E1F6
:1053400032E0560107FF09C0F4E0AF0EB11CF601D0
:10535000608171818281938108C0F2E0AF0EB11C3F
:10536000F6016081718180E090E0A4010E944735E0
:10537000C82EC8180F7706FF0BC0202F2E7FC1162E
:1053800050F404FF0AC002FD08C0202F2E7E05C085
:10539000DC2C202F03C0DC2C01C0D12E24FF0DC03B
:1053A000FE01EC0DF11D8081803311F4297E09C0CE
:1053B00022FF06C0D394D39404C0822F867809F0CC
:1053C000D39423FD13C020FF06C01C2DD51418F460
:1053D000150D1D19D52CD51468F4B70180E290E0A5
:1053E0002B8B0E948E34D3942B89F5CFD51410F4D7
:1053F0005D1801C0512C24FF12C0B70180E390E07A
:105400002B8B0E948E342B8922FF17C021FF03C0F3
:1054100088E590E002C088E790E0B7010CC0822FD9
:10542000867859F021FD02C080E201C08BE227FDA1
:105430008DE2B70190E00E948E34C11638F4B701B6
:1054400080E390E00E948E341150F7CFCA94F401AB
:10545000EC0DF11D8081B70190E00E948E34C110E7
:10546000F5CF552009F4C2CCB70180E290E00E944C
:105470008E345A94F6CFF7018681978102C08FEF60
:105480009FEF63960FB6F894DEBF0FBECDBFDF91DE
:10549000CF911F910F91FF90EF90DF90CF90BF9031
:1054A000AF909F908F907F906F905F904F903F90C4
:1054B0002F90089520FD09C0FC0123FD05C022FFA7
:1054C00002C07383628351834083089544FD10C0FA
:1054D00046FD10C0DB01FC01AA0FBB1FEE1FFF1F22
:1054E0001094D1F76A0F7B1F8E1F9F1F31E003C0FE
:1054F00033E001C034E0660F771F881F991F3150D9
:10550000D1F7620F711D811D911D08950F931F9397
:10551000CF93DF938C01C8010E945034EC0197FDBA
:1055200008C00E94E433892BB1F7B801CE010E9474
:105530002E35CE01DF91CF911F910F9108956F927B
:105540007F929F92AF92BF92CF92DF92EF92FF92A3
:105550000F931F93CF93DF931F92CDB7DEB78C01CC
:105560003B015A0129830E945034AC0155272981FF
:105570004B32510521F04D32510581F4206831E064
:10558000631A71086114710411F480E07FC0C801CE
:1055900029830E945034298197FDF7CFE22FED7FB8
:1055A0009E2E322F307379F5803369F57301F1E067
:1055B000EF1AF108E114F10409F454C0C801298379
:1055C0000E945034298197FD4DC0382F3F7D3835DA
:1055D00081F4292D2264922E32E0631A710861143D
:1055E000710409F43FC0C8010E94503497FF0BC0FA
:1055F00039C026FF04C0E92DE2609E2E03C0F92DBC
:10560000F2619F2E3701C12CD12C760120ED280F9D
:10561000283080F094FE04C0B8010E942E351FC0CF
:105620002A3040F096FEF8CF2F7D3FEE320F363015
:1056300098F72750492DC701B6010E94662A6B01D1
:105640007C01292D2260922E31E0631A71086114C9
:10565000710459F0C8010E94503497FFD7CF91FCD4
:1056600004C093CFC12CD12C760197FE08C0F094D2
:10567000E094D094C094C11CD11CE11CF11C292DD4
:10568000B701A601C5010E945A2A81E00F90DF915F
:10569000CF911F910F91FF90EF90DF90CF90BF902F
:1056A000AF909F907F906F9008954F925F926F920E
:1056B0007F928F929F92AF92BF92CF92DF92EF92A2
:1056C000FF920F931F93CF93DF93CDB7DEB7A097D1
:1056D0000FB6F894DEBF0FBECDBF5C014B017A015F
:1056E0008E010F5F1F4F680180E2F80111928A95C9
:1056F000E9F7F501638080E090E0712C412CB0E087
:1057000041E050E0F90163FC559063FE51908F0138
:10571000A52D9F01511003C080E090E07FC0FEE501
:105720005F1202C0009761F16B2F70E06817790774
:105730004CF46DE5561661F1EDE25E1203C04420B3
:1057400009F103C0411001C0752C6A2F669566955A
:105750006695F601E60FF11D6A2F67708A0102C097
:10576000000F111F6A95E2F7B8017081762B7083E4
:10577000A71559F0A71510F4AF5FE7CFA150E5CFFB
:10578000B1E004C04424439401C0412C0196BACF37
:10579000442019F08E8180628E83B11103C077247A
:1057A000739419C0F601CE01819620812095219332
:1057B000E817F907D1F7F3CFE114F10429F0F70165
:1057C0008083C70101967C0191E0891A91088114B8
:1057D0009104F1F0712CC5010E94503497FD16C060
:1057E000282F269526952695F601E20FF11D20819A
:1057F00030E0AC014770552702C0359527954A9592
:10580000E2F720FDD9CFB5010E942E35711084CF6B
:10581000E114F10411F0F7011082C801A0960FB64F
:10582000F894DEBF0FBECDBFDF91CF911F910F91D6
:10583000FF90EF90DF90CF90BF90AF909F908F90B0
:105840007F906F905F904F9008952F923F924F926C
:105850005F926F927F929F92AF92BF92CF92DF92B0
:10586000EF92FF920F931F93CF93DF9300D000D05E
:10587000CDB7DEB76C018B011A010E9450349E83B4
:105880008D8399278B32910529F08D9799F480E8C3
:10589000982E01C0912C015011090115110511F428
:1058A00080E036C1C6010E9450349E838D8397FFED
:1058B00002C0F6CF912C8D819E810E94EC338936F7
:1058C000910541F08E369105D9F5BAE36B2EB1E022
:1058D0007B2E04C0ADE36A2EA1E07A2E8FEF681A0A
:1058E000780AF3013197B490BB20F1F0015011090F
:1058F0000115110571F0C6010E9450347C0197FD1D
:1059000008C00E94EC33B81649F3B601C7010E94E3
:105910002E3520E4621621E0720609F0C1CF80E046
:1059200090E0A0E8BFE709C09DE3691691E0790621
:10593000B1F780E090E0A0ECBFE7BC01CD01D8C09A
:10594000412C512C3201E12CF12C2D8120532A3095
:1059500028F5E92DE260BE2E892D887092FE06C0E2
:10596000811123C0FFEFEF1AFF0A1FC0882319F02F
:1059700081E0E81AF10840E2C301B2010E94662A00
:105980002B013C0198E9491699E95906690699E104
:10599000790658F0E92DE660BE2E07C02E3FA1F42F
:1059A00093FC12C0F92DF860BF2E015011090115AA
:1059B000110549F0C6010E9450349E838D839B2CB3
:1059C00097FD02C0C2CF9B2C91FE6ACF8D818F7D47
:1059D000853409F056C0580121E0A21AB108A1147B
:1059E000B10409F45DCFC6010E9450349E838D83BB
:1059F00097FD56CF99278B32910529F08D9781F429
:105A0000892D8061982E580192E0A91AB108A1143D
:105A1000B10409F445CFC6010E9450349E838D83A2
:105A20008D819E81C0970A9708F03ACF8501A12CFD
:105A3000B12CB501882777FD8095982F2D812053B3
:105A400040E20E94662AAB01BC015A0101501109D3
:105A50000115110571F0C60149835A836B837C835C
:105A60000E9450349E838D83C09749815A810A9742
:105A700000F394FE04C0AA24BB24A41AB50AEA0CBD
:105A8000FB1C012B41F0ED81FE81F7FD04C0B60146
:105A9000CF010E942E35C301B2010E94F331F7FEFF
:105AA00008C0F194E194F108F9E5AF2EF1E0BF2EC2
:105AB00004C0E1E7AE2EE1E0BE2E6501F8E1CF1AA9
:105AC000D10800E210E0E016F10650F0F501259152
:105AD0003591459154910E94A932E01AF10AF3CF11
