:100000000C9486010C94B7010C94050C0C94050C0F
:100010000C94470C0C94B7010C94050C0C94B7018C
:100020000C94B7010C94510C0C94B7010C94B701CB
:100030000C94B7010C94B7010C94B7010C94B70160
:100040000C94B7010C94B7010C94B7010C94B70150
:100050000C94B7010C94B7010C94B7010C94B70140
:100060000C94B7010C94B7010C94B7010C94B70130
:100070000C94B7010C94B7010C94B7010C94B70120
:100080000C94B7010C94B7010C94B7010C94B70110
:100090000C94B7010C94B7010C94B7010C94B70100
:1000A0000C94B7010C94B7010C94B7010C94B701F0
:1000B0000C94B7010C94B7010C94B7010C94B701E0
:1000C0000C94B7010C94B7010C94B7010C94B701D0
:1000D0000C94B7010C94B7010C94B7010C94B701C0
:1000E0000C94B70184299229A029AE29BC29CA29D8
:1000F000D829E629F429022A6A2978290763423691
:10010000B79BD8A71A39685618AEBAAB558C1D3CA8
:10011000B7CC5763BD6DEDFD753EF6177231BF006C
:100120000000803F08000000BE922449123EABAAA6
:10013000AA2ABECDCCCC4C3E00000080BEABAAAA01
:10014000AA3E00000000BF000000803F0000000049
:1001500000084178D3BB4387D1133D190E3CC3BD82
:100160004282AD2B3E68EC8276BED98FE1A93E4C2F
:1001700080EFFFBE01C4FF7F3F00000000000C9431
:1001800087070C94A0290C9492290C946A290C944A
:10019000CA290C94022A0C9478290C94F4290C9402
:1001A000E6290C94EC340C94D8290C9484290C94F2
:1001B00097070C94AE290C94BC296E616E00696E91
:1001C00066006364696E6F70737578585B65666707
:1001D00045464700616E006E66696E69747900CDB0
:1001E000CCCC3D0AD7233C17B7D13877CC2B3295EE
:1001F00095E6241FB14F0A000020410000C84200CC
:10020000401C4620BCBE4CCA1B0E5AAEC59D740095
:10021000407A10F35A00A0724E18090010A5D4E8D5
:100220000000E87648170000E40B54020000CA9A68
:100230003B000000E1F505000080969800000040BA
:10024000420F000000A086010000001027000000FF
:1002500000E803000000006400000000000A000045
:100260000000000100000000002C76D888DC674FF9
:100270000823DFC1DFAE59E1B1B796E5E3E453C629
:100280003AE651997696E8E6C28426EB898C9B6221
:10029000ED407C6FFCEFBC9C9F40F2BAA56FA5F4CB
:1002A00090055A2AF75C936B6CF9676DC11BFCE0F3
:1002B000E40D47FEF520E6B500D0ED902E03009446
:1002C0003577050080841E080000204E0A000000DB
:1002D000C80C333333330F986E12831141EF8D21E5
:1002E00014893BE65516CFFEE6DB18D1844B381B4C
:1002F000F77C1D901DA4BBE424203284725E228111
:1003000000C9F124ECA1E53D2700EC3411241FBE07
:10031000CFEFD1E2DEBFCDBF00E00CBF13E0A0E025
:10032000B2E0E2EFF5E700E00BBF02C007900D92EC
:10033000A03BB107D9F725E0A0EBB3E001C01D92C7
:10034000AD32B207E1F713E0CCE0D3E000E006C045
:1003500022970109FE010BBF0E945735CA30D10711
:1003600080E00807A9F70E945F340C94F73A0C94D8
:100370000000279A08952F9A08952F9808951F9A9C
:1003800008950097D9F020E030E02F9A4FE75AE126
:1003900066E0415050406040E1F700C000002F98F7
:1003A0004FE75AE166E0415050406040E1F700C03D
:1003B00000002F5F3F4F2817390739F70895813024
:1003C00009F441C0823009F44BC0833009F472C093
:1003D000843009F47DC0853009F498C0863009F076
:1003E00008952FEF81EE94E0215080409040E1F796
:1003F00000C0000080910101846080930101809120
:1004000002018460809302018091010182608093E7
:1004100001018091020182608093020180910101BB
:1004200081608093010180910201816080930201CB
:1004300080910101877F8093010180910201877F74
:10044000809302010895809A889A6F9A779A839A86
:100450008B9A819A899A82988A986E98769808954C
:100460000B9A13982FEF81EE94E02150804090403A
:10047000E1F700C0000080910701806880930701C8
:100480008091080180688093080180910701826053
:100490008093070180910801826080930801809118
:1004A000070188608093070180910801886080932C
:1004B000080108950B9A13982FEF81EE94E02150D4
:1004C00080409040E1F700C00000099A119ADDCF0A
:1004D00080910401806180930401809105018F7EE9
:1004E000809305012FEF81EE94E0215080409040F1
:1004F000E1F700C000008091040180648093040152
:1005000080910501806480930501BFCF0F9A1798F1
:100510002FEF81EE94E0215080409040E1F700C041
:1005200000000D9A159A809107018260809307015F
:1005300080910801826080930801809107018860A2
:100540008093070180910801886080930801809161
:1005500007018F7D80930701809108018F7D809333
:1005600008010895813009F0089577988AE08A9506
:10057000F1F7779A81E08A95F1F70895813009F1D2
:10058000823011F1833059F1843081F0853071F17E
:10059000863009F008958091020182608093020103
:1005A000809102018B7F8093020108958091080160
:1005B0008D7F80930801809105018F7B80930501D9
:1005C00008958B9888980895809108018D7F809375
:1005D0000801809108018F77809308010895809128
:1005E00008018D7F8093080111980895809108017A
:1005F0008D7F8093080115980895813031F1823004
:1006000041F1833061F1843081F0853051F18630E1
:1006100009F0089580910201826080930201809127
:100620000201846080930201089580910501806435
:100630008093050180910801826080930801809178
:1006400008018860809308010895889A8B9A899A96
:10065000089580910801806880930801EBCF119A7A
:10066000E9CF159A8091080182608093080108956E
:10067000962F9078813009F4C1C0823029F0833000
:1006800019F0843009F0089580910801992309F444
:1006900038C188608093080181E08A95F1F78091E4
:1006A000080182608093080181E08A95F1F78091CA
:1006B00008018D7F8093080166FF1DC180910801AC
:1006C00088608093080181E08A95F1F780910801A4
:1006D00082608093080181E08A95F1F7809108019A
:1006E0008D7F8093080165FF00C1809108018860BB
:1006F0008093080181E08A95F1F78091080182607A
:100700008093080181E08A95F1F7809108018D7F3F
:100710008093080164FFE3C08091080188608093A2
:10072000080181E08A95F1F7809108018260809349
:10073000080181E08A95F1F7809108018D7F80930F
:10074000080163FFC6C0809108018860809308019A
:1007500081E08A95F1F78091080182608093080119
:1007600081E08A95F1F7809108018D7F80930801DF
:1007700062FFA9C08091080188608093080181E030
:100780008A95F1F78091080182608093080181E0E9
:100790008A95F1F7809108018D7F8093080161FFB0
:1007A0008CC08091080188608093080181E08A955F
:1007B000F1F78091080182608093080181E08A95B9
:1007C000F1F7809108018D7F8093080160FF6FC071
:1007D0008091080188608093080181E08A95F1F793
:1007E0008091080182608093080181E08A95F1F789
:1007F000809108018D7F809308010895911185C033
:10080000899881E08A95F1F78B9A81E08A95F1F7D2
:100810008B9866FF88C0899A81E08A95F1F78B9A58
:1008200081E08A95F1F78B9865FF7BC0899A81E01A
:100830008A95F1F78B9A81E08A95F1F78B9864FF9E
:100840006EC0899A81E08A95F1F78B9A81E08A954A
:10085000F1F78B9863FF61C0899A81E08A95F1F77F
:100860008B9A81E08A95F1F78B9862FF54C0899A40
:1008700081E08A95F1F78B9A81E08A95F1F78B9860
:1008800061FF47C0899A81E08A95F1F78B9A81E0F0
:100890008A95F1F78B9860FF3AC0899A81E08A9532
:1008A000F1F78B9A81E08A95F1F78B980895809102
:1008B0000801877F8093080190CF80910801877F8E
:1008C0008093080173CF80910801877F809308018E
:1008D00056CF80910801877F8093080139CF80919E
:1008E0000801877F809308011CCF80910801877FD2
:1008F00080930801FFCE80910801877F80930801D3
:10090000E2CE877F80930801C7CE899A7ACF8998F3
:10091000C5CF8998B8CF8998ABCF89989ECF899851
:1009200091CF899884CF899877CF813009F4BBC063
:10093000853011F080E0089581E08A95F1F780918B
:1009400008018260809308018091060191E09A95E8
:10095000F1F7909108019D7F9093080185FB88270E
:1009600080F9880F91E09A95F1F7909108019260D3
:10097000909308012091060191E09A95F1F79091EA
:1009800008019D7F9093080125FB992790F9892BF9
:10099000880F91E09A95F1F79091080192609093F9
:1009A00008012091060191E09A95F1F790910801D4
:1009B0009D7F9093080125FB992790F9892B880F3B
:1009C00091E09A95F1F79091080192609093080157
:1009D0002091060191E09A95F1F7909108019D7F91
:1009E0009093080125FB992790F9892B880F91E0B6
:1009F0009A95F1F7909108019260909308012091E7
:100A0000060191E09A95F1F7909108019D7F9093EE
:100A1000080125FB992790F9892B880F91E09A9579
:100A2000F1F79091080192609093080120910601DE
:100A300091E09A95F1F7909108019D7F90930801BC
:100A400025FB992790F9892B880F91E09A95F1F76A
:100A5000909108019260909308012091060191E025
:100A60009A95F1F7909108019D7F9093080125FBDD
:100A7000992790F9892B91E09A95F1F790910801C7
:100A80009260909308012091060191E09A95F1F708
:100A9000909108019D7F90930801880F25FB99276D
:100AA00090F9892B08958A95F1F78B9A8FB191E08F
:100AB0009A95F1F78B9882FB882780F9880F91E04F
:100AC0009A95F1F78B9A2FB191E09A95F1F78B985F
:100AD00022FB992790F9892B880F91E09A95F1F7DD
:100AE0008B9A2FB191E09A95F1F78B9822FB992779
:100AF00090F9892B880F91E09A95F1F78B9A2FB195
:100B000091E09A95F1F78B9822FB992790F9892B20
:100B1000880F91E09A95F1F78B9A2FB191E09A9511
:100B2000F1F78B9822FB992790F9892B880F91E098
:100B30009A95F1F78B9A2FB191E09A95F1F78B98EE
:100B400022FB992790F9892B880F91E09A95F1F76C
:100B50008B9A2FB191E09A95F1F78B9822FB992708
:100B600090F9892B91E09A95F1F78B9A2FB191E04A
:100B70009A95F1F78B98880F22FB992790F9892B8A
:100B80000895962F9078813009F4F3C0863011F0E3
:100B900080E0089580910201911174C18E7F80934D
:100BA000020181E08A95F1F79091000180910201A4
:100BB0008D7F8093020181E08A95F1F78091020197
:100BC00082608093020193FB992790F9990F66FF49
:100BD0008FC18091020181608093020181E08A953A
:100BE000F1F780910001209102012D7F20930201F5
:100BF00021E02A95F1F72091020122602093020161
:100C000083FB882780F9892B880F65FF6BC1909142
:100C1000020191609093020191E09A95F1F7909111
:100C20000001209102012D7F2093020121E02A95ED
:100C3000F1F72091020122602093020193FB992792
:100C400090F9982B990F64FF47C180910201816050
:100C50008093020181E08A95F1F780910001209153
:100C600002012D7F2093020121E02A95F1F72091C6
:100C7000020122602093020183FB882780F9892BDF
:100C8000880F63FF23C1909102019160909302014C
:100C900091E09A95F1F790910001209102012D7F4A
:100CA0002093020121E02A95F1F7209102012260B0
:100CB0002093020193FB992790F9982B990F62FFDB
:100CC000FFC08091020181608093020181E08A95DA
:100CD000F1F780910001209102012D7F2093020104
:100CE00021E02A95F1F72091020122602093020170
:100CF00083FB882780F9892B880F61FFDBC09091E7
:100D0000020191609093020191E09A95F1F7909120
:100D10000001209102012D7F2093020121E02A95FC
:100D2000F1F72091020122602093020193FB9927A1
:100D300090F9982B990F60FFB7C0809102018160F4
:100D40008093020181E08A95F1F780910001209162
:100D500002012D7F2093020121E02A95F1F72091D5
:100D6000020122602093020183FB882780F9892BEE
:100D70000895911185C0899881E08A95F1F78B9A41
:100D80009FB181E08A95F1F78B9892FB992790F9B2
:100D9000990F66FF7DC0899A81E08A95F1F78B9A59
:100DA0008FB121E02A95F1F78B9882FB882780F993
:100DB000892B880F65FF6AC0899A91E09A95F1F7AF
:100DC0008B9A9FB121E02A95F1F78B9892FB992796
:100DD00090F9982B990F64FF63C0899A81E08A95F6
:100DE000F1F78B9A8FB121E02A95F1F78B9882FB6E
:100DF000882780F9892B880F63FF50C0899A91E07A
:100E00009A95F1F78B9A9FB121E02A95F1F78B988B
:100E100092FB992790F9982B990F62FF3DC0899A10
:100E200081E08A95F1F78B9A8FB121E02A95F1F74D
:100E30008B9882FB882780F9892B880F61FF2AC055
:100E4000899A91E09A95F1F78B9A9FB121E02A95C2
:100E5000F1F78B9892FB992790F9982B990F60FFE7
:100E600021C0899A81E08A95F1F78B9A8FB121E0B0
:100E70002A95F1F78B9882FB882780F9892B0895B2
:100E8000899A7ACF8160809302018BCE899895CF21
:100E9000899882CF8998D5CF8998C2CF8998AFCFCA
:100EA00089989CCF8998DECF809102018E7F8093B4
:100EB000020148CF909102019E7F9093020124CFBE
:100EC000809102018E7F8093020100CF90910201F8
:100ED0009E7F90930201DCCE809102018E7F8093F1
:100EE0000201B8CE909102019E7F9093020194CEB0
:100EF000809102018E7F8093020170CE813011F0CB
:100F000080E008958CB186FB882780F90895CF93FF
:100F1000C82F8A3041F09091C00095FFFCCFC0935C
:100F2000C600CF9108958DE00E948707F4CFCF933C
:100F30008091C00087FFFCCFC091C6002091B00314
:100F40003091B103232B39F06091290570912A0566
:100F50008C2F0E9487078C2FCF9108951092C50087
:100F600089E18093C400E0ECF0E080818D7F808394
:100F700086E08093C20088E18093C10008951092BA
:100F8000C50089E18093C400E0ECF0E080818D7FB2
:100F9000808386E08093C20088E18093C100109234
:100FA000B1031092B00380E092E090932805809303
:100FB000270590932A058093290508959093B103FE
:100FC0008093B00308951092B1031092B003089576
:100FD000FC0160830895CF92DF92EF92FF92CF934E
:100FE000DF93EC016A017B0188810E94BE026C2DB7
:100FF00088810E943803B7018827992788810E9439
:10100000380399278F2D7E2D6D2D88810E943803FE
:101010008881DF91CF91FF90EF90DF90CF900C947B
:10102000FD02FC0180810C94DF01FC0160830895C6
:101030000F931F93CF93DF93EC018B0188810E9464
:10104000BE02B8010024660F771F001C660F771FD1
:10105000001C672F702D6F7388810E943803602FEA
:10106000660F660F88810E9438038881DF91CF91D7
:101070001F910F910C94FD02FC0180810C94DF0103
:101080000F931F93CF93DF938C01EB010E948D3957
:10109000FE0101900020E9F7EC1BFD0BC8018E0F4B
:1010A0009F1FDF91CF911F910F910895FC016083E5
:1010B00008950F931F93CF93DF93EC0188810E94D3
:1010C000BE0288810E94950488810E949504182F91
:1010D00088810E949504082F88810E94FD02802F3C
:1010E00090E0912BDF91CF911F910F910895FC011A
:1010F00080810C94DF01FC0160830895EF92FF92E0
:101100001F93CF93DF931F92CDB7DEB77C01162FCD
:10111000FC01808179830E94BE026981F701808190
:101120000E943803612FF70180810E943803F70184
:1011300080810F90DF91CF911F91FF90EF900C94E1
:10114000FD02FC0180810C94DF0160E070E88FEE0D
:1011500094E00C947E0860932D0270932E0280938D
:101160002F02909330020E948E3625E93FEB46E530
:101170005CE30E941E380E9462366115710521E011
:101180008207910520F06FEF7FEF80E090E08FEE17
:1011900094E00C947E08CF92DF92EF92FF9223E3CB
:1011A00033E948E853E40E945C359B01AC0160E000
:1011B00070E080E89FE30E94C4352FE03FEC4BE5F0
:1011C0005BE30E945B352AE93DE54EE655E40E946B
:1011D0001E380E9431362AE93FED4DE156E40E9467
:1011E0001E3820E030E44CE956E40E94C43520E08B
:1011F00030E040E85FE30E945C356B017C0120E059
:1012000030E040E85FE30E94C03587FF06C0C12C94
:10121000D12C30E8E32E3FE3F32E60913102709140
:10122000320280E090E00E948E36A70196010E9473
:10123000C4350E9462368FEE94E0FF90EF90DF900D
:10124000CF900C947E0860E070E08AEE94E00C94FD
:1012500018089093200280931F02BC0180E090E068
:101260000E948E3623E439E341E95DE30E941E3893
:101270000E946236611580E1780710F06FEF7FE021
:101280008AEE94E00C941808CF92DF92EF92FF92CE
:10129000C090DE04D090DF04E090E004F090E10420
:1012A00060912302709124026F5F7F4F882777FD42
:1012B0008095982F0E949036A70196010E94C03514
:1012C00087FD14C060912102709122026150710962
:1012D000882777FD8095982F0E9490369B01AC015E
:1012E000C701B6010E94C03587FF0CC081E0809322
:1012F000F0048091F10481110CC0FF90EF90DF9019
:10130000CF9008951092F004FF90EF90DF90CF906F
:10131000089580E090E00E9429091092F204FF9065
:10132000EF90DF90CF90089540E050E0BA0186EE54
:1013300094E00C94EB07942F8093180260931702AB
:1013400040931602462F50E060E070E0582B762F55
:10135000652F542F4427492B86EE94E00C94EB071D
:10136000CF92DF92EF92FF92809118029091E90460
:101370006091170240911602891709F46BC00E9410
:101380009B09809118028093E90480911702809351
:10139000E804809116028093E704C0902902D0905F
:1013A0002A02E0902B02F0902C022091250230912D
:1013B00026024091270250912802C701B6010E94DF
:1013C000C035811150C0C0901B02D0901C02E0902B
:1013D0001D02F0901E022091EB043091EC0440912C
:1013E000ED045091EE04B601C7010E94C035811191
:1013F0001BC02091F2048091F104821781F0222316
:1014000029F08091F004882309F442C080E090E044
:101410000E9429091092F20480E08093F104FF9069
:10142000EF90DF90CF9008958091F20481110CC06D
:1014300020E0C601D7018093EB049093EC04A093C5
:10144000ED04B093EE04D7CF8091F0048823B1F17E
:1014500021E0EFCF9091E804691391CF9091E704D8
:1014600049138DCF9ACFC701B6010E94CB08809156
:10147000290290912A02A0912B02B0912C02809314
:10148000250290932602A0932702B09328029BCFB7
:1014900020E030E04AE754E460911B0270911C02A6
:1014A00080911D0290911E020E941E380E94623699
:1014B000CB010E9429098091F204AFCF20E030E0F7
:1014C0004AE754E4B601C7010E941E380E94623602
:1014D000CB010E942909C0901B02D0901C02E09011
:1014E0001D02F0901E022091F204A3CF08958DED0D
:1014F00094E00E945908BC0180E090E00E948E3682
:1015000021E836E948E952E40E941E380E9462361A
:101510006093E2047093E3048093E4049093E50401
:1015200008958F929F92AF92BF92CF92DF92EF92E7
:10153000FF928DED94E00E9459085C0160911402C5
:101540007091150280E090E00E948E366B017C0164
:10155000B50180E090E00E948E369B01AC01C7018E
:10156000B6010E94C43520E030E040E85FE30E940D
:101570005B3520E030E44CE956E40E941E380E94BE
:10158000AB376B017C0127EE34E644E759E30E9458
:101590001E3828EA35ED44E95AE30E945C354B01D8
:1015A0005C0120E23AE645EC53E3C701B6010E9434
:1015B0001E38A70196010E941E38A70196010E94BD
:1015C0001E389B01AC01C501B4010E945C359B0132
:1015D000AC0160E070E080E89FE30E94C43523E343
:1015E00033E948E853E40E945B356093DE0470936E
:1015F000DF048093E0049093E104FF90EF90DF908C
:10160000CF90BF90AF909F908F90089508954F9284
:101610005F926F927F928F929F92AF92BF92CF9282
:10162000DF92EF92FF920F931F93CF93DF938FEC94
:1016300094E00E94232A6B017C01C0912305C530F0
:1016400008F0ACC0D0E0CC0FDD1FCC0FDD1F8E0149
:10165000015F1A4FC701B6017F70882799270E9442
:101660008E362DEA39EA40E252E40E941E380E948A
:101670006236F8016083718382839383C550DB4FA8
:10168000B701882799277F70882799270E948E366F
:1016900025EF32E84EE550E40E941E380E94623683
:1016A000688379838A839B838090D5049090D60445
:1016B000A090D704B090D8040091D9041091DA0416
:1016C0002091DB043091DC04EFE0F5E0ABEFB4E017
:1016D0006191719181919191680D791D8A1D9B1D78
:1016E000CD90DD90ED90FD90C00ED11EE21EF31E58
:1016F00025E0E332F20729F04B015C0197018601F6
:10170000E7CFF5E04F2E512C612C712CA3019201F3
:101710000E94153549015A012093D5043093D6040F
:101720004093D7045093D804C701B601A301920196
:101730000E9415352093D9043093DA044093DB04DA
:101740005093DC04C501B4010E94053528EE33E056
:1017500040E050E00E9415352093D1043093D2042C
:101760004093D3045093D4048091000185FB8827D3
:1017700080F98093D004CA01B901DF91CF911F9104
:101780000F91FF90EF90DF90CF90BF90AF909F9020
:101790008F907F906F905F904F90089510922305E7
:1017A000C0E0D0E050CF52985A9AE9E6F0E080814C
:1017B0008F7D8083808180618083EA9A5198599AD5
:1017C0008081877F8083808184608083E99A5398B9
:1017D0005B9A80818068808380818F7B8083EB9A95
:1017E00026982E9AA8E6B0E08C9181608C93EBE667
:1017F000F0E080818064808325982D9A8C918160AF
:101800008C9380818062808308951F920F920FB61F
:101810000F9211240BB60F922F933F934F935F9328
:101820006F938F939F93EF93FF934091FA04440F2C
:10183000440F4093FA0459B169B161FB882780F9DC
:1018400090E0842B52FB222720F930E0220F331F37
:10185000822B932B8093FA048F70E82FF0E0E95CE1
:10186000FD4F809126059081890F80932605FF9179
:10187000EF919F918F916F915F914F913F912F9138
:101880000F900BBE0F900FBE0F901F9018951F92D8
:101890000F920FB60F9211240F900FBE0F901F9052
:1018A00018951F920F920FB60F9211248F939F934A
:1018B00083B186FB882780F990910F02992311F05C
:1018C0008823C1F080930F0283B185FB882780F9BC
:1018D00090910E02992329F0811103C091E0909319
:1018E000240580930E029F918F910F900FBE0F9051
:1018F0001F90189591E090932505E4CF9F92AF92A9
:10190000BF92CF92DF92EF92FF920F931F93CF93EC
:10191000DF9323B113B1EDEBF4E0C0E0D0E08191AF
:10192000811163C12196CD30D105C9F78DE090E0DA
:10193000A0E0B0E08093F3049093F404A093F50446
:10194000B093F60480912505882331F0022F0074AE
:1019500026FFEEC01092250580912405882339F0DA
:10196000812F8072B82E15FF93C01092240520910C
:10197000F90410912605211739F08091F704909110
:10198000F804C817D907A1F01092F904109226059F
:10199000D093F804C093F704DF91CF911F910F917A
:1019A000FF90EF90DF90CF90BF90AF909F90089501
:1019B000121BC730D10509F4DFC10CF01CC1C130C6
:1019C000D10509F408C2C630D10509F059C087E62F
:1019D0001802812D11248595859517FD8395182F63
:1019E0008111A1C2612F772767FD7095872F972FEF
:1019F0000E9490362DEC3CEC4CEC5DE30E941E38CE
:101A000020911B0230911C0240911D0250911E0238
:101A10000E945C35962EA72EB82EC92E6091190211
:101A200070911A02882777FD8095982F0E94903632
:101A3000D62EE72EF82E092F262F372F482F592F75
:101A4000692D7A2D8B2D9C2D0E94653718160CF070
:101A500029C220E030E0A9016D2D7E2D8F2D902F21
:101A60000E94C03587FD6FC28D2D9E2DAF2DB02FEA
:101A700080931B0290931C02A0931D02B0931E0240
:101A8000112321F01092F904109226055F9A80CF5D
:101A9000C730D10509F48AC20CF012C1C130D1059A
:101AA00009F414C3C630D10509F040C05F988FE136
:101AB0009EE40197F1F700C0000020E030E040E82C
:101AC0005FE360911B0270911C0280911D02909156
:101AD0001E020E945C355B016C01609119027091DD
:101AE0001A02882777FD8095982F0E9490367B01F7
:101AF0008C019B01AC01B501C6010E946537181627
:101B000014F07501860120E030E0A901B701C80199
:101B10000E94C03587FD96C3A701B80140931B0200
:101B200050931C0260931D0270931E025F9A1DCF9A
:101B3000C730D10509F40EC20CF08EC0C130D105FA
:101B400009F45FC2C630D10509F04DC05F988FE13E
:101B50009EE40197F1F700C0000020E030E040E88B
:101B60005FE360911B0270911C0280911D029091B5
:101B70001E020E945B35962EA72EB82EC92E6091AC
:101B8000190270911A02882777FD8095982F0E947C
:101B90009036D62EE72EF82E092F262F372F482FD6
:101BA000592F692D7A2D8B2D9C2D0E946537181683
:101BB0001CF0D92C75010C2D20E030E0A9016D2D11
:101BC0007E2D8F2D902F0E94C03587FD40C38D2D17
:101BD0009E2DAF2DB02F80931B0290931C02A093DB
:101BE0001D02B0931E025F9AB5CECE01AA2797FDC3
:101BF000A095BA2F9FCEC830D10509F494C0C93042
:101C0000D10509F03DCF87E61802812D1124859575
:101C1000859517FD8395182F81117DC1809116023E
:101C2000A12EBB24A7FCB094A80EB11CB501882737
:101C300077FD8095982F0E9490366B017C0120E003
:101C400030E04FE753E40E94653718160CF048C1A6
:101C50008FEF8093160214CFC830D10509F4B4C2B7
:101C6000C930D10509F0BFCF5F988FE19EE401979D
:101C7000F1F700C00000A0901602B12C9AE0A91A5A
:101C8000B108B501882777FD8095982F0E9490367E
:101C90006B017C0120E030E04FE753E40E946537A0
:101CA00018160CF4C4C220E030E0A901C701B60147
:101CB0000E94C03587FF0A2D009316025F9A4ACE14
:101CC000C830D10509F455C2C930D10509F02ECF6D
:101CD0005F988FE19EE40197F1F700C0000000914A
:101CE000160210E0065F1F4FB801882777FD809528
:101CF000982F0E9490366B017C0120E030E04FE786
:101D000053E40E94653718160CF493C220E030E0CB
:101D1000A901C701B6010E94C03587FFB02EB0925D
:101D200016025F9A22CE87E61802812D112485952E
:101D3000859517FD8395182F8111E5C080911702B5
:101D4000A12EBB24A7FCB094A80EB11CB501882716
:101D500077FD8095982F0E9490366B017C0120E0E2
:101D600030E04FE753E40E94653718160CF0A2C02C
:101D70008FEF8093170284CE8FE99FE00197F1F7F0
:101D800000C0000087E61802812D112485958595F5
:101D900017FD8395182F8111AEC080911802A12ED6
:101DA000BB24A7FCB094A80EB11CB501882777FD11
:101DB0008095982F0E9490366B017C0120E030E0E6
:101DC0004FE753E40E94653718160CF07EC08FEF82
:101DD0008093180255CE17FDBBC01595159509F0D7
:101DE000AAC0612F772767FD7095872F972F0E94D4
:101DF00090362AE037ED43EA5BE30E941E382091DB
:101E0000290230912A0240912B0250912C020E940B
:101E10005C35962EA72EB82EC92E609123027091A4
:101E20002402882777FD8095982F0E949036D62E21
:101E3000E72EF82E092F262F372F482F592F692DDF
:101E40007A2D8B2D9C2D0E94653718167CF560919C
:101E5000210270912202882777FD8095982F0E9499
:101E60009036962EA72EB82EC92E262F372F482F04
:101E7000592F6D2D7E2D8F2D902F0E94C03587FFFD
:101E80000DC0892D9A2DAB2DBC2D809329029093E6
:101E90002A02A0932B02B0932C02F2CD9D2C570165
:101EA000C02EEFCFD92C75010C2DD3CDD92C7501B7
:101EB0000C2DCDCF20E030E0A901C701B6010E9472
:101EC000C03587FFC9C180E054CF20E030E0A901D0
:101ED000C701B6010E94C03587FFB0C180E078CF4E
:101EE00020E030E0A901C701B6010E94C03587FF9C
:101EF000A7C180E0AECE5F988FE99FE00197F1F730
:101F000000C000004ACF5F988FE99FE00197F1F78A
:101F100000C0000013CF5F988FE99FE00197F1F7B1
:101F200000C000007BCE5F988FE99FE00197F1F73A
:101F300000C0000057CD5F988FE99FE00197F1F74F
:101F400000C000004ECFD12CE12CF12C00E08CCD54
:101F50001D5F43CF5F988FE19EE40197F1F700C0CA
:101F60000000A0901802B12C9AE0A91AB108B5019E
:101F7000882777FD8095982F0E9490366B017C0111
:101F800020E030E04FE753E40E94653718160CF468
:101F900053C120E030E0A901C701B6010E94C0355D
:101FA00087FF0A2D009318025F9AD4CC5F988FE1C7
:101FB0009EE40197F1F700C000000091180210E0C4
:101FC000065F1F4FB801882777FD8095982F0E94E4
:101FD00090366B017C0120E030E04FE753E40E9433
:101FE000653718160CF41DC120E030E0A901C701C7
:101FF000B6010E94C03587FFB02EB09218025F9ADA
:10200000B4CC5F988FE19EE40197F1F700C0000027
:102010006091290270912A0280912B0290912C02EA
:102020000E945D3661507109882777FD8095982F51
:102030000E949036962EA72EB82EC92E60912302AC
:1020400070912402882777FD8095982F0E94903602
:10205000D62EE72EF82E092F262F372F482F592F4F
:10206000692D7A2D8B2D9C2D0E94653718161CF03A
:10207000D92C75010C2D60912102709122028827C4
:1020800077FD8095982F0E949036962EA72EB82E19
:10209000C92E262F372F482F592F6D2D7E2D8F2D8E
:1020A000902F0E94C03587FD03C09D2C5701C02E84
:1020B000892D9A2DAB2DBC2D8093290290932A0255
:1020C000A0932B02B0932C025F9A44CC5F988FE1CF
:1020D0009EE40197F1F700C0000060912902709121
:1020E0002A0280912B0290912C020E945D366F5F34
:1020F0007F4F882777FD8095982F0E9490365B014F
:102100006C016091230270912402882777FD8095ED
:10211000982F0E9490367B018C019B01AC01B50188
:10212000C6010E946537181614F07501860160918A
:10213000210270912202882777FD8095982F0E94B6
:1021400090365B016C019B01AC01B701C8010E9494
:10215000C03587FD02C057016801A501B601409353
:10216000290250932A0260932B0270932C025F9AEB
:10217000FCCB5F988FE19EE40197F1F700C000006F
:102180000091170210E0065F1F4FB801882777FD06
:102190008095982F0E9490366B017C0120E030E002
:1021A0004FE753E40E94653718160CF43DC020E059
:1021B00030E0A901C701B6010E94C03587FFB02EEB
:1021C000B09217025F9AD1CB5F988FE19EE401979E
:1021D000F1F700C00000A0901702B12C9AE0A91AF4
:1021E000B108B501882777FD8095982F0E94903619
:1021F0006B017C0120E030E04FE753E40E9465373B
:1022000018166CF020E030E0A901C701B6010E9469
:10221000C03587FF0A2D009317025F9A9BCB0FEF03
:10222000FACFBB24BA94E9CEBB24BA94C9CF0FEF3E
:1022300043CDBB24BA9473CD0FEFB4CE8A2DC8CD55
:102240008A2D07CDE12CF12C00E010E065CCD12CDB
:10225000E12CF12C00E0BBCC8A2D8BCD81E00E94DB
:10226000BE0262E081E00E94380360E081E00E94EB
:10227000380381E00E947E078823D9F362E081E081
:102280000E94380360E081E00E94380381E00E94F0
:10229000FD0281E00E94BE0281E00E947E07882349
:1022A000D9F36FEF81E00E94C1058093B2036FEF15
:1022B00081E00E94C1058093B30381E00E94FD028A
:1022C00081E00E947E078130D9F38091B3038F9320
:1022D0008091B2038F9387E492E09F938F930E9443
:1022E0000F3A81E00E94BE0262E081E00E94380362
:1022F00060E081E00E9438030F900F900F900F90E4
:1023000081E00E947E078823D9F363E081E00E9488
:10231000380360E081E00E94380381E00E94FD0202
:1023200081E00E94BE0281E00E947E078823D9F3EB
:102330006FEF81E00E94C1058093B2036FEF81E0EF
:102340000E94C1058093B30381E00E94FD0281E0F9
:102350000E947E078130D9F38091B3038F938091DF
:10236000B2038F938AE592E09F938F930E940F3A76
:1023700081E00E94BE0262E081E00E94380360E0DA
:1023800081E00E9438030F900F900F900F9081E032
:102390000E947E078823D9F360E081E00E94380321
:1023A00060E081E00E94380381E00E94FD0281E04C
:1023B0000E94BE0281E00E947E078823D9F36FEF5E
:1023C00081E00E94C1058093B2036FEF81E00E941B
:1023D000C1058093B30381E00E94FD0281E00E9469
:1023E0007E078130D9F381E00E94BE0262E081E085
:1023F0000E94380360E081E00E94380381E00E947F
:102400007E078823D9F361E081E00E94380360E011
:1024100081E00E94380381E00E94FD0281E00E9479
:10242000BE0281E00E947E078823D9F36FEF81E02E
:102430000E94C1058093B2036FEF81E00E94C10545
:102440008093B30381E00E94FD0281E00E947E0739
:102450008130D9F38091B3038F938091B2038F932E
:1024600088E692E09F938F930E940F3A0F900F900F
:102470000F900F9008956F927F928F929F92AF92DC
:10248000BF92CF92DF92EF92FF920F931F93CF9361
:10249000DF93CDB7DEB76A970FB6F894DEBF0FBEF5
:1024A000CDBF989AA09A2FEF83ED90E32150804002
:1024B0009040E1F700C00000A098EFEFF3ED20E3BB
:1024C000E150F0402040E1F700C0000081E00E94B0
:1024D000DF0181E00E94BE0281E00E947E07882326
:1024E000D9F36FEF81E00E94C1058093B2036FEFD3
:1024F00081E00E94C1058093B30381E00E94FD0248
:1025000081E00E947E078130D9F38091B2039091DF
:10251000B3038231944309F09AC07FE7C72E72E07B
:10252000D72EEDE86E2EE2E07E2E81E00E94BE0204
:1025300062E081E00E94380360E081E00E9438039D
:1025400081E00E947E078823D9F360E081E00E9449
:10255000380360E081E00E94380381E00E94FD02C0
:1025600081E00E94BE0281E00E947E078823D9F3A9
:102570006FEF81E00E94C1058093B2036FEF81E0AD
:102580000E94C1058093B30381E00E94FD0281E0B7
:102590000E947E078130D9F3E090B203F090B3033C
:1025A00081E00E94BE0262E081E00E94380360E0A8
:1025B00081E00E94380381E00E947E078823D9F3DE
:1025C00061E081E00E94380360E081E00E9438030E
:1025D00081E00E94FD0281E00E94BE0281E00E9433
:1025E0007E078823D9F36FEF81E00E94C1058093B5
:1025F000B2036FEF81E00E94C1058093B30381E0D5
:102600000E94FD0281E00E947E078130D9F3009193
:10261000B2031091B303FF92EF92DF92CF920E9428
:102620000F3A1F930F937F926F920E940F3A0FB64B
:10263000F894DEBF0FBECDBFEF2809F076CF0F377D
:102640001D4109F072CF8BE992E00E94213A80E0AF
:1026500094E09A83898384E690E09C838B8381E075
:102660000E94BE0264E081E00E94380360E081E0E5
:102670000E943803FE0131963F017F0101E010E026
:102680000DC0F701608181E00E943803043011051C
:1026900099F00F5F1F4FFFEFEF1AFF0A013011058E
:1026A00081F781E00E947E078823D9F3F7016081DA
:1026B00081E00E943803EDCF81E00E94FD0281E0BD
:1026C0000E94BE0281E00E947E078823D9F36FEF4B
:1026D00081E00E94C1058093B2036FEF81E00E9408
:1026E000C1058093B30381E00E94FD0281E00E9456
:1026F0007E078130D9F381E00E94BE0262E081E072
:102700000E94380360E081E00E94380381E00E946B
:102710007E078823D9F360E881E00E94380361E0F6
:1027200081E00E94380381E00E94FD0281E00E9466
:10273000BE0281E00E947E078823D9F36FEF81E01B
:102740000E94C1058093B2036FEF81E00E94C10532
:102750008093B30381E00E94FD0281E00E947E0726
:102760008130D9F385E591E09A83898384E090E014
:102770009C838B8381E00E94BE0264E081E00E9422
:10278000380360E081E00E943803730101E010E04B
:102790000DC0F701608181E00E943803043011050B
:1027A00099F00F5F1F4FFFEFEF1AFF0A013011057D
:1027B00081F781E00E947E078823D9F3F7016081C9
:1027C00081E00E943803EDCF81E00E94FD0281E0AC
:1027D0000E94BE0281E00E947E078823D9F36FEF3A
:1027E00081E00E94C1058093B2036FEF81E00E94F7
:1027F000C1058093B30381E00E94FD0281E00E9445
:102800007E078130D9F380E791E09A8389838BEE4C
:1028100093ED9C838B8389EE90E09E838D8381E092
:102820000E94BE0266E081E00E94380360E081E021
:102830000E943803730101E010E00DC0F7016081D0
:1028400081E00E9438030630110599F00F5F1F4F99
:10285000FFEFEF1AFF0A0130110581F781E00E94B6
:102860007E078823D9F3F701608181E00E94380355
:10287000EDCF81E00E94FD0281E00E94BE0281E076
:102880000E947E078823D9F36FEF81E00E94C10583
:102890008093B2036FEF81E00E94C1058093B30380
:1028A00081E00E94FD0281E00E947E078130D9F321
:1028B0008BE1E7EAF2E0D30101900D928A95E1F70E
:1028C000E090CB04F090CC040091CD041091CE04A4
:1028D0007F926F92812C912CA12CB12C54E0C52EAB
:1028E000D12C2EE130E040EF50E06EE070E082EB62
:1028F00093E00E94B73281E1E2ECF2E0D301019073
:102900000D928A95E1F7E090CB04F090CC04009111
:10291000CD041091CE047F926F9263E0C62ED12C2D
:1029200024E630E04AE050E067E070E082EB93E0BC
:102930000E94B73284E1EEE0F3E0D30101900D9202
:102940008A95E1F7E090CB04F090CC040091CD049F
:102950001091CE047F926F9228E730E04AE050E079
:1029600067E070E082EB93E00E94B73284E1E2E23C
:10297000F3E0D30101900D928A95E1F7E090CB044A
:10298000F090CC040091CD041091CE047F926F9210
:102990002CE830E04AE050E067E070E082EB93E042
:1029A0000E94B732E090CB04F090CC040091CD04AB
:1029B0001091CE047F926F9224EB30E04AE050E019
:1029C00067E070E082EB93E00E94B73281E1E3EDD3
:1029D000F2E0D30101900D928A95E1F7E090CB04EB
:1029E000F090CC040091CD041091CE047F926F92B0
:1029F0002CED30E04AE050E068E070E082EB93E0DC
:102A00000E94B73281E00E94BE0262E081E00E9433
:102A1000380360E081E00E9438030FB6F894DEBF0F
:102A20000FBECDBF81E00E947E078823D9F361E805
:102A300081E00E94380361E081E00E94380381E078
:102A40000E94FD0281E00E94BE0281E00E947E079A
:102A50008823D9F36FEF81E00E94C1058093B20310
:102A60006FEF81E00E94C1058093B30381E00E9473
:102A7000FD0281E00E947E078130D9F381E094E07D
:102A80009E8B8D8B82E090E0988F8F8B1A8E198EA3
:102A900081E00E94BE0266E081E00E94380360E0AF
:102AA00081E00E9438037E0195E1E90EF11C01E00E
:102AB00010E00DC0F701608181E00E94380306300C
:102AC000110599F00F5F1F4FEFEFEE1AFE0A01306C
:102AD000110581F781E00E947E078823D9F3F70171
:102AE000608181E00E943803EDCF81E00E94FD0209
:102AF00081E00E94BE0281E00E947E078823D9F314
:102B00006FEF81E00E94C1058093B2036FEF81E017
:102B10000E94C1058093B30381E00E94FD0281E021
:102B20000E947E078130D9F364EE72E082EB93E07D
:102B30000E94DC336A960FB6F894DEBF0FBECDBF9D
:102B4000DF91CF911F910F91FF90EF90DF90CF9089
:102B5000BF90AF909F908F907F906F9008950F934C
:102B60001F93CF93DF93989AA09A07E011E0F801A2
:102B700080818E7F8083C8E0D1E088818E7F8883CA
:102B80008FEE94E00E94A1088AEE94E00E943C0837
:102B900086EE94E00E9411088DED94E00E94770883
:102BA0008FEC94E00E94762AF80180818460808313
:102BB00088818B7F88838081806180838881806128
:102BC00088830E9A16980C9A14980A9A1298A4E080
:102BD000B1E08C9180628C93E5E0F1E080818F7DA3
:102BE00080838C9180688C9380818F778083F801BB
:102BF00080818064808388818F7B8883089A109885
:102C0000A1E0B1E08C9180648C93E2E0F1E08081FE
:102C10008F7B80838C9180688C9380818F77808379
:102C20008C918F7E8C9380818F7E80838C918F7D21
:102C30008C9380818F7D8083999AA1989B9AA39889
:102C4000579A5F9A60E070E88FEE94E00E947E08E9
:102C500060E070E08AEE94E00E94180840E050E0E6
:102C6000BA0186EE94E00E94EB070E943B12DF91CE
:102C7000CF911F910F910C94D30B2F923F924F92B3
:102C80005F926F927F928F929F92AF92BF92CF92FC
:102C9000DF92EF92FF920F931F93CF93DF93CDB705
:102CA000DEB7CA54D1090FB6F894DEBF0FBECDBF50
:102CB00081E00E94BE0262E081E00E94380360E091
:102CC00081E00E94380381E00E947E078823D9F3C7
:102CD00060E881E00E94380361E081E00E943803EF
:102CE00081E00E94FD0281E00E94BE0281E00E941C
:102CF0007E078823D9F36FEF81E00E94C10580939E
:102D0000B2036FEF81E00E94C1058093B30381E0BD
:102D10000E94FD0281E00E947E078130D9F385E2A6
:102D200091E09A83898388E090E09C838B8381E0A3
:102D30000E94BE0264E081E00E94380360E081E00E
:102D40000E943803CE0101961C017C0101E010E0D5
:102D50000DC0D7016C9181E00E9438030430110549
:102D600099F00F5F1F4F9FEFE91AF90A0130110523
:102D700081F781E00E947E078823D9F3F701608103
:102D800081E00E943803EDCF81E00E94FD0281E0E6
:102D90000E94BE0281E00E947E078823D9F36FEF74
:102DA00081E00E94C1058093B2036FEF81E00E9431
:102DB000C1058093B30381E00E94FD0281E00E947F
:102DC0007E078130D9F385E591E09A83898384E099
:102DD00090E09C838B8381E00E94BE0264E081E0EE
:102DE0000E94380360E081E00E943803710101E035
:102DF00010E00DC0F701608181E00E9438030430CB
:102E0000110599F00F5F1F4FBFEFEB1AFB0A01305E
:102E1000110581F781E00E947E078823D9F3D7014D
:102E20006C9181E00E943803EDCF81E00E94FD02A9
:102E300081E00E94BE0281E00E947E078823D9F3D0
:102E40006FEF81E00E94C1058093B2036FEF81E0D4
:102E50000E94C1058093B30381E00E94FD0281E0DE
:102E60000E947E078130D9F3809110029091110267
:102E7000A0911202B091130224E231E03A83298337
:102E80009C838B83BE83AD8381E00E94BE0266E09B
:102E900081E00E94380360E081E00E943803710104
:102EA00001E010E00DC0D7016C9181E00E94380371
:102EB0000630110599F00F5F1F4FFFEFEF1AFF0A61
:102EC0000130110581F781E00E947E078823D9F344
:102ED000F701608181E00E943803EDCF81E00E941C
:102EE000FD0281E00E94BE0281E00E947E078823ED
:102EF000D9F36FEF81E00E94C1058093B2036FEFB9
:102F000081E00E94C1058093B30381E00E94FD022D
:102F100081E00E947E078130D9F380E093E09A83BC
:102F2000898381E090E09C838B830E94BE0264E0F1
:102F300081E00E94380360E081E00E943803710163
:102F400001E010E00DC0F701608181E00E943803CC
:102F50000430110599F00F5F1F4FBFEFEB1AFB0A0A
:102F60000130110581F781E00E947E078823D9F3A3
:102F7000D7016C9181E00E943803EDCF81E00E947F
:102F8000FD0281E00E94BE0281E00E947E0788234C
:102F9000D9F36FEF81E00E94C1058093B2036FEF18
:102FA00081E00E94C1058093B30381E00E94FD028D
:102FB00081E00E947E078130D9F38091BE0488238E
:102FC00011F40C94472847E85FED69E870E082EB64
:102FD00093E00E946A3380E591E09A83898380EBD5
:102FE00094E09C838B8388E691E09E838D8380E6CA
:102FF00099E098878F8380ED92E09A87898781E0B6
:103000000E94BE026AE081E00E94380360E081E035
:103010000E943803710101E010E00DC0D7016C91EE
:1030200081E00E9438030A30110599F00F5F1F4FAD
:10303000FFEFEF1AFF0A0130110581F781E00E94CE
:103040007E078823D9F3F701608181E00E9438036D
:10305000EDCF81E00E94FD0281E00E94BE0281E08E
:103060000E947E078823D9F36FEF81E00E94C1059B
:103070008093B2036FEF81E00E94C1058093B30398
:1030800081E00E94FD0281E00E947E078130D9F339
:1030900080912C028F9380912B028F9380912A0232
:1030A0008F93809129028F9386E393E09F938F9370
:1030B0003F922F920E944E3AE090CB04F090CC04C5
:1030C0000091CD041091CE043F922F92812C912C2F
:1030D000A12CB12CF4E0CF2ED12C2DE230E046E92A
:1030E00050E060E170E082EB93E00E94B73280E252
:1030F00091E09CAB8BAB80E699E09EAB8DAB18AEBC
:103100001FAA9AAF89AF80ED92E09CAF8BAF81E0B0
:103110000E94BE026AE081E00E94380360E081E024
:103120000E943803FE01F3967F010FB6F894DEBFCC
:103130000FBECDBF01E010E00DC0D7016C9181E062
:103140000E9438030A30110599F00F5F1F4F9FEF5F
:10315000E91AF90A0130110581F781E00E947E0722
:103160008823D9F3D7016C9181E00E943803EDCF19
:1031700081E00E94FD0281E00E94BE0281E00E9487
:103180007E078823D9F36FEF81E00E94C105809309
:10319000B2036FEF81E00E94C1058093B30381E029
:1031A0000E94FD0281E00E947E078130D9F380E019
:1031B00093E09CAB8BAB82E090E09EAB8DAB81E06B
:1031C0000E94BE0264E081E00E94380360E081E07A
:1031D0000E943803FE01F3967F0101E010E00DC06C
:1031E000D7016C9181E00E9438030430110599F0F9
:1031F0000F5F1F4FFFEFEF1AFF0A0130110581F734
:1032000081E00E947E078823D9F3F701608181E085
:103210000E943803EDCF81E00E94FD0281E00E9410
:10322000BE0281E00E947E078823D9F36FEF81E020
:103230000E94C1058093B2036FEF81E00E94C10537
:103240008093B30381E00E94FD0281E00E947E072B
:103250008130D9F34FEF5FEF6FEF70E082EB93E0D7
:103260000E946A3380E591E09CAB8BAB88EC9AE0DE
:103270009EAB8DAB88E691E098AF8FAB80ED92E08E
:103280009AAF89AF9CAF8BAF81E00E94BE026AE02B
:1032900081E00E94380360E081E00E943803FE0173
:1032A000F3967F0101E010E00DC0D7016C9181E041
:1032B0000E9438030A30110599F00F5F1F4FFFEF8E
:1032C000EF1AFF0A0130110581F781E00E947E07A5
:1032D0008823D9F3D7016C9181E00E943803EDCFA8
:1032E00081E00E94FD0281E00E94BE0281E00E9416
:1032F0007E078823D9F36FEF81E00E94C105809398
:10330000B2036FEF81E00E94C1058093B30381E0B7
:103310000E94FD0281E00E947E078130D9F3E09097
:10332000CB04F090CC040091CD041091CE048FE337
:1033300093E09F938F93812C912CA12CB12CE4E0EE
:10334000CE2ED12C29E130E049E551E06EE070E06D
:1033500082EB93E00E94B732809122028F9380919A
:1033600021028F9383E493E09F938F933F922F9258
:103370000E944E3AE090CB04F090CC040091CD0432
:103380001091CE043F922F9221E430E049E551E0C4
:103390006EE070E082EB93E00E94B73280E291E051
:1033A0009CAB8BAB80E39CE09EAB8DAB18AE1FAAB1
:1033B0009AAF89AF80ED92E09CAF8BAF81E00E9425
:1033C000BE026AE081E00E94380360E081E00E9472
:1033D0003803FE01F3967F010FB6F894DEBF0FBEEF
:1033E000CDBF01E010E00DC0D7016C9181E00E94DB
:1033F00038030A30110599F00F5F1F4F9FEFE91A4C
:10340000F90A0130110581F781E00E947E078823C7
:10341000D9F3F701608181E00E943803EDCF81E0AC
:103420000E94FD0281E00E94BE0281E00E947E07B0
:103430008823D9F36FEF81E00E94C1058093B20326
:103440006FEF81E00E94C1058093B30381E00E9489
:10345000FD0281E00E947E078130D9F380E093E095
:103460009CAB8BAB83E090E09EAB8DAB81E00E9488
:10347000BE0264E081E00E94380360E081E00E94C7
:103480003803FE01F3967F0101E010E00DC0D70183
:103490006C9181E00E9438030430110599F00F5FB0
:1034A0001F4FFFEFEF1AFF0A0130110581F781E08E
:1034B0000E947E078823D9F3D7016C9181E00E9496
:1034C0003803EDCF81E00E94FD0281E00E94BE0240
:1034D00081E00E947E078823D9F36FEF81E00E948C
:1034E000C1058093B2036FEF81E00E94C105809314
:1034F000B30381E00E94FD0281E00E947E078130DB
:10350000D9F34FEF5FEF6FEF70E082EB93E00E9433
:103510006A3380E591E09CAB8BAB88E99DE09EAB84
:103520008DAB88E691E098AF8FAB80ED92E09AAFDB
:1035300089AF9CAF8BAF81E00E94BE026AE081E060
:103540000E94380360E081E00E943803FE01F39698
:103550007F0101E010E00DC0D7016C9181E00E9475
:1035600038030A30110599F00F5F1F4FFFEFEF1A74
:10357000FF0A0130110581F781E00E947E07882350
:10358000D9F3F701608181E00E943803EDCF81E03B
:103590000E94FD0281E00E94BE0281E00E947E073F
:1035A0008823D9F36FEF81E00E94C1058093B203B5
:1035B0006FEF81E00E94C1058093B30381E00E9418
:1035C000FD0281E00E947E078130D9F3E090CB04B8
:1035D000F090CC040091CD041091CE0488E493E0E7
:1035E0009F938F93812C912CA12CB12C74E0C72E2A
:1035F000D12C29E130E043EB51E06EE070E082EB4A
:1036000093E00E94B732809124028F93809123022D
:103610008F9383E493E09F938F933F922F920E9426
:103620004E3AE090CB04F090CC040091CD04109180
:10363000CE043F922F9221E430E043EB51E06EE064
:1036400070E082EB93E00E94B73280E291E09CABA5
:103650008BAB1EAA1DAA80ED92E098AF8FAB20E045
:103660003FE03AAF29AF9CAF8BAF81E00E94BE0232
:103670006AE081E00E94380360E081E00E94380344
:10368000FE01F3967F010FB6F894DEBF0FBECDBFEB
:1036900001E010E00DC0D7016C9181E00E94380379
:1036A0000A30110599F00F5F1F4F9FEFE91AF90AD1
:1036B0000130110581F781E00E947E078823D9F34C
:1036C000D7016C9181E00E943803EDCF81E00E9428
:1036D000FD0281E00E94BE0281E00E947E078823F5
:1036E000D9F36FEF81E00E94C1058093B2036FEFC1
:1036F00081E00E94C1058093B30381E00E94FD0236
:1037000081E00E947E078130D9F380E093E09CAB9A
:103710008BAB84E090E09EAB8DAB81E00E94BE025B
:1037200064E081E00E94380360E081E00E94380399
:10373000FE01F3967F0101E010E00DC0D7016C910E
:1037400081E00E9438030430110599F00F5F1F4F8C
:10375000FFEFEF1AFF0A0130110581F781E00E94A7
:103760007E078823D9F3F701608181E00E94380346
:10377000EDCF81E00E94FD0281E00E94BE0281E067
:103780000E947E078823D9F36FEF81E00E94C10574
:103790008093B2036FEF81E00E94C1058093B30371
:1037A00081E00E94FD0281E00E947E078130D9F312
:1037B00082E591E09CAB8BAB8FEF9FEF9EAB8DAB27
:1037C0008FEF90E098AF8FAB81E00E94BE0266E081
:1037D00081E00E94380360E081E00E943803FE012E
:1037E000F3967F0101E010E00DC0D7016C9181E0FC
:1037F0000E9438030630110599F00F5F1F4FFFEF4D
:10380000EF1AFF0A0130110581F781E00E947E075F
:103810008823D9F3D7016C9181E00E943803EDCF62
:1038200081E00E94FD0281E00E94BE0281E00E94D0
:103830007E078823D9F36FEF81E00E94C105809352
:10384000B2036FEF81E00E94C1058093B30381E072
:103850000E94FD0281E00E947E078130D9F380E55D
:1038600091E09CAB8BAB80E991E09EAB8DAB88EE99
:1038700093E098AF8FAB80E293E09AAF89AF80E39B
:1038800092E09CAF8BAF81E00E94BE026AE081E0D3
:103890000E94380360E081E00E943803FE01F39645
:1038A0007F0101E010E00DC0D7016C9181E00E9422
:1038B00038030A30110599F00F5F1F4FFFEFEF1A21
:1038C000FF0A0130110581F781E00E947E078823FD
:1038D000D9F3F701608181E00E943803EDCF81E0E8
:1038E0000E94FD0281E00E94BE0281E00E947E07EC
:1038F0008823D9F36FEF81E00E94C1058093B20362
:103900006FEF81E00E94C1058093B30381E00E94C4
:10391000FD0281E00E947E078130D9F3E090CB0464
:10392000F090CC040091CD041091CE048CE493E08F
:103930009F938F93812C912CA12CB12C64E0C62EE7
:10394000D12C2DE730E042E350E06CE070E082EBF8
:1039500093E00E94B73280E291E09CAB8BAB80E2B7
:1039600093E09EAB8DAB20ED32E038AF2FAB9AAF3A
:1039700089AF80E095E09CAF8BAF81E00E94BE02F2
:103980006AE081E00E94380360E081E00E94380331
:10399000FE01F3967F010F900F9001E010E00DC043
:1039A000D7016C9181E00E9438030A30110599F02B
:1039B0000F5F1F4FFFEFEF1AFF0A0130110581F76C
:1039C00081E00E947E078823D9F3D7016C9181E0C2
:1039D0000E943803EDCF81E00E94FD0281E00E9449
:1039E000BE0281E00E947E078823D9F36FEF81E059
:1039F0000E94C1058093B2036FEF81E00E94C10570
:103A00008093B30381E00E94FD0281E00E947E0763
:103A10008130D9F380E093E09CAB8BAB85E090E004
:103A20009EAB8DAB81E00E94BE0264E081E00E940B
:103A3000380360E081E00E943803FE01F3967F01C5
:103A400001E010E00DC0D7016C9181E00E943803C5
:103A50000430110599F00F5F1F4FFFEFEF1AFF0AB7
:103A60000130110581F781E00E947E078823D9F398
:103A7000F701608181E00E943803EDCF81E00E9470
:103A8000FD0281E00E94BE0281E00E947E07882341
:103A9000D9F36FEF81E00E94C1058093B2036FEF0D
:103AA00081E00E94C1058093B30381E00E94FD0282
:103AB00081E00E947E078130D9F34DEC5AEF6FEF21
:103AC00070E082EB93E00E946A3380E591E09CAB6A
:103AD0008BAB80E496E09EAB8DAB28EE33E038AF45
:103AE0002FAB9AAF89AF80E392E09CAF8BAF81E0C0
:103AF0000E94BE026AE081E00E94380360E081E03B
:103B00000E943803FE01F3967F0101E010E00DC032
:103B1000D7016C9181E00E9438030A30110599F0B9
:103B20000F5F1F4FFFEFEF1AFF0A0130110581F7FA
:103B300081E00E947E078823D9F3D7016C9181E050
:103B40000E943803EDCF81E00E94FD0281E00E94D7
:103B5000BE0281E00E947E078823D9F36FEF81E0E7
:103B60000E94C1058093B2036FEF81E00E94C105FE
:103B70008093B30381E00E94FD0281E00E947E07F2
:103B80008130D9F38091E1048F938091E0048F9389
:103B90008091DF048F938091DE048F9383E593E01F
:103BA0009F938F933F922F920E944E3AE090CB04C6
:103BB000F090CC040091CD041091CE043F922F924E
:103BC000812C912CA12CB12C55E0C52ED12C2DE7A8
:103BD00030E048E151E06EE070E082EB93E00E945B
:103BE000B7328091CB049091CC04A091CD04B091D8
:103BF000CE0421E431E03CAB2BAB28E038E03EAB17
:103C00002DAB20E733E038AF2FAB28E130E03AAFFF
:103C100029AF20E230E03CAF2BAF9EAF8DAF2196B5
:103C2000BFAFAEAF219784E090E023969FAF8EAFF9
:103C3000239725961FAE1EAE259727961FAE1EAE64
:103C4000279781E00E94BE0264E181E00E94380370
:103C500060E081E00E943803FE01F3967F010FB619
:103C6000F894DEBF0FBECDBF01E010E00DC0D7015C
:103C70006C9181E00E9438030431110599F00F5FC7
:103C80001F4F9FEFE91AF90A0130110581F781E012
:103C90000E947E078823D9F3F701608181E00E94AA
:103CA0003803EDCF81E00E94FD0281E00E94BE0258
:103CB00081E00E947E078823D9F36FEF81E00E94A4
:103CC000C1058093B2036FEF81E00E94C10580932C
:103CD000B30381E00E94FD0281E00E947E078130F3
:103CE000D9F380E291E09CAB8BAB80E699E09EAB90
:103CF0008DAB20ED32E038AF2FAB9AAF89AF80E0CB
:103D000095E09CAF8BAF81E00E94BE026AE081E04B
:103D10000E94380360E081E00E943803FE01F396C0
:103D20007F0101E010E00DC0D7016C9181E00E949D
:103D300038030A30110599F00F5F1F4FFFEFEF1A9C
:103D4000FF0A0130110581F781E00E947E07882378
:103D5000D9F3D7016C9181E00E943803EDCF81E067
:103D60000E94FD0281E00E94BE0281E00E947E0767
:103D70008823D9F36FEF81E00E94C1058093B203DD
:103D80006FEF81E00E94C1058093B30381E00E9440
:103D9000FD0281E00E947E078130D9F380E093E04C
:103DA0009CAB8BAB86E090E09EAB8DAB81E00E943C
:103DB000BE0264E081E00E94380360E081E00E947E
:103DC0003803FE01F3967F0101E010E00DC0D7013A
:103DD0006C9181E00E9438030430110599F00F5F67
:103DE0001F4FFFEFEF1AFF0A0130110581F781E045
:103DF0000E947E078823D9F3F701608181E00E9449
:103E00003803EDCF81E00E94FD0281E00E94BE02F6
:103E100081E00E947E078823D9F36FEF81E00E9442
:103E2000C1058093B2036FEF81E00E94C1058093CA
:103E3000B30381E00E94FD0281E00E947E07813091
:103E4000D9F38091C304882311F40C94412847E8E6
:103E50005FED69E870E082EB93E00E946A3380E5F1
:103E600091E09CAB8BAB80E39CE09EAB8DAB88EE8E
:103E700093E098AF8FAB80EA95E09AAF89AF80E38B
:103E800092E09CAF8BAF81E00E94BE026AE081E0CD
:103E90000E94380360E081E00E943803FE01F3963F
:103EA0007F0101E010E00DC0D7016C9181E00E941C
:103EB00038030A30110599F00F5F1F4FFFEFEF1A1B
:103EC000FF0A0130110581F781E00E947E078823F7
:103ED000D9F3D7016C9181E00E943803EDCF81E0E6
:103EE0000E94FD0281E00E94BE0281E00E947E07E6
:103EF0008823D9F36FEF81E00E94C1058093B2035C
:103F00006FEF81E00E94C1058093B30381E00E94BE
:103F1000FD0281E00E947E078130D9F380911E026C
:103F20008F9380911D028F9380911C028F938091BB
:103F30001B028F938CE593E09F938F933F922F9278
:103F40000E944E3AE090CB04F090CC040091CD0456
:103F50001091CE043F922F92812C912CA12CB12C48
:103F600044E0C42ED12C2DE730E046E851E06FE06C
:103F700070E082EB93E00E94B73280E291E09CAB6C
:103F80008BAB1EAA1DAA80E095E098AF8FAB20E016
:103F90003FE03AAF29AF9CAF8BAF81E00E94BE02F9
:103FA0006AE081E00E94380360E081E00E9438030B
:103FB000FE01F3967F010FB6F894DEBF0FBECDBFB2
:103FC00001E010E00DC0D7016C9181E00E94380340
:103FD0000A30110599F00F5F1F4F9FEFE91AF90A98
:103FE0000130110581F781E00E947E078823D9F313
:103FF000F701608181E00E943803EDCF81E00E94EB
:10400000FD0281E00E94BE0281E00E947E078823BB
:10401000D9F36FEF81E00E94C1058093B2036FEF87
:1040200081E00E94C1058093B30381E00E94FD02FC
:1040300081E00E947E078130D9F380E093E09CAB61
:104040008BAB87E090E09EAB8DAB81E00E94BE021F
:1040500064E081E00E94380360E081E00E94380360
:10406000FE01F3967F0101E010E00DC0D7016C91D5
:1040700081E00E9438030430110599F00F5F1F4F53
:10408000FFEFEF1AFF0A0130110581F781E00E946E
:104090007E078823D9F3D7016C9181E00E94380311
:1040A000EDCF81E00E94FD0281E00E94BE0281E02E
:1040B0000E947E078823D9F36FEF81E00E94C1053B
:1040C0008093B2036FEF81E00E94C1058093B30338
:1040D00081E00E94FD0281E00E947E078130D9F3D9
:1040E0008091C404882309F4C7C747E85FED69E8F5
:1040F00070E082EB93E00E946A3380E591E09CAB34
:104100008BAB80E991E09EAB8DAB88E196E098AFF8
:104110008FAB80E293E09AAF89AF80E392E09CAFEF
:104120008BAF81E00E94BE026AE081E00E9438030A
:1041300060E081E00E943803FE01F3967F0101E018
:1041400010E00DC0D7016C9181E00E9438030A3065
:10415000110599F00F5F1F4FFFEFEF1AFF0A0130B3
:10416000110581F781E00E947E078823D9F3F701CA
:10417000608181E00E943803EDCF81E00E94FD0262
:1041800081E00E94BE0281E00E947E078823D9F36D
:104190006FEF81E00E94C1058093B2036FEF81E071
:1041A0000E94C1058093B30381E00E94FD0281E07B
:1041B0000E947E078130D9F3E090CB04F090CC04CC
:1041C0000091CD041091CE0484E693E09F938F93E9
:1041D000812C912CA12CB12CC12CD12C25EA30E0C2
:1041E00045E050E06DE070E082EB93E00E94B73272
:1041F000809118021F928F9386E693E09F938F938E
:104200003F922F920E944E3AE090CB04F090CC0463
:104210000091CD041091CE043F922F9234E0C32E32
:10422000D12C29EC30E046E350E06FE070E082EB07
:1042300093E00E94B73280E291E09CAB8BAB80E2CE
:1042400093E09EAB8DAB20E035E038AF2FAB9AAF5B
:1042500089AF80E397E09CAF8BAF81E00E94BE0204
:104260006AE081E00E94380360E081E00E94380348
:10427000FE01F3967F010FB6F894DEBF0FBECDBFEF
:1042800001E010E00DC0D7016C9181E00E9438037D
:104290000A30110599F00F5F1F4F9FEFE91AF90AD5
:1042A0000130110581F781E00E947E078823D9F350
:1042B000D7016C9181E00E943803EDCF81E00E942C
:1042C000FD0281E00E94BE0281E00E947E078823F9
:1042D000D9F36FEF81E00E94C1058093B2036FEFC5
:1042E00081E00E94C1058093B30381E00E94FD023A
:1042F00081E00E947E078130D9F380E093E09CAB9F
:104300008BAB88E090E09EAB8DAB81E00E94BE025B
:1043100064E081E00E94380360E081E00E9438039D
:10432000FE01F3967F0101E010E00DC0D7016C9112
:1043300081E00E9438030430110599F00F5F1F4F90
:10434000FFEFEF1AFF0A0130110581F781E00E94AB
:104350007E078823D9F3F701608181E00E9438034A
:10436000EDCF81E00E94FD0281E00E94BE0281E06B
:104370000E947E078823D9F36FEF81E00E94C10578
:104380008093B2036FEF81E00E94C1058093B30375
:1043900081E00E94FD0281E00E947E078130D9F316
:1043A0008091C504882309F462C647E85FED69E897
:1043B00070E082EB93E00E946A3380E591E09CAB71
:1043C0008BAB80EB94E09EAB8DAB88E196E098AF31
:1043D0008FAB80E293E09AAF89AF80E392E09CAF2D
:1043E0008BAF81E00E94BE026AE081E00E94380348
:1043F00060E081E00E943803FE01F3967F0101E056
:1044000010E00DC0D7016C9181E00E9438030A30A2
:10441000110599F00F5F1F4FFFEFEF1AFF0A0130F0
:10442000110581F781E00E947E078823D9F3D70127
:104430006C9181E00E943803EDCF81E00E94FD0283
:1044400081E00E94BE0281E00E947E078823D9F3AA
:104450006FEF81E00E94C1058093B2036FEF81E0AE
:104460000E94C1058093B30381E00E94FD0281E0B8
:104470000E947E078130D9F3E090CB04F090CC0409
:104480000091CD041091CE0489E693E09F938F9321
:10449000812C912CA12CB12CC12CD12C26EA30E0FE
:1044A00049E650E06DE070E082EB93E00E94B732A5
:1044B000809117021F928F9386E693E09F938F93CC
:1044C0003F922F920E944E3AE090CB04F090CC04A1
:1044D0000091CD041091CE043F922F9224E0C22E81
:1044E000D12C28EC30E04AE950E06FE070E082EB3C
:1044F00093E00E94B73280E291E09CAB8BAB80E40A
:1045000096E09EAB8DAB20E035E038AF2FAB9AAF95
:1045100089AF80E397E09CAF8BAF81E00E94BE0241
:104520006AE081E00E94380360E081E00E94380385
:10453000FE01F3967F010FB6F894DEBF0FBECDBF2C
:1045400001E010E00DC0D7016C9181E00E943803BA
:104550000A30110599F00F5F1F4F9FEFE91AF90A12
:104560000130110581F781E00E947E078823D9F38D
:10457000F701608181E00E943803EDCF81E00E9465
:10458000FD0281E00E94BE0281E00E947E07882336
:10459000D9F36FEF81E00E94C1058093B2036FEF02
:1045A00081E00E94C1058093B30381E00E94FD0277
:1045B00081E00E947E078130D9F380E093E09CABDC
:1045C0008BAB89E090E09EAB8DAB81E00E94BE0298
:1045D00064E081E00E94380360E081E00E943803DB
:1045E000FE01F3967F0101E010E00DC0D7016C9150
:1045F00081E00E9438030430110599F00F5F1F4FCE
:10460000FFEFEF1AFF0A0130110581F781E00E94E8
:104610007E078823D9F3D7016C9181E00E9438038B
:10462000EDCF81E00E94FD0281E00E94BE0281E0A8
:104630000E947E078823D9F36FEF81E00E94C105B5
:104640008093B2036FEF81E00E94C1058093B303B2
:1046500081E00E94FD0281E00E947E078130D9F353
:104660008091C604882309F4FDC447E85FED69E83A
:1046700070E082EB93E00E946A3380E591E09CABAE
:104680008BAB80ED97E09EAB8DAB88E196E098AF69
:104690008FAB80E293E09AAF89AF80E392E09CAF6A
:1046A0008BAF81E00E94BE026AE081E00E94380385
:1046B00060E081E00E943803FE01F3967F0101E093
:1046C00010E00DC0D7016C9181E00E9438030A30E0
:1046D000110599F00F5F1F4FFFEFEF1AFF0A01302E
:1046E000110581F781E00E947E078823D9F3F70145
:1046F000608181E00E943803EDCF81E00E94FD02DD
:1047000081E00E94BE0281E00E947E078823D9F3E7
:104710006FEF81E00E94C1058093B2036FEF81E0EB
:104720000E94C1058093B30381E00E94FD0281E0F5
:104730000E947E078130D9F3E090CB04F090CC0446
:104740000091CD041091CE048BE693E09F938F935C
:10475000812C912CA12CB12CC12CD12C26EA30E03B
:104760004DEC50E06DE070E082EB93E00E94B732D8
:10477000809116021F928F9386E693E09F938F930A
:104780003F922F920E944E3AE090CB04F090CC04DE
:104790000091CD041091CE043F922F9294E0C92E47
:1047A000D12C28EC30E04EEF50E06FE070E082EB6F
:1047B00093E00E94B73280E291E09CAB8BAB80E645
:1047C00099E09EAB8DAB20E035E038AF2FAB9AAFD0
:1047D00089AF80E397E09CAF8BAF81E00E94BE027F
:1047E0006AE081E00E94380360E081E00E943803C3
:1047F000FE01F3967F010FB6F894DEBF0FBECDBF6A
:1048000001E010E00DC0D7016C9181E00E943803F7
:104810000A30110599F00F5F1F4F9FEFE91AF90A4F
:104820000130110581F781E00E947E078823D9F3CA
:10483000D7016C9181E00E943803EDCF81E00E94A6
:10484000FD0281E00E94BE0281E00E947E07882373
:10485000D9F36FEF81E00E94C1058093B2036FEF3F
:1048600081E00E94C1058093B30381E00E94FD02B4
:1048700081E00E947E078130D9F380E093E09CAB19
:104880008BAB8AE090E09EAB8DAB81E00E94BE02D4
:1048900064E081E00E94380360E081E00E94380318
:1048A000FE01F3967F0101E010E00DC0D7016C918D
:1048B00081E00E9438030430110599F00F5F1F4F0B
:1048C000FFEFEF1AFF0A0130110581F781E00E9426
:1048D0007E078823D9F3F701608181E00E943803C5
:1048E000EDCF81E00E94FD0281E00E94BE0281E0E6
:1048F0000E947E078823D9F36FEF81E00E94C105F3
:104900008093B2036FEF81E00E94C1058093B303EF
:1049100081E00E94FD0281E00E947E078130D9F390
:104920008091C704882309F498C347E85FED69E8DC
:1049300070E082EB93E00E946A3380E591E09CABEB
:104940008BAB88EC9AE09EAB8DAB88E196E098AF9C
:104950008FAB80ED92E09AAF89AF80E392E09CAF9D
:104960008BAF81E00E94BE026AE081E00E943803C2
:1049700060E081E00E943803FE01F3967F0101E0D0
:1049800010E00DC0D7016C9181E00E9438030A301D
:10499000110599F00F5F1F4FFFEFEF1AFF0A01306B
:1049A000110581F781E00E947E078823D9F3D701A2
:1049B0006C9181E00E943803EDCF81E00E94FD02FE
:1049C00081E00E94BE0281E00E947E078823D9F325
:1049D0006FEF81E00E94C1058093B2036FEF81E029
:1049E0000E94C1058093B30381E00E94FD0281E033
:1049F0000E947E078130D9F38091B4048F93809117
:104A0000B3048F9386E693E09F938F933F922F9208
:104A10000E944E3AE090CB04F090CC040091CD047B
:104A20001091CE043F922F92812C912CA12CB12C6D
:104A300084E0C82ED12C23EC30E049E551E06DE054
:104A400070E082EB93E00E94B73280E291E09CAB91
:104A50008BAB80E39CE09EAB8DAB20E035E038AFC4
:104A60002FAB9AAF89AF80E397E09CAF8BAF81E02B
:104A70000E94BE026AE081E00E94380360E081E0AB
:104A80000E943803FE01F3967F010FB6F894DEBF53
:104A90000FBECDBF01E010E00DC0D7016C9181E0E9
:104AA0000E9438030A30110599F00F5F1F4F9FEFE6
:104AB000E91AF90A0130110581F781E00E947E07A9
:104AC0008823D9F3F701608181E00E943803EDCF9C
:104AD00081E00E94FD0281E00E94BE0281E00E940E
:104AE0007E078823D9F36FEF81E00E94C105809390
:104AF000B2036FEF81E00E94C1058093B30381E0B0
:104B00000E94FD0281E00E947E078130D9F380E09F
:104B100093E09CAB8BAB8BE090E09EAB8DAB81E0E8
:104B20000E94BE0264E081E00E94380360E081E000
:104B30000E943803FE01F3967F0101E010E00DC0F2
:104B4000D7016C9181E00E9438030430110599F07F
:104B50000F5F1F4FFFEFEF1AFF0A0130110581F7BA
:104B600081E00E947E078823D9F3D7016C9181E010
:104B70000E943803EDCF81E00E94FD0281E00E9497
:104B8000BE0281E00E947E078823D9F36FEF81E0A7
:104B90000E94C1058093B2036FEF81E00E94C105BE
:104BA0008093B30381E00E94FD0281E00E947E07B2
:104BB0008130D9F34FEF5FEF6FEF70E082EB93E05E
:104BC0000E946A3380E591E09CAB8BAB88E99DE065
:104BD0009EAB8DAB88E196E098AF8FAB80ED92E015
:104BE0009AAF89AF80E392E09CAF8BAF81E00E94E7
:104BF000BE026AE081E00E94380360E081E00E942A
:104C00003803FE01F3967F0101E010E00DC0D701EB
:104C10006C9181E00E9438030A30110599F00F5F12
:104C20001F4FFFEFEF1AFF0A0130110581F781E0F6
:104C30000E947E078823D9F3F701608181E00E94FA
:104C40003803EDCF81E00E94FD0281E00E94BE02A8
:104C500081E00E947E078823D9F36FEF81E00E94F4
:104C6000C1058093B2036FEF81E00E94C10580937C
:104C7000B30381E00E94FD0281E00E947E07813043
:104C8000D9F380E291E09CAB8BAB1EAA1DAA80E316
:104C900097E098AF8FAB20E03FE03AAF29AF9CAFF1
:104CA0008BAF81E00E94BE026AE081E00E9438037F
:104CB00060E081E00E943803FE01F3967F0101E08D
:104CC00010E00DC0D7016C9181E00E9438030A30DA
:104CD000110599F00F5F1F4FFFEFEF1AFF0A013028
:104CE000110581F781E00E947E078823D9F3D7015F
:104CF0006C9181E00E943803EDCF81E00E94FD02BB
:104D000081E00E94BE0281E00E947E078823D9F3E1
:104D10006FEF81E00E94C1058093B2036FEF81E0E5
:104D20000E94C1058093B30381E00E94FD0281E0EF
:104D30000E947E078130D9F380E093E09CAB8BAB7F
:104D40008CE090E09EAB8DAB81E00E94BE0264E0FF
:104D500081E00E94380360E081E00E943803FE0198
:104D6000F3967F0101E010E00DC0D7016C9181E066
:104D70000E9438030430110599F00F5F1F4FFFEFB9
:104D8000EF1AFF0A0130110581F781E00E947E07CA
:104D90008823D9F3F701608181E00E943803EDCFC9
:104DA00081E00E94FD0281E00E94BE0281E00E943B
:104DB0007E078823D9F36FEF81E00E94C1058093BD
:104DC000B2036FEF81E00E94C1058093B30381E0DD
:104DD0000E94FD0281E00E947E078130D9F380911C
:104DE000F204882309F434C189E890E027E83FED14
:104DF00042E551E05CAB4BAB3EAB2DAB98AF8FAB1C
:104E000081E00E94BE0266E081E00E94380360E01B
:104E100081E00E943803FE01F3967F0101E010E07B
:104E20000DC0D7016C9181E00E9438030630110556
:104E300099F00F5F1F4FFFEFEF1AFF0A01301105C6
:104E400081F781E00E947E078823D9F3D7016C9116
:104E500081E00E943803EDCF81E00E94FD0281E0F5
:104E60000E94BE0281E00E947E078823D9F36FEF83
:104E700081E00E94C1058093B2036FEF81E00E9440
:104E8000C1058093B30381E00E94FD0281E00E948E
:104E90007E078130D9F380E591E09CAB8BAB80E855
:104EA00097E09EAB8DAB88E998E098AF8FAB80E040
:104EB0009FE09AAF89AF80ED92E09CAF8BAF81E02D
:104EC0000E94BE026AE081E00E94380360E081E057
:104ED0000E943803FE01F3967F0101E010E00DC04F
:104EE000D7016C9181E00E9438030A30110599F0D6
:104EF0000F5F1F4FFFEFEF1AFF0A0130110581F717
:104F000081E00E947E078823D9F3F701608181E068
:104F10000E943803EDCF81E00E94FD0281E00E94F3
:104F2000BE0281E00E947E078823D9F36FEF81E003
:104F30000E94C1058093B2036FEF81E00E94C1051A
:104F40008093B30381E00E94FD0281E00E947E070E
:104F50008130D9F38091F20481119FC0E091F00477
:104F6000F0E0EE0FFF1FED5CFD4F60817181C1012C
:104F70000E948D39E090CB04F090CC040091CD04D8
:104F80001091CE043F922F92812C912CA12CB12C08
:104F9000F4E0CF2ED12C23E131E040EF50E06EE081
:104FA00070E082EB93E00E94B73281E00E94BE0283
:104FB00062E081E00E94380360E081E00E943803F3
:104FC0000F900F9081E00E947E078823D9F361E85B
:104FD00081E00E94380361E081E00E94380381E0B3
:104FE0000E94FD0281E00E94BE0281E00E947E07D5
:104FF0008823D9F36FEF81E00E94C1058093B2034B
:105000006FEF81E00E94C1058093B30381E00E94AD
:10501000FD0281E00E947E078130D9F3C65BDF4F3D
:105020000FB6F894DEBF0FBECDBFDF91CF911F91B9
:105030000F91FF90EF90DF90CF90BF90AF909F9037
:105040008F907F906F905F904F903F902F9008953A
:105050008FEF90E026E636E6CBCE4DEC5AEF6FEFC1
:1050600070E067CC4FEF5FEF6FEF70E002CB4FEF78
:105070005FEF6FEF70E09DC94FEF5FEF6FEF70E094
:1050800038C84FEF5FEF6FEF70E00C942B1F4FEFBE
:105090005FEF6FEF70E00C94E7178091D10490916F
:1050A000D204A091D304B091D4042B968CAF9DAFC1
:1050B000AEAFBFAF2B978090D5049090D604A09050
:1050C000D704B090D8048091D0041F928F93BAE097
:1050D0004B2E512C612C712C2B966CAD7DAD8EAD71
:1050E0009FAD2B97A30192010E9415355F934F93BB
:1050F0003F932F9318EEC12E13E0D12EE12CF12C0B
:105100002B966CAD7DAD8EAD9FAD2B97A701960113
:105110000E9415355F934F933F932F93C501B401C0
:10512000A30192010E9415355F934F933F932F93F4
:10513000C501B401A70196010E9415355F934F93F5
:105140003F932F938DE693E09F938F933F922F92FF
:105150000E944E3A0FB6F894DEBF0FBECDBF0ACF05
:105160000F931F93CF93DF9381E00E94BE0262E012
:1051700081E00E94380360E081E00E94380381E012
:105180000E947E078823D9F362E081E00E94380301
:1051900063E081E00E94380381E00E94FD0281E02B
:1051A0000E94BE0202EB13E0C1E0D0E00CC06FEF42
:1051B00081E00E94C105F8018083CA30D10591F0D9
:1051C00021960F5F1F4FC130D10589F781E00E9402
:1051D0007E078823D9F36FEF81E00E94C105F801B3
:1051E0008083EECF81E00E94FD0281E00E947E0775
:1051F0008130D9F38091B50390E0982F88272091D2
:10520000B403822B9093BC048093BB048091B703BA
:1052100090E0982F88272091B603822B9093BA04B0
:105220008093B9048091B90390E0982F882720914A
:10523000B803822B9093B8048093B7042091BB03EA
:1052400030E0322F22274091BA03242B3093B4044C
:105250002093B3048130910559F01092B2049093D9
:10526000B6048093B504DF91CF911F910F910895FB
:105270002091B5043091B604232B79F72091B20424
:105280002111EBCF21E02093B204E9CF2091B704A4
:105290003091B8042130310519F0FC0110820895D5
:1052A0002091B5043091B604232BB9F7FC0120817D
:1052B0002111F3CF21E020830895E091B304F09110
:1052C000B4043197EC30F10520F4EE58FF4F0C9404
:1052D000373508958091C80491E08927EDEBF4E01B
:1052E000119294E0EA3CF907D9F78093C804089535
:1052F0008091F104811194C08091F0048111E9CF73
:1053000081E08093F20408958091BE0491E08927A2
:10531000EDEBF4E0119294E0EA3CF907D9F78093C1
:10532000BE0408958091BF0491E08927EDEBF4E07D
:10533000119294E0EA3CF907D9F78093BF040895ED
:105340008091C00491E08927EDEBF4E0119294E0A4
:10535000EA3CF907D9F78093C00408958091C1040D
:1053600091E08927EDEBF4E0119294E0EA3CF90733
:10537000D9F78093C10408958091C20491E08927F0
:10538000EDEBF4E0119294E0EA3CF907D9F7809351
:10539000C20408958091C30491E08927EDEBF4E005
:1053A000119294E0EA3CF907D9F78093C304089579
:1053B0008091C40491E08927EDEBF4E0119294E030
:1053C000EA3CF907D9F78093C40408958091C50495
:1053D00091E08927EDEBF4E0119294E0EA3CF907C3
:1053E000D9F78093C50408958091C60491E0892778
:1053F000EDEBF4E0119294E0EA3CF907D9F78093E1
:10540000C60408958091C70491E08927EDEBF4E08C
:10541000119294E0EA3CF907D9F78093C704089504
:105420001092F20408950E94B0288091B204811174
:1054300001C008950C945D290E943D160C94132A16
:10544000FC0160830895EF92FF920F931F93CF9317
:10545000DF93EC0188810E94BE0260E088810E9497
:10546000C10560E088810E94C10588810E94FD021B
:1054700088810E94BE0260E288810E94C105182FC7
:1054800060E088810E94C105082F88810E94FD028A
:1054900088810E94BE0260E288810E94C10560E0AE
:1054A00088810E94C10588810E94FD0288810E9436
:1054B000BE0260E088810E94C105F82E60E088810C
:1054C0000E94C105E82E88810E94FD028E2D90E089
:1054D000A0E0B0E0772766279F29602B712BDF9132
:1054E000CF911F910F91FF90EF900895FC01808163
:1054F0000C94DF012F923F924F925F926F927F92B6
:105500008F929F92AF92BF92CF92DF92EF92FF92D3
:105510000F931F93CF93DF93CDB7DEB763970FB68B
:10552000F894DEBF0FBECDBF7C011B016A01FC01F8
:1055300017821682838181FF66C3BE016F5F7F4F32
:105540004B01F7019381F10193FD859193FF8191C7
:105550001F01882309F453C3853239F493FD8591E3
:1055600093FF81911F01853239F4B70190E00E94C9
:10557000DD3956016501E5CF10E0512C20E02032E5
:10558000A0F48B3269F030F4803259F0833269F440
:1055900020612CC08D3239F0803339F4216026C06F
:1055A0002260246023C0286021C027FD27C030ED81
:1055B000380F3A3078F426FF06C0FAE01F9F300D0E
:1055C0001124132F13C06AE0569E300D1124532E60
:1055D00020620CC08E3221F426FD11C3206406C067
:1055E0008C3611F4206802C0883641F4F10193FD35
:1055F000859193FF81911F018111C1CF9BEB980F82
:10560000933018F42061805E06C09BE9980F9330B8
:1056100008F0AAC12F7E26FF16E02F73722E853662
:1056200021F4F22FF0647F2E08C0863621F4622F19
:105630006068762E02C01111115077FE07C01C332E
:1056400048F444244394410E27E00BC0183030F452
:10565000212F06C027E04CE3442E03C027E017E0CB
:10566000412C560174E0A70EB11CF60160817181D6
:1056700082819381042DA4010E948F386C010981DD
:1056800000FF02C003FF06C071FC07C072FC08C027
:10569000612C08C03DE2632E05C02BE2622E02C0E1
:1056A00090E2692E802F8C7099F1662011F084E0D1
:1056B00001C083E0851510F0512C0BC0581A73FC03
:1056C00008C0B70180E290E00E94DD395A94C9F722
:1056D000F3CF662029F0B701862D90E00E94DD39D6
:1056E00003FD03C00EEB11E002C00AEB11E0F72D41
:1056F000F0717F2EF8018491882309F476C271102D
:105700008052B70190E00E94DD390F5F1F4FF2CF4A
:1057100077FE0FC04C0C04FF04C08A81813309F46A
:105720004A94141474F5F8E0F41578F588E0482EDE
:105730002CC076FC2AC0812F90E08C159D059CF032
:105740006CEFC6166FEFD60674F0772D7068772E63
:105750000AC0E2E0F0E0EC0FFD1FE10FF11D8081D7
:10576000803319F411501111F4CF77FE0EC0442488
:105770004394410E812F90E0C816D9062CF41C19D1
:1057800004C04424439401C010E077FE07C01C14F9
:105790001D043CF496012F5F3F4F05C025E030E02B
:1057A00002C021E030E0662011F02F5F3F4F11234F
:1057B00031F0412F50E04F5F5F4F240F351F452DD3
:1057C00050E02417350714F4521A01C0512C872DCC
:1057D000897049F4552039F0B70180E290E00E94C9
:1057E000DD395A94F7CF662029F0B701862D90E075
:1057F0000E94DD3973FC09C0552039F0B70180E300
:1058000090E00E94DD395A94F7CF77FE5FC09C2D5F
:105810008D2DD7FE02C090E080E0692E782E40E00A
:1058200050E0C601841991099D878C87960126193D
:105830003709280D391D812F90E0EE27FF27E81B3F
:10584000F90BFF87EE87FFEF6F167F0669F4B7014C
:105850008EE290E02B8B3A8B488B598B0E94DD397E
:10586000598948893A892B89C614D70454F06C8524
:105870007D85661577052CF4F901E40FF51F81810C
:1058800001C080E371E0671A71084F5F5F4FEE85DA
:10589000FF856E167F066CF0B70190E02B8B3A8B7C
:1058A000488B598B0E94DD392B893A89488959895F
:1058B000CACF6C147D0439F49A81963318F4953369
:1058C00011F404FF81E3B70190E04BC08A8181337A
:1058D00009F00F7EB70190E00E94DD39111105C07B
:1058E00074FE18C085E490E017C0B7018EE290E026
:1058F0000E94DD3982E066246394680EF401E80FAB
:10590000F11D8081B70190E00E94DD39115041F313
:10591000862DF1CF85E690E0B7010E94DD39D7FCF6
:1059200005C0C114D10439F404FF05C0D194C19459
:10593000D1088DE201C08BE2B70190E00E94DD3911
:1059400080E36AE0C616D1042CF08F5FFAE0CF1A2C
:10595000D108F7CFB70190E00E94DD39B701C60149
:10596000C0960E94DD3941C1833631F0833779F02A
:10597000833509F058C021C0560172E0A70EB11C52
:10598000F6018081898301E010E0640114C05601B2
:10599000F2E0AF0EB11CF601C080D18026FF03C03B
:1059A000612F70E002C06FEF7FEFC6012B8B0E946A
:1059B00094398C012B892F7715C05601F2E0AF0E78
:1059C000B11CF601C080D18026FF03C0612F70E0BA
:1059D00002C06FEF7FEFC6012B8B0E9482398C01D2
:1059E0002B892068722E23FD1AC0852D90E00817A0
:1059F0001907A8F4B70180E290E00E94DD395A94BB
:105A0000F4CFF60177FC859177FE81916F01B701A4
:105A100090E00E94DD3951105A940150110901158E
:105A2000110579F7E2C0843611F0893651F5560137
:105A300027FF09C0F4E0AF0EB11CF601608171814F
:105A4000828193810AC0F2E0AF0EB11CF601608141
:105A50007181882777FD8095982F022F0F7697FF09
:105A600008C090958095709561957F4F8F4F9F4F9F
:105A700000682AE030E0A4010E94963AC82EC818B7
:105A80003EC0022F853721F40F7E2AE030E01DC092
:105A9000097F8F3691F018F4883559F0B0C08037FF
:105AA00019F0883711F0ABC0006104FF09C0046031
:105AB00007C024FF08C0066006C028E030E005C02B
:105AC00020E130E002C020E132E0560107FF09C0CA
:105AD000F4E0AF0EB11CF601608171818281938187
