:100000000C94A3010C94D4010C94120E0C94120EB7
:100010000C94540E0C94D4010C94120E0C94D40134
:100020000C94D4010C945E0E0C94D4010C94D40165
:100030000C94D4010C94D4010C94D4010C94D401EC
:100040000C94D4010C94D4010C94D4010C94D401DC
:100050000C94D4010C94D4010C94D4010C94D401CC
:100060000C94D4010C94EC070C94D4010C94D4019E
:100070000C94D4010C94D4010C94D4010C94D401AC
:100080000C94D4010C94D4010C94D4010C94D4019C
:100090000C94D4010C94D4010C94D4010C94D4018C
:1000A0000C94D4010C94D4010C94D4010C94D4017C
:1000B0000C94D4010C94D4010C94D4010C94D4016C
:1000C0000C94D4010C94D4010C94D4010C94D4015C
:1000D0000C94D4010C94D4010C94D4010C94D4014C
:1000E0000C94D401DB2EF02EFE2E0C2F1A2F282F6D
:1000F0003D2F522F672F7C2FCD2EB72E0763423610
:10010000B79BD8A71A39685618AEBAAB558C1D3CA8
:10011000B7CC5763BD6DEDFD753EF6177231BF006C
:100120000000803F08000000BE922449123EABAAA6
:10013000AA2ABECDCCCC4C3E00000080BEABAAAA01
:10014000AA3E00000000BF000000803F0000000049
:1001500000084178D3BB4387D1133D190E3CC3BD82
:100160004282AD2B3E68EC8276BED98FE1A93E4C2F
:1001700080EFFFBE01C4FF7F3F00000000000C9431
:10018000F02E0C94A4070C94672F0C94DB2E0C9487
:10019000282F0C947C2F0C943D2F0C94CD2E0C9476
:1001A000522F0C94FE2E0C94B72E0C94923A0C9471
:1001B000B4070C941A2F0C940C2F6E616E00696EAC
:1001C00066006364696E6F70737578585B65666707
:1001D00045464700616E006E66696E69747900CDB0
:1001E000CCCC3D0AD7233C17B7D13877CC2B3295EE
:1001F00095E6241FB14F0A000020410000C84200CC
:10020000401C4620BCBE4CCA1B0E5AAEC59D740095
:10021000407A10F35A00A0724E18090010A5D4E8D5
:100220000000E87648170000E40B54020000CA9A68
:100230003B000000E1F505000080969800000040BA
:10024000420F000000A086010000001027000000FF
:1002500000E803000000006400000000000A000045
:100260000000000100000000002C76D888DC674FF9
:100270000823DFC1DFAE59E1B1B796E5E3E453C629
:100280003AE651997696E8E6C28426EB898C9B6221
:10029000ED407C6FFCEFBC9C9F40F2BAA56FA5F4CB
:1002A00090055A2AF75C936B6CF9676DC11BFCE0F3
:1002B000E40D47FEF520E6B500D0ED902E03009446
:1002C0003577050080841E080000204E0A000000DB
:1002D000C80C333333330F986E12831141EF8D21E5
:1002E00014893BE65516CFFEE6DB18D1844B381B4C
:1002F000F77C1D901DA4BBE424203284725E228111
:1003000000C9F124ECA1E53D274E414E494E495428
:1003100059494E46CDCCCC3D0AD7233C17B7D138EE
:1003200077CC2B329595E6241FB14F0A000020416F
:100330000000C84200401C4620BCBE4CCA1B0E5ADE
:10034000AEC59D74923A11241FBECFEFD1E2DEBF3D
:10035000CDBF00E00CBF14E0A0E0B2E0E0ECF4E8B8
:1003600000E00BBF02C007900D92A83BB107D9F780
:1003700028E0A8EBB4E001C01D92A131B207E1F77B
:1003800013E0C6E4D3E000E006C022970109FE01B5
:100390000BBF0E94FD3AC434D10780E00807A9F7DB
:1003A0000E94D9390C945E420C940000279A08955B
:1003B0002F9A08952F9808951F9A08950097D9F0BD
:1003C00020E030E02F9A4FE75AE166E0415050407C
:1003D0006040E1F700C000002F984FE75AE166E067
:1003E000415050406040E1F700C000002F5F3F4F98
:1003F0002817390739F70895813009F441C0823050
:1004000009F44BC0833009F472C0843009F47DC014
:10041000853009F498C0863009F008952FEF81EEF9
:1004200094E0215080409040E1F700C000008091AE
:1004300001018460809301018091020184608093B6
:10044000020180910101826080930101809102018B
:10045000826080930201809101018160809301019B
:100460008091020181608093020180910101877F68
:100470008093010180910201877F8093020108959A
:10048000809A889A6F9A779A839A8B9A819A899A96
:1004900082988A986E98769808950B9A13982FEF01
:1004A00081EE94E0215080409040E1F700C00000D0
:1004B000809107018068809307018091080180681E
:1004C00080930801809107018260809307018091E9
:1004D0000801826080930801809107018860809301
:1004E00007018091080188608093080108950B9AA4
:1004F00013982FEF81EE94E0215080409040E1F777
:1005000000C00000099A119ADDCF8091040180613A
:1005100080930401809105018F7E809305012FEF68
:1005200081EE94E0215080409040E1F700C000004F
:1005300080910401806480930401809105018064AE
:1005400080930501BFCF0F9A17982FEF81EE94E0AB
:10055000215080409040E1F700C000000D9A159AAC
:100560008091070182608093070180910801826079
:100570008093080180910701886080930701809132
:100580000801886080930801809107018F7D809326
:100590000701809108018F7D8093080108958130C3
:1005A00009F0089577988AE08A95F1F7779A81E0C3
:1005B0008A95F1F70895813009F1823011F1833085
:1005C00059F1843081F0853071F1863009F0089559
:1005D00080910201826080930201809102018B7FF1
:1005E000809302010895809108018D7F8093080116
:1005F000809105018F7B8093050108958B988898E1
:100600000895809108018D7F8093080180910801F1
:100610008F77809308010895809108018D7F8093E2
:10062000080111980895809108018D7F8093080139
:1006300015980895813031F1823041F1833061F1B4
:10064000843081F0853051F1863009F00895809131
:100650000201826080930201809102018460809394
:1006600002010895809105018064809305018091C5
:10067000080182608093080180910801886080935E
:1006800008010895889A8B9A899A089580910801A3
:10069000806880930801EBCF119AE9CF159A809179
:1006A00008018260809308010895962F9078813028
:1006B00009F4C1C0823029F0833019F0843009F088
:1006C000089580910801992309F438C188608093C6
:1006D000080181E08A95F1F780910801826080939A
:1006E000080181E08A95F1F7809108018D7F809360
:1006F000080166FF1DC18091080188608093080190
:1007000081E08A95F1F78091080182608093080169
:1007100081E08A95F1F7809108018D7F809308012F
:1007200065FF00C18091080188608093080181E025
:100730008A95F1F78091080182608093080181E039
:100740008A95F1F7809108018D7F8093080164FFFD
:10075000E3C08091080188608093080181E08A9558
:10076000F1F78091080182608093080181E08A9509
:10077000F1F7809108018D7F8093080163FFC6C067
:100780008091080188608093080181E08A95F1F7E3
:100790008091080182608093080181E08A95F1F7D9
:1007A000809108018D7F8093080162FFA9C080912C
:1007B000080188608093080181E08A95F1F78091B3
:1007C000080182608093080181E08A95F1F78091A9
:1007D00008018D7F8093080161FF8CC08091080122
:1007E00088608093080181E08A95F1F78091080183
:1007F00082608093080181E08A95F1F78091080179
:100800008D7F8093080160FF6FC080910801886030
:100810008093080181E08A95F1F780910801826058
:100820008093080181E08A95F1F7809108018D7F1E
:10083000809308010895911185C0899881E08A9577
:10084000F1F78B9A81E08A95F1F78B9866FF88C063
:10085000899A81E08A95F1F78B9A81E08A95F1F780
:100860008B9865FF7BC0899A81E08A95F1F78B9A16
:1008700081E08A95F1F78B9864FF6EC0899A81E0D8
:100880008A95F1F78B9A81E08A95F1F78B9863FF4F
:1008900061C0899A81E08A95F1F78B9A81E08A9507
:1008A000F1F78B9862FF54C0899A81E08A95F1F73D
:1008B0008B9A81E08A95F1F78B9861FF47C0899AFE
:1008C00081E08A95F1F78B9A81E08A95F1F78B9810
:1008D00060FF3AC0899A81E08A95F1F78B9A81E0AE
:1008E0008A95F1F78B98089580910801877F80930E
:1008F000080190CF80910801877F8093080173CF12
:1009000080910801877F8093080156CF809108016C
:10091000877F8093080139CF80910801877F80937A
:1009200008011CCF80910801877F80930801FFCECA
:1009300080910801877F80930801E2CE877F8093B2
:100940000801C7CE899A7ACF8998C5CF8998B8CF40
:100950008998ABCF89989ECF899891CF899884CF79
:10096000899877CF813009F4BBC0853011F080E0E1
:10097000089581E08A95F1F7809108018260809363
:1009800008018091060191E09A95F1F79091080194
:100990009D7F9093080185FB882780F9880F91E05F
:1009A0009A95F1F790910801926090930801209137
:1009B000060191E09A95F1F7909108019D7F90933F
:1009C000080125FB992790F9892B880F91E09A95CA
:1009D000F1F790910801926090930801209106012F
:1009E00091E09A95F1F7909108019D7F909308010D
:1009F00025FB992790F9892B880F91E09A95F1F7BB
:100A0000909108019260909308012091060191E075
:100A10009A95F1F7909108019D7F9093080125FB2D
:100A2000992790F9892B880F91E09A95F1F7909189
:100A300008019260909308012091060191E09A9537
:100A4000F1F7909108019D7F9093080125FB99276C
:100A500090F9892B880F91E09A95F1F79091080110
:100A60009260909308012091060191E09A95F1F728
:100A7000909108019D7F9093080125FB992790F99B
:100A8000892B880F91E09A95F1F790910801926077
:100A9000909308012091060191E09A95F1F79091C9
:100AA00008019D7F9093080125FB992790F9892BD8
:100AB00091E09A95F1F79091080192609093080166
:100AC0002091060191E09A95F1F7909108019D7FA0
:100AD00090930801880F25FB992790F9892B089599
:100AE0008A95F1F78B9A8FB191E09A95F1F78B98EF
:100AF00082FB882780F9880F91E09A95F1F78B9A0D
:100B00002FB191E09A95F1F78B9822FB992790F9F4
:100B1000892B880F91E09A95F1F78B9A2FB191E08C
:100B20009A95F1F78B9822FB992790F9892B880FDA
:100B300091E09A95F1F78B9A2FB191E09A95F1F7A0
:100B40008B9822FB992790F9892B880F91E09A9531
:100B5000F1F78B9A2FB191E09A95F1F78B9822FBE0
:100B6000992790F9892B880F91E09A95F1F78B9A44
:100B70002FB191E09A95F1F78B9822FB992790F984
:100B8000892B880F91E09A95F1F78B9A2FB191E01C
:100B90009A95F1F78B9822FB992790F9892B91E090
:100BA0009A95F1F78B9A2FB191E09A95F1F78B987E
:100BB000880F22FB992790F9892B0895962F90781A
:100BC000813009F4F3C0863011F080E008958091FF
:100BD0000201911174C18E7F8093020181E08A9598
:100BE000F1F790910001809102018D7F80930201C5
:100BF00081E08A95F1F78091020182608093020181
:100C000093FB992790F9990F66FF8FC1809102019C
:100C100081608093020181E08A95F1F78091000163
:100C2000209102012D7F2093020121E02A95F1F706
:100C30002091020122602093020183FB882780F922
:100C4000892B880F65FF6BC1909102019160909391
:100C5000020191E09A95F1F7909100012091020133
:100C60002D7F2093020121E02A95F1F720910201C6
:100C700022602093020193FB992790F9982B990FFA
:100C800064FF47C18091020181608093020181E08D
:100C90008A95F1F780910001209102012D7F209328
:100CA000020121E02A95F1F72091020122602093B0
:100CB000020183FB882780F9892B880F63FF23C1FA
:100CC0009091020191609093020191E09A95F1F761
:100CD00090910001209102012D7F2093020121E0DB
:100CE0002A95F1F72091020122602093020193FBE3
:100CF000992790F9982B990F62FFFFC0809102010C
:100D000081608093020181E08A95F1F78091000172
:100D1000209102012D7F2093020121E02A95F1F715
:100D20002091020122602093020183FB882780F931
:100D3000892B880F61FFDBC0909102019160909335
:100D4000020191E09A95F1F7909100012091020142
:100D50002D7F2093020121E02A95F1F720910201D5
:100D600022602093020193FB992790F9982B990F09
:100D700060FFB7C08091020181608093020181E031
:100D80008A95F1F780910001209102012D7F209337
:100D9000020121E02A95F1F72091020122602093BF
:100DA000020183FB882780F9892B0895911185C062
:100DB000899881E08A95F1F78B9A9FB181E08A95B5
:100DC000F1F78B9892FB992790F9990F66FF7DC0F8
:100DD000899A81E08A95F1F78B9A8FB121E02A9563
:100DE000F1F78B9882FB882780F9892B880F65FFA4
:100DF0006AC0899A91E09A95F1F78B9A9FB121E0A8
:100E00002A95F1F78B9892FB992790F9982B990FD7
:100E100064FF63C0899A81E08A95F1F78B9A8FB15C
:100E200021E02A95F1F78B9882FB882780F9892B9E
:100E3000880F63FF50C0899A91E09A95F1F78B9AD9
:100E40009FB121E02A95F1F78B9892FB992790F9B1
:100E5000982B990F62FF3DC0899A81E08A95F1F73E
:100E60008B9A8FB121E02A95F1F78B9882FB882726
:100E700080F9892B880F61FF2AC0899A91E09A95A1
:100E8000F1F78B9A9FB121E02A95F1F78B9892FBAD
:100E9000992790F9982B990F60FF21C0899A81E0DA
:100EA0008A95F1F78B9A8FB121E02A95F1F78B980B
:100EB00082FB882780F9892B0895899A7ACF8160EF
:100EC000809302018BCE899895CF899882CF89989B
:100ED000D5CF8998C2CF8998AFCF89989CCF899870
:100EE000DECF809102018E7F8093020148CF9091E6
:100EF00002019E7F9093020124CF809102018E7F98
:100F00008093020100CF909102019E7F9093020195
:100F1000DCCE809102018E7F80930201B8CE909149
:100F200002019E7F9093020194CE809102018E7FF8
:100F30008093020170CE813011F080E008958CB171
:100F400086FB882780F90895CF93C82F8A3041F017
:100F50009091C00095FFFCCFC093C600CF9108953B
:100F60008DE00E94A407F4CF8091BA048823E1F3B6
:100F7000E091BB04F091BC04E154FB4F808190915F
:100F8000BA0491509093BA042091BB043091BC04F0
:100F90002F5F3F4F3093BC042093BB042091BB04D0
:100FA0003091BC042F3F310509F008951092BC0424
:100FB0001092BB0408951092C50089E18093C4008B
:100FC000E0ECF0E080818D7F808386E08093C2003A
:100FD00088E18093C10008951F920F920FB60F927F
:100FE00011240BB60F922F938F939F93EF93FF9340
:100FF0002091C6008091BA048F3FA1F1E091BD0419
:10100000F091BE04E154FB4F20838091BA048F5FBE
:101010008093BA048091BD049091BE040196909390
:10102000BE048093BD048091BD049091BE048F3FA7
:10103000910501F18091B8049091B904892B31F0A8
:101040008091C00085FFFCCF2093C600FF91EF91F7
:101050009F918F912F910F900BBE0F900FBE0F900D
:101060001F9018958091C00085FFFCCF80E480938D
:10107000C600ECCF1092BE041092BD04DBCF80916D
:10108000BA048823F1F0E091BB04F091BC04E15470
:10109000FB4F80819091BA0491509093BA042091B3
:1010A000BB043091BC042F5F3F4F3093BC042093AE
:1010B000BB042091BB043091BC042F3F310519F0D3
:1010C000089580E008951092BC041092BB04089526
:1010D000E1ECF0E080818F7780831092C50089E198
:1010E0008093C400A0ECB0E08C918D7F8C9386E05F
:1010F0008093C20088E180831092B9041092B804F2
:1011000080E092E090930A088093090890930C087D
:1011100080930B081092BE041092BD041092BC0480
:101120001092BB041092BA04808180688083089575
:101130009093B9048093B80408951092B904109262
:10114000B8040895FC0160830895CF92DF92EF9276
:10115000FF92CF93DF93EC016A017B0188810E94AB
:10116000DB026C2D88810E945503B70188279927DF
:1011700088810E94550399278F2D7E2D6D2D8881A2
:101180000E9455038881DF91CF91FF90EF90DF900F
:10119000CF900C941A03FC0180810C94FC01FC019B
:1011A000608308950F931F93CF93DF93EC018B011E
:1011B00088810E94DB02B8010024660F771F001CA3
:1011C000660F771F001C672F702D6F7388810E9438
:1011D0005503602F660F660F88810E945503888132
:1011E000DF91CF911F910F910C941A03FC01808124
:1011F0000C94FC010F931F93CF93DF938C01EB01B1
:101200000E94443FFE0101900020E9F7EC1BFD0B1A
:10121000C8018E0F9F1FDF91CF911F910F910895ED
:10122000FC01608308950F931F93CF93DF93EC012C
:1012300088810E94DB0288810E94B20488810E941A
:10124000B204182F88810E94B204082F88810E945E
:101250001A03802F90E0912BDF91CF911F910F9176
:101260000895FC0180810C94FC01FC0160830895C9
:10127000EF92FF921F93CF93DF931F92CDB7DEB70C
:101280007C01162FFC01808179830E94DB02698139
:10129000F70180810E945503612FF70180810E9430
:1012A0005503F70180810F90DF91CF911F91FF903F
:1012B000EF900C941A03FC0180810C94FC01CF92F6
:1012C000DF92EF92FF920F931F93CF93DF931F92C2
:1012D000CDB7DEB7D82E7B0181E099830E94DB0277
:1012E0006E2D81E00E9455036F2D81E00E94550311
:1012F0009981E114F10409F10D2D192FC12CD12C84
:101300000CC0F80161918F0181E00E945503FFEF4D
:10131000CF1ADF0ACE14DF0481F0C6018F7399273C
:10132000892B79F781E00E949B078111EACF81E048
:101330000E949B078823B1F3E4CF81E00F90DF91F7
:10134000CF911F910F91FF90EF90DF90CF900C9471
:101350001A0360E070E889EC97E00C943809609318
:101360002D0270932E0280932F02909330020E94E0
:10137000343C25E93FEB46E55CE30E94C43D0E9416
:10138000083C6115710521E08207910520F06FEF9F
:101390007FEF80E090E089EC97E00C943809CF92E1
:1013A000DF92EF92FF9223E333E948E853E40E948F
:1013B000023B9B01AC0160E070E080E89FE30E948B
:1013C0006A3B2FE03FEC4BE55BE30E94013B209141
:1013D0003F023091400240914102509142020E94EE
:1013E000C43D0E94D73B209143023091440240917A
:1013F0004502509146020E94C43D6B017C01609100
:1014000047027091480280E090E00E94343C9B01CA
:10141000AC01C701B6010E946A3B20E030E040E821
:101420005FE30E94023B6B017C0120E030E040E87A
:101430005FE30E94663B87FF06C0C12CD12C30E8D9
:10144000E32E3FE3F32E609131027091320280E08F
:1014500090E00E94343CA70196010E946A3B0E94E2
:10146000083C89EC97E0FF90EF90DF90CF900C94D0
:10147000380960E070E084EC97E00C94D208909317
:10148000200280931F02BC0180E090E00E94343C67
:1014900023E439E341E95DE30E94C43D0E94083C36
:1014A000611580E1780710F06FEF7FE084EC97E042
:1014B0000C94D2084F925F926F927F928F929F927C
:1014C000AF92BF92CF92DF92EF92FF92C090B80797
:1014D000D090B907E090BA07F090BB076091230263
:1014E000709124026E5F7F4F882777FD8095982F3B
:1014F0000E94363CA70196010E94663B87FD14C0FE
:10150000609121027091220262507109882777FD53
:101510008095982F0E94363C9B01AC01C701B60113
:101520000E94663B87FF16C081E08093CC078093C2
:10153000CB078091CD07811151C0FF90EF90DF90D4
:10154000CF90BF90AF909F908F907F906F905F9063
:101550004F9008958090AB079090AC07A090AD0796
:10156000B090AE07C501B4010E94343C2B013C0190
:1015700020E030E040E85FE360911B0270911C02C4
:1015800080911D0290911E020E94023B20E030E0FB
:101590004AE754E40E94C43D9B01AC01C301B2017F
:1015A0000E940B3D18160CF18091CD07882309F499
:1015B00059C08091AF079091B007A091B107B09149
:1015C000B207892B8A2B8B2B91F489288A288B28A8
:1015D00071F484E08093CC078093CB0780E090E0A7
:1015E0000E943F0A1092CE07A8CF82E09ECF809142
:1015F000CA07882309F4A1CF8090B4079090B5075B
:10160000A090B607B090B707A5019401609125029C
:101610007091260280912702909128020E940B3D32
:10162000181654F5A7019601C501B4010E94013BAB
:101630002DEC3CEC4CE45EE30E940B3D18167CF173
:10164000A5019401C701B6010E94013B2DEC3CECC1
:101650004CE45EE30E940B3D18160CF06ECF109226
:10166000CA076BCF1092CC078091CB07813009F06D
:1016700064CF1092CB0761CFA5019401C701B601D9
:101680000E94013B2DEC3CEC4CE45EE30E940B3DE0
:1016900018162CF0A7019601C501B401D5CF83E03F
:1016A0008093CC078093CB0780E090E00E943F0AB4
:1016B0001092CE071092CA0740CF40E050E0BA0126
:1016C00080EC97E00C94A508942F80931802609307
:1016D000170240931602462F50E060E070E0582B4E
:1016E000762F652F542F4427492B80EC97E00C94DC
:1016F000A508CF92DF92EF92FF928091180290910D
:10170000C3076091170240911602891709F46EC051
:101710000E94640B809118028093C3078091170286
:101720008093C207809116028093C107C09029025E
:10173000D0902A02E0902B02F0902C0220912502FA
:10174000309126024091270250912802C701B6012C
:101750000E94663B811153C0C0901B02D0901C02B6
:10176000E0901D02F0901E022091C5073091C6073F
:101770004091C7075091C807B601C7010E94663B58
:1017800081111DC02091CE078091CD07821791F065
:10179000222329F08091CC07882309F445C01092B8
:1017A000CA0780E090E00E943F0A1092CE0780E0D6
:1017B0008093CD07FF90EF90DF90CF9008958091B8
:1017C000CE0781110CC020E0C601D7018093C50768
:1017D0009093C607A093C707B093C807D5CF809151
:1017E000CC07882309F449C021E0EECF9091C207CD
:1017F00069138ECF9091C10749138ACF97CFC70144
:10180000B6010E94CF098091290290912A02A091ED
:101810002B02B0912C028093250290932602A09374
:101820002702B093280298CF81E08093CA07809165
:10183000B8079091B907A091BA07B091BB07809300
:10184000B4079093B507A093B607B093B70720E00D
:1018500030E04AE754E460911B0270911C028091D1
:101860001D0290911E020E94C43D0E94083CCB01C3
:101870000E943F0A8091CE079BCF20E030E04AE7EC
:1018800054E4B601C7010E94C43D0E94083CCB014C
:101890000E943F0AC0901B02D0901C02E0901D02E3
:1018A000F0901E022091CE078FCF089583EB97E032
:1018B0000E941309BC0180E090E00E94343C21E8C2
:1018C00036E948E952E40E94C43D0E94083C609316
:1018D000BC077093BD078093BE079093BF07089520
:1018E0008F929F92AF92BF92CF92DF92EF92FF9230
:1018F00083EB97E00E9413095C01609114027091E0
:10190000150280E090E00E94343C6B017C01B5013F
:1019100080E090E00E94343C9B01AC01C701B6011D
:101920000E946A3B20E030E040E85FE30E94013B18
:101930006B017C01609147027091480280E090E069
:101940000E94343C9B01AC01C701B6010E94C43D1A
:101950000E94513D6B017C01209137023091380289
:101960004091390250913A020E94C43D20913B02BD
:1019700030913C0240913D0250913E020E94023B58
:101980004B015C01209133023091340240913502C9
:1019900050913602C701B6010E94C43DA7019601CD
:1019A0000E94C43DA70196010E94C43D9B01AC0169
:1019B000C501B4010E94023B9B01AC0160E070E0F4
:1019C00080E89FE30E946A3B23E333E948E853E45D
:1019D0000E94013B6093B8077093B9078093BA07E0
:1019E0009093BB07FF90EF90DF90CF90BF90AF90A8
:1019F0009F908F90089508954F925F926F927F927B
:101A00008F929F92AF92BF92CF92DF92EF92FF920E
:101A10000F931F93CF93DF9385EA97E00E949D2F4A
:101A20006B017C0110910308153008F0B9C0C12F7B
:101A3000D0E01F5FCC0FDD1FCC0FDD1FCE01815129
:101A4000984F5C01C701B6017F70882799270E94D3
:101A5000343C2DEA39EA40E252E40E94C43D0E943F
:101A6000083CF5016083718382839383C552D84F0C
:101A7000B701882799277F70882799270E94343CCF
:101A800025EF32E84EE550E40E94C43D0E94083C38
:101A9000688379838A839B8310930308EFEEF7E0D2
:101AA000ABEDB7E0812C912C540100E010E09801DF
:101AB0006191719181919191600F711F821F931FAC
:101AC000CD90DD90ED90FD90C80CD91CEA1CFB1C5C
:101AD00028E0E330F20729F08B019C014601570111
:101AE000E7CFF5E04F2E512C612C712CA301920110
:101AF0000E94BB3A49015A012093AB073093AC07CF
:101B00004093AD075093AE07C701B601A301920100
:101B10000E94BB3A293883E138074105510508F492
:101B200043C088E893E1A0E0B0E08093AF079093D2
:101B3000B007A093B107B093B20768E893E180E0E3
:101B400050E0262F392F482FC501B4010E94AB3A2F
:101B500028EE33E040E050E00E94BB3A2093A70714
:101B60003093A8074093A9075093AA0780910001DA
:101B700085FB882780F98093A607CA01B901DF9108
:101B8000CF911F910F91FF90EF90DF90CF90BF907A
:101B9000AF909F908F907F906F905F904F9008953F
:101BA00011E0C0E0D0E046CF2093AF073093B007FC
:101BB0004093B1075093B207622F932F842FC1CF68
:101BC00052985A9AE9E6F0E080818F7D8083808187
:101BD00080618083EA9A5198599A8081877F8083B7
:101BE000808184608083E99A53985B9A80818068C1
:101BF000808380818F7B8083EB9A26982E9AA8E63B
:101C0000B0E08C9181608C93EBE6F0E080818064A1
:101C1000808325982D9A8C9181608C93808180623D
:101C2000808308951F920F920FB60F9211240BB666
:101C30000F922F933F934F935F936F938F939F9345
:101C4000EF93FF934091DA07440F440F4093DA0774
:101C500059B169B161FB882780F990E0842B52FB70
:101C6000222720F930E0220F331F822B932B809301
:101C7000DA078F70E82FF0E0ED5AFD4F80910608EB
:101C80009081890F80930608FF91EF919F918F912A
:101C90006F915F914F913F912F910F900BBE0F90DD
:101CA0000FBE0F901F9018951F920F920FB60F92B4
:101CB00011240F900FBE0F901F9018951F920F9236
:101CC0000FB60F9211248F939F9383B186FB8827C1
:101CD00080F990910F02992311F08823C1F080932D
:101CE0000F0283B185FB882780F990910E0299231A
:101CF00029F0811103C091E09093040880930E02B3
:101D00009F918F910F900FBE0F901F90189591E0AB
:101D100090930508E4CF9F92AF92BF92CF92DF924B
:101D2000EF92FF920F931F93CF93DF9393B113B171
:101D3000E9ECF6E0C0E0D0E08191811104C0219689
:101D4000CD30D105C9F780910508882331F0092FDE
:101D5000007496FFEEC01092050880910408882355
:101D600039F0812F8072B82E15FF93C010920408AD
:101D70002091D90710910608211739F08091D707D3
:101D80009091D807C817D907A1F01092D9071092DF
:101D90000608D093D807C093D707DF91CF911F9142
:101DA0000F91FF90EF90DF90CF90BF90AF909F90FA
:101DB0000895121BC730D10509F4D8C10CF016C123
:101DC000C130D10509F401C2C630D10509F059C0AE
:101DD00087E61802812D11248595859517FD839539
:101DE000182F81119AC2612F772767FD7095872F71
:101DF000972F0E94363C2DEC3CEC4CEC5DE30E94AE
:101E0000C43D20911B0230911C0240911D02509153
:101E10001E020E94023B962EA72EB82EC92E60915C
:101E2000190270911A02882777FD8095982F0E94D9
:101E3000363CD62EE72EF82E092F262F372F482F87
:101E4000592F692D7A2D8B2D9C2D0E940B3D181634
:101E50000CF022C220E030E0A9016D2D7E2D8F2DE7
:101E6000902F0E94663B87FD68C28D2D9E2DAF2D61
:101E7000B02F80931B0290931C02A0931D02B0937D
:101E80001E02112321F01092D907109206085F9AC2
:101E900080CFC730D10509F483C20CF00BC1C1302B
:101EA000D10509F40DC3C630D10509F040C05F98D3
:101EB0008FE19EE40197F1F700C0000020E030E0E0
:101EC00040E85FE360911B0270911C0280911D024B
:101ED00090911E020E94023B5B016C01609119020D
:101EE00070911A02882777FD8095982F0E94363CC2
:101EF0007B018C019B01AC01B501C6010E940B3D29
:101F0000181614F07501860120E030E0A901B70130
:101F1000C8010E94663B87FD8FC3A701B8014093AB
:101F20001B0250931C0260931D0270931E025F9A65
:101F30001DCFC730D10509F407C20CF088C0C130ED
:101F4000D10509F458C2C630D10509F04DC05F98DB
:101F50008FE19EE40197F1F700C0000020E030E03F
:101F600040E85FE360911B0270911C0280911D02AA
:101F700090911E020E94013B962EA72EB82EC92ECC
:101F80006091190270911A02882777FD8095982F29
:101F90000E94363CD62EE72EF82E092F262F372FFB
:101FA000482F592F692D7A2D8B2D9C2D0E940B3D8A
:101FB00018161CF0D92C75010C2D20E030E0A90179
:101FC0006D2D7E2D8F2D902F0E94663B87FD39C38E
:101FD0008D2D9E2DAF2DB02F80931B0290931C0250
:101FE000A0931D02B0931E025F9AB5CEC830D105F2
:101FF00009F493C0C930D10509F043CF87E6180230
:10200000812D11248595859517FD8395182F8111B4
:102010007CC180911602A12EBB24A7FCB094A80E0F
:10202000B11CB501882777FD8095982F0E94363C1A
:102030006B017C0120E030E04FE753E40E940B3D50
:1020400018160CF047C18FEF809316021ACFC830D4
:10205000D10509F4B3C2C930D10531F65F988FE1DB
:102060009EE40197F1F700C00000A0901602B12C89
:102070009AE0A91AB108B501882777FD8095982FB5
:102080000E94363C6B017C0120E030E04FE753E4D6
:102090000E940B3D18160CF4C4C220E030E0A901E8
:1020A000C701B6010E94663B87FF0A2D0093160206
:1020B0005F9A51CEC830D10509F455C2C930D10557
:1020C00009F035CF5F988FE19EE40197F1F700C0EA
:1020D00000000091160210E0065F1F4FB80188272C
:1020E00077FD8095982F0E94363C6B017C0120E0A3
:1020F00030E04FE753E40E940B3D18160CF493C2F6
:1021000020E030E0A901C701B6010E94663B87FFCD
:10211000B02EB09216025F9A29CE87E61802812D62
:1021200011248595859517FD8395182F8111E5C09C
:1021300080911702A12EBB24A7FCB094A80EB11C5D
:10214000B501882777FD8095982F0E94363C6B015A
:102150007C0120E030E04FE753E40E940B3D18166D
:102160000CF0A2C08FEF809317028BCE8FE99FE017
:102170000197F1F700C0000087E61802812D1124B5
:102180008595859517FD8395182F8111AEC0809197
:102190001802A12EBB24A7FCB094A80EB11CB50157
:1021A000882777FD8095982F0E94363C6B017C0133
:1021B00020E030E04FE753E40E940B3D18160CF08E
:1021C0007EC08FEF809318025CCE17FDBBC01595C3
:1021D000159509F0AAC0612F772767FD7095872FA5
:1021E000972F0E94363C2AE037ED43EA5BE30E94DA
:1021F000C43D2091290230912A0240912B02509136
:102200002C020E94023B962EA72EB82EC92E60915A
:10221000230270912402882777FD8095982F0E94D1
:10222000363CD62EE72EF82E092F262F372F482F93
:10223000592F692D7A2D8B2D9C2D0E940B3D181640
:102240007CF56091210270912202882777FD8095AC
:10225000982F0E94363C962EA72EB82EC92E262FD8
:10226000372F482F592F6D2D7E2D8F2D902F0E94A7
:10227000663B87FF0DC0892D9A2DAB2DBC2D809319
:10228000290290932A02A0932B02B0932C02F9CD3D
:102290009D2C5701C02EEFCFD92C75010C2DDACD16
:1022A000D92C75010C2DCDCF20E030E0A901C7015C
:1022B000B6010E94663B87FFC9C180E054CF20E091
:1022C00030E0A901C701B6010E94663B87FFB0C19B
:1022D00080E078CF20E030E0A901C701B6010E947C
:1022E000663B87FFA7C180E0AFCE5F988FE99FE094
:1022F0000197F1F700C000004ACF5F988FE99FE097
:102300000197F1F700C0000013CF5F988FE99FE0BD
:102310000197F1F700C000007CCE5F988FE99FE045
:102320000197F1F700C000005ECD5F988FE99FE054
:102330000197F1F700C000004ECFD12CE12CF12C19
:1023400000E093CD1D5F43CF5F988FE19EE401973E
:10235000F1F700C00000A0901802B12C9AE0A91A71
:10236000B108B501882777FD8095982F0E94363CEB
:102370006B017C0120E030E04FE753E40E940B3D0D
:1023800018160CF453C120E030E0A901C701B601D2
:102390000E94663B87FF0A2D009318025F9ADBCCF0
:1023A0005F988FE19EE40197F1F700C00000009173
:1023B000180210E0065F1F4FB801882777FD80954F
:1023C000982F0E94363C6B017C0120E030E04FE703
:1023D00053E40E940B3D18160CF41DC120E030E0C0
:1023E000A901C701B6010E94663B87FFB02EB092DB
:1023F00018025F9ABBCC5F988FE19EE40197F1F7DA
:1024000000C000006091290270912A0280912B0285
:1024100090912C020E94033C61507109882777FD3E
:102420008095982F0E94363C962EA72EB82EC92E46
:102430006091230270912402882777FD8095982F60
:102440000E94363CD62EE72EF82E092F262F372F46
:10245000482F592F692D7A2D8B2D9C2D0E940B3DD5
:1024600018161CF0D92C75010C2D60912102709169
:102470002202882777FD8095982F0E94363C962E61
:10248000A72EB82EC92E262F372F482F592F6D2D46
:102490007E2D8F2D902F0E94663B87FD03C09D2CC3
:1024A0005701C02E892D9A2DAB2DBC2D809329026A
:1024B00090932A02A0932B02B0932C025F9A4BCCEC
:1024C0005F988FE19EE40197F1F700C000006091F2
:1024D000290270912A0280912B0290912C020E9475
:1024E000033C6F5F7F4F882777FD8095982F0E9470
:1024F000363C5B016C0160912302709124028827B5
:1025000077FD8095982F0E94363C7B018C019B01C2
:10251000AC01B501C6010E940B3D181614F07501FF
:1025200086016091210270912202882777FD8095B3
:10253000982F0E94363C5B016C019B01AC01B701F6
:10254000C8010E94663B87FD02C057016801A501D2
:10255000B6014093290250932A0260932B02709394
:102560002C025F9A03CC5F988FE19EE40197F1F70C
:1025700000C000000091170210E0065F1F4FB80175
:10258000882777FD8095982F0E94363C6B017C014F
:1025900020E030E04FE753E40E940B3D18160CF4A6
:1025A0003DC020E030E0A901C701B6010E94663BB2
:1025B00087FFB02EB09217025F9AD8CB5F988FE159
:1025C0009EE40197F1F700C00000A0901702B12C23
:1025D0009AE0A91AB108B501882777FD8095982F50
:1025E0000E94363C6B017C0120E030E04FE753E471
:1025F0000E940B3D18166CF020E030E0A901C701E5
:10260000B6010E94663B87FF0A2D009317025F9A6E
:10261000A2CB0FEFFACFBB24BA94E9CEBB24BA9475
:10262000C9CF0FEF43CDBB24BA9473CD0FEFB4CE17
:102630008A2DC8CD8A2D08CDE12CF12C00E010E0C8
:102640006CCCD12CE12CF12C00E0C2CC8A2D8BCDAE
:10265000AF92BF92CF92DF92EF92FF920F931F93B0
:10266000CF93DF93CDB7DEB762970FB6F894DEBF96
:102670000FBECDBF80E290E09A8B898BBE016F5E6A
:102680007F4F8BED96E00E94373F9A8389837E01CE
:1026900083E0E80EF11C01E010E0BE016F5E7F4FA9
:1026A00080E090E00E94373FF701819391937F0192
:1026B000892BB1F10F5F1F4F0830110571F7E980C9
:1026C000FA8060E972E0C7010E943B3F892BB1F0BC
:1026D0006FE872E0C7010E943B3F892B79F066E901
:1026E00072E0C7010E943B3F892B41F06DE972E027
:1026F000C7010E943B3F892B09F0EEC05F9A6296AA
:102700000FB6F894DEBF0FBECDBFDF91CF911F9102
:102710000F91FF90EF90DF90CF90BF90AF90089512
:10272000E980FA8060E972E0C7010E943B3F892B93
:10273000F1F40230110511F75F988FE19EE40197E3
:10274000F1F700C000008B819C810E94353E6B0137
:102750007C0120E030E0A9010E94663B8111F3C0BA
:102760008091CD07882351F21092CE07C7CF6FE832
:1027700072E0C7010E943B3F892BD1F50230110561
:1027800009F0BCCF5F98EFE1FEE43197F1F700C0AC
:1027900000008B819C810E94353E5B016C01609141
:1027A000190270911A02882777FD8095982F0E9450
:1027B000363C7B018C019B01AC01B501C6010E9436
:1027C0000B3D18160CF0FEC020E030E0A901B70167
:1027D000C8010E94663B87FDF8C0A701B80140937D
:1027E0001B0250931C0260931D0270931E0286CF41
:1027F00066E972E0C7010E943B3F892B29F16DE930
:1028000072E0C7010E943B3F892B09F065C001308F
:10281000110509F073CF8091BB078F938091BA07A0
:102820008F938091B9078F938091B8078F9384EA33
:1028300092E09F938F930E94ED3F0F900F900F9027
:102840000F900F900F905ACF0230110509F056CF1C
:102850005F988FE19EE40197F1F700C000008B8143
:102860009C810E94353E5B016C0160912302709156
:102870002402882777FD8095982F0E94363C7B01A3
:102880008C019B01AC01B501C6010E940B3D1816DD
:1028900014F075018601609121027091220288274F
:1028A00077FD8095982F0E94363C5B016C019B015F
:1028B000AC01B701C8010E94663B87FD02C0570109
:1028C0006801A501B6014093290250932A02609342
:1028D0002B0270932C0212CF69E972E0C7010E94AB
:1028E0003B3F892B09F447C065EB72E0C7010E94AA
:1028F0003B3F892B09F06EC00230110509F0FECE76
:102900005F988FE19EE40197F1F700C000008B8192
:102910009C810E94353E6B017C0120E030E04FE756
:1029200053E40E940B3D18160CF495C120E030E0F2
:10293000A901C701B6010E94663B87FF9AC160E00A
:1029400060931702DBCE20E030E040E85FE3C70190
:10295000B6010E94663B8111D1CE8091CD078111D5
:10296000CDCE8091CC078111C9CE81E08093CE0776
:102970001092CB07C3CE0230110509F0BFCE5F988D
:10298000EFE1FEE43197F1F700C000008B819C81FC
:102990000E94353E6B017C0120E030E04FE753E4BC
:1029A0000E940B3D18160CF420C120E030E0A90174
:1029B000C701B6010E94663B87FF56C160E0609385
:1029C00018029CCE75018601FFCEE12CF12C00E0AF
:1029D00010E003CF69EB72E0C7010E943B3F892BF7
:1029E00039F50230110509F089CE5F98EFE1FEE478
:1029F0003197F1F700C000008B819C810E94353E29
:102A00006B017C0120E030E04FE753E40E940B3D76
:102A100018160CF422C120E030E0A901C701B6016C
:102A20000E94663B87FF1BC160E06093160266CE82
:102A30006DEB72E0C7010E943B3F892B09F064C037
:102A40000130110509F05ACE20E836E948E15BE48F
:102A50006091330270913402809135029091360278
:102A60000E94C43D9F938F937F936F9320E030E447
:102A70004CE156E46091370270913802809139023E
:102A800090913A020E94C43D9F938F937F936F93DE
:102A900020E030E04AE754E460913B0270913C0250
:102AA00080913D0290913E020E94C43D9F938F937E
:102AB0007F936F93809142028F93809141028F9315
:102AC000809140028F9380913F028F9380914602C4
:102AD0008F93809145028F93809144028F938091D0
:102AE00043028F93809148028F93809147028F9386
:102AF00086EC92E09F938F930E94ED3F0FB6F8947F
:102B0000DEBF0FBECDBFFACD60E073E0C7010E940B
:102B10003B3F892B09F06BC00730110509F0EECD62
:102B20005F98EFE1FEE43197F1F700C0000080917B
:102B3000CD0781111092CE078B819C810E94353E7A
:102B40000E94083C70934802609347028D819E81E9
:102B50000E94353E60934302709344028093450285
:102B6000909346028F8198850E94353E60933F0284
:102B700070934002809341029093420289859A8526
:102B80000E94353E20E030E04AE754E40E946A3B70
:102B900060933B0270933C0280933D0290933E020F
:102BA0008B859C850E94353E20E030E44CE156E464
:102BB0000E946A3B60933702709338028093390217
:102BC00090933A028D859E850E94353E20E836E935
:102BD00048E15BE40E946A3B6093330270933402E5
:102BE000809335029093360289CD6FEFE8CE69E08D
:102BF00073E0C7010E943B3F892B09F07FCD013074
:102C0000110509F07BCD84E792E00E94FF3F8FE63B
:102C100092E09F938F938DE093E09F938F930E9418
:102C2000ED3F89E692E09F938F938DE193E09F9330
:102C30008F930E94ED3F83E692E09F938F938FE204
:102C400093E09F938F930E94ED3F0FB6F894DEBF01
:102C50000FBECDBF53CD6FEF73CE6FEFE6CEC70182
:102C6000B6010E94083CE1CEC701B6010E94083CB3
:102C7000A6CEC701B6010E94083C62CE0E943F0862
:102C8000882309F44CC08D30F1F08A30E1F0E091F6
:102C9000D507F091D607E436F1055CF0EF5BF84F0D
:102CA000129297E0E134F907D9F710924007E0E07B
:102CB000F0E0DF01A05CB84F8C933196F093D6071B
:102CC000E093D507DBCF2091D5073091D6071216B8
:102CD0001306A4F6EBEDF6E0A0E4B7E0C9018552D7
:102CE000994F4C9141931D92E817F907D1F78091C4
:102CF000D3079091D4072817390734F48552994F98
:102D00001192E817F907E1F73093D4072093D3071E
:102D10001092D6071092D5070E942813AFCF0895BE
:102D200081E00E94DB0262E081E00E94550360E0E6
:102D300081E00E94550381E00E949B078823D9F31C
:102D400062E081E00E94550360E081E00E9455034B
:102D500081E00E941A0381E00E94DB0281E00E9470
:102D60009B078823D9F36FEF81E00E94DE058093F3
:102D7000BE056FEF81E00E94DE058093BF0581E014
:102D80000E941A0381E00E949B078130D9F3809151
:102D9000BF058F938091BE058F9381E493E09F934D
:102DA0008F930E94ED3F81E00E94DB0262E081E0B0
:102DB0000E94550360E081E00E9455030F900F9040
:102DC0000F900F9081E00E949B078823D9F363E066
:102DD00081E00E94550360E081E00E94550381E09C
:102DE0000E941A0381E00E94DB0281E00E949B079F
:102DF0008823D9F36FEF81E00E94DE058093BE0542
:102E00006FEF81E00E94DE058093BF0581E00E94A4
:102E10001A0381E00E949B078130D9F38091BF059E
:102E20008F938091BE058F9384E593E09F938F935A
:102E30000E94ED3F81E00E94DB0262E081E00E949F
:102E4000550360E081E00E9455030F900F900F90B2
:102E50000F9081E00E949B078823D9F360E081E016
:102E60000E94550360E081E00E94550381E00E94CA
:102E70001A0381E00E94DB0281E00E949B07882305
:102E8000D9F36FEF81E00E94DE058093BE056FEFFE
:102E900081E00E94DE058093BF0581E00E941A0355
:102EA00081E00E949B078130D9F381E00E94DB0220
:102EB00062E081E00E94550360E081E00E945503DA
:102EC00081E00E949B078823D9F361E081E00E94A2
:102ED000550360E081E00E94550381E00E941A03DF
:102EE00081E00E94DB0281E00E949B078823D9F3E6
:102EF0006FEF81E00E94DE058093BE056FEF81E0F9
:102F00000E94DE058093BF0581E00E941A0381E0E4
:102F10000E949B078130D9F38091BF058F938091E8
:102F2000BE058F9382E693E09F938F930E94ED3FBF
:102F30000F900F900F900F9008956F927F928F9245
:102F40009F92AF92BF92CF92DF92EF92FF920F9338
:102F50001F93CF93DF93CDB7DEB76A970FB6F89480
:102F6000DEBF0FBECDBF989AA09A2FEF83ED90E3FE
:102F7000215080409040E1F700C00000A098EFEFA2
:102F8000F3ED20E3E150F0402040E1F700C0000005
:102F900081E00E94FC0181E00E94DB0281E00E944E
:102FA0009B078823D9F36FEF81E00E94DE058093B1
:102FB000BE056FEF81E00E94DE058093BF0581E0D2
:102FC0000E941A0381E00E949B078130D9F380910F
:102FD000BE059091BF058231944309F07DC081E028
:102FE0000E94DB0262E081E00E94550360E081E024
:102FF0000E94550381E00E949B078823D9F360E07B
:1030000081E00E94550360E081E00E94550381E069
:103010000E941A0381E00E94DB0281E00E949B076C
:103020008823D9F36FEF81E00E94DE058093BE050F
:103030006FEF81E00E94DE058093BF0581E00E9472
:103040001A0381E00E949B078130D9F30091BE05ED
:103050001091BF0581E00E94DB0262E081E00E94E6
:10306000550360E081E00E94550381E00E949B07C8
:103070008823D9F361E081E00E94550360E081E09C
:103080000E94550381E00E941A0381E00E94DB0246
:1030900081E00E949B078823D9F36FEF81E00E94B3
:1030A000DE058093BE056FEF81E00E94DE05809310
:1030B000BF0581E00E941A0381E00E949B078130D6
:1030C000D9F38091BE059091BF05012B09F087CF00
:1030D0008F379D4109F083CF80E094E09A83898304
:1030E00084E690E09C838B8381E00E94DB0264E0B5
:1030F00081E00E94550360E081E00E945503CE010B
:1031000001963C017C0101E010E00DC0F7016081F7
:1031100081E00E9455030430110599F00F5F1F4FA5
:10312000FFEFEF1AFF0A0130110581F781E00E94DD
:103130009B078823D9F3F701608181E00E94550342
:10314000EDCF81E00E941A0381E00E94DB0281E062
:103150000E949B078823D9F36FEF81E00E94DE0570
:103160008093BE056FEF81E00E94DE058093BF056E
:1031700081E00E941A0381E00E949B078130D9F30D
:1031800081E00E94DB0262E081E00E94550360E082
:1031900081E00E94550381E00E949B078823D9F3B8
:1031A00060E881E00E94550361E081E00E945503E0
:1031B00081E00E941A0381E00E94DB0281E00E940C
:1031C0009B078823D9F36FEF81E00E94DE0580938F
:1031D000BE056FEF81E00E94DE058093BF0581E0B0
:1031E0000E941A0381E00E949B078130D9F385E594
:1031F00091E09A83898384E090E09C838B8381E0D3
:103200000E94DB0264E081E00E94550360E081E0FF
:103210000E945503730101E010E00DC0F7016081C9
:1032200081E00E9455030430110599F00F5F1F4F94
:10323000FFEFEF1AFF0A0130110581F781E00E94CC
:103240009B078823D9F3F701608181E00E94550331
:10325000EDCF81E00E941A0381E00E94DB0281E051
:103260000E949B078823D9F36FEF81E00E94DE055F
:103270008093BE056FEF81E00E94DE058093BF055D
:1032800081E00E941A0381E00E949B078130D9F3FC
:1032900080E791E09A8389838BEE93ED9C838B8307
:1032A00089EE90E09E838D8381E00E94DB0266E0E0
:1032B00081E00E94550360E081E00E9455037301A4
:1032C00001E010E00DC0F701608181E00E9455032C
:1032D0000630110599F00F5F1F4FFFEFEF1AFF0A3D
:1032E0000130110581F781E00E949B078823D9F303
:1032F000F701608181E00E945503EDCF81E00E94DB
:103300001A0381E00E94DB0281E00E949B07882370
:10331000D9F36FEF81E00E94DE058093BE056FEF69
:1033200081E00E94DE058093BF0581E00E941A03C0
:1033300081E00E949B078130D9F38BE1E5EEF3E059
:10334000D30101900D928A95E1F7E090D706F090B5
:10335000D8060091D9061091DA067F926F92812CDF
:10336000912CA12CB12C54E0C52ED12C2EE130E0B3
:1033700040EF50E06EE070E08EEB95E00E94313857
:103380008FE692E09F938F9389E793E09F938F93CB
:103390007F926F920E942C40E090D706F090D80662
:1033A0000091D9061091DA067F926F9263E0C62EE3
:1033B000D12C24E630E04AE050E067E070E08EEB8C
:1033C00095E00E94313889E692E09F938F9388E8D8
:1033D00093E09F938F937F926F920E942C40E09096
:1033E000D706F090D8060091D9061091DA067F92A0
:1033F0006F9228E730E04AE050E067E070E08EEB43
:1034000095E00E94313883E692E09F938F9389E99B
:1034100093E09F938F937F926F920E942C40E09055
:10342000D706F090D8060091D9061091DA067F925F
:103430006F922CE830E04AE050E067E070E08EEBFD
:1034400095E00E94313881E1EAEAF3E0D30101908E
:103450000D928A95E1F7E090D706F090D80600919A
:10346000D9061091DA067F926F922CED30E04AE097
:1034700050E068E070E08EEB95E00E94313881E02A
:103480000E94DB0262E081E00E94550360E081E07F
:103490000E9455030FB6F894DEBF0FBECDBF81E08A
:1034A0000E949B078823D9F361E881E00E945503BD
:1034B00061E081E00E94550381E00E941A0381E0EF
:1034C0000E94DB0281E00E949B078823D9F36FEF03
:1034D00081E00E94DE058093BE056FEF81E00E94CF
:1034E000DE058093BF0581E00E941A0381E00E94FF
:1034F0009B078130D9F381E094E09E8B8D8B82E035
:1035000090E0988F8F8B1A8E198E81E00E94DB02DB
:1035100066E081E00E94550360E081E00E9455036F
:103520007E0195E1E90EF11C01E010E00DC0F7010C
:10353000608181E00E9455030630110599F00F5F0C
:103540001F4FEFEFEE1AFE0A0130110581F781E0FF
:103550000E949B078823D9F3F701608181E00E94D4
:103560005503EDCF81E00E941A0381E00E94DB0247
:1035700081E00E949B078823D9F36FEF81E00E94CE
:10358000DE058093BE056FEF81E00E94DE0580932B
:10359000BF0581E00E941A0381E00E949B078130F1
:1035A000D9F36BEB73E08EEB95E00E9456396A9687
:1035B0000FB6F894DEBF0FBECDBFDF91CF911F9144
:1035C0000F91FF90EF90DF90CF90BF90AF909F90C2
:1035D0008F907F906F9008950F931F93CF93DF93F9
:1035E000989AA09A07E011E0F80180818E7F80838D
:1035F000C8E0D1E088818E7F888389EC97E00E94C3
:103600005B0984EC97E00E94F60880EC97E00E944A
:10361000CB0883EB97E00E94310985EA97E00E948E
:10362000F02FF80180818460808388818B7F88837C
:103630008081806180838881806188830E9A16985A
:103640000C9A14980A9A1298A4E0B1E08C918062C6
:103650008C93E5E0F1E080818F7D80838C918068A0
:103660008C9380818F778083F80180818064808350
:1036700088818F7B8883089A1098A1E0B1E08C91B3
:1036800080648C93E2E0F1E080818F7B80838C9179
:1036900080688C9380818F7780838C918F7E8C93D0
:1036A00080818F7E80838C918F7D8C9380818F7DB4
:1036B0008083999AA1989B9AA398579A5F9A60E001
:1036C00070E889EC97E00E94380960E070E084ECD3
:1036D00097E00E94D20840E050E0BA0180EC97E009
:1036E0000E94A5080E949D170E94E00DFFEF23E2B3
:1036F00084EFF15020408040E1F700C00000DF91EE
:10370000CF911F910F9108956F927F928F929F9208
:10371000AF92BF92CF92DF92EF92FF920F931F93DF
:10372000CF93DF93CDB7DEB7C654D1090FB6F89467
:10373000DEBF0FBECDBF81E00E94DB0262E081E010
:103740000E94550360E081E00E94550381E00E94E1
:103750009B078823D9F360E881E00E94550361E06C
:1037600081E00E94550381E00E941A0381E00E94DB
:10377000DB0281E00E949B078823D9F36FEF81E091
:103780000E94DE058093BE056FEF81E00E94DE059A
:103790008093BF0581E00E941A0381E00E949B078D
:1037A0008130D9F385E291E09A83898388E090E0C3
:1037B0009C838B8381E00E94DB0264E081E00E94B5
:1037C000550360E081E00E945503CE0101963C0163
:1037D0007C0101E010E00DC0F701608181E00E94F2
:1037E00055030430110599F00F5F1F4F9FEFE91A41
:1037F000F90A0130110581F781E00E949B078823B7
:10380000D9F3F701608181E00E945503EDCF81E09B
:103810000E941A0381E00E94DB0281E00E949B0764
:103820008823D9F36FEF81E00E94DE058093BE0507
:103830006FEF81E00E94DE058093BF0581E00E946A
:103840001A0381E00E949B078130D9F385E591E05E
:103850009A83898384E090E09C838B8381E00E943B
:10386000DB0264E081E00E94550360E081E00E9499
:103870005503730101E010E00DC0F701608181E0A4
:103880000E9455030430110599F00F5F1F4FFFEFA1
:10389000EF1AFF0A0130110581F781E00E949B07B2
:1038A0008823D9F3F701608181E00E945503EDCFB1
:1038B00081E00E941A0381E00E94DB0281E00E9405
:1038C0009B078823D9F36FEF81E00E94DE05809388
:1038D000BE056FEF81E00E94DE058093BF0581E0A9
:1038E0000E941A0381E00E949B078130D9F38091E6
:1038F000100290911102A0911202B091130224E2E1
:1039000031E03A8329839C838B83BE83AD8381E03E
:103910000E94DB0266E081E00E94550360E081E0E6
:103920000E945503730101E010E00DC0F7016081B2
:1039300081E00E9455030630110599F00F5F1F4F7B
:10394000FFEFEF1AFF0A0130110581F781E00E94B5
:103950009B078823D9F3F701608181E00E9455031A
:10396000EDCF81E00E941A0381E00E94DB0281E03A
:103970000E949B078823D9F36FEF81E00E94DE0548
:103980008093BE056FEF81E00E94DE058093BF0546
:1039900081E00E941A0381E00E949B078130D9F3E5
:1039A00080E093E09A83898381E090E09C838B831D
:1039B0000E94DB0264E081E00E94550360E081E048
:1039C0000E945503730101E010E00DC0F701608112
:1039D00081E00E9455030430110599F00F5F1F4FDD
:1039E000FFEFEF1AFF0A0130110581F781E00E9415
:1039F0009B078823D9F3F701608181E00E9455037A
:103A0000EDCF81E00E941A0381E00E94DB0281E099
:103A10000E949B078823D9F36FEF81E00E94DE05A7
:103A20008093BE056FEF81E00E94DE058093BF05A5
:103A300081E00E941A0381E00E949B078130D9F344
:103A40008091CA06882311F40C94AD2D46EE58EDF2
:103A50006DEA70E08EEB95E00E94E43880E591E03D
:103A60009A83898380EB94E09C838B8388E691E042
:103A70009E838D8380E699E098878F8380ED92E026
:103A80009A87898781E00E94DB026AE081E00E94D8
:103A9000550360E081E00E945503730101E010E0EE
:103AA0000DC0F701608181E00E9455030A301105C5
:103AB00099F00F5F1F4FFFEFEF1AFF0A013011055A
:103AC00081F781E00E949B078823D9F3F701608189
:103AD00081E00E945503EDCF81E00E941A0381E04E
:103AE0000E94DB0281E00E949B078823D9F36FEFDD
:103AF00081E00E94DE058093BE056FEF81E00E94A9
:103B0000DE058093BF0581E00E941A0381E00E94D8
:103B10009B078130D9F380912C028F9380912B02E7
:103B20008F9380912A028F93809129028F9380E056
:103B300094E09F938F937F926F920E942C40E0902D
:103B4000D706F090D8060091D9061091DA067F9238
:103B50006F92812C912CA12CB12C74E0C72ED12C0A
:103B60002DE230E046E950E060E170E08EEB95E058
:103B70000E94313880E291E09CAB8BAB80E699E00B
:103B80009EAB8DAB18AE1FAA9AAF89AF80ED92E0C5
:103B90009CAF8BAF81E00E94DB026AE081E00E9473
:103BA000550360E081E00E945503CE01C3967C017D
:103BB0000FB6F894DEBF0FBECDBF01E010E00DC020
:103BC000F701608181E00E9455030A30110599F0E8
:103BD0000F5F1F4FFFEFEF1AFF0A0130110581F74A
:103BE00081E00E949B078823D9F3F701608181E07F
:103BF0000E945503EDCF81E00E941A0381E00E94EC
:103C0000DB0281E00E949B078823D9F36FEF81E0FC
:103C10000E94DE058093BE056FEF81E00E94DE0505
:103C20008093BF0581E00E941A0381E00E949B07F8
:103C30008130D9F380E093E09CAB8BAB82E090E0E5
:103C40009EAB8DAB81E00E94DB0264E081E00E94CC
:103C5000550360E081E00E945503CE01C3967C01CC
:103C600001E010E00DC0F701608181E00E94550382
:103C70000430110599F00F5F1F4F9FEFE91AF90A01
:103C80000130110581F781E00E949B078823D9F359
:103C9000F701608181E00E945503EDCF81E00E9431
:103CA0001A0381E00E94DB0281E00E949B078823C7
:103CB000D9F36FEF81E00E94DE058093BE056FEFC0
:103CC00081E00E94DE058093BF0581E00E941A0317
:103CD00081E00E949B078130D9F34FEF5FEF6FEFD8
:103CE00070E08EEB95E00E94E43880E591E09CABBB
:103CF0008BAB88EC9AE09EAB8DAB88E691E098AFF9
:103D00008FAB80ED92E09AAF89AF9CAF8BAF81E033
:103D10000E94DB026AE081E00E94550360E081E0DE
:103D20000E945503CE01C3967C0101E010E00DC056
:103D3000F701608181E00E9455030A30110599F076
:103D40000F5F1F4F9FEFE91AF90A0130110581F744
:103D500081E00E949B078823D9F3F701608181E00D
:103D60000E945503EDCF81E00E941A0381E00E947A
:103D7000DB0281E00E949B078823D9F36FEF81E08B
:103D80000E94DE058093BE056FEF81E00E94DE0594
:103D90008093BF0581E00E941A0381E00E949B0787
:103DA0008130D9F3E090D706F090D8060091D9067B
:103DB0001091DA0689E094E09F938F93812C912CE7
:103DC000A12CB12C64E0C62ED12C29E130E049E5CC
:103DD00051E06EE070E08EEB95E00E94313880910A
:103DE00022028F93809121028F938DE094E09F9324
:103DF0008F937F926F920E942C40E090D706F090B4
:103E0000D8060091D9061091DA067F926F9221E4CC
:103E100030E049E551E06EE070E08EEB95E00E9405
:103E2000313880E291E09CAB8BAB80E39CE09EABB1
:103E30008DAB18AE1FAA9AAF89AF80ED92E09CAF10
:103E40008BAF81E00E94DB026AE081E00E945503B3
:103E500060E081E00E945503CE01C3967C010FB65D
:103E6000F894DEBF0FBECDBF01E010E00DC0F7013A
:103E7000608181E00E9455030A30110599F00F5FBF
:103E80001F4FFFEFEF1AFF0A0130110581F781E0A4
:103E90000E949B078823D9F3F701608181E00E948B
:103EA0005503EDCF81E00E941A0381E00E94DB02FE
:103EB00081E00E949B078823D9F36FEF81E00E9485
:103EC000DE058093BE056FEF81E00E94DE058093E2
:103ED000BF0581E00E941A0381E00E949B078130A8
:103EE000D9F380E093E09CAB8BAB83E090E09EAB9A
:103EF0008DAB81E00E94DB0264E081E00E9455030B
:103F000060E081E00E945503CE01C3967C0101E090
:103F100010E00DC0F701608181E00E94550304307C
:103F2000110599F00F5F1F4F9FEFE91AF90A013051
:103F3000110581F781E00E949B078823D9F3F701DF
:103F4000608181E00E945503EDCF81E00E941A0359
:103F500081E00E94DB0281E00E949B078823D9F365
:103F60006FEF81E00E94DE058093BE056FEF81E078
:103F70000E94DE058093BF0581E00E941A0381E064
:103F80000E949B078130D9F34FEF5FEF6FEF70E036
:103F90008EEB95E00E94E43880E591E09CAB8BAB22
:103FA00088E99DE09EAB8DAB88E691E098AF8FAB42
:103FB00080ED92E09AAF89AF9CAF8BAF81E00E9419
:103FC000DB026AE081E00E94550360E081E00E942C
:103FD0005503CE01C3967C0101E010E00DC0F7014E
:103FE000608181E00E9455030A30110599F00F5F4E
:103FF0001F4F9FEFE91AF90A0130110581F781E09F
:104000000E949B078823D9F3F701608181E00E9419
:104010005503EDCF81E00E941A0381E00E94DB028C
:1040200081E00E949B078823D9F36FEF81E00E9413
:10403000DE058093BE056FEF81E00E94DE05809370
:10404000BF0581E00E941A0381E00E949B07813036
:10405000D9F3E090D706F090D8060091D9061091D8
:10406000DA0682E194E09F938F93812C912CA12C0E
:10407000B12C54E0C52ED12C29E130E043EB51E0C6
:104080006EE070E08EEB95E00E9431388091240262
:104090008F93809123028F938DE094E09F938F9371
:1040A0007F926F920E942C40E090D706F090D80645
:1040B0000091D9061091DA067F926F9221E430E0E8
:1040C00043EB51E06EE070E08EEB95E00E943138FA
:1040D00080E291E09CAB8BAB1EAA1DAA80ED92E022
:1040E00098AF8FAB20E03FE03AAF29AF9CAF8BAFEA
:1040F00081E00E94DB026AE081E00E94550360E0FB
:1041000081E00E945503CE01C3967C010FB6F8945E
:10411000DEBF0FBECDBF01E010E00DC0F701608132
:1041200081E00E9455030A30110599F00F5F1F4F7F
:10413000FFEFEF1AFF0A0130110581F781E00E94BD
:104140009B078823D9F3F701608181E00E94550322
:10415000EDCF81E00E941A0381E00E94DB0281E042
:104160000E949B078823D9F36FEF81E00E94DE0550
:104170008093BE056FEF81E00E94DE058093BF054E
:1041800081E00E941A0381E00E949B078130D9F3ED
:1041900080E093E09CAB8BAB87E090E09EAB8DAB77
:1041A00081E00E94DB0264E081E00E94550360E050
:1041B00081E00E945503CE01C3967C0101E010E02E
:1041C0000DC0F701608181E00E94550304301105A4
:1041D00099F00F5F1F4F9FEFE91AF90A013011059F
:1041E00081F781E00E949B078823D9F3F701608162
:1041F00081E00E945503EDCF81E00E941A0381E027
:104200000E94DB0281E00E949B078823D9F36FEFB5
:1042100081E00E94DE058093BE056FEF81E00E9481
:10422000DE058093BF0581E00E941A0381E00E94B1
:104230009B078130D9F38091D006882311F40C9428
:10424000A72D46EE58ED6DEA70E08EEB95E00E94EA
:10425000E43880E591E09CAB8BAB80E991E09EABCC
:104260008DAB88EE93E098AF8FAB80E293E09AAF8E
:1042700089AF80E392E09CAF8BAF81E00E94DB02CC
:104280006AE081E00E94550360E081E00E945503EE
:10429000CE01C3967C0101E010E00DC0F701608102
:1042A00081E00E9455030A30110599F00F5F1F4FFE
:1042B0009FEFE91AF90A0130110581F781E00E94A8
:1042C0009B078823D9F3F701608181E00E945503A1
:1042D000EDCF81E00E941A0381E00E94DB0281E0C1
:1042E0000E949B078823D9F36FEF81E00E94DE05CF
:1042F0008093BE056FEF81E00E94DE058093BF05CD
:1043000081E00E941A0381E00E949B078130D9F36B
:10431000E090D706F090D8060091D9061091DA0601
:1043200086E194E09F938F93812C912CA12CB12C4A
:10433000C12CD12C2FE530E045E050E06DE070E07D
:104340008EEB95E00E943138809118021F928F9376
:1043500088E194E09F938F937F926F920E942C400C
:10436000E090D706F090D8060091D9061091DA06B1
:104370007F926F9244E0C42ED12C23E830E046E3D4
:1043800050E06FE070E08EEB95E00E94313880E203
:1043900091E09CAB8BAB80E293E09EAB8DAB20EDCC
:1043A00032E038AF2FAB9AAF89AF80E095E09CAF99
:1043B0008BAF81E00E94DB026AE081E00E9455033E
:1043C00060E081E00E945503CE01C3967C010FB6E8
:1043D000F894DEBF0FBECDBF01E010E00DC0F701C5
:1043E000608181E00E9455030A30110599F00F5F4A
:1043F0001F4FFFEFEF1AFF0A0130110581F781E02F
:104400000E949B078823D9F3F701608181E00E9415
:104410005503EDCF81E00E941A0381E00E94DB0288
:1044200081E00E949B078823D9F36FEF81E00E940F
:10443000DE058093BE056FEF81E00E94DE0580936C
:10444000BF0581E00E941A0381E00E949B07813032
:10445000D9F380E093E09CAB8BAB88E090E09EAB1F
:104460008DAB81E00E94DB0264E081E00E94550395
:1044700060E081E00E945503CE01C3967C0101E01B
:1044800010E00DC0F701608181E00E945503043007
:10449000110599F00F5F1F4F9FEFE91AF90A0130DC
:1044A000110581F781E00E949B078823D9F3F7016A
:1044B000608181E00E945503EDCF81E00E941A03E4
:1044C00081E00E94DB0281E00E949B078823D9F3F0
:1044D0006FEF81E00E94DE058093BE056FEF81E003
:1044E0000E94DE058093BF0581E00E941A0381E0EF
:1044F0000E949B078130D9F38091D106882311F463
:104500000C94A12D46EE58ED6DEA70E08EEB95E02F
:104510000E94E43880E591E09CAB8BAB80EB94E0AB
:104520009EAB8DAB88EE93E098AF8FAB80E293E0CB
:104530009AAF89AF80E392E09CAF8BAF81E00E949D
:10454000DB026AE081E00E94550360E081E00E94A6
:104550005503CE01C3967C0101E010E00DC0F701C8
:10456000608181E00E9455030A30110599F00F5FC8
:104570001F4F9FEFE91AF90A0130110581F781E019
:104580000E949B078823D9F3F701608181E00E9494
:104590005503EDCF81E00E941A0381E00E94DB0207
:1045A00081E00E949B078823D9F36FEF81E00E948E
:1045B000DE058093BE056FEF81E00E94DE058093EB
:1045C000BF0581E00E941A0381E00E949B078130B1
:1045D000D9F3E090D706F090D8060091D906109153
:1045E000DA068BE194E09F938F93812C912CA12C80
:1045F000B12CC12CD12C20E630E049E650E06DE032
:1046000070E08EEB95E00E943138809117021F9286
:104610008F9388E194E09F938F937F926F920E9493
:104620002C40E090D706F090D8060091D906109162
:10463000DA067F926F9234E0C32ED12C22E830E06C
:104640004AE950E06FE070E08EEB95E00E9431386F
:1046500080E291E09CAB8BAB80E496E09EAB8DABAF
:1046600020ED32E038AF2FAB9AAF89AF80E095E014
:104670009CAF8BAF81E00E94DB026AE081E00E9488
:10468000550360E081E00E945503CE01C3967C0192
:104690000FB6F894DEBF0FBECDBF01E010E00DC035
:1046A000F701608181E00E9455030A30110599F0FD
:1046B0000F5F1F4FFFEFEF1AFF0A0130110581F75F
:1046C00081E00E949B078823D9F3F701608181E094
:1046D0000E945503EDCF81E00E941A0381E00E9401
:1046E000DB0281E00E949B078823D9F36FEF81E012
:1046F0000E94DE058093BE056FEF81E00E94DE051B
:104700008093BF0581E00E941A0381E00E949B070D
:104710008130D9F380E093E09CAB8BAB89E090E0F3
:104720009EAB8DAB81E00E94DB0264E081E00E94E1
:10473000550360E081E00E945503CE01C3967C01E1
:1047400001E010E00DC0F701608181E00E94550397
:104750000430110599F00F5F1F4F9FEFE91AF90A16
:104760000130110581F781E00E949B078823D9F36E
:10477000F701608181E00E945503EDCF81E00E9446
:104780001A0381E00E94DB0281E00E949B078823DC
:10479000D9F36FEF81E00E94DE058093BE056FEFD5
:1047A00081E00E94DE058093BF0581E00E941A032C
:1047B00081E00E949B078130D9F38091D206882343
:1047C00011F40C949B2D46EE58ED6DEA70E08EEBE3
:1047D00095E00E94E43880E591E09CAB8BAB80EDE6
:1047E00097E09EAB8DAB88EE93E098AF8FAB80E205
:1047F00093E09AAF89AF80E392E09CAF8BAF81E00A
:104800000E94DB026AE081E00E94550360E081E0E3
:104810000E945503CE01C3967C0101E010E00DC05B
:10482000F701608181E00E9455030A30110599F07B
:104830000F5F1F4F9FEFE91AF90A0130110581F749
:1048400081E00E949B078823D9F3F701608181E012
:104850000E945503EDCF81E00E941A0381E00E947F
:10486000DB0281E00E949B078823D9F36FEF81E090
:104870000E94DE058093BE056FEF81E00E94DE0599
:104880008093BF0581E00E941A0381E00E949B078C
:104890008130D9F3E090D706F090D8060091D90680
:1048A0001091DA068DE194E09F938F93812C912CE7
:1048B000A12CB12CC12CD12C20E630E04DEC50E0E5
:1048C0006DE070E08EEB95E00E9431388091160229
:1048D0001F928F9388E194E09F938F937F926F92C2
:1048E0000E942C40E090D706F090D8060091D9069F
:1048F0001091DA067F926F9224E0C22ED12C22E82A
:1049000030E04EEF50E06FE070E08EEB95E00E94FB
:10491000313880E291E09CAB8BAB80E699E09EABB6
:104920008DAB20ED32E038AF2FAB9AAF89AF80E08E
:1049300095E09CAF8BAF81E00E94DB026AE081E0F2
:104940000E94550360E081E00E945503CE01C396AA
:104950007C010FB6F894DEBF0FBECDBF01E010E0C2
:104960000DC0F701608181E00E9455030A301105F6
:1049700099F00F5F1F4FFFEFEF1AFF0A013011058B
:1049800081F781E00E949B078823D9F3F7016081BA
:1049900081E00E945503EDCF81E00E941A0381E07F
:1049A0000E94DB0281E00E949B078823D9F36FEF0E
:1049B00081E00E94DE058093BE056FEF81E00E94DA
:1049C000DE058093BF0581E00E941A0381E00E940A
:1049D0009B078130D9F380E093E09CAB8BAB86E002
:1049E00090E09EAB8DAB81E00E94DB0264E081E051
:1049F0000E94550360E081E00E945503CE01C396FA
:104A00007C0101E010E00DC0F701608181E00E94AF
:104A100055030430110599F00F5F1F4F9FEFE91AFE
:104A2000F90A0130110581F781E00E949B07882374
:104A3000D9F3F701608181E00E945503EDCF81E059
:104A40000E941A0381E00E94DB0281E00E949B0722
:104A50008823D9F36FEF81E00E94DE058093BE05C5
:104A60006FEF81E00E94DE058093BF0581E00E9428
:104A70001A0381E00E949B078130D9F38091CF0611
:104A8000882311F40C94952D46EE58ED6DEA70E0F4
:104A90008EEB95E00E94E43880E591E09CAB8BAB17
:104AA00080E39CE09EAB8DAB88EE93E098AF8FAB3C
:104AB00080EA95E09AAF89AF80E392E09CAF8BAF3C
:104AC00081E00E94DB026AE081E00E94550360E021
:104AD00081E00E945503CE01C3967C0101E010E005
:104AE0000DC0F701608181E00E9455030A30110575
:104AF00099F00F5F1F4F9FEFE91AF90A0130110576
:104B000081F781E00E949B078823D9F3F701608138
:104B100081E00E945503EDCF81E00E941A0381E0FD
:104B20000E94DB0281E00E949B078823D9F36FEF8C
:104B300081E00E94DE058093BE056FEF81E00E9458
:104B4000DE058093BF0581E00E941A0381E00E9488
:104B50009B078130D9F380911E028F9380911D02B3
:104B60008F9380911C028F9380911B028F938FE112
:104B700094E09F938F937F926F920E942C40E090DD
:104B8000D706F090D8060091D9061091DA067F92E8
:104B90006F92812C912CA12CB12C94E0C92ED12C98
:104BA0002DE730E046E851E06FE070E08EEB95E0F5
:104BB0000E94313880E291E09CAB8BAB1EAA1DAA0B
:104BC00080E095E098AF8FAB20E03FE03AAF29AFAF
:104BD0009CAF8BAF81E00E94DB026AE081E00E9423
:104BE000550360E081E00E945503CE01C3967C012D
:104BF0000FB6F894DEBF0FBECDBF01E010E00DC0D0
:104C0000F701608181E00E9455030A30110599F097
:104C10000F5F1F4FFFEFEF1AFF0A0130110581F7F9
:104C200081E00E949B078823D9F3F701608181E02E
:104C30000E945503EDCF81E00E941A0381E00E949B
:104C4000DB0281E00E949B078823D9F36FEF81E0AC
:104C50000E94DE058093BE056FEF81E00E94DE05B5
:104C60008093BF0581E00E941A0381E00E949B07A8
:104C70008130D9F380E093E09CAB8BAB84E090E093
:104C80009EAB8DAB81E00E94DB0264E081E00E947C
:104C9000550360E081E00E945503CE01C3967C017C
:104CA00001E010E00DC0F701608181E00E94550332
:104CB0000430110599F00F5F1F4F9FEFE91AF90AB1
:104CC0000130110581F781E00E949B078823D9F309
:104CD000F701608181E00E945503EDCF81E00E94E1
:104CE0001A0381E00E94DB0281E00E949B07882377
:104CF000D9F36FEF81E00E94DE058093BE056FEF70
:104D000081E00E94DE058093BF0581E00E941A03C6
:104D100081E00E949B078130D9F382E591E09CAB52
:104D20008BAB8FEF9FEF9EAB8DAB8FEF90E098AF8B
:104D30008FAB81E00E94DB0266E081E00E945503B8
:104D400060E081E00E945503CE01C3967C0101E042
:104D500010E00DC0F701608181E00E94550306302C
:104D6000110599F00F5F1F4F9FEFE91AF90A013003
:104D7000110581F781E00E949B078823D9F3F70191
:104D8000608181E00E945503EDCF81E00E941A030B
:104D900081E00E94DB0281E00E949B078823D9F317
:104DA0006FEF81E00E94DE058093BE056FEF81E02A
:104DB0000E94DE058093BF0581E00E941A0381E016
:104DC0000E949B078130D9F380E591E09CAB8BABCF
:104DD00080E991E09EAB8DAB88E196E098AF8FAB18
:104DE00080E293E09AAF89AF80E392E09CAF8BAF13
:104DF00081E00E94DB026AE081E00E94550360E0EE
:104E000081E00E945503CE01C3967C0101E010E0D1
:104E10000DC0F701608181E00E9455030A30110541
:104E200099F00F5F1F4F9FEFE91AF90A0130110542
:104E300081F781E00E949B078823D9F3F701608105
:104E400081E00E945503EDCF81E00E941A0381E0CA
:104E50000E94DB0281E00E949B078823D9F36FEF59
:104E600081E00E94DE058093BE056FEF81E00E9425
:104E7000DE058093BF0581E00E941A0381E00E9455
:104E80009B078130D9F3E090D706F090D8060091C7
:104E9000D9061091DA0687E294E09F938F93812CD4
:104EA000912CA12CB12C84E0C82ED12C23EC30E025
:104EB00042E350E06CE070E08EEB95E00E94313808
:104EC00080E291E09CAB8BAB80E293E09EAB8DAB3C
:104ED00020E035E038AF2FAB9AAF89AF80E397E0A1
:104EE0009CAF8BAF81E00E94DB026AE081E00E9410
:104EF000550360E081E00E945503CE01C3967C011A
:104F00000F900F9001E010E00DC0F701608181E08B
:104F10000E9455030A30110599F00F5F1F4F9FEF54
:104F2000E91AF90A0130110581F781E00E949B0717
:104F30008823D9F3F701608181E00E945503EDCF0A
:104F400081E00E941A0381E00E94DB0281E00E945E
:104F50009B078823D9F36FEF81E00E94DE058093E1
:104F6000BE056FEF81E00E94DE058093BF0581E002
:104F70000E941A0381E00E949B078130D9F380E0F0
:104F800093E09CAB8BAB85E090E09EAB8DAB64E097
:104F900070E0CE01C3960E945F0981E00E94DB02AF
:104FA00081E00E949B078823D9F36FEF81E00E9484
:104FB000DE058093BE056FEF81E00E94DE058093E1
:104FC000BF0581E00E941A0381E00E949B078130A7
:104FD000D9F382E591E09CAB8BAB8DEC9AEF9EAB65
:104FE0008DAB8FEF90E098AF8FAB66E070E0CE01B5
:104FF000C3960E945F0981E00E94DB0281E00E946B
:105000009B078823D9F36FEF81E00E94DE05809330
:10501000BE056FEF81E00E94DE058093BF0581E051
:105020000E941A0381E00E949B078130D9F380E53A
:1050300091E09CAB8BAB80E496E09EAB8DAB28E11E
:1050400036E038AF2FAB9AAF89AF80E392E09CAFE8
:105050008BAF81E00E94DB026AE081E00E94550391
:1050600060E081E00E945503CE01C3967C0101E01F
:1050700010E00DC0F701608181E00E9455030A3005
:10508000110599F00F5F1F4F9FEFE91AF90A0130E0
:10509000110581F781E00E949B078823D9F3F7016E
:1050A000608181E00E945503EDCF81E00E941A03E8
:1050B00081E00E94DB0281E00E949B078823D9F3F4
:1050C0006FEF81E00E94DE058093BE056FEF81E007
:1050D0000E94DE058093BF0581E00E941A0381E0F3
:1050E0000E949B078130D9F38091BB078F938091F9
:1050F000BA078F938091B9078F938091B8078F93E8
:105100008EE294E09F938F937F926F920E942C4047
:10511000E090D706F090D8060091D9061091DA06F3
:105120007F926F92812C912CA12CB12CB5E0CB2ECB
:10513000D12C23EC30E048E151E06EE070E08EEBE2
:1051400095E00E9431388091D7069091D806A091C1
:10515000D906B091DA0621E431E03CAB2BAB28E074
:1051600038E03EAB2DAB20EA35E038AF2FAB28E17D
:1051700030E03AAF29AF20E230E03CAF2BAF9EAF3A
:105180008DAF2196BFAFAEAF219784E090E023961C
:105190009FAF8EAF239725961FAE1EAE25972796FD
:1051A0001FAE1EAE279764E170E0CE01C3960E9449
:1051B0005F0981E00E94DB020FB6F894DEBF0FBEEC
:1051C000CDBF81E00E949B078823D9F36FEF81E078
:1051D0000E94DE058093BE056FEF81E00E94DE0530
:1051E0008093BF0581E00E941A0381E00E949B0723
:1051F0008130D9F380E291E09CAB8BAB80E699E003
:105200009EAB8DAB20E035E038AF2FAB9AAF89AFC6
:1052100080E397E09CAF8BAF81E00E94DB026AE005
:1052200081E00E94550360E081E00E945503FE0189
:10523000F3967F0101E010E00DC0F701608181E08D
:105240000E9455030A30110599F00F5F1F4FFFEFC1
:10525000EF1AFF0A0130110581F781E00E949B07D8
:105260008823D9F3F701608181E00E945503EDCFD7
:1052700081E00E941A0381E00E94DB0281E00E942B
:105280009B078823D9F36FEF81E00E94DE058093AE
:10529000BE056FEF81E00E94DE058093BF0581E0CF
:1052A0000E941A0381E00E949B078130D9F380E0BD
:1052B00093E09CAB8BAB8AE090E09EAB8DAB81E042
:1052C0000E94DB0264E081E00E94550360E081E01F
:1052D0000E945503CE01C3967C0101E010E00DC091
:1052E000F701608181E00E9455030430110599F0B7
:1052F0000F5F1F4F9FEFE91AF90A0130110581F77F
:1053000081E00E949B078823D9F3F701608181E047
:105310000E945503EDCF81E00E941A0381E00E94B4
:10532000DB0281E00E949B078823D9F36FEF81E0C5
:105330000E94DE058093BE056FEF81E00E94DE05CE
:105340008093BF0581E00E941A0381E00E949B07C1
:105350008130D9F382E591E09CAB8BAB8FEF9FEF6F
:105360009EAB8DAB8FEF90E098AF8FAB81E00E944A
:10537000DB0266E081E00E94550360E081E00E946C
:105380005503CE01C3967C0101E010E00DC0F7018A
:10539000608181E00E9455030630110599F00F5F8E
:1053A0001F4F9FEFE91AF90A0130110581F781E0DB
:1053B0000E949B078823D9F3F701608181E00E9456
:1053C0005503EDCF81E00E941A0381E00E94DB02C9
:1053D00081E00E949B078823D9F36FEF81E00E9450
:1053E000DE058093BE056FEF81E00E94DE058093AD
:1053F000BF0581E00E941A0381E00E949B07813073
:10540000D9F380E591E09CAB8BAB88EC9AE09EAB46
:105410008DAB88E196E098AF8FAB80ED92E09AAFCC
:1054200089AF80E392E09CAF8BAF81E00E94DB020A
:105430006AE081E00E94550360E081E00E9455032C
:10544000CE01C3967C0101E010E00DC0F701608140
:1054500081E00E9455030A30110599F00F5F1F4F3C
:105460009FEFE91AF90A0130110581F781E00E94E6
:105470009B078823D9F3F701608181E00E945503DF
:10548000EDCF81E00E941A0381E00E94DB0281E0FF
:105490000E949B078823D9F36FEF81E00E94DE050D
:1054A0008093BE056FEF81E00E94DE058093BF050B
:1054B00081E00E941A0381E00E949B078130D9F3AA
:1054C00080E291E09CAB8BAB80E39CE09EAB8DAB2C
:1054D00020E035E038AF2FAB9AAF89AF80E397E09B
:1054E0009CAF8BAF81E00E94DB026AE081E00E940A
:1054F000550360E081E00E945503CE01C3967C0114
:1055000001E010E00DC0F701608181E00E945503C9
:105510000A30110599F00F5F1F4F9FEFE91AF90A42
:105520000130110581F781E00E949B078823D9F3A0
:10553000F701608181E00E945503EDCF81E00E9478
:105540001A0381E00E94DB0281E00E949B0788230E
:10555000D9F36FEF81E00E94DE058093BE056FEF07
:1055600081E00E94DE058093BF0581E00E941A035E
:1055700081E00E949B078130D9F380E093E09CABEF
:105580008BAB8BE090E09EAB8DAB81E00E94DB02A9
:1055900064E081E00E94550360E081E00E945503D1
:1055A000CE01C3967C0101E010E00DC0F7016081DF
:1055B00081E00E9455030430110599F00F5F1F4FE1
:1055C0009FEFE91AF90A0130110581F781E00E9485
:1055D0009B078823D9F3F701608181E00E9455037E
:1055E000EDCF81E00E941A0381E00E94DB0281E09E
:1055F0000E949B078823D9F36FEF81E00E94DE05AC
:105600008093BE056FEF81E00E94DE058093BF05A9
:1056100081E00E941A0381E00E949B078130D9F348
:1056200082E591E09CAB8BAB8FEF9FEF9EAB8DAB98
:105630008FEF90E098AF8FAB81E00E94DB0266E0D5
:1056400081E00E94550360E081E00E945503CE0195
:10565000C3967C0101E010E00DC0F701608181E09C
:105660000E9455030630110599F00F5F1F4F9FEF01
:10567000E91AF90A0130110581F781E00E949B07C0
:105680008823D9F3F701608181E00E945503EDCFB3
:1056900081E00E941A0381E00E94DB0281E00E9407
:1056A0009B078823D9F36FEF81E00E94DE0580938A
:1056B000BE056FEF81E00E94DE058093BF0581E0AB
:1056C0000E941A0381E00E949B078130D9F380E594
:1056D00091E09CAB8BAB88E99DE09EAB8DAB88E104
:1056E00096E098AF8FAB80ED92E09AAF89AF80E300
:1056F00092E09CAF8BAF81E00E94DB026AE081E028
:105700000E94550360E081E00E945503CE01C396DC
:105710007C0101E010E00DC0F701608181E00E9492
:1057200055030A30110599F00F5F1F4F9FEFE91ADB
:10573000F90A0130110581F781E00E949B07882357
:10574000D9F3F701608181E00E945503EDCF81E03C
:105750000E941A0381E00E94DB0281E00E949B0705
:105760008823D9F36FEF81E00E94DE058093BE05A8
:105770006FEF81E00E94DE058093BF0581E00E940B
:105780001A0381E00E949B078130D9F380E291E007
:105790009CAB8BAB1EAA1DAA80E397E098AF8FABA2
:1057A00020E03FE03AAF29AF9CAF8BAF81E00E9491
:1057B000DB026AE081E00E94550360E081E00E9424
:1057C0005503CE01C3967C0101E010E00DC0F70146
:1057D000608181E00E9455030A30110599F00F5F46
:1057E0001F4F9FEFE91AF90A0130110581F781E097
:1057F0000E949B078823D9F3F701608181E00E9412
:105800005503EDCF81E00E941A0381E00E94DB0284
:1058100081E00E949B078823D9F36FEF81E00E940B
:10582000DE058093BE056FEF81E00E94DE05809368
:10583000BF0581E00E941A0381E00E949B0781302E
:10584000D9F380E093E09CAB8BAB8CE090E09EAB17
:105850008DAB81E00E94DB0264E081E00E94550391
:1058600060E081E00E945503CE01C3967C0101E017
:1058700010E00DC0F701608181E00E945503043003
:10588000110599F00F5F1F4F9FEFE91AF90A0130D8
:10589000110581F781E00E949B078823D9F3F70166
:1058A000608181E00E945503EDCF81E00E941A03E0
:1058B00081E00E94DB0281E00E949B078823D9F3EC
:1058C0006FEF81E00E94DE058093BE056FEF81E0FF
:1058D0000E94DE058093BF0581E00E941A0381E0EB
:1058E0000E949B078130D9F38091CE07882309F469
:1058F00017C148E95BEF68E970E08EEB95E00E9424
:10590000E43880E591E09CAB8BAB80E897E09EAB00
:105910008DAB88E998E098AF8FAB80E09FE09AAFBD
:1059200089AF80ED92E09CAF8BAF81E00E94DB02FB
:105930006AE081E00E94550360E081E00E94550327
:10594000CE01C3967C0101E010E00DC0F70160813B
:1059500081E00E9455030A30110599F00F5F1F4F37
:105960009FEFE91AF90A0130110581F781E00E94E1
:105970009B078823D9F3F701608181E00E945503DA
:10598000EDCF81E00E941A0381E00E94DB0281E0FA
:105990000E949B078823D9F36FEF81E00E94DE0508
:1059A0008093BE056FEF81E00E94DE058093BF0506
:1059B00081E00E941A0381E00E949B078130D9F3A5
:1059C0008091CE07882309F40CC18091A60781112C
:1059D000CAC068E873E180E090E00091AF071091E1
:1059E000B0072091B1073091B207601B710B820B99
:1059F000930B0E94343C20E030E04AE754E40E94DC
:105A00006A3B9F938F937F936F936091AB077091E5
:105A1000AC078091AD079091AE070E94343C20E026
:105A200030E04AE754E40E946A3B9F938F937F9350
:105A30006F9387E394E09F938F937F926F920E947E
:105A40002C400FB6F894DEBF0FBECDBFE090D70656
:105A5000F090D8060091D9061091DA067F926F92E5
:105A6000812C912CA12CB12C74E0C72ED12C23E1D8
:105A700031E040EF50E06FE070E08EEB95E00E9487
:105A8000313881E00E94DB0262E081E00E94550330
:105A900060E081E00E9455030F900F9081E00E942A
:105AA0009B078823D9F361E881E00E94550361E0F8
:105AB00081E00E94550381E00E941A0381E00E9468
:105AC000DB0281E00E949B078823D9F36FEF81E01E
:105AD0000E94DE058093BE056FEF81E00E94DE0527
